{
  "contractName": "PurchaseRegistry",
  "abi": [
    {
      "constant": true,
      "inputs": [],
      "name": "gateKeeper",
      "outputs": [
        {
          "name": "",
          "type": "address"
        }
      ],
      "payable": false,
      "stateMutability": "view",
      "type": "function"
    },
    {
      "constant": true,
      "inputs": [
        {
          "name": "",
          "type": "address"
        }
      ],
      "name": "purchases",
      "outputs": [
        {
          "name": "",
          "type": "address"
        }
      ],
      "payable": false,
      "stateMutability": "view",
      "type": "function"
    },
    {
      "constant": true,
      "inputs": [
        {
          "name": "",
          "type": "uint256"
        }
      ],
      "name": "purchasesIndex",
      "outputs": [
        {
          "name": "",
          "type": "address"
        }
      ],
      "payable": false,
      "stateMutability": "view",
      "type": "function"
    },
    {
      "constant": true,
      "inputs": [],
      "name": "token",
      "outputs": [
        {
          "name": "",
          "type": "address"
        }
      ],
      "payable": false,
      "stateMutability": "view",
      "type": "function"
    },
    {
      "inputs": [
        {
          "name": "_gateKeeper",
          "type": "address"
        },
        {
          "name": "_token",
          "type": "address"
        },
        {
          "name": "_streamRegistry",
          "type": "address"
        }
      ],
      "payable": false,
      "stateMutability": "nonpayable",
      "type": "constructor"
    },
    {
      "anonymous": false,
      "inputs": [
        {
          "indexed": false,
          "name": "stream",
          "type": "address"
        },
        {
          "indexed": false,
          "name": "user",
          "type": "address"
        },
        {
          "indexed": false,
          "name": "startTime",
          "type": "uint256"
        },
        {
          "indexed": false,
          "name": "endTime",
          "type": "uint256"
        },
        {
          "indexed": false,
          "name": "price",
          "type": "uint256"
        },
        {
          "indexed": false,
          "name": "purchase",
          "type": "address"
        }
      ],
      "name": "AccessPurchased",
      "type": "event"
    },
    {
      "anonymous": false,
      "inputs": [
        {
          "indexed": true,
          "name": "key",
          "type": "address"
        }
      ],
      "name": "AddressCacheInvalidated",
      "type": "event"
    },
    {
      "anonymous": false,
      "inputs": [
        {
          "indexed": true,
          "name": "key",
          "type": "bytes32"
        }
      ],
      "name": "Bytes32CacheInvalidated",
      "type": "event"
    },
    {
      "anonymous": false,
      "inputs": [
        {
          "indexed": true,
          "name": "key",
          "type": "uint256"
        }
      ],
      "name": "Uint256CacheInvalidated",
      "type": "event"
    },
    {
      "constant": false,
      "inputs": [
        {
          "name": "_stream",
          "type": "address"
        },
        {
          "name": "_endTime",
          "type": "uint256"
        }
      ],
      "name": "purchaseAccess",
      "outputs": [],
      "payable": false,
      "stateMutability": "nonpayable",
      "type": "function"
    },
    {
      "constant": false,
      "inputs": [
        {
          "name": "_stream",
          "type": "bytes32"
        }
      ],
      "name": "hasAccess",
      "outputs": [
        {
          "name": "access",
          "type": "bool"
        }
      ],
      "payable": false,
      "stateMutability": "nonpayable",
      "type": "function"
    },
    {
      "constant": false,
      "inputs": [
        {
          "name": "_salePercentage",
          "type": "uint256"
        }
      ],
      "name": "setSalePercentage",
      "outputs": [],
      "payable": false,
      "stateMutability": "nonpayable",
      "type": "function"
    },
    {
      "constant": true,
      "inputs": [],
      "name": "getIndexLength",
      "outputs": [
        {
          "name": "length",
          "type": "uint256"
        }
      ],
      "payable": false,
      "stateMutability": "view",
      "type": "function"
    },
    {
      "constant": true,
      "inputs": [
        {
          "name": "index",
          "type": "uint256"
        }
      ],
      "name": "getByIndex",
      "outputs": [
        {
          "name": "",
          "type": "bytes32"
        },
        {
          "name": "contractAddress",
          "type": "address"
        }
      ],
      "payable": false,
      "stateMutability": "view",
      "type": "function"
    },
    {
      "constant": true,
      "inputs": [
        {
          "name": "_key",
          "type": "address"
        }
      ],
      "name": "getByKey",
      "outputs": [
        {
          "name": "",
          "type": "bytes32"
        },
        {
          "name": "contractAddress",
          "type": "address"
        }
      ],
      "payable": false,
      "stateMutability": "view",
      "type": "function"
    },
    {
      "constant": false,
      "inputs": [
        {
          "name": "",
          "type": "address"
        },
        {
          "name": "_cachedBytes32",
          "type": "bytes32"
        },
        {
          "name": "",
          "type": "uint256"
        }
      ],
      "name": "invalidateCache",
      "outputs": [],
      "payable": false,
      "stateMutability": "nonpayable",
      "type": "function"
    }
  ],
  "bytecode": "0x60606040526001600755341561001457600080fd5b604051606080610c2b8339810160405261003790678000000000000000906100bd565b60008054600160a060020a03948516600160a060020a031991821617909155600180543086169083161790557f5075726368617365526567697374727900000000000000000000000000000000600255600580549385169382169390931790925560068054919093169116179055610116565b60006100b6825161010a565b9392505050565b6000806000606084860312156100d257600080fd5b60006100de86866100aa565b93505060206100ef868287016100aa565b9250506040610100868287016100aa565b9150509250925092565b600160a060020a031690565b610b06806101256000396000f3006060604052600436106100955763ffffffff60e060020a6000350416630999f424811461009a5780632d883a73146100ba5780633d188fab146100ef57806345d61ded1461010d578063498770381461012d57806372cc98501461014b578063842a77d314610169578063b8e52d8714610187578063db83423d146101b2578063e1ba7d01146101dd578063fc0c546a146101fd575b600080fd5b34156100a557600080fd5b6100b86100b33660046107fb565b610210565b005b34156100c557600080fd5b6100d86100d3366004610835565b61054a565b6040516100e6929190610967565b60405180910390f35b34156100fa57600080fd5b6100b86101083660046107ae565b610582565b341561011857600080fd5b6101206105bc565b6040516100e69190610982565b341561013857600080fd5b6100d8610146366004610788565b6105cb565b341561015657600080fd5b6100b8610164366004610835565b6105ec565b341561017457600080fd5b610120610182366004610788565b6105f1565b341561019257600080fd5b6101a56101a0366004610835565b61060c565b6040516100e69190610886565b34156101bd57600080fd5b6101d06101cb366004610835565b610634565b6040516100e69190610959565b34156101e857600080fd5b6101f061063a565b6040516100e69190610990565b341561020857600080fd5b610120610640565b6006546000908190819081908190600160a060020a0316633c1b12b68883604051602001526040518263ffffffff1660e060020a0281526004016102549190610886565b602060405180830381600087803b151561026d57600080fd5b6102c65a03f1151561027e57600080fd5b505050604051805195504294506102ad90506102a0878663ffffffff61064f16565b869063ffffffff61066616565b92506102d56102c8606460075461069c90919063ffffffff16565b849063ffffffff61066616565b600554600654919350600160a060020a03908116916323b872dd9133911663a72b0d2d8b6000604051602001526040518263ffffffff1660e060020a0281526004016103219190610886565b602060405180830381600087803b151561033a57600080fd5b6102c65a03f1151561034b57600080fd5b50505060405180519050610365878763ffffffff61064f16565b6000604051602001526040518463ffffffff1660e060020a02815260040161038f93929190610894565b602060405180830381600087803b15156103a857600080fd5b6102c65a03f115156103b957600080fd5b5050506040518051905015156103ce57600080fd5b600554600160a060020a03166323b872dd3330856000604051602001526040518463ffffffff1660e060020a02815260040161040c9392919061093e565b602060405180830381600087803b151561042557600080fd5b6102c65a03f1151561043657600080fd5b50505060405180519050151561044b57600080fd5b848487338a61045861071a565b61046695949392919061099e565b604051809103906000f080151561047c57600080fd5b600160a060020a0381166000818152600360205260409020805473ffffffffffffffffffffffffffffffffffffffff191690911790556004805491925090600181016104c88382610729565b506000918252602090912001805473ffffffffffffffffffffffffffffffffffffffff191633600160a060020a038116919091179091557fa46fb31f0524729f82c7e370054d0f3ad832386ce8a7ecf09d7368594d30b30590889086898786604051610539969594939291906108bc565b60405180910390a150505050505050565b60008061057960048481548110151561055f57fe5b600091825260209091200154600160a060020a03166105cb565b91509150915091565b817fd5c977477c90fd6c009dd3275798b51da8bd2df8e0a25be47773f87b53d2e39960405160405180910390a26105b76106b3565b505050565b600054600160a060020a031681565b600160a060020a039081166000908152600360205260408120549092911690565b600755565b600360205260009081526040902054600160a060020a031681565b600480548290811061061a57fe5b600091825260209091200154600160a060020a0316905081565b50600190565b60045490565b600554600160a060020a031681565b60008282111561065b57fe5b508082035b92915050565b6000808315156106795760009150610695565b5082820282848281151561068957fe5b041461069157fe5b8091505b5092915050565b60008082848115156106aa57fe5b04949350505050565b600154600254600160a060020a0390911690633d188fab90600090816040518463ffffffff1660e060020a0281526004016106f093929190610916565b600060405180830381600087803b151561070957600080fd5b6102c65a03f115156105b757600080fd5b60405160bb80610a1283390190565b8154818355818115116105b7576000838152602090206105b791810190830161076691905b80821115610762576000815560010161074e565b5090565b90565b600061077582356109ea565b9392505050565b60006107758235610766565b60006020828403121561079a57600080fd5b60006107a68484610769565b949350505050565b6000806000606084860312156107c357600080fd5b60006107cf8686610769565b93505060206107e08682870161077c565b92505060406107f18682870161077c565b9150509250925092565b6000806040838503121561080e57600080fd5b600061081a8585610769565b925050602061082b8582860161077c565b9150509250929050565b60006020828403121561084757600080fd5b60006107a6848461077c565b61085c816109ea565b82525050565b61085c816109f6565b61085c81610766565b61085c816109fb565b61085c81610a06565b602081016106608284610853565b606081016108a28286610853565b6108af6020830185610853565b6107a6604083018461086b565b60c081016108ca8289610853565b6108d76020830188610853565b6108e4604083018761086b565b6108f1606083018661086b565b6108fe608083018561086b565b61090b60a0830184610853565b979650505050505050565b606081016109248286610853565b610931602083018561086b565b6107a6604083018461087d565b6060810161094c8286610853565b6108af6020830185610874565b602081016106608284610862565b60408101610975828561086b565b6107756020830184610853565b602081016106608284610874565b60208101610660828461086b565b60a081016109ac828861086b565b6109b9602083018761086b565b6109c6604083018661086b565b6109d36060830185610853565b6109e06080830184610853565b9695505050505050565b600160a060020a031690565b151590565b6000610660826109ea565b600061066082610766560060606040523415600e57600080fd5b60405160a08060bb8339810160405280805191906020018051919060200180519190602001805191906020018051600096909655505060019290925560025560038054600160a060020a03928316600160a060020a0319918216179091556004805492909316911617905560358060866000396000f3006060604052600080fd00a165627a7a7230582037773f0e4920a0780b7ee0a22b4e451f081107232569db8d2d14dadeddb624b20029a265627a7a723058203063bb7156feaa79f8ba11b0189da9a85dfb62b43b0840a5644b90ce2d0ca06c6c6578706572696d656e74616cf50037",
  "source": "pragma solidity ^0.4.20;\npragma experimental ABIEncoderV2;\n\nimport \"./Purchase.sol\";\nimport \"../stream/StreamRegistry.sol\";\nimport \"../dtxtoken/DtxToken.sol\";\nimport \"@settlemint/solidity-mint/contracts/authentication/Secured.sol\";\nimport \"@settlemint/solidity-mint/contracts/utility/syncing/Syncable.sol\";\nimport \"@settlemint/solidity-mint/contracts/utility/caching/Cacher.sol\";\nimport \"@settlemint/solidity-mint/contracts/utility/caching/CachedByBytes32.sol\";\nimport \"zeppelin-solidity/contracts/math/SafeMath.sol\";\n\n\ncontract PurchaseRegistry is Secured, Syncable, Cacher, CachedByBytes32 {\n  using SafeMath for uint256;\n\n  event AccessPurchased(address stream, address user, uint startTime, uint endTime, uint price, address purchase);\n\n  mapping (address => Purchase) public purchases;\n  address[] public purchasesIndex;\n\n  DtxToken public token;\n  StreamRegistry streamRegistry;\n  uint salePercentage = 1;\n\n  /**\n  @dev Contructor\n  @notice                Sets the address for token\n  @param _gateKeeper     Address of the gatekeeper\n  @param _token          Address of the token\n  */\n  function PurchaseRegistry(\n    address _gateKeeper,\n    address _token,\n    address _streamRegistry\n  )\n    Secured(_gateKeeper)\n    CachedByBytes32(\"PurchaseRegistry\", this)\n    public\n  {\n    token = DtxToken(_token);\n    streamRegistry = StreamRegistry(_streamRegistry);\n  }\n\n  /**\n  @notice               Lets the sender buy access to the Stream\n  @param _stream        Id of the listing\n  @param _endTime       Timestamp of when the user will stop receiving Stream readings in seconds (not milliseconds!)\n  */\n  function purchaseAccess(address _stream, uint _endTime) public {\n    // Calculate total cost for the user\n    uint _streamPricePerSecond = streamRegistry.getStreamPrice(_stream);\n    uint _startTime = now;\n    uint _streamPrice = _streamPricePerSecond.mul(_endTime.sub(_startTime));\n\n    // Pay out:\n    uint _salePercentage = _streamPrice.mul(salePercentage.div(100));\n    // Sensor owner\n    require(token.transferFrom(msg.sender, streamRegistry.getStreamOwner(_stream), _streamPrice.sub(_salePercentage)));\n    // DBDAO\n    require(token.transferFrom(msg.sender, this, _salePercentage));\n\n    // Create purchase\n    Purchase purchase = new Purchase(\n      _streamPricePerSecond,\n      _startTime,\n      _endTime,\n      msg.sender,\n      _stream\n    );\n\n    // Push to mapping\n    purchases[address(purchase)] = purchase;\n    purchasesIndex.push(msg.sender);\n\n    AccessPurchased(_stream, msg.sender, _startTime, _endTime, _streamPrice, address(purchase));\n  }\n\n  /**\n  @notice               Returns whether or not the sender has access to this listing\n  @param _stream        Id of the listing\n  */\n  function hasAccess(bytes32 _stream) public returns (bool access){\n    // if (streams[_stream].purchases[msg.sender].endTime == 0) {\n    //   return false;\n    // }\n    return true;\n  }\n\n  /**\n  @notice               Returns array of ids of streams the user has access to\n  */\n  // function getAllPurchases() public returns (bytes32[] purchases) {\n  //   return userPurchases[msg.sender];\n  // }\n\n  /**\n  @notice                Sets the sale percentage\n  @param _salePercentage salePercentage\n  */\n  function setSalePercentage(uint _salePercentage) public {\n    salePercentage = _salePercentage;\n  }\n\n  /**\n  * implementation of syncable methods\n  */\n  function getIndexLength() public view returns (uint length) {\n    length = purchasesIndex.length;\n  }\n\n  function getByIndex(uint index) public view returns (bytes32 /*key*/, address contractAddress) {\n    return getByKey(purchasesIndex[index]);\n  }\n\n  function getByKey(address _key) public view returns (bytes32 /*key*/, address contractAddress) {\n    contractAddress = address(purchases[_key]);\n  }\n\n  /**\n  * implementation of cacher methods\n  */\n  function invalidateCache(address /*_cachedAddress*/, bytes32 _cachedBytes32, uint256 /*_cachedUint256*/) public {\n    Bytes32CacheInvalidated(_cachedBytes32);\n    super.invalidateCache();\n  }\n}\n",
  "sourcePath": "/Users/silkevandenbroeck/databrokerDAO/databrokerdao-dapi/contracts/purchase/PurchaseRegistry.sol",
  "compiler": {
    "name": "solc",
    "version": "0.4.20+commit.3155dd80.Emscripten.clang"
  },
  "schemaVersion": "1.0.1",
  "updatedAt": "2018-02-22T10:37:13.957Z"
}