{
  "contractName": "Stream",
  "abi": [
    {
      "constant": true,
      "inputs": [],
      "name": "challenges",
      "outputs": [
        {
          "name": "",
          "type": "uint256"
        }
      ],
      "payable": false,
      "stateMutability": "view",
      "type": "function"
    },
    {
      "constant": false,
      "inputs": [
        {
          "name": "_challenges",
          "type": "uint256"
        }
      ],
      "name": "setChallenges",
      "outputs": [],
      "payable": false,
      "stateMutability": "nonpayable",
      "type": "function"
    },
    {
      "constant": false,
      "inputs": [
        {
          "name": "_challengeID",
          "type": "uint256"
        }
      ],
      "name": "addChallengeID",
      "outputs": [],
      "payable": false,
      "stateMutability": "nonpayable",
      "type": "function"
    },
    {
      "constant": false,
      "inputs": [],
      "name": "getChallengeIDsLength",
      "outputs": [
        {
          "name": "length",
          "type": "uint256"
        }
      ],
      "payable": false,
      "stateMutability": "nonpayable",
      "type": "function"
    },
    {
      "constant": false,
      "inputs": [
        {
          "name": "_stake",
          "type": "uint256"
        }
      ],
      "name": "setStake",
      "outputs": [],
      "payable": false,
      "stateMutability": "nonpayable",
      "type": "function"
    },
    {
      "constant": true,
      "inputs": [],
      "name": "metadata",
      "outputs": [
        {
          "name": "",
          "type": "string"
        }
      ],
      "payable": false,
      "stateMutability": "view",
      "type": "function"
    },
    {
      "constant": true,
      "inputs": [],
      "name": "stake",
      "outputs": [
        {
          "name": "",
          "type": "uint256"
        }
      ],
      "payable": false,
      "stateMutability": "view",
      "type": "function"
    },
    {
      "constant": true,
      "inputs": [],
      "name": "whitelisted",
      "outputs": [
        {
          "name": "",
          "type": "bool"
        }
      ],
      "payable": false,
      "stateMutability": "view",
      "type": "function"
    },
    {
      "constant": true,
      "inputs": [],
      "name": "gateKeeper",
      "outputs": [
        {
          "name": "",
          "type": "address"
        }
      ],
      "payable": false,
      "stateMutability": "view",
      "type": "function"
    },
    {
      "constant": true,
      "inputs": [],
      "name": "challengesStake",
      "outputs": [
        {
          "name": "",
          "type": "uint256"
        }
      ],
      "payable": false,
      "stateMutability": "view",
      "type": "function"
    },
    {
      "constant": false,
      "inputs": [
        {
          "name": "_challengesStake",
          "type": "uint256"
        }
      ],
      "name": "setChallengesStake",
      "outputs": [],
      "payable": false,
      "stateMutability": "nonpayable",
      "type": "function"
    },
    {
      "constant": false,
      "inputs": [
        {
          "name": "_whitelisted",
          "type": "bool"
        }
      ],
      "name": "setWhitelisted",
      "outputs": [],
      "payable": false,
      "stateMutability": "nonpayable",
      "type": "function"
    },
    {
      "constant": true,
      "inputs": [
        {
          "name": "",
          "type": "address"
        }
      ],
      "name": "purchases",
      "outputs": [
        {
          "name": "",
          "type": "address"
        }
      ],
      "payable": false,
      "stateMutability": "view",
      "type": "function"
    },
    {
      "constant": true,
      "inputs": [],
      "name": "owner",
      "outputs": [
        {
          "name": "",
          "type": "address"
        }
      ],
      "payable": false,
      "stateMutability": "view",
      "type": "function"
    },
    {
      "constant": false,
      "inputs": [
        {
          "name": "_price",
          "type": "uint256"
        }
      ],
      "name": "setPrice",
      "outputs": [],
      "payable": false,
      "stateMutability": "nonpayable",
      "type": "function"
    },
    {
      "constant": true,
      "inputs": [],
      "name": "price",
      "outputs": [
        {
          "name": "",
          "type": "uint256"
        }
      ],
      "payable": false,
      "stateMutability": "view",
      "type": "function"
    },
    {
      "constant": true,
      "inputs": [
        {
          "name": "",
          "type": "uint256"
        }
      ],
      "name": "challengeIDs",
      "outputs": [
        {
          "name": "",
          "type": "uint256"
        }
      ],
      "payable": false,
      "stateMutability": "view",
      "type": "function"
    },
    {
      "constant": false,
      "inputs": [
        {
          "name": "_index",
          "type": "uint256"
        }
      ],
      "name": "getChallengeIDAtIndex",
      "outputs": [
        {
          "name": "challengeID",
          "type": "uint256"
        }
      ],
      "payable": false,
      "stateMutability": "nonpayable",
      "type": "function"
    },
    {
      "constant": true,
      "inputs": [],
      "name": "UPDATE_METADATA_ROLE",
      "outputs": [
        {
          "name": "",
          "type": "bytes32"
        }
      ],
      "payable": false,
      "stateMutability": "view",
      "type": "function"
    },
    {
      "inputs": [
        {
          "name": "_owner",
          "type": "address"
        },
        {
          "name": "_price",
          "type": "uint256"
        },
        {
          "name": "_stakeAmount",
          "type": "uint256"
        },
        {
          "name": "_gateKeeper",
          "type": "address"
        }
      ],
      "payable": false,
      "stateMutability": "nonpayable",
      "type": "constructor"
    },
    {
      "anonymous": false,
      "inputs": [
        {
          "indexed": true,
          "name": "key",
          "type": "address"
        }
      ],
      "name": "AddressCacheInvalidated",
      "type": "event"
    },
    {
      "anonymous": false,
      "inputs": [
        {
          "indexed": true,
          "name": "key",
          "type": "bytes32"
        }
      ],
      "name": "Bytes32CacheInvalidated",
      "type": "event"
    },
    {
      "anonymous": false,
      "inputs": [
        {
          "indexed": true,
          "name": "key",
          "type": "uint256"
        }
      ],
      "name": "Uint256CacheInvalidated",
      "type": "event"
    },
    {
      "constant": true,
      "inputs": [],
      "name": "getIndexLength",
      "outputs": [
        {
          "name": "length",
          "type": "uint256"
        }
      ],
      "payable": false,
      "stateMutability": "view",
      "type": "function"
    },
    {
      "constant": true,
      "inputs": [
        {
          "name": "index",
          "type": "uint256"
        }
      ],
      "name": "getByIndex",
      "outputs": [
        {
          "name": "key",
          "type": "bytes32"
        },
        {
          "name": "contractAddress",
          "type": "address"
        }
      ],
      "payable": false,
      "stateMutability": "view",
      "type": "function"
    },
    {
      "constant": true,
      "inputs": [
        {
          "name": "_key",
          "type": "bytes32"
        }
      ],
      "name": "getByKey",
      "outputs": [
        {
          "name": "key",
          "type": "bytes32"
        },
        {
          "name": "",
          "type": "address"
        }
      ],
      "payable": false,
      "stateMutability": "view",
      "type": "function"
    },
    {
      "constant": false,
      "inputs": [
        {
          "name": "_cachedAddress",
          "type": "address"
        },
        {
          "name": "",
          "type": "bytes32"
        },
        {
          "name": "",
          "type": "uint256"
        }
      ],
      "name": "invalidateCache",
      "outputs": [],
      "payable": false,
      "stateMutability": "nonpayable",
      "type": "function"
    },
    {
      "constant": false,
      "inputs": [
        {
          "name": "ipfsHash",
          "type": "string"
        }
      ],
      "name": "updateMetaData",
      "outputs": [],
      "payable": false,
      "stateMutability": "nonpayable",
      "type": "function"
    }
  ],
  "bytecode": "0x606060405260006003819055600481905560058190556007556008805460ff19166001179055341561003057600080fd5b6040516080806109838339810160405280805191906020018051919060200180519190602001805160008054600160a060020a03928316600160a060020a03199182161790915560018054308416921691909117905560088054919096166101000261010060a860020a03199091161790945550600391909155600455506108c6806100bd6000396000f3006060604052600436106101245763ffffffff60e060020a60003504166309af4fe681146101295780632d883a731461014e57806331ec7fce1461018557806332fd14411461019d57806333a2cc01146101b357806335d9db53146101c6578063392f37e9146101dc5780633a4b66f1146102665780633d188fab146102795780633d9287fa1461029e57806345d61ded146102c55780634a91da90146102f45780635cc075051461030a578063605cba821461035b5780636de149f51461036e5780637b78920414610384578063842a77d31461039c5780638da5cb5b146103bb57806391b7f5ed146103ce578063a035b1fe146103e4578063b4f8c542146103f7578063c32e11021461040d578063e1ba7d0114610423578063fff139cf14610436575b600080fd5b341561013457600080fd5b61013c610449565b60405190815260200160405180910390f35b341561015957600080fd5b61016460043561044f565b604051918252600160a060020a031660208201526040908101905180910390f35b341561019057600080fd5b61019b600435610477565b005b34156101a857600080fd5b61019b60043561047c565b34156101be57600080fd5b61013c61049d565b34156101d157600080fd5b61019b6004356104a4565b34156101e757600080fd5b6101ef6104a9565b60405160208082528190810183818151815260200191508051906020019080838360005b8381101561022b578082015183820152602001610213565b50505050905090810190601f1680156102585780820380516001836020036101000a031916815260200191505b509250505060405180910390f35b341561027157600080fd5b61013c610547565b341561028457600080fd5b61019b600160a060020a036004351660243560443561054d565b34156102a957600080fd5b6102b1610590565b604051901515815260200160405180910390f35b34156102d057600080fd5b6102d8610599565b604051600160a060020a03909116815260200160405180910390f35b34156102ff57600080fd5b6101646004356105a8565b341561031557600080fd5b61019b60046024813581810190830135806020601f820181900481020160405190810160405281815292919060208401838380828437509496506105ae95505050505050565b341561036657600080fd5b61013c6105c2565b341561037957600080fd5b61019b6004356105c8565b341561038f57600080fd5b61019b60043515156105cd565b34156103a757600080fd5b6102d8600160a060020a03600435166105e0565b34156103c657600080fd5b6102d86105fb565b34156103d957600080fd5b61019b60043561060f565b34156103ef57600080fd5b61013c610614565b341561040257600080fd5b61013c60043561061a565b341561041857600080fd5b61013c600435610639565b341561042e57600080fd5b61013c61065d565b341561044157600080fd5b61013c610662565b60055481565b507f310000000000000000000000000000000000000000000000000000000000000090600090565b600555565b600680546001810161048e83826107de565b50600091825260209091200155565b6006545b90565b600455565b60028054600181600116156101000203166002900480601f01602080910402602001604051908101604052809291908181526020018280546001816001161561010002031660029004801561053f5780601f106105145761010080835404028352916020019161053f565b820191906000526020600020905b81548152906001019060200180831161052257829003601f168201915b505050505081565b60045481565b82600160a060020a03167f2130e02bc65616aa7f8f548960f51a08a1d0ea94efb33611412208c2d0306a2260405160405180910390a261058b610686565b505050565b60085460ff1681565b600054600160a060020a031681565b90600090565b6105b7816106ee565b6105bf610686565b50565b60075481565b600755565b6008805460ff1916911515919091179055565b600960205260009081526040902054600160a060020a031681565b6008546101009004600160a060020a031681565b600355565b60035481565b600680548290811061062857fe5b600091825260209091200154905081565b600060068281548110151561064a57fe5b9060005260206000209001549050919050565b600090565b7f5550444154455f4d455441444154415f524f4c4500000000000000000000000081565b600154600160a060020a0316633d188fab30600060405160e060020a63ffffffff8516028152600160a060020a0390921660048301526044820152606401600060405180830381600087803b15156106dd57600080fd5b6102c65a03f1151561058b57600080fd5b7f5550444154455f4d455441444154415f524f4c450000000000000000000000006107193382610737565b151561072457600080fd5b600282805161058b929160200190610802565b60008054600160a060020a031615806107d7575060008054600160a060020a031690636d6712d8908590309086906040516020015260405160e060020a63ffffffff8616028152600160a060020a0393841660048201529190921660248201526044810191909152606401602060405180830381600087803b15156107bb57600080fd5b6102c65a03f115156107cc57600080fd5b505050604051805190505b9392505050565b81548183558181151161058b5760008381526020902061058b918101908301610880565b828054600181600116156101000203166002900490600052602060002090601f016020900481019282601f1061084357805160ff1916838001178555610870565b82800160010185558215610870579182015b82811115610870578251825591602001919060010190610855565b5061087c929150610880565b5090565b6104a191905b8082111561087c57600081556001016108865600a165627a7a723058208d50a7eec3dc2d17273f351f548d29a38aa9ffca12b8b71150e46372730a3be20029",
  "source": "pragma solidity ^0.4.20;\n\nimport \"../purchase/Purchase.sol\";\nimport \"@settlemint/solidity-mint/contracts/marketplaces/tokencuratedregistry/Listing.sol\";\n\n\ncontract Stream is Listing {\n\n  // We store a mapping of purchases per stream\n  mapping (address => Purchase) public purchases;\n\n  /**\n  @dev Contructor\n  @notice                Sets the address for token\n  @param _owner          Address of the owner\n  @param _price          Price for the listing\n  @param _stakeAmount    Amount staked for the listing\n  @param _gateKeeper     Address of the gatekeeper\n  */\n  function Stream(\n    address _owner,\n    uint _price,\n    uint _stakeAmount,\n    address _gateKeeper\n  )\n    Listing(_owner, _price, _stakeAmount, _gateKeeper)\n    public\n  {}\n\n  /**\n  * implementation of syncable methods\n  */\n  function getIndexLength() public view returns (uint length) {\n    return 0;\n  }\n\n  function getByIndex(uint index) public view returns (bytes32 key, address contractAddress) {\n    key = \"1\";\n    contractAddress = 0x0;\n  }\n\n  function getByKey(bytes32 _key) public view returns (bytes32 key, address /*contractAddress*/) {\n    key = _key;\n  }\n\n  /**\n  * implementation of cacher methods\n  */\n  function invalidateCache(address _cachedAddress, bytes32 /*_cachedBytes32*/, uint256 /*_cachedUint256*/) public {\n    AddressCacheInvalidated(_cachedAddress);\n    super.invalidateCache();\n  }\n\n  /**\n  * implementation of metadata methods\n  */\n  function updateMetaData(string ipfsHash) public {\n    super.updateMetaData(ipfsHash);\n    super.invalidateCache();\n  }\n}\n",
  "sourcePath": "/Users/silkevandenbroeck/databrokerDAO/databrokerdao-dapi/contracts/stream/Stream.sol",
  "compiler": {
    "name": "solc",
    "version": "0.4.20+commit.3155dd80.Emscripten.clang"
  },
  "schemaVersion": "1.0.1",
  "updatedAt": "2018-02-22T09:52:38.221Z"
}