{
  "contractName": "Administrators",
  "abi": [
    {
      "constant": false,
      "inputs": [
        {
          "name": "_address",
          "type": "address"
        }
      ],
      "name": "discharge",
      "outputs": [],
      "payable": false,
      "stateMutability": "nonpayable",
      "type": "function"
    },
    {
      "constant": true,
      "inputs": [],
      "name": "DESIGNATE_ROLE",
      "outputs": [
        {
          "name": "",
          "type": "bytes32"
        }
      ],
      "payable": false,
      "stateMutability": "view",
      "type": "function"
    },
    {
      "constant": true,
      "inputs": [
        {
          "name": "_index",
          "type": "uint256"
        }
      ],
      "name": "getByIndex",
      "outputs": [
        {
          "name": "key",
          "type": "address"
        },
        {
          "name": "hasTheRole",
          "type": "bool"
        }
      ],
      "payable": false,
      "stateMutability": "view",
      "type": "function"
    },
    {
      "constant": false,
      "inputs": [
        {
          "name": "_cachedAddress",
          "type": "address"
        },
        {
          "name": "",
          "type": "bytes32"
        },
        {
          "name": "",
          "type": "uint256"
        }
      ],
      "name": "invalidateCache",
      "outputs": [],
      "payable": false,
      "stateMutability": "nonpayable",
      "type": "function"
    },
    {
      "constant": false,
      "inputs": [
        {
          "name": "_address",
          "type": "address"
        }
      ],
      "name": "designate",
      "outputs": [],
      "payable": false,
      "stateMutability": "nonpayable",
      "type": "function"
    },
    {
      "constant": true,
      "inputs": [],
      "name": "gateKeeper",
      "outputs": [
        {
          "name": "",
          "type": "address"
        }
      ],
      "payable": false,
      "stateMutability": "view",
      "type": "function"
    },
    {
      "constant": true,
      "inputs": [
        {
          "name": "_key",
          "type": "address"
        }
      ],
      "name": "getByKey",
      "outputs": [
        {
          "name": "key",
          "type": "address"
        },
        {
          "name": "hasTheRole",
          "type": "bool"
        }
      ],
      "payable": false,
      "stateMutability": "view",
      "type": "function"
    },
    {
      "constant": true,
      "inputs": [
        {
          "name": "_address",
          "type": "address"
        }
      ],
      "name": "hasRole",
      "outputs": [
        {
          "name": "hasTheRole",
          "type": "bool"
        }
      ],
      "payable": false,
      "stateMutability": "view",
      "type": "function"
    },
    {
      "constant": true,
      "inputs": [],
      "name": "getIndexLength",
      "outputs": [
        {
          "name": "length",
          "type": "uint256"
        }
      ],
      "payable": false,
      "stateMutability": "view",
      "type": "function"
    },
    {
      "inputs": [
        {
          "name": "_gateKeeper",
          "type": "address"
        }
      ],
      "payable": false,
      "stateMutability": "nonpayable",
      "type": "constructor"
    },
    {
      "anonymous": false,
      "inputs": [
        {
          "indexed": false,
          "name": "_address",
          "type": "address"
        }
      ],
      "name": "Designated",
      "type": "event"
    },
    {
      "anonymous": false,
      "inputs": [
        {
          "indexed": false,
          "name": "_address",
          "type": "address"
        }
      ],
      "name": "Discharged",
      "type": "event"
    },
    {
      "anonymous": false,
      "inputs": [
        {
          "indexed": false,
          "name": "_address",
          "type": "address"
        }
      ],
      "name": "RoleRegistryCreated",
      "type": "event"
    },
    {
      "anonymous": false,
      "inputs": [
        {
          "indexed": true,
          "name": "key",
          "type": "address"
        }
      ],
      "name": "AddressCacheInvalidated",
      "type": "event"
    },
    {
      "anonymous": false,
      "inputs": [
        {
          "indexed": true,
          "name": "key",
          "type": "bytes32"
        }
      ],
      "name": "Bytes32CacheInvalidated",
      "type": "event"
    },
    {
      "anonymous": false,
      "inputs": [
        {
          "indexed": true,
          "name": "key",
          "type": "uint256"
        }
      ],
      "name": "Uint256CacheInvalidated",
      "type": "event"
    }
  ],
  "bytecode": "0x608060405234801561001057600080fd5b506040516020806106ef833981016040818152915160008054600160a060020a03808416600160a060020a03199092169190911790915530168252915182917fe1024fd8985d06ce8c9f997f972a1260bbbb007e7f7496825505aff3b18165e9919081900360200190a150506106648061008b6000396000f3006080604052600436106100985763ffffffff7c01000000000000000000000000000000000000000000000000000000006000350416630231853a811461009d5780630a7519a3146100c05780632d883a73146100e75780633d188fab14610122578063453416921461014957806345d61ded1461016a578063498770381461019b5780637ef09bca146101bc578063e1ba7d01146101f1575b600080fd5b3480156100a957600080fd5b506100be600160a060020a0360043516610206565b005b3480156100cc57600080fd5b506100d561032e565b60408051918252519081900360200190f35b3480156100f357600080fd5b506100ff600435610352565b60408051600160a060020a03909316835290151560208301528051918290030190f35b34801561012e57600080fd5b506100be600160a060020a03600435166024356044356103bf565b34801561015557600080fd5b506100be600160a060020a03600435166103f8565b34801561017657600080fd5b5061017f610520565b60408051600160a060020a039092168252519081900360200190f35b3480156101a757600080fd5b506100ff600160a060020a036004351661052f565b3480156101c857600080fd5b506101dd600160a060020a0360043516610552565b604080519115158252519081900360200190f35b3480156101fd57600080fd5b506100d5610570565b7f44455349474e4154455f524f4c450000000000000000000000000000000000006102313382610576565b151561023c57600080fd5b600160a060020a0382166000908152600160208190526040909120015415156102c9576002805460018082019092557f405787fa12a823e0f2b7631cc41b3ba8828b3321ca811111fa75cd3aa3bb5ace01805473ffffffffffffffffffffffffffffffffffffffff1916600160a060020a0385169081179091556000908152602082905260409020429101555b600160a060020a038216600081815260016020908152604091829020805460ff19169055815192835290517fa918a014a3cc4d384620aab101a9de9a018850704254ab6ce288864db9abd98b9281900390910190a161032a826000806103bf565b5050565b7f44455349474e4154455f524f4c4500000000000000000000000000000000000081565b60008060028381548110151561036457fe5b600091825260208220015460028054600160a060020a039092169450600192918690811061038e57fe5b6000918252602080832090910154600160a060020a03168352820192909252604001902054919360ff909216925050565b604051600160a060020a038416907f2130e02bc65616aa7f8f548960f51a08a1d0ea94efb33611412208c2d0306a2290600090a2505050565b7f44455349474e4154455f524f4c450000000000000000000000000000000000006104233382610576565b151561042e57600080fd5b600160a060020a0382166000908152600160208190526040909120015415156104bb576002805460018082019092557f405787fa12a823e0f2b7631cc41b3ba8828b3321ca811111fa75cd3aa3bb5ace01805473ffffffffffffffffffffffffffffffffffffffff1916600160a060020a0385169081179091556000908152602082905260409020429101555b600160a060020a038216600081815260016020818152604092839020805460ff1916909217909155815192835290517f6a7971839356e91af1f994a516a95eac2d3583cb6ba16b104843fcc927d77dae9281900390910190a161032a826000806103bf565b600054600160a060020a031681565b600160a060020a038116600090815260016020526040902054909160ff90911690565b600160a060020a031660009081526001602052604090205460ff1690565b60025490565b60008054600160a060020a03161580610631575060008054604080517f6d6712d8000000000000000000000000000000000000000000000000000000008152600160a060020a03878116600483015230811660248301526044820187905291519190921692636d6712d892606480820193602093909283900390910190829087803b15801561060457600080fd5b505af1158015610618573d6000803e3d6000fd5b505050506040513d602081101561062e57600080fd5b50515b93925050505600a165627a7a72305820cc0a94d1ff2c497d28915c6522423ce7e48acb6c77dfaff37dc9a4a58e99c81d0029",
  "source": "pragma solidity ^0.4.20;\n\nimport \"@settlemint/solidity-mint/contracts/authentication/RoleRegistry.sol\";\n\n\n/**\n * Contains all the administrators of this system\n */\ncontract Administrators is RoleRegistry {\n\n  function Administrators(address _gateKeeper) RoleRegistry(_gateKeeper) public {}\n\n}\n",
  "sourcePath": "/Users/silkevandenbroeck/databrokerDAO/databrokerdao-dapi/contracts/usergroups/Administrators.sol",
  "compiler": {
    "name": "solc",
    "version": "0.4.22+commit.4cb486ee.Emscripten.clang"
  },
  "schemaVersion": "2.0.0",
  "updatedAt": "2018-05-09T12:47:26.679Z"
}