{
  "contractName": "AttributeStore",
  "abi": [
    {
      "constant": true,
      "inputs": [
        {
          "name": "self",
          "type": "AttributeStore.Data storage"
        },
        {
          "name": "_UUID",
          "type": "bytes32"
        },
        {
          "name": "_attrName",
          "type": "string"
        }
      ],
      "name": "getAttribute",
      "outputs": [
        {
          "name": "",
          "type": "uint256"
        }
      ],
      "payable": false,
      "stateMutability": "view",
      "type": "function"
    },
    {
      "constant": false,
      "inputs": [
        {
          "name": "self",
          "type": "AttributeStore.Data storage"
        },
        {
          "name": "_UUID",
          "type": "bytes32"
        },
        {
          "name": "_attrName",
          "type": "string"
        },
        {
          "name": "_attrVal",
          "type": "uint256"
        }
      ],
      "name": "setAttribute",
      "outputs": [],
      "payable": false,
      "stateMutability": "nonpayable",
      "type": "function"
    }
  ],
  "bytecode": "0x6060604052341561000f57600080fd5b6102358061001e6000396000f30060606040526004361061004b5763ffffffff7c010000000000000000000000000000000000000000000000000000000060003504166350389f5c8114610050578063977aa031146100b3575b600080fd5b6100a1600480359060248035919060649060443590810190830135806020601f8201819004810201604051908101604052818152929190602084018383808284375094965061010895505050505050565b60405190815260200160405180910390f35b610106600480359060248035919060649060443590810190830135806020601f82018190048102016040519081016040528181529291906020840183838082843750949650509335935061018992505050565b005b60008083836040518281526020810182805190602001908083835b602083106101425780518252601f199092019160209182019101610123565b6001836020036101000a0380198251168184511617909252505050919091019350604092505050519081900390206000908152602095909552505060409092205492915050565b600083836040518281526020810182805190602001908083835b602083106101c25780518252601f1990920191602091820191016101a3565b6001836020036101000a03801982511681845116179092525050509190910193506040925050505190819003902060009081526020959095525060409093209290925550505600a165627a7a72305820ac8c7527b1ea30630d9966a8ebdb6c2074c494f626594fb910f08f9b58c9da5d0029",
  "source": "pragma solidity^0.4.11;\r\n\r\nlibrary AttributeStore {\r\n    struct Data {\r\n        mapping(bytes32 => uint) store;\r\n    }\r\n\r\n    function getAttribute(Data storage self, bytes32 _UUID, string _attrName)\r\n    public view returns (uint) {\r\n        bytes32 key = keccak256(_UUID, _attrName);\r\n        return self.store[key];\r\n    }\r\n\r\n    function setAttribute(Data storage self, bytes32 _UUID, string _attrName, uint _attrVal)\r\n    public {\r\n        bytes32 key = keccak256(_UUID, _attrName);\r\n        self.store[key] = _attrVal;\r\n    }\r\n}\r\n",
  "sourcePath": "attrstore/AttributeStore.sol",
  "compiler": {
    "name": "solc",
    "version": "0.4.18+commit.9cf6e910.Emscripten.clang"
  },
  "schemaVersion": "1.0.1",
  "updatedAt": "2018-01-22T08:40:49.806Z"
}