{
  "contractName": "Challenge",
  "abi": [
    {
      "constant": true,
      "inputs": [],
      "name": "metadata",
      "outputs": [
        {
          "name": "",
          "type": "string"
        }
      ],
      "payable": false,
      "stateMutability": "view",
      "type": "function"
    },
    {
      "constant": true,
      "inputs": [],
      "name": "stake",
      "outputs": [
        {
          "name": "",
          "type": "uint256"
        }
      ],
      "payable": false,
      "stateMutability": "view",
      "type": "function"
    },
    {
      "constant": true,
      "inputs": [],
      "name": "resolved",
      "outputs": [
        {
          "name": "",
          "type": "bool"
        }
      ],
      "payable": false,
      "stateMutability": "view",
      "type": "function"
    },
    {
      "constant": true,
      "inputs": [],
      "name": "gateKeeper",
      "outputs": [
        {
          "name": "",
          "type": "address"
        }
      ],
      "payable": false,
      "stateMutability": "view",
      "type": "function"
    },
    {
      "constant": true,
      "inputs": [],
      "name": "challenger",
      "outputs": [
        {
          "name": "",
          "type": "address"
        }
      ],
      "payable": false,
      "stateMutability": "view",
      "type": "function"
    },
    {
      "constant": true,
      "inputs": [],
      "name": "timestamp",
      "outputs": [
        {
          "name": "",
          "type": "uint256"
        }
      ],
      "payable": false,
      "stateMutability": "view",
      "type": "function"
    },
    {
      "constant": true,
      "inputs": [],
      "name": "listing",
      "outputs": [
        {
          "name": "",
          "type": "address"
        }
      ],
      "payable": false,
      "stateMutability": "view",
      "type": "function"
    },
    {
      "constant": true,
      "inputs": [],
      "name": "UPDATE_METADATA_ROLE",
      "outputs": [
        {
          "name": "",
          "type": "bytes32"
        }
      ],
      "payable": false,
      "stateMutability": "view",
      "type": "function"
    },
    {
      "inputs": [
        {
          "name": "_challenger",
          "type": "address"
        },
        {
          "name": "_stakeAmount",
          "type": "uint256"
        },
        {
          "name": "_listing",
          "type": "address"
        },
        {
          "name": "_gateKeeper",
          "type": "address"
        }
      ],
      "payable": false,
      "stateMutability": "nonpayable",
      "type": "constructor"
    },
    {
      "anonymous": false,
      "inputs": [
        {
          "indexed": false,
          "name": "challenge",
          "type": "address"
        },
        {
          "indexed": false,
          "name": "resoved",
          "type": "bool"
        }
      ],
      "name": "ResolvedSet",
      "type": "event"
    },
    {
      "anonymous": false,
      "inputs": [
        {
          "indexed": true,
          "name": "key",
          "type": "address"
        }
      ],
      "name": "AddressCacheInvalidated",
      "type": "event"
    },
    {
      "anonymous": false,
      "inputs": [
        {
          "indexed": true,
          "name": "key",
          "type": "bytes32"
        }
      ],
      "name": "Bytes32CacheInvalidated",
      "type": "event"
    },
    {
      "anonymous": false,
      "inputs": [
        {
          "indexed": true,
          "name": "key",
          "type": "uint256"
        }
      ],
      "name": "Uint256CacheInvalidated",
      "type": "event"
    },
    {
      "constant": false,
      "inputs": [
        {
          "name": "_resolved",
          "type": "bool"
        }
      ],
      "name": "setResolved",
      "outputs": [],
      "payable": false,
      "stateMutability": "nonpayable",
      "type": "function"
    },
    {
      "constant": false,
      "inputs": [
        {
          "name": "ipfsHash",
          "type": "string"
        }
      ],
      "name": "updateMetaData",
      "outputs": [],
      "payable": false,
      "stateMutability": "nonpayable",
      "type": "function"
    },
    {
      "constant": false,
      "inputs": [
        {
          "name": "_cachedAddress",
          "type": "address"
        },
        {
          "name": "",
          "type": "bytes32"
        },
        {
          "name": "",
          "type": "uint256"
        }
      ],
      "name": "invalidateCache",
      "outputs": [],
      "payable": false,
      "stateMutability": "nonpayable",
      "type": "function"
    }
  ],
  "bytecode": "0x60606040526003805460a060020a60ff0219169055341561001f57600080fd5b60405160808061068e8339810160405280805191906020018051919060200180519190602001805160008054600160a060020a0319908116600160a060020a03938416178255600180548216308516179055600380548216988416989098179097556004959095556005805490961693169290921790935550426006556105e1915081906100ad90396000f3006060604052600436106100ae5763ffffffff7c0100000000000000000000000000000000000000000000000000000000600035041663164d90e081146100b3578063392f37e9146100cd5780633a4b66f1146101575780633d188fab1461017c5780633f6fa655146101a157806345d61ded146101c8578063534db0e2146101f75780635cc075051461020a578063b80777ea1461025b578063bc7c55ed1461026e578063fff139cf14610281575b600080fd5b34156100be57600080fd5b6100cb6004351515610294565b005b34156100d857600080fd5b6100e0610316565b60405160208082528190810183818151815260200191508051906020019080838360005b8381101561011c578082015183820152602001610104565b50505050905090810190601f1680156101495780820380516001836020036101000a031916815260200191505b509250505060405180910390f35b341561016257600080fd5b61016a6103b4565b60405190815260200160405180910390f35b341561018757600080fd5b6100cb600160a060020a03600435166024356044356103ba565b34156101ac57600080fd5b6101b46103f5565b604051901515815260200160405180910390f35b34156101d357600080fd5b6101db610416565b604051600160a060020a03909116815260200160405180910390f35b341561020257600080fd5b6101db610425565b341561021557600080fd5b6100cb60046024813581810190830135806020601f8201819004810201604051908101604052818152929190602084018383808284375094965061043495505050505050565b341561026657600080fd5b61016a610448565b341561027957600080fd5b6101db61044e565b341561028c57600080fd5b61016a61045d565b6003805474ff0000000000000000000000000000000000000000191674010000000000000000000000000000000000000000831515021790557f1e26517183efe4efd75405d381f0fd1aa3fc89740db3c17a9c244127ca64c79c3082604051600160a060020a039092168252151560208201526040908101905180910390a150565b60028054600181600116156101000203166002900480601f0160208091040260200160405190810160405280929190818152602001828054600181600116156101000203166002900480156103ac5780601f10610381576101008083540402835291602001916103ac565b820191906000526020600020905b81548152906001019060200180831161038f57829003601f168201915b505050505081565b60045481565b82600160a060020a03167f2130e02bc65616aa7f8f548960f51a08a1d0ea94efb33611412208c2d0306a2260405160405180910390a2505050565b60035474010000000000000000000000000000000000000000900460ff1681565b600054600160a060020a031681565b600354600160a060020a031681565b61043d81610481565b610445610498565b50565b60065481565b600554600160a060020a031681565b7f5550444154455f4d455441444154415f524f4c4500000000000000000000000081565b600281805161049492916020019061051a565b5050565b600154600160a060020a0316633d188fab3060006040517c010000000000000000000000000000000000000000000000000000000063ffffffff8516028152600160a060020a0390921660048301526044820152606401600060405180830381600087803b151561050857600080fd5b5af1151561051557600080fd5b505050565b828054600181600116156101000203166002900490600052602060002090601f016020900481019282601f1061055b57805160ff1916838001178555610588565b82800160010185558215610588579182015b8281111561058857825182559160200191906001019061056d565b50610594929150610598565b5090565b6105b291905b80821115610594576000815560010161059e565b905600a165627a7a72305820b489510db0adab14e4f6a527f946879629b3fd022081ea77e72b9d1b9722daa00029",
  "source": "pragma solidity ^0.4.20;\n\nimport \"../../authentication/Secured.sol\";\nimport \"../../utility/caching/Cacher.sol\";\nimport \"../../utility/caching/CachedByAddress.sol\";\nimport \"../../utility/metadata/MetaDataContainer.sol\";\n\n\ncontract Challenge is Secured, Cacher, CachedByAddress, MetaDataContainer {\n\n  event ResolvedSet(address challenge, bool resoved);\n\n  address public challenger;\n  bool public resolved = false;\n  uint public stake;\n  address public listing;\n  uint public timestamp;\n\n  /**\n  @dev Contructor\n  @notice                     Hold one challenge to a listing\n  @param _challenger          Owner of Challenge\n  @param _stakeAmount         Number of tokens at risk for either party during challenge\n  @param _listing             Listing this challenge was added to\n  @param _gateKeeper          Address of the gatekeeper\n  */\n  function Challenge(\n    address _challenger,\n    uint _stakeAmount,\n    address _listing,\n    address _gateKeeper\n  )\n    Secured(_gateKeeper)\n    CachedByAddress(this)\n    public\n  {\n    challenger = _challenger;\n    stake = _stakeAmount;\n    listing = _listing;\n    timestamp = now;\n  }\n\n  /**\n  @notice            Sets resolved property\n  @param _resolved   Resolved\n  */\n  function setResolved(bool _resolved) public {\n    resolved = _resolved;\n    ResolvedSet(this, _resolved);\n  }\n\n  /**\n  * implementation of metadata methods\n  */\n  function updateMetaData(string ipfsHash) public {\n    super.updateMetaData(ipfsHash);\n    super.invalidateCache();\n  }\n\n  /**\n  * implementation of cacher methods\n  */\n  function invalidateCache(address _cachedAddress, bytes32 /*_cachedBytes32*/, uint256 /*_cachedUint256*/) public {\n    AddressCacheInvalidated(_cachedAddress);\n  }\n}\n",
  "sourcePath": "@settlemint/solidity-mint/contracts/marketplaces/tokencuratedregistry/Challenge.sol",
  "compiler": {
    "name": "solc",
    "version": "0.4.21+commit.dfe3193c.Emscripten.clang"
  },
  "schemaVersion": "2.0.0",
  "updatedAt": "2018-04-16T17:15:01.998Z"
}