{
  "contractName": "ChallengeRegistry",
  "abi": [
    {
      "constant": true,
      "inputs": [
        {
          "name": "",
          "type": "address"
        }
      ],
      "name": "challenges",
      "outputs": [
        {
          "name": "",
          "type": "address"
        }
      ],
      "payable": false,
      "stateMutability": "view",
      "type": "function"
    },
    {
      "constant": true,
      "inputs": [],
      "name": "gateKeeper",
      "outputs": [
        {
          "name": "",
          "type": "address"
        }
      ],
      "payable": false,
      "stateMutability": "view",
      "type": "function"
    },
    {
      "inputs": [
        {
          "name": "_gateKeeper",
          "type": "address"
        }
      ],
      "payable": false,
      "stateMutability": "nonpayable",
      "type": "constructor"
    },
    {
      "anonymous": false,
      "inputs": [
        {
          "indexed": false,
          "name": "_address",
          "type": "address"
        }
      ],
      "name": "ChallengeAdded",
      "type": "event"
    },
    {
      "anonymous": false,
      "inputs": [
        {
          "indexed": true,
          "name": "key",
          "type": "address"
        }
      ],
      "name": "AddressCacheInvalidated",
      "type": "event"
    },
    {
      "anonymous": false,
      "inputs": [
        {
          "indexed": true,
          "name": "key",
          "type": "bytes32"
        }
      ],
      "name": "Bytes32CacheInvalidated",
      "type": "event"
    },
    {
      "anonymous": false,
      "inputs": [
        {
          "indexed": true,
          "name": "key",
          "type": "uint256"
        }
      ],
      "name": "Uint256CacheInvalidated",
      "type": "event"
    },
    {
      "constant": false,
      "inputs": [
        {
          "name": "_challenge",
          "type": "address"
        }
      ],
      "name": "addChallenge",
      "outputs": [],
      "payable": false,
      "stateMutability": "nonpayable",
      "type": "function"
    },
    {
      "constant": false,
      "inputs": [
        {
          "name": "_cachedAddress",
          "type": "address"
        },
        {
          "name": "",
          "type": "bytes32"
        },
        {
          "name": "",
          "type": "uint256"
        }
      ],
      "name": "invalidateCache",
      "outputs": [],
      "payable": false,
      "stateMutability": "nonpayable",
      "type": "function"
    },
    {
      "constant": true,
      "inputs": [],
      "name": "getIndexLength",
      "outputs": [
        {
          "name": "length",
          "type": "uint256"
        }
      ],
      "payable": false,
      "stateMutability": "view",
      "type": "function"
    },
    {
      "constant": true,
      "inputs": [
        {
          "name": "index",
          "type": "uint256"
        }
      ],
      "name": "getByIndex",
      "outputs": [
        {
          "name": "key",
          "type": "address"
        },
        {
          "name": "contractAddress",
          "type": "address"
        }
      ],
      "payable": false,
      "stateMutability": "view",
      "type": "function"
    },
    {
      "constant": true,
      "inputs": [
        {
          "name": "_key",
          "type": "address"
        }
      ],
      "name": "getByKey",
      "outputs": [
        {
          "name": "key",
          "type": "address"
        },
        {
          "name": "contractAddress",
          "type": "address"
        }
      ],
      "payable": false,
      "stateMutability": "view",
      "type": "function"
    }
  ],
  "bytecode": "0x608060405234801561001057600080fd5b506040516020806103da833981016040525160008054600160a060020a03928316600160a060020a031991821617909155600180543093909316929091169190911790557f4368616c6c656e67655265676973747279000000000000000000000000000000600255610353806100876000396000f3006080604052600436106100825763ffffffff7c010000000000000000000000000000000000000000000000000000000060003504166308b43a1981146100875780632d883a73146100c45780633d188fab1461010257806345d61ded1461012b5780634987703814610140578063e1ba7d0114610161578063f8242c3214610188575b600080fd5b34801561009357600080fd5b506100a8600160a060020a03600435166101a9565b60408051600160a060020a039092168252519081900360200190f35b3480156100d057600080fd5b506100dc6004356101c4565b60408051600160a060020a03938416815291909216602082015281519081900390910190f35b34801561010e57600080fd5b50610129600160a060020a03600435166024356044356101fc565b005b34801561013757600080fd5b506100a8610235565b34801561014c57600080fd5b506100dc600160a060020a0360043516610244565b34801561016d57600080fd5b50610176610264565b60408051918252519081900360200190f35b34801561019457600080fd5b50610129600160a060020a036004351661026a565b600360205260009081526040902054600160a060020a031681565b6000806101f36004848154811015156101d957fe5b600091825260209091200154600160a060020a0316610244565b91509150915091565b604051600160a060020a038416907f2130e02bc65616aa7f8f548960f51a08a1d0ea94efb33611412208c2d0306a2290600090a2505050565b600054600160a060020a031681565b600160a060020a0390811660009081526003602052604090205416908190565b60045490565b600160a060020a0381166000818152600360205260408120805473ffffffffffffffffffffffffffffffffffffffff199081168417909155600480546001810182559083527f8a35acfbc15ff81a39ae7d344fd709f28e8600b4aa8c65c6b64bfe7fe36bd19b0180549091169092179091556102e8908290806101fc565b60408051600160a060020a038316815290517f2ffa3776d4bcbee1c082f84b2b35d2a24a419de30436c0c4b8f69ea2ced480b09181900360200190a1505600a165627a7a72305820a2d8067d8d882fc5d173d5e3239a43417407459dc129cccd613a196924f64b270029",
  "source": "pragma solidity ^0.4.20;\n\nimport \"../../authentication/Secured.sol\";\nimport \"../../utility/caching/Cacher.sol\";\nimport \"../../utility/syncing/Syncable.sol\";\nimport \"../../utility/caching/CachedByBytes32.sol\";\nimport \"./Challenge.sol\";\n\n\ncontract ChallengeRegistry is Secured, Syncable, Cacher, CachedByBytes32 {\n\n  event ChallengeAdded(address _address);\n\n  // Keep track of challenges\n  mapping(address => Challenge) public challenges;\n  address[] challengesIndex; // Array of challenge ids\n\n  function ChallengeRegistry(\n    address _gateKeeper\n  )\n    Secured(_gateKeeper)\n    CachedByBytes32(\"ChallengeRegistry\", this)\n    public\n  {}\n\n  /**\n  @notice             Adds a challenge to the registry\n  @param _challenge   Address of the challenge to add\n  */\n  function addChallenge(address _challenge) public {\n    challenges[_challenge] = Challenge(address(_challenge));\n    challengesIndex.push(_challenge);\n\n    invalidateCache(_challenge, \"\", 0);\n    ChallengeAdded(_challenge);\n  }\n\n  /**\n  * implementation of cacher methods\n  */\n  function invalidateCache(address _cachedAddress, bytes32 /*_cachedBytes32*/, uint256 /*_cachedUint256*/) public {\n    AddressCacheInvalidated(_cachedAddress);\n  }\n\n    /**\n  * implementation of syncable methods\n  */\n  function getIndexLength() public view returns (uint length) {\n    length = challengesIndex.length;\n  }\n\n  function getByIndex(uint index) public view returns (address key, address contractAddress) {\n    return getByKey(challengesIndex[index]);\n  }\n\n  function getByKey(address _key) public view returns (address key, address contractAddress) {\n    key = address(challenges[_key]);\n    contractAddress = address(challenges[_key]);\n  }\n\n}\n",
  "sourcePath": "@settlemint/solidity-mint/contracts/marketplaces/tokencuratedregistry/ChallengeRegistry.sol",
  "compiler": {
    "name": "solc",
    "version": "0.4.22+commit.4cb486ee.Emscripten.clang"
  },
  "schemaVersion": "2.0.0",
  "updatedAt": "2018-05-16T11:50:16.006Z"
}