{
  "contractName": "Challenge",
  "abi": [
    {
      "constant": true,
      "inputs": [],
      "name": "metadata",
      "outputs": [
        {
          "name": "",
          "type": "string"
        }
      ],
      "payable": false,
      "stateMutability": "view",
      "type": "function"
    },
    {
      "constant": true,
      "inputs": [],
      "name": "stake",
      "outputs": [
        {
          "name": "",
          "type": "uint256"
        }
      ],
      "payable": false,
      "stateMutability": "view",
      "type": "function"
    },
    {
      "constant": true,
      "inputs": [],
      "name": "resolved",
      "outputs": [
        {
          "name": "",
          "type": "bool"
        }
      ],
      "payable": false,
      "stateMutability": "view",
      "type": "function"
    },
    {
      "constant": true,
      "inputs": [],
      "name": "gateKeeper",
      "outputs": [
        {
          "name": "",
          "type": "address"
        }
      ],
      "payable": false,
      "stateMutability": "view",
      "type": "function"
    },
    {
      "constant": true,
      "inputs": [],
      "name": "challenger",
      "outputs": [
        {
          "name": "",
          "type": "address"
        }
      ],
      "payable": false,
      "stateMutability": "view",
      "type": "function"
    },
    {
      "constant": true,
      "inputs": [],
      "name": "timestamp",
      "outputs": [
        {
          "name": "",
          "type": "uint256"
        }
      ],
      "payable": false,
      "stateMutability": "view",
      "type": "function"
    },
    {
      "constant": true,
      "inputs": [],
      "name": "listing",
      "outputs": [
        {
          "name": "",
          "type": "address"
        }
      ],
      "payable": false,
      "stateMutability": "view",
      "type": "function"
    },
    {
      "constant": true,
      "inputs": [],
      "name": "UPDATE_METADATA_ROLE",
      "outputs": [
        {
          "name": "",
          "type": "bytes32"
        }
      ],
      "payable": false,
      "stateMutability": "view",
      "type": "function"
    },
    {
      "inputs": [
        {
          "name": "_challenger",
          "type": "address"
        },
        {
          "name": "_stakeAmount",
          "type": "uint256"
        },
        {
          "name": "_listing",
          "type": "address"
        },
        {
          "name": "_gateKeeper",
          "type": "address"
        }
      ],
      "payable": false,
      "stateMutability": "nonpayable",
      "type": "constructor"
    },
    {
      "anonymous": false,
      "inputs": [
        {
          "indexed": false,
          "name": "challenge",
          "type": "address"
        },
        {
          "indexed": false,
          "name": "resoved",
          "type": "bool"
        }
      ],
      "name": "ResolvedSet",
      "type": "event"
    },
    {
      "anonymous": false,
      "inputs": [
        {
          "indexed": true,
          "name": "key",
          "type": "address"
        }
      ],
      "name": "AddressCacheInvalidated",
      "type": "event"
    },
    {
      "anonymous": false,
      "inputs": [
        {
          "indexed": true,
          "name": "key",
          "type": "bytes32"
        }
      ],
      "name": "Bytes32CacheInvalidated",
      "type": "event"
    },
    {
      "anonymous": false,
      "inputs": [
        {
          "indexed": true,
          "name": "key",
          "type": "uint256"
        }
      ],
      "name": "Uint256CacheInvalidated",
      "type": "event"
    },
    {
      "constant": false,
      "inputs": [
        {
          "name": "_resolved",
          "type": "bool"
        }
      ],
      "name": "setResolved",
      "outputs": [],
      "payable": false,
      "stateMutability": "nonpayable",
      "type": "function"
    },
    {
      "constant": false,
      "inputs": [
        {
          "name": "ipfsHash",
          "type": "string"
        }
      ],
      "name": "updateMetaData",
      "outputs": [],
      "payable": false,
      "stateMutability": "nonpayable",
      "type": "function"
    },
    {
      "constant": false,
      "inputs": [
        {
          "name": "_cachedAddress",
          "type": "address"
        },
        {
          "name": "",
          "type": "bytes32"
        },
        {
          "name": "",
          "type": "uint256"
        }
      ],
      "name": "invalidateCache",
      "outputs": [],
      "payable": false,
      "stateMutability": "nonpayable",
      "type": "function"
    }
  ],
  "bytecode": "0x60806040526003805460a060020a60ff021916905534801561002057600080fd5b50604051608080610695833981016040908152815160208301519183015160609093015160008054600160a060020a03928316600160a060020a03199182161790915560018054308416908316179055600380549383169382169390931790925560049290925560058054929093169116179055426006556105ee806100a76000396000f3006080604052600436106100ae5763ffffffff7c0100000000000000000000000000000000000000000000000000000000600035041663164d90e081146100b3578063392f37e9146100cf5780633a4b66f1146101595780633d188fab146101805780633f6fa655146101a757806345d61ded146101d0578063534db0e2146102015780635cc0750514610216578063b80777ea1461026f578063bc7c55ed14610284578063fff139cf14610299575b600080fd5b3480156100bf57600080fd5b506100cd60043515156102ae565b005b3480156100db57600080fd5b506100e4610334565b6040805160208082528351818301528351919283929083019185019080838360005b8381101561011e578181015183820152602001610106565b50505050905090810190601f16801561014b5780820380516001836020036101000a031916815260200191505b509250505060405180910390f35b34801561016557600080fd5b5061016e6103bf565b60408051918252519081900360200190f35b34801561018c57600080fd5b506100cd600160a060020a03600435166024356044356103c5565b3480156101b357600080fd5b506101bc6103fe565b604080519115158252519081900360200190f35b3480156101dc57600080fd5b506101e561041f565b60408051600160a060020a039092168252519081900360200190f35b34801561020d57600080fd5b506101e561042e565b34801561022257600080fd5b506040805160206004803580820135601f81018490048402850184019095528484526100cd94369492936024939284019190819084018382808284375094975061043d9650505050505050565b34801561027b57600080fd5b5061016e610451565b34801561029057600080fd5b506101e5610457565b3480156102a557600080fd5b5061016e610466565b6003805474ff0000000000000000000000000000000000000000191674010000000000000000000000000000000000000000831515908102919091179091556040805130600160a060020a03168152602081019290925280517f1e26517183efe4efd75405d381f0fd1aa3fc89740db3c17a9c244127ca64c79c9281900390910190a150565b6002805460408051602060018416156101000260001901909316849004601f810184900484028201840190925281815292918301828280156103b75780601f1061038c576101008083540402835291602001916103b7565b820191906000526020600020905b81548152906001019060200180831161039a57829003601f168201915b505050505081565b60045481565b604051600160a060020a038416907f2130e02bc65616aa7f8f548960f51a08a1d0ea94efb33611412208c2d0306a2290600090a2505050565b60035474010000000000000000000000000000000000000000900460ff1681565b600054600160a060020a031681565b600354600160a060020a031681565b6104468161048a565b61044e6104a1565b50565b60065481565b600554600160a060020a031681565b7f5550444154455f4d455441444154415f524f4c4500000000000000000000000081565b805161049d906002906020840190610527565b5050565b600154604080517f3d188fab000000000000000000000000000000000000000000000000000000008152600160a060020a0330811660048301526000604483018190529251931692633d188fab9260648084019391929182900301818387803b15801561050d57600080fd5b505af1158015610521573d6000803e3d6000fd5b50505050565b828054600181600116156101000203166002900490600052602060002090601f016020900481019282601f1061056857805160ff1916838001178555610595565b82800160010185558215610595579182015b8281111561059557825182559160200191906001019061057a565b506105a19291506105a5565b5090565b6105bf91905b808211156105a157600081556001016105ab565b905600a165627a7a72305820317d1018dc8839102d09dd5f98c8c3fef0fbe2c7730fdc1ac8336474524488130029",
  "source": "pragma solidity ^0.4.20;\n\nimport \"../../authentication/Secured.sol\";\nimport \"../../utility/caching/Cacher.sol\";\nimport \"../../utility/caching/CachedByAddress.sol\";\nimport \"../../utility/metadata/MetaDataContainer.sol\";\n\n\ncontract Challenge is Secured, Cacher, CachedByAddress, MetaDataContainer {\n\n  event ResolvedSet(address challenge, bool resoved);\n\n  address public challenger;\n  bool public resolved = false;\n  uint public stake;\n  address public listing;\n  uint public timestamp;\n\n  /**\n  @dev Contructor\n  @notice                     Hold one challenge to a listing\n  @param _challenger          Owner of Challenge\n  @param _stakeAmount         Number of tokens at risk for either party during challenge\n  @param _listing             Listing this challenge was added to\n  @param _gateKeeper          Address of the gatekeeper\n  */\n  function Challenge(\n    address _challenger,\n    uint _stakeAmount,\n    address _listing,\n    address _gateKeeper\n  )\n    Secured(_gateKeeper)\n    CachedByAddress(this)\n    public\n  {\n    challenger = _challenger;\n    stake = _stakeAmount;\n    listing = _listing;\n    timestamp = now;\n  }\n\n  /**\n  @notice            Sets resolved property\n  @param _resolved   Resolved\n  */\n  function setResolved(bool _resolved) public {\n    resolved = _resolved;\n    ResolvedSet(this, _resolved);\n  }\n\n  /**\n  * implementation of metadata methods\n  */\n  function updateMetaData(string ipfsHash) public {\n    super.updateMetaData(ipfsHash);\n    super.invalidateCache();\n  }\n\n  /**\n  * implementation of cacher methods\n  */\n  function invalidateCache(address _cachedAddress, bytes32 /*_cachedBytes32*/, uint256 /*_cachedUint256*/) public {\n    AddressCacheInvalidated(_cachedAddress);\n  }\n}\n",
  "sourcePath": "@settlemint/solidity-mint/contracts/marketplaces/tokencuratedregistry/Challenge.sol",
  "compiler": {
    "name": "solc",
    "version": "0.4.22+commit.4cb486ee.Emscripten.clang"
  },
  "schemaVersion": "2.0.0",
  "updatedAt": "2018-04-26T09:16:26.247Z"
}