{
  "contractName": "DLL",
  "abi": [
    {
      "constant": true,
      "inputs": [
        {
          "name": "self",
          "type": "DLL.Data storage"
        },
        {
          "name": "_curr",
          "type": "uint256"
        }
      ],
      "name": "getNext",
      "outputs": [
        {
          "name": "",
          "type": "uint256"
        }
      ],
      "payable": false,
      "stateMutability": "view",
      "type": "function"
    },
    {
      "constant": true,
      "inputs": [
        {
          "name": "self",
          "type": "DLL.Data storage"
        },
        {
          "name": "_curr",
          "type": "uint256"
        }
      ],
      "name": "getPrev",
      "outputs": [
        {
          "name": "",
          "type": "uint256"
        }
      ],
      "payable": false,
      "stateMutability": "view",
      "type": "function"
    },
    {
      "constant": true,
      "inputs": [
        {
          "name": "self",
          "type": "DLL.Data storage"
        },
        {
          "name": "_curr",
          "type": "uint256"
        }
      ],
      "name": "contains",
      "outputs": [
        {
          "name": "",
          "type": "bool"
        }
      ],
      "payable": false,
      "stateMutability": "view",
      "type": "function"
    },
    {
      "constant": false,
      "inputs": [
        {
          "name": "self",
          "type": "DLL.Data storage"
        },
        {
          "name": "_curr",
          "type": "uint256"
        }
      ],
      "name": "remove",
      "outputs": [],
      "payable": false,
      "stateMutability": "nonpayable",
      "type": "function"
    },
    {
      "constant": true,
      "inputs": [
        {
          "name": "self",
          "type": "DLL.Data storage"
        }
      ],
      "name": "getEnd",
      "outputs": [
        {
          "name": "",
          "type": "uint256"
        }
      ],
      "payable": false,
      "stateMutability": "view",
      "type": "function"
    },
    {
      "constant": false,
      "inputs": [
        {
          "name": "self",
          "type": "DLL.Data storage"
        },
        {
          "name": "_prev",
          "type": "uint256"
        },
        {
          "name": "_curr",
          "type": "uint256"
        },
        {
          "name": "_next",
          "type": "uint256"
        }
      ],
      "name": "insert",
      "outputs": [],
      "payable": false,
      "stateMutability": "nonpayable",
      "type": "function"
    },
    {
      "constant": true,
      "inputs": [
        {
          "name": "self",
          "type": "DLL.Data storage"
        }
      ],
      "name": "isEmpty",
      "outputs": [
        {
          "name": "",
          "type": "bool"
        }
      ],
      "payable": false,
      "stateMutability": "view",
      "type": "function"
    },
    {
      "constant": true,
      "inputs": [
        {
          "name": "self",
          "type": "DLL.Data storage"
        }
      ],
      "name": "getStart",
      "outputs": [
        {
          "name": "",
          "type": "uint256"
        }
      ],
      "payable": false,
      "stateMutability": "view",
      "type": "function"
    }
  ],
  "bytecode": "0x6060604052341561000f57600080fd5b6103068061001e6000396000f30060606040526004361061008d5763ffffffff7c010000000000000000000000000000000000000000000000000000000060003504166307d29ac9811461009257806330fe0a0a146100b2578063366a5ba2146100c05780636d900ed0146100e25780637c11cf64146100f25780639735c51b146100fd578063c426b00614610111578063ee4f1ac41461011c575b600080fd5b6100a0600435602435610127565b60405190815260200160405180910390f35b6100a060043560243561013a565b6100ce600435602435610150565b604051901515815260200160405180910390f35b6100f06004356024356101ce565b005b6100a0600435610230565b6100f0600435602435604435606435610243565b6100ce6004356102ba565b6100a06004356102cd565b6000908152602091909152604090205490565b6000908152602091909152604090206001015490565b600080600061015e856102ba565b80610167575083155b1561017557600092506101c6565b8361017f866102cd565b14801561019357508361019186610230565b145b915060006101a18686610127565b1480156101b7575060006101b5868661013a565b145b905081806101c3575080155b92505b505092915050565b6000806101db8484610150565b15156101e65761022a565b6101f08484610127565b91506101fc848461013a565b6000838152602086905260408082206001908101849055838352818320869055868352908220828155015590505b50505050565b600061023d82600061013a565b92915050565b81151561024f57600080fd5b82158061026157506102618484610150565b151561026c57600080fd5b61027684836101ce565b806102818585610127565b1461028b57600080fd5b600082815260209490945260408085206001808201869055908390559385528085208390559084529092200155565b6000806102c6836102cd565b1492915050565b600061023d8260006101275600a165627a7a72305820b010bed4bafe4be42570cbc062016b8c4cebab2e04417a8726362cd90a924c8b0029",
  "source": "pragma solidity^0.4.11;\n\nlibrary DLL {\n\n  uint constant NULL_NODE_ID = 0;\n\n  struct Node {\n    uint next;\n    uint prev;\n  }\n\n  struct Data {\n    mapping(uint => Node) dll;\n  }\n\n  function isEmpty(Data storage self) public view returns (bool) {\n    return getStart(self) == NULL_NODE_ID;\n  }\n\n  function contains(Data storage self, uint _curr) public view returns (bool) {\n    if (isEmpty(self) || _curr == NULL_NODE_ID) {\n      return false;\n    } \n\n    bool isSingleNode = (getStart(self) == _curr) && (getEnd(self) == _curr);\n    bool isNullNode = (getNext(self, _curr) == NULL_NODE_ID) && (getPrev(self, _curr) == NULL_NODE_ID);\n    return isSingleNode || !isNullNode;\n  }\n\n  function getNext(Data storage self, uint _curr) public view returns (uint) {\n    return self.dll[_curr].next;\n  }\n\n  function getPrev(Data storage self, uint _curr) public view returns (uint) {\n    return self.dll[_curr].prev;\n  }\n\n  function getStart(Data storage self) public view returns (uint) {\n    return getNext(self, NULL_NODE_ID);\n  }\n\n  function getEnd(Data storage self) public view returns (uint) {\n    return getPrev(self, NULL_NODE_ID);\n  }\n\n  /**\n  @dev Inserts a new node between _prev and _next. When inserting a node already existing in \n  the list it will be automatically removed from the old position.\n  @param _prev the node which _new will be inserted after\n  @param _curr the id of the new node being inserted\n  @param _next the node which _new will be inserted before\n  */\n  function insert(Data storage self, uint _prev, uint _curr, uint _next) public {\n    require(_curr != NULL_NODE_ID);\n    require(_prev == NULL_NODE_ID || contains(self, _prev));\n\n    remove(self, _curr);\n\n    require(getNext(self, _prev) == _next);\n\n    self.dll[_curr].prev = _prev;\n    self.dll[_curr].next = _next;\n\n    self.dll[_prev].next = _curr;\n    self.dll[_next].prev = _curr;\n  }\n\n  function remove(Data storage self, uint _curr) public {\n    if (!contains(self, _curr)) {\n      return;\n    }\n\n    uint next = getNext(self, _curr);\n    uint prev = getPrev(self, _curr);\n\n    self.dll[next].prev = prev;\n    self.dll[prev].next = next;\n\n    delete self.dll[_curr];\n  }\n}\n",
  "sourcePath": "dll/DLL.sol",
  "compiler": {
    "name": "solc",
    "version": "0.4.18+commit.9cf6e910.Emscripten.clang"
  },
  "schemaVersion": "1.0.1",
  "updatedAt": "2018-01-22T08:58:26.281Z"
}