{
  "contractName": "DtxMinter",
  "abi": [
    {
      "constant": true,
      "inputs": [],
      "name": "gateKeeper",
      "outputs": [
        {
          "name": "",
          "type": "address"
        }
      ],
      "payable": false,
      "stateMutability": "view",
      "type": "function"
    },
    {
      "constant": true,
      "inputs": [],
      "name": "token",
      "outputs": [
        {
          "name": "",
          "type": "address"
        }
      ],
      "payable": false,
      "stateMutability": "view",
      "type": "function"
    },
    {
      "inputs": [
        {
          "name": "_token",
          "type": "address"
        },
        {
          "name": "_gateKeeper",
          "type": "address"
        }
      ],
      "payable": false,
      "stateMutability": "nonpayable",
      "type": "constructor"
    },
    {
      "anonymous": false,
      "inputs": [
        {
          "indexed": false,
          "name": "to",
          "type": "address"
        },
        {
          "indexed": false,
          "name": "amount",
          "type": "uint256"
        }
      ],
      "name": "Minted",
      "type": "event"
    },
    {
      "constant": false,
      "inputs": [
        {
          "name": "_amount",
          "type": "uint256"
        }
      ],
      "name": "mint",
      "outputs": [],
      "payable": false,
      "stateMutability": "nonpayable",
      "type": "function"
    }
  ],
  "bytecode": "0x608060405234801561001057600080fd5b5060405160408061028c83398101604052805160209091015160008054600160a060020a03928316600160a060020a03199182161790915560018054929093169116179055610228806100646000396000f3006080604052600436106100565763ffffffff7c010000000000000000000000000000000000000000000000000000000060003504166345d61ded811461005b578063a0712d6814610099578063fc0c546a146100b3575b600080fd5b34801561006757600080fd5b506100706100c8565b6040805173ffffffffffffffffffffffffffffffffffffffff9092168252519081900360200190f35b3480156100a557600080fd5b506100b16004356100e4565b005b3480156100bf57600080fd5b506100706101e0565b60005473ffffffffffffffffffffffffffffffffffffffff1681565b600154604080517f40c10f1900000000000000000000000000000000000000000000000000000000815273ffffffffffffffffffffffffffffffffffffffff338116600483015260248201859052915191909216916340c10f199160448083019260209291908290030181600087803b15801561016057600080fd5b505af1158015610174573d6000803e3d6000fd5b505050506040513d602081101561018a57600080fd5b50506040805173ffffffffffffffffffffffffffffffffffffffff331681526020810183905281517f30385c845b448a36257a6a1716e6ad2e1bc2cbe333cde1e69fe849ad6511adfe929181900390910190a150565b60015473ffffffffffffffffffffffffffffffffffffffff16815600a165627a7a723058208cfec04cca526bc639632e1bfc4654f3f48f33f6a6720a635cce46b6392461950029",
  "source": "pragma solidity ^0.4.20;\n\nimport \"../dtxtoken/DtxToken.sol\";\nimport \"@settlemint/solidity-mint/contracts/authentication/Secured.sol\";\nimport \"@settlemint/solidity-mint/contracts/authentication/GateKeeper.sol\";\n\n/**\n * Allows a user to mint demo DTX tokens for his own address\n */\ncontract DtxMinter is Secured {\n  event Minted(address to, uint amount);\n\n  DtxToken public token;\n\n  /**\n  @dev Contructor\n  @notice                Sets the address for token\n  @param _token          Address of the token\n  @param _gateKeeper     Address of the gatekeeper\n  */\n  function DtxMinter(\n    address _token,\n    address _gateKeeper\n  )\n    Secured(_gateKeeper)\n    public\n  {\n    token = DtxToken(_token);\n  }\n\n  /**\n  @notice               Mints demo DTX for the user calling this method.\n  @param _amount        How much DTX to mint for this user\n  */\n  function mint(uint _amount) public {\n    token.mint(msg.sender, _amount);\n\n    // Event\n    emit Minted(msg.sender, _amount);\n  }\n}\n",
  "sourcePath": "/Users/silkevandenbroeck/databrokerDAO/databrokerdao-dapi/contracts/dtxtoken/DtxMinter.sol",
  "compiler": {
    "name": "solc",
    "version": "0.4.22+commit.4cb486ee.Emscripten.clang"
  },
  "schemaVersion": "2.0.0",
  "updatedAt": "2018-05-16T11:31:59.009Z"
}