{
  "contractName": "DtxMinter",
  "abi": [
    {
      "constant": true,
      "inputs": [],
      "name": "UPGRADE_CONTRACT",
      "outputs": [
        {
          "name": "",
          "type": "bytes32"
        }
      ],
      "payable": false,
      "stateMutability": "view",
      "type": "function"
    },
    {
      "constant": true,
      "inputs": [],
      "name": "gateKeeper",
      "outputs": [
        {
          "name": "",
          "type": "address"
        }
      ],
      "payable": false,
      "stateMutability": "view",
      "type": "function"
    },
    {
      "constant": true,
      "inputs": [],
      "name": "target",
      "outputs": [
        {
          "name": "",
          "type": "address"
        }
      ],
      "payable": false,
      "stateMutability": "view",
      "type": "function"
    },
    {
      "constant": true,
      "inputs": [],
      "name": "token",
      "outputs": [
        {
          "name": "",
          "type": "address"
        }
      ],
      "payable": false,
      "stateMutability": "view",
      "type": "function"
    },
    {
      "inputs": [
        {
          "name": "_token",
          "type": "address"
        },
        {
          "name": "_gateKeeper",
          "type": "address"
        }
      ],
      "payable": false,
      "stateMutability": "nonpayable",
      "type": "constructor"
    },
    {
      "anonymous": false,
      "inputs": [
        {
          "indexed": false,
          "name": "to",
          "type": "address"
        },
        {
          "indexed": false,
          "name": "amount",
          "type": "uint256"
        }
      ],
      "name": "Minted",
      "type": "event"
    },
    {
      "anonymous": false,
      "inputs": [
        {
          "indexed": false,
          "name": "sender",
          "type": "address"
        },
        {
          "indexed": false,
          "name": "amount",
          "type": "uint256"
        }
      ],
      "name": "Debug",
      "type": "event"
    },
    {
      "constant": false,
      "inputs": [
        {
          "name": "_amount",
          "type": "uint256"
        }
      ],
      "name": "mint",
      "outputs": [],
      "payable": false,
      "stateMutability": "nonpayable",
      "type": "function"
    }
  ],
  "bytecode": "0x608060405234801561001057600080fd5b5060405160408061030683398101604052805160209091015160008054600160a060020a03928316600160a060020a031991821617909155600280549290931691161790556102a2806100646000396000f30060806040526004361061006c5763ffffffff7c010000000000000000000000000000000000000000000000000000000060003504166317f82139811461007157806345d61ded14610098578063a0712d68146100d6578063d4b83992146100f0578063fc0c546a14610105575b600080fd5b34801561007d57600080fd5b5061008661011a565b60408051918252519081900360200190f35b3480156100a457600080fd5b506100ad61013e565b6040805173ffffffffffffffffffffffffffffffffffffffff9092168252519081900360200190f35b3480156100e257600080fd5b506100ee60043561015a565b005b3480156100fc57600080fd5b506100ad61023e565b34801561011157600080fd5b506100ad61025a565b7f555047524144455f434f4e54524143540000000000000000000000000000000081565b60005473ffffffffffffffffffffffffffffffffffffffff1681565b600254604080517f40c10f1900000000000000000000000000000000000000000000000000000000815233600482015260248101849052905173ffffffffffffffffffffffffffffffffffffffff909216916340c10f19916044808201926020929091908290030181600087803b1580156101d457600080fd5b505af11580156101e8573d6000803e3d6000fd5b505050506040513d60208110156101fe57600080fd5b5050604080513381526020810183905281517f30385c845b448a36257a6a1716e6ad2e1bc2cbe333cde1e69fe849ad6511adfe929181900390910190a150565b60015473ffffffffffffffffffffffffffffffffffffffff1681565b60025473ffffffffffffffffffffffffffffffffffffffff16815600a165627a7a72305820c8b6d659334c1b1642d9b75806fb0b40a91d0ac2e5ee5948dad7e1d2e774a6570029",
  "source": "pragma solidity ^0.4.20;\n\nimport \"../dtxtoken/DtxToken.sol\";\nimport \"@settlemint/solidity-mint/contracts/authentication/Secured.sol\";\nimport \"@settlemint/solidity-mint/contracts/authentication/GateKeeper.sol\";\nimport \"@settlemint/solidity-mint/contracts/utility/upgrading/Upgradeable.sol\";\n\n\n/**\n * Allows a user to mint demo DTX tokens for his own address\n */\ncontract DtxMinter is Secured, Upgradeable {\n  event Minted(address to, uint amount);\n  event Debug(address sender, uint amount);\n\n  DtxToken public token;\n\n  /**\n  @dev Contructor\n  @notice                Sets the address for token\n  @param _token          Address of the token\n  @param _gateKeeper     Address of the gatekeeper\n  */\n  function DtxMinter(\n    address _token,\n    address _gateKeeper\n  )\n    Secured(_gateKeeper)\n    public\n  {\n    token = DtxToken(_token);\n  }\n\n  /**\n  @notice               Mints demo DTX for the user calling this method.\n  @param _amount        How much DTX to mint for this user\n  */\n  function mint(uint _amount) public {\n    token.mint(msg.sender, _amount);\n\n    // Event\n    emit Minted(msg.sender, _amount);\n  }\n}\n",
  "sourcePath": "/Users/peterjanbrone/databrokerdao/databrokerdao-dapi/contracts/DtxToken/DtxMinter.sol",
  "compiler": {
    "name": "solc",
    "version": "0.4.24+commit.e67f0147.Emscripten.clang"
  },
  "schemaVersion": "2.0.0",
  "updatedAt": "2018-06-10T13:51:50.684Z"
}