{
  "contractName": "DtxMinter",
  "abi": [
    {
      "constant": true,
      "inputs": [],
      "name": "gateKeeper",
      "outputs": [
        {
          "name": "",
          "type": "address"
        }
      ],
      "payable": false,
      "stateMutability": "view",
      "type": "function"
    },
    {
      "constant": true,
      "inputs": [],
      "name": "token",
      "outputs": [
        {
          "name": "",
          "type": "address"
        }
      ],
      "payable": false,
      "stateMutability": "view",
      "type": "function"
    },
    {
      "inputs": [
        {
          "name": "_token",
          "type": "address"
        },
        {
          "name": "_gateKeeper",
          "type": "address"
        }
      ],
      "payable": false,
      "stateMutability": "nonpayable",
      "type": "constructor"
    },
    {
      "anonymous": false,
      "inputs": [
        {
          "indexed": false,
          "name": "to",
          "type": "address"
        },
        {
          "indexed": false,
          "name": "amount",
          "type": "uint256"
        }
      ],
      "name": "Minted",
      "type": "event"
    },
    {
      "constant": false,
      "inputs": [
        {
          "name": "_amount",
          "type": "uint256"
        }
      ],
      "name": "mint",
      "outputs": [],
      "payable": false,
      "stateMutability": "nonpayable",
      "type": "function"
    }
  ],
  "bytecode": "0x6060604052341561000f57600080fd5b604051604080610285833981016040528080519190602001805160008054600160a060020a03928316600160a060020a0319918216179091556001805495909216941693909317909255505061021b8061006a6000396000f3006060604052600436106100565763ffffffff7c010000000000000000000000000000000000000000000000000000000060003504166345d61ded811461005b578063a0712d6814610097578063fc0c546a146100af575b600080fd5b341561006657600080fd5b61006e6100c2565b60405173ffffffffffffffffffffffffffffffffffffffff909116815260200160405180910390f35b34156100a257600080fd5b6100ad6004356100de565b005b34156100ba57600080fd5b61006e6101d3565b60005473ffffffffffffffffffffffffffffffffffffffff1681565b60015473ffffffffffffffffffffffffffffffffffffffff166340c10f1933836040517c010000000000000000000000000000000000000000000000000000000063ffffffff851602815273ffffffffffffffffffffffffffffffffffffffff90921660048301526024820152604401602060405180830381600087803b151561016757600080fd5b5af1151561017457600080fd5b50505060405180519050507f30385c845b448a36257a6a1716e6ad2e1bc2cbe333cde1e69fe849ad6511adfe338260405173ffffffffffffffffffffffffffffffffffffffff909216825260208201526040908101905180910390a150565b60015473ffffffffffffffffffffffffffffffffffffffff16815600a165627a7a72305820868febd9c4a106d97971e08699da9eaba7dc9767855d2cea715b9d218ae74cb10029",
  "source": "pragma solidity ^0.4.20;\n\nimport \"../dtxtoken/DtxToken.sol\";\nimport \"@settlemint/solidity-mint/contracts/authentication/Secured.sol\";\nimport \"@settlemint/solidity-mint/contracts/authentication/GateKeeper.sol\";\n\ncontract DtxMinter is Secured {\n  event Minted(address to, uint amount);\n\n  DtxToken public token;\n\n  /**\n  @dev Contructor\n  @notice                Sets the address for token\n  @param _token          Address of the token\n  @param _gateKeeper     Address of the gatekeeper\n  */\n  function DtxMinter(\n    address _token,\n    address _gateKeeper\n  )\n    Secured(_gateKeeper)\n    public\n  {\n    token = DtxToken(_token);\n  }\n\n  /**\n  @notice               Mints demo DTX for the user calling this method.\n  @param _amount        How much DTX to mint for this user\n  */\n  function mint(uint _amount) public {\n    token.mint(msg.sender, _amount);\n\n    // Event\n    Minted(msg.sender, _amount);\n  }\n}\n",
  "sourcePath": "/Users/peterjanbrone/databrokerdao/databrokerdao-dapi/contracts/DtxToken/DtxMinter.sol",
  "compiler": {
    "name": "solc",
    "version": "0.4.21+commit.dfe3193c.Emscripten.clang"
  },
  "schemaVersion": "2.0.0",
  "updatedAt": "2018-03-21T20:12:00.613Z"
}