{
  "contractName": "DtxMinterDispatcher",
  "abi": [
    {
      "constant": true,
      "inputs": [],
      "name": "UPGRADE_CONTRACT",
      "outputs": [
        {
          "name": "",
          "type": "bytes32"
        }
      ],
      "payable": false,
      "stateMutability": "view",
      "type": "function"
    },
    {
      "constant": true,
      "inputs": [],
      "name": "gateKeeper",
      "outputs": [
        {
          "name": "",
          "type": "address"
        }
      ],
      "payable": false,
      "stateMutability": "view",
      "type": "function"
    },
    {
      "constant": false,
      "inputs": [
        {
          "name": "target",
          "type": "address"
        }
      ],
      "name": "setTarget",
      "outputs": [],
      "payable": false,
      "stateMutability": "nonpayable",
      "type": "function"
    },
    {
      "constant": true,
      "inputs": [],
      "name": "token",
      "outputs": [
        {
          "name": "",
          "type": "address"
        }
      ],
      "payable": false,
      "stateMutability": "view",
      "type": "function"
    },
    {
      "inputs": [
        {
          "name": "gatekeeper",
          "type": "address"
        }
      ],
      "payable": false,
      "stateMutability": "nonpayable",
      "type": "constructor"
    },
    {
      "payable": false,
      "stateMutability": "nonpayable",
      "type": "fallback"
    },
    {
      "anonymous": false,
      "inputs": [
        {
          "indexed": false,
          "name": "to",
          "type": "address"
        },
        {
          "indexed": false,
          "name": "amount",
          "type": "uint256"
        }
      ],
      "name": "Minted",
      "type": "event"
    }
  ],
  "bytecode": "0x608060405234801561001057600080fd5b5060405160208061032c833981016040525160008054600160a060020a03909216600160a060020a03199092169190911790556102da806100526000396000f3006080604052600436106100615763ffffffff7c010000000000000000000000000000000000000000000000000000000060003504166317f8213981146100a857806345d61ded146100cf578063776d1a0114610100578063fc0c546a14610123575b34801561006d57600080fd5b506001546000803591600160a060020a03169036818037600080366000856127105a03f43d806000803e8180156100a357816000f35b816000fd5b3480156100b457600080fd5b506100bd610138565b60408051918252519081900360200190f35b3480156100db57600080fd5b506100e461015c565b60408051600160a060020a039092168252519081900360200190f35b34801561010c57600080fd5b50610121600160a060020a036004351661016b565b005b34801561012f57600080fd5b506100e4610177565b7f555047524144455f434f4e54524143540000000000000000000000000000000081565b600054600160a060020a031681565b61017481610186565b50565b600254600160a060020a031681565b7f555047524144455f434f4e5452414354000000000000000000000000000000006101b133826101ec565b15156101bc57600080fd5b506001805473ffffffffffffffffffffffffffffffffffffffff1916600160a060020a0392909216919091179055565b60008054600160a060020a031615806102a7575060008054604080517f6d6712d8000000000000000000000000000000000000000000000000000000008152600160a060020a03878116600483015230811660248301526044820187905291519190921692636d6712d892606480820193602093909283900390910190829087803b15801561027a57600080fd5b505af115801561028e573d6000803e3d6000fd5b505050506040513d60208110156102a457600080fd5b50515b93925050505600a165627a7a72305820f52a6695e2b0691296e92e723e536eb8ca54a02c657b425b3f6abc23f2e451850029",
  "source": "pragma solidity ^0.4.20;\n\nimport \"../dtxtoken/DtxToken.sol\";\nimport \"@settlemint/solidity-mint/contracts/authentication/Secured.sol\";\nimport \"@settlemint/solidity-mint/contracts/authentication/GateKeeper.sol\";\nimport \"@settlemint/solidity-mint/contracts/utility/upgrading/Dispatcher.sol\";\n\n/**\n * Allows a user to mint demo DTX tokens for his own address\n */\ncontract DtxMinterDispatcher is Dispatcher {\n  event Minted(address to, uint amount);\n\n  DtxToken public token;\n\n  function DtxMinterDispatcher(address gatekeeper)\n    Secured(gatekeeper)\n    public\n  {}\n}\n",
  "sourcePath": "/Users/silkevandenbroeck/databrokerDAO/databrokerdao-dapi/contracts/dtxtoken/DtxMinterDispatcher.sol",
  "compiler": {
    "name": "solc",
    "version": "0.4.22+commit.4cb486ee.Emscripten.clang"
  },
  "schemaVersion": "2.0.0",
  "updatedAt": "2018-05-02T09:56:03.467Z"
}