{
  "contractName": "DtxToken",
  "abi": [
    {
      "constant": true,
      "inputs": [],
      "name": "name",
      "outputs": [
        {
          "name": "",
          "type": "bytes32"
        }
      ],
      "payable": false,
      "stateMutability": "view",
      "type": "function"
    },
    {
      "constant": false,
      "inputs": [
        {
          "name": "_spender",
          "type": "address"
        },
        {
          "name": "_value",
          "type": "uint256"
        }
      ],
      "name": "approve",
      "outputs": [
        {
          "name": "",
          "type": "bool"
        }
      ],
      "payable": false,
      "stateMutability": "nonpayable",
      "type": "function"
    },
    {
      "constant": true,
      "inputs": [],
      "name": "totalSupply",
      "outputs": [
        {
          "name": "",
          "type": "uint256"
        }
      ],
      "payable": false,
      "stateMutability": "view",
      "type": "function"
    },
    {
      "constant": false,
      "inputs": [
        {
          "name": "_roleRegistryAddress",
          "type": "address"
        },
        {
          "name": "_amount",
          "type": "uint256"
        }
      ],
      "name": "burnFromRoleRegistry",
      "outputs": [
        {
          "name": "success",
          "type": "bool"
        }
      ],
      "payable": false,
      "stateMutability": "nonpayable",
      "type": "function"
    },
    {
      "constant": false,
      "inputs": [
        {
          "name": "_from",
          "type": "address"
        },
        {
          "name": "_to",
          "type": "address"
        },
        {
          "name": "_value",
          "type": "uint256"
        }
      ],
      "name": "transferFrom",
      "outputs": [
        {
          "name": "success",
          "type": "bool"
        }
      ],
      "payable": false,
      "stateMutability": "nonpayable",
      "type": "function"
    },
    {
      "constant": false,
      "inputs": [
        {
          "name": "_to",
          "type": "address"
        },
        {
          "name": "_value",
          "type": "uint256"
        },
        {
          "name": "_data",
          "type": "bytes"
        }
      ],
      "name": "transferWithData",
      "outputs": [
        {
          "name": "success",
          "type": "bool"
        }
      ],
      "payable": false,
      "stateMutability": "nonpayable",
      "type": "function"
    },
    {
      "constant": false,
      "inputs": [
        {
          "name": "_to",
          "type": "address"
        },
        {
          "name": "_amount",
          "type": "uint256"
        }
      ],
      "name": "otherMint",
      "outputs": [
        {
          "name": "success",
          "type": "bool"
        }
      ],
      "payable": false,
      "stateMutability": "nonpayable",
      "type": "function"
    },
    {
      "constant": true,
      "inputs": [],
      "name": "decimals",
      "outputs": [
        {
          "name": "",
          "type": "uint8"
        }
      ],
      "payable": false,
      "stateMutability": "view",
      "type": "function"
    },
    {
      "constant": true,
      "inputs": [],
      "name": "metadata",
      "outputs": [
        {
          "name": "",
          "type": "string"
        }
      ],
      "payable": false,
      "stateMutability": "view",
      "type": "function"
    },
    {
      "constant": false,
      "inputs": [
        {
          "name": "_cachedAddress",
          "type": "address"
        },
        {
          "name": "",
          "type": "bytes32"
        },
        {
          "name": "",
          "type": "uint256"
        }
      ],
      "name": "invalidateCache",
      "outputs": [],
      "payable": false,
      "stateMutability": "nonpayable",
      "type": "function"
    },
    {
      "constant": false,
      "inputs": [
        {
          "name": "_to",
          "type": "address"
        },
        {
          "name": "_amount",
          "type": "uint256"
        }
      ],
      "name": "mint",
      "outputs": [
        {
          "name": "success",
          "type": "bool"
        }
      ],
      "payable": false,
      "stateMutability": "nonpayable",
      "type": "function"
    },
    {
      "constant": true,
      "inputs": [],
      "name": "gateKeeper",
      "outputs": [
        {
          "name": "",
          "type": "address"
        }
      ],
      "payable": false,
      "stateMutability": "view",
      "type": "function"
    },
    {
      "constant": false,
      "inputs": [
        {
          "name": "ipfsHash",
          "type": "string"
        }
      ],
      "name": "updateMetaData",
      "outputs": [],
      "payable": false,
      "stateMutability": "nonpayable",
      "type": "function"
    },
    {
      "constant": false,
      "inputs": [
        {
          "name": "_spender",
          "type": "address"
        },
        {
          "name": "_subtractedValue",
          "type": "uint256"
        }
      ],
      "name": "decreaseApproval",
      "outputs": [
        {
          "name": "success",
          "type": "bool"
        }
      ],
      "payable": false,
      "stateMutability": "nonpayable",
      "type": "function"
    },
    {
      "constant": true,
      "inputs": [
        {
          "name": "_owner",
          "type": "address"
        }
      ],
      "name": "balanceOf",
      "outputs": [
        {
          "name": "balance",
          "type": "uint256"
        }
      ],
      "payable": false,
      "stateMutability": "view",
      "type": "function"
    },
    {
      "constant": false,
      "inputs": [
        {
          "name": "_from",
          "type": "address"
        },
        {
          "name": "_amount",
          "type": "uint256"
        }
      ],
      "name": "burn",
      "outputs": [
        {
          "name": "success",
          "type": "bool"
        }
      ],
      "payable": false,
      "stateMutability": "nonpayable",
      "type": "function"
    },
    {
      "constant": false,
      "inputs": [
        {
          "name": "_to",
          "type": "address"
        },
        {
          "name": "_value",
          "type": "uint256"
        }
      ],
      "name": "transfer",
      "outputs": [
        {
          "name": "success",
          "type": "bool"
        }
      ],
      "payable": false,
      "stateMutability": "nonpayable",
      "type": "function"
    },
    {
      "constant": true,
      "inputs": [],
      "name": "BURN_ROLE",
      "outputs": [
        {
          "name": "",
          "type": "bytes32"
        }
      ],
      "payable": false,
      "stateMutability": "view",
      "type": "function"
    },
    {
      "constant": false,
      "inputs": [
        {
          "name": "_spender",
          "type": "address"
        },
        {
          "name": "_addedValue",
          "type": "uint256"
        }
      ],
      "name": "increaseApproval",
      "outputs": [
        {
          "name": "success",
          "type": "bool"
        }
      ],
      "payable": false,
      "stateMutability": "nonpayable",
      "type": "function"
    },
    {
      "constant": false,
      "inputs": [
        {
          "name": "_roleRegistryAddress",
          "type": "address"
        },
        {
          "name": "_amount",
          "type": "uint256"
        }
      ],
      "name": "mintToRoleRegistry",
      "outputs": [
        {
          "name": "success",
          "type": "bool"
        }
      ],
      "payable": false,
      "stateMutability": "nonpayable",
      "type": "function"
    },
    {
      "constant": true,
      "inputs": [
        {
          "name": "_owner",
          "type": "address"
        },
        {
          "name": "_spender",
          "type": "address"
        }
      ],
      "name": "allowance",
      "outputs": [
        {
          "name": "remaining",
          "type": "uint256"
        }
      ],
      "payable": false,
      "stateMutability": "view",
      "type": "function"
    },
    {
      "constant": true,
      "inputs": [],
      "name": "MINT_ROLE",
      "outputs": [
        {
          "name": "",
          "type": "bytes32"
        }
      ],
      "payable": false,
      "stateMutability": "view",
      "type": "function"
    },
    {
      "constant": false,
      "inputs": [
        {
          "name": "_from",
          "type": "address"
        },
        {
          "name": "_to",
          "type": "address"
        },
        {
          "name": "_value",
          "type": "uint256"
        },
        {
          "name": "_data",
          "type": "bytes"
        }
      ],
      "name": "transferFromWithData",
      "outputs": [
        {
          "name": "success",
          "type": "bool"
        }
      ],
      "payable": false,
      "stateMutability": "nonpayable",
      "type": "function"
    },
    {
      "constant": true,
      "inputs": [],
      "name": "UPDATE_METADATA_ROLE",
      "outputs": [
        {
          "name": "",
          "type": "bytes32"
        }
      ],
      "payable": false,
      "stateMutability": "view",
      "type": "function"
    },
    {
      "inputs": [
        {
          "name": "_name",
          "type": "bytes32"
        },
        {
          "name": "_decimals",
          "type": "uint8"
        },
        {
          "name": "_registry",
          "type": "address"
        },
        {
          "name": "_gateKeeper",
          "type": "address"
        }
      ],
      "payable": false,
      "stateMutability": "nonpayable",
      "type": "constructor"
    },
    {
      "anonymous": false,
      "inputs": [
        {
          "indexed": true,
          "name": "from",
          "type": "address"
        },
        {
          "indexed": true,
          "name": "to",
          "type": "address"
        },
        {
          "indexed": false,
          "name": "value",
          "type": "uint256"
        }
      ],
      "name": "Transfer",
      "type": "event"
    },
    {
      "anonymous": false,
      "inputs": [
        {
          "indexed": true,
          "name": "from",
          "type": "address"
        },
        {
          "indexed": true,
          "name": "to",
          "type": "address"
        },
        {
          "indexed": false,
          "name": "data",
          "type": "bytes"
        }
      ],
      "name": "TransferData",
      "type": "event"
    },
    {
      "anonymous": false,
      "inputs": [
        {
          "indexed": true,
          "name": "to",
          "type": "address"
        },
        {
          "indexed": false,
          "name": "amount",
          "type": "uint256"
        }
      ],
      "name": "Mint",
      "type": "event"
    },
    {
      "anonymous": false,
      "inputs": [
        {
          "indexed": true,
          "name": "from",
          "type": "address"
        },
        {
          "indexed": false,
          "name": "amount",
          "type": "uint256"
        }
      ],
      "name": "Burn",
      "type": "event"
    },
    {
      "anonymous": false,
      "inputs": [
        {
          "indexed": true,
          "name": "owner",
          "type": "address"
        },
        {
          "indexed": true,
          "name": "spender",
          "type": "address"
        },
        {
          "indexed": false,
          "name": "value",
          "type": "uint256"
        }
      ],
      "name": "Approval",
      "type": "event"
    },
    {
      "anonymous": false,
      "inputs": [
        {
          "indexed": true,
          "name": "key",
          "type": "address"
        }
      ],
      "name": "AddressCacheInvalidated",
      "type": "event"
    },
    {
      "anonymous": false,
      "inputs": [
        {
          "indexed": true,
          "name": "key",
          "type": "bytes32"
        }
      ],
      "name": "Bytes32CacheInvalidated",
      "type": "event"
    },
    {
      "anonymous": false,
      "inputs": [
        {
          "indexed": true,
          "name": "key",
          "type": "uint256"
        }
      ],
      "name": "Uint256CacheInvalidated",
      "type": "event"
    },
    {
      "constant": true,
      "inputs": [],
      "name": "getIndexLength",
      "outputs": [
        {
          "name": "length",
          "type": "uint256"
        }
      ],
      "payable": false,
      "stateMutability": "view",
      "type": "function"
    },
    {
      "constant": true,
      "inputs": [
        {
          "name": "index",
          "type": "uint256"
        }
      ],
      "name": "getByIndex",
      "outputs": [
        {
          "name": "key",
          "type": "address"
        },
        {
          "name": "balance",
          "type": "uint256"
        }
      ],
      "payable": false,
      "stateMutability": "view",
      "type": "function"
    },
    {
      "constant": true,
      "inputs": [
        {
          "name": "_key",
          "type": "address"
        }
      ],
      "name": "getByKey",
      "outputs": [
        {
          "name": "key",
          "type": "address"
        },
        {
          "name": "balance",
          "type": "uint256"
        }
      ],
      "payable": false,
      "stateMutability": "view",
      "type": "function"
    }
  ],
  "bytecode": "0x608060405234801561001057600080fd5b506040516080806119b0833981016040908152815160208301519183015160609093015160008054600160a060020a03928316600160a060020a031991821617909155600180549290951691161790925560028290556004919091556005805460ff90921660ff19909216919091179055611920806100906000396000f3006080604052600436106101455763ffffffff60e060020a60003504166306fdde03811461014a578063095ea7b31461017157806318160ddd146101a95780631bd42f3e146101be57806323b872dd146101e25780632535f7621461020c5780632a81e4b5146102755780632d883a7314610299578063313ce567146102d4578063392f37e9146102ff5780633d188fab1461038957806340c10f19146103b257806345d61ded146103d657806349877038146104075780635cc0750514610428578063661884631461048157806370a08231146104a55780639dc29fac146104c6578063a9059cbb146104ea578063b930908f1461050e578063d73dd62314610523578063dcb82f8114610547578063dd62ed3e1461056b578063e1ba7d0114610592578063e9a9c850146105a7578063ee532f31146105bc578063fff139cf1461062b575b600080fd5b34801561015657600080fd5b5061015f610640565b60408051918252519081900360200190f35b34801561017d57600080fd5b50610195600160a060020a0360043516602435610646565b604080519115158252519081900360200190f35b3480156101b557600080fd5b5061015f6106b0565b3480156101ca57600080fd5b50610195600160a060020a03600435166024356106b6565b3480156101ee57600080fd5b50610195600160a060020a0360043581169060243516604435610833565b34801561021857600080fd5b50604080516020600460443581810135601f8101849004840285018401909552848452610195948235600160a060020a0316946024803595369594606494920191908190840183828082843750949750610a379650505050505050565b34801561028157600080fd5b50610195600160a060020a0360043516602435610b05565b3480156102a557600080fd5b506102b1600435610c1a565b60408051600160a060020a03909316835260208301919091528051918290030190f35b3480156102e057600080fd5b506102e9610c83565b6040805160ff9092168252519081900360200190f35b34801561030b57600080fd5b50610314610c8c565b6040805160208082528351818301528351919283929083019185019080838360005b8381101561034e578181015183820152602001610336565b50505050905090810190601f16801561037b5780820380516001836020036101000a031916815260200191505b509250505060405180910390f35b34801561039557600080fd5b506103b0600160a060020a0360043516602435604435610d1a565b005b3480156103be57600080fd5b50610195600160a060020a0360043516602435610d5b565b3480156103e257600080fd5b506103eb610edb565b60408051600160a060020a039092168252519081900360200190f35b34801561041357600080fd5b506102b1600160a060020a0360043516610eea565b34801561043457600080fd5b506040805160206004803580820135601f81018490048402850184019095528484526103b0943694929360249392840191908190840183828082843750949750610f079650505050505050565b34801561048d57600080fd5b50610195600160a060020a0360043516602435610f52565b3480156104b157600080fd5b5061015f600160a060020a036004351661104b565b3480156104d257600080fd5b50610195600160a060020a0360043516602435611066565b3480156104f657600080fd5b50610195600160a060020a03600435166024356111a2565b34801561051a57600080fd5b5061015f611316565b34801561052f57600080fd5b50610195600160a060020a036004351660243561133a565b34801561055357600080fd5b50610195600160a060020a03600435166024356113dc565b34801561057757600080fd5b5061015f600160a060020a036004358116906024351661154a565b34801561059e57600080fd5b5061015f611575565b3480156105b357600080fd5b5061015f61157b565b3480156105c857600080fd5b50604080516020601f60643560048181013592830184900484028501840190955281845261019594600160a060020a03813581169560248035909216956044359536956084940191819084018382808284375094975061159f9650505050505050565b34801561063757600080fd5b5061015f61166f565b60045481565b600160a060020a03338116600081815260086020908152604080832094871680845294825280832086905580518681529051929493927f8c5be1e5ebec7d5bd14f71427d1e84f3dd0314c0f7b2291e5b200ac8c7c3b925929181900390910190a350600192915050565b60095481565b6000806000806000807f4255524e5f524f4c4500000000000000000000000000000000000000000000006106ea3382611693565b15156106f557600080fd5b88955085600160a060020a031663e1ba7d016040518163ffffffff1660e060020a028152600401602060405180830381600087803b15801561073657600080fd5b505af115801561074a573d6000803e3d6000fd5b505050506040513d602081101561076057600080fd5b50519450600093505b8484101561082457604080517f2d883a73000000000000000000000000000000000000000000000000000000008152600481018690528151600160a060020a03891692632d883a7392602480820193918290030181600087803b1580156107cf57600080fd5b505af11580156107e3573d6000803e3d6000fd5b505050506040513d60408110156107f957600080fd5b50805160209091015190935091508115610819576108178389611066565b505b600190930192610769565b50600198975050505050505050565b6000600160a060020a038316151561084a57600080fd5b600160a060020a03841660009081526006602052604090205482111561086f57600080fd5b600160a060020a03808516600090815260086020908152604080832033909416835292905220548211156108a257600080fd5b600160a060020a038316600090815260066020526040902060010154151561091e57600160a060020a0383166000818152600660205260408120426001918201556007805491820181559091526000805160206118b583398151915201805473ffffffffffffffffffffffffffffffffffffffff191690911790555b600160a060020a038416600090815260066020526040902054610947908363ffffffff61175516565b600160a060020a03808616600090815260066020526040808220939093559085168152205461097c908363ffffffff61176716565b600160a060020a038085166000908152600660209081526040808320949094558783168252600881528382203390931682529190915220546109c4908363ffffffff61175516565b600160a060020a038086166000818152600860209081526040808320338616845282529182902094909455805186815290519287169391926000805160206118d5833981519152929181900390910190a3610a2184600080610d1a565b610a2d83600080610d1a565b5060019392505050565b6000610a4384846111a2565b1515610a4e57600080fd5b83600160a060020a031633600160a060020a03167f69cf42fddae119b7568ebaa1f70aac657fd6abd62d00c2ab4fcf81ff87935ab3846040518080602001828103825283818151815260200191508051906020019080838360005b83811015610ac1578181015183820152602001610aa9565b50505050905090810190601f168015610aee5780820380516001836020036101000a031916815260200191505b509250505060405180910390a35060019392505050565b600160a060020a0382166000908152600660205260408120600101541515610b8157600160a060020a0383166000818152600660205260408120426001918201556007805491820181559091526000805160206118b583398151915201805473ffffffffffffffffffffffffffffffffffffffff191690911790555b600954610b94908363ffffffff61176716565b600955604080518381529051600160a060020a038516917f0f6798a560793a54c3bcfe86a93cde1e73087d944c0ea20544137d4121396885919081900360200190a2604080518381529051600160a060020a038516916000916000805160206118d58339815191529181900360200190a3610c1183600080610d1a565b50600192915050565b600080600783815481101515610c2c57fe5b600091825260208220015460078054600160a060020a0390921694506006929186908110610c5657fe5b6000918252602080832090910154600160a060020a03168352820192909252604001902054919391925050565b60055460ff1681565b6003805460408051602060026001851615610100026000190190941693909304601f81018490048402820184019092528181529291830182828015610d125780601f10610ce757610100808354040283529160200191610d12565b820191906000526020600020905b815481529060010190602001808311610cf557829003601f168201915b505050505081565b604051600160a060020a038416907f2130e02bc65616aa7f8f548960f51a08a1d0ea94efb33611412208c2d0306a2290600090a2610d5661177a565b505050565b60007f4d494e545f524f4c450000000000000000000000000000000000000000000000610d883382611693565b1515610d9357600080fd5b600160a060020a0384166000908152600660205260409020600101541515610e0f57600160a060020a0384166000818152600660205260408120426001918201556007805491820181559091526000805160206118b583398151915201805473ffffffffffffffffffffffffffffffffffffffff191690911790555b600954610e22908463ffffffff61176716565b600955600160a060020a038416600090815260066020526040902054610e4e908463ffffffff61176716565b600160a060020a038516600081815260066020908152604091829020939093558051868152905191927f0f6798a560793a54c3bcfe86a93cde1e73087d944c0ea20544137d412139688592918290030190a2604080518481529051600160a060020a038616916000916000805160206118d58339815191529181900360200190a3610a2d84600080610d1a565b600054600160a060020a031681565b600160a060020a0381166000908152600660205260409020549091565b7f5550444154455f4d455441444154415f524f4c45000000000000000000000000610f323382611693565b1515610f3d57600080fd5b610f468261180b565b610f4e61177a565b5050565b600160a060020a03338116600090815260086020908152604080832093861683529290529081205480831115610faf57600160a060020a033381166000908152600860209081526040808320938816835292905290812055610fe6565b610fbf818463ffffffff61175516565b600160a060020a033381166000908152600860209081526040808320938916835292905220555b600160a060020a0333811660008181526008602090815260408083209489168084529482529182902054825190815291517f8c5be1e5ebec7d5bd14f71427d1e84f3dd0314c0f7b2291e5b200ac8c7c3b9259281900390910190a35060019392505050565b600160a060020a031660009081526006602052604090205490565b60007f4255524e5f524f4c4500000000000000000000000000000000000000000000006110933382611693565b151561109e57600080fd5b600083116110ab57600080fd5b600160a060020a0384166000908152600660205260409020548311156110d057600080fd5b600160a060020a0384166000908152600660205260409020546110f9908463ffffffff61175516565b600160a060020a038516600090815260066020526040902055600954611125908463ffffffff61175516565b600955604080518481529051600160a060020a038616917fcc16f5dbb4873280815c1ee09dbd06736cffcc184412cf7a71a0fdb75d397ca5919081900360200190a2604080518481529051600091600160a060020a038716916000805160206118d58339815191529181900360200190a3610a2d84600080610d1a565b6000600160a060020a03831615156111b957600080fd5b600160a060020a0333166000908152600660205260409020548211156111de57600080fd5b600160a060020a038316600090815260066020526040902060010154151561125a57600160a060020a0383166000818152600660205260408120426001918201556007805491820181559091526000805160206118b583398151915201805473ffffffffffffffffffffffffffffffffffffffff191690911790555b600160a060020a033316600090815260066020526040902054611283908363ffffffff61175516565b600160a060020a0333811660009081526006602052604080822093909355908516815220546112b8908363ffffffff61176716565b600160a060020a038085166000818152600660209081526040918290209490945580518681529051919333909316926000805160206118d583398151915292918290030190a361130a33600080610d1a565b610c1183600080610d1a565b7f4255524e5f524f4c45000000000000000000000000000000000000000000000081565b600160a060020a033381166000908152600860209081526040808320938616835292905290812054611372908363ffffffff61176716565b600160a060020a0333811660008181526008602090815260408083209489168084529482529182902085905581519485529051929391927f8c5be1e5ebec7d5bd14f71427d1e84f3dd0314c0f7b2291e5b200ac8c7c3b9259281900390910190a350600192915050565b6000806000806000807f4d494e545f524f4c4500000000000000000000000000000000000000000000006114103382611693565b151561141b57600080fd5b88955085600160a060020a031663e1ba7d016040518163ffffffff1660e060020a028152600401602060405180830381600087803b15801561145c57600080fd5b505af1158015611470573d6000803e3d6000fd5b505050506040513d602081101561148657600080fd5b50519450600093505b8484101561082457604080517f2d883a73000000000000000000000000000000000000000000000000000000008152600481018690528151600160a060020a03891692632d883a7392602480820193918290030181600087803b1580156114f557600080fd5b505af1158015611509573d6000803e3d6000fd5b505050506040513d604081101561151f57600080fd5b5080516020909101519093509150811561153f5761153d8389610d5b565b505b60019093019261148f565b600160a060020a03918216600090815260086020908152604080832093909416825291909152205490565b60075490565b7f4d494e545f524f4c45000000000000000000000000000000000000000000000081565b60006115ac858585610833565b15156115b757600080fd5b83600160a060020a031685600160a060020a03167f69cf42fddae119b7568ebaa1f70aac657fd6abd62d00c2ab4fcf81ff87935ab3846040518080602001828103825283818151815260200191508051906020019080838360005b8381101561162a578181015183820152602001611612565b50505050905090810190601f1680156116575780820380516001836020036101000a031916815260200191505b509250505060405180910390a3506001949350505050565b7f5550444154455f4d455441444154415f524f4c4500000000000000000000000081565b60008054600160a060020a0316158061174e575060008054604080517f6d6712d8000000000000000000000000000000000000000000000000000000008152600160a060020a03878116600483015230811660248301526044820187905291519190921692636d6712d892606480820193602093909283900390910190829087803b15801561172157600080fd5b505af1158015611735573d6000803e3d6000fd5b505050506040513d602081101561174b57600080fd5b50515b9392505050565b60008282111561176157fe5b50900390565b8181018281101561177457fe5b92915050565b600154600254604080517f3d188fab0000000000000000000000000000000000000000000000000000000081526000600482018190526024820193909352604481018390529051600160a060020a0390931692633d188fab9260648084019391929182900301818387803b1580156117f157600080fd5b505af1158015611805573d6000803e3d6000fd5b50505050565b8051610f4e906003906020840190828054600181600116156101000203166002900490600052602060002090601f016020900481019282601f1061185a57805160ff1916838001178555611887565b82800160010185558215611887579182015b8281111561188757825182559160200191906001019061186c565b50611893929150611897565b5090565b6118b191905b80821115611893576000815560010161189d565b905600a66cc928b5edb82af9bd49922954155ab7b0942694bea4ce44661d9a8736c688ddf252ad1be2c89b69c2b068fc378daa952ba7f163c4a11628f55a4df523b3efa165627a7a723058206fa9c60c754834a6f520f108b73a9be0a93fca250f6a923e3db8ae7d8625ef980029",
  "source": "pragma solidity ^0.4.20;\n\nimport \"@settlemint/solidity-mint/contracts/marketplaces/tokensystem/Token.sol\";\n\n/**\n * Contains the DTX token\n */\ncontract DtxToken is Token {\n\n  function DtxToken(\n    bytes32 _name,\n    uint8 _decimals,\n    address _registry,\n    address _gateKeeper\n  )\n    Token(\n      _name,\n      _decimals,\n      _registry,\n      _gateKeeper\n    )\n    public\n  {}\n\n  function getIndexLength() public view returns (uint length) {\n    length = tokenHolders.length;\n  }\n\n  function getByIndex(uint index) view public returns (address key, uint256 balance) {\n    key = tokenHolders[index];\n    balance = balances[tokenHolders[index]].balance;\n  }\n\n  function getByKey(address _key) view public returns (address key, uint256 balance) {\n    key = _key;\n    balance = balances[_key].balance;\n  }\n\n}\n",
  "sourcePath": "/Users/silkevandenbroeck/databrokerDAO/databrokerdao-dapi/contracts/dtxtoken/DtxToken.sol",
  "compiler": {
    "name": "solc",
    "version": "0.4.22+commit.4cb486ee.Emscripten.clang"
  },
  "schemaVersion": "2.0.0",
  "updatedAt": "2018-05-07T07:28:04.884Z"
}