{
  "contractName": "DtxToken",
  "abi": [
    {
      "constant": true,
      "inputs": [],
      "name": "name",
      "outputs": [
        {
          "name": "",
          "type": "bytes32"
        }
      ],
      "payable": false,
      "stateMutability": "view",
      "type": "function"
    },
    {
      "constant": false,
      "inputs": [
        {
          "name": "_spender",
          "type": "address"
        },
        {
          "name": "_value",
          "type": "uint256"
        }
      ],
      "name": "approve",
      "outputs": [
        {
          "name": "",
          "type": "bool"
        }
      ],
      "payable": false,
      "stateMutability": "nonpayable",
      "type": "function"
    },
    {
      "constant": true,
      "inputs": [],
      "name": "totalSupply",
      "outputs": [
        {
          "name": "",
          "type": "uint256"
        }
      ],
      "payable": false,
      "stateMutability": "view",
      "type": "function"
    },
    {
      "constant": false,
      "inputs": [
        {
          "name": "_roleRegistryAddress",
          "type": "address"
        },
        {
          "name": "_amount",
          "type": "uint256"
        }
      ],
      "name": "burnFromRoleRegistry",
      "outputs": [
        {
          "name": "success",
          "type": "bool"
        }
      ],
      "payable": false,
      "stateMutability": "nonpayable",
      "type": "function"
    },
    {
      "constant": false,
      "inputs": [
        {
          "name": "_from",
          "type": "address"
        },
        {
          "name": "_to",
          "type": "address"
        },
        {
          "name": "_value",
          "type": "uint256"
        }
      ],
      "name": "transferFrom",
      "outputs": [
        {
          "name": "success",
          "type": "bool"
        }
      ],
      "payable": false,
      "stateMutability": "nonpayable",
      "type": "function"
    },
    {
      "constant": false,
      "inputs": [
        {
          "name": "_to",
          "type": "address"
        },
        {
          "name": "_value",
          "type": "uint256"
        },
        {
          "name": "_data",
          "type": "bytes"
        }
      ],
      "name": "transferWithData",
      "outputs": [
        {
          "name": "success",
          "type": "bool"
        }
      ],
      "payable": false,
      "stateMutability": "nonpayable",
      "type": "function"
    },
    {
      "constant": true,
      "inputs": [],
      "name": "decimals",
      "outputs": [
        {
          "name": "",
          "type": "uint8"
        }
      ],
      "payable": false,
      "stateMutability": "view",
      "type": "function"
    },
    {
      "constant": true,
      "inputs": [],
      "name": "metadata",
      "outputs": [
        {
          "name": "",
          "type": "string"
        }
      ],
      "payable": false,
      "stateMutability": "view",
      "type": "function"
    },
    {
      "constant": false,
      "inputs": [
        {
          "name": "_cachedAddress",
          "type": "address"
        },
        {
          "name": "",
          "type": "bytes32"
        },
        {
          "name": "",
          "type": "uint256"
        }
      ],
      "name": "invalidateCache",
      "outputs": [],
      "payable": false,
      "stateMutability": "nonpayable",
      "type": "function"
    },
    {
      "constant": false,
      "inputs": [
        {
          "name": "_to",
          "type": "address"
        },
        {
          "name": "_amount",
          "type": "uint256"
        }
      ],
      "name": "mint",
      "outputs": [
        {
          "name": "success",
          "type": "bool"
        }
      ],
      "payable": false,
      "stateMutability": "nonpayable",
      "type": "function"
    },
    {
      "constant": true,
      "inputs": [],
      "name": "gateKeeper",
      "outputs": [
        {
          "name": "",
          "type": "address"
        }
      ],
      "payable": false,
      "stateMutability": "view",
      "type": "function"
    },
    {
      "constant": false,
      "inputs": [
        {
          "name": "ipfsHash",
          "type": "string"
        }
      ],
      "name": "updateMetaData",
      "outputs": [],
      "payable": false,
      "stateMutability": "nonpayable",
      "type": "function"
    },
    {
      "constant": false,
      "inputs": [
        {
          "name": "_spender",
          "type": "address"
        },
        {
          "name": "_subtractedValue",
          "type": "uint256"
        }
      ],
      "name": "decreaseApproval",
      "outputs": [
        {
          "name": "success",
          "type": "bool"
        }
      ],
      "payable": false,
      "stateMutability": "nonpayable",
      "type": "function"
    },
    {
      "constant": true,
      "inputs": [
        {
          "name": "_owner",
          "type": "address"
        }
      ],
      "name": "balanceOf",
      "outputs": [
        {
          "name": "balance",
          "type": "uint256"
        }
      ],
      "payable": false,
      "stateMutability": "view",
      "type": "function"
    },
    {
      "constant": false,
      "inputs": [
        {
          "name": "_from",
          "type": "address"
        },
        {
          "name": "_amount",
          "type": "uint256"
        }
      ],
      "name": "burn",
      "outputs": [
        {
          "name": "success",
          "type": "bool"
        }
      ],
      "payable": false,
      "stateMutability": "nonpayable",
      "type": "function"
    },
    {
      "constant": false,
      "inputs": [
        {
          "name": "_to",
          "type": "address"
        },
        {
          "name": "_value",
          "type": "uint256"
        }
      ],
      "name": "transfer",
      "outputs": [
        {
          "name": "success",
          "type": "bool"
        }
      ],
      "payable": false,
      "stateMutability": "nonpayable",
      "type": "function"
    },
    {
      "constant": true,
      "inputs": [],
      "name": "BURN_ROLE",
      "outputs": [
        {
          "name": "",
          "type": "bytes32"
        }
      ],
      "payable": false,
      "stateMutability": "view",
      "type": "function"
    },
    {
      "constant": false,
      "inputs": [
        {
          "name": "_spender",
          "type": "address"
        },
        {
          "name": "_addedValue",
          "type": "uint256"
        }
      ],
      "name": "increaseApproval",
      "outputs": [
        {
          "name": "success",
          "type": "bool"
        }
      ],
      "payable": false,
      "stateMutability": "nonpayable",
      "type": "function"
    },
    {
      "constant": false,
      "inputs": [
        {
          "name": "_roleRegistryAddress",
          "type": "address"
        },
        {
          "name": "_amount",
          "type": "uint256"
        }
      ],
      "name": "mintToRoleRegistry",
      "outputs": [
        {
          "name": "success",
          "type": "bool"
        }
      ],
      "payable": false,
      "stateMutability": "nonpayable",
      "type": "function"
    },
    {
      "constant": true,
      "inputs": [
        {
          "name": "_owner",
          "type": "address"
        },
        {
          "name": "_spender",
          "type": "address"
        }
      ],
      "name": "allowance",
      "outputs": [
        {
          "name": "remaining",
          "type": "uint256"
        }
      ],
      "payable": false,
      "stateMutability": "view",
      "type": "function"
    },
    {
      "constant": true,
      "inputs": [],
      "name": "MINT_ROLE",
      "outputs": [
        {
          "name": "",
          "type": "bytes32"
        }
      ],
      "payable": false,
      "stateMutability": "view",
      "type": "function"
    },
    {
      "constant": false,
      "inputs": [
        {
          "name": "_from",
          "type": "address"
        },
        {
          "name": "_to",
          "type": "address"
        },
        {
          "name": "_value",
          "type": "uint256"
        },
        {
          "name": "_data",
          "type": "bytes"
        }
      ],
      "name": "transferFromWithData",
      "outputs": [
        {
          "name": "success",
          "type": "bool"
        }
      ],
      "payable": false,
      "stateMutability": "nonpayable",
      "type": "function"
    },
    {
      "constant": true,
      "inputs": [],
      "name": "UPDATE_METADATA_ROLE",
      "outputs": [
        {
          "name": "",
          "type": "bytes32"
        }
      ],
      "payable": false,
      "stateMutability": "view",
      "type": "function"
    },
    {
      "inputs": [
        {
          "name": "_name",
          "type": "bytes32"
        },
        {
          "name": "_decimals",
          "type": "uint8"
        },
        {
          "name": "_registry",
          "type": "address"
        },
        {
          "name": "_gateKeeper",
          "type": "address"
        }
      ],
      "payable": false,
      "stateMutability": "nonpayable",
      "type": "constructor"
    },
    {
      "anonymous": false,
      "inputs": [
        {
          "indexed": true,
          "name": "from",
          "type": "address"
        },
        {
          "indexed": true,
          "name": "to",
          "type": "address"
        },
        {
          "indexed": false,
          "name": "value",
          "type": "uint256"
        }
      ],
      "name": "Transfer",
      "type": "event"
    },
    {
      "anonymous": false,
      "inputs": [
        {
          "indexed": true,
          "name": "from",
          "type": "address"
        },
        {
          "indexed": true,
          "name": "to",
          "type": "address"
        },
        {
          "indexed": false,
          "name": "data",
          "type": "bytes"
        }
      ],
      "name": "TransferData",
      "type": "event"
    },
    {
      "anonymous": false,
      "inputs": [
        {
          "indexed": true,
          "name": "to",
          "type": "address"
        },
        {
          "indexed": false,
          "name": "amount",
          "type": "uint256"
        }
      ],
      "name": "Mint",
      "type": "event"
    },
    {
      "anonymous": false,
      "inputs": [
        {
          "indexed": true,
          "name": "from",
          "type": "address"
        },
        {
          "indexed": false,
          "name": "amount",
          "type": "uint256"
        }
      ],
      "name": "Burn",
      "type": "event"
    },
    {
      "anonymous": false,
      "inputs": [
        {
          "indexed": true,
          "name": "owner",
          "type": "address"
        },
        {
          "indexed": true,
          "name": "spender",
          "type": "address"
        },
        {
          "indexed": false,
          "name": "value",
          "type": "uint256"
        }
      ],
      "name": "Approval",
      "type": "event"
    },
    {
      "anonymous": false,
      "inputs": [
        {
          "indexed": true,
          "name": "key",
          "type": "address"
        }
      ],
      "name": "AddressCacheInvalidated",
      "type": "event"
    },
    {
      "anonymous": false,
      "inputs": [
        {
          "indexed": true,
          "name": "key",
          "type": "bytes32"
        }
      ],
      "name": "Bytes32CacheInvalidated",
      "type": "event"
    },
    {
      "anonymous": false,
      "inputs": [
        {
          "indexed": true,
          "name": "key",
          "type": "uint256"
        }
      ],
      "name": "Uint256CacheInvalidated",
      "type": "event"
    },
    {
      "constant": true,
      "inputs": [],
      "name": "getIndexLength",
      "outputs": [
        {
          "name": "length",
          "type": "uint256"
        }
      ],
      "payable": false,
      "stateMutability": "view",
      "type": "function"
    },
    {
      "constant": true,
      "inputs": [
        {
          "name": "index",
          "type": "uint256"
        }
      ],
      "name": "getByIndex",
      "outputs": [
        {
          "name": "key",
          "type": "address"
        },
        {
          "name": "balance",
          "type": "uint256"
        }
      ],
      "payable": false,
      "stateMutability": "view",
      "type": "function"
    },
    {
      "constant": true,
      "inputs": [
        {
          "name": "_key",
          "type": "address"
        }
      ],
      "name": "getByKey",
      "outputs": [
        {
          "name": "key",
          "type": "address"
        },
        {
          "name": "balance",
          "type": "uint256"
        }
      ],
      "payable": false,
      "stateMutability": "view",
      "type": "function"
    }
  ],
  "bytecode": "0x6060604052341561000f57600080fd5b60405160808061179b8339810160405280805191906020018051919060200180519190602001805160008054600160a060020a03928316600160a060020a0319918216179091556001805492909516911617909255505060028290556004919091556005805460ff90921660ff19909216919091179055611706806100956000396000f30060606040526004361061013a5763ffffffff60e060020a60003504166306fdde03811461013f578063095ea7b31461016457806318160ddd1461019a5780631bd42f3e146101ad57806323b872dd146101cf5780632535f762146101f75780632d883a731461025c578063313ce56714610294578063392f37e9146102bd5780633d188fab1461034757806340c10f191461036e57806345d61ded1461039057806349877038146103bf5780635cc07505146103de578063661884631461042f57806370a08231146104515780639dc29fac14610470578063a9059cbb14610492578063b930908f146104b4578063d73dd623146104c7578063dcb82f81146104e9578063dd62ed3e1461050b578063e1ba7d0114610530578063e9a9c85014610543578063ee532f3114610556578063fff139cf146105c2575b600080fd5b341561014a57600080fd5b6101526105d5565b60405190815260200160405180910390f35b341561016f57600080fd5b610186600160a060020a03600435166024356105db565b604051901515815260200160405180910390f35b34156101a557600080fd5b610152610647565b34156101b857600080fd5b610186600160a060020a036004351660243561064d565b34156101da57600080fd5b610186600160a060020a0360043581169060243516604435610784565b341561020257600080fd5b61018660048035600160a060020a03169060248035919060649060443590810190830135806020601f8201819004810201604051908101604052818152929190602084018383808284375094965061099295505050505050565b341561026757600080fd5b610272600435610a5f565b604051600160a060020a03909216825260208201526040908101905180910390f35b341561029f57600080fd5b6102a7610ac8565b60405160ff909116815260200160405180910390f35b34156102c857600080fd5b6102d0610ad1565b60405160208082528190810183818151815260200191508051906020019080838360005b8381101561030c5780820151838201526020016102f4565b50505050905090810190601f1680156103395780820380516001836020036101000a031916815260200191505b509250505060405180910390f35b341561035257600080fd5b61036c600160a060020a0360043516602435604435610b6f565b005b341561037957600080fd5b610186600160a060020a0360043516602435610bb2565b341561039b57600080fd5b6103a3610d3a565b604051600160a060020a03909116815260200160405180910390f35b34156103ca57600080fd5b610272600160a060020a0360043516610d49565b34156103e957600080fd5b61036c60046024813581810190830135806020601f82018190048102016040519081016040528181529291906020840183838082843750949650610d6695505050505050565b341561043a57600080fd5b610186600160a060020a0360043516602435610db1565b341561045c57600080fd5b610152600160a060020a0360043516610eab565b341561047b57600080fd5b610186600160a060020a0360043516602435610ec6565b341561049d57600080fd5b610186600160a060020a0360043516602435610ffe565b34156104bf57600080fd5b610152611185565b34156104d257600080fd5b610186600160a060020a03600435166024356111a9565b34156104f457600080fd5b610186600160a060020a036004351660243561124d565b341561051657600080fd5b610152600160a060020a0360043581169060243516611375565b341561053b57600080fd5b6101526113a0565b341561054e57600080fd5b6101526113a6565b341561056157600080fd5b610186600160a060020a036004803582169160248035909116916044359160849060643590810190830135806020601f820181900481020160405190810160405281815292919060208401838380828437509496506113ca95505050505050565b34156105cd57600080fd5b610152611499565b60045481565b600160a060020a03338116600081815260086020908152604080832094871680845294909152808220859055909291907f8c5be1e5ebec7d5bd14f71427d1e84f3dd0314c0f7b2291e5b200ac8c7c3b9259085905190815260200160405180910390a350600192915050565b60095481565b6000806000806000807f4255524e5f524f4c45000000000000000000000000000000000000000000000061068133826114bd565b151561068c57600080fd5b88955085600160a060020a031663e1ba7d016040518163ffffffff1660e060020a028152600401602060405180830381600087803b15156106cc57600080fd5b5af115156106d957600080fd5b5050506040518051955060009450505b848410156107755785600160a060020a0316632d883a738560405160e060020a63ffffffff841602815260048101919091526024016040805180830381600087803b151561073657600080fd5b5af1151561074357600080fd5b505050604051805190602001805191945090925050811561076a576107688389610ec6565b505b6001909301926106e9565b50600198975050505050505050565b6000600160a060020a038316151561079b57600080fd5b600160a060020a0384166000908152600660205260409020548211156107c057600080fd5b600160a060020a03808516600090815260086020908152604080832033909416835292905220548211156107f357600080fd5b600160a060020a038316600090815260066020526040902060010154151561087957600160a060020a038316600090815260066020526040902042600191820155600780549091810161084683826115fb565b506000918252602090912001805473ffffffffffffffffffffffffffffffffffffffff1916600160a060020a0385161790555b600160a060020a0384166000908152600660205260409020546108a2908363ffffffff61155316565b600160a060020a0380861660009081526006602052604080822093909355908516815220546108d7908363ffffffff61156516565b600160a060020a0380851660009081526006602090815260408083209490945587831682526008815283822033909316825291909152205461091f908363ffffffff61155316565b600160a060020a03808616600081815260086020908152604080832033861684529091529081902093909355908516916000805160206116bb8339815191529085905190815260200160405180910390a361097c84600080610b6f565b61098883600080610b6f565b5060019392505050565b600061099e8484610ffe565b15156109a957600080fd5b83600160a060020a031633600160a060020a03167f69cf42fddae119b7568ebaa1f70aac657fd6abd62d00c2ab4fcf81ff87935ab38460405160208082528190810183818151815260200191508051906020019080838360005b83811015610a1b578082015183820152602001610a03565b50505050905090810190601f168015610a485780820380516001836020036101000a031916815260200191505b509250505060405180910390a35060019392505050565b600080600783815481101515610a7157fe5b600091825260208220015460078054600160a060020a0390921694506006929186908110610a9b57fe5b6000918252602080832090910154600160a060020a03168352820192909252604001902054919391925050565b60055460ff1681565b60038054600181600116156101000203166002900480601f016020809104026020016040519081016040528092919081815260200182805460018160011615610100020316600290048015610b675780601f10610b3c57610100808354040283529160200191610b67565b820191906000526020600020905b815481529060010190602001808311610b4a57829003601f168201915b505050505081565b82600160a060020a03167f2130e02bc65616aa7f8f548960f51a08a1d0ea94efb33611412208c2d0306a2260405160405180910390a2610bad611574565b505050565b60007f4d494e545f524f4c450000000000000000000000000000000000000000000000610bdf33826114bd565b1515610bea57600080fd5b600160a060020a0384166000908152600660205260409020600101541515610c7057600160a060020a0384166000908152600660205260409020426001918201556007805490918101610c3d83826115fb565b506000918252602090912001805473ffffffffffffffffffffffffffffffffffffffff1916600160a060020a0386161790555b600954610c83908463ffffffff61156516565b600955600160a060020a038416600090815260066020526040902054610caf908463ffffffff61156516565b600160a060020a0385166000818152600660205260409081902092909255907f0f6798a560793a54c3bcfe86a93cde1e73087d944c0ea20544137d41213968859085905190815260200160405180910390a283600160a060020a031660006000805160206116bb8339815191528560405190815260200160405180910390a361098884600080610b6f565b600054600160a060020a031681565b600160a060020a0381166000908152600660205260409020549091565b7f5550444154455f4d455441444154415f524f4c45000000000000000000000000610d9133826114bd565b1515610d9c57600080fd5b610da5826115e8565b610dad611574565b5050565b600160a060020a03338116600090815260086020908152604080832093861683529290529081205480831115610e0e57600160a060020a033381166000908152600860209081526040808320938816835292905290812055610e45565b610e1e818463ffffffff61155316565b600160a060020a033381166000908152600860209081526040808320938916835292905220555b600160a060020a0333811660008181526008602090815260408083209489168084529490915290819020547f8c5be1e5ebec7d5bd14f71427d1e84f3dd0314c0f7b2291e5b200ac8c7c3b925915190815260200160405180910390a35060019392505050565b600160a060020a031660009081526006602052604090205490565b60007f4255524e5f524f4c450000000000000000000000000000000000000000000000610ef333826114bd565b1515610efe57600080fd5b60008311610f0b57600080fd5b600160a060020a038416600090815260066020526040902054831115610f3057600080fd5b600160a060020a038416600090815260066020526040902054610f59908463ffffffff61155316565b600160a060020a038516600090815260066020526040902055600954610f85908463ffffffff61155316565b600955600160a060020a0384167fcc16f5dbb4873280815c1ee09dbd06736cffcc184412cf7a71a0fdb75d397ca58460405190815260200160405180910390a2600084600160a060020a03166000805160206116bb8339815191528560405190815260200160405180910390a361098884600080610b6f565b6000600160a060020a038316151561101557600080fd5b600160a060020a03331660009081526006602052604090205482111561103a57600080fd5b600160a060020a03831660009081526006602052604090206001015415156110c057600160a060020a038316600090815260066020526040902042600191820155600780549091810161108d83826115fb565b506000918252602090912001805473ffffffffffffffffffffffffffffffffffffffff1916600160a060020a0385161790555b600160a060020a0333166000908152600660205260409020546110e9908363ffffffff61155316565b600160a060020a03338116600090815260066020526040808220939093559085168152205461111e908363ffffffff61156516565b600160a060020a0380851660008181526006602052604090819020939093559133909116906000805160206116bb8339815191529085905190815260200160405180910390a361117033600080610b6f565b61117c83600080610b6f565b50600192915050565b7f4255524e5f524f4c45000000000000000000000000000000000000000000000081565b600160a060020a0333811660009081526008602090815260408083209386168352929052908120546111e1908363ffffffff61156516565b600160a060020a0333811660008181526008602090815260408083209489168084529490915290819020849055919290917f8c5be1e5ebec7d5bd14f71427d1e84f3dd0314c0f7b2291e5b200ac8c7c3b92591905190815260200160405180910390a350600192915050565b6000806000806000807f4d494e545f524f4c45000000000000000000000000000000000000000000000061128133826114bd565b151561128c57600080fd5b88955085600160a060020a031663e1ba7d016040518163ffffffff1660e060020a028152600401602060405180830381600087803b15156112cc57600080fd5b5af115156112d957600080fd5b5050506040518051955060009450505b848410156107755785600160a060020a0316632d883a738560405160e060020a63ffffffff841602815260048101919091526024016040805180830381600087803b151561133657600080fd5b5af1151561134357600080fd5b505050604051805190602001805191945090925050811561136a576113688389610bb2565b505b6001909301926112e9565b600160a060020a03918216600090815260086020908152604080832093909416825291909152205490565b60075490565b7f4d494e545f524f4c45000000000000000000000000000000000000000000000081565b60006113d7858585610784565b15156113e257600080fd5b83600160a060020a031685600160a060020a03167f69cf42fddae119b7568ebaa1f70aac657fd6abd62d00c2ab4fcf81ff87935ab38460405160208082528190810183818151815260200191508051906020019080838360005b8381101561145457808201518382015260200161143c565b50505050905090810190601f1680156114815780820380516001836020036101000a031916815260200191505b509250505060405180910390a3506001949350505050565b7f5550444154455f4d455441444154415f524f4c4500000000000000000000000081565b60008054600160a060020a0316158061154c5750600054600160a060020a0316636d6712d884308560405160e060020a63ffffffff8616028152600160a060020a0393841660048201529190921660248201526044810191909152606401602060405180830381600087803b151561153457600080fd5b5af1151561154157600080fd5b505050604051805190505b9392505050565b60008282111561155f57fe5b50900390565b60008282018381101561154c57fe5b600154600254600160a060020a0390911690633d188fab906000908160405160e060020a63ffffffff8616028152600160a060020a03909316600484015260248301919091526044820152606401600060405180830381600087803b15156115db57600080fd5b5af11515610bad57600080fd5b6003818051610dad92916020019061161f565b815481835581811511610bad57600083815260209020610bad91810190830161169d565b828054600181600116156101000203166002900490600052602060002090601f016020900481019282601f1061166057805160ff191683800117855561168d565b8280016001018555821561168d579182015b8281111561168d578251825591602001919060010190611672565b5061169992915061169d565b5090565b6116b791905b8082111561169957600081556001016116a3565b905600ddf252ad1be2c89b69c2b068fc378daa952ba7f163c4a11628f55a4df523b3efa165627a7a7230582020dfaa74a82a5bf79e1cd623f22e2ac54373a09fb0e688a62bc78d1807714b530029",
  "source": "pragma solidity ^0.4.20;\n\nimport \"@settlemint/solidity-mint/contracts/marketplaces/tokensystem/Token.sol\";\n\n\ncontract DtxToken is Token {\n\n  function DtxToken(\n    bytes32 _name,\n    uint8 _decimals,\n    address _registry,\n    address _gateKeeper\n  )\n    Token(\n      _name,\n      _decimals,\n      _registry,\n      _gateKeeper\n    )\n    public\n  {}\n\n  function getIndexLength() public view returns (uint length) {\n    length = tokenHolders.length;\n  }\n\n  function getByIndex(uint index) view public returns (address key, uint256 balance) {\n    key = tokenHolders[index];\n    balance = balances[tokenHolders[index]].balance;\n  }\n\n  function getByKey(address _key) view public returns (address key, uint256 balance) {\n    key = _key;\n    balance = balances[_key].balance;\n  }\n\n}\n",
  "sourcePath": "/Users/silkevandenbroeck/databrokerDAO/databrokerdao-dapi/contracts/dtxtoken/DtxToken.sol",
  "compiler": {
    "name": "solc",
    "version": "0.4.21+commit.dfe3193c.Emscripten.clang"
  },
  "schemaVersion": "2.0.0",
  "updatedAt": "2018-04-05T11:10:41.053Z"
}