{
  "contractName": "GateKeeper",
  "abi": [
    {
      "constant": true,
      "inputs": [],
      "name": "CREATE_PERMISSIONS_ROLE",
      "outputs": [
        {
          "name": "",
          "type": "bytes32"
        }
      ],
      "payable": false,
      "stateMutability": "view",
      "type": "function"
    },
    {
      "constant": true,
      "inputs": [],
      "name": "ADD_ROLEREGISTRY_ROLE",
      "outputs": [
        {
          "name": "",
          "type": "bytes32"
        }
      ],
      "payable": false,
      "stateMutability": "view",
      "type": "function"
    },
    {
      "inputs": [],
      "payable": false,
      "stateMutability": "nonpayable",
      "type": "constructor"
    },
    {
      "anonymous": false,
      "inputs": [
        {
          "indexed": true,
          "name": "entity",
          "type": "address"
        },
        {
          "indexed": true,
          "name": "contractAddress",
          "type": "address"
        },
        {
          "indexed": true,
          "name": "role",
          "type": "bytes32"
        },
        {
          "indexed": false,
          "name": "allowed",
          "type": "bool"
        }
      ],
      "name": "SetPermission",
      "type": "event"
    },
    {
      "anonymous": false,
      "inputs": [
        {
          "indexed": true,
          "name": "contractAddress",
          "type": "address"
        },
        {
          "indexed": true,
          "name": "role",
          "type": "bytes32"
        },
        {
          "indexed": true,
          "name": "manager",
          "type": "address"
        }
      ],
      "name": "ChangePermissionManager",
      "type": "event"
    },
    {
      "constant": false,
      "inputs": [
        {
          "name": "roleRegisty",
          "type": "address"
        }
      ],
      "name": "addRoleRegistry",
      "outputs": [],
      "payable": false,
      "stateMutability": "nonpayable",
      "type": "function"
    },
    {
      "constant": false,
      "inputs": [
        {
          "name": "_entity",
          "type": "address"
        },
        {
          "name": "_contract",
          "type": "address"
        },
        {
          "name": "_role",
          "type": "bytes32"
        },
        {
          "name": "_manager",
          "type": "address"
        }
      ],
      "name": "createPermission",
      "outputs": [],
      "payable": false,
      "stateMutability": "nonpayable",
      "type": "function"
    },
    {
      "constant": false,
      "inputs": [
        {
          "name": "_entity",
          "type": "address"
        },
        {
          "name": "_contract",
          "type": "address"
        },
        {
          "name": "_role",
          "type": "bytes32"
        }
      ],
      "name": "grantPermission",
      "outputs": [],
      "payable": false,
      "stateMutability": "nonpayable",
      "type": "function"
    },
    {
      "constant": false,
      "inputs": [
        {
          "name": "_entity",
          "type": "address"
        },
        {
          "name": "_contract",
          "type": "address"
        },
        {
          "name": "_role",
          "type": "bytes32"
        }
      ],
      "name": "revokePermission",
      "outputs": [],
      "payable": false,
      "stateMutability": "nonpayable",
      "type": "function"
    },
    {
      "constant": false,
      "inputs": [
        {
          "name": "_newManager",
          "type": "address"
        },
        {
          "name": "_contract",
          "type": "address"
        },
        {
          "name": "_role",
          "type": "bytes32"
        }
      ],
      "name": "setPermissionManager",
      "outputs": [],
      "payable": false,
      "stateMutability": "nonpayable",
      "type": "function"
    },
    {
      "constant": true,
      "inputs": [
        {
          "name": "_contract",
          "type": "address"
        },
        {
          "name": "_role",
          "type": "bytes32"
        }
      ],
      "name": "getPermissionManager",
      "outputs": [
        {
          "name": "",
          "type": "address"
        }
      ],
      "payable": false,
      "stateMutability": "view",
      "type": "function"
    },
    {
      "constant": true,
      "inputs": [
        {
          "name": "_entity",
          "type": "address"
        },
        {
          "name": "_contract",
          "type": "address"
        },
        {
          "name": "_role",
          "type": "bytes32"
        }
      ],
      "name": "hasPermission",
      "outputs": [
        {
          "name": "",
          "type": "bool"
        }
      ],
      "payable": false,
      "stateMutability": "view",
      "type": "function"
    }
  ],
  "bytecode": "0x6060604052341561000f57600080fd5b61004833307f4352454154455f5045524d495353494f4e535f524f4c450000000000000000008264010000000061064f61008682021704565b61008133307f4144445f524f4c4552454749535452595f524f4c4500000000000000000000008264010000000061064f61008682021704565b6101ec565b600160a060020a03808416600090815260016020908152604080832086845290915290205416156100b657600080fd5b6100d084848460016401000000006105446100ee82021704565b6100e88184846401000000006105bf61016982021704565b50505050565b600160a060020a0384811660008181526020818152604080832094881680845294825280832087845290915290819020805460ff1916851515179055849291907f759b9a74d5354b5801710a0c1b283cc9f0d32b607ac8ced10c83ac8e75c77d5290859051901515815260200160405180910390a450505050565b6000600160a060020a0384161161017f57600080fd5b600160a060020a038281166000818152600160209081526040808320868452909152908190208054600160a060020a03191693871693841790558391907ff3addc8b8e25ee11528a61b0e65092cae0666ef0ec0c64cb303993c88d689b4d905160405180910390a4505050565b610713806101fb6000396000f3006060604052600436106100985763ffffffff7c01000000000000000000000000000000000000000000000000000000006000350416630a8ed3db811461009d5780633d6ab68f146100c757806344be8765146100ec5780636d6712d81461010b5780639d0effdb14610147578063afd925df1461016f578063b190572714610197578063be038478146101d5578063d658ecba14610204575b600080fd5b34156100a857600080fd5b6100c5600160a060020a0360043581169060243516604435610217565b005b34156100d257600080fd5b6100da610256565b60405190815260200160405180910390f35b34156100f757600080fd5b6100c5600160a060020a036004351661027a565b341561011657600080fd5b610133600160a060020a03600435811690602435166044356102fe565b604051901515815260200160405180910390f35b341561015257600080fd5b6100c5600160a060020a0360043581169060243516604435610447565b341561017a57600080fd5b6100c5600160a060020a036004358116906024351660443561047f565b34156101a257600080fd5b6101b9600160a060020a03600435166024356104b5565b604051600160a060020a03909116815260200160405180910390f35b34156101e057600080fd5b6100c5600160a060020a0360043581169060243581169060443590606435166104dd565b341561020f57600080fd5b6100da610520565b818161022382826104b5565b600160a060020a031633600160a060020a031614151561024257600080fd5b61024f8585856001610544565b5050505050565b7f4352454154455f5045524d495353494f4e535f524f4c4500000000000000000081565b7f4144445f524f4c4552454749535452595f524f4c4500000000000000000000006102a63330836102fe565b15156102b157600080fd5b60028054600181016102c3838261069d565b506000918252602090912001805473ffffffffffffffffffffffffffffffffffffffff1916600160a060020a03939093169290921790915550565b600160a060020a03808416600090815260208181526040808320938616835292815282822084835290529081205460ff1681811561033e5781925061043e565b5060005b6002548110156104395761037a60028281548110151561035e57fe5b600091825260209091200154600160a060020a031686866102fe565b1561043157600280548290811061038d57fe5b6000918252602082200154600160a060020a031690637ef09bca908890604051602001526040517c010000000000000000000000000000000000000000000000000000000063ffffffff8416028152600160a060020a039091166004820152602401602060405180830381600087803b151561040857600080fd5b6102c65a03f1151561041957600080fd5b5050506040518051905015610431576001925061043e565b600101610342565b600092505b50509392505050565b818161045382826104b5565b600160a060020a031633600160a060020a031614151561047257600080fd5b61024f8585856000610544565b818161048b82826104b5565b600160a060020a031633600160a060020a03161415156104aa57600080fd5b61024f8585856105bf565b600160a060020a03918216600090815260016020908152604080832093835292905220541690565b7f4352454154455f5045524d495353494f4e535f524f4c450000000000000000006105093330836102fe565b151561051457600080fd5b61024f8585858561064f565b7f4144445f524f4c4552454749535452595f524f4c45000000000000000000000081565b600160a060020a0384811660008181526020818152604080832094881680845294825280832087845290915290819020805460ff1916851515179055849291907f759b9a74d5354b5801710a0c1b283cc9f0d32b607ac8ced10c83ac8e75c77d5290859051901515815260200160405180910390a450505050565b6000600160a060020a038416116105d557600080fd5b600160a060020a03828116600081815260016020908152604080832086845290915290819020805473ffffffffffffffffffffffffffffffffffffffff191693871693841790558391907ff3addc8b8e25ee11528a61b0e65092cae0666ef0ec0c64cb303993c88d689b4d905160405180910390a4505050565b600160a060020a038084166000908152600160209081526040808320868452909152902054161561067f57600080fd5b61068c8484846001610544565b6106978184846105bf565b50505050565b8154818355818115116106c1576000838152602090206106c19181019083016106c6565b505050565b6106e491905b808211156106e057600081556001016106cc565b5090565b905600a165627a7a72305820da2d43b7e93b1d7fad5f89bf9fe5e000ec5536bcfdd1ab89c3701db6c164d2b70029",
  "source": "pragma solidity ^0.4.17;\n\nimport \"./interfaces/IRoleRegistry.sol\";\n\n\ncontract GateKeeper {\n\n  bytes32 constant public CREATE_PERMISSIONS_ROLE = bytes32(\"CREATE_PERMISSIONS_ROLE\");\n  bytes32 constant public ADD_ROLEREGISTRY_ROLE = bytes32(\"ADD_ROLEREGISTRY_ROLE\");\n\n  event SetPermission(address indexed entity, address indexed contractAddress, bytes32 indexed role, bool allowed);\n  event ChangePermissionManager(address indexed contractAddress, bytes32 indexed role, address indexed manager);\n\n  // whether a certain entity has a permission\n  mapping (address => mapping (address => mapping (bytes32 => bool))) permissions;\n  // who is the manager of a permission\n  mapping (address => mapping (bytes32 => address)) permissionManager;\n\n  // a list of all RoleRegistries\n  IRoleRegistry[] roleRegistries;\n\n  modifier onlyPermissionManager(address _contract, bytes32 role) {\n    require(msg.sender == getPermissionManager(_contract, role));\n    _;\n  }\n\n  modifier auth(bytes32 _role) {\n    require(hasPermission(msg.sender, address(this), _role));\n    _;\n  }\n\n  function GateKeeper() public {\n    _createPermission(\n      msg.sender,\n      address(this),\n      CREATE_PERMISSIONS_ROLE,\n      msg.sender\n    );\n    _createPermission(\n      msg.sender,\n      address(this),\n      ADD_ROLEREGISTRY_ROLE,\n      msg.sender\n    );\n  }\n\n  function addRoleRegistry(address roleRegisty) external auth(ADD_ROLEREGISTRY_ROLE) {\n    roleRegistries.push(IRoleRegistry(roleRegisty));\n  }\n\n  /**\n  * @dev Creates a permission that wasn't previously set. Access is limited by the ACL.\n  *      if a created permission is removed it is possible to reset it with createPermission.\n  * @notice Create a new permission granting `_entity` the ability to perform actions of role `_role` on `_contract` (setting `_manager` as parent)\n  * @param _entity Address of the whitelisted entity that will be able to perform the role, this can be a user or a roleregistry\n  * @param _contract Address of the app in which the role will be allowed (requires app to depend on kernel for ACL)\n  * @param _role Identifier for the group of actions in app given access to perform\n  * @param _manager Address of the entity that will be able to grant and revoke the permission further.\n  */\n  function createPermission(\n    address _entity,\n    address _contract,\n    bytes32 _role,\n    address _manager\n  )\n    auth(CREATE_PERMISSIONS_ROLE)\n    external\n  {\n    _createPermission(\n      _entity,\n      _contract,\n      _role,\n      _manager\n    );\n  }\n\n  /**\n  * @dev Grants a permission if allowed. This requires `msg.sender` to be the permission manager\n  * @notice Grants `_entity` the ability to perform actions of role `_role` on `_contract`\n  * @param _entity Address of the whitelisted entity that will be able to perform the role\n  * @param _contract Address of the app in which the role will be allowed (requires app to depend on kernel for ACL)\n  * @param _role Identifier for the group of actions in app given access to perform\n  */\n  function grantPermission(address _entity, address _contract, bytes32 _role)\n    onlyPermissionManager(_contract, _role)\n    external\n  {\n    _setPermission(\n      _entity,\n      _contract,\n      _role,\n      true\n    );\n  }\n\n  /**\n  * @dev Revokes permission if allowed. This requires `msg.sender` to be the parent of the permission\n  * @notice Revokes `_entity` the ability to perform actions of role `_role` on `_contract`\n  * @param _entity Address of the whitelisted entity that will be revoked access\n  * @param _contract Address of the app in which the role is revoked\n  * @param _role Identifier for the group of actions in app given access to perform\n  */\n  function revokePermission(address _entity, address _contract, bytes32 _role)\n    onlyPermissionManager(_contract, _role)\n    external\n  {\n    _setPermission(\n      _entity,\n      _contract,\n      _role,\n      false\n    );\n  }\n\n  /**\n  * @notice Sets `_newManager` as the manager of the permission `_role` in `_contract`\n  * @param _newManager Address for the new manager\n  * @param _contract Address of the app in which the permission management is being transferred\n  * @param _role Identifier for the group of actions in app given access to perform\n  */\n  function setPermissionManager(address _newManager, address _contract, bytes32 _role)\n    onlyPermissionManager(_contract, _role)\n    external\n  {\n    _setPermissionManager(_newManager, _contract, _role);\n  }\n\n  /**\n  * @dev Get manager address for permission\n  * @param _contract Address of the app\n  * @param _role Identifier for a group of actions in app\n  * @return address of the manager for the permission\n  */\n  function getPermissionManager(address _contract, bytes32 _role) constant public returns (address) {\n    return permissionManager[_contract][_role];\n  }\n\n  /**\n  * @dev Function called by apps to check ACL on kernel or to check permission statu\n  * @param _entity Sender of the original call\n  * @param _contract Address of the app\n  * @param _role Identifier for a group of actions in app\n  * @return boolean indicating whether the ACL allows the role or not\n  */\n  function hasPermission(address _entity, address _contract, bytes32 _role) constant public returns (bool) {\n    // the address passed in has the permissions themselves\n    bool personalPermission = permissions[_entity][_contract][_role];\n    if (personalPermission) {\n      return personalPermission;\n    }\n    // or we will check if any of the role registries have the permission\n    for (uint256 counter = 0; counter < roleRegistries.length; counter++) {\n      if (hasPermission(address(roleRegistries[counter]), _contract, _role)) {\n        // and if the original address has role, than we will allow it\n        if (roleRegistries[counter].hasRole(_entity)) {\n          return true;\n        }\n      }\n    }\n    // if, not, deny!\n    return false;\n  }\n\n  /**\n  * @dev Internal createPermission for access inside the gatekeeper (on instantiation)\n  */\n  function _createPermission(\n    address _entity,\n    address _contract,\n    bytes32 _role,\n    address _manager\n  )\n    internal\n  {\n    // only allow permission creation when it has no manager (hasn't been created before)\n    require(permissionManager[_contract][_role] == 0);\n    _setPermission(\n      _entity,\n      _contract,\n      _role,\n      true\n    );\n    _setPermissionManager(_manager, _contract, _role);\n  }\n\n  /**\n  * @dev Internal function called to actually save the permission\n  */\n  function _setPermission(\n    address _entity,\n    address _contract,\n    bytes32 _role,\n    bool _allowed\n  )\n    internal\n  {\n    permissions[_entity][_contract][_role] = _allowed;\n    SetPermission(\n      _entity,\n      _contract,\n      _role,\n      _allowed\n    );\n  }\n\n  /**\n  * @dev Internal function that sets management\n  */\n  function _setPermissionManager(address _newManager, address _contract, bytes32 _role) internal {\n    require(_newManager > 0);\n\n    permissionManager[_contract][_role] = _newManager;\n    ChangePermissionManager(_contract, _role, _newManager);\n  }\n}\n",
  "sourcePath": "@settlemint/solidity-mint/contracts/authentication/GateKeeper.sol",
  "compiler": {
    "name": "solc",
    "version": "0.4.20+commit.3155dd80.Emscripten.clang"
  },
  "schemaVersion": "2.0.0",
  "updatedAt": "2018-03-07T15:10:21.093Z"
}