{
  "contractName": "IListing",
  "abi": [
    {
      "constant": true,
      "inputs": [
        {
          "name": "",
          "type": "address"
        }
      ],
      "name": "challenges",
      "outputs": [
        {
          "name": "",
          "type": "address"
        }
      ],
      "payable": false,
      "stateMutability": "view",
      "type": "function"
    },
    {
      "constant": true,
      "inputs": [],
      "name": "BLACKLIST_ROLE",
      "outputs": [
        {
          "name": "",
          "type": "bytes32"
        }
      ],
      "payable": false,
      "stateMutability": "view",
      "type": "function"
    },
    {
      "constant": true,
      "inputs": [],
      "name": "metadata",
      "outputs": [
        {
          "name": "",
          "type": "string"
        }
      ],
      "payable": false,
      "stateMutability": "view",
      "type": "function"
    },
    {
      "constant": true,
      "inputs": [],
      "name": "stake",
      "outputs": [
        {
          "name": "",
          "type": "uint256"
        }
      ],
      "payable": false,
      "stateMutability": "view",
      "type": "function"
    },
    {
      "constant": true,
      "inputs": [],
      "name": "whitelisted",
      "outputs": [
        {
          "name": "",
          "type": "bool"
        }
      ],
      "payable": false,
      "stateMutability": "view",
      "type": "function"
    },
    {
      "constant": true,
      "inputs": [],
      "name": "gateKeeper",
      "outputs": [
        {
          "name": "",
          "type": "address"
        }
      ],
      "payable": false,
      "stateMutability": "view",
      "type": "function"
    },
    {
      "constant": true,
      "inputs": [],
      "name": "challengesStake",
      "outputs": [
        {
          "name": "",
          "type": "uint256"
        }
      ],
      "payable": false,
      "stateMutability": "view",
      "type": "function"
    },
    {
      "constant": true,
      "inputs": [],
      "name": "owner",
      "outputs": [
        {
          "name": "",
          "type": "address"
        }
      ],
      "payable": false,
      "stateMutability": "view",
      "type": "function"
    },
    {
      "constant": true,
      "inputs": [],
      "name": "price",
      "outputs": [
        {
          "name": "",
          "type": "uint256"
        }
      ],
      "payable": false,
      "stateMutability": "view",
      "type": "function"
    },
    {
      "constant": true,
      "inputs": [],
      "name": "numberOfChallenges",
      "outputs": [
        {
          "name": "",
          "type": "uint256"
        }
      ],
      "payable": false,
      "stateMutability": "view",
      "type": "function"
    },
    {
      "constant": true,
      "inputs": [],
      "name": "UPDATE_METADATA_ROLE",
      "outputs": [
        {
          "name": "",
          "type": "bytes32"
        }
      ],
      "payable": false,
      "stateMutability": "view",
      "type": "function"
    },
    {
      "inputs": [
        {
          "name": "_owner",
          "type": "address"
        },
        {
          "name": "_price",
          "type": "uint256"
        },
        {
          "name": "_stakeAmount",
          "type": "uint256"
        },
        {
          "name": "_gateKeeper",
          "type": "address"
        }
      ],
      "payable": false,
      "stateMutability": "nonpayable",
      "type": "constructor"
    },
    {
      "anonymous": false,
      "inputs": [
        {
          "indexed": false,
          "name": "listing",
          "type": "address"
        }
      ],
      "name": "Blacklisted",
      "type": "event"
    },
    {
      "anonymous": false,
      "inputs": [
        {
          "indexed": false,
          "name": "listing",
          "type": "address"
        },
        {
          "indexed": false,
          "name": "stake",
          "type": "uint256"
        }
      ],
      "name": "StakeSet",
      "type": "event"
    },
    {
      "anonymous": false,
      "inputs": [
        {
          "indexed": false,
          "name": "listing",
          "type": "address"
        },
        {
          "indexed": false,
          "name": "stake",
          "type": "uint256"
        }
      ],
      "name": "ChallengesStakeSet",
      "type": "event"
    },
    {
      "anonymous": false,
      "inputs": [
        {
          "indexed": false,
          "name": "listing",
          "type": "address"
        },
        {
          "indexed": false,
          "name": "challenge",
          "type": "address"
        }
      ],
      "name": "ChallengeSet",
      "type": "event"
    },
    {
      "anonymous": false,
      "inputs": [
        {
          "indexed": false,
          "name": "listing",
          "type": "address"
        },
        {
          "indexed": false,
          "name": "whitelisted",
          "type": "bool"
        }
      ],
      "name": "WhitelistedSet",
      "type": "event"
    },
    {
      "anonymous": false,
      "inputs": [
        {
          "indexed": false,
          "name": "listing",
          "type": "address"
        },
        {
          "indexed": false,
          "name": "price",
          "type": "uint256"
        }
      ],
      "name": "PriceSet",
      "type": "event"
    },
    {
      "anonymous": false,
      "inputs": [
        {
          "indexed": false,
          "name": "listing",
          "type": "address"
        },
        {
          "indexed": false,
          "name": "challengeID",
          "type": "uint256"
        }
      ],
      "name": "ChallengeIDSet",
      "type": "event"
    },
    {
      "anonymous": false,
      "inputs": [
        {
          "indexed": false,
          "name": "listing",
          "type": "address"
        },
        {
          "indexed": false,
          "name": "numberOfChallenges",
          "type": "uint256"
        }
      ],
      "name": "NumberOfChallengesSet",
      "type": "event"
    },
    {
      "anonymous": false,
      "inputs": [
        {
          "indexed": true,
          "name": "key",
          "type": "address"
        }
      ],
      "name": "AddressCacheInvalidated",
      "type": "event"
    },
    {
      "anonymous": false,
      "inputs": [
        {
          "indexed": true,
          "name": "key",
          "type": "bytes32"
        }
      ],
      "name": "Bytes32CacheInvalidated",
      "type": "event"
    },
    {
      "anonymous": false,
      "inputs": [
        {
          "indexed": true,
          "name": "key",
          "type": "uint256"
        }
      ],
      "name": "Uint256CacheInvalidated",
      "type": "event"
    },
    {
      "constant": false,
      "inputs": [],
      "name": "blacklist",
      "outputs": [],
      "payable": false,
      "stateMutability": "nonpayable",
      "type": "function"
    },
    {
      "constant": false,
      "inputs": [
        {
          "name": "_stake",
          "type": "uint256"
        }
      ],
      "name": "setStake",
      "outputs": [],
      "payable": false,
      "stateMutability": "nonpayable",
      "type": "function"
    },
    {
      "constant": false,
      "inputs": [
        {
          "name": "_challengesStake",
          "type": "uint256"
        }
      ],
      "name": "setChallengesStake",
      "outputs": [],
      "payable": false,
      "stateMutability": "nonpayable",
      "type": "function"
    },
    {
      "constant": false,
      "inputs": [
        {
          "name": "_challenge",
          "type": "address"
        }
      ],
      "name": "setChallenge",
      "outputs": [],
      "payable": false,
      "stateMutability": "nonpayable",
      "type": "function"
    },
    {
      "constant": false,
      "inputs": [
        {
          "name": "_numberOfChallenges",
          "type": "uint256"
        }
      ],
      "name": "setNumberOfChallenges",
      "outputs": [],
      "payable": false,
      "stateMutability": "nonpayable",
      "type": "function"
    },
    {
      "constant": false,
      "inputs": [
        {
          "name": "_whitelisted",
          "type": "bool"
        }
      ],
      "name": "setWhitelisted",
      "outputs": [],
      "payable": false,
      "stateMutability": "nonpayable",
      "type": "function"
    },
    {
      "constant": false,
      "inputs": [
        {
          "name": "_price",
          "type": "uint256"
        }
      ],
      "name": "setPrice",
      "outputs": [],
      "payable": false,
      "stateMutability": "nonpayable",
      "type": "function"
    },
    {
      "constant": false,
      "inputs": [
        {
          "name": "ipfsHash",
          "type": "string"
        }
      ],
      "name": "updateMetaData",
      "outputs": [],
      "payable": false,
      "stateMutability": "nonpayable",
      "type": "function"
    },
    {
      "constant": false,
      "inputs": [
        {
          "name": "_cachedAddress",
          "type": "address"
        },
        {
          "name": "",
          "type": "bytes32"
        },
        {
          "name": "",
          "type": "uint256"
        }
      ],
      "name": "invalidateCache",
      "outputs": [],
      "payable": false,
      "stateMutability": "nonpayable",
      "type": "function"
    },
    {
      "constant": true,
      "inputs": [],
      "name": "getIndexLength",
      "outputs": [
        {
          "name": "length",
          "type": "uint256"
        }
      ],
      "payable": false,
      "stateMutability": "view",
      "type": "function"
    },
    {
      "constant": true,
      "inputs": [
        {
          "name": "index",
          "type": "uint256"
        }
      ],
      "name": "getByIndex",
      "outputs": [
        {
          "name": "key",
          "type": "address"
        },
        {
          "name": "contractAddress",
          "type": "address"
        }
      ],
      "payable": false,
      "stateMutability": "view",
      "type": "function"
    },
    {
      "constant": true,
      "inputs": [
        {
          "name": "_key",
          "type": "address"
        }
      ],
      "name": "getByKey",
      "outputs": [
        {
          "name": "key",
          "type": "address"
        },
        {
          "name": "contractAddress",
          "type": "address"
        }
      ],
      "payable": false,
      "stateMutability": "view",
      "type": "function"
    }
  ],
  "bytecode": "0x606060405260006003819055600481905560058190556006556007805460ff19166001179055341561003057600080fd5b604051608080610bb78339810160405280805191906020018051919060200180519190602001805160008054600160a060020a03928316600160a060020a03199182161790915560018054308416921691909117905560078054969091166101000261010060a860020a0319909616959095179094555060039190915560045550610af7806100c06000396000f3006060604052600436106101195763ffffffff60e060020a60003504166308b43a19811461011e57806319afe463146101595780632d883a731461017e57806335d9db53146101b8578063392f37e9146101d05780633a4b66f11461025a5780633d188fab1461026d5780633d9287fa1461029257806345d61ded146102b957806349877038146102cc5780635cc07505146102eb578063605cba821461033c5780636de149f51461034f5780637b789204146103655780637daa30df1461037d5780638da5cb5b1461039c57806391b7f5ed146103af578063a035b1fe146103c5578063a2de8368146103d8578063a4b5fa56146103ee578063ae11087514610401578063e1ba7d0114610414578063fff139cf14610427575b600080fd5b341561012957600080fd5b61013d600160a060020a036004351661043a565b604051600160a060020a03909116815260200160405180910390f35b341561016457600080fd5b61016c610455565b60405190815260200160405180910390f35b341561018957600080fd5b610194600435610479565b604051600160a060020a039283168152911660208201526040908101905180910390f35b34156101c357600080fd5b6101ce6004356104b1565b005b34156101db57600080fd5b6101e36104fd565b60405160208082528190810183818151815260200191508051906020019080838360005b8381101561021f578082015183820152602001610207565b50505050905090810190601f16801561024c5780820380516001836020036101000a031916815260200191505b509250505060405180910390f35b341561026557600080fd5b61016c61059b565b341561027857600080fd5b6101ce600160a060020a03600435166024356044356105a1565b341561029d57600080fd5b6102a56105dc565b604051901515815260200160405180910390f35b34156102c457600080fd5b61013d6105e5565b34156102d757600080fd5b610194600160a060020a03600435166105f4565b34156102f657600080fd5b6101ce60046024813581810190830135806020601f8201819004810201604051908101604052818152929190602084018383808284375094965061061495505050505050565b341561034757600080fd5b61016c610628565b341561035a57600080fd5b6101ce60043561062e565b341561037057600080fd5b6101ce600435151561067a565b341561038857600080fd5b6101ce600160a060020a03600435166106d1565b34156103a757600080fd5b61013d610794565b34156103ba57600080fd5b6101ce6004356107a8565b34156103d057600080fd5b61016c6107f4565b34156103e357600080fd5b6101ce6004356107fa565b34156103f957600080fd5b6101ce610846565b341561040c57600080fd5b61016c6108c6565b341561041f57600080fd5b61016c6108cc565b341561043257600080fd5b61016c6108d2565b600860205260009081526040902054600160a060020a031681565b7f424c41434b4c4953545f524f4c4500000000000000000000000000000000000081565b6000806104a860098481548110151561048e57fe5b600091825260209091200154600160a060020a03166105f4565b91509150915091565b60048190557f91ea5c7d3e6075f2586305ea460cca898d81cf65d0222fe1164ada2afbc4d4d13082604051600160a060020a03909216825260208201526040908101905180910390a150565b60028054600181600116156101000203166002900480601f0160208091040260200160405190810160405280929190818152602001828054600181600116156101000203166002900480156105935780601f1061056857610100808354040283529160200191610593565b820191906000526020600020905b81548152906001019060200180831161057657829003601f168201915b505050505081565b60045481565b82600160a060020a03167f2130e02bc65616aa7f8f548960f51a08a1d0ea94efb33611412208c2d0306a2260405160405180910390a2505050565b60075460ff1681565b600054600160a060020a031681565b600160a060020a0390811660009081526008602052604090205416908190565b61061d816108f6565b61062561090d565b50565b60055481565b60058190557f20676180e1da70fdf5891a3c30f993ab862a69f30e0b86c6f978bbbdefe4f2bb3082604051600160a060020a03909216825260208201526040908101905180910390a150565b6007805460ff19168215151790557f707f3c5101172c4122bef76a7247663a6c9347fd005fc5eff73c858572d9f5893082604051600160a060020a039092168252151560208201526040908101905180910390a150565b600160a060020a0381166000818152600860205260409020805473ffffffffffffffffffffffffffffffffffffffff1916909117905560098054600181016107198382610a0c565b506000918252602090912001805473ffffffffffffffffffffffffffffffffffffffff1916600160a060020a0383161790557f32e6420d727cfc811cbd43af979ef56b54a00860bb3358735eee2eb8eef8cb683082604051600160a060020a039283168152911660208201526040908101905180910390a150565b6007546101009004600160a060020a031681565b60038190557ff9a09e2869a1f88523f00504328d7965866201bafe501573db2e114e3375a0863082604051600160a060020a03909216825260208201526040908101905180910390a150565b60035481565b60068190557f79a6cc998c9294fe1b2f03a63599378a8c641800e387a89b604bd01209b4e4933082604051600160a060020a03909216825260208201526040908101905180910390a150565b7f424c41434b4c4953545f524f4c450000000000000000000000000000000000006108713382610976565b151561087c57600080fd5b6007805460ff191690557fffa4e6181777692565cf28528fc88fd1516ea86b56da075235fa575af6a4b85530604051600160a060020a03909116815260200160405180910390a150565b60065481565b60095490565b7f5550444154455f4d455441444154415f524f4c4500000000000000000000000081565b6002818051610909929160200190610a30565b5050565b600154600160a060020a0316633d188fab30600060405160e060020a63ffffffff8516028152600160a060020a0390921660048301526044820152606401600060405180830381600087803b151561096457600080fd5b5af1151561097157600080fd5b505050565b60008054600160a060020a03161580610a055750600054600160a060020a0316636d6712d884308560405160e060020a63ffffffff8616028152600160a060020a0393841660048201529190921660248201526044810191909152606401602060405180830381600087803b15156109ed57600080fd5b5af115156109fa57600080fd5b505050604051805190505b9392505050565b81548183558181151161097157600083815260209020610971918101908301610aae565b828054600181600116156101000203166002900490600052602060002090601f016020900481019282601f10610a7157805160ff1916838001178555610a9e565b82800160010185558215610a9e579182015b82811115610a9e578251825591602001919060010190610a83565b50610aaa929150610aae565b5090565b610ac891905b80821115610aaa5760008155600101610ab4565b905600a165627a7a723058209ed68aa509cb1f7cf90e923e135af7f1ecfbef608c2a2af95a0d3a0876e332a80029",
  "source": "pragma solidity ^0.4.20;\n\nimport \"../../tokensystem/interfaces/IToken.sol\";\nimport \"../../../authentication/Secured.sol\";\nimport \"../../../utility/caching/Cacher.sol\";\nimport \"../../../utility/caching/CachedByAddress.sol\";\nimport \"../../../utility/metadata/MetaDataContainer.sol\";\nimport \"../../../utility/syncing/Syncable.sol\";\nimport \"../Challenge.sol\";\n\n\ncontract IListing is Secured, Cacher, CachedByAddress, Syncable, MetaDataContainer {\n\n  bytes32 constant public BLACKLIST_ROLE = \"BLACKLIST_ROLE\";\n\n  event Blacklisted(address listing);\n  event StakeSet(address listing, uint stake);\n  event ChallengesStakeSet(address listing, uint stake);\n  event ChallengeSet(address listing, address challenge);\n  event WhitelistedSet(address listing, bool whitelisted);\n  event PriceSet(address listing, uint price);\n  event ChallengeIDSet(address listing, uint challengeID);\n  event NumberOfChallengesSet(address listing, uint numberOfChallenges);\n\n  uint public price = 0;\n  uint public stake = 0;\n  uint public challengesStake = 0; // Total stake locked up in challenges on this listing\n  uint public numberOfChallenges = 0; // Total number of unresolved challenges\n\n  bool public whitelisted = true; // Should the data appear on the listing or not\n  address public owner;\n\n  // Keep track of challenges on listing\n  mapping(address => Challenge) public challenges;\n  address[] challengesIndex; // Array of challenge ids\n\n  /**\n  @dev Contructor\n  @notice                Sets the address for token\n  @param _owner          Address of the owner\n  @param _price          Price for the listing\n  @param _stakeAmount    Amount staked for the listing\n  @param _gateKeeper     Address of the gatekeeper\n  */\n  function IListing(\n    address _owner,\n    uint _price,\n    uint _stakeAmount,\n    address _gateKeeper\n  )\n    Secured(_gateKeeper)\n    CachedByAddress(this)\n    public\n  {\n    owner = _owner;\n    price = _price;\n    stake = _stakeAmount;\n  }\n\n   /**\n  @notice         Sets whitelisted to false: the listing should not appear anymore\n  */\n  function blacklist() auth(BLACKLIST_ROLE) public {\n    whitelisted = false;\n    Blacklisted(this);\n  }\n\n  /**\n  @notice         Sets the stake\n  @param _stake   Stake\n  */\n  function setStake(uint _stake) public {\n    stake = _stake;\n    StakeSet(this, _stake);\n  }\n\n  /**\n  @notice                   Sets the amount staked for all challenged\n  @param _challengesStake   Amount staked for all challenges\n  */\n  function setChallengesStake(uint _challengesStake) public {\n    challengesStake = _challengesStake;\n    ChallengesStakeSet(this, _challengesStake);\n  }\n\n  /**\n  @notice             Sets the muber of challenges\n  @param _challenge   Address of the challenge to add\n  */\n  function setChallenge(address _challenge) public {\n    challenges[address(_challenge)] = Challenge(address(_challenge));\n    challengesIndex.push(address(_challenge));\n    ChallengeSet(this, _challenge);\n  }\n\n  function setNumberOfChallenges(uint _numberOfChallenges) public {\n    numberOfChallenges = _numberOfChallenges;\n    NumberOfChallengesSet(this, _numberOfChallenges);\n  }\n\n  /**\n  @notice               Sets whether or not the listing is whitelisted\n  @param _whitelisted   Whitelisted\n  */\n  function setWhitelisted(bool _whitelisted) public {\n    whitelisted = _whitelisted;\n    WhitelistedSet(this, _whitelisted);\n  }\n\n  /**\n  @notice         Sets the price\n  @param _price   Price\n  */\n  function setPrice(uint _price) public {\n    price = _price;\n    PriceSet(this, _price);\n  }\n\n  /**\n  * implementation of metadata methods\n  */\n  function updateMetaData(string ipfsHash) public {\n    super.updateMetaData(ipfsHash);\n    super.invalidateCache();\n  }\n\n  /**\n  * implementation of cacher methods\n  */\n  function invalidateCache(address _cachedAddress, bytes32 /*_cachedBytes32*/, uint256 /*_cachedUint256*/) public {\n    AddressCacheInvalidated(_cachedAddress);\n  }\n\n  /**\n  * implementation of syncable methods\n  */\n  function getIndexLength() public view returns (uint length) {\n    length = challengesIndex.length;\n  }\n\n  function getByIndex(uint index) public view returns (address key, address contractAddress) {\n    return getByKey(challengesIndex[index]);\n  }\n\n  function getByKey(address _key) public view returns (address key, address contractAddress) {\n    key = address(challenges[_key]);\n    contractAddress = address(challenges[_key]);\n  }\n}\n",
  "sourcePath": "@settlemint/solidity-mint/contracts/marketplaces/tokencuratedregistry/interfaces/IListing.sol",
  "compiler": {
    "name": "solc",
    "version": "0.4.21+commit.dfe3193c.Emscripten.clang"
  },
  "schemaVersion": "2.0.0",
  "updatedAt": "2018-04-11T13:50:24.569Z"
}