{
  "contractName": "IListing",
  "abi": [
    {
      "constant": true,
      "inputs": [],
      "name": "BLACKLIST_ROLE",
      "outputs": [
        {
          "name": "",
          "type": "bytes32"
        }
      ],
      "payable": false,
      "stateMutability": "view",
      "type": "function"
    },
    {
      "constant": true,
      "inputs": [],
      "name": "metadata",
      "outputs": [
        {
          "name": "",
          "type": "string"
        }
      ],
      "payable": false,
      "stateMutability": "view",
      "type": "function"
    },
    {
      "constant": true,
      "inputs": [],
      "name": "stake",
      "outputs": [
        {
          "name": "",
          "type": "uint256"
        }
      ],
      "payable": false,
      "stateMutability": "view",
      "type": "function"
    },
    {
      "constant": true,
      "inputs": [],
      "name": "whitelisted",
      "outputs": [
        {
          "name": "",
          "type": "bool"
        }
      ],
      "payable": false,
      "stateMutability": "view",
      "type": "function"
    },
    {
      "constant": true,
      "inputs": [],
      "name": "gateKeeper",
      "outputs": [
        {
          "name": "",
          "type": "address"
        }
      ],
      "payable": false,
      "stateMutability": "view",
      "type": "function"
    },
    {
      "constant": true,
      "inputs": [],
      "name": "challengesStake",
      "outputs": [
        {
          "name": "",
          "type": "uint256"
        }
      ],
      "payable": false,
      "stateMutability": "view",
      "type": "function"
    },
    {
      "constant": true,
      "inputs": [],
      "name": "owner",
      "outputs": [
        {
          "name": "",
          "type": "address"
        }
      ],
      "payable": false,
      "stateMutability": "view",
      "type": "function"
    },
    {
      "constant": true,
      "inputs": [
        {
          "name": "",
          "type": "uint256"
        }
      ],
      "name": "challenges",
      "outputs": [
        {
          "name": "",
          "type": "address"
        }
      ],
      "payable": false,
      "stateMutability": "view",
      "type": "function"
    },
    {
      "constant": true,
      "inputs": [],
      "name": "price",
      "outputs": [
        {
          "name": "",
          "type": "uint256"
        }
      ],
      "payable": false,
      "stateMutability": "view",
      "type": "function"
    },
    {
      "constant": true,
      "inputs": [],
      "name": "numberOfChallenges",
      "outputs": [
        {
          "name": "",
          "type": "uint256"
        }
      ],
      "payable": false,
      "stateMutability": "view",
      "type": "function"
    },
    {
      "constant": true,
      "inputs": [],
      "name": "UPDATE_METADATA_ROLE",
      "outputs": [
        {
          "name": "",
          "type": "bytes32"
        }
      ],
      "payable": false,
      "stateMutability": "view",
      "type": "function"
    },
    {
      "inputs": [
        {
          "name": "_owner",
          "type": "address"
        },
        {
          "name": "_price",
          "type": "uint256"
        },
        {
          "name": "_stakeAmount",
          "type": "uint256"
        },
        {
          "name": "_gateKeeper",
          "type": "address"
        }
      ],
      "payable": false,
      "stateMutability": "nonpayable",
      "type": "constructor"
    },
    {
      "anonymous": false,
      "inputs": [
        {
          "indexed": false,
          "name": "listing",
          "type": "address"
        }
      ],
      "name": "Blacklisted",
      "type": "event"
    },
    {
      "anonymous": false,
      "inputs": [
        {
          "indexed": false,
          "name": "listing",
          "type": "address"
        },
        {
          "indexed": false,
          "name": "stake",
          "type": "uint256"
        }
      ],
      "name": "StakeSet",
      "type": "event"
    },
    {
      "anonymous": false,
      "inputs": [
        {
          "indexed": false,
          "name": "listing",
          "type": "address"
        },
        {
          "indexed": false,
          "name": "stake",
          "type": "uint256"
        }
      ],
      "name": "ChallengesStakeSet",
      "type": "event"
    },
    {
      "anonymous": false,
      "inputs": [
        {
          "indexed": false,
          "name": "listing",
          "type": "address"
        },
        {
          "indexed": false,
          "name": "challenge",
          "type": "address"
        }
      ],
      "name": "ChallengeSet",
      "type": "event"
    },
    {
      "anonymous": false,
      "inputs": [
        {
          "indexed": false,
          "name": "listing",
          "type": "address"
        },
        {
          "indexed": false,
          "name": "whitelisted",
          "type": "bool"
        }
      ],
      "name": "WhitelistedSet",
      "type": "event"
    },
    {
      "anonymous": false,
      "inputs": [
        {
          "indexed": false,
          "name": "listing",
          "type": "address"
        },
        {
          "indexed": false,
          "name": "price",
          "type": "uint256"
        }
      ],
      "name": "PriceSet",
      "type": "event"
    },
    {
      "anonymous": false,
      "inputs": [
        {
          "indexed": false,
          "name": "listing",
          "type": "address"
        },
        {
          "indexed": false,
          "name": "challengeID",
          "type": "uint256"
        }
      ],
      "name": "ChallengeIDSet",
      "type": "event"
    },
    {
      "anonymous": false,
      "inputs": [
        {
          "indexed": false,
          "name": "listing",
          "type": "address"
        },
        {
          "indexed": false,
          "name": "numberOfChallenges",
          "type": "uint256"
        }
      ],
      "name": "NumberOfChallengesSet",
      "type": "event"
    },
    {
      "anonymous": false,
      "inputs": [
        {
          "indexed": true,
          "name": "key",
          "type": "address"
        }
      ],
      "name": "AddressCacheInvalidated",
      "type": "event"
    },
    {
      "anonymous": false,
      "inputs": [
        {
          "indexed": true,
          "name": "key",
          "type": "bytes32"
        }
      ],
      "name": "Bytes32CacheInvalidated",
      "type": "event"
    },
    {
      "anonymous": false,
      "inputs": [
        {
          "indexed": true,
          "name": "key",
          "type": "uint256"
        }
      ],
      "name": "Uint256CacheInvalidated",
      "type": "event"
    },
    {
      "constant": false,
      "inputs": [],
      "name": "blacklist",
      "outputs": [],
      "payable": false,
      "stateMutability": "nonpayable",
      "type": "function"
    },
    {
      "constant": false,
      "inputs": [
        {
          "name": "_stake",
          "type": "uint256"
        }
      ],
      "name": "setStake",
      "outputs": [],
      "payable": false,
      "stateMutability": "nonpayable",
      "type": "function"
    },
    {
      "constant": false,
      "inputs": [
        {
          "name": "_challengesStake",
          "type": "uint256"
        }
      ],
      "name": "setChallengesStake",
      "outputs": [],
      "payable": false,
      "stateMutability": "nonpayable",
      "type": "function"
    },
    {
      "constant": false,
      "inputs": [
        {
          "name": "_numberOfChallenges",
          "type": "uint256"
        }
      ],
      "name": "setNumberOfChallenges",
      "outputs": [],
      "payable": false,
      "stateMutability": "nonpayable",
      "type": "function"
    },
    {
      "constant": false,
      "inputs": [
        {
          "name": "_whitelisted",
          "type": "bool"
        }
      ],
      "name": "setWhitelisted",
      "outputs": [],
      "payable": false,
      "stateMutability": "nonpayable",
      "type": "function"
    },
    {
      "constant": false,
      "inputs": [
        {
          "name": "_price",
          "type": "uint256"
        }
      ],
      "name": "setPrice",
      "outputs": [],
      "payable": false,
      "stateMutability": "nonpayable",
      "type": "function"
    },
    {
      "constant": false,
      "inputs": [
        {
          "name": "_challenge",
          "type": "address"
        }
      ],
      "name": "setChallenge",
      "outputs": [],
      "payable": false,
      "stateMutability": "nonpayable",
      "type": "function"
    },
    {
      "constant": true,
      "inputs": [],
      "name": "getChallengesLength",
      "outputs": [
        {
          "name": "length",
          "type": "uint256"
        }
      ],
      "payable": false,
      "stateMutability": "view",
      "type": "function"
    },
    {
      "constant": true,
      "inputs": [
        {
          "name": "_index",
          "type": "uint256"
        }
      ],
      "name": "getChallengeAtIndex",
      "outputs": [
        {
          "name": "challenge",
          "type": "address"
        }
      ],
      "payable": false,
      "stateMutability": "view",
      "type": "function"
    },
    {
      "constant": false,
      "inputs": [
        {
          "name": "ipfsHash",
          "type": "string"
        }
      ],
      "name": "updateMetaData",
      "outputs": [],
      "payable": false,
      "stateMutability": "nonpayable",
      "type": "function"
    },
    {
      "constant": false,
      "inputs": [
        {
          "name": "_cachedAddress",
          "type": "address"
        },
        {
          "name": "",
          "type": "bytes32"
        },
        {
          "name": "",
          "type": "uint256"
        }
      ],
      "name": "invalidateCache",
      "outputs": [],
      "payable": false,
      "stateMutability": "nonpayable",
      "type": "function"
    }
  ],
  "bytecode": "0x608060405260006003819055600481905560058190556006556008805460ff1916600117905534801561003157600080fd5b50604051608080610b75833981016040908152815160208301519183015160609093015160008054600160a060020a03928316600160a060020a031991821617909155600180549091163017905560088054919092166101000261010060a860020a0319909116179055600355600455610ac5806100b06000396000f3006080604052600436106101275763ffffffff7c010000000000000000000000000000000000000000000000000000000060003504166319afe463811461012c57806335d9db5314610153578063392f37e91461016d5780633a4b66f1146101f75780633d188fab1461020c5780633d9287fa1461023357806345d61ded1461025c5780635cc075051461028d578063605cba82146102e65780636de149f5146102fb5780637b789204146103135780637daa30df1461032d5780638da5cb5b1461034e5780638f1d37761461036357806391b7f5ed1461037b578063a035b1fe14610393578063a2de8368146103a8578063a4b5fa56146103c0578063ae110875146103d5578063b263b26e146103ea578063cfd6d73214610402578063fff139cf14610417575b600080fd5b34801561013857600080fd5b5061014161042c565b60408051918252519081900360200190f35b34801561015f57600080fd5b5061016b600435610450565b005b34801561017957600080fd5b50610182610493565b6040805160208082528351818301528351919283929083019185019080838360005b838110156101bc5781810151838201526020016101a4565b50505050905090810190601f1680156101e95780820380516001836020036101000a031916815260200191505b509250505060405180910390f35b34801561020357600080fd5b5061014161051e565b34801561021857600080fd5b5061016b600160a060020a0360043516602435604435610524565b34801561023f57600080fd5b5061024861055d565b604080519115158252519081900360200190f35b34801561026857600080fd5b50610271610566565b60408051600160a060020a039092168252519081900360200190f35b34801561029957600080fd5b506040805160206004803580820135601f810184900484028501840190955284845261016b9436949293602493928401919081908401838280828437509497506105759650505050505050565b3480156102f257600080fd5b50610141610589565b34801561030757600080fd5b5061016b60043561058f565b34801561031f57600080fd5b5061016b60043515156105d2565b34801561033957600080fd5b5061016b600160a060020a0360043516610621565b34801561035a57600080fd5b50610271610680565b34801561036f57600080fd5b50610271600435610694565b34801561038757600080fd5b5061016b6004356106bc565b34801561039f57600080fd5b506101416106ff565b3480156103b457600080fd5b5061016b600435610705565b3480156103cc57600080fd5b5061016b610748565b3480156103e157600080fd5b50610141610846565b3480156103f657600080fd5b5061027160043561084c565b34801561040e57600080fd5b50610141610878565b34801561042357600080fd5b5061014161087e565b7f424c41434b4c4953545f524f4c4500000000000000000000000000000000000081565b6004819055604080513081526020810183905281517f91ea5c7d3e6075f2586305ea460cca898d81cf65d0222fe1164ada2afbc4d4d1929181900390910190a150565b6002805460408051602060018416156101000260001901909316849004601f810184900484028201840190925281815292918301828280156105165780601f106104eb57610100808354040283529160200191610516565b820191906000526020600020905b8154815290600101906020018083116104f957829003601f168201915b505050505081565b60045481565b604051600160a060020a038416907f2130e02bc65616aa7f8f548960f51a08a1d0ea94efb33611412208c2d0306a2290600090a2505050565b60085460ff1681565b600054600160a060020a031681565b61057e816108a2565b6105866108b9565b50565b60055481565b6005819055604080513081526020810183905281517f20676180e1da70fdf5891a3c30f993ab862a69f30e0b86c6f978bbbdefe4f2bb929181900390910190a150565b6008805460ff191682151590811790915560408051308152602081019290925280517f707f3c5101172c4122bef76a7247663a6c9347fd005fc5eff73c858572d9f5899281900390910190a150565b600780546001810182556000919091527fa66cc928b5edb82af9bd49922954155ab7b0942694bea4ce44661d9a8736c68801805473ffffffffffffffffffffffffffffffffffffffff1916600160a060020a0392909216919091179055565b6008546101009004600160a060020a031681565b60078054829081106106a257fe5b600091825260209091200154600160a060020a0316905081565b6003819055604080513081526020810183905281517ff9a09e2869a1f88523f00504328d7965866201bafe501573db2e114e3375a086929181900390910190a150565b60035481565b6006819055604080513081526020810183905281517f79a6cc998c9294fe1b2f03a63599378a8c641800e387a89b604bd01209b4e493929181900390910190a150565b7f424c41434b4c4953545f524f4c45000000000000000000000000000000000000610773338261093e565b151561080657604080517f08c379a000000000000000000000000000000000000000000000000000000000815260206004820152602160248201527f596f7520646f206e6f7420686176652074686520636f727265637420726f6c6560448201527f7300000000000000000000000000000000000000000000000000000000000000606482015290519081900360840190fd5b6008805460ff191690556040805130815290517fffa4e6181777692565cf28528fc88fd1516ea86b56da075235fa575af6a4b8559181900360200190a150565b60065481565b600060078281548110151561085d57fe5b600091825260209091200154600160a060020a031692915050565b60075490565b7f5550444154455f4d455441444154415f524f4c4500000000000000000000000081565b80516108b59060029060208401906109fe565b5050565b600154604080517f3d188fab0000000000000000000000000000000000000000000000000000000081523060048201526000604482018190529151600160a060020a0390931692633d188fab9260648084019391929182900301818387803b15801561092457600080fd5b505af1158015610938573d6000803e3d6000fd5b50505050565b60008054600160a060020a031615806109f7575060008054604080517f6d6712d8000000000000000000000000000000000000000000000000000000008152600160a060020a0387811660048301523060248301526044820187905291519190921692636d6712d892606480820193602093909283900390910190829087803b1580156109ca57600080fd5b505af11580156109de573d6000803e3d6000fd5b505050506040513d60208110156109f457600080fd5b50515b9392505050565b828054600181600116156101000203166002900490600052602060002090601f016020900481019282601f10610a3f57805160ff1916838001178555610a6c565b82800160010185558215610a6c579182015b82811115610a6c578251825591602001919060010190610a51565b50610a78929150610a7c565b5090565b610a9691905b80821115610a785760008155600101610a82565b905600a165627a7a72305820c276fbb5c382ea6be62f824d9a46ed74ddceff2c020fb74b5b2380facc05b6ef0029",
  "source": "pragma solidity ^0.4.20;\n\nimport \"../../tokensystem/interfaces/IToken.sol\";\nimport \"../../../authentication/Secured.sol\";\nimport \"../../../utility/caching/Cacher.sol\";\nimport \"../../../utility/caching/CachedByAddress.sol\";\nimport \"../../../utility/metadata/MetaDataContainer.sol\";\nimport \"../Challenge.sol\";\n\n\ncontract IListing is Secured, Cacher, CachedByAddress, MetaDataContainer {\n\n  bytes32 constant public BLACKLIST_ROLE = \"BLACKLIST_ROLE\";\n\n  event Blacklisted(address listing);\n  event StakeSet(address listing, uint stake);\n  event ChallengesStakeSet(address listing, uint stake);\n  event ChallengeSet(address listing, address challenge);\n  event WhitelistedSet(address listing, bool whitelisted);\n  event PriceSet(address listing, uint price);\n  event ChallengeIDSet(address listing, uint challengeID);\n  event NumberOfChallengesSet(address listing, uint numberOfChallenges);\n\n  uint public price = 0;\n  uint public stake = 0;\n  uint public challengesStake = 0; // Total stake locked up in challenges on this listing\n  uint public numberOfChallenges = 0; // Total number of unresolved challenges\n  address[] public challenges; // Array of addresses of the challenges, needed to get them from within the TCR,\n                               // using the getByIndex method on the challengeRegistry\n\n  bool public whitelisted = true; // Should the data appear on the listing or not\n  address public owner;\n\n  /**\n  @dev Contructor\n  @notice                Sets the address for token\n  @param _owner          Address of the owner\n  @param _price          Price for the listing\n  @param _stakeAmount    Amount staked for the listing\n  @param _gateKeeper     Address of the gatekeeper\n  */\n  constructor(\n    address _owner,\n    uint _price,\n    uint _stakeAmount,\n    address _gateKeeper\n  )\n    Secured(_gateKeeper)\n    CachedByAddress(this)\n    public\n  {\n    owner = _owner;\n    price = _price;\n    stake = _stakeAmount;\n  }\n\n   /**\n  @notice         Sets whitelisted to false: the listing should not appear anymore\n  */\n  function blacklist() public auth(BLACKLIST_ROLE) {\n    whitelisted = false;\n    emit Blacklisted(this);\n  }\n\n  /**\n  @notice         Sets the stake\n  @param _stake   Stake\n  */\n  function setStake(uint _stake) public {\n    stake = _stake;\n    emit StakeSet(this, _stake);\n  }\n\n  /**\n  @notice                   Sets the amount staked for all challenged\n  @param _challengesStake   Amount staked for all challenges\n  */\n  function setChallengesStake(uint _challengesStake) public {\n    challengesStake = _challengesStake;\n    emit ChallengesStakeSet(this, _challengesStake);\n  }\n\n  /**\n  @notice                      Sets the muber of challenges\n  @param _numberOfChallenges   Number of challenges added to this listing\n  */\n  function setNumberOfChallenges(uint _numberOfChallenges) public {\n    numberOfChallenges = _numberOfChallenges;\n    emit NumberOfChallengesSet(this, _numberOfChallenges);\n  }\n\n  /**\n  @notice               Sets whether or not the listing is whitelisted\n  @param _whitelisted   Whitelisted\n  */\n  function setWhitelisted(bool _whitelisted) public {\n    whitelisted = _whitelisted;\n    emit WhitelistedSet(this, _whitelisted);\n  }\n\n  /**\n  @notice         Sets the price\n  @param _price   Price\n  */\n  function setPrice(uint _price) public {\n    price = _price;\n    emit PriceSet(this, _price);\n  }\n\n  /**\n  @notice             Adds a challenge to the challenges array\n  @param _challenge   Address of challenge\n  */\n  function setChallenge(address _challenge) public {\n    challenges.push(_challenge);\n  }\n\n  /**\n  @notice        Gets length of the challenges array, with addresses of all challenges to this listing\n  */\n  function getChallengesLength() public view returns (uint length) {\n    length = challenges.length;\n  }\n\n   /**\n  @notice        Gets a challenge in the challenges array at a certain index\n  @param _index  Index of the challenge\n  */\n  function getChallengeAtIndex(uint _index) public view returns (address challenge) {\n    challenge = address(challenges[_index]);\n  }\n\n  /**\n  * implementation of metadata methods\n  */\n  function updateMetaData(string ipfsHash) public {\n    super.updateMetaData(ipfsHash);\n    super.invalidateCache();\n  }\n\n  /**\n  * implementation of cacher methods\n  */\n  function invalidateCache(address _cachedAddress, bytes32 /*_cachedBytes32*/, uint256 /*_cachedUint256*/) public {\n    emit AddressCacheInvalidated(_cachedAddress);\n  }\n}\n",
  "sourcePath": "@settlemint/solidity-mint/contracts/marketplaces/tokencuratedregistry/interfaces/IListing.sol",
  "compiler": {
    "name": "solc",
    "version": "0.4.24+commit.e67f0147.Emscripten.clang"
  },
  "schemaVersion": "2.0.1",
  "updatedAt": "2018-08-01T09:33:41.752Z"
}