{
  "contractName": "LocalDTXToken",
  "abi": [
    {
      "constant": true,
      "inputs": [],
      "name": "name",
      "outputs": [
        {
          "name": "",
          "type": "bytes32"
        }
      ],
      "payable": false,
      "stateMutability": "view",
      "type": "function"
    },
    {
      "constant": false,
      "inputs": [
        {
          "name": "_spender",
          "type": "address"
        },
        {
          "name": "_value",
          "type": "uint256"
        }
      ],
      "name": "approve",
      "outputs": [
        {
          "name": "",
          "type": "bool"
        }
      ],
      "payable": false,
      "stateMutability": "nonpayable",
      "type": "function"
    },
    {
      "constant": true,
      "inputs": [],
      "name": "totalSupply",
      "outputs": [
        {
          "name": "",
          "type": "uint256"
        }
      ],
      "payable": false,
      "stateMutability": "view",
      "type": "function"
    },
    {
      "constant": false,
      "inputs": [
        {
          "name": "_roleRegistryAddress",
          "type": "address"
        },
        {
          "name": "_amount",
          "type": "uint256"
        }
      ],
      "name": "burnFromRoleRegistry",
      "outputs": [
        {
          "name": "success",
          "type": "bool"
        }
      ],
      "payable": false,
      "stateMutability": "nonpayable",
      "type": "function"
    },
    {
      "constant": false,
      "inputs": [
        {
          "name": "_from",
          "type": "address"
        },
        {
          "name": "_to",
          "type": "address"
        },
        {
          "name": "_value",
          "type": "uint256"
        }
      ],
      "name": "transferFrom",
      "outputs": [
        {
          "name": "success",
          "type": "bool"
        }
      ],
      "payable": false,
      "stateMutability": "nonpayable",
      "type": "function"
    },
    {
      "constant": false,
      "inputs": [
        {
          "name": "_to",
          "type": "address"
        },
        {
          "name": "_value",
          "type": "uint256"
        },
        {
          "name": "_data",
          "type": "bytes"
        }
      ],
      "name": "transferWithData",
      "outputs": [
        {
          "name": "success",
          "type": "bool"
        }
      ],
      "payable": false,
      "stateMutability": "nonpayable",
      "type": "function"
    },
    {
      "constant": true,
      "inputs": [],
      "name": "decimals",
      "outputs": [
        {
          "name": "",
          "type": "uint8"
        }
      ],
      "payable": false,
      "stateMutability": "view",
      "type": "function"
    },
    {
      "constant": true,
      "inputs": [],
      "name": "metadata",
      "outputs": [
        {
          "name": "",
          "type": "string"
        }
      ],
      "payable": false,
      "stateMutability": "view",
      "type": "function"
    },
    {
      "constant": false,
      "inputs": [
        {
          "name": "_cachedAddress",
          "type": "address"
        },
        {
          "name": "",
          "type": "bytes32"
        },
        {
          "name": "",
          "type": "uint256"
        }
      ],
      "name": "invalidateCache",
      "outputs": [],
      "payable": false,
      "stateMutability": "nonpayable",
      "type": "function"
    },
    {
      "constant": false,
      "inputs": [
        {
          "name": "_to",
          "type": "address"
        },
        {
          "name": "_amount",
          "type": "uint256"
        }
      ],
      "name": "mint",
      "outputs": [
        {
          "name": "success",
          "type": "bool"
        }
      ],
      "payable": false,
      "stateMutability": "nonpayable",
      "type": "function"
    },
    {
      "constant": true,
      "inputs": [],
      "name": "gateKeeper",
      "outputs": [
        {
          "name": "",
          "type": "address"
        }
      ],
      "payable": false,
      "stateMutability": "view",
      "type": "function"
    },
    {
      "constant": false,
      "inputs": [
        {
          "name": "ipfsHash",
          "type": "string"
        }
      ],
      "name": "updateMetaData",
      "outputs": [],
      "payable": false,
      "stateMutability": "nonpayable",
      "type": "function"
    },
    {
      "constant": false,
      "inputs": [
        {
          "name": "_spender",
          "type": "address"
        },
        {
          "name": "_subtractedValue",
          "type": "uint256"
        }
      ],
      "name": "decreaseApproval",
      "outputs": [
        {
          "name": "success",
          "type": "bool"
        }
      ],
      "payable": false,
      "stateMutability": "nonpayable",
      "type": "function"
    },
    {
      "constant": true,
      "inputs": [
        {
          "name": "_owner",
          "type": "address"
        }
      ],
      "name": "balanceOf",
      "outputs": [
        {
          "name": "balance",
          "type": "uint256"
        }
      ],
      "payable": false,
      "stateMutability": "view",
      "type": "function"
    },
    {
      "constant": false,
      "inputs": [
        {
          "name": "_from",
          "type": "address"
        },
        {
          "name": "_amount",
          "type": "uint256"
        }
      ],
      "name": "burn",
      "outputs": [
        {
          "name": "success",
          "type": "bool"
        }
      ],
      "payable": false,
      "stateMutability": "nonpayable",
      "type": "function"
    },
    {
      "constant": false,
      "inputs": [
        {
          "name": "_to",
          "type": "address"
        },
        {
          "name": "_value",
          "type": "uint256"
        }
      ],
      "name": "transfer",
      "outputs": [
        {
          "name": "success",
          "type": "bool"
        }
      ],
      "payable": false,
      "stateMutability": "nonpayable",
      "type": "function"
    },
    {
      "constant": true,
      "inputs": [],
      "name": "BURN_ROLE",
      "outputs": [
        {
          "name": "",
          "type": "bytes32"
        }
      ],
      "payable": false,
      "stateMutability": "view",
      "type": "function"
    },
    {
      "constant": false,
      "inputs": [
        {
          "name": "_spender",
          "type": "address"
        },
        {
          "name": "_addedValue",
          "type": "uint256"
        }
      ],
      "name": "increaseApproval",
      "outputs": [
        {
          "name": "success",
          "type": "bool"
        }
      ],
      "payable": false,
      "stateMutability": "nonpayable",
      "type": "function"
    },
    {
      "constant": false,
      "inputs": [
        {
          "name": "_roleRegistryAddress",
          "type": "address"
        },
        {
          "name": "_amount",
          "type": "uint256"
        }
      ],
      "name": "mintToRoleRegistry",
      "outputs": [
        {
          "name": "success",
          "type": "bool"
        }
      ],
      "payable": false,
      "stateMutability": "nonpayable",
      "type": "function"
    },
    {
      "constant": true,
      "inputs": [
        {
          "name": "_owner",
          "type": "address"
        },
        {
          "name": "_spender",
          "type": "address"
        }
      ],
      "name": "allowance",
      "outputs": [
        {
          "name": "remaining",
          "type": "uint256"
        }
      ],
      "payable": false,
      "stateMutability": "view",
      "type": "function"
    },
    {
      "constant": true,
      "inputs": [],
      "name": "MINT_ROLE",
      "outputs": [
        {
          "name": "",
          "type": "bytes32"
        }
      ],
      "payable": false,
      "stateMutability": "view",
      "type": "function"
    },
    {
      "constant": false,
      "inputs": [
        {
          "name": "_from",
          "type": "address"
        },
        {
          "name": "_to",
          "type": "address"
        },
        {
          "name": "_value",
          "type": "uint256"
        },
        {
          "name": "_data",
          "type": "bytes"
        }
      ],
      "name": "transferFromWithData",
      "outputs": [
        {
          "name": "success",
          "type": "bool"
        }
      ],
      "payable": false,
      "stateMutability": "nonpayable",
      "type": "function"
    },
    {
      "constant": true,
      "inputs": [],
      "name": "UPDATE_METADATA_ROLE",
      "outputs": [
        {
          "name": "",
          "type": "bytes32"
        }
      ],
      "payable": false,
      "stateMutability": "view",
      "type": "function"
    },
    {
      "inputs": [
        {
          "name": "_name",
          "type": "bytes32"
        },
        {
          "name": "_decimals",
          "type": "uint8"
        },
        {
          "name": "_registry",
          "type": "address"
        },
        {
          "name": "_gateKeeper",
          "type": "address"
        }
      ],
      "payable": false,
      "stateMutability": "nonpayable",
      "type": "constructor"
    },
    {
      "anonymous": false,
      "inputs": [
        {
          "indexed": true,
          "name": "from",
          "type": "address"
        },
        {
          "indexed": true,
          "name": "to",
          "type": "address"
        },
        {
          "indexed": false,
          "name": "value",
          "type": "uint256"
        }
      ],
      "name": "Transfer",
      "type": "event"
    },
    {
      "anonymous": false,
      "inputs": [
        {
          "indexed": true,
          "name": "from",
          "type": "address"
        },
        {
          "indexed": true,
          "name": "to",
          "type": "address"
        },
        {
          "indexed": false,
          "name": "data",
          "type": "bytes"
        }
      ],
      "name": "TransferData",
      "type": "event"
    },
    {
      "anonymous": false,
      "inputs": [
        {
          "indexed": true,
          "name": "to",
          "type": "address"
        },
        {
          "indexed": false,
          "name": "amount",
          "type": "uint256"
        }
      ],
      "name": "Mint",
      "type": "event"
    },
    {
      "anonymous": false,
      "inputs": [
        {
          "indexed": true,
          "name": "from",
          "type": "address"
        },
        {
          "indexed": false,
          "name": "amount",
          "type": "uint256"
        }
      ],
      "name": "Burn",
      "type": "event"
    },
    {
      "anonymous": false,
      "inputs": [
        {
          "indexed": true,
          "name": "owner",
          "type": "address"
        },
        {
          "indexed": true,
          "name": "spender",
          "type": "address"
        },
        {
          "indexed": false,
          "name": "value",
          "type": "uint256"
        }
      ],
      "name": "Approval",
      "type": "event"
    },
    {
      "anonymous": false,
      "inputs": [
        {
          "indexed": true,
          "name": "key",
          "type": "address"
        }
      ],
      "name": "AddressCacheInvalidated",
      "type": "event"
    },
    {
      "anonymous": false,
      "inputs": [
        {
          "indexed": true,
          "name": "key",
          "type": "bytes32"
        }
      ],
      "name": "Bytes32CacheInvalidated",
      "type": "event"
    },
    {
      "anonymous": false,
      "inputs": [
        {
          "indexed": true,
          "name": "key",
          "type": "uint256"
        }
      ],
      "name": "Uint256CacheInvalidated",
      "type": "event"
    },
    {
      "constant": true,
      "inputs": [],
      "name": "getIndexLength",
      "outputs": [
        {
          "name": "length",
          "type": "uint256"
        }
      ],
      "payable": false,
      "stateMutability": "view",
      "type": "function"
    },
    {
      "constant": true,
      "inputs": [
        {
          "name": "index",
          "type": "uint256"
        }
      ],
      "name": "getByIndex",
      "outputs": [
        {
          "name": "key",
          "type": "address"
        },
        {
          "name": "balance",
          "type": "uint256"
        }
      ],
      "payable": false,
      "stateMutability": "view",
      "type": "function"
    },
    {
      "constant": true,
      "inputs": [
        {
          "name": "_key",
          "type": "address"
        }
      ],
      "name": "getByKey",
      "outputs": [
        {
          "name": "key",
          "type": "address"
        },
        {
          "name": "balance",
          "type": "uint256"
        }
      ],
      "payable": false,
      "stateMutability": "view",
      "type": "function"
    }
  ],
  "bytecode": "0x608060405234801561001057600080fd5b50604051608080611d0b833981016040908152815160208301519183015160609093015160008054600160a060020a03928316600160a060020a031991821617909155600180549290951691161790925560028290556004919091556005805460ff90921660ff19909216919091179055611c7b806100906000396000f30060806040526004361061013a5763ffffffff60e060020a60003504166306fdde03811461013f578063095ea7b31461016657806318160ddd1461019e5780631bd42f3e146101b357806323b872dd146101d75780632535f762146102015780632d883a731461026a578063313ce567146102a5578063392f37e9146102d05780633d188fab1461035a57806340c10f191461038357806345d61ded146103a757806349877038146103d85780635cc07505146103f9578063661884631461045257806370a08231146104765780639dc29fac14610497578063a9059cbb146104bb578063b930908f146104df578063d73dd623146104f4578063dcb82f8114610518578063dd62ed3e1461053c578063e1ba7d0114610563578063e9a9c85014610578578063ee532f311461058d578063fff139cf146105fc575b600080fd5b34801561014b57600080fd5b50610154610611565b60408051918252519081900360200190f35b34801561017257600080fd5b5061018a600160a060020a0360043516602435610617565b604080519115158252519081900360200190f35b3480156101aa57600080fd5b5061015461067d565b3480156101bf57600080fd5b5061018a600160a060020a0360043516602435610683565b3480156101e357600080fd5b5061018a600160a060020a0360043581169060243516604435610846565b34801561020d57600080fd5b50604080516020600460443581810135601f810184900484028501840190955284845261018a948235600160a060020a0316946024803595369594606494920191908190840183828082843750949750610b809650505050505050565b34801561027657600080fd5b50610282600435610c99565b60408051600160a060020a03909316835260208301919091528051918290030190f35b3480156102b157600080fd5b506102ba610d02565b6040805160ff9092168252519081900360200190f35b3480156102dc57600080fd5b506102e5610d0b565b6040805160208082528351818301528351919283929083019185019080838360005b8381101561031f578181015183820152602001610307565b50505050905090810190601f16801561034c5780820380516001836020036101000a031916815260200191505b509250505060405180910390f35b34801561036657600080fd5b50610381600160a060020a0360043516602435604435610d99565b005b34801561038f57600080fd5b5061018a600160a060020a0360043516602435610dda565b3480156103b357600080fd5b506103bc610fb2565b60408051600160a060020a039092168252519081900360200190f35b3480156103e457600080fd5b50610282600160a060020a0360043516610fc1565b34801561040557600080fd5b506040805160206004803580820135601f8101849004840285018401909552848452610381943694929360249392840191908190840183828082843750949750610fde9650505050505050565b34801561045e57600080fd5b5061018a600160a060020a036004351660243561106f565b34801561048257600080fd5b50610154600160a060020a036004351661115f565b3480156104a357600080fd5b5061018a600160a060020a036004351660243561117a565b3480156104c757600080fd5b5061018a600160a060020a03600435166024356113b8565b3480156104eb57600080fd5b506101546115eb565b34801561050057600080fd5b5061018a600160a060020a036004351660243561160f565b34801561052457600080fd5b5061018a600160a060020a03600435166024356116a8565b34801561054857600080fd5b50610154600160a060020a036004358116906024351661185c565b34801561056f57600080fd5b50610154611887565b34801561058457600080fd5b5061015461188d565b34801561059957600080fd5b50604080516020601f60643560048181013592830184900484028501840190955281845261018a94600160a060020a0381358116956024803590921695604435953695608494019181908401838280828437509497506118b19650505050505050565b34801561060857600080fd5b506101546119cc565b60045481565b336000818152600860209081526040808320600160a060020a038716808552908352818420869055815186815291519394909390927f8c5be1e5ebec7d5bd14f71427d1e84f3dd0314c0f7b2291e5b200ac8c7c3b925928290030190a350600192915050565b60095481565b6000806000806000807f4255524e5f524f4c4500000000000000000000000000000000000000000000006106b733826119f0565b1515610708576040805160e560020a62461bcd0281526020600482015260216024820152600080516020611c10833981519152604482015260f860020a607302606482015290519081900360840190fd5b88955085600160a060020a031663e1ba7d016040518163ffffffff1660e060020a028152600401602060405180830381600087803b15801561074957600080fd5b505af115801561075d573d6000803e3d6000fd5b505050506040513d602081101561077357600080fd5b50519450600093505b8484101561083757604080517f2d883a73000000000000000000000000000000000000000000000000000000008152600481018690528151600160a060020a03891692632d883a7392602480820193918290030181600087803b1580156107e257600080fd5b505af11580156107f6573d6000803e3d6000fd5b505050506040513d604081101561080c57600080fd5b5080516020909101519093509150811561082c5761082a838961117a565b505b60019093019261077c565b50600198975050505050505050565b6000600160a060020a03831615156108a8576040805160e560020a62461bcd02815260206004820152601560248201527f746f2073686f756c64206e6f74206265206e756c6c0000000000000000000000604482015290519081900360640190fd5b600160a060020a03841660009081526006602052604090205482111561093e576040805160e560020a62461bcd02815260206004820152602160248201527f76616c75652073686f756c64206265206c657373207468616e2062616c616e6360448201527f6500000000000000000000000000000000000000000000000000000000000000606482015290519081900360840190fd5b600160a060020a03841660009081526008602090815260408083203384529091529020548211156109df576040805160e560020a62461bcd02815260206004820152602360248201527f76616c75652073686f756c64206265206c657373207468616e20616c6c6f776160448201527f6e63650000000000000000000000000000000000000000000000000000000000606482015290519081900360840190fd5b600160a060020a0383166000908152600660205260409020600101541515610a6d57600160a060020a0383166000818152600660205260408120426001918201556007805491820181559091527fa66cc928b5edb82af9bd49922954155ab7b0942694bea4ce44661d9a8736c68801805473ffffffffffffffffffffffffffffffffffffffff191690911790555b600160a060020a038416600090815260066020526040902054610a96908363ffffffff611ab016565b600160a060020a038086166000908152600660205260408082209390935590851681522054610acb908363ffffffff611ac216565b600160a060020a038085166000908152600660209081526040808320949094559187168152600882528281203382529091522054610b0f908363ffffffff611ab016565b600160a060020a0380861660008181526008602090815260408083203384528252918290209490945580518681529051928716939192600080516020611c30833981519152929181900390910190a3610b6a84600080610d99565b610b7683600080610d99565b5060019392505050565b6000610b8c84846113b8565b1515610be2576040805160e560020a62461bcd02815260206004820152600f60248201527f7472616e73666572206661696c65640000000000000000000000000000000000604482015290519081900360640190fd5b83600160a060020a031633600160a060020a03167f69cf42fddae119b7568ebaa1f70aac657fd6abd62d00c2ab4fcf81ff87935ab3846040518080602001828103825283818151815260200191508051906020019080838360005b83811015610c55578181015183820152602001610c3d565b50505050905090810190601f168015610c825780820380516001836020036101000a031916815260200191505b509250505060405180910390a35060019392505050565b600080600783815481101515610cab57fe5b600091825260208220015460078054600160a060020a0390921694506006929186908110610cd557fe5b6000918252602080832090910154600160a060020a03168352820192909252604001902054919391925050565b60055460ff1681565b6003805460408051602060026001851615610100026000190190941693909304601f81018490048402820184019092528181529291830182828015610d915780601f10610d6657610100808354040283529160200191610d91565b820191906000526020600020905b815481529060010190602001808311610d7457829003601f168201915b505050505081565b604051600160a060020a038416907f2130e02bc65616aa7f8f548960f51a08a1d0ea94efb33611412208c2d0306a2290600090a2610dd5611ad5565b505050565b60007f4d494e545f524f4c450000000000000000000000000000000000000000000000610e0733826119f0565b1515610e58576040805160e560020a62461bcd0281526020600482015260216024820152600080516020611c10833981519152604482015260f860020a607302606482015290519081900360840190fd5b600160a060020a0384166000908152600660205260409020600101541515610ee657600160a060020a0384166000818152600660205260408120426001918201556007805491820181559091527fa66cc928b5edb82af9bd49922954155ab7b0942694bea4ce44661d9a8736c68801805473ffffffffffffffffffffffffffffffffffffffff191690911790555b600954610ef9908463ffffffff611ac216565b600955600160a060020a038416600090815260066020526040902054610f25908463ffffffff611ac216565b600160a060020a038516600081815260066020908152604091829020939093558051868152905191927f0f6798a560793a54c3bcfe86a93cde1e73087d944c0ea20544137d412139688592918290030190a2604080518481529051600160a060020a03861691600091600080516020611c308339815191529181900360200190a3610b7684600080610d99565b600054600160a060020a031681565b600160a060020a0381166000908152600660205260409020549091565b7f5550444154455f4d455441444154415f524f4c4500000000000000000000000061100933826119f0565b151561105a576040805160e560020a62461bcd0281526020600482015260216024820152600080516020611c10833981519152604482015260f860020a607302606482015290519081900360840190fd5b61106382611b66565b61106b611ad5565b5050565b336000908152600860209081526040808320600160a060020a0386168452909152812054808311156110c457336000908152600860209081526040808320600160a060020a03881684529091528120556110f9565b6110d4818463ffffffff611ab016565b336000908152600860209081526040808320600160a060020a03891684529091529020555b336000818152600860209081526040808320600160a060020a0389168085529083529281902054815190815290519293927f8c5be1e5ebec7d5bd14f71427d1e84f3dd0314c0f7b2291e5b200ac8c7c3b925929181900390910190a35060019392505050565b600160a060020a031660009081526006602052604090205490565b60007f4255524e5f524f4c4500000000000000000000000000000000000000000000006111a733826119f0565b15156111f8576040805160e560020a62461bcd0281526020600482015260216024820152600080516020611c10833981519152604482015260f860020a607302606482015290519081900360840190fd5b60008311611250576040805160e560020a62461bcd02815260206004820152601e60248201527f616d6f756e742068736f756c6420626520626967676572207468616e20300000604482015290519081900360640190fd5b600160a060020a0384166000908152600660205260409020548311156112e6576040805160e560020a62461bcd02815260206004820152602260248201527f616d6f756e742073686f756c64206265206c657373207468616e2062616c616e60448201527f6365000000000000000000000000000000000000000000000000000000000000606482015290519081900360840190fd5b600160a060020a03841660009081526006602052604090205461130f908463ffffffff611ab016565b600160a060020a03851660009081526006602052604090205560095461133b908463ffffffff611ab016565b600955604080518481529051600160a060020a038616917fcc16f5dbb4873280815c1ee09dbd06736cffcc184412cf7a71a0fdb75d397ca5919081900360200190a2604080518481529051600091600160a060020a03871691600080516020611c308339815191529181900360200190a3610b7684600080610d99565b6000600160a060020a038316151561141a576040805160e560020a62461bcd02815260206004820152601260248201527f746f2073686f756c64206e6f7420626520300000000000000000000000000000604482015290519081900360640190fd5b336000908152600660205260409020548211156114a7576040805160e560020a62461bcd02815260206004820152602160248201527f76616c75652073686f756c64206265206c657373207468616e2062616c616e6360448201527f6500000000000000000000000000000000000000000000000000000000000000606482015290519081900360840190fd5b600160a060020a038316600090815260066020526040902060010154151561153557600160a060020a0383166000818152600660205260408120426001918201556007805491820181559091527fa66cc928b5edb82af9bd49922954155ab7b0942694bea4ce44661d9a8736c68801805473ffffffffffffffffffffffffffffffffffffffff191690911790555b33600090815260066020526040902054611555908363ffffffff611ab016565b3360009081526006602052604080822092909255600160a060020a03851681522054611587908363ffffffff611ac216565b600160a060020a038416600081815260066020908152604091829020939093558051858152905191923392600080516020611c308339815191529281900390910190a36115d633600080610d99565b6115e283600080610d99565b50600192915050565b7f4255524e5f524f4c45000000000000000000000000000000000000000000000081565b336000908152600860209081526040808320600160a060020a0386168452909152812054611643908363ffffffff611ac216565b336000818152600860209081526040808320600160a060020a0389168085529083529281902085905580519485525191937f8c5be1e5ebec7d5bd14f71427d1e84f3dd0314c0f7b2291e5b200ac8c7c3b925929081900390910190a350600192915050565b6000806000806000807f4d494e545f524f4c4500000000000000000000000000000000000000000000006116dc33826119f0565b151561172d576040805160e560020a62461bcd0281526020600482015260216024820152600080516020611c10833981519152604482015260f860020a607302606482015290519081900360840190fd5b88955085600160a060020a031663e1ba7d016040518163ffffffff1660e060020a028152600401602060405180830381600087803b15801561176e57600080fd5b505af1158015611782573d6000803e3d6000fd5b505050506040513d602081101561179857600080fd5b50519450600093505b8484101561083757604080517f2d883a73000000000000000000000000000000000000000000000000000000008152600481018690528151600160a060020a03891692632d883a7392602480820193918290030181600087803b15801561180757600080fd5b505af115801561181b573d6000803e3d6000fd5b505050506040513d604081101561183157600080fd5b508051602090910151909350915081156118515761184f8389610dda565b505b6001909301926117a1565b600160a060020a03918216600090815260086020908152604080832093909416825291909152205490565b60075490565b7f4d494e545f524f4c45000000000000000000000000000000000000000000000081565b60006118be858585610846565b1515611914576040805160e560020a62461bcd02815260206004820152600f60248201527f7472616e73666572206661696c65640000000000000000000000000000000000604482015290519081900360640190fd5b83600160a060020a031685600160a060020a03167f69cf42fddae119b7568ebaa1f70aac657fd6abd62d00c2ab4fcf81ff87935ab3846040518080602001828103825283818151815260200191508051906020019080838360005b8381101561198757818101518382015260200161196f565b50505050905090810190601f1680156119b45780820380516001836020036101000a031916815260200191505b509250505060405180910390a3506001949350505050565b7f5550444154455f4d455441444154415f524f4c4500000000000000000000000081565b60008054600160a060020a03161580611aa9575060008054604080517f6d6712d8000000000000000000000000000000000000000000000000000000008152600160a060020a0387811660048301523060248301526044820187905291519190921692636d6712d892606480820193602093909283900390910190829087803b158015611a7c57600080fd5b505af1158015611a90573d6000803e3d6000fd5b505050506040513d6020811015611aa657600080fd5b50515b9392505050565b600082821115611abc57fe5b50900390565b81810182811015611acf57fe5b92915050565b600154600254604080517f3d188fab0000000000000000000000000000000000000000000000000000000081526000600482018190526024820193909352604481018390529051600160a060020a0390931692633d188fab9260648084019391929182900301818387803b158015611b4c57600080fd5b505af1158015611b60573d6000803e3d6000fd5b50505050565b805161106b906003906020840190828054600181600116156101000203166002900490600052602060002090601f016020900481019282601f10611bb557805160ff1916838001178555611be2565b82800160010185558215611be2579182015b82811115611be2578251825591602001919060010190611bc7565b50611bee929150611bf2565b5090565b611c0c91905b80821115611bee5760008155600101611bf8565b905600596f7520646f206e6f7420686176652074686520636f727265637420726f6c65ddf252ad1be2c89b69c2b068fc378daa952ba7f163c4a11628f55a4df523b3efa165627a7a7230582065fd360226f48147fd2260ff4fc4b1f50378ed0925105e779608e2b0c0e4d1c40029",
  "source": "pragma solidity ^0.4.24;\n\nimport \"@settlemint/solidity-mint/contracts/marketplaces/tokensystem/Token.sol\";\n\n\n/**\n * Contains the Local DTX token\n */\ncontract LocalDTXToken is Token {\n\n  constructor(\n    bytes32 _name,\n    uint8 _decimals,\n    address _registry,\n    address _gateKeeper\n  )\n    Token(\n      _name,\n      _decimals,\n      _registry,\n      _gateKeeper\n    )\n    public\n  {}\n\n  function getIndexLength() public view returns (uint length) {\n    length = tokenHolders.length;\n  }\n\n  function getByIndex(uint index) public view returns (address key, uint256 balance) {\n    key = tokenHolders[index];\n    balance = balances[tokenHolders[index]].balance;\n  }\n\n  function getByKey(address _key) public view returns (address key, uint256 balance) {\n    key = _key;\n    balance = balances[_key].balance;\n  }\n\n}\n",
  "sourcePath": "/Users/roderik/Development/databrokerdao-dapi/contracts/DtxToken/LocalDTXToken.sol",
  "compiler": {
    "name": "solc",
    "version": "0.4.24+commit.e67f0147.Emscripten.clang"
  },
  "schemaVersion": "2.0.1",
  "updatedAt": "2018-07-31T15:42:15.271Z"
}