{
  "contractName": "Migrations",
  "abi": [
    {
      "constant": true,
      "inputs": [],
      "name": "owner",
      "outputs": [
        {
          "name": "",
          "type": "address"
        }
      ],
      "payable": false,
      "stateMutability": "view",
      "type": "function"
    },
    {
      "constant": true,
      "inputs": [],
      "name": "lastCompletedMigration",
      "outputs": [
        {
          "name": "",
          "type": "uint256"
        }
      ],
      "payable": false,
      "stateMutability": "view",
      "type": "function"
    },
    {
      "inputs": [],
      "payable": false,
      "stateMutability": "nonpayable",
      "type": "constructor"
    },
    {
      "constant": false,
      "inputs": [
        {
          "name": "completed",
          "type": "uint256"
        }
      ],
      "name": "setCompleted",
      "outputs": [],
      "payable": false,
      "stateMutability": "nonpayable",
      "type": "function"
    },
    {
      "constant": false,
      "inputs": [
        {
          "name": "newAddress",
          "type": "address"
        }
      ],
      "name": "upgrade",
      "outputs": [],
      "payable": false,
      "stateMutability": "nonpayable",
      "type": "function"
    }
  ],
  "bytecode": "0x608060405234801561001057600080fd5b5060008054600160a060020a0319163317905561034f806100326000396000f3006080604052600436106100615763ffffffff7c01000000000000000000000000000000000000000000000000000000006000350416630900f01081146100665780638da5cb5b14610096578063fbdbad3c146100d4578063fdacd576146100fb575b600080fd5b34801561007257600080fd5b5061009473ffffffffffffffffffffffffffffffffffffffff60043516610113565b005b3480156100a257600080fd5b506100ab610250565b6040805173ffffffffffffffffffffffffffffffffffffffff9092168252519081900360200190f35b3480156100e057600080fd5b506100e961026c565b60408051918252519081900360200190f35b34801561010757600080fd5b50610094600435610272565b6000805473ffffffffffffffffffffffffffffffffffffffff1633146101c057604080517f08c379a000000000000000000000000000000000000000000000000000000000815260206004820152602e60248201527f7468652073656e646f72206f6620746865207472616e73616374696f6e20697360448201527f206e6f7420746865206f776e6572000000000000000000000000000000000000606482015290519081900360840190fd5b8190508073ffffffffffffffffffffffffffffffffffffffff1663fdacd5766001546040518263ffffffff167c010000000000000000000000000000000000000000000000000000000002815260040180828152602001915050600060405180830381600087803b15801561023457600080fd5b505af1158015610248573d6000803e3d6000fd5b505050505050565b60005473ffffffffffffffffffffffffffffffffffffffff1681565b60015481565b60005473ffffffffffffffffffffffffffffffffffffffff16331461031e57604080517f08c379a000000000000000000000000000000000000000000000000000000000815260206004820152602e60248201527f7468652073656e646f72206f6620746865207472616e73616374696f6e20697360448201527f206e6f7420746865206f776e6572000000000000000000000000000000000000606482015290519081900360840190fd5b6001555600a165627a7a72305820ef74ea8d96509a672480d8bb50279de4c83edd036c70d2df0d36d299237700770029",
  "source": "pragma solidity ^0.4.24;\n\n\ncontract Migrations {\n  address public owner;\n  uint public lastCompletedMigration;\n\n  modifier restricted() {\n    require(msg.sender == owner, \"the sendor of the transaction is not the owner\");\n    _;\n  }\n\n  constructor() public {\n    owner = msg.sender;\n  }\n\n  function setCompleted(uint completed) public restricted {\n    lastCompletedMigration = completed;\n  }\n\n  function upgrade(address newAddress) public restricted {\n    Migrations upgraded = Migrations(newAddress);\n    upgraded.setCompleted(lastCompletedMigration);\n  }\n}\n",
  "sourcePath": "/Users/roderik/Development/databrokerdao-dapi/contracts/Migrations.sol",
  "compiler": {
    "name": "solc",
    "version": "0.4.24+commit.e67f0147.Emscripten.clang"
  },
  "schemaVersion": "2.0.1",
  "updatedAt": "2018-08-01T09:40:46.919Z"
}