{
  "contractName": "PurchaseRegistry",
  "abi": [
    {
      "constant": true,
      "inputs": [],
      "name": "CREATE_PERMISSIONS_ROLE",
      "outputs": [
        {
          "name": "",
          "type": "bytes32"
        }
      ],
      "payable": false,
      "stateMutability": "view",
      "type": "function"
    },
    {
      "constant": true,
      "inputs": [],
      "name": "gateKeeper",
      "outputs": [
        {
          "name": "",
          "type": "address"
        }
      ],
      "payable": false,
      "stateMutability": "view",
      "type": "function"
    },
    {
      "constant": true,
      "inputs": [
        {
          "name": "",
          "type": "address"
        }
      ],
      "name": "purchases",
      "outputs": [
        {
          "name": "",
          "type": "address"
        }
      ],
      "payable": false,
      "stateMutability": "view",
      "type": "function"
    },
    {
      "constant": true,
      "inputs": [
        {
          "name": "",
          "type": "uint256"
        }
      ],
      "name": "purchasesIndex",
      "outputs": [
        {
          "name": "",
          "type": "address"
        }
      ],
      "payable": false,
      "stateMutability": "view",
      "type": "function"
    },
    {
      "constant": true,
      "inputs": [],
      "name": "token",
      "outputs": [
        {
          "name": "",
          "type": "address"
        }
      ],
      "payable": false,
      "stateMutability": "view",
      "type": "function"
    },
    {
      "inputs": [
        {
          "name": "_gateKeeper",
          "type": "address"
        },
        {
          "name": "_token",
          "type": "address"
        },
        {
          "name": "_streamRegistry",
          "type": "address"
        }
      ],
      "payable": false,
      "stateMutability": "nonpayable",
      "type": "constructor"
    },
    {
      "anonymous": false,
      "inputs": [
        {
          "indexed": false,
          "name": "stream",
          "type": "address"
        },
        {
          "indexed": false,
          "name": "user",
          "type": "address"
        },
        {
          "indexed": false,
          "name": "startTime",
          "type": "uint256"
        },
        {
          "indexed": false,
          "name": "endTime",
          "type": "uint256"
        },
        {
          "indexed": false,
          "name": "price",
          "type": "uint256"
        },
        {
          "indexed": false,
          "name": "purchase",
          "type": "address"
        }
      ],
      "name": "AccessPurchased",
      "type": "event"
    },
    {
      "anonymous": false,
      "inputs": [
        {
          "indexed": true,
          "name": "key",
          "type": "address"
        }
      ],
      "name": "AddressCacheInvalidated",
      "type": "event"
    },
    {
      "anonymous": false,
      "inputs": [
        {
          "indexed": true,
          "name": "key",
          "type": "bytes32"
        }
      ],
      "name": "Bytes32CacheInvalidated",
      "type": "event"
    },
    {
      "anonymous": false,
      "inputs": [
        {
          "indexed": true,
          "name": "key",
          "type": "uint256"
        }
      ],
      "name": "Uint256CacheInvalidated",
      "type": "event"
    },
    {
      "constant": false,
      "inputs": [
        {
          "name": "_stream",
          "type": "address"
        },
        {
          "name": "_endTime",
          "type": "uint256"
        },
        {
          "name": "_metadata",
          "type": "string"
        }
      ],
      "name": "purchaseAccess",
      "outputs": [],
      "payable": false,
      "stateMutability": "nonpayable",
      "type": "function"
    },
    {
      "constant": false,
      "inputs": [
        {
          "name": "_salePercentage",
          "type": "uint256"
        }
      ],
      "name": "setSalePercentage",
      "outputs": [],
      "payable": false,
      "stateMutability": "nonpayable",
      "type": "function"
    },
    {
      "constant": true,
      "inputs": [],
      "name": "getIndexLength",
      "outputs": [
        {
          "name": "length",
          "type": "uint256"
        }
      ],
      "payable": false,
      "stateMutability": "view",
      "type": "function"
    },
    {
      "constant": true,
      "inputs": [
        {
          "name": "index",
          "type": "uint256"
        }
      ],
      "name": "getByIndex",
      "outputs": [
        {
          "name": "key",
          "type": "address"
        },
        {
          "name": "contractAddress",
          "type": "address"
        }
      ],
      "payable": false,
      "stateMutability": "view",
      "type": "function"
    },
    {
      "constant": true,
      "inputs": [
        {
          "name": "_key",
          "type": "address"
        }
      ],
      "name": "getByKey",
      "outputs": [
        {
          "name": "key",
          "type": "address"
        },
        {
          "name": "contractAddress",
          "type": "address"
        }
      ],
      "payable": false,
      "stateMutability": "view",
      "type": "function"
    },
    {
      "constant": false,
      "inputs": [
        {
          "name": "_cachedAddress",
          "type": "address"
        },
        {
          "name": "",
          "type": "bytes32"
        },
        {
          "name": "",
          "type": "uint256"
        }
      ],
      "name": "invalidateCache",
      "outputs": [],
      "payable": false,
      "stateMutability": "nonpayable",
      "type": "function"
    }
  ],
  "bytecode": "0x60606040526001600755341561001457600080fd5b604051606080610f8c83398101604052808051919060200180519190602001805160008054600160a060020a0319908116600160a060020a039788161782556001805482163089161790557f50757263686173655265676973747279000000000000000000000000000000006002556005805482169688169690961790955560068054909516919095161790925550610ed8918291506100b490396000f3006060604052600436106100955763ffffffff60e060020a6000350416632d883a73811461009a5780633d188fab146100d45780633d6ab68f146100fb57806345d61ded14610120578063498770381461014f57806372cc98501461016e578063842a77d314610184578063b8e52d87146101a3578063ba41f3d4146101b9578063e1ba7d011461021e578063fc0c546a14610231575b600080fd5b34156100a557600080fd5b6100b0600435610244565b604051600160a060020a039283168152911660208201526040908101905180910390f35b34156100df57600080fd5b6100f9600160a060020a036004351660243560443561027c565b005b341561010657600080fd5b61010e6102b7565b60405190815260200160405180910390f35b341561012b57600080fd5b6101336102db565b604051600160a060020a03909116815260200160405180910390f35b341561015a57600080fd5b6100b0600160a060020a03600435166102ea565b341561017957600080fd5b6100f960043561030a565b341561018f57600080fd5b610133600160a060020a036004351661030f565b34156101ae57600080fd5b61013360043561032a565b34156101c457600080fd5b6100f960048035600160a060020a03169060248035919060649060443590810190830135806020601f8201819004810201604051908101604052818152929190602084018383808284375094965061035295505050505050565b341561022957600080fd5b61010e610821565b341561023c57600080fd5b610133610827565b60008061027360048481548110151561025957fe5b600091825260209091200154600160a060020a03166102ea565b91509150915091565b82600160a060020a03167f2130e02bc65616aa7f8f548960f51a08a1d0ea94efb33611412208c2d0306a2260405160405180910390a2505050565b7f4352454154455f5045524d495353494f4e535f524f4c4500000000000000000081565b600054600160a060020a031681565b600160a060020a0390811660009081526003602052604090205416908190565b600755565b600360205260009081526040902054600160a060020a031681565b600480548290811061033857fe5b600091825260209091200154600160a060020a0316905081565b600080600080600087600160a060020a031663a035b1fe6040518163ffffffff1660e060020a028152600401602060405180830381600087803b151561039757600080fd5b5af115156103a457600080fd5b505050604051805195504294506103d390506103c6888663ffffffff61083616565b869063ffffffff61084816565b92506103fb6103ee606460075461087e90919063ffffffff16565b849063ffffffff61084816565b600554909250600160a060020a03908116906323b872dd9033908b16638da5cb5b6040518163ffffffff1660e060020a028152600401602060405180830381600087803b151561044a57600080fd5b5af1151561045757600080fd5b50505060405180519050610471878763ffffffff61083616565b60405160e060020a63ffffffff8616028152600160a060020a0393841660048201529190921660248201526044810191909152606401602060405180830381600087803b15156104c057600080fd5b5af115156104cd57600080fd5b5050506040518051905015156104e257600080fd5b600554600160a060020a03166323b872dd33308560405160e060020a63ffffffff8616028152600160a060020a0393841660048201529190921660248201526044810191909152606401602060405180830381600087803b151561054557600080fd5b5af1151561055257600080fd5b50505060405180519050151561056757600080fd5b60005485908590899033908c90600160a060020a0316610585610895565b9586526020860194909452604080860193909352600160a060020a0391821660608601528116608085015290911660a083015260c09091019051809103906000f08015156105d257600080fd5b600054909150600160a060020a031663be03847833837f5550444154455f4d455441444154415f524f4c450000000000000000000000008260405160e060020a63ffffffff8716028152600160a060020a039485166004820152928416602484015260448301919091529091166064820152608401600060405180830381600087803b151561066057600080fd5b5af1151561066d57600080fd5b50505080600160a060020a0316635cc07505876040518263ffffffff1660e060020a0281526004018080602001828103825283818151815260200191508051906020019080838360005b838110156106cf5780820151838201526020016106b7565b50505050905090810190601f1680156106fc5780820380516001836020036101000a031916815260200191505b5092505050600060405180830381600087803b151561071a57600080fd5b5af1151561072757600080fd5b505050600160a060020a0381166000818152600360205260409020805473ffffffffffffffffffffffffffffffffffffffff19169091179055600480546001810161077283826108a5565b506000918252602090912001805473ffffffffffffffffffffffffffffffffffffffff1916600160a060020a0383161790557fa46fb31f0524729f82c7e370054d0f3ad832386ce8a7ecf09d7368594d30b3058833868a8786604051600160a060020a03968716815294861660208601526040808601949094526060850192909252608084015290921660a082015260c001905180910390a16108178160008061027c565b5050505050505050565b60045490565b600554600160a060020a031681565b60008282111561084257fe5b50900390565b60008083151561085b5760009150610877565b5082820282848281151561086b57fe5b041461087357fe5b8091505b5092915050565b600080828481151561088c57fe5b04949350505050565b6040516105bd806108f083390190565b8154818355818115116108c9576000838152602090206108c99181019083016108ce565b505050565b6108ec91905b808211156108e857600081556001016108d4565b5090565b9056006060604052341561000f57600080fd5b60405160c0806105bd83398101604052808051919060200180519190602001805191906020018051919060200180519190602001805160008054600160a060020a0319908116600160a060020a039384161782556001805482163085161790556003999099556004979097556005959095555050600680548616928416929092179091556007805490941691161790915561050d9081906100b090396000f3006060604052600436106100a35763ffffffff7c01000000000000000000000000000000000000000000000000000000006000350416633197cbb681146100a8578063392f37e9146100cd5780633d188fab1461015757806345d61ded1461017e5780635a77dc46146101ad5780635cc07505146101c05780636f2a67911461021157806378e9792514610224578063a035b1fe14610237578063fff139cf1461024a575b600080fd5b34156100b357600080fd5b6100bb61025d565b60405190815260200160405180910390f35b34156100d857600080fd5b6100e0610263565b60405160208082528190810183818151815260200191508051906020019080838360005b8381101561011c578082015183820152602001610104565b50505050905090810190601f1680156101495780820380516001836020036101000a031916815260200191505b509250505060405180910390f35b341561016257600080fd5b61017c600160a060020a0360043516602435604435610301565b005b341561018957600080fd5b61019161033c565b604051600160a060020a03909116815260200160405180910390f35b34156101b857600080fd5b61019161034b565b34156101cb57600080fd5b61017c60046024813581810190830135806020601f8201819004810201604051908101604052818152929190602084018383808284375094965061035a95505050505050565b341561021c57600080fd5b61019161036e565b341561022f57600080fd5b6100bb61037d565b341561024257600080fd5b6100bb610383565b341561025557600080fd5b6100bb610389565b60055481565b60028054600181600116156101000203166002900480601f0160208091040260200160405190810160405280929190818152602001828054600181600116156101000203166002900480156102f95780601f106102ce576101008083540402835291602001916102f9565b820191906000526020600020905b8154815290600101906020018083116102dc57829003601f168201915b505050505081565b82600160a060020a03167f2130e02bc65616aa7f8f548960f51a08a1d0ea94efb33611412208c2d0306a2260405160405180910390a2505050565b600054600160a060020a031681565b600654600160a060020a031681565b610363816103ad565b61036b6103c4565b50565b600754600160a060020a031681565b60045481565b60035481565b7f5550444154455f4d455441444154415f524f4c4500000000000000000000000081565b60028180516103c0929160200190610446565b5050565b600154600160a060020a0316633d188fab3060006040517c010000000000000000000000000000000000000000000000000000000063ffffffff8516028152600160a060020a0390921660048301526044820152606401600060405180830381600087803b151561043457600080fd5b5af1151561044157600080fd5b505050565b828054600181600116156101000203166002900490600052602060002090601f016020900481019282601f1061048757805160ff19168380011785556104b4565b828001600101855582156104b4579182015b828111156104b4578251825591602001919060010190610499565b506104c09291506104c4565b5090565b6104de91905b808211156104c057600081556001016104ca565b905600a165627a7a72305820ece79b0ed4494c02e1016836e66acb037d4d8a41cbe442c5de224e0901d2b07c0029a165627a7a72305820a8db683e0248d10742cf4ef269babef1c7fe7952a56323d32627d4b99775f63d0029",
  "source": "pragma solidity ^0.4.20;\n\nimport \"./Purchase.sol\";\nimport \"../stream/Stream.sol\";\nimport \"../stream/StreamRegistry.sol\";\nimport \"../dtxtoken/DtxToken.sol\";\nimport \"@settlemint/solidity-mint/contracts/authentication/Secured.sol\";\nimport \"@settlemint/solidity-mint/contracts/authentication/GateKeeper.sol\";\nimport \"@settlemint/solidity-mint/contracts/utility/syncing/Syncable.sol\";\nimport \"@settlemint/solidity-mint/contracts/utility/caching/Cacher.sol\";\nimport \"@settlemint/solidity-mint/contracts/utility/caching/CachedByBytes32.sol\";\nimport \"zeppelin-solidity/contracts/math/SafeMath.sol\";\n\n\ncontract PurchaseRegistry is Secured, Syncable, Cacher, CachedByBytes32 {\n  using SafeMath for uint256;\n\n  bytes32 constant public CREATE_PERMISSIONS_ROLE = \"CREATE_PERMISSIONS_ROLE\";\n\n  event AccessPurchased(address stream, address user, uint startTime, uint endTime, uint price, address purchase);\n\n  mapping (address => Purchase) public purchases;\n  address[] public purchasesIndex;\n\n  DtxToken public token;\n  StreamRegistry streamRegistry;\n  uint salePercentage = 1;\n\n  /**\n  @dev Contructor\n  @notice                Sets the address for token\n  @param _gateKeeper     Address of the gatekeeper\n  @param _token          Address of the token\n  */\n  function PurchaseRegistry(\n    address _gateKeeper,\n    address _token,\n    address _streamRegistry\n  )\n    Secured(_gateKeeper)\n    CachedByBytes32(\"PurchaseRegistry\", this)\n    public\n  {\n    token = DtxToken(_token);\n    streamRegistry = StreamRegistry(_streamRegistry);\n  }\n\n  /**\n  @notice               Lets the sender buy access to the Stream\n  @param _stream        Id of the listing\n  @param _endTime       Timestamp of when the user will stop receiving Stream readings in seconds (not milliseconds!)\n  */\n  function purchaseAccess(address _stream, uint _endTime, string _metadata) public {\n    // Calculate total cost for the user\n    uint _streamPricePerSecond = Stream(_stream).price();\n    uint _startTime = now;\n    uint _streamPrice = _streamPricePerSecond.mul(_endTime.sub(_startTime));\n\n    // Pay out:\n    uint _salePercentage = _streamPrice.mul(salePercentage.div(100));\n    // Sensor owner\n    require(token.transferFrom(msg.sender, Stream(_stream).owner(), _streamPrice.sub(_salePercentage)));\n    // DBDAO\n    require(token.transferFrom(msg.sender, this, _salePercentage));\n\n    // Create purchase\n    Purchase _purchase = new Purchase(\n      _streamPricePerSecond,\n      _startTime,\n      _endTime,\n      msg.sender,\n      _stream,\n      address(gateKeeper)\n    );\n\n    // Metadata role\n    gateKeeper.createPermission(\n      msg.sender,\n      address(_purchase),\n      bytes32(\"UPDATE_METADATA_ROLE\"),\n      msg.sender\n    );\n\n    // Add metadata\n    _purchase.updateMetaData(_metadata);\n\n    // Push to mapping\n    purchases[address(_purchase)] = Purchase(address(_purchase));\n    purchasesIndex.push(address(_purchase));\n\n    AccessPurchased(_stream, msg.sender, _startTime, _endTime, _streamPrice, address(_purchase));\n    invalidateCache(_purchase, \"\", 0);\n  }\n\n  /**\n  @notice                Sets the sale percentage\n  @param _salePercentage salePercentage\n  */\n  function setSalePercentage(uint _salePercentage) public {\n    salePercentage = _salePercentage;\n  }\n\n  /**\n  * implementation of syncable methods\n  */\n  function getIndexLength() public view returns (uint length) {\n    length = purchasesIndex.length;\n  }\n\n  function getByIndex(uint index) public view returns (address key, address contractAddress) {\n    return getByKey(purchasesIndex[index]);\n  }\n\n  function getByKey(address _key) public view returns (address key, address contractAddress) {\n    key = address(purchases[_key]);\n    contractAddress = address(purchases[_key]);\n  }\n\n  /**\n  * implementation of cacher methods\n  */\n  function invalidateCache(address _cachedAddress, bytes32 /*_cachedBytes32*/, uint256 /*_cachedUint256*/) public {\n    AddressCacheInvalidated(_cachedAddress);\n  }\n}\n",
  "sourcePath": "/Users/silkevandenbroeck/databrokerDAO/databrokerdao-dapi/contracts/purchase/PurchaseRegistry.sol",
  "compiler": {
    "name": "solc",
    "version": "0.4.21+commit.dfe3193c.Emscripten.clang"
  },
  "schemaVersion": "2.0.0",
  "updatedAt": "2018-04-05T11:17:00.821Z"
}