{
  "contractName": "PurchaseRegistry",
  "abi": [
    {
      "constant": true,
      "inputs": [],
      "name": "gateKeeper",
      "outputs": [
        {
          "name": "",
          "type": "address"
        }
      ],
      "payable": false,
      "stateMutability": "view",
      "type": "function"
    },
    {
      "constant": true,
      "inputs": [
        {
          "name": "",
          "type": "address"
        }
      ],
      "name": "purchases",
      "outputs": [
        {
          "name": "",
          "type": "address"
        }
      ],
      "payable": false,
      "stateMutability": "view",
      "type": "function"
    },
    {
      "constant": true,
      "inputs": [
        {
          "name": "",
          "type": "uint256"
        }
      ],
      "name": "purchasesIndex",
      "outputs": [
        {
          "name": "",
          "type": "address"
        }
      ],
      "payable": false,
      "stateMutability": "view",
      "type": "function"
    },
    {
      "constant": true,
      "inputs": [],
      "name": "token",
      "outputs": [
        {
          "name": "",
          "type": "address"
        }
      ],
      "payable": false,
      "stateMutability": "view",
      "type": "function"
    },
    {
      "inputs": [
        {
          "name": "_gateKeeper",
          "type": "address"
        },
        {
          "name": "_token",
          "type": "address"
        },
        {
          "name": "_streamRegistry",
          "type": "address"
        }
      ],
      "payable": false,
      "stateMutability": "nonpayable",
      "type": "constructor"
    },
    {
      "anonymous": false,
      "inputs": [
        {
          "indexed": false,
          "name": "stream",
          "type": "address"
        },
        {
          "indexed": false,
          "name": "user",
          "type": "address"
        },
        {
          "indexed": false,
          "name": "startTime",
          "type": "uint256"
        },
        {
          "indexed": false,
          "name": "endTime",
          "type": "uint256"
        },
        {
          "indexed": false,
          "name": "price",
          "type": "uint256"
        },
        {
          "indexed": false,
          "name": "purchase",
          "type": "address"
        }
      ],
      "name": "AccessPurchased",
      "type": "event"
    },
    {
      "anonymous": false,
      "inputs": [
        {
          "indexed": true,
          "name": "key",
          "type": "address"
        }
      ],
      "name": "AddressCacheInvalidated",
      "type": "event"
    },
    {
      "anonymous": false,
      "inputs": [
        {
          "indexed": true,
          "name": "key",
          "type": "bytes32"
        }
      ],
      "name": "Bytes32CacheInvalidated",
      "type": "event"
    },
    {
      "anonymous": false,
      "inputs": [
        {
          "indexed": true,
          "name": "key",
          "type": "uint256"
        }
      ],
      "name": "Uint256CacheInvalidated",
      "type": "event"
    },
    {
      "constant": false,
      "inputs": [
        {
          "name": "_stream",
          "type": "address"
        },
        {
          "name": "_endTime",
          "type": "uint256"
        }
      ],
      "name": "purchaseAccess",
      "outputs": [],
      "payable": false,
      "stateMutability": "nonpayable",
      "type": "function"
    },
    {
      "constant": false,
      "inputs": [
        {
          "name": "_salePercentage",
          "type": "uint256"
        }
      ],
      "name": "setSalePercentage",
      "outputs": [],
      "payable": false,
      "stateMutability": "nonpayable",
      "type": "function"
    },
    {
      "constant": true,
      "inputs": [
        {
          "name": "_stream",
          "type": "address"
        }
      ],
      "name": "hasAccess",
      "outputs": [
        {
          "name": "access",
          "type": "bool"
        }
      ],
      "payable": false,
      "stateMutability": "view",
      "type": "function"
    },
    {
      "constant": true,
      "inputs": [],
      "name": "getIndexLength",
      "outputs": [
        {
          "name": "length",
          "type": "uint256"
        }
      ],
      "payable": false,
      "stateMutability": "view",
      "type": "function"
    },
    {
      "constant": true,
      "inputs": [
        {
          "name": "index",
          "type": "uint256"
        }
      ],
      "name": "getByIndex",
      "outputs": [
        {
          "name": "contractAddress",
          "type": "address"
        }
      ],
      "payable": false,
      "stateMutability": "view",
      "type": "function"
    },
    {
      "constant": true,
      "inputs": [
        {
          "name": "_key",
          "type": "address"
        }
      ],
      "name": "getByKey",
      "outputs": [
        {
          "name": "contractAddress",
          "type": "address"
        }
      ],
      "payable": false,
      "stateMutability": "view",
      "type": "function"
    },
    {
      "constant": false,
      "inputs": [
        {
          "name": "",
          "type": "address"
        },
        {
          "name": "_cachedBytes32",
          "type": "bytes32"
        },
        {
          "name": "",
          "type": "uint256"
        }
      ],
      "name": "invalidateCache",
      "outputs": [],
      "payable": false,
      "stateMutability": "nonpayable",
      "type": "function"
    }
  ],
  "bytecode": "0x60606040526001600855341561001457600080fd5b604051606080610ce783398101604052808051919060200180519190602001805160008054600160a060020a03968716600160a060020a03199182168117909255600180543089169083161790557f5075726368617365526567697374727900000000000000000000000000000000600255600580549688169682169690961790955560068054969092169585169590951790555050600780549091169091179055610c22806100c56000396000f3006060604052600436106100955763ffffffff60e060020a6000350416630999f424811461009a5780632d883a73146100be5780633d188fab146100f057806345d61ded14610115578063498770381461012857806372cc985014610147578063842a77d31461015d57806395a078e81461017c578063b8e52d87146101af578063e1ba7d01146101c5578063fc0c546a146101ea575b600080fd5b34156100a557600080fd5b6100bc600160a060020a03600435166024356101fd565b005b34156100c957600080fd5b6100d4600435610631565b604051600160a060020a03909116815260200160405180910390f35b34156100fb57600080fd5b6100bc600160a060020a0360043516602435604435610665565b341561012057600080fd5b6100d461069f565b341561013357600080fd5b6100d4600160a060020a03600435166106ae565b341561015257600080fd5b6100bc6004356106cc565b341561016857600080fd5b6100d4600160a060020a03600435166106d1565b341561018757600080fd5b61019b600160a060020a03600435166106ec565b604051901515815260200160405180910390f35b34156101ba57600080fd5b6100d4600435610765565b34156101d057600080fd5b6101d861078d565b60405190815260200160405180910390f35b34156101f557600080fd5b6100d4610793565b6006546000908190819081908190600160a060020a0316633c1b12b688836040516020015260405160e060020a63ffffffff8416028152600160a060020a039091166004820152602401602060405180830381600087803b151561026057600080fd5b6102c65a03f1151561027157600080fd5b505050604051805195504294506102a09050610293878663ffffffff6107a216565b869063ffffffff6107b416565b92506102c86102bb60646008546107ea90919063ffffffff16565b849063ffffffff6107b416565b600554600654919350600160a060020a03908116916323b872dd9133911663a72b0d2d8b60006040516020015260405160e060020a63ffffffff8416028152600160a060020a039091166004820152602401602060405180830381600087803b151561033357600080fd5b6102c65a03f1151561034457600080fd5b5050506040518051905061035e878763ffffffff6107a216565b60006040516020015260405160e060020a63ffffffff8616028152600160a060020a0393841660048201529190921660248201526044810191909152606401602060405180830381600087803b15156103b657600080fd5b6102c65a03f115156103c757600080fd5b5050506040518051905015156103dc57600080fd5b600554600160a060020a03166323b872dd33308560006040516020015260405160e060020a63ffffffff8616028152600160a060020a0393841660048201529190921660248201526044810191909152606401602060405180830381600087803b151561044857600080fd5b6102c65a03f1151561045957600080fd5b50505060405180519050151561046e57600080fd5b60075485908590889033908b90600160a060020a031661048c610879565b9586526020860194909452604080860193909352600160a060020a0391821660608601528116608085015290911660a083015260c09091019051809103906000f08015156104d957600080fd5b600160a060020a0381166000818152600360205260409020805473ffffffffffffffffffffffffffffffffffffffff191690911790556004805491925090600181016105258382610889565b506000918252602090912001805473ffffffffffffffffffffffffffffffffffffffff191633600160a060020a03818116929092179092558816906390a4b8d590839060405160e060020a63ffffffff8516028152600160a060020a03928316600482015291166024820152604401600060405180830381600087803b15156105ad57600080fd5b6102c65a03f115156105be57600080fd5b5050507fa46fb31f0524729f82c7e370054d0f3ad832386ce8a7ecf09d7368594d30b305873386898786604051600160a060020a03968716815294861660208601526040808601949094526060850192909252608084015290921660a082015260c001905180910390a150505050505050565b600061065f60048381548110151561064557fe5b600091825260209091200154600160a060020a03166106ae565b92915050565b817fd5c977477c90fd6c009dd3275798b51da8bd2df8e0a25be47773f87b53d2e39960405160405180910390a261069a610801565b505050565b600054600160a060020a031681565b600160a060020a039081166000908152600360205260409020541690565b600855565b600360205260009081526040902054600160a060020a031681565b600081600160a060020a03166395a078e83360006040516020015260405160e060020a63ffffffff8416028152600160a060020a039091166004820152602401602060405180830381600087803b151561074557600080fd5b6102c65a03f1151561075657600080fd5b50505060405180519392505050565b600480548290811061077357fe5b600091825260209091200154600160a060020a0316905081565b60045490565b600554600160a060020a031681565b6000828211156107ae57fe5b50900390565b6000808315156107c757600091506107e3565b508282028284828115156107d757fe5b04146107df57fe5b8091505b5092915050565b60008082848115156107f857fe5b04949350505050565b600154600254600160a060020a0390911690633d188fab906000908160405160e060020a63ffffffff8616028152600160a060020a03909316600484015260248301919091526044820152606401600060405180830381600087803b151561086857600080fd5b6102c65a03f1151561069a57600080fd5b60405161032d806108ca83390190565b81548183558181151161069a5760008381526020902061069a9181019083016108c691905b808211156108c257600081556001016108ae565b5090565b9056006060604052341561000f57600080fd5b60405160c08061032d83398101604052808051919060200180519190602001805191906020018051919060200180519190602001805160008054600160a060020a0319908116600160a060020a039384161782556001805482163085161790556002999099556003979097556004959095555050600580548616928416929092179091556006805490941691161790915561027d9081906100b090396000f3006060604052600436106100825763ffffffff7c01000000000000000000000000000000000000000000000000000000006000350416633197cbb681146100875780633d188fab146100ac57806345d61ded146100d35780635a77dc46146101025780636f2a67911461011557806378e9792514610128578063a035b1fe1461013b575b600080fd5b341561009257600080fd5b61009a61014e565b60405190815260200160405180910390f35b34156100b757600080fd5b6100d1600160a060020a0360043516602435604435610154565b005b34156100de57600080fd5b6100e6610197565b604051600160a060020a03909116815260200160405180910390f35b341561010d57600080fd5b6100e66101a6565b341561012057600080fd5b6100e66101b5565b341561013357600080fd5b61009a6101c4565b341561014657600080fd5b61009a6101ca565b60045481565b82600160a060020a03167f2130e02bc65616aa7f8f548960f51a08a1d0ea94efb33611412208c2d0306a2260405160405180910390a26101926101d0565b505050565b600054600160a060020a031681565b600554600160a060020a031681565b600654600160a060020a031681565b60035481565b60025481565b600154600160a060020a0316633d188fab3060006040517c010000000000000000000000000000000000000000000000000000000063ffffffff8516028152600160a060020a0390921660048301526044820152606401600060405180830381600087803b151561024057600080fd5b6102c65a03f1151561019257600080fd00a165627a7a72305820f22e83c34cd2bbe6943c0f37dd6f0e49f943ebf73209722fb2bb9746bf938b540029a165627a7a72305820ad1f5981d67a12b6fc570099cbb1915d52369f8f6b1fe6edb6ebd4e97de4feaf0029",
  "source": "pragma solidity ^0.4.20;\n\nimport \"./Purchase.sol\";\nimport \"../stream/Stream.sol\";\nimport \"../stream/StreamRegistry.sol\";\nimport \"../dtxtoken/DtxToken.sol\";\nimport \"@settlemint/solidity-mint/contracts/authentication/Secured.sol\";\nimport \"@settlemint/solidity-mint/contracts/utility/syncing/Syncable.sol\";\nimport \"@settlemint/solidity-mint/contracts/utility/caching/Cacher.sol\";\nimport \"@settlemint/solidity-mint/contracts/utility/caching/CachedByBytes32.sol\";\nimport \"zeppelin-solidity/contracts/math/SafeMath.sol\";\n\n\ncontract PurchaseRegistry is Secured, Syncable, Cacher, CachedByBytes32 {\n  using SafeMath for uint256;\n\n  event AccessPurchased(address stream, address user, uint startTime, uint endTime, uint price, address purchase);\n\n  mapping (address => Purchase) public purchases;\n  address[] public purchasesIndex;\n\n  DtxToken public token;\n  StreamRegistry streamRegistry;\n  address gateKeeper;\n  uint salePercentage = 1;\n\n  /**\n  @dev Contructor\n  @notice                Sets the address for token\n  @param _gateKeeper     Address of the gatekeeper\n  @param _token          Address of the token\n  */\n  function PurchaseRegistry(\n    address _gateKeeper,\n    address _token,\n    address _streamRegistry\n  )\n    Secured(_gateKeeper)\n    CachedByBytes32(\"PurchaseRegistry\", this)\n    public\n  {\n    token = DtxToken(_token);\n    streamRegistry = StreamRegistry(_streamRegistry);\n\n    gateKeeper = _gateKeeper;\n  }\n\n  /**\n  @notice               Lets the sender buy access to the Stream\n  @param _stream        Id of the listing\n  @param _endTime       Timestamp of when the user will stop receiving Stream readings in seconds (not milliseconds!)\n  */\n  function purchaseAccess(address _stream, uint _endTime) public {\n    // Calculate total cost for the user\n    uint _streamPricePerSecond = streamRegistry.getStreamPrice(_stream);\n    uint _startTime = now;\n    uint _streamPrice = _streamPricePerSecond.mul(_endTime.sub(_startTime));\n\n    // Pay out:\n    uint _salePercentage = _streamPrice.mul(salePercentage.div(100));\n    // Sensor owner\n    require(token.transferFrom(msg.sender, streamRegistry.getStreamOwner(_stream), _streamPrice.sub(_salePercentage)));\n    // DBDAO\n    require(token.transferFrom(msg.sender, this, _salePercentage));\n\n    // Create purchase\n    Purchase purchase = new Purchase(\n      _streamPricePerSecond,\n      _startTime,\n      _endTime,\n      msg.sender,\n      _stream,\n      gateKeeper\n    );\n\n    // Push to mapping\n    purchases[address(purchase)] = purchase;\n    purchasesIndex.push(msg.sender);\n\n    // Push to mapping in the stream\n    Stream(_stream).addPurchase(address(purchase), msg.sender);\n\n    AccessPurchased(_stream, msg.sender, _startTime, _endTime, _streamPrice, address(purchase));\n  }\n\n  /**\n  @notice                Sets the sale percentage\n  @param _salePercentage salePercentage\n  */\n  function setSalePercentage(uint _salePercentage) public {\n    salePercentage = _salePercentage;\n  }\n\n  /**\n  @notice             Returns wether or user has access to\n  @param _stream      Address of the stream\n  */\n  function hasAccess(address _stream) external view returns (bool access) {\n    return Stream(_stream).hasAccess(msg.sender);\n  }\n\n  /**\n  * implementation of syncable methods\n  */\n  function getIndexLength() public view returns (uint length) {\n    length = purchasesIndex.length;\n  }\n\n  function getByIndex(uint index) public view returns (address contractAddress) {\n    return getByKey(purchasesIndex[index]);\n  }\n\n  function getByKey(address _key) public view returns (address contractAddress) {\n    contractAddress = address(purchases[_key]);\n  }\n\n  /**\n  * implementation of cacher methods\n  */\n  function invalidateCache(address /*_cachedAddress*/, bytes32 _cachedBytes32, uint256 /*_cachedUint256*/) public {\n    Bytes32CacheInvalidated(_cachedBytes32);\n    super.invalidateCache();\n  }\n}\n",
  "sourcePath": "/Users/silkevandenbroeck/databrokerDAO/databrokerdao-dapi/contracts/purchase/PurchaseRegistry.sol",
  "compiler": {
    "name": "solc",
    "version": "0.4.20+commit.3155dd80.Emscripten.clang"
  },
  "schemaVersion": "2.0.0",
  "updatedAt": "2018-03-05T11:37:36.291Z"
}