{
  "contractName": "Purchase",
  "abi": [
    {
      "constant": true,
      "inputs": [],
      "name": "endTime",
      "outputs": [
        {
          "name": "",
          "type": "uint256"
        }
      ],
      "payable": false,
      "stateMutability": "view",
      "type": "function"
    },
    {
      "constant": true,
      "inputs": [],
      "name": "metadata",
      "outputs": [
        {
          "name": "",
          "type": "string"
        }
      ],
      "payable": false,
      "stateMutability": "view",
      "type": "function"
    },
    {
      "constant": true,
      "inputs": [],
      "name": "gateKeeper",
      "outputs": [
        {
          "name": "",
          "type": "address"
        }
      ],
      "payable": false,
      "stateMutability": "view",
      "type": "function"
    },
    {
      "constant": true,
      "inputs": [],
      "name": "purchaser",
      "outputs": [
        {
          "name": "",
          "type": "address"
        }
      ],
      "payable": false,
      "stateMutability": "view",
      "type": "function"
    },
    {
      "constant": true,
      "inputs": [],
      "name": "stream",
      "outputs": [
        {
          "name": "",
          "type": "address"
        }
      ],
      "payable": false,
      "stateMutability": "view",
      "type": "function"
    },
    {
      "constant": true,
      "inputs": [],
      "name": "startTime",
      "outputs": [
        {
          "name": "",
          "type": "uint256"
        }
      ],
      "payable": false,
      "stateMutability": "view",
      "type": "function"
    },
    {
      "constant": true,
      "inputs": [],
      "name": "price",
      "outputs": [
        {
          "name": "",
          "type": "uint256"
        }
      ],
      "payable": false,
      "stateMutability": "view",
      "type": "function"
    },
    {
      "constant": true,
      "inputs": [],
      "name": "UPDATE_METADATA_ROLE",
      "outputs": [
        {
          "name": "",
          "type": "bytes32"
        }
      ],
      "payable": false,
      "stateMutability": "view",
      "type": "function"
    },
    {
      "inputs": [
        {
          "name": "_price",
          "type": "uint256"
        },
        {
          "name": "_startTime",
          "type": "uint256"
        },
        {
          "name": "_endTime",
          "type": "uint256"
        },
        {
          "name": "_purchaser",
          "type": "address"
        },
        {
          "name": "_stream",
          "type": "address"
        },
        {
          "name": "_gateKeeper",
          "type": "address"
        }
      ],
      "payable": false,
      "stateMutability": "nonpayable",
      "type": "constructor"
    },
    {
      "anonymous": false,
      "inputs": [
        {
          "indexed": true,
          "name": "key",
          "type": "address"
        }
      ],
      "name": "AddressCacheInvalidated",
      "type": "event"
    },
    {
      "anonymous": false,
      "inputs": [
        {
          "indexed": true,
          "name": "key",
          "type": "bytes32"
        }
      ],
      "name": "Bytes32CacheInvalidated",
      "type": "event"
    },
    {
      "anonymous": false,
      "inputs": [
        {
          "indexed": true,
          "name": "key",
          "type": "uint256"
        }
      ],
      "name": "Uint256CacheInvalidated",
      "type": "event"
    },
    {
      "constant": false,
      "inputs": [
        {
          "name": "_cachedAddress",
          "type": "address"
        },
        {
          "name": "",
          "type": "bytes32"
        },
        {
          "name": "",
          "type": "uint256"
        }
      ],
      "name": "invalidateCache",
      "outputs": [],
      "payable": false,
      "stateMutability": "nonpayable",
      "type": "function"
    },
    {
      "constant": false,
      "inputs": [
        {
          "name": "ipfsHash",
          "type": "string"
        }
      ],
      "name": "updateMetaData",
      "outputs": [],
      "payable": false,
      "stateMutability": "nonpayable",
      "type": "function"
    }
  ],
  "bytecode": "0x6060604052341561000f57600080fd5b60405160c0806105bd83398101604052808051919060200180519190602001805191906020018051919060200180519190602001805160008054600160a060020a0319908116600160a060020a039384161782556001805482163085161790556003999099556004979097556005959095555050600680548616928416929092179091556007805490941691161790915561050d9081906100b090396000f3006060604052600436106100a35763ffffffff7c01000000000000000000000000000000000000000000000000000000006000350416633197cbb681146100a8578063392f37e9146100cd5780633d188fab1461015757806345d61ded1461017e5780635a77dc46146101ad5780635cc07505146101c05780636f2a67911461021157806378e9792514610224578063a035b1fe14610237578063fff139cf1461024a575b600080fd5b34156100b357600080fd5b6100bb61025d565b60405190815260200160405180910390f35b34156100d857600080fd5b6100e0610263565b60405160208082528190810183818151815260200191508051906020019080838360005b8381101561011c578082015183820152602001610104565b50505050905090810190601f1680156101495780820380516001836020036101000a031916815260200191505b509250505060405180910390f35b341561016257600080fd5b61017c600160a060020a0360043516602435604435610301565b005b341561018957600080fd5b61019161033c565b604051600160a060020a03909116815260200160405180910390f35b34156101b857600080fd5b61019161034b565b34156101cb57600080fd5b61017c60046024813581810190830135806020601f8201819004810201604051908101604052818152929190602084018383808284375094965061035a95505050505050565b341561021c57600080fd5b61019161036e565b341561022f57600080fd5b6100bb61037d565b341561024257600080fd5b6100bb610383565b341561025557600080fd5b6100bb610389565b60055481565b60028054600181600116156101000203166002900480601f0160208091040260200160405190810160405280929190818152602001828054600181600116156101000203166002900480156102f95780601f106102ce576101008083540402835291602001916102f9565b820191906000526020600020905b8154815290600101906020018083116102dc57829003601f168201915b505050505081565b82600160a060020a03167f2130e02bc65616aa7f8f548960f51a08a1d0ea94efb33611412208c2d0306a2260405160405180910390a2505050565b600054600160a060020a031681565b600654600160a060020a031681565b610363816103ad565b61036b6103c4565b50565b600754600160a060020a031681565b60045481565b60035481565b7f5550444154455f4d455441444154415f524f4c4500000000000000000000000081565b60028180516103c0929160200190610446565b5050565b600154600160a060020a0316633d188fab3060006040517c010000000000000000000000000000000000000000000000000000000063ffffffff8516028152600160a060020a0390921660048301526044820152606401600060405180830381600087803b151561043457600080fd5b5af1151561044157600080fd5b505050565b828054600181600116156101000203166002900490600052602060002090601f016020900481019282601f1061048757805160ff19168380011785556104b4565b828001600101855582156104b4579182015b828111156104b4578251825591602001919060010190610499565b506104c09291506104c4565b5090565b6104de91905b808211156104c057600081556001016104ca565b905600a165627a7a72305820ece79b0ed4494c02e1016836e66acb037d4d8a41cbe442c5de224e0901d2b07c0029",
  "source": "pragma solidity ^0.4.20;\n\nimport \"@settlemint/solidity-mint/contracts/authentication/Secured.sol\";\nimport \"@settlemint/solidity-mint/contracts/utility/syncing/Syncable.sol\";\nimport \"@settlemint/solidity-mint/contracts/utility/caching/Cacher.sol\";\nimport \"@settlemint/solidity-mint/contracts/utility/caching/CachedByAddress.sol\";\nimport \"@settlemint/solidity-mint/contracts/utility/metadata/MetaDataContainer.sol\";\n\n\ncontract Purchase is Secured, Cacher, CachedByAddress, MetaDataContainer {\n\n  uint public price; // price per second for which access was purchased\n  uint public startTime; // the time at which the purchaser will gain access to this Stream\n  uint public endTime; // the time at which the purchaser will lose access to this Stream\n  address public purchaser; // address of the user\n  address public stream; // id of the stream to which access was purchased\n\n  function Purchase(\n    uint _price,\n    uint _startTime,\n    uint _endTime,\n    address _purchaser,\n    address _stream,\n    address _gateKeeper\n  )\n    public\n    Secured(_gateKeeper)\n    CachedByAddress(this)\n  {\n    price = _price;\n    startTime = _startTime;\n    endTime = _endTime;\n    purchaser = _purchaser;\n    stream = _stream;\n  }\n\n  /**\n  * implementation of cacher methods\n  */\n  function invalidateCache(address _cachedAddress, bytes32 /*_cachedBytes32*/, uint256 /*_cachedUint256*/) public {\n    AddressCacheInvalidated(_cachedAddress);\n  }\n\n  /**\n  * implementation of metadata methods\n  */\n  function updateMetaData(string ipfsHash) public {\n    super.updateMetaData(ipfsHash);\n    super.invalidateCache();\n  }\n}\n",
  "sourcePath": "/Users/silkevandenbroeck/databrokerDAO/databrokerdao-dapi/contracts/purchase/Purchase.sol",
  "compiler": {
    "name": "solc",
    "version": "0.4.21+commit.dfe3193c.Emscripten.clang"
  },
  "schemaVersion": "2.0.0",
  "updatedAt": "2018-03-23T14:12:54.782Z"
}