{
  "contractName": "Purchase",
  "abi": [
    {
      "constant": true,
      "inputs": [],
      "name": "endTime",
      "outputs": [
        {
          "name": "",
          "type": "uint256"
        }
      ],
      "payable": false,
      "stateMutability": "view",
      "type": "function"
    },
    {
      "constant": true,
      "inputs": [],
      "name": "gateKeeper",
      "outputs": [
        {
          "name": "",
          "type": "address"
        }
      ],
      "payable": false,
      "stateMutability": "view",
      "type": "function"
    },
    {
      "constant": true,
      "inputs": [],
      "name": "purchaser",
      "outputs": [
        {
          "name": "",
          "type": "address"
        }
      ],
      "payable": false,
      "stateMutability": "view",
      "type": "function"
    },
    {
      "constant": true,
      "inputs": [],
      "name": "stream",
      "outputs": [
        {
          "name": "",
          "type": "address"
        }
      ],
      "payable": false,
      "stateMutability": "view",
      "type": "function"
    },
    {
      "constant": true,
      "inputs": [],
      "name": "startTime",
      "outputs": [
        {
          "name": "",
          "type": "uint256"
        }
      ],
      "payable": false,
      "stateMutability": "view",
      "type": "function"
    },
    {
      "constant": true,
      "inputs": [],
      "name": "price",
      "outputs": [
        {
          "name": "",
          "type": "uint256"
        }
      ],
      "payable": false,
      "stateMutability": "view",
      "type": "function"
    },
    {
      "inputs": [
        {
          "name": "_price",
          "type": "uint256"
        },
        {
          "name": "_startTime",
          "type": "uint256"
        },
        {
          "name": "_endTime",
          "type": "uint256"
        },
        {
          "name": "_purchaser",
          "type": "address"
        },
        {
          "name": "_stream",
          "type": "address"
        },
        {
          "name": "_gateKeeper",
          "type": "address"
        }
      ],
      "payable": false,
      "stateMutability": "nonpayable",
      "type": "constructor"
    },
    {
      "anonymous": false,
      "inputs": [
        {
          "indexed": true,
          "name": "key",
          "type": "address"
        }
      ],
      "name": "AddressCacheInvalidated",
      "type": "event"
    },
    {
      "anonymous": false,
      "inputs": [
        {
          "indexed": true,
          "name": "key",
          "type": "bytes32"
        }
      ],
      "name": "Bytes32CacheInvalidated",
      "type": "event"
    },
    {
      "anonymous": false,
      "inputs": [
        {
          "indexed": true,
          "name": "key",
          "type": "uint256"
        }
      ],
      "name": "Uint256CacheInvalidated",
      "type": "event"
    },
    {
      "constant": false,
      "inputs": [
        {
          "name": "_cachedAddress",
          "type": "address"
        },
        {
          "name": "",
          "type": "bytes32"
        },
        {
          "name": "",
          "type": "uint256"
        }
      ],
      "name": "invalidateCache",
      "outputs": [],
      "payable": false,
      "stateMutability": "nonpayable",
      "type": "function"
    }
  ],
  "bytecode": "0x6060604052341561000f57600080fd5b60405160c08061032d83398101604052808051919060200180519190602001805191906020018051919060200180519190602001805160008054600160a060020a0319908116600160a060020a039384161782556001805482163085161790556002999099556003979097556004959095555050600580548616928416929092179091556006805490941691161790915561027d9081906100b090396000f3006060604052600436106100825763ffffffff7c01000000000000000000000000000000000000000000000000000000006000350416633197cbb681146100875780633d188fab146100ac57806345d61ded146100d35780635a77dc46146101025780636f2a67911461011557806378e9792514610128578063a035b1fe1461013b575b600080fd5b341561009257600080fd5b61009a61014e565b60405190815260200160405180910390f35b34156100b757600080fd5b6100d1600160a060020a0360043516602435604435610154565b005b34156100de57600080fd5b6100e6610197565b604051600160a060020a03909116815260200160405180910390f35b341561010d57600080fd5b6100e66101a6565b341561012057600080fd5b6100e66101b5565b341561013357600080fd5b61009a6101c4565b341561014657600080fd5b61009a6101ca565b60045481565b82600160a060020a03167f2130e02bc65616aa7f8f548960f51a08a1d0ea94efb33611412208c2d0306a2260405160405180910390a26101926101d0565b505050565b600054600160a060020a031681565b600554600160a060020a031681565b600654600160a060020a031681565b60035481565b60025481565b600154600160a060020a0316633d188fab3060006040517c010000000000000000000000000000000000000000000000000000000063ffffffff8516028152600160a060020a0390921660048301526044820152606401600060405180830381600087803b151561024057600080fd5b6102c65a03f1151561019257600080fd00a165627a7a72305820f22e83c34cd2bbe6943c0f37dd6f0e49f943ebf73209722fb2bb9746bf938b540029",
  "source": "pragma solidity ^0.4.20;\n\nimport \"@settlemint/solidity-mint/contracts/authentication/Secured.sol\";\nimport \"@settlemint/solidity-mint/contracts/utility/syncing/Syncable.sol\";\nimport \"@settlemint/solidity-mint/contracts/utility/caching/Cacher.sol\";\nimport \"@settlemint/solidity-mint/contracts/utility/caching/CachedByAddress.sol\";\n\n\ncontract Purchase is Secured, Cacher, CachedByAddress {\n\n  uint public price; // price per second for which access was purchased\n  uint public startTime; // the time at which the purchaser will gain access to this Stream\n  uint public endTime; // the time at which the purchaser will lose access to this Stream\n  address public purchaser; // address of the user\n  address public stream; // id of the stream to which access was purchased\n\n  function Purchase(\n    uint _price,\n    uint _startTime,\n    uint _endTime,\n    address _purchaser,\n    address _stream,\n    address _gateKeeper\n  )\n    public\n    Secured(_gateKeeper)\n    CachedByAddress(this)\n  {\n    price = _price;\n    startTime = _startTime;\n    endTime = _endTime;\n    purchaser = _purchaser;\n    stream = _stream;\n  }\n\n  /**\n  * implementation of cacher methods\n  */\n  function invalidateCache(address _cachedAddress, bytes32 /*_cachedBytes32*/, uint256 /*_cachedUint256*/) public {\n    AddressCacheInvalidated(_cachedAddress);\n    super.invalidateCache();\n  }\n}\n",
  "sourcePath": "/Users/silkevandenbroeck/databrokerDAO/databrokerdao-dapi/contracts/purchase/Purchase.sol",
  "compiler": {
    "name": "solc",
    "version": "0.4.20+commit.3155dd80.Emscripten.clang"
  },
  "schemaVersion": "2.0.0",
  "updatedAt": "2018-03-06T14:39:35.272Z"
}