{
  "contractName": "PurchaseRegistryDispatcher",
  "abi": [
    {
      "constant": true,
      "inputs": [],
      "name": "UPGRADE_CONTRACT",
      "outputs": [
        {
          "name": "",
          "type": "bytes32"
        }
      ],
      "payable": false,
      "stateMutability": "view",
      "type": "function"
    },
    {
      "constant": true,
      "inputs": [],
      "name": "CHANGE_SETTINGS_ROLE",
      "outputs": [
        {
          "name": "",
          "type": "bytes32"
        }
      ],
      "payable": false,
      "stateMutability": "view",
      "type": "function"
    },
    {
      "constant": true,
      "inputs": [],
      "name": "CREATE_PERMISSIONS_ROLE",
      "outputs": [
        {
          "name": "",
          "type": "bytes32"
        }
      ],
      "payable": false,
      "stateMutability": "view",
      "type": "function"
    },
    {
      "constant": true,
      "inputs": [],
      "name": "gateKeeper",
      "outputs": [
        {
          "name": "",
          "type": "address"
        }
      ],
      "payable": false,
      "stateMutability": "view",
      "type": "function"
    },
    {
      "constant": false,
      "inputs": [
        {
          "name": "_target",
          "type": "address"
        }
      ],
      "name": "setTarget",
      "outputs": [],
      "payable": false,
      "stateMutability": "nonpayable",
      "type": "function"
    },
    {
      "constant": true,
      "inputs": [
        {
          "name": "",
          "type": "address"
        }
      ],
      "name": "purchases",
      "outputs": [
        {
          "name": "",
          "type": "address"
        }
      ],
      "payable": false,
      "stateMutability": "view",
      "type": "function"
    },
    {
      "constant": true,
      "inputs": [
        {
          "name": "",
          "type": "uint256"
        }
      ],
      "name": "purchasesIndex",
      "outputs": [
        {
          "name": "",
          "type": "address"
        }
      ],
      "payable": false,
      "stateMutability": "view",
      "type": "function"
    },
    {
      "constant": true,
      "inputs": [],
      "name": "target",
      "outputs": [
        {
          "name": "",
          "type": "address"
        }
      ],
      "payable": false,
      "stateMutability": "view",
      "type": "function"
    },
    {
      "constant": true,
      "inputs": [],
      "name": "token",
      "outputs": [
        {
          "name": "",
          "type": "address"
        }
      ],
      "payable": false,
      "stateMutability": "view",
      "type": "function"
    },
    {
      "inputs": [
        {
          "name": "_gateKeeper",
          "type": "address"
        },
        {
          "name": "_token",
          "type": "address"
        },
        {
          "name": "_sensorRegistry",
          "type": "address"
        }
      ],
      "payable": false,
      "stateMutability": "nonpayable",
      "type": "constructor"
    },
    {
      "payable": false,
      "stateMutability": "nonpayable",
      "type": "fallback"
    },
    {
      "anonymous": false,
      "inputs": [
        {
          "indexed": false,
          "name": "user",
          "type": "address"
        }
      ],
      "name": "Debug",
      "type": "event"
    }
  ],
  "bytecode": "0x6080604052600160065534801561001557600080fd5b506040516060806104a683398101604090815281516020830151919092015160008054600160a060020a0319908116600160a060020a0395861617825560048054821694861694909417909355600580549093169390911692909217905561042390819061008390396000f3006080604052600436106100985763ffffffff7c010000000000000000000000000000000000000000000000000000000060003504166317f8213981146100df5780633426ddd5146101065780633d6ab68f1461011b57806345d61ded14610130578063776d1a0114610161578063842a77d314610184578063b8e52d87146101a5578063d4b83992146101bd578063fc0c546a146101d2575b3480156100a457600080fd5b506001546000803591600160a060020a03169036908037600080366000846127105a03f43d806000803e8180156100da57816000f35b816000fd5b3480156100eb57600080fd5b506100f46101e7565b60408051918252519081900360200190f35b34801561011257600080fd5b506100f461020b565b34801561012757600080fd5b506100f461022f565b34801561013c57600080fd5b50610145610253565b60408051600160a060020a039092168252519081900360200190f35b34801561016d57600080fd5b50610182600160a060020a0360043516610262565b005b34801561019057600080fd5b50610145600160a060020a036004351661026e565b3480156101b157600080fd5b50610145600435610289565b3480156101c957600080fd5b506101456102b1565b3480156101de57600080fd5b506101456102c0565b7f555047524144455f434f4e54524143540000000000000000000000000000000081565b7f4348414e47455f53455454494e47535f524f4c4500000000000000000000000081565b7f4352454154455f5045524d495353494f4e535f524f4c4500000000000000000081565b600054600160a060020a031681565b61026b816102cf565b50565b600260205260009081526040902054600160a060020a031681565b600380548290811061029757fe5b600091825260209091200154600160a060020a0316905081565b600154600160a060020a031681565b600454600160a060020a031681565b7f555047524144455f434f4e5452414354000000000000000000000000000000006102fa3382610335565b151561030557600080fd5b506001805473ffffffffffffffffffffffffffffffffffffffff1916600160a060020a0392909216919091179055565b60008054600160a060020a031615806103f0575060008054604080517f6d6712d8000000000000000000000000000000000000000000000000000000008152600160a060020a03878116600483015230811660248301526044820187905291519190921692636d6712d892606480820193602093909283900390910190829087803b1580156103c357600080fd5b505af11580156103d7573d6000803e3d6000fd5b505050506040513d60208110156103ed57600080fd5b50515b93925050505600a165627a7a72305820004be0acae19d81867740c6a37993006bafc05ce4cb58afc896df020e8b2161d0029",
  "source": "pragma solidity ^0.4.20;\n\nimport \"@settlemint/solidity-mint/contracts/utility/upgrading/Dispatcher.sol\";\nimport \"../sensor/SensorRegistry.sol\";\nimport \"../dtxtoken/DtxToken.sol\";\nimport \"./Purchase.sol\";\n\n\n/**\n * Dispatches calls to the purchase registry\n */\ncontract PurchaseRegistryDispatcher is Dispatcher {\n\n  // Same state as contract it will refer to\n  bytes32 constant public CREATE_PERMISSIONS_ROLE = \"CREATE_PERMISSIONS_ROLE\";\n  bytes32 constant public CHANGE_SETTINGS_ROLE = \"CHANGE_SETTINGS_ROLE\";\n  mapping (address => Purchase) public purchases;\n  address[] public purchasesIndex;\n  DtxToken public token;\n  SensorRegistry sensorRegistry;\n  uint salePercentage = 1;\n\n  function PurchaseRegistryDispatcher(\n    address _gateKeeper,\n    address _token,\n    address _sensorRegistry\n  )\n    Secured(_gateKeeper)\n    public\n  {\n    // State also needs to initialized!\n    token = DtxToken(_token);\n    sensorRegistry = SensorRegistry(_sensorRegistry);\n  }\n}\n",
  "sourcePath": "/Users/silkevandenbroeck/databrokerDAO/databrokerdao-dapi/contracts/purchase/PurchaseRegistryDispatcher.sol",
  "compiler": {
    "name": "solc",
    "version": "0.4.22+commit.4cb486ee.Emscripten.clang"
  },
  "schemaVersion": "2.0.0",
  "updatedAt": "2018-05-09T13:59:52.623Z"
}