{
  "contractName": "PurchaseRegistry",
  "abi": [
    {
      "constant": true,
      "inputs": [],
      "name": "CHANGE_SETTINGS_ROLE",
      "outputs": [
        {
          "name": "",
          "type": "bytes32"
        }
      ],
      "payable": false,
      "stateMutability": "view",
      "type": "function"
    },
    {
      "constant": true,
      "inputs": [],
      "name": "CREATE_PERMISSIONS_ROLE",
      "outputs": [
        {
          "name": "",
          "type": "bytes32"
        }
      ],
      "payable": false,
      "stateMutability": "view",
      "type": "function"
    },
    {
      "constant": true,
      "inputs": [],
      "name": "gateKeeper",
      "outputs": [
        {
          "name": "",
          "type": "address"
        }
      ],
      "payable": false,
      "stateMutability": "view",
      "type": "function"
    },
    {
      "constant": true,
      "inputs": [
        {
          "name": "",
          "type": "address"
        }
      ],
      "name": "purchases",
      "outputs": [
        {
          "name": "",
          "type": "address"
        }
      ],
      "payable": false,
      "stateMutability": "view",
      "type": "function"
    },
    {
      "constant": true,
      "inputs": [
        {
          "name": "",
          "type": "uint256"
        }
      ],
      "name": "purchasesIndex",
      "outputs": [
        {
          "name": "",
          "type": "address"
        }
      ],
      "payable": false,
      "stateMutability": "view",
      "type": "function"
    },
    {
      "constant": true,
      "inputs": [],
      "name": "token",
      "outputs": [
        {
          "name": "",
          "type": "address"
        }
      ],
      "payable": false,
      "stateMutability": "view",
      "type": "function"
    },
    {
      "inputs": [
        {
          "name": "_gateKeeper",
          "type": "address"
        },
        {
          "name": "_token",
          "type": "address"
        },
        {
          "name": "_sensorRegistry",
          "type": "address"
        }
      ],
      "payable": false,
      "stateMutability": "nonpayable",
      "type": "constructor"
    },
    {
      "anonymous": false,
      "inputs": [
        {
          "indexed": false,
          "name": "sensor",
          "type": "address"
        },
        {
          "indexed": false,
          "name": "user",
          "type": "address"
        },
        {
          "indexed": false,
          "name": "startTime",
          "type": "uint256"
        },
        {
          "indexed": false,
          "name": "endTime",
          "type": "uint256"
        },
        {
          "indexed": false,
          "name": "price",
          "type": "uint256"
        },
        {
          "indexed": false,
          "name": "purchase",
          "type": "address"
        }
      ],
      "name": "AccessPurchased",
      "type": "event"
    },
    {
      "anonymous": false,
      "inputs": [
        {
          "indexed": false,
          "name": "value",
          "type": "uint256"
        }
      ],
      "name": "SalePercentageChanged",
      "type": "event"
    },
    {
      "anonymous": false,
      "inputs": [
        {
          "indexed": true,
          "name": "key",
          "type": "address"
        }
      ],
      "name": "AddressCacheInvalidated",
      "type": "event"
    },
    {
      "anonymous": false,
      "inputs": [
        {
          "indexed": true,
          "name": "key",
          "type": "bytes32"
        }
      ],
      "name": "Bytes32CacheInvalidated",
      "type": "event"
    },
    {
      "anonymous": false,
      "inputs": [
        {
          "indexed": true,
          "name": "key",
          "type": "uint256"
        }
      ],
      "name": "Uint256CacheInvalidated",
      "type": "event"
    },
    {
      "constant": false,
      "inputs": [
        {
          "name": "_sensor",
          "type": "address"
        },
        {
          "name": "_endTime",
          "type": "uint256"
        },
        {
          "name": "_metadata",
          "type": "string"
        }
      ],
      "name": "purchaseAccess",
      "outputs": [],
      "payable": false,
      "stateMutability": "nonpayable",
      "type": "function"
    },
    {
      "constant": false,
      "inputs": [
        {
          "name": "_salePercentage",
          "type": "uint256"
        }
      ],
      "name": "setSalePercentage",
      "outputs": [],
      "payable": false,
      "stateMutability": "nonpayable",
      "type": "function"
    },
    {
      "constant": true,
      "inputs": [],
      "name": "getIndexLength",
      "outputs": [
        {
          "name": "length",
          "type": "uint256"
        }
      ],
      "payable": false,
      "stateMutability": "view",
      "type": "function"
    },
    {
      "constant": true,
      "inputs": [
        {
          "name": "index",
          "type": "uint256"
        }
      ],
      "name": "getByIndex",
      "outputs": [
        {
          "name": "key",
          "type": "address"
        },
        {
          "name": "contractAddress",
          "type": "address"
        }
      ],
      "payable": false,
      "stateMutability": "view",
      "type": "function"
    },
    {
      "constant": true,
      "inputs": [
        {
          "name": "_key",
          "type": "address"
        }
      ],
      "name": "getByKey",
      "outputs": [
        {
          "name": "key",
          "type": "address"
        },
        {
          "name": "contractAddress",
          "type": "address"
        }
      ],
      "payable": false,
      "stateMutability": "view",
      "type": "function"
    },
    {
      "constant": false,
      "inputs": [
        {
          "name": "_cachedAddress",
          "type": "address"
        },
        {
          "name": "",
          "type": "bytes32"
        },
        {
          "name": "",
          "type": "uint256"
        }
      ],
      "name": "invalidateCache",
      "outputs": [],
      "payable": false,
      "stateMutability": "nonpayable",
      "type": "function"
    }
  ],
  "bytecode": "0x6080604052600160075534801561001557600080fd5b5060405160608061116983398101604090815281516020830151919092015160008054600160a060020a0319908116600160a060020a039586161782556001805482163087161790557f50757263686173655265676973747279000000000000000000000000000000006002556005805482169486169490941790935560068054909316939091169290921790556110b69081906100b390396000f3006080604052600436106100a05763ffffffff60e060020a6000350416632d883a7381146100a55780633426ddd5146100e35780633d188fab1461010a5780633d6ab68f1461013357806345d61ded14610148578063498770381461017957806372cc98501461019a578063842a77d3146101b2578063b8e52d87146101d3578063ba41f3d4146101eb578063e1ba7d0114610254578063fc0c546a14610269575b600080fd5b3480156100b157600080fd5b506100bd60043561027e565b60408051600160a060020a03938416815291909216602082015281519081900390910190f35b3480156100ef57600080fd5b506100f86102b6565b60408051918252519081900360200190f35b34801561011657600080fd5b50610131600160a060020a03600435166024356044356102da565b005b34801561013f57600080fd5b506100f8610313565b34801561015457600080fd5b5061015d610337565b60408051600160a060020a039092168252519081900360200190f35b34801561018557600080fd5b506100bd600160a060020a0360043516610346565b3480156101a657600080fd5b50610131600435610366565b3480156101be57600080fd5b5061015d600160a060020a03600435166103d8565b3480156101df57600080fd5b5061015d6004356103f3565b3480156101f757600080fd5b50604080516020600460443581810135601f8101849004840285018401909552848452610131948235600160a060020a031694602480359536959460649492019190819084018382808284375094975061041b9650505050505050565b34801561026057600080fd5b506100f8610995565b34801561027557600080fd5b5061015d61099b565b6000806102ad60048481548110151561029357fe5b600091825260209091200154600160a060020a0316610346565b91509150915091565b7f4348414e47455f53455454494e47535f524f4c4500000000000000000000000081565b604051600160a060020a038416907f2130e02bc65616aa7f8f548960f51a08a1d0ea94efb33611412208c2d0306a2290600090a2505050565b7f4352454154455f5045524d495353494f4e535f524f4c4500000000000000000081565b600054600160a060020a031681565b600160a060020a0390811660009081526003602052604090205416908190565b7f4348414e47455f53455454494e47535f524f4c4500000000000000000000000061039133826109aa565b151561039c57600080fd5b60078290556040805183815290517fd34e657b3ee017118fd2f0d6c68a6bb681b24ab59f0bb3f65768870a5bf9fbc19181900360200190a15050565b600360205260009081526040902054600160a060020a031681565b600480548290811061040157fe5b600091825260209091200154600160a060020a0316905081565b600080600080600087600160a060020a031663a035b1fe6040518163ffffffff1660e060020a028152600401602060405180830381600087803b15801561046157600080fd5b505af1158015610475573d6000803e3d6000fd5b505050506040513d602081101561048b57600080fd5b505194504293506104b26104a5888663ffffffff610a6e16565b869063ffffffff610a8016565b92506104da6104cd6064600754610aa990919063ffffffff16565b849063ffffffff610a8016565b9150600560009054906101000a9004600160a060020a0316600160a060020a03166323b872dd338a600160a060020a0316638da5cb5b6040518163ffffffff1660e060020a028152600401602060405180830381600087803b15801561053f57600080fd5b505af1158015610553573d6000803e3d6000fd5b505050506040513d602081101561056957600080fd5b505161057b878763ffffffff610a6e16565b6040805160e060020a63ffffffff8716028152600160a060020a0394851660048201529290931660248301526044820152905160648083019260209291908290030181600087803b1580156105cf57600080fd5b505af11580156105e3573d6000803e3d6000fd5b505050506040513d60208110156105f957600080fd5b5051151561060657600080fd5b600554604080517f23b872dd000000000000000000000000000000000000000000000000000000008152600160a060020a033381166004830152308116602483015260448201869052915191909216916323b872dd9160648083019260209291908290030181600087803b15801561067d57600080fd5b505af1158015610691573d6000803e3d6000fd5b505050506040513d60208110156106a757600080fd5b505115156106b457600080fd5b60005485908590899033908c90600160a060020a03166106d2610abe565b9586526020860194909452604080860193909352600160a060020a039182166060860152811660808501529190911660a0830152519081900360c001906000f080158015610724573d6000803e3d6000fd5b5060008054604080517fbe038478000000000000000000000000000000000000000000000000000000008152600160a060020a033381166004830181905286821660248401527f5550444154455f4d455441444154415f524f4c4500000000000000000000000060448401526064830152915194955091169263be0384789260848084019391929182900301818387803b1580156107c157600080fd5b505af11580156107d5573d6000803e3d6000fd5b50506040517f5cc075050000000000000000000000000000000000000000000000000000000081526020600482018181528a5160248401528a51600160a060020a0387169550635cc0750594508b9391928392604401919085019080838360005b8381101561084e578181015183820152602001610836565b50505050905090810190601f16801561087b5780820380516001836020036101000a031916815260200191505b5092505050600060405180830381600087803b15801561089a57600080fd5b505af11580156108ae573d6000803e3d6000fd5b505050600160a060020a038083166000818152600360209081526040808320805473ffffffffffffffffffffffffffffffffffffffff1990811686179091556004805460018101825594527f8a35acfbc15ff81a39ae7d344fd709f28e8600b4aa8c65c6b64bfe7fe36bd19b9093018054909316841790925581518d851681523390941690840152828101889052606083018b90526080830187905260a0830191909152517fa46fb31f0524729f82c7e370054d0f3ad832386ce8a7ecf09d7368594d30b30592509081900360c00190a161098b816000806102da565b5050505050505050565b60045490565b600554600160a060020a031681565b60008054600160a060020a03161580610a65575060008054604080517f6d6712d8000000000000000000000000000000000000000000000000000000008152600160a060020a03878116600483015230811660248301526044820187905291519190921692636d6712d892606480820193602093909283900390910190829087803b158015610a3857600080fd5b505af1158015610a4c573d6000803e3d6000fd5b505050506040513d6020811015610a6257600080fd5b50515b90505b92915050565b600082821115610a7a57fe5b50900390565b6000821515610a9157506000610a68565b50818102818382811515610aa157fe5b0414610a6857fe5b60008183811515610ab657fe5b049392505050565b6040516105bc80610acf833901905600608060405234801561001057600080fd5b5060405160c0806105bc83398101604090815281516020830151918301516060840151608085015160a09095015160008054600160a060020a03928316600160a060020a031991821617909155600180543084169083161790556003949094556004949094556005919091556006805491841691831691909117905560078054929093169116179055610514806100a86000396000f3006080604052600436106100a35763ffffffff7c01000000000000000000000000000000000000000000000000000000006000350416633197cbb681146100a8578063392f37e9146100cf5780633d188fab1461015957806345d61ded146101825780635a77dc46146101b35780635cc07505146101c857806378e9792514610221578063a035b1fe14610236578063f57c34db1461024b578063fff139cf14610260575b600080fd5b3480156100b457600080fd5b506100bd610275565b60408051918252519081900360200190f35b3480156100db57600080fd5b506100e461027b565b6040805160208082528351818301528351919283929083019185019080838360005b8381101561011e578181015183820152602001610106565b50505050905090810190601f16801561014b5780820380516001836020036101000a031916815260200191505b509250505060405180910390f35b34801561016557600080fd5b50610180600160a060020a0360043516602435604435610306565b005b34801561018e57600080fd5b5061019761033f565b60408051600160a060020a039092168252519081900360200190f35b3480156101bf57600080fd5b5061019761034e565b3480156101d457600080fd5b506040805160206004803580820135601f810184900484028501840190955284845261018094369492936024939284019190819084018382808284375094975061035d9650505050505050565b34801561022d57600080fd5b506100bd610371565b34801561024257600080fd5b506100bd610377565b34801561025757600080fd5b5061019761037d565b34801561026c57600080fd5b506100bd61038c565b60055481565b6002805460408051602060018416156101000260001901909316849004601f810184900484028201840190925281815292918301828280156102fe5780601f106102d3576101008083540402835291602001916102fe565b820191906000526020600020905b8154815290600101906020018083116102e157829003601f168201915b505050505081565b604051600160a060020a038416907f2130e02bc65616aa7f8f548960f51a08a1d0ea94efb33611412208c2d0306a2290600090a2505050565b600054600160a060020a031681565b600654600160a060020a031681565b610366816103b0565b61036e6103c7565b50565b60045481565b60035481565b600754600160a060020a031681565b7f5550444154455f4d455441444154415f524f4c4500000000000000000000000081565b80516103c390600290602084019061044d565b5050565b600154604080517f3d188fab000000000000000000000000000000000000000000000000000000008152600160a060020a0330811660048301526000604483018190529251931692633d188fab9260648084019391929182900301818387803b15801561043357600080fd5b505af1158015610447573d6000803e3d6000fd5b50505050565b828054600181600116156101000203166002900490600052602060002090601f016020900481019282601f1061048e57805160ff19168380011785556104bb565b828001600101855582156104bb579182015b828111156104bb5782518255916020019190600101906104a0565b506104c79291506104cb565b5090565b6104e591905b808211156104c757600081556001016104d1565b905600a165627a7a723058206f8d44180e40aca8a1770bb60d61850e12f7d8c7ebf4abdc95ae77e96b1fc24d0029a165627a7a72305820f2b66f916c850435b76729fea97d641b4f8ed0d33ee00b1d8a1c3c0f902b11b90029",
  "source": "pragma solidity ^0.4.20;\n\nimport \"./Purchase.sol\";\nimport \"../sensor/Sensor.sol\";\nimport \"../sensor/SensorRegistry.sol\";\nimport \"../dtxtoken/DtxToken.sol\";\nimport \"@settlemint/solidity-mint/contracts/authentication/Secured.sol\";\nimport \"@settlemint/solidity-mint/contracts/authentication/GateKeeper.sol\";\nimport \"@settlemint/solidity-mint/contracts/utility/syncing/Syncable.sol\";\nimport \"@settlemint/solidity-mint/contracts/utility/caching/Cacher.sol\";\nimport \"@settlemint/solidity-mint/contracts/utility/caching/CachedByBytes32.sol\";\n\n/**\n * Contains all purchases of sensors\n */\ncontract PurchaseRegistry is Secured, Syncable, Cacher, CachedByBytes32 {\n  using SafeMath for uint256;\n\n  bytes32 constant public CREATE_PERMISSIONS_ROLE = \"CREATE_PERMISSIONS_ROLE\";\n  bytes32 constant public CHANGE_SETTINGS_ROLE = \"CHANGE_SETTINGS_ROLE\";\n\n  event AccessPurchased(address sensor, address user, uint startTime, uint endTime, uint price, address purchase);\n  event SalePercentageChanged(uint value);\n\n  mapping (address => Purchase) public purchases;\n  address[] public purchasesIndex;\n\n  DtxToken public token;\n  SensorRegistry sensorRegistry;\n  uint salePercentage = 1;\n\n  /**\n  @dev Contructor\n  @notice                Sets the address for token\n  @param _gateKeeper     Address of the gatekeeper\n  @param _token          Address of the token\n  */\n  function PurchaseRegistry(\n    address _gateKeeper,\n    address _token,\n    address _sensorRegistry\n  )\n    Secured(_gateKeeper)\n    CachedByBytes32(\"PurchaseRegistry\", this)\n    public\n  {\n    token = DtxToken(_token);\n    sensorRegistry = SensorRegistry(_sensorRegistry);\n  }\n\n  /**\n  @notice               Lets the sender buy access to the sensor\n  @param _sensor        Id of the listing\n  @param _endTime       Timestamp of when the user will stop receiving sensor readings in seconds (not milliseconds!)\n  */\n  function purchaseAccess(address _sensor, uint _endTime, string _metadata) public {\n    // Calculate total cost for the user\n    uint _sensorPricePerSecond = Sensor(_sensor).price();\n    uint _startTime = now;\n    uint _sensorPrice = _sensorPricePerSecond.mul(_endTime.sub(_startTime));\n\n    // Pay out:\n    uint _salePercentage = _sensorPrice.mul(salePercentage.div(100));\n    // Sensor owner\n    require(token.transferFrom(msg.sender, Sensor(_sensor).owner(), _sensorPrice.sub(_salePercentage)));\n    // DBDAO\n    require(token.transferFrom(msg.sender, this, _salePercentage));\n\n    // Create purchase\n    Purchase _purchase = new Purchase(\n      _sensorPricePerSecond,\n      _startTime,\n      _endTime,\n      msg.sender,\n      _sensor,\n      address(gateKeeper)\n    );\n\n    // Metadata role\n    gateKeeper.createPermission(\n      msg.sender,\n      address(_purchase),\n      bytes32(\"UPDATE_METADATA_ROLE\"),\n      msg.sender\n    );\n\n    // Add metadata\n    _purchase.updateMetaData(_metadata);\n\n    // Push to mapping\n    purchases[address(_purchase)] = Purchase(address(_purchase));\n    purchasesIndex.push(address(_purchase));\n\n    emit AccessPurchased(_sensor, msg.sender, _startTime, _endTime, _sensorPrice, address(_purchase));\n    invalidateCache(_purchase, \"\", 0);\n  }\n\n  /**\n  @notice                Sets the sale percentage\n  @param _salePercentage salePercentage\n  */\n  function setSalePercentage(uint _salePercentage) auth(CHANGE_SETTINGS_ROLE) public {\n    salePercentage = _salePercentage;\n    emit SalePercentageChanged(_salePercentage);\n  }\n\n  /**\n  * implementation of syncable methods\n  */\n  function getIndexLength() public view returns (uint length) {\n    length = purchasesIndex.length;\n  }\n\n  function getByIndex(uint index) public view returns (address key, address contractAddress) {\n    return getByKey(purchasesIndex[index]);\n  }\n\n  function getByKey(address _key) public view returns (address key, address contractAddress) {\n    key = address(purchases[_key]);\n    contractAddress = address(purchases[_key]);\n  }\n\n  /**\n  * implementation of cacher methods\n  */\n  function invalidateCache(address _cachedAddress, bytes32 /*_cachedBytes32*/, uint256 /*_cachedUint256*/) public {\n    emit AddressCacheInvalidated(_cachedAddress);\n  }\n}\n",
  "sourcePath": "/Users/silkevandenbroeck/databrokerDAO/databrokerdao-dapi/contracts/purchase/PurchaseRegistry.sol",
  "compiler": {
    "name": "solc",
    "version": "0.4.22+commit.4cb486ee.Emscripten.clang"
  },
  "schemaVersion": "2.0.0",
  "updatedAt": "2018-05-07T07:25:33.181Z"
}