{
  "contractName": "PurchaseRegistry",
  "abi": [
    {
      "constant": true,
      "inputs": [],
      "name": "gateKeeper",
      "outputs": [
        {
          "name": "",
          "type": "address"
        }
      ],
      "payable": false,
      "stateMutability": "view",
      "type": "function"
    },
    {
      "constant": true,
      "inputs": [
        {
          "name": "",
          "type": "address"
        }
      ],
      "name": "purchases",
      "outputs": [
        {
          "name": "",
          "type": "address"
        }
      ],
      "payable": false,
      "stateMutability": "view",
      "type": "function"
    },
    {
      "constant": true,
      "inputs": [
        {
          "name": "",
          "type": "uint256"
        }
      ],
      "name": "purchasesIndex",
      "outputs": [
        {
          "name": "",
          "type": "address"
        }
      ],
      "payable": false,
      "stateMutability": "view",
      "type": "function"
    },
    {
      "constant": true,
      "inputs": [],
      "name": "token",
      "outputs": [
        {
          "name": "",
          "type": "address"
        }
      ],
      "payable": false,
      "stateMutability": "view",
      "type": "function"
    },
    {
      "inputs": [
        {
          "name": "_gateKeeper",
          "type": "address"
        },
        {
          "name": "_token",
          "type": "address"
        },
        {
          "name": "_streamRegistry",
          "type": "address"
        }
      ],
      "payable": false,
      "stateMutability": "nonpayable",
      "type": "constructor"
    },
    {
      "anonymous": false,
      "inputs": [
        {
          "indexed": false,
          "name": "stream",
          "type": "address"
        },
        {
          "indexed": false,
          "name": "user",
          "type": "address"
        },
        {
          "indexed": false,
          "name": "startTime",
          "type": "uint256"
        },
        {
          "indexed": false,
          "name": "endTime",
          "type": "uint256"
        },
        {
          "indexed": false,
          "name": "price",
          "type": "uint256"
        },
        {
          "indexed": false,
          "name": "purchase",
          "type": "address"
        }
      ],
      "name": "AccessPurchased",
      "type": "event"
    },
    {
      "anonymous": false,
      "inputs": [
        {
          "indexed": true,
          "name": "key",
          "type": "address"
        }
      ],
      "name": "AddressCacheInvalidated",
      "type": "event"
    },
    {
      "anonymous": false,
      "inputs": [
        {
          "indexed": true,
          "name": "key",
          "type": "bytes32"
        }
      ],
      "name": "Bytes32CacheInvalidated",
      "type": "event"
    },
    {
      "anonymous": false,
      "inputs": [
        {
          "indexed": true,
          "name": "key",
          "type": "uint256"
        }
      ],
      "name": "Uint256CacheInvalidated",
      "type": "event"
    },
    {
      "constant": false,
      "inputs": [
        {
          "name": "_stream",
          "type": "address"
        },
        {
          "name": "_endTime",
          "type": "uint256"
        }
      ],
      "name": "purchaseAccess",
      "outputs": [],
      "payable": false,
      "stateMutability": "nonpayable",
      "type": "function"
    },
    {
      "constant": false,
      "inputs": [
        {
          "name": "_salePercentage",
          "type": "uint256"
        }
      ],
      "name": "setSalePercentage",
      "outputs": [],
      "payable": false,
      "stateMutability": "nonpayable",
      "type": "function"
    },
    {
      "constant": false,
      "inputs": [
        {
          "name": "_stream",
          "type": "address"
        }
      ],
      "name": "hasAccess",
      "outputs": [
        {
          "name": "access",
          "type": "bool"
        }
      ],
      "payable": false,
      "stateMutability": "nonpayable",
      "type": "function"
    },
    {
      "constant": true,
      "inputs": [],
      "name": "getIndexLength",
      "outputs": [
        {
          "name": "length",
          "type": "uint256"
        }
      ],
      "payable": false,
      "stateMutability": "view",
      "type": "function"
    },
    {
      "constant": true,
      "inputs": [
        {
          "name": "index",
          "type": "uint256"
        }
      ],
      "name": "getByIndex",
      "outputs": [
        {
          "name": "contractAddress",
          "type": "address"
        }
      ],
      "payable": false,
      "stateMutability": "view",
      "type": "function"
    },
    {
      "constant": true,
      "inputs": [
        {
          "name": "_key",
          "type": "address"
        }
      ],
      "name": "getByKey",
      "outputs": [
        {
          "name": "contractAddress",
          "type": "address"
        }
      ],
      "payable": false,
      "stateMutability": "view",
      "type": "function"
    },
    {
      "constant": false,
      "inputs": [
        {
          "name": "",
          "type": "address"
        },
        {
          "name": "_cachedBytes32",
          "type": "bytes32"
        },
        {
          "name": "",
          "type": "uint256"
        }
      ],
      "name": "invalidateCache",
      "outputs": [],
      "payable": false,
      "stateMutability": "nonpayable",
      "type": "function"
    }
  ],
  "bytecode": "0x60606040526001600855341561001457600080fd5b604051606080610f618339810160405261003790678000000000000000906100cd565b60008054600160a060020a0319908116600160a060020a039586169081179092556001805482163087161790557f5075726368617365526567697374727900000000000000000000000000000000600255600580548216948616949094179093556006805484169290941691909117909255600780549091169091179055610126565b60006100c6825161011a565b9392505050565b6000806000606084860312156100e257600080fd5b60006100ee86866100ba565b93505060206100ff868287016100ba565b9250506040610110868287016100ba565b9150509250925092565b600160a060020a031690565b610e2c806101356000396000f3006060604052600436106100955763ffffffff60e060020a6000350416630999f424811461009a5780632d883a73146100ba5780633d188fab146100ee57806345d61ded1461010c578063498770381461012c57806372cc98501461014a578063842a77d31461016857806395a078e814610186578063b8e52d87146101b1578063e1ba7d01146101cf578063fc0c546a146101ef575b600080fd5b34156100a557600080fd5b6100b86100b33660046108b9565b610202565b005b34156100c557600080fd5b6100d86100d33660046108f3565b6105a6565b6040516100e59190610944565b60405180910390f35b34156100f957600080fd5b6100b861010736600461086c565b6105da565b341561011757600080fd5b61011f610614565b6040516100e59190610a40565b341561013757600080fd5b6100d8610145366004610846565b610623565b341561015557600080fd5b6100b86101633660046108f3565b610641565b341561017357600080fd5b61011f610181366004610846565b610646565b341561019157600080fd5b6101a461019f366004610846565b610661565b6040516100e59190610a32565b34156101bc57600080fd5b6100d86101ca3660046108f3565b6106d4565b34156101da57600080fd5b6101e26106fc565b6040516100e59190610a4e565b34156101fa57600080fd5b61011f610702565b6006546000908190819081908190600160a060020a0316633c1b12b68883604051602001526040518263ffffffff1660e060020a0281526004016102469190610944565b602060405180830381600087803b151561025f57600080fd5b6102c65a03f1151561027057600080fd5b5050506040518051955042945061029f9050610292878663ffffffff61071116565b869063ffffffff61072316565b92506102c76102ba606460085461075990919063ffffffff16565b849063ffffffff61072316565b600554600654919350600160a060020a03908116916323b872dd9133911663a72b0d2d8b6000604051602001526040518263ffffffff1660e060020a0281526004016103139190610944565b602060405180830381600087803b151561032c57600080fd5b6102c65a03f1151561033d57600080fd5b50505060405180519050610357878763ffffffff61071116565b6000604051602001526040518463ffffffff1660e060020a0281526004016103819392919061096d565b602060405180830381600087803b151561039a57600080fd5b6102c65a03f115156103ab57600080fd5b5050506040518051905015156103c057600080fd5b600554600160a060020a03166323b872dd3330856000604051602001526040518463ffffffff1660e060020a0281526004016103fe93929190610a17565b602060405180830381600087803b151561041757600080fd5b6102c65a03f1151561042857600080fd5b50505060405180519050151561043d57600080fd5b60075485908590889033908b90600160a060020a031661045b6107d7565b61046a96959493929190610a5c565b604051809103906000f080151561048057600080fd5b600160a060020a0381166000818152600360205260409020805473ffffffffffffffffffffffffffffffffffffffff191690911790556004805491925090600181016104cc83826107e7565b506000918252602090912001805473ffffffffffffffffffffffffffffffffffffffff191633600160a060020a03818116929092179092558816906390a4b8d59083906040518363ffffffff1660e060020a02815260040161052f929190610952565b600060405180830381600087803b151561054857600080fd5b6102c65a03f1151561055957600080fd5b5050507fa46fb31f0524729f82c7e370054d0f3ad832386ce8a7ecf09d7368594d30b30587338689878660405161059596959493929190610995565b60405180910390a150505050505050565b60006105d46004838154811015156105ba57fe5b600091825260209091200154600160a060020a0316610623565b92915050565b817fd5c977477c90fd6c009dd3275798b51da8bd2df8e0a25be47773f87b53d2e39960405160405180910390a261060f610770565b505050565b600054600160a060020a031681565b600160a060020a039081166000908152600360205260409020541690565b600855565b600360205260009081526040902054600160a060020a031681565b600081600160a060020a03166395a078e8336000604051602001526040518263ffffffff1660e060020a02815260040161069b9190610944565b602060405180830381600087803b15156106b457600080fd5b6102c65a03f115156106c557600080fd5b50505060405180519392505050565b60048054829081106106e257fe5b600091825260209091200154600160a060020a0316905081565b60045490565b600554600160a060020a031681565b60008282111561071d57fe5b50900390565b6000808315156107365760009150610752565b5082820282848281151561074657fe5b041461074e57fe5b8091505b5092915050565b600080828481151561076757fe5b04949350505050565b600154600254600160a060020a0390911690633d188fab90600090816040518463ffffffff1660e060020a0281526004016107ad939291906109ef565b600060405180830381600087803b15156107c657600080fd5b6102c65a03f1151561060f57600080fd5b60405161032d80610ac683390190565b81548183558181151161060f5760008381526020902061060f91810190830161082491905b80821115610820576000815560010161080c565b5090565b90565b60006108338235610a9e565b9392505050565b60006108338235610824565b60006020828403121561085857600080fd5b60006108648484610827565b949350505050565b60008060006060848603121561088157600080fd5b600061088d8686610827565b935050602061089e8682870161083a565b92505060406108af8682870161083a565b9150509250925092565b600080604083850312156108cc57600080fd5b60006108d88585610827565b92505060206108e98582860161083a565b9150509250929050565b60006020828403121561090557600080fd5b6000610864848461083a565b61091a81610a9e565b82525050565b61091a81610aaa565b61091a81610824565b61091a81610aaf565b61091a81610aba565b602081016105d48284610911565b604081016109608285610911565b6108336020830184610911565b6060810161097b8286610911565b6109886020830185610911565b6108646040830184610929565b60c081016109a38289610911565b6109b06020830188610911565b6109bd6040830187610929565b6109ca6060830186610929565b6109d76080830185610929565b6109e460a0830184610911565b979650505050505050565b606081016109fd8286610911565b610a0a6020830185610929565b610864604083018461093b565b60608101610a258286610911565b6109886020830185610932565b602081016105d48284610920565b602081016105d48284610932565b602081016105d48284610929565b60c08101610a6a8289610929565b610a776020830188610929565b610a846040830187610929565b610a916060830186610911565b6109d76080830185610911565b600160a060020a031690565b151590565b60006105d482610a9e565b60006105d48261082456006060604052341561000f57600080fd5b60405160c08061032d83398101604052808051919060200180519190602001805191906020018051919060200180519190602001805160008054600160a060020a0319908116600160a060020a039384161782556001805482163085161790556002999099556003979097556004959095555050600580548616928416929092179091556006805490941691161790915561027d9081906100b090396000f3006060604052600436106100825763ffffffff7c01000000000000000000000000000000000000000000000000000000006000350416633197cbb681146100875780633d188fab146100ac57806345d61ded146100d35780635a77dc46146101025780636f2a67911461011557806378e9792514610128578063a035b1fe1461013b575b600080fd5b341561009257600080fd5b61009a61014e565b60405190815260200160405180910390f35b34156100b757600080fd5b6100d1600160a060020a0360043516602435604435610154565b005b34156100de57600080fd5b6100e6610197565b604051600160a060020a03909116815260200160405180910390f35b341561010d57600080fd5b6100e66101a6565b341561012057600080fd5b6100e66101b5565b341561013357600080fd5b61009a6101c4565b341561014657600080fd5b61009a6101ca565b60045481565b82600160a060020a03167f2130e02bc65616aa7f8f548960f51a08a1d0ea94efb33611412208c2d0306a2260405160405180910390a26101926101d0565b505050565b600054600160a060020a031681565b600554600160a060020a031681565b600654600160a060020a031681565b60035481565b60025481565b600154600160a060020a0316633d188fab3060006040517c010000000000000000000000000000000000000000000000000000000063ffffffff8516028152600160a060020a0390921660048301526044820152606401600060405180830381600087803b151561024057600080fd5b6102c65a03f1151561019257600080fd00a165627a7a72305820599e2000526a9befa1c51f908c1343da0b2b090cd2563a8c7418273eacf58d9c0029a265627a7a723058205e7f0d6daec05a3c85e5fb8f4324f5158cc84f39dadad048ffee3bca92ca4bfe6c6578706572696d656e74616cf50037",
  "source": "pragma solidity ^0.4.20;\npragma experimental ABIEncoderV2;\n\nimport \"./Purchase.sol\";\nimport \"../stream/Stream.sol\";\nimport \"../stream/StreamRegistry.sol\";\nimport \"../dtxtoken/DtxToken.sol\";\nimport \"@settlemint/solidity-mint/contracts/authentication/Secured.sol\";\nimport \"@settlemint/solidity-mint/contracts/utility/syncing/Syncable.sol\";\nimport \"@settlemint/solidity-mint/contracts/utility/caching/Cacher.sol\";\nimport \"@settlemint/solidity-mint/contracts/utility/caching/CachedByBytes32.sol\";\nimport \"zeppelin-solidity/contracts/math/SafeMath.sol\";\n\n\ncontract PurchaseRegistry is Secured, Syncable, Cacher, CachedByBytes32 {\n  using SafeMath for uint256;\n\n  event AccessPurchased(address stream, address user, uint startTime, uint endTime, uint price, address purchase);\n\n  mapping (address => Purchase) public purchases;\n  address[] public purchasesIndex;\n\n  DtxToken public token;\n  StreamRegistry streamRegistry;\n  address gateKeeper;\n  uint salePercentage = 1;\n\n  /**\n  @dev Contructor\n  @notice                Sets the address for token\n  @param _gateKeeper     Address of the gatekeeper\n  @param _token          Address of the token\n  */\n  function PurchaseRegistry(\n    address _gateKeeper,\n    address _token,\n    address _streamRegistry\n  )\n    Secured(_gateKeeper)\n    CachedByBytes32(\"PurchaseRegistry\", this)\n    public\n  {\n    token = DtxToken(_token);\n    streamRegistry = StreamRegistry(_streamRegistry);\n\n    gateKeeper = _gateKeeper;\n  }\n\n  /**\n  @notice               Lets the sender buy access to the Stream\n  @param _stream        Id of the listing\n  @param _endTime       Timestamp of when the user will stop receiving Stream readings in seconds (not milliseconds!)\n  */\n  function purchaseAccess(address _stream, uint _endTime) public {\n    // Calculate total cost for the user\n    uint _streamPricePerSecond = streamRegistry.getStreamPrice(_stream);\n    uint _startTime = now;\n    uint _streamPrice = _streamPricePerSecond.mul(_endTime.sub(_startTime));\n\n    // Pay out:\n    uint _salePercentage = _streamPrice.mul(salePercentage.div(100));\n    // Sensor owner\n    require(token.transferFrom(msg.sender, streamRegistry.getStreamOwner(_stream), _streamPrice.sub(_salePercentage)));\n    // DBDAO\n    require(token.transferFrom(msg.sender, this, _salePercentage));\n\n    // Create purchase\n    Purchase purchase = new Purchase(\n      _streamPricePerSecond,\n      _startTime,\n      _endTime,\n      msg.sender,\n      _stream,\n      gateKeeper\n    );\n\n    // Push to mapping\n    purchases[address(purchase)] = purchase;\n    purchasesIndex.push(msg.sender);\n\n    // Push to mapping in the stream\n    Stream(_stream).addPurchase(address(purchase), msg.sender);\n\n    AccessPurchased(_stream, msg.sender, _startTime, _endTime, _streamPrice, address(purchase));\n  }\n\n  /**\n  @notice                Sets the sale percentage\n  @param _salePercentage salePercentage\n  */\n  function setSalePercentage(uint _salePercentage) public {\n    salePercentage = _salePercentage;\n  }\n\n  /**\n  @notice             Returns wether or user has access to\n  @param _stream      Address of the stream\n  */\n  function hasAccess(address _stream) external returns (bool access) {\n    return Stream(_stream).hasAccess(msg.sender);\n  }\n\n  /**\n  * implementation of syncable methods\n  */\n  function getIndexLength() public view returns (uint length) {\n    length = purchasesIndex.length;\n  }\n\n  function getByIndex(uint index) public view returns (address contractAddress) {\n    return getByKey(purchasesIndex[index]);\n  }\n\n  function getByKey(address _key) public view returns (address contractAddress) {\n    contractAddress = address(purchases[_key]);\n  }\n\n  /**\n  * implementation of cacher methods\n  */\n  function invalidateCache(address /*_cachedAddress*/, bytes32 _cachedBytes32, uint256 /*_cachedUint256*/) public {\n    Bytes32CacheInvalidated(_cachedBytes32);\n    super.invalidateCache();\n  }\n}\n",
  "sourcePath": "/Users/silkevandenbroeck/databrokerDAO/databrokerdao-dapi/contracts/purchase/PurchaseRegistry.sol",
  "compiler": {
    "name": "solc",
    "version": "0.4.20+commit.3155dd80.Emscripten.clang"
  },
  "schemaVersion": "1.0.1",
  "updatedAt": "2018-02-26T13:52:24.396Z"
}