{
  "contractName": "Purchase",
  "abi": [
    {
      "constant": true,
      "inputs": [],
      "name": "endTime",
      "outputs": [
        {
          "name": "",
          "type": "uint256"
        }
      ],
      "payable": false,
      "stateMutability": "view",
      "type": "function"
    },
    {
      "constant": true,
      "inputs": [],
      "name": "metadata",
      "outputs": [
        {
          "name": "",
          "type": "string"
        }
      ],
      "payable": false,
      "stateMutability": "view",
      "type": "function"
    },
    {
      "constant": true,
      "inputs": [],
      "name": "gateKeeper",
      "outputs": [
        {
          "name": "",
          "type": "address"
        }
      ],
      "payable": false,
      "stateMutability": "view",
      "type": "function"
    },
    {
      "constant": true,
      "inputs": [],
      "name": "purchaser",
      "outputs": [
        {
          "name": "",
          "type": "address"
        }
      ],
      "payable": false,
      "stateMutability": "view",
      "type": "function"
    },
    {
      "constant": true,
      "inputs": [],
      "name": "startTime",
      "outputs": [
        {
          "name": "",
          "type": "uint256"
        }
      ],
      "payable": false,
      "stateMutability": "view",
      "type": "function"
    },
    {
      "constant": true,
      "inputs": [],
      "name": "price",
      "outputs": [
        {
          "name": "",
          "type": "uint256"
        }
      ],
      "payable": false,
      "stateMutability": "view",
      "type": "function"
    },
    {
      "constant": true,
      "inputs": [],
      "name": "sensor",
      "outputs": [
        {
          "name": "",
          "type": "address"
        }
      ],
      "payable": false,
      "stateMutability": "view",
      "type": "function"
    },
    {
      "constant": true,
      "inputs": [],
      "name": "UPDATE_METADATA_ROLE",
      "outputs": [
        {
          "name": "",
          "type": "bytes32"
        }
      ],
      "payable": false,
      "stateMutability": "view",
      "type": "function"
    },
    {
      "inputs": [
        {
          "name": "_price",
          "type": "uint256"
        },
        {
          "name": "_startTime",
          "type": "uint256"
        },
        {
          "name": "_endTime",
          "type": "uint256"
        },
        {
          "name": "_purchaser",
          "type": "address"
        },
        {
          "name": "_sensor",
          "type": "address"
        },
        {
          "name": "_gateKeeper",
          "type": "address"
        }
      ],
      "payable": false,
      "stateMutability": "nonpayable",
      "type": "constructor"
    },
    {
      "anonymous": false,
      "inputs": [
        {
          "indexed": true,
          "name": "key",
          "type": "address"
        }
      ],
      "name": "AddressCacheInvalidated",
      "type": "event"
    },
    {
      "anonymous": false,
      "inputs": [
        {
          "indexed": true,
          "name": "key",
          "type": "bytes32"
        }
      ],
      "name": "Bytes32CacheInvalidated",
      "type": "event"
    },
    {
      "anonymous": false,
      "inputs": [
        {
          "indexed": true,
          "name": "key",
          "type": "uint256"
        }
      ],
      "name": "Uint256CacheInvalidated",
      "type": "event"
    },
    {
      "constant": false,
      "inputs": [
        {
          "name": "_cachedAddress",
          "type": "address"
        },
        {
          "name": "",
          "type": "bytes32"
        },
        {
          "name": "",
          "type": "uint256"
        }
      ],
      "name": "invalidateCache",
      "outputs": [],
      "payable": false,
      "stateMutability": "nonpayable",
      "type": "function"
    },
    {
      "constant": false,
      "inputs": [
        {
          "name": "ipfsHash",
          "type": "string"
        }
      ],
      "name": "updateMetaData",
      "outputs": [],
      "payable": false,
      "stateMutability": "nonpayable",
      "type": "function"
    }
  ],
  "bytecode": "0x608060405234801561001057600080fd5b5060405160c0806105b883398101604090815281516020830151918301516060840151608085015160a09095015160008054600160a060020a03928316600160a060020a031991821617909155600180548216301790556003949094556004949094556005919091556006805491841691831691909117905560078054929093169116179055610513806100a56000396000f3006080604052600436106100a35763ffffffff7c01000000000000000000000000000000000000000000000000000000006000350416633197cbb681146100a8578063392f37e9146100cf5780633d188fab1461015957806345d61ded146101825780635a77dc46146101b35780635cc07505146101c857806378e9792514610221578063a035b1fe14610236578063f57c34db1461024b578063fff139cf14610260575b600080fd5b3480156100b457600080fd5b506100bd610275565b60408051918252519081900360200190f35b3480156100db57600080fd5b506100e461027b565b6040805160208082528351818301528351919283929083019185019080838360005b8381101561011e578181015183820152602001610106565b50505050905090810190601f16801561014b5780820380516001836020036101000a031916815260200191505b509250505060405180910390f35b34801561016557600080fd5b50610180600160a060020a0360043516602435604435610306565b005b34801561018e57600080fd5b5061019761033f565b60408051600160a060020a039092168252519081900360200190f35b3480156101bf57600080fd5b5061019761034e565b3480156101d457600080fd5b506040805160206004803580820135601f810184900484028501840190955284845261018094369492936024939284019190819084018382808284375094975061035d9650505050505050565b34801561022d57600080fd5b506100bd610371565b34801561024257600080fd5b506100bd610377565b34801561025757600080fd5b5061019761037d565b34801561026c57600080fd5b506100bd61038c565b60055481565b6002805460408051602060018416156101000260001901909316849004601f810184900484028201840190925281815292918301828280156102fe5780601f106102d3576101008083540402835291602001916102fe565b820191906000526020600020905b8154815290600101906020018083116102e157829003601f168201915b505050505081565b604051600160a060020a038416907f2130e02bc65616aa7f8f548960f51a08a1d0ea94efb33611412208c2d0306a2290600090a2505050565b600054600160a060020a031681565b600654600160a060020a031681565b610366816103b0565b61036e6103c7565b50565b60045481565b60035481565b600754600160a060020a031681565b7f5550444154455f4d455441444154415f524f4c4500000000000000000000000081565b80516103c390600290602084019061044c565b5050565b600154604080517f3d188fab0000000000000000000000000000000000000000000000000000000081523060048201526000604482018190529151600160a060020a0390931692633d188fab9260648084019391929182900301818387803b15801561043257600080fd5b505af1158015610446573d6000803e3d6000fd5b50505050565b828054600181600116156101000203166002900490600052602060002090601f016020900481019282601f1061048d57805160ff19168380011785556104ba565b828001600101855582156104ba579182015b828111156104ba57825182559160200191906001019061049f565b506104c69291506104ca565b5090565b6104e491905b808211156104c657600081556001016104d0565b905600a165627a7a72305820971fdea509d5197e57a536012d624691d757dabbcc9acf39296106ce9b85b5280029",
  "source": "pragma solidity ^0.4.24;\n\nimport \"@settlemint/solidity-mint/contracts/authentication/Secured.sol\";\nimport \"@settlemint/solidity-mint/contracts/utility/syncing/Syncable.sol\";\nimport \"@settlemint/solidity-mint/contracts/utility/caching/Cacher.sol\";\nimport \"@settlemint/solidity-mint/contracts/utility/caching/CachedByAddress.sol\";\nimport \"@settlemint/solidity-mint/contracts/utility/metadata/MetaDataContainer.sol\";\n\n\n/**\n * Contains one sensor purchase entity\n */\ncontract Purchase is Secured, Cacher, CachedByAddress, MetaDataContainer {\n\n  uint public price; // price per second for which access was purchased\n  uint public startTime; // the time at which the purchaser will gain access to this sensor\n  uint public endTime; // the time at which the purchaser will lose access to this sensor\n  address public purchaser; // address of the user\n  address public sensor; // id of the sensor to which access was purchased\n\n  constructor(\n    uint _price,\n    uint _startTime,\n    uint _endTime,\n    address _purchaser,\n    address _sensor,\n    address _gateKeeper\n  )\n    public\n    Secured(_gateKeeper)\n    CachedByAddress(this)\n  {\n    price = _price;\n    startTime = _startTime;\n    endTime = _endTime;\n    purchaser = _purchaser;\n    sensor = _sensor;\n  }\n\n  /**\n  * implementation of cacher methods\n  */\n  function invalidateCache(address _cachedAddress, bytes32 /*_cachedBytes32*/, uint256 /*_cachedUint256*/) public {\n    emit AddressCacheInvalidated(_cachedAddress);\n  }\n\n  /**\n  * implementation of metadata methods\n  */\n  function updateMetaData(string ipfsHash) public {\n    super.updateMetaData(ipfsHash);\n    super.invalidateCache();\n  }\n}\n",
  "sourcePath": "/Users/roderik/Development/databrokerdao-dapi/contracts/purchase/Purchase.sol",
  "compiler": {
    "name": "solc",
    "version": "0.4.24+commit.e67f0147.Emscripten.clang"
  },
  "schemaVersion": "2.0.1",
  "updatedAt": "2018-08-01T09:33:41.740Z"
}