{
  "contractName": "PurchaseRegistryDispatcher",
  "abi": [
    {
      "constant": true,
      "inputs": [],
      "name": "UPGRADE_CONTRACT",
      "outputs": [
        {
          "name": "",
          "type": "bytes32"
        }
      ],
      "payable": false,
      "stateMutability": "view",
      "type": "function"
    },
    {
      "constant": true,
      "inputs": [],
      "name": "CHANGE_SETTINGS_ROLE",
      "outputs": [
        {
          "name": "",
          "type": "bytes32"
        }
      ],
      "payable": false,
      "stateMutability": "view",
      "type": "function"
    },
    {
      "constant": true,
      "inputs": [],
      "name": "CREATE_PERMISSIONS_ROLE",
      "outputs": [
        {
          "name": "",
          "type": "bytes32"
        }
      ],
      "payable": false,
      "stateMutability": "view",
      "type": "function"
    },
    {
      "constant": true,
      "inputs": [],
      "name": "gateKeeper",
      "outputs": [
        {
          "name": "",
          "type": "address"
        }
      ],
      "payable": false,
      "stateMutability": "view",
      "type": "function"
    },
    {
      "constant": true,
      "inputs": [
        {
          "name": "",
          "type": "address"
        }
      ],
      "name": "purchases",
      "outputs": [
        {
          "name": "",
          "type": "address"
        }
      ],
      "payable": false,
      "stateMutability": "view",
      "type": "function"
    },
    {
      "constant": true,
      "inputs": [
        {
          "name": "",
          "type": "uint256"
        }
      ],
      "name": "purchasesIndex",
      "outputs": [
        {
          "name": "",
          "type": "address"
        }
      ],
      "payable": false,
      "stateMutability": "view",
      "type": "function"
    },
    {
      "constant": true,
      "inputs": [],
      "name": "target",
      "outputs": [
        {
          "name": "",
          "type": "address"
        }
      ],
      "payable": false,
      "stateMutability": "view",
      "type": "function"
    },
    {
      "constant": true,
      "inputs": [],
      "name": "token",
      "outputs": [
        {
          "name": "",
          "type": "address"
        }
      ],
      "payable": false,
      "stateMutability": "view",
      "type": "function"
    },
    {
      "inputs": [
        {
          "name": "_gateKeeper",
          "type": "address"
        },
        {
          "name": "_token",
          "type": "address"
        },
        {
          "name": "_sensorRegistry",
          "type": "address"
        }
      ],
      "payable": false,
      "stateMutability": "nonpayable",
      "type": "constructor"
    },
    {
      "payable": false,
      "stateMutability": "nonpayable",
      "type": "fallback"
    },
    {
      "constant": false,
      "inputs": [
        {
          "name": "_target",
          "type": "address"
        }
      ],
      "name": "setTarget",
      "outputs": [],
      "payable": false,
      "stateMutability": "nonpayable",
      "type": "function"
    }
  ],
  "bytecode": "0x6080604052600160075534801561001557600080fd5b5060405160608061053a83398101604090815281516020830151919092015160008054600160a060020a03948516600160a060020a0319918216179091556002805482163017905560058054938516938216939093179092556006805493909116929091169190911790556104ab8061008f6000396000f3006080604052600436106100985763ffffffff7c010000000000000000000000000000000000000000000000000000000060003504166317f8213981146100d35780633426ddd5146100fa5780633d6ab68f1461010f57806345d61ded14610124578063776d1a0114610155578063842a77d314610178578063b8e52d8714610199578063d4b83992146101b1578063fc0c546a146101c6575b3480156100a457600080fd5b506001546000803591600160a060020a03169036908037600080366000846127105a03f43d806000803e806000f35b3480156100df57600080fd5b506100e86101db565b60408051918252519081900360200190f35b34801561010657600080fd5b506100e86101ff565b34801561011b57600080fd5b506100e8610223565b34801561013057600080fd5b50610139610247565b60408051600160a060020a039092168252519081900360200190f35b34801561016157600080fd5b50610176600160a060020a0360043516610256565b005b34801561018457600080fd5b50610139600160a060020a036004351661026a565b3480156101a557600080fd5b50610139600435610285565b3480156101bd57600080fd5b506101396102ad565b3480156101d257600080fd5b506101396102bc565b7f555047524144455f434f4e54524143540000000000000000000000000000000081565b7f4348414e47455f53455454494e47535f524f4c4500000000000000000000000081565b7f4352454154455f5045524d495353494f4e535f524f4c4500000000000000000081565b600054600160a060020a031681565b61025f816102cb565b6102676102d4565b50565b600360205260009081526040902054600160a060020a031681565b600480548290811061029357fe5b600091825260209091200154600160a060020a0316905081565b600154600160a060020a031681565b600554600160a060020a031681565b61026781610359565b600254604080517f3d188fab0000000000000000000000000000000000000000000000000000000081523060048201526000604482018190529151600160a060020a0390931692633d188fab9260648084019391929182900301818387803b15801561033f57600080fd5b505af1158015610353573d6000803e3d6000fd5b50505050565b7f555047524144455f434f4e54524143540000000000000000000000000000000061038433826103bf565b151561038f57600080fd5b506001805473ffffffffffffffffffffffffffffffffffffffff1916600160a060020a0392909216919091179055565b60008054600160a060020a03161580610478575060008054604080517f6d6712d8000000000000000000000000000000000000000000000000000000008152600160a060020a0387811660048301523060248301526044820187905291519190921692636d6712d892606480820193602093909283900390910190829087803b15801561044b57600080fd5b505af115801561045f573d6000803e3d6000fd5b505050506040513d602081101561047557600080fd5b50515b93925050505600a165627a7a72305820fdb4dd3d2e0bb7005500a77090c38cd3d47144ae4fc326f6cc2a039d67e878df0029",
  "source": "pragma solidity ^0.4.20;\n\nimport \"@settlemint/solidity-mint/contracts/utility/upgrading/Dispatcher.sol\";\nimport \"@settlemint/solidity-mint/contracts/utility/caching/CachedByAddress.sol\";\n\nimport \"../sensor/SensorRegistry.sol\";\nimport \"../dtxtoken/DtxToken.sol\";\nimport \"./Purchase.sol\";\n\n\n/**\n * Dispatches calls to the purchase registry\n */\ncontract PurchaseRegistryDispatcher is Dispatcher, CachedByAddress {\n\n  // Same state as contract it will refer to\n  bytes32 constant public CREATE_PERMISSIONS_ROLE = \"CREATE_PERMISSIONS_ROLE\";\n  bytes32 constant public CHANGE_SETTINGS_ROLE = \"CHANGE_SETTINGS_ROLE\";\n  mapping (address => Purchase) public purchases;\n  address[] public purchasesIndex;\n  DtxToken public token;\n  SensorRegistry sensorRegistry;\n  uint salePercentage = 1;\n\n  function PurchaseRegistryDispatcher(\n    address _gateKeeper,\n    address _token,\n    address _sensorRegistry\n  )\n    Secured(_gateKeeper)\n    CachedByAddress(this)\n    public\n  {\n    // State also needs to initialized!\n    token = DtxToken(_token);\n    sensorRegistry = SensorRegistry(_sensorRegistry);\n  }\n\n  function setTarget(address _target) public {\n    super.setTarget(_target);\n    super.invalidateCache();\n  }\n}\n",
  "sourcePath": "/Users/roderik/Development/databrokerdao-dapi/contracts/purchase/PurchaseRegistryDispatcher.sol",
  "compiler": {
    "name": "solc",
    "version": "0.4.24+commit.e67f0147.Emscripten.clang"
  },
  "schemaVersion": "2.0.0",
  "updatedAt": "2018-06-29T08:31:45.836Z"
}