{
  "contractName": "PurchaseRegistry",
  "abi": [
    {
      "constant": true,
      "inputs": [],
      "name": "gateKeeper",
      "outputs": [
        {
          "name": "",
          "type": "address"
        }
      ],
      "payable": false,
      "stateMutability": "view",
      "type": "function"
    },
    {
      "constant": true,
      "inputs": [
        {
          "name": "",
          "type": "address"
        }
      ],
      "name": "purchases",
      "outputs": [
        {
          "name": "",
          "type": "address"
        }
      ],
      "payable": false,
      "stateMutability": "view",
      "type": "function"
    },
    {
      "constant": true,
      "inputs": [
        {
          "name": "",
          "type": "uint256"
        }
      ],
      "name": "purchasesIndex",
      "outputs": [
        {
          "name": "",
          "type": "address"
        }
      ],
      "payable": false,
      "stateMutability": "view",
      "type": "function"
    },
    {
      "constant": true,
      "inputs": [],
      "name": "token",
      "outputs": [
        {
          "name": "",
          "type": "address"
        }
      ],
      "payable": false,
      "stateMutability": "view",
      "type": "function"
    },
    {
      "inputs": [
        {
          "name": "_gateKeeper",
          "type": "address"
        },
        {
          "name": "_token",
          "type": "address"
        },
        {
          "name": "_streamRegistry",
          "type": "address"
        }
      ],
      "payable": false,
      "stateMutability": "nonpayable",
      "type": "constructor"
    },
    {
      "anonymous": false,
      "inputs": [
        {
          "indexed": false,
          "name": "stream",
          "type": "address"
        },
        {
          "indexed": false,
          "name": "user",
          "type": "address"
        },
        {
          "indexed": false,
          "name": "startTime",
          "type": "uint256"
        },
        {
          "indexed": false,
          "name": "endTime",
          "type": "uint256"
        },
        {
          "indexed": false,
          "name": "price",
          "type": "uint256"
        },
        {
          "indexed": false,
          "name": "purchase",
          "type": "address"
        }
      ],
      "name": "AccessPurchased",
      "type": "event"
    },
    {
      "anonymous": false,
      "inputs": [
        {
          "indexed": true,
          "name": "key",
          "type": "address"
        }
      ],
      "name": "AddressCacheInvalidated",
      "type": "event"
    },
    {
      "anonymous": false,
      "inputs": [
        {
          "indexed": true,
          "name": "key",
          "type": "bytes32"
        }
      ],
      "name": "Bytes32CacheInvalidated",
      "type": "event"
    },
    {
      "anonymous": false,
      "inputs": [
        {
          "indexed": true,
          "name": "key",
          "type": "uint256"
        }
      ],
      "name": "Uint256CacheInvalidated",
      "type": "event"
    },
    {
      "constant": false,
      "inputs": [
        {
          "name": "_stream",
          "type": "address"
        },
        {
          "name": "_endTime",
          "type": "uint256"
        }
      ],
      "name": "purchaseAccess",
      "outputs": [],
      "payable": false,
      "stateMutability": "nonpayable",
      "type": "function"
    },
    {
      "constant": false,
      "inputs": [
        {
          "name": "_stream",
          "type": "bytes32"
        }
      ],
      "name": "hasAccess",
      "outputs": [
        {
          "name": "access",
          "type": "bool"
        }
      ],
      "payable": false,
      "stateMutability": "nonpayable",
      "type": "function"
    },
    {
      "constant": false,
      "inputs": [
        {
          "name": "_salePercentage",
          "type": "uint256"
        }
      ],
      "name": "setSalePercentage",
      "outputs": [],
      "payable": false,
      "stateMutability": "nonpayable",
      "type": "function"
    },
    {
      "constant": true,
      "inputs": [],
      "name": "getIndexLength",
      "outputs": [
        {
          "name": "length",
          "type": "uint256"
        }
      ],
      "payable": false,
      "stateMutability": "view",
      "type": "function"
    },
    {
      "constant": true,
      "inputs": [
        {
          "name": "index",
          "type": "uint256"
        }
      ],
      "name": "getByIndex",
      "outputs": [
        {
          "name": "",
          "type": "bytes32"
        },
        {
          "name": "contractAddress",
          "type": "address"
        }
      ],
      "payable": false,
      "stateMutability": "view",
      "type": "function"
    },
    {
      "constant": true,
      "inputs": [
        {
          "name": "_key",
          "type": "address"
        }
      ],
      "name": "getByKey",
      "outputs": [
        {
          "name": "",
          "type": "bytes32"
        },
        {
          "name": "contractAddress",
          "type": "address"
        }
      ],
      "payable": false,
      "stateMutability": "view",
      "type": "function"
    },
    {
      "constant": false,
      "inputs": [
        {
          "name": "",
          "type": "address"
        },
        {
          "name": "_cachedBytes32",
          "type": "bytes32"
        },
        {
          "name": "",
          "type": "uint256"
        }
      ],
      "name": "invalidateCache",
      "outputs": [],
      "payable": false,
      "stateMutability": "nonpayable",
      "type": "function"
    }
  ],
  "bytecode": "0x60606040526001600855341561001457600080fd5b604051606080610f1c8339810160405261003790678000000000000000906100cd565b60008054600160a060020a0319908116600160a060020a039586169081179092556001805482163087161790557f5075726368617365526567697374727900000000000000000000000000000000600255600580548216948616949094179093556006805484169290941691909117909255600780549091169091179055610126565b60006100c6825161011a565b9392505050565b6000806000606084860312156100e257600080fd5b60006100ee86866100ba565b93505060206100ff868287016100ba565b9250506040610110868287016100ba565b9150509250925092565b600160a060020a031690565b610de7806101356000396000f3006060604052600436106100955763ffffffff60e060020a6000350416630999f424811461009a5780632d883a73146100ba5780633d188fab146100ef57806345d61ded1461010d578063498770381461012d57806372cc98501461014b578063842a77d314610169578063b8e52d8714610187578063db83423d146101b2578063e1ba7d01146101dd578063fc0c546a146101fd575b600080fd5b34156100a557600080fd5b6100b86100b3366004610866565b610210565b005b34156100c557600080fd5b6100d86100d33660046108a0565b6105b4565b6040516100e69291906109ed565b60405180910390f35b34156100fa57600080fd5b6100b8610108366004610819565b6105ec565b341561011857600080fd5b610120610626565b6040516100e691906109fb565b341561013857600080fd5b6100d86101463660046107f3565b610635565b341561015657600080fd5b6100b86101643660046108a0565b610656565b341561017457600080fd5b6101206101823660046107f3565b61065b565b341561019257600080fd5b6101a56101a03660046108a0565b610676565b6040516100e691906108f1565b34156101bd57600080fd5b6101d06101cb3660046108a0565b61069e565b6040516100e691906109df565b34156101e857600080fd5b6101f06106a4565b6040516100e69190610a09565b341561020857600080fd5b6101206106aa565b6006546000908190819081908190600160a060020a0316633c1b12b68883604051602001526040518263ffffffff1660e060020a02815260040161025491906108f1565b602060405180830381600087803b151561026d57600080fd5b6102c65a03f1151561027e57600080fd5b505050604051805195504294506102ad90506102a0878663ffffffff6106b916565b869063ffffffff6106d016565b92506102d56102c8606460085461070690919063ffffffff16565b849063ffffffff6106d016565b600554600654919350600160a060020a03908116916323b872dd9133911663a72b0d2d8b6000604051602001526040518263ffffffff1660e060020a02815260040161032191906108f1565b602060405180830381600087803b151561033a57600080fd5b6102c65a03f1151561034b57600080fd5b50505060405180519050610365878763ffffffff6106b916565b6000604051602001526040518463ffffffff1660e060020a02815260040161038f9392919061091a565b602060405180830381600087803b15156103a857600080fd5b6102c65a03f115156103b957600080fd5b5050506040518051905015156103ce57600080fd5b600554600160a060020a03166323b872dd3330856000604051602001526040518463ffffffff1660e060020a02815260040161040c939291906109c4565b602060405180830381600087803b151561042557600080fd5b6102c65a03f1151561043657600080fd5b50505060405180519050151561044b57600080fd5b60075485908590889033908b90600160a060020a0316610469610784565b61047896959493929190610a17565b604051809103906000f080151561048e57600080fd5b600160a060020a0381166000818152600360205260409020805473ffffffffffffffffffffffffffffffffffffffff191690911790556004805491925090600181016104da8382610794565b506000918252602090912001805473ffffffffffffffffffffffffffffffffffffffff191633600160a060020a03818116929092179092558816906390a4b8d59083906040518363ffffffff1660e060020a02815260040161053d9291906108ff565b600060405180830381600087803b151561055657600080fd5b6102c65a03f1151561056757600080fd5b5050507fa46fb31f0524729f82c7e370054d0f3ad832386ce8a7ecf09d7368594d30b3058733868987866040516105a396959493929190610942565b60405180910390a150505050505050565b6000806105e36004848154811015156105c957fe5b600091825260209091200154600160a060020a0316610635565b91509150915091565b817fd5c977477c90fd6c009dd3275798b51da8bd2df8e0a25be47773f87b53d2e39960405160405180910390a261062161071d565b505050565b600054600160a060020a031681565b600160a060020a039081166000908152600360205260408120549092911690565b600855565b600360205260009081526040902054600160a060020a031681565b600480548290811061068457fe5b600091825260209091200154600160a060020a0316905081565b50600190565b60045490565b600554600160a060020a031681565b6000828211156106c557fe5b508082035b92915050565b6000808315156106e357600091506106ff565b508282028284828115156106f357fe5b04146106fb57fe5b8091505b5092915050565b600080828481151561071457fe5b04949350505050565b600154600254600160a060020a0390911690633d188fab90600090816040518463ffffffff1660e060020a02815260040161075a9392919061099c565b600060405180830381600087803b151561077357600080fd5b6102c65a03f1151561062157600080fd5b60405161032d80610a8183390190565b815481835581811511610621576000838152602090206106219181019083016107d191905b808211156107cd57600081556001016107b9565b5090565b90565b60006107e08235610a59565b9392505050565b60006107e082356107d1565b60006020828403121561080557600080fd5b600061081184846107d4565b949350505050565b60008060006060848603121561082e57600080fd5b600061083a86866107d4565b935050602061084b868287016107e7565b925050604061085c868287016107e7565b9150509250925092565b6000806040838503121561087957600080fd5b600061088585856107d4565b9250506020610896858286016107e7565b9150509250929050565b6000602082840312156108b257600080fd5b600061081184846107e7565b6108c781610a59565b82525050565b6108c781610a65565b6108c7816107d1565b6108c781610a6a565b6108c781610a75565b602081016106ca82846108be565b6040810161090d82856108be565b6107e060208301846108be565b6060810161092882866108be565b61093560208301856108be565b61081160408301846108d6565b60c0810161095082896108be565b61095d60208301886108be565b61096a60408301876108d6565b61097760608301866108d6565b61098460808301856108d6565b61099160a08301846108be565b979650505050505050565b606081016109aa82866108be565b6109b760208301856108d6565b61081160408301846108e8565b606081016109d282866108be565b61093560208301856108df565b602081016106ca82846108cd565b6040810161090d82856108d6565b602081016106ca82846108df565b602081016106ca82846108d6565b60c08101610a2582896108d6565b610a3260208301886108d6565b610a3f60408301876108d6565b610a4c60608301866108be565b61098460808301856108be565b600160a060020a031690565b151590565b60006106ca82610a59565b60006106ca826107d156006060604052341561000f57600080fd5b60405160c08061032d83398101604052808051919060200180519190602001805191906020018051919060200180519190602001805160008054600160a060020a0319908116600160a060020a039384161782556001805482163085161790556002999099556003979097556004959095555050600580548616928416929092179091556006805490941691161790915561027d9081906100b090396000f3006060604052600436106100825763ffffffff7c01000000000000000000000000000000000000000000000000000000006000350416633197cbb681146100875780633d188fab146100ac57806345d61ded146100d35780635a77dc46146101025780636f2a67911461011557806378e9792514610128578063a035b1fe1461013b575b600080fd5b341561009257600080fd5b61009a61014e565b60405190815260200160405180910390f35b34156100b757600080fd5b6100d1600160a060020a0360043516602435604435610154565b005b34156100de57600080fd5b6100e6610197565b604051600160a060020a03909116815260200160405180910390f35b341561010d57600080fd5b6100e66101a6565b341561012057600080fd5b6100e66101b5565b341561013357600080fd5b61009a6101c4565b341561014657600080fd5b61009a6101ca565b60045481565b82600160a060020a03167f2130e02bc65616aa7f8f548960f51a08a1d0ea94efb33611412208c2d0306a2260405160405180910390a26101926101d0565b505050565b600054600160a060020a031681565b600554600160a060020a031681565b600654600160a060020a031681565b60035481565b60025481565b600154600160a060020a0316633d188fab3060006040517c010000000000000000000000000000000000000000000000000000000063ffffffff8516028152600160a060020a0390921660048301526044820152606401600060405180830381600087803b151561024057600080fd5b6102c65a03f1151561019257600080fd00a165627a7a72305820599e2000526a9befa1c51f908c1343da0b2b090cd2563a8c7418273eacf58d9c0029a265627a7a72305820600aa649da847c4e0521ce38eecb69fd4ac07bda5abc2b20316cb791d58fde0c6c6578706572696d656e74616cf50037",
  "source": "pragma solidity ^0.4.20;\npragma experimental ABIEncoderV2;\n\nimport \"./Purchase.sol\";\nimport \"../stream/Stream.sol\";\nimport \"../stream/StreamRegistry.sol\";\nimport \"../dtxtoken/DtxToken.sol\";\nimport \"@settlemint/solidity-mint/contracts/authentication/Secured.sol\";\nimport \"@settlemint/solidity-mint/contracts/utility/syncing/Syncable.sol\";\nimport \"@settlemint/solidity-mint/contracts/utility/caching/Cacher.sol\";\nimport \"@settlemint/solidity-mint/contracts/utility/caching/CachedByBytes32.sol\";\nimport \"zeppelin-solidity/contracts/math/SafeMath.sol\";\n\n\ncontract PurchaseRegistry is Secured, Syncable, Cacher, CachedByBytes32 {\n  using SafeMath for uint256;\n\n  event AccessPurchased(address stream, address user, uint startTime, uint endTime, uint price, address purchase);\n\n  mapping (address => Purchase) public purchases;\n  address[] public purchasesIndex;\n\n  DtxToken public token;\n  StreamRegistry streamRegistry;\n  address gateKeeper;\n  uint salePercentage = 1;\n\n  /**\n  @dev Contructor\n  @notice                Sets the address for token\n  @param _gateKeeper     Address of the gatekeeper\n  @param _token          Address of the token\n  */\n  function PurchaseRegistry(\n    address _gateKeeper,\n    address _token,\n    address _streamRegistry\n  )\n    Secured(_gateKeeper)\n    CachedByBytes32(\"PurchaseRegistry\", this)\n    public\n  {\n    token = DtxToken(_token);\n    streamRegistry = StreamRegistry(_streamRegistry);\n\n    gateKeeper = _gateKeeper;\n  }\n\n  /**\n  @notice               Lets the sender buy access to the Stream\n  @param _stream        Id of the listing\n  @param _endTime       Timestamp of when the user will stop receiving Stream readings in seconds (not milliseconds!)\n  */\n  function purchaseAccess(address _stream, uint _endTime) public {\n    // Calculate total cost for the user\n    uint _streamPricePerSecond = streamRegistry.getStreamPrice(_stream);\n    uint _startTime = now;\n    uint _streamPrice = _streamPricePerSecond.mul(_endTime.sub(_startTime));\n\n    // Pay out:\n    uint _salePercentage = _streamPrice.mul(salePercentage.div(100));\n    // Sensor owner\n    require(token.transferFrom(msg.sender, streamRegistry.getStreamOwner(_stream), _streamPrice.sub(_salePercentage)));\n    // DBDAO\n    require(token.transferFrom(msg.sender, this, _salePercentage));\n\n    // Create purchase\n    Purchase purchase = new Purchase(\n      _streamPricePerSecond,\n      _startTime,\n      _endTime,\n      msg.sender,\n      _stream,\n      gateKeeper\n    );\n\n    // Push to mapping\n    purchases[address(purchase)] = purchase;\n    purchasesIndex.push(msg.sender);\n\n    // Push to mapping in the stream\n    Stream(_stream).addPurchase(address(purchase), msg.sender);\n\n    AccessPurchased(_stream, msg.sender, _startTime, _endTime, _streamPrice, address(purchase));\n  }\n\n  /**\n  @notice               Returns whether or not the sender has access to this listing\n  @param _stream        Id of the listing\n  */\n  function hasAccess(bytes32 _stream) public returns (bool access){\n    // if (streams[_stream].purchases[msg.sender].endTime == 0) {\n    //   return false;\n    // }\n    return true;\n  }\n\n  /**\n  @notice               Returns array of ids of streams the user has access to\n  */\n  // function getAllPurchases() public returns (bytes32[] purchases) {\n  //   return userPurchases[msg.sender];\n  // }\n\n  /**\n  @notice                Sets the sale percentage\n  @param _salePercentage salePercentage\n  */\n  function setSalePercentage(uint _salePercentage) public {\n    salePercentage = _salePercentage;\n  }\n\n  /**\n  * implementation of syncable methods\n  */\n  function getIndexLength() public view returns (uint length) {\n    length = purchasesIndex.length;\n  }\n\n  function getByIndex(uint index) public view returns (bytes32 /*key*/, address contractAddress) {\n    return getByKey(purchasesIndex[index]);\n  }\n\n  function getByKey(address _key) public view returns (bytes32 /*key*/, address contractAddress) {\n    contractAddress = address(purchases[_key]);\n  }\n\n  /**\n  * implementation of cacher methods\n  */\n  function invalidateCache(address /*_cachedAddress*/, bytes32 _cachedBytes32, uint256 /*_cachedUint256*/) public {\n    Bytes32CacheInvalidated(_cachedBytes32);\n    super.invalidateCache();\n  }\n}\n",
  "sourcePath": "/Users/silkevandenbroeck/databrokerDAO/databrokerdao-dapi/contracts/purchase/PurchaseRegistry.sol",
  "compiler": {
    "name": "solc",
    "version": "0.4.20+commit.3155dd80.Emscripten.clang"
  },
  "schemaVersion": "1.0.1",
  "updatedAt": "2018-02-22T16:22:48.560Z"
}