{
  "contractName": "PurchaseRegistry",
  "abi": [
    {
      "constant": true,
      "inputs": [],
      "name": "CREATE_PERMISSIONS_ROLE",
      "outputs": [
        {
          "name": "",
          "type": "bytes32"
        }
      ],
      "payable": false,
      "stateMutability": "view",
      "type": "function"
    },
    {
      "constant": true,
      "inputs": [],
      "name": "gateKeeper",
      "outputs": [
        {
          "name": "",
          "type": "address"
        }
      ],
      "payable": false,
      "stateMutability": "view",
      "type": "function"
    },
    {
      "constant": true,
      "inputs": [
        {
          "name": "",
          "type": "address"
        }
      ],
      "name": "purchases",
      "outputs": [
        {
          "name": "",
          "type": "address"
        }
      ],
      "payable": false,
      "stateMutability": "view",
      "type": "function"
    },
    {
      "constant": true,
      "inputs": [
        {
          "name": "",
          "type": "uint256"
        }
      ],
      "name": "purchasesIndex",
      "outputs": [
        {
          "name": "",
          "type": "address"
        }
      ],
      "payable": false,
      "stateMutability": "view",
      "type": "function"
    },
    {
      "constant": true,
      "inputs": [],
      "name": "token",
      "outputs": [
        {
          "name": "",
          "type": "address"
        }
      ],
      "payable": false,
      "stateMutability": "view",
      "type": "function"
    },
    {
      "inputs": [
        {
          "name": "_gateKeeper",
          "type": "address"
        },
        {
          "name": "_token",
          "type": "address"
        },
        {
          "name": "_streamRegistry",
          "type": "address"
        }
      ],
      "payable": false,
      "stateMutability": "nonpayable",
      "type": "constructor"
    },
    {
      "anonymous": false,
      "inputs": [
        {
          "indexed": false,
          "name": "stream",
          "type": "address"
        },
        {
          "indexed": false,
          "name": "user",
          "type": "address"
        },
        {
          "indexed": false,
          "name": "startTime",
          "type": "uint256"
        },
        {
          "indexed": false,
          "name": "endTime",
          "type": "uint256"
        },
        {
          "indexed": false,
          "name": "price",
          "type": "uint256"
        },
        {
          "indexed": false,
          "name": "purchase",
          "type": "address"
        }
      ],
      "name": "AccessPurchased",
      "type": "event"
    },
    {
      "anonymous": false,
      "inputs": [
        {
          "indexed": true,
          "name": "key",
          "type": "address"
        }
      ],
      "name": "AddressCacheInvalidated",
      "type": "event"
    },
    {
      "anonymous": false,
      "inputs": [
        {
          "indexed": true,
          "name": "key",
          "type": "bytes32"
        }
      ],
      "name": "Bytes32CacheInvalidated",
      "type": "event"
    },
    {
      "anonymous": false,
      "inputs": [
        {
          "indexed": true,
          "name": "key",
          "type": "uint256"
        }
      ],
      "name": "Uint256CacheInvalidated",
      "type": "event"
    },
    {
      "constant": false,
      "inputs": [
        {
          "name": "_stream",
          "type": "address"
        },
        {
          "name": "_endTime",
          "type": "uint256"
        },
        {
          "name": "_metadata",
          "type": "string"
        }
      ],
      "name": "purchaseAccess",
      "outputs": [],
      "payable": false,
      "stateMutability": "nonpayable",
      "type": "function"
    },
    {
      "constant": false,
      "inputs": [
        {
          "name": "_salePercentage",
          "type": "uint256"
        }
      ],
      "name": "setSalePercentage",
      "outputs": [],
      "payable": false,
      "stateMutability": "nonpayable",
      "type": "function"
    },
    {
      "constant": true,
      "inputs": [
        {
          "name": "_stream",
          "type": "address"
        }
      ],
      "name": "hasAccess",
      "outputs": [
        {
          "name": "access",
          "type": "bool"
        }
      ],
      "payable": false,
      "stateMutability": "view",
      "type": "function"
    },
    {
      "constant": true,
      "inputs": [],
      "name": "getIndexLength",
      "outputs": [
        {
          "name": "length",
          "type": "uint256"
        }
      ],
      "payable": false,
      "stateMutability": "view",
      "type": "function"
    },
    {
      "constant": true,
      "inputs": [
        {
          "name": "index",
          "type": "uint256"
        }
      ],
      "name": "getByIndex",
      "outputs": [
        {
          "name": "contractAddress",
          "type": "address"
        }
      ],
      "payable": false,
      "stateMutability": "view",
      "type": "function"
    },
    {
      "constant": true,
      "inputs": [
        {
          "name": "_key",
          "type": "address"
        }
      ],
      "name": "getByKey",
      "outputs": [
        {
          "name": "contractAddress",
          "type": "address"
        }
      ],
      "payable": false,
      "stateMutability": "view",
      "type": "function"
    },
    {
      "constant": false,
      "inputs": [
        {
          "name": "",
          "type": "address"
        },
        {
          "name": "_cachedBytes32",
          "type": "bytes32"
        },
        {
          "name": "",
          "type": "uint256"
        }
      ],
      "name": "invalidateCache",
      "outputs": [],
      "payable": false,
      "stateMutability": "nonpayable",
      "type": "function"
    }
  ],
  "bytecode": "0x60606040526001600755341561001457600080fd5b60405160608061114c83398101604052808051919060200180519190602001805160008054600160a060020a0319908116600160a060020a039788161782556001805482163089161790557f50757263686173655265676973747279000000000000000000000000000000006002556005805482169688169690961790955560068054909516919095161790925550611098918291506100b490396000f3006060604052600436106100a05763ffffffff60e060020a6000350416632d883a7381146100a55780633d188fab146100d75780633d6ab68f146100fe57806345d61ded14610123578063498770381461013657806372cc985014610155578063842a77d31461016b57806395a078e81461018a578063b8e52d87146101bd578063ba41f3d4146101d3578063e1ba7d0114610238578063fc0c546a1461024b575b600080fd5b34156100b057600080fd5b6100bb60043561025e565b604051600160a060020a03909116815260200160405180910390f35b34156100e257600080fd5b6100fc600160a060020a0360043516602435604435610292565b005b341561010957600080fd5b6101116102cc565b60405190815260200160405180910390f35b341561012e57600080fd5b6100bb6102f0565b341561014157600080fd5b6100bb600160a060020a03600435166102ff565b341561016057600080fd5b6100fc60043561031d565b341561017657600080fd5b6100bb600160a060020a0360043516610322565b341561019557600080fd5b6101a9600160a060020a036004351661033d565b604051901515815260200160405180910390f35b34156101c857600080fd5b6100bb6004356103b6565b34156101de57600080fd5b6100fc60048035600160a060020a03169060248035919060649060443590810190830135806020601f820181900481020160405190810160405281815292919060208401838380828437509496506103de95505050505050565b341561024357600080fd5b61011161096f565b341561025657600080fd5b6100bb610975565b600061028c60048381548110151561027257fe5b600091825260209091200154600160a060020a03166102ff565b92915050565b817fd5c977477c90fd6c009dd3275798b51da8bd2df8e0a25be47773f87b53d2e39960405160405180910390a26102c7610984565b505050565b7f4352454154455f5045524d495353494f4e535f524f4c4500000000000000000081565b600054600160a060020a031681565b600160a060020a039081166000908152600360205260409020541690565b600755565b600360205260009081526040902054600160a060020a031681565b600081600160a060020a03166395a078e83360006040516020015260405160e060020a63ffffffff8416028152600160a060020a039091166004820152602401602060405180830381600087803b151561039657600080fd5b6102c65a03f115156103a757600080fd5b50505060405180519392505050565b60048054829081106103c457fe5b600091825260209091200154600160a060020a0316905081565b6006546000908190819081908190600160a060020a0316633c1b12b689836040516020015260405160e060020a63ffffffff8416028152600160a060020a039091166004820152602401602060405180830381600087803b151561044157600080fd5b6102c65a03f1151561045257600080fd5b505050604051805195504294506104819050610474888663ffffffff6109fc16565b869063ffffffff610a0e16565b92506104a961049c6064600754610a4490919063ffffffff16565b849063ffffffff610a0e16565b600554600654919350600160a060020a03908116916323b872dd9133911663a72b0d2d8c60006040516020015260405160e060020a63ffffffff8416028152600160a060020a039091166004820152602401602060405180830381600087803b151561051457600080fd5b6102c65a03f1151561052557600080fd5b5050506040518051905061053f878763ffffffff6109fc16565b60006040516020015260405160e060020a63ffffffff8616028152600160a060020a0393841660048201529190921660248201526044810191909152606401602060405180830381600087803b151561059757600080fd5b6102c65a03f115156105a857600080fd5b5050506040518051905015156105bd57600080fd5b600554600160a060020a03166323b872dd33308560006040516020015260405160e060020a63ffffffff8616028152600160a060020a0393841660048201529190921660248201526044810191909152606401602060405180830381600087803b151561062957600080fd5b6102c65a03f1151561063a57600080fd5b50505060405180519050151561064f57600080fd5b60005485908590899033908c90600160a060020a031661066d610a5b565b9586526020860194909452604080860193909352600160a060020a0391821660608601528116608085015290911660a083015260c09091019051809103906000f08015156106ba57600080fd5b600054909150600160a060020a031663be03847833837f5550444154455f4d455441444154415f524f4c450000000000000000000000008260405160e060020a63ffffffff8716028152600160a060020a039485166004820152928416602484015260448301919091529091166064820152608401600060405180830381600087803b151561074857600080fd5b6102c65a03f1151561075957600080fd5b50505080600160a060020a0316635cc07505876040518263ffffffff1660e060020a0281526004018080602001828103825283818151815260200191508051906020019080838360005b838110156107bb5780820151838201526020016107a3565b50505050905090810190601f1680156107e85780820380516001836020036101000a031916815260200191505b5092505050600060405180830381600087803b151561080657600080fd5b6102c65a03f1151561081757600080fd5b505050600160a060020a0381166000818152600360205260409020805473ffffffffffffffffffffffffffffffffffffffff1916909117905560048054600181016108628382610a6b565b506000918252602090912001805473ffffffffffffffffffffffffffffffffffffffff191633600160a060020a03818116929092179092558916906390a4b8d590839060405160e060020a63ffffffff8516028152600160a060020a03928316600482015291166024820152604401600060405180830381600087803b15156108ea57600080fd5b6102c65a03f115156108fb57600080fd5b5050507fa46fb31f0524729f82c7e370054d0f3ad832386ce8a7ecf09d7368594d30b3058833868a8786604051600160a060020a03968716815294861660208601526040808601949094526060850192909252608084015290921660a082015260c001905180910390a15050505050505050565b60045490565b600554600160a060020a031681565b600154600254600160a060020a0390911690633d188fab906000908160405160e060020a63ffffffff8616028152600160a060020a03909316600484015260248301919091526044820152606401600060405180830381600087803b15156109eb57600080fd5b6102c65a03f115156102c757600080fd5b600082821115610a0857fe5b50900390565b600080831515610a215760009150610a3d565b50828202828482811515610a3157fe5b0414610a3957fe5b8091505b5092915050565b6000808284811515610a5257fe5b04949350505050565b6040516105c180610aac83390190565b8154818355818115116102c7576000838152602090206102c7918101908301610aa891905b80821115610aa45760008155600101610a90565b5090565b9056006060604052341561000f57600080fd5b60405160c0806105c183398101604052808051919060200180519190602001805191906020018051919060200180519190602001805160008054600160a060020a0319908116600160a060020a03938416178255600180548216308516179055600399909955600497909755600595909555505060068054861692841692909217909155600780549094169116179091556105119081906100b090396000f3006060604052600436106100a35763ffffffff7c01000000000000000000000000000000000000000000000000000000006000350416633197cbb681146100a8578063392f37e9146100cd5780633d188fab1461015757806345d61ded1461017e5780635a77dc46146101ad5780635cc07505146101c05780636f2a67911461021157806378e9792514610224578063a035b1fe14610237578063fff139cf1461024a575b600080fd5b34156100b357600080fd5b6100bb61025d565b60405190815260200160405180910390f35b34156100d857600080fd5b6100e0610263565b60405160208082528190810183818151815260200191508051906020019080838360005b8381101561011c578082015183820152602001610104565b50505050905090810190601f1680156101495780820380516001836020036101000a031916815260200191505b509250505060405180910390f35b341561016257600080fd5b61017c600160a060020a0360043516602435604435610301565b005b341561018957600080fd5b61019161033c565b604051600160a060020a03909116815260200160405180910390f35b34156101b857600080fd5b61019161034b565b34156101cb57600080fd5b61017c60046024813581810190830135806020601f8201819004810201604051908101604052818152929190602084018383808284375094965061035a95505050505050565b341561021c57600080fd5b61019161036e565b341561022f57600080fd5b6100bb61037d565b341561024257600080fd5b6100bb610383565b341561025557600080fd5b6100bb610389565b60055481565b60028054600181600116156101000203166002900480601f0160208091040260200160405190810160405280929190818152602001828054600181600116156101000203166002900480156102f95780601f106102ce576101008083540402835291602001916102f9565b820191906000526020600020905b8154815290600101906020018083116102dc57829003601f168201915b505050505081565b82600160a060020a03167f2130e02bc65616aa7f8f548960f51a08a1d0ea94efb33611412208c2d0306a2260405160405180910390a2505050565b600054600160a060020a031681565b600654600160a060020a031681565b610363816103ad565b61036b6103c4565b50565b600754600160a060020a031681565b60045481565b60035481565b7f5550444154455f4d455441444154415f524f4c4500000000000000000000000081565b60028180516103c092916020019061044a565b5050565b600154600160a060020a0316633d188fab3060006040517c010000000000000000000000000000000000000000000000000000000063ffffffff8516028152600160a060020a0390921660048301526044820152606401600060405180830381600087803b151561043457600080fd5b6102c65a03f1151561044557600080fd5b505050565b828054600181600116156101000203166002900490600052602060002090601f016020900481019282601f1061048b57805160ff19168380011785556104b8565b828001600101855582156104b8579182015b828111156104b857825182559160200191906001019061049d565b506104c49291506104c8565b5090565b6104e291905b808211156104c457600081556001016104ce565b905600a165627a7a72305820ec1ab81b92fde6a6719b9fbc72ef290b7afb6622d5cec38ba2f440efed8465bc0029a165627a7a7230582051c4e6860ba2170b59bfb1c7fa4423afe3d37071281db4d117c24fc12bdafb2d0029",
  "source": "pragma solidity ^0.4.20;\n\nimport \"./Purchase.sol\";\nimport \"../stream/Stream.sol\";\nimport \"../stream/StreamRegistry.sol\";\nimport \"../dtxtoken/DtxToken.sol\";\nimport \"@settlemint/solidity-mint/contracts/authentication/Secured.sol\";\nimport \"@settlemint/solidity-mint/contracts/authentication/GateKeeper.sol\";\nimport \"@settlemint/solidity-mint/contracts/utility/syncing/Syncable.sol\";\nimport \"@settlemint/solidity-mint/contracts/utility/caching/Cacher.sol\";\nimport \"@settlemint/solidity-mint/contracts/utility/caching/CachedByBytes32.sol\";\nimport \"zeppelin-solidity/contracts/math/SafeMath.sol\";\n\n\ncontract PurchaseRegistry is Secured, Syncable, Cacher, CachedByBytes32 {\n  using SafeMath for uint256;\n\n  bytes32 constant public CREATE_PERMISSIONS_ROLE = \"CREATE_PERMISSIONS_ROLE\";\n\n  event AccessPurchased(address stream, address user, uint startTime, uint endTime, uint price, address purchase);\n\n  mapping (address => Purchase) public purchases;\n  address[] public purchasesIndex;\n\n  DtxToken public token;\n  StreamRegistry streamRegistry;\n  uint salePercentage = 1;\n\n  /**\n  @dev Contructor\n  @notice                Sets the address for token\n  @param _gateKeeper     Address of the gatekeeper\n  @param _token          Address of the token\n  */\n  function PurchaseRegistry(\n    address _gateKeeper,\n    address _token,\n    address _streamRegistry\n  )\n    Secured(_gateKeeper)\n    CachedByBytes32(\"PurchaseRegistry\", this)\n    public\n  {\n    token = DtxToken(_token);\n    streamRegistry = StreamRegistry(_streamRegistry);\n  }\n\n  /**\n  @notice               Lets the sender buy access to the Stream\n  @param _stream        Id of the listing\n  @param _endTime       Timestamp of when the user will stop receiving Stream readings in seconds (not milliseconds!)\n  */\n  function purchaseAccess(address _stream, uint _endTime, string _metadata) public {\n    // Calculate total cost for the user\n    uint _streamPricePerSecond = streamRegistry.getStreamPrice(_stream);\n    uint _startTime = now;\n    uint _streamPrice = _streamPricePerSecond.mul(_endTime.sub(_startTime));\n\n    // Pay out:\n    uint _salePercentage = _streamPrice.mul(salePercentage.div(100));\n    // Sensor owner\n    require(token.transferFrom(msg.sender, streamRegistry.getStreamOwner(_stream), _streamPrice.sub(_salePercentage)));\n    // DBDAO\n    require(token.transferFrom(msg.sender, this, _salePercentage));\n\n    // Create purchase\n    Purchase purchase = new Purchase(\n      _streamPricePerSecond,\n      _startTime,\n      _endTime,\n      msg.sender,\n      _stream,\n      address(gateKeeper)\n    );\n\n    // Metadata role\n    gateKeeper.createPermission(\n      msg.sender,\n      address(purchase),\n      bytes32(\"UPDATE_METADATA_ROLE\"),\n      msg.sender\n    );\n\n    // Add metadata\n    purchase.updateMetaData(_metadata);\n\n    // Push to mapping\n    purchases[address(purchase)] = purchase;\n    purchasesIndex.push(msg.sender);\n\n    // Push to mapping in the stream\n    Stream(_stream).addPurchase(address(purchase), msg.sender);\n\n    AccessPurchased(_stream, msg.sender, _startTime, _endTime, _streamPrice, address(purchase));\n  }\n\n  /**\n  @notice                Sets the sale percentage\n  @param _salePercentage salePercentage\n  */\n  function setSalePercentage(uint _salePercentage) public {\n    salePercentage = _salePercentage;\n  }\n\n  /**\n  @notice             Returns wether or user has access to\n  @param _stream      Address of the stream\n  */\n  function hasAccess(address _stream) external view returns (bool access) {\n    return Stream(_stream).hasAccess(msg.sender);\n  }\n\n  /**\n  * implementation of syncable methods\n  */\n  function getIndexLength() public view returns (uint length) {\n    length = purchasesIndex.length;\n  }\n\n  function getByIndex(uint index) public view returns (address contractAddress) {\n    return getByKey(purchasesIndex[index]);\n  }\n\n  function getByKey(address _key) public view returns (address contractAddress) {\n    contractAddress = address(purchases[_key]);\n  }\n\n  /**\n  * implementation of cacher methods\n  */\n  function invalidateCache(address /*_cachedAddress*/, bytes32 _cachedBytes32, uint256 /*_cachedUint256*/) public {\n    Bytes32CacheInvalidated(_cachedBytes32);\n    super.invalidateCache();\n  }\n}\n",
  "sourcePath": "/Users/silkevandenbroeck/databrokerDAO/databrokerdao-dapi/contracts/purchase/PurchaseRegistry.sol",
  "compiler": {
    "name": "solc",
    "version": "0.4.20+commit.3155dd80.Emscripten.clang"
  },
  "schemaVersion": "2.0.0",
  "updatedAt": "2018-03-07T13:37:08.460Z"
}