{
  "contractName": "Registry",
  "abi": [
    {
      "constant": false,
      "inputs": [
        {
          "name": "_listing",
          "type": "bytes32"
        },
        {
          "name": "_stakeAmount",
          "type": "uint256"
        },
        {
          "name": "_target",
          "type": "string"
        }
      ],
      "name": "enlist",
      "outputs": [],
      "payable": false,
      "stateMutability": "nonpayable",
      "type": "function"
    },
    {
      "constant": true,
      "inputs": [
        {
          "name": "_listing",
          "type": "bytes32"
        }
      ],
      "name": "isWhitelisted",
      "outputs": [
        {
          "name": "whitelisted",
          "type": "bool"
        }
      ],
      "payable": false,
      "stateMutability": "view",
      "type": "function"
    },
    {
      "constant": false,
      "inputs": [
        {
          "name": "_listing",
          "type": "bytes32"
        }
      ],
      "name": "denyChallenge",
      "outputs": [],
      "payable": false,
      "stateMutability": "nonpayable",
      "type": "function"
    },
    {
      "constant": true,
      "inputs": [
        {
          "name": "_listing",
          "type": "bytes32"
        }
      ],
      "name": "challengeExists",
      "outputs": [
        {
          "name": "exists",
          "type": "bool"
        }
      ],
      "payable": false,
      "stateMutability": "view",
      "type": "function"
    },
    {
      "constant": false,
      "inputs": [],
      "name": "withdraw",
      "outputs": [],
      "payable": false,
      "stateMutability": "nonpayable",
      "type": "function"
    },
    {
      "constant": false,
      "inputs": [
        {
          "name": "_listing",
          "type": "bytes32"
        }
      ],
      "name": "approveChallenge",
      "outputs": [],
      "payable": false,
      "stateMutability": "nonpayable",
      "type": "function"
    },
    {
      "constant": false,
      "inputs": [
        {
          "name": "_listing",
          "type": "bytes32"
        },
        {
          "name": "_stakeAmount",
          "type": "uint256"
        }
      ],
      "name": "decrease",
      "outputs": [],
      "payable": false,
      "stateMutability": "nonpayable",
      "type": "function"
    },
    {
      "constant": true,
      "inputs": [
        {
          "name": "",
          "type": "uint256"
        }
      ],
      "name": "challenges",
      "outputs": [
        {
          "name": "challenger",
          "type": "address"
        },
        {
          "name": "resolved",
          "type": "bool"
        },
        {
          "name": "stake",
          "type": "uint256"
        },
        {
          "name": "listing",
          "type": "bytes32"
        }
      ],
      "payable": false,
      "stateMutability": "view",
      "type": "function"
    },
    {
      "constant": false,
      "inputs": [
        {
          "name": "_listing",
          "type": "bytes32"
        }
      ],
      "name": "unlist",
      "outputs": [],
      "payable": false,
      "stateMutability": "nonpayable",
      "type": "function"
    },
    {
      "constant": true,
      "inputs": [
        {
          "name": "",
          "type": "bytes32"
        }
      ],
      "name": "listings",
      "outputs": [
        {
          "name": "whitelisted",
          "type": "bool"
        },
        {
          "name": "owner",
          "type": "address"
        },
        {
          "name": "stake",
          "type": "uint256"
        },
        {
          "name": "target",
          "type": "string"
        },
        {
          "name": "challenges",
          "type": "uint256"
        },
        {
          "name": "totalStake",
          "type": "uint256"
        }
      ],
      "payable": false,
      "stateMutability": "view",
      "type": "function"
    },
    {
      "constant": false,
      "inputs": [
        {
          "name": "_listing",
          "type": "bytes32"
        },
        {
          "name": "_stakeAmount",
          "type": "uint256"
        }
      ],
      "name": "challenge",
      "outputs": [
        {
          "name": "challengeID",
          "type": "uint256"
        }
      ],
      "payable": false,
      "stateMutability": "nonpayable",
      "type": "function"
    },
    {
      "constant": false,
      "inputs": [
        {
          "name": "_listing",
          "type": "bytes32"
        },
        {
          "name": "_stakeAmount",
          "type": "uint256"
        }
      ],
      "name": "increase",
      "outputs": [],
      "payable": false,
      "stateMutability": "nonpayable",
      "type": "function"
    },
    {
      "constant": true,
      "inputs": [],
      "name": "token",
      "outputs": [
        {
          "name": "",
          "type": "address"
        }
      ],
      "payable": false,
      "stateMutability": "view",
      "type": "function"
    },
    {
      "inputs": [
        {
          "name": "_name",
          "type": "bytes32"
        },
        {
          "name": "_decimals",
          "type": "uint8"
        },
        {
          "name": "_registry",
          "type": "address"
        },
        {
          "name": "_gateKeeper",
          "type": "address"
        },
        {
          "name": "_token",
          "type": "address"
        }
      ],
      "payable": false,
      "stateMutability": "nonpayable",
      "type": "constructor"
    },
    {
      "anonymous": false,
      "inputs": [
        {
          "indexed": false,
          "name": "listing",
          "type": "bytes32"
        },
        {
          "indexed": false,
          "name": "deposit",
          "type": "uint256"
        },
        {
          "indexed": false,
          "name": "target",
          "type": "string"
        }
      ],
      "name": "Enlisted",
      "type": "event"
    },
    {
      "anonymous": false,
      "inputs": [
        {
          "indexed": false,
          "name": "listing",
          "type": "bytes32"
        },
        {
          "indexed": false,
          "name": "deposit",
          "type": "uint256"
        },
        {
          "indexed": false,
          "name": "challengeID",
          "type": "uint256"
        }
      ],
      "name": "Challenged",
      "type": "event"
    },
    {
      "anonymous": false,
      "inputs": [
        {
          "indexed": false,
          "name": "listing",
          "type": "bytes32"
        }
      ],
      "name": "Unlisted",
      "type": "event"
    },
    {
      "anonymous": false,
      "inputs": [
        {
          "indexed": false,
          "name": "listing",
          "type": "bytes32"
        }
      ],
      "name": "ChallengeApproved",
      "type": "event"
    },
    {
      "anonymous": false,
      "inputs": [
        {
          "indexed": false,
          "name": "listing",
          "type": "bytes32"
        }
      ],
      "name": "ChallengeDenied",
      "type": "event"
    },
    {
      "anonymous": false,
      "inputs": [
        {
          "indexed": false,
          "name": "listing",
          "type": "bytes32"
        },
        {
          "indexed": false,
          "name": "increasedBy",
          "type": "uint256"
        },
        {
          "indexed": false,
          "name": "newDeposit",
          "type": "uint256"
        }
      ],
      "name": "Increased",
      "type": "event"
    },
    {
      "anonymous": false,
      "inputs": [
        {
          "indexed": false,
          "name": "listing",
          "type": "bytes32"
        },
        {
          "indexed": false,
          "name": "decreasedBy",
          "type": "uint256"
        },
        {
          "indexed": false,
          "name": "newDeposit",
          "type": "uint256"
        }
      ],
      "name": "Decreased",
      "type": "event"
    },
    {
      "anonymous": false,
      "inputs": [
        {
          "indexed": false,
          "name": "bla",
          "type": "uint256"
        }
      ],
      "name": "Debug",
      "type": "event"
    }
  ],
  "bytecode": "0x60606040526000600355600a60045560058055600a600655341561002257600080fd5b60405160a080611177833981016040528080519190602001805191906020018051919060200180519190602001805160028054600160a060020a03909216600160a060020a03199092169190911790555050505050506110f0806100876000396000f3006060604052600436106100aa5763ffffffff60e060020a600035041662c53f8c81146100af57806301a5e3fe146100d75780630f4c8f45146101015780631b7bbecb146101175780633ccfd60b1461012d5780634b0e2191146101405780638cd6d2b4146101565780638f1d37761461016f578063bc40a277146101bb578063c18b8db4146101d1578063e2083c18146102a0578063f4478dad146102cb578063fc0c546a146102e4575b600080fd5b34156100ba57600080fd5b6100d560048035906024803591604435918201910135610313565b005b34156100e257600080fd5b6100ed60043561053b565b604051901515815260200160405180910390f35b341561010c57600080fd5b6100d5600435610550565b341561012257600080fd5b6100ed60043561065a565b341561013857600080fd5b6100d5610670565b341561014b57600080fd5b6100d56004356106af565b341561016157600080fd5b6100d56004356024356108a3565b341561017a57600080fd5b6101856004356109f8565b604051600160a060020a039094168452911515602084015260408084019190915260608301919091526080909101905180910390f35b34156101c657600080fd5b6100d5600435610a2f565b34156101dc57600080fd5b6101e7600435610bb9565b6040518615158152600160a060020a0386166020820152604081018590526080810183905260a0810182905260c0606082018181528554600260001961010060018416150201909116049183018290529060e08301908690801561028c5780601f106102615761010080835404028352916020019161028c565b820191906000526020600020905b81548152906001019060200180831161026f57829003601f168201915b505097505050505050505060405180910390f35b34156102ab57600080fd5b6102b9600435602435610bf5565b60405190815260200160405180910390f35b34156102d657600080fd5b6100d5600435602435610df6565b34156102ef57600080fd5b6102f7610f19565b604051600160a060020a03909116815260200160405180910390f35b61031b610f28565b60045484101561032a57600080fd5b600254600160a060020a03166323b872dd33308760006040516020015260405160e060020a63ffffffff8616028152600160a060020a0393841660048201529190921660248201526044810191909152606401602060405180830381600087803b151561039657600080fd5b6102c65a03f115156103a757600080fd5b5050506040518051905015156103bc57600080fd5b60e06040519081016040528060011515815260200133600160a060020a0316815260200185815260200184848080601f0160208091040260200160405190810160405281815292919060208401838380828437505050928452505060006020808401829052604080850187905260609094018990528982528190529190912090508151815460ff191690151517815560208201518154600160a060020a03919091166101000274ffffffffffffffffffffffffffffffffffffffff0019909116178155604082015181600101556060820151816002019080516104a3929160200190610f3a565b506080820151816003015560a0820151816004019080516104c8929160200190610fb8565b5060c0820151600590910155507f232015555b9039d0149d68b762bec8bdf615e9485dfdde85f4d69e3a83835fd385858585604051848152602081018490526060604082018181529082018390526080820184848082843782019150509550505050505060405180910390a15050505050565b60009081526020819052604090205460ff1690565b600081815260208190526040812060058101546006549192909181906064900483029150600160a060020a03331682156108fc0283604051600060405180830381858888f1935050505015156105a557600080fd5b5060005b600484015481101561061957600180600086600401848154811015156105cb57fe5b600091825260208083209091015483528201929092526040019020805491151560a060020a0274ff0000000000000000000000000000000000000000199092169190911790556001016105a9565b600060038501557fb5fcf011cd44be27fdd6c415f3a94c64376a615e7a8df51037183c266351319e8560405190815260200160405180910390a15050505050565b6000908152602081905260408120600301541190565b33600160a060020a03166108fc30600160a060020a0316319081150290604051600060405180830381858888f1935050505015156106ad57600080fd5b565b60008060008060006106bf610ff2565b600087815260208190526040812060058101546001820154600654929950909750870395506064900486029350600160a060020a03331684156108fc0285604051600060405180830381858888f19350505050151561071d57600080fd5b600092505b60048701548310156108505760016000886004018581548110151561074357fe5b9060005260206000209001548152602001908152602001600020608060405190810160409081528254600160a060020a038116835260a060020a900460ff161515602083015260018301549082015260029091015460608201529150508285038151600160a060020a03166108fc8684604001518115156107c057fe5b0483029081150290604051600060405180830381858888f1935050505015156107e857600080fd5b600180600089600401868154811015156107fe57fe5b600091825260208083209091015483528201929092526040019020805491151560a060020a0274ff00000000000000000000000000000000000000001990921691909117905560019290920191610722565b6000600188018190556005880155865460ff191687557f45552e8036e6f0b8afe8aa1347567a847613a7095162e76bee4dfc8999c2fb528860405190815260200160405180910390a15050505050505050565b6000828152602081905260409020805433600160a060020a0390811661010090920416146108d057600080fd5b60018101548211156108e157600080fd5b600454600182015483900310156108f757600080fd5b6004546005820154839003101561090d57600080fd5b600254600160a060020a031663a9059cbb338460006040516020015260405160e060020a63ffffffff8516028152600160a060020a0390921660048301526024820152604401602060405180830381600087803b151561096c57600080fd5b6102c65a03f1151561097d57600080fd5b50505060405180519050151561099257600080fd5b6001810180548390039081905560058201805484900390557fe8a15c36ddecf6f4f9f08bbc59f5c547485a107b6cf17d731dec04e5c637438c908490849060405192835260208301919091526040808301919091526060909101905180910390a1505050565b6001602081905260009182526040909120805491810154600290910154600160a060020a0383169260a060020a900460ff16919084565b6000818152602081905260409020805433600160a060020a039081166101009092041614610a5c57600080fd5b610a658261053b565b1515610a7057600080fd5b600381015415610a7f57600080fd5b600081600101541115610b215760025481546001830154600160a060020a039283169263a9059cbb926101009004169060006040516020015260405160e060020a63ffffffff8516028152600160a060020a0390921660048301526024820152604401602060405180830381600087803b1515610afb57600080fd5b6102c65a03f11515610b0c57600080fd5b505050604051805190501515610b2157600080fd5b6000828152602081905260408120805474ffffffffffffffffffffffffffffffffffffffffff191681556001810182905590610b606002830182611019565b6003820160009055600482016000610b789190611060565b600582016000905550507f2e6ec049d62c8a42e7cc223354aadb68d5046a2cba67ed55a089fdb852fb6cb68260405190815260200160405180910390a15050565b6000602081905290815260409020805460018201546003830154600584015460ff841694610100909404600160a060020a031693600201919086565b600080610c00610ff2565b600554841015610c0f57600080fd5b600085815260208190526040808220600254909450600160a060020a0316916323b872dd9133913091899190516020015260405160e060020a63ffffffff8616028152600160a060020a0393841660048201529190921660248201526044810191909152606401602060405180830381600087803b1515610c8f57600080fd5b6102c65a03f11515610ca057600080fd5b505050604051805190501515610cb557600080fd5b6003805460010190819055925060806040519081016040908152600160a060020a03331682526000602080840182905282840188905260608401899052868252600190522090915081908151815473ffffffffffffffffffffffffffffffffffffffff1916600160a060020a03919091161781556020820151815490151560a060020a0274ff00000000000000000000000000000000000000001990911617815560408201518160010155606082015160029091015550600382018054600190810190915560048301805490918101610d8e838261107e565b506000918252602090912001839055600582018054850190557f346179119607de02d189e442e1f22c5a25ced2e8f102ddd36762a34b3d66b05685858560405192835260208301919091526040808301919091526060909101905180910390a1505092915050565b6000828152602081905260409020805433600160a060020a039081166101009092041614610e2357600080fd5b600254600160a060020a03166323b872dd33308560006040516020015260405160e060020a63ffffffff8616028152600160a060020a0393841660048201529190921660248201526044810191909152606401602060405180830381600087803b1515610e8f57600080fd5b6102c65a03f11515610ea057600080fd5b505050604051805190501515610eb557600080fd5b600181018054830190819055600582018054840190557f7f27350fe80670682f5dc629cc881b7169e0ede96a681e843d0267bbfbb7a98b908490849060405192835260208301919091526040808301919091526060909101905180910390a1505050565b600254600160a060020a031681565b60206040519081016040526000815290565b828054600181600116156101000203166002900490600052602060002090601f016020900481019282601f10610f7b57805160ff1916838001178555610fa8565b82800160010185558215610fa8579182015b82811115610fa8578251825591602001919060010190610f8d565b50610fb49291506110a7565b5090565b828054828255906000526020600020908101928215610fa85791602002820182811115610fa8578251825591602001919060010190610f8d565b60806040519081016040908152600080835260208301819052908201819052606082015290565b50805460018160011615610100020316600290046000825580601f1061103f575061105d565b601f01602090049060005260206000209081019061105d91906110a7565b50565b508054600082559060005260206000209081019061105d91906110a7565b8154818355818115116110a2576000838152602090206110a29181019083016110a7565b505050565b6110c191905b80821115610fb457600081556001016110ad565b905600a165627a7a723058202facca05a32277e5a824003b705c0a581bef301b0f14b21ee5a92c2ca78663b40029",
  "source": "pragma solidity ^0.4.11;\n\nimport \"./DtxToken/DtxToken.sol\";\n\n\ncontract Registry {\n\n  // ------\n  // EVENTS\n  // ------\n\n  event Enlisted(bytes32 listing, uint deposit, string target);\n  event Challenged(bytes32 listing, uint deposit, uint challengeID);\n  event Unlisted(bytes32 listing);\n  event ChallengeApproved(bytes32 listing);\n  event ChallengeDenied(bytes32 listing);\n  event Increased(bytes32 listing, uint increasedBy, uint newDeposit);\n  event Decreased(bytes32 listing, uint decreasedBy, uint newDeposit);\n\n  event Debug(uint bla);\n\n  struct Listing {\n    bool whitelisted;       // Should the data appear on the listing or not\n    address owner;          // Owner of Listing\n    uint stake;             // Number of unlocked tokens with potential risk if challenged\n    string target;          // Identifier of the data\n    uint challenges;        // Number of unresolved challenges on the listing\n    uint[] challengeIDs;    // Array of the different challenge IDs\n    uint totalStake;        // Stake with challenged stake added\n  }\n\n  struct Challenge {\n    address challenger;     // Owner of Challenge\n    bool resolved;          // Indication of if challenge is resolved\n    uint stake;             // Number of tokens at risk for either party during challenge\n    bytes32 listing;        // Listing this challenge was added to\n  }\n\n  // Maps listingHashes to associated listing data\n  mapping(bytes32 => Listing) public listings;\n\n  // Maps challenges to associated challenge data\n  mapping(uint => Challenge) public challenges;\n\n  // Global Variables\n  DtxToken public token;\n  uint currentChallengeID = 0;\n  uint MIN_ENLIST_AMOUNT = 10;\n  uint MIN_CHALLENGE_AMOUNT = 5;\n  uint ADMIN_PERCENTAGE = 10;\n\n  /**\n  @dev Contructor\n  @notice                Sets the address for token\n  @param _name           Name for the token\n  @param _decimals       Number of decimals of the token\n  @param _registry       Address of the registry (will be 0x0 in this case, cause we don't need it for this implementation)\n  @param _gateKeeper     Address of the gatekeeper\n  */\n  function Registry(\n    bytes32 _name,\n    uint8 _decimals,\n    address _registry,\n    address _gateKeeper,\n    address _token\n  ) public \n  {\n    token = DtxToken(_token);\n  }\n\n  /**\n  @notice                 Allows a seller to list data to be available for selling.\n  @notice                 Takes tokens from user.\n  @param _listing         The listing of data\n  @param _stakeAmount     The number of ERC20 tokens a user is willing to potentially stake\n  @param _target          String with ipfs hash of data\n  */\n  function enlist(bytes32 _listing, uint _stakeAmount, string _target) external {\n    // Stake must be above a certain amount\n    require(_stakeAmount >= MIN_ENLIST_AMOUNT);\n\n    // Transfers tokens from user to Registry contract\n    require(token.transferFrom(msg.sender, this, _stakeAmount));\n\n    // Add listing to listings\n    uint[] memory empty;\n    listings[_listing] = Listing({\n      whitelisted: true,\n      owner: msg.sender,\n      stake: _stakeAmount,\n      target: _target,\n      challenges: 0,\n      challengeIDs: empty,\n      totalStake: _stakeAmount\n    });\n\n    // Event\n    Enlisted(_listing, _stakeAmount, _target);\n  }\n\n  /**\n  @notice             Allows the owner of a listing to remove the listing from the whitelist\n  @notice             Returns all tokens to the owner of the listing\n  @param _listing     The listing of a user's listing\n  */\n  function unlist(bytes32 _listing) external {\n    Listing storage listing = listings[_listing];\n\n    require(msg.sender == listing.owner);\n    require(isWhitelisted(_listing));\n\n    // Cannot exit during ongoing challenge\n    require(listing.challenges == 0);\n\n    // Transfers any remaining balance back to the owner\n    if (listing.stake > 0)\n      require(token.transfer(listing.owner, listing.stake));\n\n    delete listings[_listing]; // delete changes the whitelisted prop from true to false\n    Unlisted(_listing);\n  }\n\n  /**\n  @notice             Allows the owner of a listing to increase their unstaked deposit.\n  @param _listing     The listing of a user's application/listing\n  @param _stakeAmount The number of ERC20 tokens to increase a user's unstaked deposit\n  */\n  function increase(bytes32 _listing, uint _stakeAmount) external {\n    Listing storage listing = listings[_listing];\n\n    require(listing.owner == msg.sender);\n    require(token.transferFrom(msg.sender, this, _stakeAmount));\n\n    listing.stake += _stakeAmount;\n    listing.totalStake += _stakeAmount;\n\n    Increased(_listing, _stakeAmount, listing.stake);\n  }\n\n  /**\n  @notice             Allows the owner of a listing to decrease their unstaked deposit.\n  @notice             The listing keeps its previous status.\n  @param _listing     The listing of a user's application/listing\n  @param _stakeAmount The number of ERC20 tokens to decrease a user's unstaked deposit\n  */\n  function decrease(bytes32 _listing, uint _stakeAmount) external {\n    Listing storage listing = listings[_listing];\n\n    require(listing.owner == msg.sender);\n    require(_stakeAmount <= listing.stake);\n    require(listing.stake - _stakeAmount >= MIN_ENLIST_AMOUNT);\n    require(listing.totalStake - _stakeAmount >= MIN_ENLIST_AMOUNT);\n\n    require(token.transfer(msg.sender, _stakeAmount));\n\n    listing.stake -= _stakeAmount;\n    listing.totalStake -= _stakeAmount;\n\n    Decreased(_listing, _stakeAmount, listing.stake);\n  }\n\n  /**\n  @notice             Starts a challenge for a listing.\n  @dev                Tokens are taken from the challenger and the data seller's deposit is locked.\n  @param _listing     The listing of data.\n  @param _stakeAmount The amount the challenger wants to stake.\n  */\n  function challenge(bytes32 _listing, uint _stakeAmount) external returns (uint challengeID) {\n    require(_stakeAmount >= MIN_CHALLENGE_AMOUNT);\n\n    Listing storage listing = listings[_listing];\n\n    // Takes tokens from challenger\n    require(token.transferFrom(msg.sender, this, _stakeAmount));\n\n    // Keep track of challenge id\n    challengeID = currentChallengeID + 1;\n    currentChallengeID = challengeID; \n\n    // Add challenge to the challenges mapping\n    Challenge memory challenge = Challenge({\n      challenger: msg.sender,\n      stake: _stakeAmount,\n      resolved: false,\n      listing: _listing\n    });\n    challenges[challengeID] = challenge;\n\n    // Increase the number of challenges on the right listing\n    listing.challenges = listing.challenges + 1;\n    // Add challengeID to listing\n    listing.challengeIDs.push(challengeID);\n    // Add to the totalStake on a listing\n    listing.totalStake = listing.totalStake + _stakeAmount;\n    \n    Challenged(_listing, _stakeAmount, challengeID);\n    return challengeID;\n  }\n\n   /**\n  @notice             Marks a challenge as resolved.\n  @notice             Rewards the winner tokens and either whitelists or de-whitelists the listing.\n  @param _listing   A listing with a challenge that is to be resolved\n  */\n  function approveChallenge(bytes32 _listing) external {\n    Listing storage listing = listings[_listing];\n\n    uint totalStake = listing.totalStake;\n    uint totalChallengesStake = totalStake - listing.stake;\n\n    // Admin (msg.sender) should get 10% of the total sum of all challenge stakes + lising stake\n    uint adminShare = totalStake * (ADMIN_PERCENTAGE / 100);\n    msg.sender.transfer(adminShare);\n\n    // Challengers should get a percentage of the total sum of all challenge stakes + lising stake\n    // equal to their share of the total challenge stake\n    // Get all challenges that are unresolved and are linked to this listing, \n    for (uint i = 0; i < listing.challengeIDs.length; i ++) {\n      Challenge memory challenge = challenges[listing.challengeIDs[i]];\n\n      // Calculate what's left to divide between the challengers\n      uint challengerShare = totalStake - adminShare;\n      // Transfer percentage of challenge\n      challenge.challenger.transfer(challengerShare * (challenge.stake / totalChallengesStake));\n      // Set challenge as resolved\n      challenges[listing.challengeIDs[i]].resolved = true;\n    }\n\n    // Take stake from listing\n    listing.stake = 0;\n    listing.totalStake = 0;\n    // Blacklist listing\n    listing.whitelisted = false;\n\n    // Event\n    ChallengeApproved(_listing);\n  }\n\n   /**\n  @notice             Marks a challenge as denied.\n  @notice             Rewards the listing seller tokens and de-whitelists the listing.\n  @param _listing     A listing with a challenge that is to be resolved\n  */\n  function denyChallenge(bytes32 _listing) external {\n    Listing storage listing = listings[_listing];\n\n    uint totalStake = listing.totalStake;\n\n    // Admin (msg.sender) should get 10% of the total sum of all challenge stakes + lising stake\n    uint adminShare = totalStake * (ADMIN_PERCENTAGE / 100);\n    msg.sender.transfer(adminShare);\n\n    // Transfer the rest of the stake to the data owner\n    // listing.owner.transfer(totalStake - adminShare);\n\n    // Get all challenges that are unresolved and are linked to this listing, \n    for (uint i = 0; i < listing.challengeIDs.length; i ++) {\n      // Set challenge as resolved\n      challenges[listing.challengeIDs[i]].resolved = true;\n    }\n\n    // Remove challenges on the listing\n    listing.challenges = 0;    \n\n    // Event\n    ChallengeDenied(_listing);\n  }\n\n  /**\n  @dev      Withdraw all the fund from this contract\n  */\n  function withdraw() external {\n    // TODO: only certain role can do this!\n    msg.sender.transfer(this.balance);\n  }\n\n/**\n  @notice             Returns true if listing is whitelisted\n  @param _listing     The listing of a user's listing\n  */ \n  function isWhitelisted(bytes32 _listing) view public returns (bool whitelisted) {\n    return listings[_listing].whitelisted;\n  }\n\n/**\n  @notice            Returns true if the application/listing has an unresolved challenge\n  @param _listing     The listing of a user's listing\n  */ \n  function challengeExists(bytes32 _listing) view public returns (bool exists) {\n    return (listings[_listing].challenges > 0);\n  }\n\n  /**\n  @dev                Called by updateStatus() if the applicationExpiry date passed without a challenge being made.\n  @dev                Called by resolveChallenge() if an application/listing beat a challenge.\n  @param _listing      The listing of an application/listing to be whitelisted\n  */\n  function whitelistApplication(bytes32 _listing) internal {\n    listings[_listing].whitelisted = true;\n  }\n}\n",
  "sourcePath": "/Users/silkevandenbroeck/settlemint/token-curated-marketplace/contracts/Registry.sol",
  "compiler": {
    "name": "solc",
    "version": "0.4.18+commit.9cf6e910.Emscripten.clang"
  },
  "schemaVersion": "1.0.1",
  "updatedAt": "2018-01-29T12:25:58.766Z"
}