{
  "contractName": "Registry",
  "abi": [
    {
      "constant": false,
      "inputs": [
        {
          "name": "_listing",
          "type": "bytes32"
        },
        {
          "name": "_stakeAmount",
          "type": "uint256"
        },
        {
          "name": "_target",
          "type": "string"
        }
      ],
      "name": "enlist",
      "outputs": [],
      "payable": false,
      "stateMutability": "nonpayable",
      "type": "function"
    },
    {
      "constant": true,
      "inputs": [
        {
          "name": "_listing",
          "type": "bytes32"
        }
      ],
      "name": "isWhitelisted",
      "outputs": [
        {
          "name": "whitelisted",
          "type": "bool"
        }
      ],
      "payable": false,
      "stateMutability": "view",
      "type": "function"
    },
    {
      "constant": false,
      "inputs": [
        {
          "name": "_listing",
          "type": "bytes32"
        }
      ],
      "name": "denyChallenge",
      "outputs": [],
      "payable": false,
      "stateMutability": "nonpayable",
      "type": "function"
    },
    {
      "constant": true,
      "inputs": [
        {
          "name": "_listing",
          "type": "bytes32"
        }
      ],
      "name": "challengeExists",
      "outputs": [
        {
          "name": "exists",
          "type": "bool"
        }
      ],
      "payable": false,
      "stateMutability": "view",
      "type": "function"
    },
    {
      "constant": false,
      "inputs": [],
      "name": "withdraw",
      "outputs": [],
      "payable": false,
      "stateMutability": "nonpayable",
      "type": "function"
    },
    {
      "constant": false,
      "inputs": [
        {
          "name": "_listing",
          "type": "bytes32"
        }
      ],
      "name": "approveChallenge",
      "outputs": [
        {
          "name": "total",
          "type": "uint256"
        }
      ],
      "payable": false,
      "stateMutability": "nonpayable",
      "type": "function"
    },
    {
      "constant": false,
      "inputs": [
        {
          "name": "_listing",
          "type": "bytes32"
        },
        {
          "name": "_stakeAmount",
          "type": "uint256"
        }
      ],
      "name": "decrease",
      "outputs": [],
      "payable": false,
      "stateMutability": "nonpayable",
      "type": "function"
    },
    {
      "constant": true,
      "inputs": [
        {
          "name": "",
          "type": "uint256"
        }
      ],
      "name": "challenges",
      "outputs": [
        {
          "name": "challenger",
          "type": "address"
        },
        {
          "name": "resolved",
          "type": "bool"
        },
        {
          "name": "stake",
          "type": "uint256"
        },
        {
          "name": "listing",
          "type": "bytes32"
        }
      ],
      "payable": false,
      "stateMutability": "view",
      "type": "function"
    },
    {
      "constant": false,
      "inputs": [
        {
          "name": "_listing",
          "type": "bytes32"
        }
      ],
      "name": "unlist",
      "outputs": [],
      "payable": false,
      "stateMutability": "nonpayable",
      "type": "function"
    },
    {
      "constant": true,
      "inputs": [
        {
          "name": "",
          "type": "bytes32"
        }
      ],
      "name": "listings",
      "outputs": [
        {
          "name": "whitelisted",
          "type": "bool"
        },
        {
          "name": "owner",
          "type": "address"
        },
        {
          "name": "stake",
          "type": "uint256"
        },
        {
          "name": "target",
          "type": "string"
        },
        {
          "name": "challenges",
          "type": "uint256"
        },
        {
          "name": "totalStake",
          "type": "uint256"
        }
      ],
      "payable": false,
      "stateMutability": "view",
      "type": "function"
    },
    {
      "constant": false,
      "inputs": [
        {
          "name": "_listing",
          "type": "bytes32"
        },
        {
          "name": "_stakeAmount",
          "type": "uint256"
        }
      ],
      "name": "challenge",
      "outputs": [
        {
          "name": "challengeID",
          "type": "uint256"
        }
      ],
      "payable": false,
      "stateMutability": "nonpayable",
      "type": "function"
    },
    {
      "constant": false,
      "inputs": [
        {
          "name": "_listing",
          "type": "bytes32"
        },
        {
          "name": "_stakeAmount",
          "type": "uint256"
        }
      ],
      "name": "increase",
      "outputs": [],
      "payable": false,
      "stateMutability": "nonpayable",
      "type": "function"
    },
    {
      "inputs": [
        {
          "name": "_tokenAddr",
          "type": "address"
        }
      ],
      "payable": false,
      "stateMutability": "nonpayable",
      "type": "constructor"
    },
    {
      "anonymous": false,
      "inputs": [
        {
          "indexed": false,
          "name": "listing",
          "type": "bytes32"
        },
        {
          "indexed": false,
          "name": "deposit",
          "type": "uint256"
        },
        {
          "indexed": false,
          "name": "target",
          "type": "string"
        }
      ],
      "name": "Enlisted",
      "type": "event"
    },
    {
      "anonymous": false,
      "inputs": [
        {
          "indexed": false,
          "name": "listing",
          "type": "bytes32"
        },
        {
          "indexed": false,
          "name": "deposit",
          "type": "uint256"
        },
        {
          "indexed": false,
          "name": "challengeID",
          "type": "uint256"
        }
      ],
      "name": "Challenged",
      "type": "event"
    },
    {
      "anonymous": false,
      "inputs": [
        {
          "indexed": false,
          "name": "listing",
          "type": "bytes32"
        }
      ],
      "name": "Unlisted",
      "type": "event"
    },
    {
      "anonymous": false,
      "inputs": [
        {
          "indexed": false,
          "name": "listing",
          "type": "bytes32"
        }
      ],
      "name": "ChallengeApproved",
      "type": "event"
    },
    {
      "anonymous": false,
      "inputs": [
        {
          "indexed": false,
          "name": "listing",
          "type": "bytes32"
        }
      ],
      "name": "ChallengeDenied",
      "type": "event"
    },
    {
      "anonymous": false,
      "inputs": [
        {
          "indexed": false,
          "name": "listing",
          "type": "bytes32"
        },
        {
          "indexed": false,
          "name": "increasedBy",
          "type": "uint256"
        },
        {
          "indexed": false,
          "name": "newDeposit",
          "type": "uint256"
        }
      ],
      "name": "Increased",
      "type": "event"
    },
    {
      "anonymous": false,
      "inputs": [
        {
          "indexed": false,
          "name": "listing",
          "type": "bytes32"
        },
        {
          "indexed": false,
          "name": "decreasedBy",
          "type": "uint256"
        },
        {
          "indexed": false,
          "name": "newDeposit",
          "type": "uint256"
        }
      ],
      "name": "Decreased",
      "type": "event"
    }
  ],
  "bytecode": "0x60606040526000600355600a60045560058055341561001d57600080fd5b604051602080610e188339810160405280805160028054600160a060020a03909216600160a060020a03199092169190911790555050610db6806100626000396000f30060606040526004361061009f5763ffffffff60e060020a600035041662c53f8c81146100a457806301a5e3fe146100cc5780630f4c8f45146100f65780631b7bbecb1461010c5780633ccfd60b146101225780634b0e2191146101355780638cd6d2b41461015d5780638f1d377614610176578063bc40a277146101c2578063c18b8db4146101d8578063e2083c18146102a7578063f4478dad146102c0575b600080fd5b34156100af57600080fd5b6100ca600480359060248035916044359182019101356102d9565b005b34156100d757600080fd5b6100e2600435610501565b604051901515815260200160405180910390f35b341561010157600080fd5b6100ca600435610516565b341561011757600080fd5b6100e2600435610520565b341561012d57600080fd5b6100ca610536565b341561014057600080fd5b61014b600435610538565b60405190815260200160405180910390f35b341561016857600080fd5b6100ca600435602435610581565b341561018157600080fd5b61018c6004356106b5565b604051600160a060020a039094168452911515602084015260408084019190915260608301919091526080909101905180910390f35b34156101cd57600080fd5b6100ca6004356106fd565b34156101e357600080fd5b6101ee600435610887565b6040518615158152600160a060020a0386166020820152604081018590526080810183905260a0810182905260c0606082018181528554600260001961010060018416150201909116049183018290529060e0830190869080156102935780601f1061026857610100808354040283529160200191610293565b820191906000526020600020905b81548152906001019060200180831161027657829003601f168201915b505097505050505050505060405180910390f35b34156102b257600080fd5b61014b6004356024356108c3565b34156102cb57600080fd5b6100ca600435602435610ad5565b6102e1610bee565b6004548410156102f057600080fd5b600254600160a060020a03166323b872dd33308760006040516020015260405160e060020a63ffffffff8616028152600160a060020a0393841660048201529190921660248201526044810191909152606401602060405180830381600087803b151561035c57600080fd5b6102c65a03f1151561036d57600080fd5b50505060405180519050151561038257600080fd5b60e06040519081016040528060011515815260200133600160a060020a0316815260200185815260200184848080601f0160208091040260200160405190810160405281815292919060208401838380828437505050928452505060006020808401829052604080850187905260609094018990528982528190529190912090508151815460ff191690151517815560208201518154600160a060020a03919091166101000274ffffffffffffffffffffffffffffffffffffffff001990911617815560408201518160010155606082015181600201908051610469929160200190610c00565b506080820151816003015560a08201518160040190805161048e929160200190610c7e565b5060c0820151600590910155507f232015555b9039d0149d68b762bec8bdf615e9485dfdde85f4d69e3a83835fd385858585604051848152602081018490526060604082018181529082018390526080820184848082843782019150509550505050505060405180910390a15050505050565b60009081526020819052604090205460ff1690565b6000908152602052565b6000908152602081905260408120600301541190565b565b600081815260208190526040808220907f45552e8036e6f0b8afe8aa1347567a847613a7095162e76bee4dfc8999c2fb529084905190815260200160405180910390a150919050565b6000828152602081905260409020805433600160a060020a0390811661010090920416146105ae57600080fd5b60018101548211156105bf57600080fd5b600454600182015483900310156105d557600080fd5b600254600160a060020a031663a9059cbb338460006040516020015260405160e060020a63ffffffff8516028152600160a060020a0390921660048301526024820152604401602060405180830381600087803b151561063457600080fd5b6102c65a03f1151561064557600080fd5b50505060405180519050151561065a57600080fd5b600181018054839003908190557fe8a15c36ddecf6f4f9f08bbc59f5c547485a107b6cf17d731dec04e5c637438c908490849060405192835260208301919091526040808301919091526060909101905180910390a1505050565b6001602081905260009182526040909120805491810154600290910154600160a060020a0383169274010000000000000000000000000000000000000000900460ff16919084565b6000818152602081905260409020805433600160a060020a03908116610100909204161461072a57600080fd5b61073382610501565b151561073e57600080fd5b60038101541561074d57600080fd5b6000816001015411156107ef5760025481546001830154600160a060020a039283169263a9059cbb926101009004169060006040516020015260405160e060020a63ffffffff8516028152600160a060020a0390921660048301526024820152604401602060405180830381600087803b15156107c957600080fd5b6102c65a03f115156107da57600080fd5b5050506040518051905015156107ef57600080fd5b6000828152602081905260408120805474ffffffffffffffffffffffffffffffffffffffffff19168155600181018290559061082e6002830182610cb8565b60038201600090556004820160006108469190610cff565b600582016000905550507f2e6ec049d62c8a42e7cc223354aadb68d5046a2cba67ed55a089fdb852fb6cb68260405190815260200160405180910390a15050565b6000602081905290815260409020805460018201546003830154600584015460ff841694610100909404600160a060020a031693600201919086565b6000806108ce610d1d565b6005548410156108dd57600080fd5b600085815260208190526040808220600254909450600160a060020a0316916323b872dd9133913091899190516020015260405160e060020a63ffffffff8616028152600160a060020a0393841660048201529190921660248201526044810191909152606401602060405180830381600087803b151561095d57600080fd5b6102c65a03f1151561096e57600080fd5b50505060405180519050151561098357600080fd5b6003805460010190819055925060806040519081016040908152600160a060020a03331682526000602080840182905282840188905260608401899052868252600190522090915081908151815473ffffffffffffffffffffffffffffffffffffffff1916600160a060020a039190911617815560208201518154901515740100000000000000000000000000000000000000000274ff00000000000000000000000000000000000000001990911617815560408201518160010155606082015160029091015550600382018054600190810190915560048301805490918101610a6d8382610d44565b506000918252602090912001839055600582018054850190557f346179119607de02d189e442e1f22c5a25ced2e8f102ddd36762a34b3d66b05685858560405192835260208301919091526040808301919091526060909101905180910390a1505092915050565b6000828152602081905260409020805433600160a060020a039081166101009092041614610b0257600080fd5b600254600160a060020a03166323b872dd33308560006040516020015260405160e060020a63ffffffff8616028152600160a060020a0393841660048201529190921660248201526044810191909152606401602060405180830381600087803b1515610b6e57600080fd5b6102c65a03f11515610b7f57600080fd5b505050604051805190501515610b9457600080fd5b6001810180548301908190557f7f27350fe80670682f5dc629cc881b7169e0ede96a681e843d0267bbfbb7a98b908490849060405192835260208301919091526040808301919091526060909101905180910390a1505050565b60206040519081016040526000815290565b828054600181600116156101000203166002900490600052602060002090601f016020900481019282601f10610c4157805160ff1916838001178555610c6e565b82800160010185558215610c6e579182015b82811115610c6e578251825591602001919060010190610c53565b50610c7a929150610d6d565b5090565b828054828255906000526020600020908101928215610c6e5791602002820182811115610c6e578251825591602001919060010190610c53565b50805460018160011615610100020316600290046000825580601f10610cde5750610cfc565b601f016020900490600052602060002090810190610cfc9190610d6d565b50565b5080546000825590600052602060002090810190610cfc9190610d6d565b60806040519081016040908152600080835260208301819052908201819052606082015290565b815481835581811511610d6857600083815260209020610d68918101908301610d6d565b505050565b610d8791905b80821115610c7a5760008155600101610d73565b905600a165627a7a723058200039a496983a67200d5dcfa74ca951650057cdb8a25f854a611a68009329121f0029",
  "source": "pragma solidity ^0.4.11;\n\nimport \"tokens/eip20/EIP20.sol\";\n\n\ncontract Registry {\n\n  // ------\n  // EVENTS\n  // ------\n\n  event Enlisted(bytes32 listing, uint deposit, string target);\n  event Challenged(bytes32 listing, uint deposit, uint challengeID);\n  event Unlisted(bytes32 listing);\n  event ChallengeApproved(bytes32 listing);\n  event ChallengeDenied(bytes32 listing);\n  event Increased(bytes32 listing, uint increasedBy, uint newDeposit);\n  event Decreased(bytes32 listing, uint decreasedBy, uint newDeposit);\n\n  struct Listing {\n    bool whitelisted;       // Should the data appear on the listing or not\n    address owner;          // Owner of Listing\n    uint stake;             // Number of unlocked tokens with potential risk if challenged\n    string target;          // Identifier of the data\n    uint challenges;        // Number of unresolved challenges on the listing\n    uint[] challengeIDs;    // Array of the different challenge IDs\n    uint totalStake;        // Stake with challenged stake added\n  }\n\n  struct Challenge {\n    address challenger;     // Owner of Challenge\n    bool resolved;          // Indication of if challenge is resolved\n    uint stake;             // Number of tokens at risk for either party during challenge\n    bytes32 listing;        // Listing this challenge was added to\n  }\n\n  // Maps listingHashes to associated listing data\n  mapping(bytes32 => Listing) public listings;\n\n  // Maps challenges to associated challenge data\n  mapping(uint => Challenge) public challenges;\n\n  \n\n  // Global Variables\n  EIP20 token;\n  uint currentChallengeID = 0;\n  uint minEnlistStakeAmount = 10;\n  uint minChallengeStakeAmount = 5;\n\n  /**\n  @dev Contructor\n  @notice                 Sets the address for token\n  @param _tokenAddr       Address of the native ERC20 token (ADT)\n  */\n  function Registry(\n    address _tokenAddr\n  ) public \n  {\n    token = EIP20(_tokenAddr);\n  }\n\n  /**\n  @notice                 Allows a seller to list data to be available for selling.\n  @notice                 Takes tokens from user.\n  @param _listing         The listing of data\n  @param _stakeAmount     The number of ERC20 tokens a user is willing to potentially stake\n  @param _target          String with ipfs hash of data\n  */\n  function enlist(bytes32 _listing, uint _stakeAmount, string _target) external {\n    // Stake must be above a certain amount\n    // TODO: make minStakeAmount a config var\n    require(_stakeAmount >= minEnlistStakeAmount);\n\n    // Transfers tokens from user to Registry contract\n    require(token.transferFrom(msg.sender, this, _stakeAmount));\n\n    // Add listing to listings\n    uint[] memory empty;\n    listings[_listing] = Listing({\n      whitelisted: true,\n      owner: msg.sender,\n      stake: _stakeAmount,\n      target: _target,\n      challenges: 0,\n      challengeIDs: empty,\n      totalStake: _stakeAmount\n    });\n\n    // Event\n    Enlisted(_listing, _stakeAmount, _target);\n  }\n\n  /**\n  @notice             Allows the owner of a listing to remove the listing from the whitelist\n  @notice             Returns all tokens to the owner of the listing\n  @param _listing     The listing of a user's listing\n  */\n  function unlist(bytes32 _listing) external {\n    Listing storage listing = listings[_listing];\n\n    require(msg.sender == listing.owner);\n    require(isWhitelisted(_listing));\n\n    // Cannot exit during ongoing challenge\n    require(listing.challenges == 0);\n\n    // Transfers any remaining balance back to the owner\n    if (listing.stake > 0)\n      require(token.transfer(listing.owner, listing.stake));\n\n    delete listings[_listing]; // delete changes the whitelisted prop from true to false\n    Unlisted(_listing);\n  }\n\n  /**\n  @notice             Allows the owner of a listing to increase their unstaked deposit.\n  @param _listing     The listing of a user's application/listing\n  @param _stakeAmount The number of ERC20 tokens to increase a user's unstaked deposit\n  */\n  function increase(bytes32 _listing, uint _stakeAmount) external {\n    Listing storage listing = listings[_listing];\n\n    require(listing.owner == msg.sender);\n    require(token.transferFrom(msg.sender, this, _stakeAmount));\n\n    listing.stake += _stakeAmount;\n\n    Increased(_listing, _stakeAmount, listing.stake);\n  }\n\n  /**\n  @notice             Allows the owner of a listing to decrease their unstaked deposit.\n  @notice             The listing keeps its previous status.\n  @param _listing     The listing of a user's application/listing\n  @param _stakeAmount The number of ERC20 tokens to decrease a user's unstaked deposit\n  */\n  function decrease(bytes32 _listing, uint _stakeAmount) external {\n    Listing storage listing = listings[_listing];\n\n    require(listing.owner == msg.sender);\n    require(_stakeAmount <= listing.stake);\n    require(listing.stake - _stakeAmount >= minEnlistStakeAmount);\n\n    require(token.transfer(msg.sender, _stakeAmount));\n\n    listing.stake -= _stakeAmount;\n\n    Decreased(_listing, _stakeAmount, listing.stake);\n  }\n\n  /**\n  @notice             Starts a challenge for a listing.\n  @dev                Tokens are taken from the challenger and the data seller's deposit is locked.\n  @param _listing     The listing of data.\n  @param _stakeAmount The amount the challenger wants to stake.\n  */\n  function challenge(bytes32 _listing, uint _stakeAmount) external returns (uint challengeID) {\n    require(_stakeAmount >= minChallengeStakeAmount);\n\n    Listing storage listing = listings[_listing];\n\n    // Takes tokens from challenger\n    require(token.transferFrom(msg.sender, this, _stakeAmount));\n\n    // Keep track of challenge id\n    challengeID = currentChallengeID + 1;\n    currentChallengeID = challengeID; \n\n    // Add challenge to the challenges mapping\n    Challenge memory challenge = Challenge({\n      challenger: msg.sender,\n      stake: _stakeAmount,\n      resolved: false,\n      listing: _listing\n    });\n    challenges[challengeID] = challenge;\n\n    // Increase the number of challenges on the right listing\n    listing.challenges = listing.challenges + 1;\n    // Add challengeID to listing\n    listing.challengeIDs.push(challengeID);\n    // Add to the totalStake on a listing\n    listing.totalStake = listing.totalStake + _stakeAmount;\n    \n    Challenged(_listing, _stakeAmount, challengeID);\n    return challengeID;\n  }\n\n   /**\n  @notice             Marks a challenge as resolved.\n  @notice             Rewards the winner tokens and either whitelists or de-whitelists the listing.\n  @param _listing   A listing with a challenge that is to be resolved\n  */\n  function approveChallenge(bytes32 _listing) external returns (uint total) {\n    Listing storage listing = listings[_listing];\n\n    // Get all challenges that are unresolved and are linked to this listing, \n    // for (uint i = 0; i < listing.challengeIDs.length; i ++) {\n    //   Challenge memory challenge = challenges[listing.challengeIDs[i]];\n\n    //   // Add to the total amount\n    //   total = total + challenge.stake;\n    // }\n\n    // // Add stake on the listing to the amount;\n    // amount = amount + lising.stake;\n\n    // // Admin (msg.sender) should get 10% of the total sum of all challenge stakes + lising stake\n    // msg.sender.transfer(amount);\n\n    // Challengers should get a percentage of the total sum of all challenge stakes + lising stake\n    // equal to their share of the total challenge stake\n\n    // Event\n    ChallengeApproved(_listing);\n    // return total;\n  }\n\n   /**\n  @notice             Marks a challenge as denied.\n  @notice             Rewards the listing seller tokens and de-whitelists the listing.\n  @param _listing     A listing with a challenge that is to be resolved\n  */\n  function denyChallenge(bytes32 _listing) external {\n    Listing storage listing = listings[_listing];\n\n    // Get all challenges that are unresolved and are linked to this listing\n    \n    // Sum up all stakes for the challenges\n    // Admin should get 10% of the total challenge stake\n    // The remaining 90% should go to the data seller\n  }\n\n  /**\n  @dev      Withdraw all the fund from this contract\n  */\n  function withdraw() public {\n    // uint amount = pendingWithdrawals[msg.sender];\n    // // Remember to zero the pending refund before\n    // // sending to prevent re-entrancy attacks\n    // pendingWithdrawals[msg.sender] = 0;\n    // msg.sender.transfer(amount);\n  }\n\n/**\n  @notice             Returns true if listing is whitelisted\n  @param _listing     The listing of a user's listing\n  */ \n  function isWhitelisted(bytes32 _listing) view public returns (bool whitelisted) {\n    return listings[_listing].whitelisted;\n  }\n\n/**\n  @notice            Returns true if the application/listing has an unresolved challenge\n  @param _listing     The listing of a user's listing\n  */ \n  function challengeExists(bytes32 _listing) view public returns (bool exists) {\n    return (listings[_listing].challenges > 0);\n  }\n\n  /**\n  @dev                Called by updateStatus() if the applicationExpiry date passed without a challenge being made.\n  @dev                Called by resolveChallenge() if an application/listing beat a challenge.\n  @param _listing      The listing of an application/listing to be whitelisted\n  */\n  function whitelistApplication(bytes32 _listing) internal {\n    listings[_listing].whitelisted = true;\n  }\n}\n",
  "sourcePath": "/Users/silkevandenbroeck/settlemint/token-curated-marketplace/contracts/Registry.sol",
  "compiler": {
    "name": "solc",
    "version": "0.4.18+commit.9cf6e910.Emscripten.clang"
  },
  "schemaVersion": "1.0.1",
  "updatedAt": "2018-01-22T09:00:33.055Z"
}