{
  "contractName": "Registry",
  "abi": [
    {
      "constant": false,
      "inputs": [
        {
          "name": "_listing",
          "type": "bytes32"
        },
        {
          "name": "_stakeAmount",
          "type": "uint256"
        },
        {
          "name": "_target",
          "type": "string"
        }
      ],
      "name": "enlist",
      "outputs": [],
      "payable": false,
      "stateMutability": "nonpayable",
      "type": "function"
    },
    {
      "constant": true,
      "inputs": [
        {
          "name": "_listing",
          "type": "bytes32"
        }
      ],
      "name": "isWhitelisted",
      "outputs": [
        {
          "name": "whitelisted",
          "type": "bool"
        }
      ],
      "payable": false,
      "stateMutability": "view",
      "type": "function"
    },
    {
      "constant": false,
      "inputs": [
        {
          "name": "_listing",
          "type": "bytes32"
        }
      ],
      "name": "denyChallenge",
      "outputs": [],
      "payable": false,
      "stateMutability": "nonpayable",
      "type": "function"
    },
    {
      "constant": true,
      "inputs": [
        {
          "name": "_listing",
          "type": "bytes32"
        }
      ],
      "name": "challengeExists",
      "outputs": [
        {
          "name": "",
          "type": "bool"
        }
      ],
      "payable": false,
      "stateMutability": "view",
      "type": "function"
    },
    {
      "constant": false,
      "inputs": [
        {
          "name": "_listing",
          "type": "bytes32"
        }
      ],
      "name": "approveChallenge",
      "outputs": [],
      "payable": false,
      "stateMutability": "nonpayable",
      "type": "function"
    },
    {
      "constant": false,
      "inputs": [
        {
          "name": "_listing",
          "type": "bytes32"
        },
        {
          "name": "_stakeAmount",
          "type": "uint256"
        }
      ],
      "name": "decrease",
      "outputs": [],
      "payable": false,
      "stateMutability": "nonpayable",
      "type": "function"
    },
    {
      "constant": true,
      "inputs": [
        {
          "name": "",
          "type": "uint256"
        }
      ],
      "name": "challenges",
      "outputs": [
        {
          "name": "challenger",
          "type": "address"
        },
        {
          "name": "resolved",
          "type": "bool"
        },
        {
          "name": "stake",
          "type": "uint256"
        }
      ],
      "payable": false,
      "stateMutability": "view",
      "type": "function"
    },
    {
      "constant": false,
      "inputs": [
        {
          "name": "_listing",
          "type": "bytes32"
        }
      ],
      "name": "unlist",
      "outputs": [],
      "payable": false,
      "stateMutability": "nonpayable",
      "type": "function"
    },
    {
      "constant": true,
      "inputs": [
        {
          "name": "",
          "type": "bytes32"
        }
      ],
      "name": "listings",
      "outputs": [
        {
          "name": "whitelisted",
          "type": "bool"
        },
        {
          "name": "owner",
          "type": "address"
        },
        {
          "name": "stake",
          "type": "uint256"
        },
        {
          "name": "target",
          "type": "string"
        }
      ],
      "payable": false,
      "stateMutability": "view",
      "type": "function"
    },
    {
      "constant": false,
      "inputs": [
        {
          "name": "_listing",
          "type": "bytes32"
        },
        {
          "name": "_stakeAmount",
          "type": "uint256"
        }
      ],
      "name": "challenge",
      "outputs": [
        {
          "name": "challengeID",
          "type": "uint256"
        }
      ],
      "payable": false,
      "stateMutability": "nonpayable",
      "type": "function"
    },
    {
      "constant": false,
      "inputs": [
        {
          "name": "_listing",
          "type": "bytes32"
        },
        {
          "name": "_stakeAmount",
          "type": "uint256"
        }
      ],
      "name": "increase",
      "outputs": [],
      "payable": false,
      "stateMutability": "nonpayable",
      "type": "function"
    },
    {
      "inputs": [
        {
          "name": "_tokenAddr",
          "type": "address"
        }
      ],
      "payable": false,
      "stateMutability": "nonpayable",
      "type": "constructor"
    },
    {
      "anonymous": false,
      "inputs": [
        {
          "indexed": false,
          "name": "listing",
          "type": "bytes32"
        },
        {
          "indexed": false,
          "name": "deposit",
          "type": "uint256"
        },
        {
          "indexed": false,
          "name": "target",
          "type": "string"
        }
      ],
      "name": "Enlisted",
      "type": "event"
    },
    {
      "anonymous": false,
      "inputs": [
        {
          "indexed": false,
          "name": "listing",
          "type": "bytes32"
        },
        {
          "indexed": false,
          "name": "deposit",
          "type": "uint256"
        },
        {
          "indexed": false,
          "name": "challengeID",
          "type": "uint256"
        }
      ],
      "name": "Challenged",
      "type": "event"
    },
    {
      "anonymous": false,
      "inputs": [
        {
          "indexed": false,
          "name": "listing",
          "type": "bytes32"
        }
      ],
      "name": "Unlisted",
      "type": "event"
    },
    {
      "anonymous": false,
      "inputs": [
        {
          "indexed": false,
          "name": "challengeID",
          "type": "uint256"
        }
      ],
      "name": "ChallengeApproved",
      "type": "event"
    },
    {
      "anonymous": false,
      "inputs": [
        {
          "indexed": false,
          "name": "challengeID",
          "type": "uint256"
        }
      ],
      "name": "ChallengeDenied",
      "type": "event"
    },
    {
      "anonymous": false,
      "inputs": [
        {
          "indexed": false,
          "name": "listing",
          "type": "bytes32"
        },
        {
          "indexed": false,
          "name": "increasedBy",
          "type": "uint256"
        },
        {
          "indexed": false,
          "name": "newDeposit",
          "type": "uint256"
        }
      ],
      "name": "Increased",
      "type": "event"
    },
    {
      "anonymous": false,
      "inputs": [
        {
          "indexed": false,
          "name": "listing",
          "type": "bytes32"
        },
        {
          "indexed": false,
          "name": "decreasedBy",
          "type": "uint256"
        },
        {
          "indexed": false,
          "name": "newDeposit",
          "type": "uint256"
        }
      ],
      "name": "Decreased",
      "type": "event"
    }
  ],
  "bytecode": "0x60606040526000600355600a60045560058055341561001d57600080fd5b604051602080610cff8339810160405280805160028054600160a060020a03909216600160a060020a03199092169190911790555050610c9d806100626000396000f3006060604052600436106100945763ffffffff60e060020a600035041662c53f8c811461009957806301a5e3fe146100c15780630f4c8f45146100eb5780631b7bbecb146101015780634b0e2191146100eb5780638cd6d2b4146101175780638f1d377614610130578063bc40a27714610174578063c18b8db41461018a578063e2083c1814610249578063f4478dad14610274575b600080fd5b34156100a457600080fd5b6100bf6004803590602480359160443591820191013561028d565b005b34156100cc57600080fd5b6100d76004356104df565b604051901515815260200160405180910390f35b34156100f657600080fd5b6100bf6004356104f4565b341561010c57600080fd5b6100d76004356104f7565b341561012257600080fd5b6100bf6004356024356104fd565b341561013b57600080fd5b610146600435610631565b604051600160a060020a03909316835290151560208301526040808301919091526060909101905180910390f35b341561017f57600080fd5b6100bf600435610671565b341561019557600080fd5b6101a06004356107e9565b6040518415158152600160a060020a0384166020820152604081018390526080606082018181528354600260001961010060018416150201909116049183018290529060a0830190849080156102375780601f1061020c57610100808354040283529160200191610237565b820191906000526020600020905b81548152906001019060200180831161021a57829003601f168201915b50509550505050505060405180910390f35b341561025457600080fd5b610262600435602435610819565b60405190815260200160405180910390f35b341561027f57600080fd5b6100bf6004356024356109f8565b60045460009084101561029f57600080fd5b600254600160a060020a03166323b872dd33308760006040516020015260405160e060020a63ffffffff8616028152600160a060020a0393841660048201529190921660248201526044810191909152606401602060405180830381600087803b151561030b57600080fd5b6102c65a03f1151561031c57600080fd5b50505060405180519050151561033157600080fd5b60a06040519081016040528060011515815260200133600160a060020a0316815260200185815260200184848080601f01602080910402602001604051908101604052818152929190602084018383808284378201915050505050508152602001828054806020026020016040519081016040528092919081815260200182805480156103dd57602002820191906000526020600020905b8154815260200190600101908083116103c9575b50505091909252505060008681526020819052604090208151815460ff191690151517815560208201518154600160a060020a03919091166101000274ffffffffffffffffffffffffffffffffffffffff00199091161781556040820151816001015560608201518160020190805161045a929160200190610b11565b50608082015181600301908051610475929160200190610b8f565b509050507f232015555b9039d0149d68b762bec8bdf615e9485dfdde85f4d69e3a83835fd385858585604051848152602081018490526060604082018181529082018390526080820184848082843782019150509550505050505060405180910390a15050505050565b60009081526020819052604090205460ff1690565b50565b50600190565b6000828152602081905260409020805433600160a060020a03908116610100909204161461052a57600080fd5b600181015482111561053b57600080fd5b6004546001820154839003101561055157600080fd5b600254600160a060020a031663a9059cbb338460006040516020015260405160e060020a63ffffffff8516028152600160a060020a0390921660048301526024820152604401602060405180830381600087803b15156105b057600080fd5b6102c65a03f115156105c157600080fd5b5050506040518051905015156105d657600080fd5b600181018054839003908190557fe8a15c36ddecf6f4f9f08bbc59f5c547485a107b6cf17d731dec04e5c637438c908490849060405192835260208301919091526040808301919091526060909101905180910390a1505050565b60016020819052600091825260409091208054910154600160a060020a0382169174010000000000000000000000000000000000000000900460ff169083565b6000818152602081905260409020805433600160a060020a03908116610100909204161461069e57600080fd5b6106a7826104df565b15156106b257600080fd5b6003810154156106c157600080fd5b6000816001015411156107635760025481546001830154600160a060020a039283169263a9059cbb926101009004169060006040516020015260405160e060020a63ffffffff8516028152600160a060020a0390921660048301526024820152604401602060405180830381600087803b151561073d57600080fd5b6102c65a03f1151561074e57600080fd5b50505060405180519050151561076357600080fd5b6000828152602081905260408120805474ffffffffffffffffffffffffffffffffffffffffff1916815560018101829055906107a26002830182610bc9565b6107b0600383016000610c0d565b50507f2e6ec049d62c8a42e7cc223354aadb68d5046a2cba67ed55a089fdb852fb6cb68260405190815260200160405180910390a15050565b60006020819052908152604090208054600182015460ff821692610100909204600160a060020a03169160020184565b600080600554831015151561082d57600080fd5b506000838152602081905260408082206002549092600160a060020a03909116916323b872dd91339130918891516020015260405160e060020a63ffffffff8616028152600160a060020a0393841660048201529190921660248201526044810191909152606401602060405180830381600087803b15156108ae57600080fd5b6102c65a03f115156108bf57600080fd5b5050506040518051905015156108d457600080fd5b6003805460010190819055915060606040519081016040908152600160a060020a03331682526000602080840182905282840187905285825260019052208151815473ffffffffffffffffffffffffffffffffffffffff1916600160a060020a039190911617815560208201518154901515740100000000000000000000000000000000000000000274ff000000000000000000000000000000000000000019909116178155604082015160019182015560038301805490925090810161099b8382610c2b565b5060009182526020909120018290557f346179119607de02d189e442e1f22c5a25ced2e8f102ddd36762a34b3d66b05684848460405192835260208301919091526040808301919091526060909101905180910390a15092915050565b6000828152602081905260409020805433600160a060020a039081166101009092041614610a2557600080fd5b600254600160a060020a03166323b872dd33308560006040516020015260405160e060020a63ffffffff8616028152600160a060020a0393841660048201529190921660248201526044810191909152606401602060405180830381600087803b1515610a9157600080fd5b6102c65a03f11515610aa257600080fd5b505050604051805190501515610ab757600080fd5b6001810180548301908190557f7f27350fe80670682f5dc629cc881b7169e0ede96a681e843d0267bbfbb7a98b908490849060405192835260208301919091526040808301919091526060909101905180910390a1505050565b828054600181600116156101000203166002900490600052602060002090601f016020900481019282601f10610b5257805160ff1916838001178555610b7f565b82800160010185558215610b7f579182015b82811115610b7f578251825591602001919060010190610b64565b50610b8b929150610c54565b5090565b828054828255906000526020600020908101928215610b7f5791602002820182811115610b7f578251825591602001919060010190610b64565b50805460018160011615610100020316600290046000825580601f10610bef57506104f4565b601f0160209004906000526020600020908101906104f49190610c54565b50805460008255906000526020600020908101906104f49190610c54565b815481835581811511610c4f57600083815260209020610c4f918101908301610c54565b505050565b610c6e91905b80821115610b8b5760008155600101610c5a565b905600a165627a7a723058209904888f6b540b7f0ded48a8b13643d75984c87c569b94548caf33f571fe9fe50029",
  "source": "pragma solidity ^0.4.11;\n\nimport \"tokens/eip20/EIP20.sol\";\n\n\ncontract Registry {\n\n  // ------\n  // EVENTS\n  // ------\n\n  event Enlisted(bytes32 listing, uint deposit, string target);\n  event Challenged(bytes32 listing, uint deposit, uint challengeID);\n  event Unlisted(bytes32 listing);\n  event ChallengeApproved(uint challengeID);\n  event ChallengeDenied(uint challengeID);\n  event Increased(bytes32 listing, uint increasedBy, uint newDeposit);\n  event Decreased(bytes32 listing, uint decreasedBy, uint newDeposit);\n\n  struct Listing {\n    bool whitelisted;       // Should the data appear on the listing or not\n    address owner;          // Owner of Listing\n    uint stake;             // Number of unlocked tokens with potential risk if challenged\n    string target;          // Identifier of the data\n    uint[] challenges;      // Array of challengeIDs to this listing\n  }\n\n  struct Challenge {\n    address challenger;     // Owner of Challenge\n    bool resolved;          // Indication of if challenge is resolved\n    uint stake;             // Number of tokens at risk for either party during challenge\n  }\n\n  // Maps listingHashes to associated listing data\n  mapping(bytes32 => Listing) public listings;\n\n  // Maps challenges to associated challenge data\n  mapping(uint => Challenge) public challenges;\n\n  // Global Variables\n  EIP20 token;\n  uint currentChallengeID = 0;\n  uint minEnlistStakeAmount = 10;\n  uint minChallengeStakeAmount = 5;\n\n  /**\n  @dev Contructor\n  @notice                 Sets the address for token\n  @param _tokenAddr       Address of the native ERC20 token (ADT)\n  */\n  function Registry(\n    address _tokenAddr\n  ) public \n  {\n    token = EIP20(_tokenAddr);\n  }\n\n  /**\n  @notice                 Allows a seller to list data to be available for selling.\n  @notice                 Takes tokens from user.\n  @param _listing         The listing of data\n  @param _stakeAmount     The number of ERC20 tokens a user is willing to potentially stake\n  @param _target          String with ipfs hash of data\n  */\n  function enlist(bytes32 _listing, uint _stakeAmount, string _target) external {\n    // Stake must be above a certain amount\n    // TODO: make minStakeAmount a config var\n    require(_stakeAmount >= minEnlistStakeAmount);\n\n    // Transfers tokens from user to Registry contract\n    require(token.transferFrom(msg.sender, this, _stakeAmount));\n\n    // Add listing to listings\n    uint[] emptyArray;\n    listings[_listing] = Listing({\n      whitelisted: true,\n      owner: msg.sender,\n      stake: _stakeAmount,\n      target: _target,\n      challenges: emptyArray\n    });\n\n    // Event\n    Enlisted(_listing, _stakeAmount, _target);\n  }\n\n  /**\n  @notice             Allows the owner of a listing to remove the listing from the whitelist\n  @notice             Returns all tokens to the owner of the listing\n  @param _listing     The listing of a user's listing\n  */\n  function unlist(bytes32 _listing) external {\n    Listing storage listing = listings[_listing];\n\n    require(msg.sender == listing.owner);\n    require(isWhitelisted(_listing));\n\n    // Cannot exit during ongoing challenge\n    require(listing.challenges.length == 0);\n\n    // Transfers any remaining balance back to the owner\n    if (listing.stake > 0)\n      require(token.transfer(listing.owner, listing.stake));\n\n    delete listings[_listing]; // delete changes the whitelisted prop from true to false\n    Unlisted(_listing);\n  }\n\n  /**\n  @notice             Allows the owner of a listing to increase their unstaked deposit.\n  @param _listing     The listing of a user's application/listing\n  @param _stakeAmount The number of ERC20 tokens to increase a user's unstaked deposit\n  */\n  function increase(bytes32 _listing, uint _stakeAmount) external {\n    Listing storage listing = listings[_listing];\n\n    require(listing.owner == msg.sender);\n    require(token.transferFrom(msg.sender, this, _stakeAmount));\n\n    listing.stake += _stakeAmount;\n\n    Increased(_listing, _stakeAmount, listing.stake);\n  }\n\n  /**\n  @notice             Allows the owner of a listing to decrease their unstaked deposit.\n  @notice             The listing keeps its previous status.\n  @param _listing     The listing of a user's application/listing\n  @param _stakeAmount The number of ERC20 tokens to decrease a user's unstaked deposit\n  */\n  function decrease(bytes32 _listing, uint _stakeAmount) external {\n    Listing storage listing = listings[_listing];\n\n    require(listing.owner == msg.sender);\n    require(_stakeAmount <= listing.stake);\n    require(listing.stake - _stakeAmount >= minEnlistStakeAmount);\n\n    require(token.transfer(msg.sender, _stakeAmount));\n\n    listing.stake -= _stakeAmount;\n\n    Decreased(_listing, _stakeAmount, listing.stake);\n  }\n\n  /**\n  @notice             Starts a challenge for a listing.\n  @dev                Tokens are taken from the challenger and the data seller's deposit is locked.\n  @param _listing     The listing of data.\n  @param _stakeAmount The amount the challenger wants to stake.\n  */\n  function challenge(bytes32 _listing, uint _stakeAmount) external returns (uint challengeID) {\n    require(_stakeAmount >= minChallengeStakeAmount);\n\n    Listing storage listing = listings[_listing];\n\n    // Takes tokens from challenger\n    require(token.transferFrom(msg.sender, this, _stakeAmount));\n\n    // Keep track of challenge id\n    challengeID = currentChallengeID + 1;\n    currentChallengeID = challengeID; \n\n    // Add challenge to the challenges mapping\n    challenges[challengeID] = Challenge({\n      challenger: msg.sender,\n      stake: _stakeAmount,\n      resolved: false\n    });\n\n    // Add challenge id to the right listing\n    listing.challenges.push(challengeID); \n\n    Challenged(_listing, _stakeAmount, challengeID);\n    return challengeID;\n  }\n\n   /**\n  @notice             Marks a challenge as resolved.\n  @notice             Rewards the winner tokens and either whitelists or de-whitelists the listing.\n  @param _listing     A listing with a challenge that is to be resolved\n  */\n  function approveChallenge(bytes32 _listing) external {\n    // bytes32 listingHash = _listing;\n    // uint challengeID = listings[listingHash].challengeID;\n\n    // // Calculates the winner's reward,\n    // // which is: (winner's full stake) + (dispensationPct * loser's stake)\n    // uint reward = determineReward(challengeID);\n\n    // // Records whether the listing is a listing or an application\n    // bool wasWhitelisted = isWhitelisted(_listing);\n\n    // // Case: challenge failed\n    // if (voting.isPassed(challengeID)) {\n    //   whitelistApplication(_listing);\n    //   // Unlock stake so that it can be retrieved by the applicant\n    //   listings[listingHash].unstakedDeposit += reward;\n\n    //   _ChallengedFailed(challengeID);\n    //   if (!wasWhitelisted) { _NewListingWhitelisted(_listing); }\n    // } else {\n    //   resetListing(_listing);\n    //   // Transfer the reward to the challenger\n    //   require(token.transfer(challenges[challengeID].challenger, reward));\n\n    //   _ChallengedSucceeded(challengeID);\n    //   if (wasWhitelisted) { _ListingRemoved(_listing); }\n    //   else {\n    //     _ListingAddedRemoved(_listing); \n    //   }\n    // }\n\n    // // Sets flag on challenge being processed\n    // challenges[challengeID].resolved = true;\n\n    // // Stores the total tokens used for voting by the winning side for reward purposes\n    // challenges[challengeID].totalTokens =\n    //   voting.getTotalNumberOfTokensForWinningOption(challengeID);\n  }\n\n   /**\n  @notice             Marks a challenge as denied.\n  @notice             Rewards the listing seller tokens and de-whitelists the listing.\n  @param _listing     A listing with a challenge that is to be resolved\n  */\n  function denyChallenge(bytes32 _listing) external {\n    // bytes32 listingHash = _listing;\n    // uint challengeID = listings[listingHash].challengeID;\n\n    // // Calculates the winner's reward,\n    // // which is: (winner's full stake) + (dispensationPct * loser's stake)\n    // uint reward = determineReward(challengeID);\n\n    // // Records whether the listing is a listing or an application\n    // bool wasWhitelisted = isWhitelisted(_listing);\n\n    // // Case: challenge failed\n    // if (voting.isPassed(challengeID)) {\n    //   whitelistApplication(_listing);\n    //   // Unlock stake so that it can be retrieved by the applicant\n    //   listings[listingHash].unstakedDeposit += reward;\n\n    //   _ChallengedFailed(challengeID);\n    //   if (!wasWhitelisted) { _NewListingWhitelisted(_listing); }\n    // } else {\n    //   resetListing(_listing);\n    //   // Transfer the reward to the challenger\n    //   require(token.transfer(challenges[challengeID].challenger, reward));\n\n    //   _ChallengedSucceeded(challengeID);\n    //   if (wasWhitelisted) { _ListingRemoved(_listing); }\n    //   else {\n    //     _ListingAddedRemoved(_listing); \n    //   }\n    // }\n\n    // // Sets flag on challenge being processed\n    // challenges[challengeID].resolved = true;\n\n    // // Stores the total tokens used for voting by the winning side for reward purposes\n    // challenges[challengeID].totalTokens =\n    //   voting.getTotalNumberOfTokensForWinningOption(challengeID);\n  }\n\n/**\n  @notice             Returns true if listing is whitelisted\n  @param _listing     The listing of a user's listing\n  */ \n  function isWhitelisted(bytes32 _listing) view public returns (bool whitelisted) {\n    return listings[_listing].whitelisted;\n  }\n\n/**\n  @notice            Returns true if the application/listing has an unresolved challenge\n  @param _listing     The listing of a user's listing\n  */ \n  function challengeExists(bytes32 _listing) view public returns (bool) {\n    // bytes32 listingHash = _listing;\n    // uint challengeID = listings[listingHash].challenges[0];\n\n    // return (listings[listingHash].challengeID > 0 && !challenges[challengeID].resolved);\n    return true;\n  }\n\n  /**\n  @dev                Called by updateStatus() if the applicationExpiry date passed without a challenge being made.\n  @dev                Called by resolveChallenge() if an application/listing beat a challenge.\n  @param _listing      The listing of an application/listing to be whitelisted\n  */\n  function whitelistApplication(bytes32 _listing) internal {\n    bytes32 listingHash = _listing;\n\n    listings[listingHash].whitelisted = true;\n  }\n}\n",
  "sourcePath": "/Users/silkevandenbroeck/settlemint/token-curated-marketplace/contracts/Registry.sol",
  "compiler": {
    "name": "solc",
    "version": "0.4.18+commit.9cf6e910.Emscripten.clang"
  },
  "schemaVersion": "1.0.1",
  "updatedAt": "2018-01-18T08:00:48.563Z"
}