{
  "contractName": "RoleRegistry",
  "abi": [
    {
      "constant": true,
      "inputs": [],
      "name": "DESIGNATE_ROLE",
      "outputs": [
        {
          "name": "",
          "type": "bytes32"
        }
      ],
      "payable": false,
      "stateMutability": "view",
      "type": "function"
    },
    {
      "constant": true,
      "inputs": [],
      "name": "gateKeeper",
      "outputs": [
        {
          "name": "",
          "type": "address"
        }
      ],
      "payable": false,
      "stateMutability": "view",
      "type": "function"
    },
    {
      "inputs": [
        {
          "name": "_gateKeeper",
          "type": "address"
        }
      ],
      "payable": false,
      "stateMutability": "nonpayable",
      "type": "constructor"
    },
    {
      "anonymous": false,
      "inputs": [
        {
          "indexed": false,
          "name": "_address",
          "type": "address"
        }
      ],
      "name": "Designated",
      "type": "event"
    },
    {
      "anonymous": false,
      "inputs": [
        {
          "indexed": false,
          "name": "_address",
          "type": "address"
        }
      ],
      "name": "Discharged",
      "type": "event"
    },
    {
      "anonymous": false,
      "inputs": [
        {
          "indexed": false,
          "name": "_address",
          "type": "address"
        }
      ],
      "name": "RoleRegistryCreated",
      "type": "event"
    },
    {
      "anonymous": false,
      "inputs": [
        {
          "indexed": true,
          "name": "key",
          "type": "address"
        }
      ],
      "name": "AddressCacheInvalidated",
      "type": "event"
    },
    {
      "anonymous": false,
      "inputs": [
        {
          "indexed": true,
          "name": "key",
          "type": "bytes32"
        }
      ],
      "name": "Bytes32CacheInvalidated",
      "type": "event"
    },
    {
      "anonymous": false,
      "inputs": [
        {
          "indexed": true,
          "name": "key",
          "type": "uint256"
        }
      ],
      "name": "Uint256CacheInvalidated",
      "type": "event"
    },
    {
      "constant": true,
      "inputs": [
        {
          "name": "_address",
          "type": "address"
        }
      ],
      "name": "hasRole",
      "outputs": [
        {
          "name": "hasTheRole",
          "type": "bool"
        }
      ],
      "payable": false,
      "stateMutability": "view",
      "type": "function"
    },
    {
      "constant": false,
      "inputs": [
        {
          "name": "_address",
          "type": "address"
        }
      ],
      "name": "designate",
      "outputs": [],
      "payable": false,
      "stateMutability": "nonpayable",
      "type": "function"
    },
    {
      "constant": false,
      "inputs": [
        {
          "name": "_address",
          "type": "address"
        }
      ],
      "name": "discharge",
      "outputs": [],
      "payable": false,
      "stateMutability": "nonpayable",
      "type": "function"
    },
    {
      "constant": true,
      "inputs": [],
      "name": "getIndexLength",
      "outputs": [
        {
          "name": "length",
          "type": "uint256"
        }
      ],
      "payable": false,
      "stateMutability": "view",
      "type": "function"
    },
    {
      "constant": true,
      "inputs": [
        {
          "name": "_index",
          "type": "uint256"
        }
      ],
      "name": "getByIndex",
      "outputs": [
        {
          "name": "key",
          "type": "address"
        },
        {
          "name": "hasTheRole",
          "type": "bool"
        }
      ],
      "payable": false,
      "stateMutability": "view",
      "type": "function"
    },
    {
      "constant": true,
      "inputs": [
        {
          "name": "_key",
          "type": "address"
        }
      ],
      "name": "getByKey",
      "outputs": [
        {
          "name": "key",
          "type": "address"
        },
        {
          "name": "hasTheRole",
          "type": "bool"
        }
      ],
      "payable": false,
      "stateMutability": "view",
      "type": "function"
    },
    {
      "constant": false,
      "inputs": [
        {
          "name": "_cachedAddress",
          "type": "address"
        },
        {
          "name": "",
          "type": "bytes32"
        },
        {
          "name": "",
          "type": "uint256"
        }
      ],
      "name": "invalidateCache",
      "outputs": [],
      "payable": false,
      "stateMutability": "nonpayable",
      "type": "function"
    }
  ],
  "bytecode": "0x608060405234801561001057600080fd5b506040516020806106ea833981016040818152915160008054600160a060020a031916600160a060020a03808416919091179091553016825291517fe1024fd8985d06ce8c9f997f972a1260bbbb007e7f7496825505aff3b18165e9916020908290030190a150610664806100866000396000f3006080604052600436106100985763ffffffff7c01000000000000000000000000000000000000000000000000000000006000350416630231853a811461009d5780630a7519a3146100c05780632d883a73146100e75780633d188fab14610122578063453416921461014957806345d61ded1461016a578063498770381461019b5780637ef09bca146101bc578063e1ba7d01146101f1575b600080fd5b3480156100a957600080fd5b506100be600160a060020a0360043516610206565b005b3480156100cc57600080fd5b506100d561032e565b60408051918252519081900360200190f35b3480156100f357600080fd5b506100ff600435610352565b60408051600160a060020a03909316835290151560208301528051918290030190f35b34801561012e57600080fd5b506100be600160a060020a03600435166024356044356103bf565b34801561015557600080fd5b506100be600160a060020a03600435166103f8565b34801561017657600080fd5b5061017f610520565b60408051600160a060020a039092168252519081900360200190f35b3480156101a757600080fd5b506100ff600160a060020a036004351661052f565b3480156101c857600080fd5b506101dd600160a060020a0360043516610552565b604080519115158252519081900360200190f35b3480156101fd57600080fd5b506100d5610570565b7f44455349474e4154455f524f4c450000000000000000000000000000000000006102313382610576565b151561023c57600080fd5b600160a060020a0382166000908152600160208190526040909120015415156102c9576002805460018082019092557f405787fa12a823e0f2b7631cc41b3ba8828b3321ca811111fa75cd3aa3bb5ace01805473ffffffffffffffffffffffffffffffffffffffff1916600160a060020a0385169081179091556000908152602082905260409020429101555b600160a060020a038216600081815260016020908152604091829020805460ff19169055815192835290517fa918a014a3cc4d384620aab101a9de9a018850704254ab6ce288864db9abd98b9281900390910190a161032a826000806103bf565b5050565b7f44455349474e4154455f524f4c4500000000000000000000000000000000000081565b60008060028381548110151561036457fe5b600091825260208220015460028054600160a060020a039092169450600192918690811061038e57fe5b6000918252602080832090910154600160a060020a03168352820192909252604001902054919360ff909216925050565b604051600160a060020a038416907f2130e02bc65616aa7f8f548960f51a08a1d0ea94efb33611412208c2d0306a2290600090a2505050565b7f44455349474e4154455f524f4c450000000000000000000000000000000000006104233382610576565b151561042e57600080fd5b600160a060020a0382166000908152600160208190526040909120015415156104bb576002805460018082019092557f405787fa12a823e0f2b7631cc41b3ba8828b3321ca811111fa75cd3aa3bb5ace01805473ffffffffffffffffffffffffffffffffffffffff1916600160a060020a0385169081179091556000908152602082905260409020429101555b600160a060020a038216600081815260016020818152604092839020805460ff1916909217909155815192835290517f6a7971839356e91af1f994a516a95eac2d3583cb6ba16b104843fcc927d77dae9281900390910190a161032a826000806103bf565b600054600160a060020a031681565b600160a060020a038116600090815260016020526040902054909160ff90911690565b600160a060020a031660009081526001602052604090205460ff1690565b60025490565b60008054600160a060020a03161580610631575060008054604080517f6d6712d8000000000000000000000000000000000000000000000000000000008152600160a060020a03878116600483015230811660248301526044820187905291519190921692636d6712d892606480820193602093909283900390910190829087803b15801561060457600080fd5b505af1158015610618573d6000803e3d6000fd5b505050506040513d602081101561062e57600080fd5b50515b93925050505600a165627a7a7230582084e2020ba65263af890e4a76a88d1d5a0c6511c63a3ca0ca0847e913e3a52db50029",
  "source": "pragma solidity ^0.4.22;\n\nimport \"./interfaces/IRoleRegistry.sol\";\nimport \"./Secured.sol\";\nimport \"../utility/syncing/Syncable.sol\";\nimport \"../utility/caching/Cacher.sol\";\n\n\n/**\n * @title RoleRegistry\n * @dev The RoleRegistry contract defines the methods and data structures to\n * record if addresses have certain roles or not.\n */\ncontract RoleRegistry is IRoleRegistry, Syncable, Cacher, Secured {\n\n  bytes32 constant public DESIGNATE_ROLE = bytes32(\"DESIGNATE_ROLE\");\n\n  struct RoleHolderContainer {\n    bool roleDesignated;\n    uint256 creationDate;\n  }\n  mapping(address => RoleHolderContainer) private roleHolders;\n  address[] private roleHoldersIndex;\n\n  event Designated(address _address);\n  event Discharged(address _address);\n  event RoleRegistryCreated(address _address);\n\n  constructor(address _gateKeeper) Secured(_gateKeeper) public {\n    emit RoleRegistryCreated(this);\n  }\n\n  /**\n   * @dev Checks if an address has a certain role\n   * @param _address The address to check for the role.\n   * @return A boolean that is True if the address has the role.\n   */\n  function hasRole(address _address) public view returns (bool hasTheRole) {\n    hasTheRole = roleHolders[_address].roleDesignated;\n  }\n\n  /**\n   * @dev Gives the role to an address\n   * @param _address The address to designate the role to.\n   */\n  function designate(address _address) auth(DESIGNATE_ROLE) public {\n    if (roleHolders[_address].creationDate == 0) {\n      roleHoldersIndex.push(_address);\n      roleHolders[_address].creationDate = now;\n    }\n    roleHolders[_address].roleDesignated = true;\n    emit Designated(_address);\n    invalidateCache(_address, \"\", 0);\n  }\n\n  /**\n   * @dev Removes the role from an address\n   * @param _address The address to discharge fromn the role.\n   */\n  function discharge(address _address) auth(DESIGNATE_ROLE) public {\n    if (roleHolders[_address].creationDate == 0) {\n      roleHoldersIndex.push(_address);\n      roleHolders[_address].creationDate = now;\n    }\n    roleHolders[_address].roleDesignated = false;\n    emit Discharged(_address);\n    invalidateCache(_address, \"\", 0);\n  }\n\n  /**\n   * @dev Returns the length of the index array\n   * @return the amount of items in the index array\n   */\n  function getIndexLength() view public returns (uint length) {\n    length = roleHoldersIndex.length;\n  }\n\n  /**\n   * @dev Returns the information for the key on a certain index\n   * @param _index The index of the key in the key array\n   * @return the information for the key on a certain index\n   */\n  function getByIndex(uint _index) view public returns (address key, bool hasTheRole) {\n    key = roleHoldersIndex[_index];\n    hasTheRole = roleHolders[roleHoldersIndex[_index]].roleDesignated;\n  }\n\n  /**\n   * @dev Returns the information for the key\n   * @param _key The key to get the info for\n   * @return the information for the key\n   */\n  function getByKey(address _key) view public returns (address key, bool hasTheRole) {\n    key = _key;\n    hasTheRole = roleHolders[_key].roleDesignated;\n  }\n\n  function invalidateCache(address _cachedAddress, bytes32 /*_cachedBytes32*/, uint256 /*_cachedUint256*/) public {\n    emit AddressCacheInvalidated(_cachedAddress);\n  }\n\n}\n",
  "sourcePath": "@settlemint/solidity-mint/contracts/authentication/RoleRegistry.sol",
  "compiler": {
    "name": "solc",
    "version": "0.4.22+commit.4cb486ee.Emscripten.clang"
  },
  "schemaVersion": "2.0.0",
  "updatedAt": "2018-05-15T09:27:43.694Z"
}