{
  "contractName": "RoleRegistry",
  "abi": [
    {
      "constant": true,
      "inputs": [],
      "name": "DESIGNATE_ROLE",
      "outputs": [
        {
          "name": "",
          "type": "bytes32"
        }
      ],
      "payable": false,
      "stateMutability": "view",
      "type": "function"
    },
    {
      "constant": true,
      "inputs": [],
      "name": "gateKeeper",
      "outputs": [
        {
          "name": "",
          "type": "address"
        }
      ],
      "payable": false,
      "stateMutability": "view",
      "type": "function"
    },
    {
      "inputs": [
        {
          "name": "_gateKeeper",
          "type": "address"
        }
      ],
      "payable": false,
      "stateMutability": "nonpayable",
      "type": "constructor"
    },
    {
      "anonymous": false,
      "inputs": [
        {
          "indexed": false,
          "name": "_address",
          "type": "address"
        }
      ],
      "name": "Designated",
      "type": "event"
    },
    {
      "anonymous": false,
      "inputs": [
        {
          "indexed": false,
          "name": "_address",
          "type": "address"
        }
      ],
      "name": "Discharged",
      "type": "event"
    },
    {
      "anonymous": false,
      "inputs": [
        {
          "indexed": false,
          "name": "_address",
          "type": "address"
        }
      ],
      "name": "RoleRegistryCreated",
      "type": "event"
    },
    {
      "anonymous": false,
      "inputs": [
        {
          "indexed": true,
          "name": "key",
          "type": "address"
        }
      ],
      "name": "AddressCacheInvalidated",
      "type": "event"
    },
    {
      "anonymous": false,
      "inputs": [
        {
          "indexed": true,
          "name": "key",
          "type": "bytes32"
        }
      ],
      "name": "Bytes32CacheInvalidated",
      "type": "event"
    },
    {
      "anonymous": false,
      "inputs": [
        {
          "indexed": true,
          "name": "key",
          "type": "uint256"
        }
      ],
      "name": "Uint256CacheInvalidated",
      "type": "event"
    },
    {
      "constant": true,
      "inputs": [
        {
          "name": "_address",
          "type": "address"
        }
      ],
      "name": "hasRole",
      "outputs": [
        {
          "name": "hasTheRole",
          "type": "bool"
        }
      ],
      "payable": false,
      "stateMutability": "view",
      "type": "function"
    },
    {
      "constant": false,
      "inputs": [
        {
          "name": "_address",
          "type": "address"
        }
      ],
      "name": "designate",
      "outputs": [],
      "payable": false,
      "stateMutability": "nonpayable",
      "type": "function"
    },
    {
      "constant": false,
      "inputs": [
        {
          "name": "_address",
          "type": "address"
        }
      ],
      "name": "discharge",
      "outputs": [],
      "payable": false,
      "stateMutability": "nonpayable",
      "type": "function"
    },
    {
      "constant": true,
      "inputs": [],
      "name": "getIndexLength",
      "outputs": [
        {
          "name": "length",
          "type": "uint256"
        }
      ],
      "payable": false,
      "stateMutability": "view",
      "type": "function"
    },
    {
      "constant": true,
      "inputs": [
        {
          "name": "_index",
          "type": "uint256"
        }
      ],
      "name": "getByIndex",
      "outputs": [
        {
          "name": "key",
          "type": "address"
        },
        {
          "name": "hasTheRole",
          "type": "bool"
        }
      ],
      "payable": false,
      "stateMutability": "view",
      "type": "function"
    },
    {
      "constant": true,
      "inputs": [
        {
          "name": "_key",
          "type": "address"
        }
      ],
      "name": "getByKey",
      "outputs": [
        {
          "name": "key",
          "type": "address"
        },
        {
          "name": "hasTheRole",
          "type": "bool"
        }
      ],
      "payable": false,
      "stateMutability": "view",
      "type": "function"
    },
    {
      "constant": false,
      "inputs": [
        {
          "name": "_cachedAddress",
          "type": "address"
        },
        {
          "name": "",
          "type": "bytes32"
        },
        {
          "name": "",
          "type": "uint256"
        }
      ],
      "name": "invalidateCache",
      "outputs": [],
      "payable": false,
      "stateMutability": "nonpayable",
      "type": "function"
    }
  ],
  "bytecode": "0x6060604052341561000f57600080fd5b6040516020806107138339810160405280805160008054600160a060020a031916600160a060020a03831617905591507fe1024fd8985d06ce8c9f997f972a1260bbbb007e7f7496825505aff3b18165e9905030604051600160a060020a03909116815260200160405180910390a1506106858061008e6000396000f3006060604052600436106100985763ffffffff7c01000000000000000000000000000000000000000000000000000000006000350416630231853a811461009d5780630a7519a3146100be5780632d883a73146100e35780633d188fab1461011d578063453416921461014257806345d61ded1461016157806349877038146101905780637ef09bca146101af578063e1ba7d01146101e2575b600080fd5b34156100a857600080fd5b6100bc600160a060020a03600435166101f5565b005b34156100c957600080fd5b6100d1610319565b60405190815260200160405180910390f35b34156100ee57600080fd5b6100f960043561033d565b604051600160a060020a039092168252151560208201526040908101905180910390f35b341561012857600080fd5b6100bc600160a060020a03600435166024356044356103aa565b341561014d57600080fd5b6100bc600160a060020a03600435166103e5565b341561016c57600080fd5b61017461050a565b604051600160a060020a03909116815260200160405180910390f35b341561019b57600080fd5b6100f9600160a060020a0360043516610519565b34156101ba57600080fd5b6101ce600160a060020a036004351661053c565b604051901515815260200160405180910390f35b34156101ed57600080fd5b6100d161055a565b7f44455349474e4154455f524f4c450000000000000000000000000000000000006102203382610560565b151561022b57600080fd5b600160a060020a0382166000908152600160208190526040909120015415156102aa576002805460018101610260838261060f565b506000918252602080832091909101805473ffffffffffffffffffffffffffffffffffffffff1916600160a060020a03861690811790915582526001908190526040909120429101555b600160a060020a03821660009081526001602052604090819020805460ff191690557fa918a014a3cc4d384620aab101a9de9a018850704254ab6ce288864db9abd98b90839051600160a060020a03909116815260200160405180910390a1610315826000806103aa565b5050565b7f44455349474e4154455f524f4c4500000000000000000000000000000000000081565b60008060028381548110151561034f57fe5b600091825260208220015460028054600160a060020a039092169450600192918690811061037957fe5b6000918252602080832090910154600160a060020a03168352820192909252604001902054919360ff909216925050565b82600160a060020a03167f2130e02bc65616aa7f8f548960f51a08a1d0ea94efb33611412208c2d0306a2260405160405180910390a2505050565b7f44455349474e4154455f524f4c450000000000000000000000000000000000006104103382610560565b151561041b57600080fd5b600160a060020a03821660009081526001602081905260409091200154151561049a576002805460018101610450838261060f565b506000918252602080832091909101805473ffffffffffffffffffffffffffffffffffffffff1916600160a060020a03861690811790915582526001908190526040909120429101555b600160a060020a038216600090815260016020819052604091829020805460ff191690911790557f6a7971839356e91af1f994a516a95eac2d3583cb6ba16b104843fcc927d77dae90839051600160a060020a03909116815260200160405180910390a1610315826000806103aa565b600054600160a060020a031681565b600160a060020a038116600090815260016020526040902054909160ff90911690565b600160a060020a031660009081526001602052604090205460ff1690565b60025490565b60008054600160a060020a031615806106085750600054600160a060020a0316636d6712d88430856040517c010000000000000000000000000000000000000000000000000000000063ffffffff8616028152600160a060020a0393841660048201529190921660248201526044810191909152606401602060405180830381600087803b15156105f057600080fd5b5af115156105fd57600080fd5b505050604051805190505b9392505050565b81548183558181151161063357600083815260209020610633918101908301610638565b505050565b61065691905b80821115610652576000815560010161063e565b5090565b905600a165627a7a7230582079615548b228dd2c08f4edeab31c0d8c36ed67bea3491e8b80a8214c13cb66180029",
  "source": "pragma solidity ^0.4.17;\n\nimport \"./interfaces/IRoleRegistry.sol\";\nimport \"./Secured.sol\";\nimport \"../utility/syncing/Syncable.sol\";\nimport \"../utility/caching/Cacher.sol\";\n\n\n/**\n * @title RoleRegistry\n * @dev The RoleRegistry contract defines the methods and data structures to\n * record if addresses have certain roles or not.\n */\ncontract RoleRegistry is IRoleRegistry, Syncable, Cacher, Secured {\n\n  bytes32 constant public DESIGNATE_ROLE = bytes32(\"DESIGNATE_ROLE\");\n\n  struct RoleHolderContainer {\n    bool roleDesignated;\n    uint256 creationDate;\n  }\n  mapping(address => RoleHolderContainer) private roleHolders;\n  address[] private roleHoldersIndex;\n\n  event Designated(address _address);\n  event Discharged(address _address);\n  event RoleRegistryCreated(address _address);\n\n  function RoleRegistry(address _gateKeeper) Secured(_gateKeeper) public {\n    RoleRegistryCreated(this);\n  }\n\n  /**\n   * @dev Checks if an address has a certain role\n   * @param _address The address to check for the role.\n   * @return A boolean that is True if the address has the role.\n   */\n  function hasRole(address _address) public view returns (bool hasTheRole) {\n    hasTheRole = roleHolders[_address].roleDesignated;\n  }\n\n  /**\n   * @dev Gives the role to an address\n   * @param _address The address to designate the role to.\n   */\n  function designate(address _address) auth(DESIGNATE_ROLE) public {\n    if (roleHolders[_address].creationDate == 0) {\n      roleHoldersIndex.push(_address);\n      roleHolders[_address].creationDate = now;\n    }\n    roleHolders[_address].roleDesignated = true;\n    Designated(_address);\n    invalidateCache(_address, \"\", 0);\n  }\n\n  /**\n   * @dev Removes the role from an address\n   * @param _address The address to discharge fromn the role.\n   */\n  function discharge(address _address) auth(DESIGNATE_ROLE) public {\n    if (roleHolders[_address].creationDate == 0) {\n      roleHoldersIndex.push(_address);\n      roleHolders[_address].creationDate = now;\n    }\n    roleHolders[_address].roleDesignated = false;\n    Discharged(_address);\n    invalidateCache(_address, \"\", 0);\n  }\n\n  /**\n   * @dev Returns the length of the index array\n   * @return the amount of items in the index array\n   */\n  function getIndexLength() view public returns (uint length) {\n    length = roleHoldersIndex.length;\n  }\n\n  /**\n   * @dev Returns the information for the key on a certain index\n   * @param _index The index of the key in the key array\n   * @return the information for the key on a certain index\n   */\n  function getByIndex(uint _index) view public returns (address key, bool hasTheRole) {\n    key = roleHoldersIndex[_index];\n    hasTheRole = roleHolders[roleHoldersIndex[_index]].roleDesignated;\n  }\n\n  /**\n   * @dev Returns the information for the key\n   * @param _key The key to get the info for\n   * @return the information for the key\n   */\n  function getByKey(address _key) view public returns (address key, bool hasTheRole) {\n    key = _key;\n    hasTheRole = roleHolders[_key].roleDesignated;\n  }\n\n  function invalidateCache(address _cachedAddress, bytes32 /*_cachedBytes32*/, uint256 /*_cachedUint256*/) public {\n    AddressCacheInvalidated(_cachedAddress);\n  }\n\n}\n",
  "sourcePath": "@settlemint/solidity-mint/contracts/authentication/RoleRegistry.sol",
  "compiler": {
    "name": "solc",
    "version": "0.4.21+commit.dfe3193c.Emscripten.clang"
  },
  "schemaVersion": "2.0.0",
  "updatedAt": "2018-04-11T13:50:24.557Z"
}