{
  "contractName": "Secured",
  "abi": [
    {
      "constant": true,
      "inputs": [],
      "name": "gateKeeper",
      "outputs": [
        {
          "name": "",
          "type": "address"
        }
      ],
      "payable": false,
      "stateMutability": "view",
      "type": "function"
    },
    {
      "inputs": [
        {
          "name": "_gateKeeper",
          "type": "address"
        }
      ],
      "payable": false,
      "stateMutability": "nonpayable",
      "type": "constructor"
    }
  ],
  "bytecode": "0x6060604052341561000f57600080fd5b6040516020806101178339810160405280805160008054600160a060020a03909216600160a060020a0319909216919091179055505060c4806100536000396000f300606060405260043610603e5763ffffffff7c010000000000000000000000000000000000000000000000000000000060003504166345d61ded81146043575b600080fd5b3415604d57600080fd5b6053607c565b60405173ffffffffffffffffffffffffffffffffffffffff909116815260200160405180910390f35b60005473ffffffffffffffffffffffffffffffffffffffff16815600a165627a7a72305820f50fb52bd557c115fdcade9884c14ecc21d5e927f95817cf18d3a94018aada340029",
  "source": "pragma solidity ^0.4.17;\n\nimport \"./GateKeeper.sol\";\n\n\ncontract Secured {\n\n  GateKeeper public gateKeeper;\n\n  modifier auth(bytes32 _role) {\n    require(canPerform(msg.sender, _role));\n    _;\n  }\n\n  function Secured(address _gateKeeper) public {\n    gateKeeper = GateKeeper(_gateKeeper);\n  }\n\n  function canPerform(address _sender, bytes32 _role) internal constant returns (bool) {\n    return address(gateKeeper) == 0 || gateKeeper.hasPermission(_sender, address(this), _role);\n  }\n\n}\n",
  "sourcePath": "@settlemint/solidity-mint/contracts/authentication/Secured.sol",
  "compiler": {
    "name": "solc",
    "version": "0.4.18+commit.9cf6e910.Emscripten.clang"
  },
  "schemaVersion": "1.0.1",
  "updatedAt": "2018-02-06T09:47:44.773Z"
}