{
  "contractName": "Secured",
  "abi": [
    {
      "constant": true,
      "inputs": [],
      "name": "gateKeeper",
      "outputs": [
        {
          "name": "",
          "type": "address"
        }
      ],
      "payable": false,
      "stateMutability": "view",
      "type": "function"
    },
    {
      "inputs": [
        {
          "name": "_gateKeeper",
          "type": "address"
        }
      ],
      "payable": false,
      "stateMutability": "nonpayable",
      "type": "constructor"
    }
  ],
  "bytecode": "0x608060405234801561001057600080fd5b50604051602080610117833981016040525160008054600160a060020a03909216600160a060020a031990921691909117905560c6806100516000396000f300608060405260043610603e5763ffffffff7c010000000000000000000000000000000000000000000000000000000060003504166345d61ded81146043575b600080fd5b348015604e57600080fd5b506055607e565b6040805173ffffffffffffffffffffffffffffffffffffffff9092168252519081900360200190f35b60005473ffffffffffffffffffffffffffffffffffffffff16815600a165627a7a723058202f28ff2c2be74ac8a6acdbf300bb143d6f3c3f4d37488de2b3a5b6893453a4680029",
  "source": "pragma solidity ^0.4.22;\n\nimport \"./GateKeeper.sol\";\n\n\ncontract Secured {\n\n  GateKeeper public gateKeeper;\n\n  modifier auth(bytes32 _role) {\n    require(canPerform(msg.sender, _role), \"You do not have the correct roles\");\n    _;\n  }\n\n  constructor(address _gateKeeper) public {\n    gateKeeper = GateKeeper(_gateKeeper);\n  }\n\n  function canPerform(address _sender, bytes32 _role) internal view returns (bool) {\n    return address(gateKeeper) == 0 || gateKeeper.hasPermission(_sender, address(this), _role);\n  }\n\n}\n",
  "sourcePath": "@settlemint/solidity-mint/contracts/authentication/Secured.sol",
  "compiler": {
    "name": "solc",
    "version": "0.4.24+commit.e67f0147.Emscripten.clang"
  },
  "schemaVersion": "2.0.1",
  "updatedAt": "2018-07-31T14:49:38.749Z"
}