{
  "contractName": "SensorFactoryDispatcher",
  "abi": [
    {
      "constant": true,
      "inputs": [],
      "name": "UPGRADE_CONTRACT",
      "outputs": [
        {
          "name": "",
          "type": "bytes32"
        }
      ],
      "payable": false,
      "stateMutability": "view",
      "type": "function"
    },
    {
      "constant": true,
      "inputs": [],
      "name": "gateKeeper",
      "outputs": [
        {
          "name": "",
          "type": "address"
        }
      ],
      "payable": false,
      "stateMutability": "view",
      "type": "function"
    },
    {
      "constant": true,
      "inputs": [],
      "name": "target",
      "outputs": [
        {
          "name": "",
          "type": "address"
        }
      ],
      "payable": false,
      "stateMutability": "view",
      "type": "function"
    },
    {
      "inputs": [
        {
          "name": "_gateKeeper",
          "type": "address"
        }
      ],
      "payable": false,
      "stateMutability": "nonpayable",
      "type": "constructor"
    },
    {
      "payable": false,
      "stateMutability": "nonpayable",
      "type": "fallback"
    },
    {
      "anonymous": false,
      "inputs": [],
      "name": "Debug",
      "type": "event"
    },
    {
      "anonymous": false,
      "inputs": [],
      "name": "Replace",
      "type": "event"
    },
    {
      "constant": false,
      "inputs": [
        {
          "name": "_target",
          "type": "address"
        }
      ],
      "name": "setTarget",
      "outputs": [],
      "payable": false,
      "stateMutability": "nonpayable",
      "type": "function"
    }
  ],
  "bytecode": "0x608060405234801561001057600080fd5b5060405160208061041c833981016040525160008054600160a060020a03909216600160a060020a031992831617905560028054909116301790556103c28061005a6000396000f3006080604052600436106100615763ffffffff7c010000000000000000000000000000000000000000000000000000000060003504166317f8213981146100aa57806345d61ded146100d1578063776d1a0114610102578063d4b8399214610125575b34801561006d57600080fd5b506001546000803591600160a060020a03169036908037600080366000846127105a03f43d806000803e8180156100a357816000f35b5050505050005b3480156100b657600080fd5b506100bf61013a565b60408051918252519081900360200190f35b3480156100dd57600080fd5b506100e661015e565b60408051600160a060020a039092168252519081900360200190f35b34801561010e57600080fd5b50610123600160a060020a036004351661016d565b005b34801561013157600080fd5b506100e6610181565b7f555047524144455f434f4e54524143540000000000000000000000000000000081565b600054600160a060020a031681565b61017681610190565b61017e6101c2565b50565b600154600160a060020a031681565b6040517f68c501f199e569e2fc86b7128ef34ac035b927af5d930ce46739440ca047118290600090a161017e81610247565b600254604080517f3d188fab0000000000000000000000000000000000000000000000000000000081523060048201526000604482018190529151600160a060020a0390931692633d188fab9260648084019391929182900301818387803b15801561022d57600080fd5b505af1158015610241573d6000803e3d6000fd5b50505050565b7f555047524144455f434f4e54524143540000000000000000000000000000000061027233826102d6565b151561027d57600080fd5b6040517f7cb3a40e84ba9f80d0b3a1d63fcccab53f3cb76b122339df8d99768367afc68a90600090a1506001805473ffffffffffffffffffffffffffffffffffffffff1916600160a060020a0392909216919091179055565b60008054600160a060020a0316158061038f575060008054604080517f6d6712d8000000000000000000000000000000000000000000000000000000008152600160a060020a0387811660048301523060248301526044820187905291519190921692636d6712d892606480820193602093909283900390910190829087803b15801561036257600080fd5b505af1158015610376573d6000803e3d6000fd5b505050506040513d602081101561038c57600080fd5b50515b93925050505600a165627a7a72305820c1bdca6989c7e20b30ad4882e3b45f135518b3adf565868f412a2ce957845ebb0029",
  "source": "pragma solidity ^0.4.20;\n\nimport \"@settlemint/solidity-mint/contracts/utility/upgrading/Dispatcher.sol\";\nimport \"@settlemint/solidity-mint/contracts/marketplaces/tokensystem/interfaces/IToken.sol\";\nimport \"@settlemint/solidity-mint/contracts/marketplaces/tokencuratedregistry/interfaces/IListing.sol\";\nimport \"@settlemint/solidity-mint/contracts/marketplaces/tokencuratedregistry/interfaces/IListingFactory.sol\";\nimport \"@settlemint/solidity-mint/contracts/marketplaces/tokencuratedregistry/ChallengeRegistry.sol\";\nimport \"@settlemint/solidity-mint/contracts/utility/caching/CachedByAddress.sol\";\n\n\n\n/**\n * Dispatches calls to the sensor factory\n */\ncontract SensorFactoryDispatcher is Dispatcher, CachedByAddress {\n\n  function SensorFactoryDispatcher(\n    address _gateKeeper\n  )\n    Secured(_gateKeeper)\n    CachedByAddress(this)\n    public\n  {}\n\n  function setTarget(address _target) public {\n    super.setTarget(_target);\n    super.invalidateCache();\n  }\n}\n",
  "sourcePath": "/Users/silkevandenbroeck/databrokerDAO/databrokerdao-dapi/contracts/sensor/SensorFactoryDispatcher.sol",
  "compiler": {
    "name": "solc",
    "version": "0.4.24+commit.e67f0147.Emscripten.clang"
  },
  "schemaVersion": "2.0.0",
  "updatedAt": "2018-05-18T12:52:40.489Z"
}