{
  "contractName": "SensorFactoryDispatcher",
  "abi": [
    {
      "constant": true,
      "inputs": [],
      "name": "UPGRADE_CONTRACT",
      "outputs": [
        {
          "name": "",
          "type": "bytes32"
        }
      ],
      "payable": false,
      "stateMutability": "view",
      "type": "function"
    },
    {
      "constant": true,
      "inputs": [],
      "name": "gateKeeper",
      "outputs": [
        {
          "name": "",
          "type": "address"
        }
      ],
      "payable": false,
      "stateMutability": "view",
      "type": "function"
    },
    {
      "constant": true,
      "inputs": [],
      "name": "target",
      "outputs": [
        {
          "name": "",
          "type": "address"
        }
      ],
      "payable": false,
      "stateMutability": "view",
      "type": "function"
    },
    {
      "inputs": [
        {
          "name": "_gateKeeper",
          "type": "address"
        }
      ],
      "payable": false,
      "stateMutability": "nonpayable",
      "type": "constructor"
    },
    {
      "payable": false,
      "stateMutability": "nonpayable",
      "type": "fallback"
    },
    {
      "anonymous": false,
      "inputs": [
        {
          "indexed": false,
          "name": "user",
          "type": "address"
        }
      ],
      "name": "Debug",
      "type": "event"
    },
    {
      "constant": false,
      "inputs": [
        {
          "name": "_target",
          "type": "address"
        }
      ],
      "name": "setTarget",
      "outputs": [],
      "payable": false,
      "stateMutability": "nonpayable",
      "type": "function"
    }
  ],
  "bytecode": "0x608060405234801561001057600080fd5b50604051602080610410833981016040525160008054600160a060020a03928316600160a060020a031991821617909155600280543093909316929091169190911790556103ad806100636000396000f3006080604052600436106100615763ffffffff7c010000000000000000000000000000000000000000000000000000000060003504166317f8213981146100a857806345d61ded146100cf578063776d1a0114610100578063d4b8399214610123575b34801561006d57600080fd5b506001546000803591600160a060020a03169036908037600080366000846127105a03f43d806000803e8180156100a357816000f35b816000fd5b3480156100b457600080fd5b506100bd610138565b60408051918252519081900360200190f35b3480156100db57600080fd5b506100e461015c565b60408051600160a060020a039092168252519081900360200190f35b34801561010c57600080fd5b50610121600160a060020a036004351661016b565b005b34801561012f57600080fd5b506100e461017f565b7f555047524144455f434f4e54524143540000000000000000000000000000000081565b600054600160a060020a031681565b6101748161018e565b61017c6101d3565b50565b600154600160a060020a031681565b60408051600160a060020a038316815290517f330da4cde831ccab151372275307c2f0cce2bcce846635cd66e6908f10d203639181900360200190a161017c81610259565b600254604080517f3d188fab000000000000000000000000000000000000000000000000000000008152600160a060020a0330811660048301526000604483018190529251931692633d188fab9260648084019391929182900301818387803b15801561023f57600080fd5b505af1158015610253573d6000803e3d6000fd5b50505050565b7f555047524144455f434f4e54524143540000000000000000000000000000000061028433826102bf565b151561028f57600080fd5b506001805473ffffffffffffffffffffffffffffffffffffffff1916600160a060020a0392909216919091179055565b60008054600160a060020a0316158061037a575060008054604080517f6d6712d8000000000000000000000000000000000000000000000000000000008152600160a060020a03878116600483015230811660248301526044820187905291519190921692636d6712d892606480820193602093909283900390910190829087803b15801561034d57600080fd5b505af1158015610361573d6000803e3d6000fd5b505050506040513d602081101561037757600080fd5b50515b93925050505600a165627a7a72305820bd222a5dff2b4ece1e99963954bb504317d1596cbb66b30cd8607a8eef86b9030029",
  "source": "pragma solidity ^0.4.20;\n\nimport \"@settlemint/solidity-mint/contracts/utility/upgrading/Dispatcher.sol\";\nimport \"@settlemint/solidity-mint/contracts/marketplaces/tokensystem/interfaces/IToken.sol\";\nimport \"@settlemint/solidity-mint/contracts/marketplaces/tokencuratedregistry/interfaces/IListing.sol\";\nimport \"@settlemint/solidity-mint/contracts/marketplaces/tokencuratedregistry/interfaces/IListingFactory.sol\";\nimport \"@settlemint/solidity-mint/contracts/marketplaces/tokencuratedregistry/ChallengeRegistry.sol\";\nimport \"@settlemint/solidity-mint/contracts/utility/caching/CachedByAddress.sol\";\n\n\n\n/**\n * Dispatches calls to the sensor factory\n */\ncontract SensorFactoryDispatcher is Dispatcher, CachedByAddress {\n\n  function SensorFactoryDispatcher(\n    address _gateKeeper\n  )\n    Secured(_gateKeeper)\n    CachedByAddress(this)\n    public\n  {}\n\n  function setTarget(address _target) public {\n    super.setTarget(_target);\n    super.invalidateCache();\n  }\n}\n",
  "sourcePath": "/Users/silkevandenbroeck/databrokerDAO/databrokerdao-dapi/contracts/sensor/SensorFactoryDispatcher.sol",
  "compiler": {
    "name": "solc",
    "version": "0.4.22+commit.4cb486ee.Emscripten.clang"
  },
  "schemaVersion": "2.0.0",
  "updatedAt": "2018-05-15T09:28:34.032Z"
}