{
  "contractName": "SensorRegistry",
  "abi": [
    {
      "constant": true,
      "inputs": [],
      "name": "WITHDRAW_FUNDS_ROLE",
      "outputs": [
        {
          "name": "",
          "type": "bytes32"
        }
      ],
      "payable": false,
      "stateMutability": "view",
      "type": "function"
    },
    {
      "constant": false,
      "inputs": [
        {
          "name": "_stakeAmount",
          "type": "uint256"
        },
        {
          "name": "_price",
          "type": "uint256"
        },
        {
          "name": "_metadata",
          "type": "string"
        }
      ],
      "name": "enlist",
      "outputs": [],
      "payable": false,
      "stateMutability": "nonpayable",
      "type": "function"
    },
    {
      "constant": true,
      "inputs": [
        {
          "name": "index",
          "type": "uint256"
        }
      ],
      "name": "getByIndex",
      "outputs": [
        {
          "name": "key",
          "type": "address"
        },
        {
          "name": "contractAddress",
          "type": "address"
        }
      ],
      "payable": false,
      "stateMutability": "view",
      "type": "function"
    },
    {
      "constant": true,
      "inputs": [],
      "name": "CURATE_CHALLENGE_ROLE",
      "outputs": [
        {
          "name": "",
          "type": "bytes32"
        }
      ],
      "payable": false,
      "stateMutability": "view",
      "type": "function"
    },
    {
      "constant": true,
      "inputs": [],
      "name": "CHANGE_SETTINGS_ROLE",
      "outputs": [
        {
          "name": "",
          "type": "bytes32"
        }
      ],
      "payable": false,
      "stateMutability": "view",
      "type": "function"
    },
    {
      "constant": false,
      "inputs": [
        {
          "name": "_curatorPercentage",
          "type": "uint256"
        }
      ],
      "name": "setCuratorPercentage",
      "outputs": [],
      "payable": false,
      "stateMutability": "nonpayable",
      "type": "function"
    },
    {
      "constant": false,
      "inputs": [],
      "name": "withdraw",
      "outputs": [],
      "payable": false,
      "stateMutability": "nonpayable",
      "type": "function"
    },
    {
      "constant": false,
      "inputs": [
        {
          "name": "_cachedAddress",
          "type": "address"
        },
        {
          "name": "",
          "type": "bytes32"
        },
        {
          "name": "",
          "type": "uint256"
        }
      ],
      "name": "invalidateCache",
      "outputs": [],
      "payable": false,
      "stateMutability": "nonpayable",
      "type": "function"
    },
    {
      "constant": true,
      "inputs": [],
      "name": "gateKeeper",
      "outputs": [
        {
          "name": "",
          "type": "address"
        }
      ],
      "payable": false,
      "stateMutability": "view",
      "type": "function"
    },
    {
      "constant": true,
      "inputs": [
        {
          "name": "_key",
          "type": "address"
        }
      ],
      "name": "getByKey",
      "outputs": [
        {
          "name": "key",
          "type": "address"
        },
        {
          "name": "contractAddress",
          "type": "address"
        }
      ],
      "payable": false,
      "stateMutability": "view",
      "type": "function"
    },
    {
      "constant": false,
      "inputs": [
        {
          "name": "_listing",
          "type": "address"
        },
        {
          "name": "_stakeAmount",
          "type": "uint256"
        }
      ],
      "name": "increase",
      "outputs": [],
      "payable": false,
      "stateMutability": "nonpayable",
      "type": "function"
    },
    {
      "constant": false,
      "inputs": [
        {
          "name": "_listing",
          "type": "address"
        }
      ],
      "name": "addListing",
      "outputs": [],
      "payable": false,
      "stateMutability": "nonpayable",
      "type": "function"
    },
    {
      "constant": true,
      "inputs": [
        {
          "name": "",
          "type": "address"
        }
      ],
      "name": "listings",
      "outputs": [
        {
          "name": "",
          "type": "address"
        }
      ],
      "payable": false,
      "stateMutability": "view",
      "type": "function"
    },
    {
      "constant": false,
      "inputs": [
        {
          "name": "_listing",
          "type": "address"
        },
        {
          "name": "_stakeAmount",
          "type": "uint256"
        },
        {
          "name": "_metadata",
          "type": "string"
        }
      ],
      "name": "challenge",
      "outputs": [],
      "payable": false,
      "stateMutability": "nonpayable",
      "type": "function"
    },
    {
      "constant": false,
      "inputs": [
        {
          "name": "_minEnlistAmount",
          "type": "uint256"
        }
      ],
      "name": "setMinEnlistAmount",
      "outputs": [],
      "payable": false,
      "stateMutability": "nonpayable",
      "type": "function"
    },
    {
      "constant": false,
      "inputs": [
        {
          "name": "_listing",
          "type": "address"
        }
      ],
      "name": "approveChallenge",
      "outputs": [],
      "payable": false,
      "stateMutability": "nonpayable",
      "type": "function"
    },
    {
      "constant": false,
      "inputs": [
        {
          "name": "_listing",
          "type": "address"
        }
      ],
      "name": "denyChallenge",
      "outputs": [],
      "payable": false,
      "stateMutability": "nonpayable",
      "type": "function"
    },
    {
      "constant": false,
      "inputs": [
        {
          "name": "_listing",
          "type": "address"
        }
      ],
      "name": "unlist",
      "outputs": [],
      "payable": false,
      "stateMutability": "nonpayable",
      "type": "function"
    },
    {
      "constant": false,
      "inputs": [
        {
          "name": "_minChallengeAmount",
          "type": "uint256"
        }
      ],
      "name": "setMinChallengeAmount",
      "outputs": [],
      "payable": false,
      "stateMutability": "nonpayable",
      "type": "function"
    },
    {
      "constant": true,
      "inputs": [],
      "name": "getIndexLength",
      "outputs": [
        {
          "name": "length",
          "type": "uint256"
        }
      ],
      "payable": false,
      "stateMutability": "view",
      "type": "function"
    },
    {
      "constant": false,
      "inputs": [
        {
          "name": "_listing",
          "type": "address"
        },
        {
          "name": "_stakeAmount",
          "type": "uint256"
        }
      ],
      "name": "decrease",
      "outputs": [],
      "payable": false,
      "stateMutability": "nonpayable",
      "type": "function"
    },
    {
      "constant": true,
      "inputs": [],
      "name": "token",
      "outputs": [
        {
          "name": "",
          "type": "address"
        }
      ],
      "payable": false,
      "stateMutability": "view",
      "type": "function"
    },
    {
      "constant": true,
      "inputs": [],
      "name": "listingFactory",
      "outputs": [
        {
          "name": "",
          "type": "address"
        }
      ],
      "payable": false,
      "stateMutability": "view",
      "type": "function"
    },
    {
      "inputs": [
        {
          "name": "_gateKeeper",
          "type": "address"
        },
        {
          "name": "_token",
          "type": "address"
        },
        {
          "name": "_listingFactory",
          "type": "address"
        },
        {
          "name": "_challengeRegistry",
          "type": "address"
        },
        {
          "name": "_minEnlistAmount",
          "type": "uint256"
        },
        {
          "name": "_minChallengeAmount",
          "type": "uint256"
        },
        {
          "name": "_curatorPercentage",
          "type": "uint256"
        }
      ],
      "payable": false,
      "stateMutability": "nonpayable",
      "type": "constructor"
    },
    {
      "anonymous": false,
      "inputs": [
        {
          "indexed": false,
          "name": "listing",
          "type": "address"
        },
        {
          "indexed": false,
          "name": "stake",
          "type": "uint256"
        },
        {
          "indexed": false,
          "name": "price",
          "type": "uint256"
        }
      ],
      "name": "Enlisted",
      "type": "event"
    },
    {
      "anonymous": false,
      "inputs": [
        {
          "indexed": false,
          "name": "listing",
          "type": "address"
        },
        {
          "indexed": false,
          "name": "stake",
          "type": "uint256"
        },
        {
          "indexed": false,
          "name": "challenge",
          "type": "address"
        }
      ],
      "name": "Challenged",
      "type": "event"
    },
    {
      "anonymous": false,
      "inputs": [
        {
          "indexed": false,
          "name": "listing",
          "type": "address"
        }
      ],
      "name": "Unlisted",
      "type": "event"
    },
    {
      "anonymous": false,
      "inputs": [
        {
          "indexed": false,
          "name": "listing",
          "type": "address"
        }
      ],
      "name": "ChallengeApproved",
      "type": "event"
    },
    {
      "anonymous": false,
      "inputs": [
        {
          "indexed": false,
          "name": "listing",
          "type": "address"
        }
      ],
      "name": "ChallengeDenied",
      "type": "event"
    },
    {
      "anonymous": false,
      "inputs": [
        {
          "indexed": false,
          "name": "listing",
          "type": "address"
        },
        {
          "indexed": false,
          "name": "increasedBy",
          "type": "uint256"
        },
        {
          "indexed": false,
          "name": "newStake",
          "type": "uint256"
        }
      ],
      "name": "Increased",
      "type": "event"
    },
    {
      "anonymous": false,
      "inputs": [
        {
          "indexed": false,
          "name": "listing",
          "type": "address"
        },
        {
          "indexed": false,
          "name": "decreasedBy",
          "type": "uint256"
        },
        {
          "indexed": false,
          "name": "newStake",
          "type": "uint256"
        }
      ],
      "name": "Decreased",
      "type": "event"
    },
    {
      "anonymous": false,
      "inputs": [
        {
          "indexed": false,
          "name": "by",
          "type": "address"
        },
        {
          "indexed": false,
          "name": "balance",
          "type": "uint256"
        }
      ],
      "name": "Withdrawn",
      "type": "event"
    },
    {
      "anonymous": false,
      "inputs": [
        {
          "indexed": false,
          "name": "value",
          "type": "uint256"
        }
      ],
      "name": "MinEnlistAmountChanged",
      "type": "event"
    },
    {
      "anonymous": false,
      "inputs": [
        {
          "indexed": false,
          "name": "value",
          "type": "uint256"
        }
      ],
      "name": "MinChallengeAmountChanged",
      "type": "event"
    },
    {
      "anonymous": false,
      "inputs": [
        {
          "indexed": false,
          "name": "value",
          "type": "uint256"
        }
      ],
      "name": "CuratorPercentageChanged",
      "type": "event"
    },
    {
      "anonymous": false,
      "inputs": [
        {
          "indexed": true,
          "name": "key",
          "type": "address"
        }
      ],
      "name": "AddressCacheInvalidated",
      "type": "event"
    },
    {
      "anonymous": false,
      "inputs": [
        {
          "indexed": true,
          "name": "key",
          "type": "bytes32"
        }
      ],
      "name": "Bytes32CacheInvalidated",
      "type": "event"
    },
    {
      "anonymous": false,
      "inputs": [
        {
          "indexed": true,
          "name": "key",
          "type": "uint256"
        }
      ],
      "name": "Uint256CacheInvalidated",
      "type": "event"
    }
  ],
  "bytecode": "0x608060405260006006556000600755600060085534801561001f57600080fd5b5060405160e080612eff83398101604090815281516020830151918301516060840151608085015160a086015160c09096015160008054600160a060020a0319908116600160a060020a039788161782556003805482169888169890981790975560048054881695871695909517909455600580549096169490921693909317909355600691909155600792909255600855612e3e9081906100c190396000f3006080604052600436106101195763ffffffff60e060020a6000350416631cbcd974811461011e578063236b237c146101455780632d883a731461016f57806332a65198146101ad5780633426ddd5146101c2578063346fa921146101d75780633ccfd60b146101ef5780633d188fab1461020457806345d61ded1461022b578063498770381461025c578063522afaec1461027d57806359d5da89146102a157806365d96c82146102c25780636c3344eb146102e357806383b7113e1461034c57806392f60b961461036457806399b6c1c614610385578063bde3672d146103a6578063de29ee68146103c7578063e1ba7d01146103df578063f27ac4d9146103f4578063fc0c546a14610418578063fe8cde341461042d575b600080fd5b34801561012a57600080fd5b50610133610442565b60408051918252519081900360200190f35b34801561015157600080fd5b5061016d60048035906024803591604435918201910135610466565b005b34801561017b57600080fd5b506101876004356105ec565b60408051600160a060020a03938416815291909216602082015281519081900390910190f35b3480156101b957600080fd5b50610133610624565b3480156101ce57600080fd5b50610133610648565b3480156101e357600080fd5b5061016d60043561065a565b3480156101fb57600080fd5b5061016d6106ba565b34801561021057600080fd5b5061016d600160a060020a03600435166024356044356107c5565b34801561023757600080fd5b506102406107fe565b60408051600160a060020a039092168252519081900360200190f35b34801561026857600080fd5b50610187600160a060020a036004351661080d565b34801561028957600080fd5b5061016d600160a060020a036004351660243561082d565b3480156102ad57600080fd5b5061016d600160a060020a0360043516610b15565b3480156102ce57600080fd5b50610240600160a060020a0360043516610cd2565b3480156102ef57600080fd5b50604080516020600460443581810135601f810184900484028501840190955284845261016d948235600160a060020a0316946024803595369594606494920191908190840183828082843750949750610ced9650505050505050565b34801561035857600080fd5b5061016d600435611246565b34801561037057600080fd5b5061016d600160a060020a03600435166112a6565b34801561039157600080fd5b5061016d600160a060020a03600435166119c7565b3480156103b257600080fd5b5061016d600160a060020a0360043516611f65565b3480156103d357600080fd5b5061016d6004356122b7565b3480156103eb57600080fd5b50610133612317565b34801561040057600080fd5b5061016d600160a060020a036004351660243561231d565b34801561042457600080fd5b5061024061260e565b34801561043957600080fd5b5061024061261d565b7f57495448445241575f46554e44535f524f4c450000000000000000000000000081565b60065484101561047557600080fd5b600354604080517f23b872dd000000000000000000000000000000000000000000000000000000008152600160a060020a033381166004830152308116602483015260448201889052915191909216916323b872dd9160648083019260209291908290030181600087803b1580156104ec57600080fd5b505af1158015610500573d6000803e3d6000fd5b505050506040513d602081101561051657600080fd5b5051151561052357600080fd5b600480546040517f35012d7e000000000000000000000000000000000000000000000000000000008152600160a060020a0333818116948301948552602483018890526044830189905230808316606485015260a06084850190815260a4850188905292909416946335012d7e94919389938b93928a928a929060c4018484808284378201915050975050505050505050600060405180830381600087803b1580156105ce57600080fd5b505af11580156105e2573d6000803e3d6000fd5b5050505050505050565b60008061061b60028481548110151561060157fe5b600091825260209091200154600160a060020a031661080d565b91509150915091565b7f4355524154455f4348414c4c454e47455f524f4c45000000000000000000000081565b600080516020612df383398151915281565b600080516020612df3833981519152610673338261262c565b151561067e57600080fd5b60088290556040805183815290517fea6c6084ca0283f30c459faead18d4a32783096c26aa5847e96e1eeec97edce89181900360200190a15050565b60007f57495448445241575f46554e44535f524f4c45000000000000000000000000006106e7338261262c565b15156106f257600080fd5b6003546040805160e060020a63a9059cbb028152600160a060020a033381166004830152308116803160248401529251923195509092169163a9059cbb9160448083019260209291908290030181600087803b15801561075157600080fd5b505af1158015610765573d6000803e3d6000fd5b505050506040513d602081101561077b57600080fd5b505060408051600160a060020a03331681526020810184905281517f7084f5476618d8e60b11ef0d7d3f06914655adb8793e28ff7f018d4c76d505d5929181900390910190a15050565b604051600160a060020a038416907f2130e02bc65616aa7f8f548960f51a08a1d0ea94efb33611412208c2d0306a2290600090a2505050565b600054600160a060020a031681565b600160a060020a0390811660009081526001602052604090205416908190565b600160a060020a03808316600090815260016020908152604080832054815160e060020a638da5cb5b0281529151908516943316938593638da5cb5b936004808201949293918390030190829087803b15801561088957600080fd5b505af115801561089d573d6000803e3d6000fd5b505050506040513d60208110156108b357600080fd5b5051600160a060020a0316146108c857600080fd5b600354604080517f23b872dd000000000000000000000000000000000000000000000000000000008152600160a060020a033381166004830152308116602483015260448201869052915191909216916323b872dd9160648083019260209291908290030181600087803b15801561093f57600080fd5b505af1158015610953573d6000803e3d6000fd5b505050506040513d602081101561096957600080fd5b5051151561097657600080fd5b80600160a060020a03166335d9db536109ff8484600160a060020a0316633a4b66f16040518163ffffffff1660e060020a028152600401602060405180830381600087803b1580156109c757600080fd5b505af11580156109db573d6000803e3d6000fd5b505050506040513d60208110156109f157600080fd5b50519063ffffffff6126f016565b6040518263ffffffff1660e060020a02815260040180828152602001915050600060405180830381600087803b158015610a3857600080fd5b505af1158015610a4c573d6000803e3d6000fd5b505050507f8b05844824acf2db2f068e4006ef99b307ca4fe1a896d06e884700f1a9da3a6d838383600160a060020a0316633a4b66f16040518163ffffffff1660e060020a028152600401602060405180830381600087803b158015610ab157600080fd5b505af1158015610ac5573d6000803e3d6000fd5b505050506040513d6020811015610adb57600080fd5b505160408051600160a060020a039094168452602084019290925282820152519081900360600190a1610b10836000806107c5565b505050565b600160a060020a0381166000818152600160208181526040808420805473ffffffffffffffffffffffffffffffffffffffff19908116871790915560028054948501815585527f405787fa12a823e0f2b7631cc41b3ba8828b3321ca811111fa75cd3aa3bb5ace90930180549093168517909255815160e060020a633a4b66f1028152915185947f7583fed51a2ab4e582c68d93e281e0fcc2601ef4a7491d1d2d2dc511f6a912799486949193633a4b66f193600480850194929391928390030190829087803b158015610be857600080fd5b505af1158015610bfc573d6000803e3d6000fd5b505050506040513d6020811015610c1257600080fd5b5051604080517fa035b1fe0000000000000000000000000000000000000000000000000000000081529051600160a060020a0386169163a035b1fe9160048083019260209291908290030181600087803b158015610c6f57600080fd5b505af1158015610c83573d6000803e3d6000fd5b505050506040513d6020811015610c9957600080fd5b505160408051600160a060020a039094168452602084019290925282820152519081900360600190a1610cce826000806107c5565b5050565b600160205260009081526040902054600160a060020a031681565b6000806007548410151515610d0157600080fd5b600160a060020a0380861660009081526001602090815260408083205460035482517f23b872dd00000000000000000000000000000000000000000000000000000000815233871660048201523087166024820152604481018b905292519186169750909416936323b872dd93606480840194938390030190829087803b158015610d8b57600080fd5b505af1158015610d9f573d6000803e3d6000fd5b505050506040513d6020811015610db557600080fd5b50511515610dc257600080fd5b600054339085908790600160a060020a0316610ddc61274d565b600160a060020a039485168152602081019390935290831660408084019190915292166060820152905190819003608001906000f080158015610e23573d6000803e3d6000fd5b5060008054604080517fbe038478000000000000000000000000000000000000000000000000000000008152600160a060020a033381166004830181905286821660248401527f5550444154455f4d455441444154415f524f4c4500000000000000000000000060448401526064830152915194955091169263be0384789260848084019391929182900301818387803b158015610ec057600080fd5b505af1158015610ed4573d6000803e3d6000fd5b50506040517f5cc07505000000000000000000000000000000000000000000000000000000008152602060048201818152875160248401528751600160a060020a0387169550635cc075059450889391928392604401919085019080838360005b83811015610f4d578181015183820152602001610f35565b50505050905090810190601f168015610f7a5780820380516001836020036101000a031916815260200191505b5092505050600060405180830381600087803b158015610f9957600080fd5b505af1158015610fad573d6000803e3d6000fd5b5050600554604080517ff8242c32000000000000000000000000000000000000000000000000000000008152600160a060020a038681166004830152915191909216935063f8242c329250602480830192600092919082900301818387803b15801561101857600080fd5b505af115801561102c573d6000803e3d6000fd5b5050505081600160a060020a0316636de149f56110818685600160a060020a031663605cba826040518163ffffffff1660e060020a028152600401602060405180830381600087803b1580156109c757600080fd5b6040518263ffffffff1660e060020a02815260040180828152602001915050600060405180830381600087803b1580156110ba57600080fd5b505af11580156110ce573d6000803e3d6000fd5b5050505081600160a060020a031663a2de8368611124600185600160a060020a031663ae1108756040518163ffffffff1660e060020a028152600401602060405180830381600087803b1580156109c757600080fd5b6040518263ffffffff1660e060020a02815260040180828152602001915050600060405180830381600087803b15801561115d57600080fd5b505af1158015611171573d6000803e3d6000fd5b5050505081600160a060020a0316637daa30df826040518263ffffffff1660e060020a0281526004018082600160a060020a0316600160a060020a03168152602001915050600060405180830381600087803b1580156111d057600080fd5b505af11580156111e4573d6000803e3d6000fd5b505060408051600160a060020a03808a1682526020820189905285168183015290517fccd897ff376a9748c9a2e6af2a359a82cb0513a96ff431f17763ad057b1619089350908190036060019150a161123f856000806107c5565b5050505050565b600080516020612df383398151915261125f338261262c565b151561126a57600080fd5b60068290556040805183815290517f1e2fffeb4ad73c19aa71037a187b8cb1a45220f05d6cce7c2801c106de268a8a9181900360200190a15050565b6000806000806000807f4355524154455f4348414c4c454e47455f524f4c4500000000000000000000006112da338261262c565b15156112e557600080fd5b600160a060020a0380891660009081526001602090815260408083205481517f605cba82000000000000000000000000000000000000000000000000000000008152915194169a508a9363605cba8293600480840194938390030190829087803b15801561135257600080fd5b505af1158015611366573d6000803e3d6000fd5b505050506040513d602081101561137c57600080fd5b50516008549096506113a69061139990606463ffffffff6126fd16565b879063ffffffff61271216565b6003546040805160e060020a63a9059cbb028152600160a060020a03338116600483015260248201859052915193985091169163a9059cbb916044808201926020929091908290030181600087803b15801561140157600080fd5b505af1158015611415573d6000803e3d6000fd5b505050506040513d602081101561142b57600080fd5b5060009450505b86600160a060020a031663cfd6d7326040518163ffffffff1660e060020a028152600401602060405180830381600087803b15801561147057600080fd5b505af1158015611484573d6000803e3d6000fd5b505050506040513d602081101561149a57600080fd5b50518410156117e15786600160a060020a031663b263b26e856040518263ffffffff1660e060020a02815260040180828152602001915050602060405180830381600087803b1580156114ec57600080fd5b505af1158015611500573d6000803e3d6000fd5b505050506040513d602081101561151657600080fd5b5051604080517f3f6fa6550000000000000000000000000000000000000000000000000000000081529051919450600160a060020a03851691633f6fa655916004808201926020929091908290030181600087803b15801561157757600080fd5b505af115801561158b573d6000803e3d6000fd5b505050506040513d60208110156115a157600080fd5b505115156117d6576115b9868663ffffffff61273b16565b9150600360009054906101000a9004600160a060020a0316600160a060020a031663a9059cbb84600160a060020a031663534db0e26040518163ffffffff1660e060020a028152600401602060405180830381600087803b15801561161d57600080fd5b505af1158015611631573d6000803e3d6000fd5b505050506040513d602081101561164757600080fd5b50516040805160e060020a633a4b66f102815290516116de916116d1918c91600160a060020a038b1691633a4b66f1916004808201926020929091908290030181600087803b15801561169957600080fd5b505af11580156116ad573d6000803e3d6000fd5b505050506040513d60208110156116c357600080fd5b50519063ffffffff6126fd16565b869063ffffffff61271216565b6040518363ffffffff1660e060020a0281526004018083600160a060020a0316600160a060020a0316815260200182815260200192505050602060405180830381600087803b15801561173057600080fd5b505af1158015611744573d6000803e3d6000fd5b505050506040513d602081101561175a57600080fd5b5050604080517f164d90e0000000000000000000000000000000000000000000000000000000008152600160048201529051600160a060020a0385169163164d90e091602480830192600092919082900301818387803b1580156117bd57600080fd5b505af11580156117d1573d6000803e3d6000fd5b505050505b600190930192611432565b86600160a060020a03166335d9db5360006040518263ffffffff1660e060020a02815260040180828152602001915050600060405180830381600087803b15801561182b57600080fd5b505af115801561183f573d6000803e3d6000fd5b5050505086600160a060020a0316636de149f560006040518263ffffffff1660e060020a02815260040180828152602001915050600060405180830381600087803b15801561188d57600080fd5b505af11580156118a1573d6000803e3d6000fd5b5050505086600160a060020a031663a2de836860006040518263ffffffff1660e060020a02815260040180828152602001915050600060405180830381600087803b1580156118ef57600080fd5b505af1158015611903573d6000803e3d6000fd5b5050604080517f7b7892040000000000000000000000000000000000000000000000000000000081526000600482018190529151600160a060020a038c169450637b78920493506024808301939282900301818387803b15801561196657600080fd5b505af115801561197a573d6000803e3d6000fd5b505060408051600160a060020a038c16815290517f9d9f99a36ef64966814c1f89a7a64fcb0132cbd085184a9666469302f32b92c49350908190036020019150a16105e2886000806107c5565b60008060008060007f4355524154455f4348414c4c454e47455f524f4c4500000000000000000000006119fa338261262c565b1515611a0557600080fd5b600160a060020a0380881660009081526001602090815260408083205481517f605cba82000000000000000000000000000000000000000000000000000000008152915194169950899363605cba8293600480840194938390030190829087803b158015611a7257600080fd5b505af1158015611a86573d6000803e3d6000fd5b505050506040513d6020811015611a9c57600080fd5b5051600854909550611ab9906116d190606463ffffffff6126fd16565b6003546040805160e060020a63a9059cbb028152600160a060020a03338116600483015260248201859052915193975091169163a9059cbb916044808201926020929091908290030181600087803b158015611b1457600080fd5b505af1158015611b28573d6000803e3d6000fd5b505050506040513d6020811015611b3e57600080fd5b50506003546040805160e060020a638da5cb5b0281529051600160a060020a039283169263a9059cbb92908a1691638da5cb5b916004808201926020929091908290030181600087803b158015611b9457600080fd5b505af1158015611ba8573d6000803e3d6000fd5b505050506040513d6020811015611bbe57600080fd5b5051611bd0888863ffffffff61273b16565b6040518363ffffffff1660e060020a0281526004018083600160a060020a0316600160a060020a0316815260200182815260200192505050602060405180830381600087803b158015611c2257600080fd5b505af1158015611c36573d6000803e3d6000fd5b505050506040513d6020811015611c4c57600080fd5b5060009350505b85600160a060020a031663cfd6d7326040518163ffffffff1660e060020a028152600401602060405180830381600087803b158015611c9157600080fd5b505af1158015611ca5573d6000803e3d6000fd5b505050506040513d6020811015611cbb57600080fd5b5051831015611e4f5785600160a060020a031663b263b26e846040518263ffffffff1660e060020a02815260040180828152602001915050602060405180830381600087803b158015611d0d57600080fd5b505af1158015611d21573d6000803e3d6000fd5b505050506040513d6020811015611d3757600080fd5b5051604080517f3f6fa6550000000000000000000000000000000000000000000000000000000081529051919350600160a060020a03841691633f6fa655916004808201926020929091908290030181600087803b158015611d9857600080fd5b505af1158015611dac573d6000803e3d6000fd5b505050506040513d6020811015611dc257600080fd5b50511515611e4457604080517f164d90e0000000000000000000000000000000000000000000000000000000008152600160048201529051600160a060020a0384169163164d90e091602480830192600092919082900301818387803b158015611e2b57600080fd5b505af1158015611e3f573d6000803e3d6000fd5b505050505b600190920191611c53565b85600160a060020a0316636de149f560006040518263ffffffff1660e060020a02815260040180828152602001915050600060405180830381600087803b158015611e9957600080fd5b505af1158015611ead573d6000803e3d6000fd5b5050505085600160a060020a031663a2de836860006040518263ffffffff1660e060020a02815260040180828152602001915050600060405180830381600087803b158015611efb57600080fd5b505af1158015611f0f573d6000803e3d6000fd5b505060408051600160a060020a038b16815290517f125014e75e2aead4a1c8a35e9bb786a430fc1ba6354cbd9845802d3603abd0b09350908190036020019150a1611f5c876000806107c5565b50505050505050565b600160a060020a03808216600090815260016020908152604080832054815160e060020a638da5cb5b02815291519416938493638da5cb5b93600480850194919392918390030190829087803b158015611fbe57600080fd5b505af1158015611fd2573d6000803e3d6000fd5b505050506040513d6020811015611fe857600080fd5b505133600160a060020a0390811691161461200257600080fd5b600081600160a060020a0316633a4b66f16040518163ffffffff1660e060020a028152600401602060405180830381600087803b15801561204257600080fd5b505af1158015612056573d6000803e3d6000fd5b505050506040513d602081101561206c57600080fd5b505111156121f757600360009054906101000a9004600160a060020a0316600160a060020a031663a9059cbb82600160a060020a0316638da5cb5b6040518163ffffffff1660e060020a028152600401602060405180830381600087803b1580156120d657600080fd5b505af11580156120ea573d6000803e3d6000fd5b505050506040513d602081101561210057600080fd5b50516040805160e060020a633a4b66f10281529051600160a060020a03861691633a4b66f19160048083019260209291908290030181600087803b15801561214757600080fd5b505af115801561215b573d6000803e3d6000fd5b505050506040513d602081101561217157600080fd5b50516040805160e060020a63ffffffff8616028152600160a060020a03909316600484015260248301919091525160448083019260209291908290030181600087803b1580156121c057600080fd5b505af11580156121d4573d6000803e3d6000fd5b505050506040513d60208110156121ea57600080fd5b505115156121f757600080fd5b604080517f7b7892040000000000000000000000000000000000000000000000000000000081526000600482018190529151600160a060020a03841692637b789204926024808201939182900301818387803b15801561225657600080fd5b505af115801561226a573d6000803e3d6000fd5b505060408051600160a060020a038616815290517fc48322c2e165c864176005884983dd81c87a9fc8258ca6a1967d17b26cd8d0e39350908190036020019150a1610cce826000806107c5565b600080516020612df38339815191526122d0338261262c565b15156122db57600080fd5b60078290556040805183815290517fec0975e9a985b0702fafca3ee144a642dfe5c48de1b5e1c934e0e4131ce5fcbe9181900360200190a15050565b60025490565b600160a060020a03808316600090815260016020908152604080832054815160e060020a633a4b66f102815291519416938492633a4b66f1926004808201939182900301818787803b15801561237257600080fd5b505af1158015612386573d6000803e3d6000fd5b505050506040513d602081101561239c57600080fd5b50516040805160e060020a638da5cb5b0281529051919250600160a060020a033381169290851691638da5cb5b9160048083019260209291908290030181600087803b1580156123eb57600080fd5b505af11580156123ff573d6000803e3d6000fd5b505050506040513d602081101561241557600080fd5b5051600160a060020a03161461242a57600080fd5b8083111561243757600080fd5b600654838203101561244857600080fd5b6003546040805160e060020a63a9059cbb028152600160a060020a033381166004830152602482018790529151919092169163a9059cbb9160448083019260209291908290030181600087803b1580156124a157600080fd5b505af11580156124b5573d6000803e3d6000fd5b505050506040513d60208110156124cb57600080fd5b505115156124d857600080fd5b600160a060020a0382166335d9db536124f7838663ffffffff61273b16565b6040518263ffffffff1660e060020a02815260040180828152602001915050600060405180830381600087803b15801561253057600080fd5b505af1158015612544573d6000803e3d6000fd5b505050507f5ee9537083cb767f9e599a17876a9c597197deba435082e0b88c4da925d4599e848484600160a060020a0316633a4b66f16040518163ffffffff1660e060020a028152600401602060405180830381600087803b1580156125a957600080fd5b505af11580156125bd573d6000803e3d6000fd5b505050506040513d60208110156125d357600080fd5b505160408051600160a060020a039094168452602084019290925282820152519081900360600190a1612608846000806107c5565b50505050565b600354600160a060020a031681565b600454600160a060020a031681565b60008054600160a060020a031615806126e7575060008054604080517f6d6712d8000000000000000000000000000000000000000000000000000000008152600160a060020a03878116600483015230811660248301526044820187905291519190921692636d6712d892606480820193602093909283900390910190829087803b1580156126ba57600080fd5b505af11580156126ce573d6000803e3d6000fd5b505050506040513d60208110156126e457600080fd5b50515b90505b92915050565b818101828110156126ea57fe5b6000818381151561270a57fe5b049392505050565b6000821515612723575060006126ea565b5081810281838281151561273357fe5b04146126ea57fe5b60008282111561274757fe5b50900390565b6040516106958061275e83390190560060806040526003805460a060020a60ff021916905534801561002057600080fd5b50604051608080610695833981016040908152815160208301519183015160609093015160008054600160a060020a03928316600160a060020a03199182161790915560018054308416908316179055600380549383169382169390931790925560049290925560058054929093169116179055426006556105ee806100a76000396000f3006080604052600436106100ae5763ffffffff7c0100000000000000000000000000000000000000000000000000000000600035041663164d90e081146100b3578063392f37e9146100cf5780633a4b66f1146101595780633d188fab146101805780633f6fa655146101a757806345d61ded146101d0578063534db0e2146102015780635cc0750514610216578063b80777ea1461026f578063bc7c55ed14610284578063fff139cf14610299575b600080fd5b3480156100bf57600080fd5b506100cd60043515156102ae565b005b3480156100db57600080fd5b506100e4610334565b6040805160208082528351818301528351919283929083019185019080838360005b8381101561011e578181015183820152602001610106565b50505050905090810190601f16801561014b5780820380516001836020036101000a031916815260200191505b509250505060405180910390f35b34801561016557600080fd5b5061016e6103bf565b60408051918252519081900360200190f35b34801561018c57600080fd5b506100cd600160a060020a03600435166024356044356103c5565b3480156101b357600080fd5b506101bc6103fe565b604080519115158252519081900360200190f35b3480156101dc57600080fd5b506101e561041f565b60408051600160a060020a039092168252519081900360200190f35b34801561020d57600080fd5b506101e561042e565b34801561022257600080fd5b506040805160206004803580820135601f81018490048402850184019095528484526100cd94369492936024939284019190819084018382808284375094975061043d9650505050505050565b34801561027b57600080fd5b5061016e610451565b34801561029057600080fd5b506101e5610457565b3480156102a557600080fd5b5061016e610466565b6003805474ff0000000000000000000000000000000000000000191674010000000000000000000000000000000000000000831515908102919091179091556040805130600160a060020a03168152602081019290925280517f1e26517183efe4efd75405d381f0fd1aa3fc89740db3c17a9c244127ca64c79c9281900390910190a150565b6002805460408051602060018416156101000260001901909316849004601f810184900484028201840190925281815292918301828280156103b75780601f1061038c576101008083540402835291602001916103b7565b820191906000526020600020905b81548152906001019060200180831161039a57829003601f168201915b505050505081565b60045481565b604051600160a060020a038416907f2130e02bc65616aa7f8f548960f51a08a1d0ea94efb33611412208c2d0306a2290600090a2505050565b60035474010000000000000000000000000000000000000000900460ff1681565b600054600160a060020a031681565b600354600160a060020a031681565b6104468161048a565b61044e6104a1565b50565b60065481565b600554600160a060020a031681565b7f5550444154455f4d455441444154415f524f4c4500000000000000000000000081565b805161049d906002906020840190610527565b5050565b600154604080517f3d188fab000000000000000000000000000000000000000000000000000000008152600160a060020a0330811660048301526000604483018190529251931692633d188fab9260648084019391929182900301818387803b15801561050d57600080fd5b505af1158015610521573d6000803e3d6000fd5b50505050565b828054600181600116156101000203166002900490600052602060002090601f016020900481019282601f1061056857805160ff1916838001178555610595565b82800160010185558215610595579182015b8281111561059557825182559160200191906001019061057a565b506105a19291506105a5565b5090565b6105bf91905b808211156105a157600081556001016105ab565b905600a165627a7a7230582073c229be2c1b3a88e52c863eed1b562c028694386d7e73a61d47c1b8e5d98baa00294348414e47455f53455454494e47535f524f4c45000000000000000000000000a165627a7a723058205a04f8603ec208731b77b95f064e314bac5e96a2f646a8f4572d5a5387aca7cc0029",
  "source": "pragma solidity ^0.4.20;\n\nimport \"@settlemint/solidity-mint/contracts/marketplaces/tokencuratedregistry/TokenCuratedRegistry.sol\";\nimport \"@settlemint/solidity-mint/contracts/marketplaces/tokensystem/Token.sol\";\n\n/**\n * Contains all sensors\n */\ncontract SensorRegistry is TokenCuratedRegistry {\n\n  /**\n  @dev Contructor\n  @notice                Sets the address for token\n  @param _gateKeeper     Address of the gatekeeper\n  @param _token          Address of the token\n  */\n  function SensorRegistry(\n    address _gateKeeper,\n    address _token,\n    address _listingFactory,\n    address _challengeRegistry,\n    uint _minEnlistAmount,\n    uint _minChallengeAmount,\n    uint _curatorPercentage\n  )\n    TokenCuratedRegistry(\n      _gateKeeper,\n      _token,\n      _listingFactory,\n      _challengeRegistry,\n      _minEnlistAmount,\n      _minChallengeAmount,\n      _curatorPercentage\n    )\n    public\n  {}\n}\n",
  "sourcePath": "/Users/silkevandenbroeck/databrokerDAO/databrokerdao-dapi/contracts/sensor/SensorRegistry.sol",
  "compiler": {
    "name": "solc",
    "version": "0.4.22+commit.4cb486ee.Emscripten.clang"
  },
  "schemaVersion": "2.0.0",
  "updatedAt": "2018-05-15T09:28:41.707Z"
}