{
  "contractName": "SensorRegistry",
  "abi": [
    {
      "constant": false,
      "inputs": [
        {
          "name": "_listing",
          "type": "bytes32"
        },
        {
          "name": "_stakeAmount",
          "type": "uint256"
        },
        {
          "name": "_target",
          "type": "string"
        }
      ],
      "name": "enlist",
      "outputs": [],
      "payable": false,
      "stateMutability": "nonpayable",
      "type": "function"
    },
    {
      "constant": true,
      "inputs": [
        {
          "name": "_listing",
          "type": "bytes32"
        }
      ],
      "name": "isWhitelisted",
      "outputs": [
        {
          "name": "whitelisted",
          "type": "bool"
        }
      ],
      "payable": false,
      "stateMutability": "view",
      "type": "function"
    },
    {
      "constant": false,
      "inputs": [
        {
          "name": "_listing",
          "type": "bytes32"
        }
      ],
      "name": "denyChallenge",
      "outputs": [],
      "payable": false,
      "stateMutability": "nonpayable",
      "type": "function"
    },
    {
      "constant": true,
      "inputs": [
        {
          "name": "_listing",
          "type": "bytes32"
        }
      ],
      "name": "challengeExists",
      "outputs": [
        {
          "name": "exists",
          "type": "bool"
        }
      ],
      "payable": false,
      "stateMutability": "view",
      "type": "function"
    },
    {
      "constant": true,
      "inputs": [],
      "name": "WITHDRAW_FUNDS_ROLE",
      "outputs": [
        {
          "name": "",
          "type": "bytes32"
        }
      ],
      "payable": false,
      "stateMutability": "view",
      "type": "function"
    },
    {
      "constant": true,
      "inputs": [],
      "name": "CURATE_CHALLENGE_ROLE",
      "outputs": [
        {
          "name": "",
          "type": "bytes32"
        }
      ],
      "payable": false,
      "stateMutability": "view",
      "type": "function"
    },
    {
      "constant": false,
      "inputs": [],
      "name": "withdraw",
      "outputs": [],
      "payable": false,
      "stateMutability": "nonpayable",
      "type": "function"
    },
    {
      "constant": true,
      "inputs": [],
      "name": "gateKeeper",
      "outputs": [
        {
          "name": "",
          "type": "address"
        }
      ],
      "payable": false,
      "stateMutability": "view",
      "type": "function"
    },
    {
      "constant": false,
      "inputs": [
        {
          "name": "_listing",
          "type": "bytes32"
        }
      ],
      "name": "approveChallenge",
      "outputs": [],
      "payable": false,
      "stateMutability": "nonpayable",
      "type": "function"
    },
    {
      "constant": false,
      "inputs": [
        {
          "name": "_listing",
          "type": "bytes32"
        },
        {
          "name": "_stakeAmount",
          "type": "uint256"
        }
      ],
      "name": "decrease",
      "outputs": [],
      "payable": false,
      "stateMutability": "nonpayable",
      "type": "function"
    },
    {
      "constant": true,
      "inputs": [
        {
          "name": "",
          "type": "uint256"
        }
      ],
      "name": "challenges",
      "outputs": [
        {
          "name": "challenger",
          "type": "address"
        },
        {
          "name": "resolved",
          "type": "bool"
        },
        {
          "name": "stake",
          "type": "uint256"
        },
        {
          "name": "listing",
          "type": "bytes32"
        }
      ],
      "payable": false,
      "stateMutability": "view",
      "type": "function"
    },
    {
      "constant": true,
      "inputs": [],
      "name": "CHALLENGE_ROLE",
      "outputs": [
        {
          "name": "",
          "type": "bytes32"
        }
      ],
      "payable": false,
      "stateMutability": "view",
      "type": "function"
    },
    {
      "constant": false,
      "inputs": [
        {
          "name": "_listing",
          "type": "bytes32"
        }
      ],
      "name": "unlist",
      "outputs": [],
      "payable": false,
      "stateMutability": "nonpayable",
      "type": "function"
    },
    {
      "constant": true,
      "inputs": [
        {
          "name": "",
          "type": "bytes32"
        }
      ],
      "name": "listings",
      "outputs": [
        {
          "name": "whitelisted",
          "type": "bool"
        },
        {
          "name": "owner",
          "type": "address"
        },
        {
          "name": "stake",
          "type": "uint256"
        },
        {
          "name": "target",
          "type": "string"
        },
        {
          "name": "challenges",
          "type": "uint256"
        },
        {
          "name": "totalStake",
          "type": "uint256"
        }
      ],
      "payable": false,
      "stateMutability": "view",
      "type": "function"
    },
    {
      "constant": false,
      "inputs": [
        {
          "name": "_listing",
          "type": "bytes32"
        },
        {
          "name": "_stakeAmount",
          "type": "uint256"
        }
      ],
      "name": "challenge",
      "outputs": [
        {
          "name": "challengeID",
          "type": "uint256"
        }
      ],
      "payable": false,
      "stateMutability": "nonpayable",
      "type": "function"
    },
    {
      "constant": true,
      "inputs": [],
      "name": "ENLIST_ROLE",
      "outputs": [
        {
          "name": "",
          "type": "bytes32"
        }
      ],
      "payable": false,
      "stateMutability": "view",
      "type": "function"
    },
    {
      "constant": false,
      "inputs": [
        {
          "name": "_listing",
          "type": "bytes32"
        },
        {
          "name": "_stakeAmount",
          "type": "uint256"
        }
      ],
      "name": "increase",
      "outputs": [],
      "payable": false,
      "stateMutability": "nonpayable",
      "type": "function"
    },
    {
      "constant": true,
      "inputs": [],
      "name": "token",
      "outputs": [
        {
          "name": "",
          "type": "address"
        }
      ],
      "payable": false,
      "stateMutability": "view",
      "type": "function"
    },
    {
      "constant": false,
      "inputs": [
        {
          "name": "_listing",
          "type": "bytes32"
        },
        {
          "name": "_startDate",
          "type": "uint256"
        },
        {
          "name": "_endDate",
          "type": "uint256"
        }
      ],
      "name": "buy",
      "outputs": [],
      "payable": false,
      "stateMutability": "nonpayable",
      "type": "function"
    },
    {
      "inputs": [
        {
          "name": "_gateKeeper",
          "type": "address"
        },
        {
          "name": "_token",
          "type": "address"
        }
      ],
      "payable": false,
      "stateMutability": "nonpayable",
      "type": "constructor"
    },
    {
      "anonymous": false,
      "inputs": [
        {
          "indexed": false,
          "name": "listing",
          "type": "bytes32"
        },
        {
          "indexed": false,
          "name": "deposit",
          "type": "uint256"
        },
        {
          "indexed": false,
          "name": "target",
          "type": "string"
        }
      ],
      "name": "Enlisted",
      "type": "event"
    },
    {
      "anonymous": false,
      "inputs": [
        {
          "indexed": false,
          "name": "listing",
          "type": "bytes32"
        },
        {
          "indexed": false,
          "name": "deposit",
          "type": "uint256"
        },
        {
          "indexed": false,
          "name": "challengeID",
          "type": "uint256"
        }
      ],
      "name": "Challenged",
      "type": "event"
    },
    {
      "anonymous": false,
      "inputs": [
        {
          "indexed": false,
          "name": "listing",
          "type": "bytes32"
        }
      ],
      "name": "Unlisted",
      "type": "event"
    },
    {
      "anonymous": false,
      "inputs": [
        {
          "indexed": false,
          "name": "listing",
          "type": "bytes32"
        }
      ],
      "name": "ChallengeApproved",
      "type": "event"
    },
    {
      "anonymous": false,
      "inputs": [
        {
          "indexed": false,
          "name": "listing",
          "type": "bytes32"
        }
      ],
      "name": "ChallengeDenied",
      "type": "event"
    },
    {
      "anonymous": false,
      "inputs": [
        {
          "indexed": false,
          "name": "listing",
          "type": "bytes32"
        },
        {
          "indexed": false,
          "name": "increasedBy",
          "type": "uint256"
        },
        {
          "indexed": false,
          "name": "newDeposit",
          "type": "uint256"
        }
      ],
      "name": "Increased",
      "type": "event"
    },
    {
      "anonymous": false,
      "inputs": [
        {
          "indexed": false,
          "name": "listing",
          "type": "bytes32"
        },
        {
          "indexed": false,
          "name": "decreasedBy",
          "type": "uint256"
        },
        {
          "indexed": false,
          "name": "newDeposit",
          "type": "uint256"
        }
      ],
      "name": "Decreased",
      "type": "event"
    },
    {
      "anonymous": false,
      "inputs": [
        {
          "indexed": false,
          "name": "by",
          "type": "address"
        },
        {
          "indexed": false,
          "name": "balance",
          "type": "uint256"
        }
      ],
      "name": "Withdrawn",
      "type": "event"
    }
  ],
  "bytecode": "0x60606040526000600455600060055560006006556000600755600a6008556005600955600a8055341561003157600080fd5b6040516040806115848339810160405280805191906020018051600854600954600a5460008054600160a060020a03988916600160a060020a031991821617909155600380549890951697169690961790925560055560065550506007556114e68061009e6000396000f3006060604052600436106100ec5763ffffffff60e060020a600035041662c53f8c81146100f157806301a5e3fe146101195780630f4c8f45146101435780631b7bbecb146101595780631cbcd9741461016f57806332a65198146101945780633ccfd60b146101a757806345d61ded146101ba5780634b0e2191146101e95780638cd6d2b4146101ff5780638f1d3776146102185780638f911dca14610264578063bc40a27714610277578063c18b8db41461028d578063e2083c181461035c578063ec425e6a14610375578063f4478dad14610388578063fc0c546a146103a1578063fc18d034146103b4575b600080fd5b34156100fc57600080fd5b610117600480359060248035916044359182019101356103d0565b005b341561012457600080fd5b61012f60043561061e565b604051901515815260200160405180910390f35b341561014e57600080fd5b610117600435610633565b341561016457600080fd5b61012f60043561077f565b341561017a57600080fd5b610182610795565b60405190815260200160405180910390f35b341561019f57600080fd5b6101826107b9565b34156101b257600080fd5b6101176107dd565b34156101c557600080fd5b6101cd6108a7565b604051600160a060020a03909116815260200160405180910390f35b34156101f457600080fd5b6101176004356108b6565b341561020a57600080fd5b610117600435602435610ae8565b341561022357600080fd5b61022e600435610c68565b604051600160a060020a039094168452911515602084015260408084019190915260608301919091526080909101905180910390f35b341561026f57600080fd5b610182610c9f565b341561028257600080fd5b610117600435610cc3565b341561029857600080fd5b6102a3600435610e78565b6040518615158152600160a060020a0386166020820152604081018590526080810183905260a0810182905260c0606082018181528554600260001961010060018416150201909116049183018290529060e0830190869080156103485780601f1061031d57610100808354040283529160200191610348565b820191906000526020600020905b81548152906001019060200180831161032b57829003601f168201915b505097505050505050505060405180910390f35b341561036757600080fd5b610182600435602435610eb5565b341561038057600080fd5b6101826110ed565b341561039357600080fd5b6101176004356024356110ff565b34156103ac57600080fd5b6101cd61124c565b34156103bf57600080fd5b61011760043560243560443561125b565b6103d8611307565b60008051602061149b8339815191526103f13382611260565b15156103fc57600080fd5b60055485101561040b57600080fd5b600354600160a060020a03166323b872dd33308860006040516020015260405160e060020a63ffffffff8616028152600160a060020a0393841660048201529190921660248201526044810191909152606401602060405180830381600087803b151561047757600080fd5b6102c65a03f1151561048857600080fd5b50505060405180519050151561049d57600080fd5b60e06040519081016040528060011515815260200133600160a060020a0316815260200186815260200185858080601f0160208091040260200160405190810160405281815292919060208401838380828437505050928452505060006020808401829052604080850188905260609094018a90528a8252600190529190912090508151815460ff191690151517815560208201518154600160a060020a03919091166101000274ffffffffffffffffffffffffffffffffffffffff001990911617815560408201518160010155606082015181600201908051610585929160200190611319565b506080820151816003015560a0820151816004019080516105aa929160200190611397565b5060c0820151600590910155507f232015555b9039d0149d68b762bec8bdf615e9485dfdde85f4d69e3a83835fd386868686604051848152602081018490526060604082018181529082018390526080820184848082843782019150509550505050505060405180910390a1505050505050565b60009081526001602052604090205460ff1690565b6000806000807f4355524154455f4348414c4c454e47455f524f4c4500000000000000000000006106643382611260565b151561066f57600080fd5b6000868152600160205260409020600581015460075491965094506064900484029250600160a060020a03331683156108fc0284604051600060405180830381858888f1935050505015156106c357600080fd5b600091505b600485015482101561073d5760016002600087600401858154811015156106eb57fe5b600091825260208083209091015483528201929092526040019020805491151560a060020a0274ff000000000000000000000000000000000000000019909216919091179055600191909101906106c8565b600060038601557fb5fcf011cd44be27fdd6c415f3a94c64376a615e7a8df51037183c266351319e8660405190815260200160405180910390a1505050505050565b6000908152600160205260408120600301541190565b7f57495448445241575f46554e44535f524f4c450000000000000000000000000081565b7f4355524154455f4348414c4c454e47455f524f4c45000000000000000000000081565b60007f57495448445241575f46554e44535f524f4c450000000000000000000000000061080a3382611260565b151561081557600080fd5b30600160a060020a031631915033600160a060020a03166108fc30600160a060020a0316319081150290604051600060405180830381858888f19350505050151561085f57600080fd5b7f7084f5476618d8e60b11ef0d7d3f06914655adb8793e28ff7f018d4c76d505d53383604051600160a060020a03909216825260208201526040908101905180910390a15050565b600054600160a060020a031681565b60008060008060006108c66113d1565b60007f4355524154455f4348414c4c454e47455f524f4c4500000000000000000000006108f33382611260565b15156108fe57600080fd5b6000898152600160208190526040909120600581015491810154600754919a5091985090880396506064900487029450600160a060020a03331685156108fc0286604051600060405180830381858888f19350505050151561095f57600080fd5b600093505b6004880154841015610a945760026000896004018681548110151561098557fe5b9060005260206000209001548152602001908152602001600020608060405190810160409081528254600160a060020a038116835260a060020a900460ff16151560208301526001830154908201526002909101546060820152925084870391508251600160a060020a03166108fc878560400151811515610a0357fe5b0484029081150290604051600060405180830381858888f193505050501515610a2b57600080fd5b6001600260008a60040187815481101515610a4257fe5b600091825260208083209091015483528201929092526040019020805491151560a060020a0274ff00000000000000000000000000000000000000001990921691909117905560019390930192610964565b6000600189018190556005890155875460ff191688557f45552e8036e6f0b8afe8aa1347567a847613a7095162e76bee4dfc8999c2fb528960405190815260200160405180910390a1505050505050505050565b600060008051602061149b833981519152610b033382611260565b1515610b0e57600080fd5b6000848152600160205260409020805490925033600160a060020a039081166101009092041614610b3e57600080fd5b6001820154831115610b4f57600080fd5b60055460018301548490031015610b6557600080fd5b6005548383600501540310151515610b7c57600080fd5b600354600160a060020a031663a9059cbb338560006040516020015260405160e060020a63ffffffff8516028152600160a060020a0390921660048301526024820152604401602060405180830381600087803b1515610bdb57600080fd5b6102c65a03f11515610bec57600080fd5b505050604051805190501515610c0157600080fd5b6001820180548490039081905560058301805485900390557fe8a15c36ddecf6f4f9f08bbc59f5c547485a107b6cf17d731dec04e5c637438c908590859060405192835260208301919091526040808301919091526060909101905180910390a150505050565b6002602081905260009182526040909120805460018201549190920154600160a060020a0383169260a060020a900460ff16919084565b7f4348414c4c454e47455f524f4c4500000000000000000000000000000000000081565b600060008051602061149b833981519152610cde3382611260565b1515610ce957600080fd5b6000838152600160205260409020805490925033600160a060020a039081166101009092041614610d1957600080fd5b610d228361061e565b1515610d2d57600080fd5b600382015415610d3c57600080fd5b600082600101541115610dde5760035482546001840154600160a060020a039283169263a9059cbb926101009004169060006040516020015260405160e060020a63ffffffff8516028152600160a060020a0390921660048301526024820152604401602060405180830381600087803b1515610db857600080fd5b6102c65a03f11515610dc957600080fd5b505050604051805190501515610dde57600080fd5b60008381526001602081905260408220805474ffffffffffffffffffffffffffffffffffffffffff1916815590810182905590610e1e60028301826113f8565b6003820160009055600482016000610e36919061143f565b600582016000905550507f2e6ec049d62c8a42e7cc223354aadb68d5046a2cba67ed55a089fdb852fb6cb68360405190815260200160405180910390a1505050565b60016020819052600091825260409091208054918101546003820154600583015460ff8516946101009004600160a060020a031693600201919086565b600080610ec06113d1565b7f4348414c4c454e47455f524f4c45000000000000000000000000000000000000610eeb3382611260565b1515610ef657600080fd5b600654851015610f0557600080fd5b600086815260016020526040808220600354909550600160a060020a0316916323b872dd91339130918a9190516020015260405160e060020a63ffffffff8616028152600160a060020a0393841660048201529190921660248201526044810191909152606401602060405180830381600087803b1515610f8557600080fd5b6102c65a03f11515610f9657600080fd5b505050604051805190501515610fab57600080fd5b6004805460010190819055935060806040519081016040908152600160a060020a033316825260006020808401829052828401899052606084018a9052878252600290522090925082908151815473ffffffffffffffffffffffffffffffffffffffff1916600160a060020a03919091161781556020820151815490151560a060020a0274ff00000000000000000000000000000000000000001990911617815560408201518160010155606082015160029091015550600383018054600190810190915560048401805490918101611084838261145d565b506000918252602090912001849055600583018054860190557f346179119607de02d189e442e1f22c5a25ced2e8f102ddd36762a34b3d66b05686868660405192835260208301919091526040808301919091526060909101905180910390a150505092915050565b60008051602061149b83398151915281565b600060008051602061149b83398151915261111a3382611260565b151561112557600080fd5b6000848152600160205260409020805490925033600160a060020a03908116610100909204161461115557600080fd5b600354600160a060020a03166323b872dd33308660006040516020015260405160e060020a63ffffffff8616028152600160a060020a0393841660048201529190921660248201526044810191909152606401602060405180830381600087803b15156111c157600080fd5b6102c65a03f115156111d257600080fd5b5050506040518051905015156111e757600080fd5b600182018054840190819055600583018054850190557f7f27350fe80670682f5dc629cc881b7169e0ede96a681e843d0267bbfbb7a98b908590859060405192835260208301919091526040808301919091526060909101905180910390a150505050565b600354600160a060020a031681565b505050565b60008054600160a060020a03161580611300575060008054600160a060020a031690636d6712d8908590309086906040516020015260405160e060020a63ffffffff8616028152600160a060020a0393841660048201529190921660248201526044810191909152606401602060405180830381600087803b15156112e457600080fd5b6102c65a03f115156112f557600080fd5b505050604051805190505b9392505050565b60206040519081016040526000815290565b828054600181600116156101000203166002900490600052602060002090601f016020900481019282601f1061135a57805160ff1916838001178555611387565b82800160010185558215611387579182015b8281111561138757825182559160200191906001019061136c565b5061139392915061147d565b5090565b828054828255906000526020600020908101928215611387579160200282018281111561138757825182559160200191906001019061136c565b60806040519081016040908152600080835260208301819052908201819052606082015290565b50805460018160011615610100020316600290046000825580601f1061141e575061143c565b601f01602090049060005260206000209081019061143c919061147d565b50565b508054600082559060005260206000209081019061143c919061147d565b81548183558181151161125b5760008381526020902061125b9181019083015b61149791905b808211156113935760008155600101611483565b905600454e4c4953545f524f4c45000000000000000000000000000000000000000000a165627a7a72305820473012d5fa4346c2026c94dfe150e857e004f4883c072c234db1d678e81c2f900029",
  "source": "pragma solidity ^0.4.11;\n\nimport \"@settlemint/solidity-mint/contracts/marketplaces/tokencuratedregistry/TokenCuratedRegistry.sol\";\nimport \"@settlemint/solidity-mint/contracts/marketplaces/tokensystem/Token.sol\";\n\n\ncontract SensorRegistry is TokenCuratedRegistry {\n\n  uint MIN_ENLIST_AMOUNT = 10;\n  uint MIN_CHALLENGE_AMOUNT = 5;\n  uint ADMIN_PERCENTAGE = 10;\n\n  /**\n  @dev Contructor\n  @notice                Sets the address for token\n  @param _gateKeeper     Address of the gatekeeper\n  @param _token          Address of the token\n  */\n  function SensorRegistry(\n    address _gateKeeper,\n    address _token\n  )\n    TokenCuratedRegistry(\n      _gateKeeper,\n      _token,\n      MIN_ENLIST_AMOUNT,\n      MIN_CHALLENGE_AMOUNT,\n      ADMIN_PERCENTAGE\n    )\n    public\n  {}\n\n  /**\n  @dev Contructor\n  @notice                Let's the sender buy access to the sensor\n  @param _listing        Id of the listing\n  @param _startDate      Timestamp of when the user can start receiving sensor readings\n  @param _endDate        Timestamp of when the will stop receiving sensor readings\n  */\n  function buy(bytes32 _listing, uint _startDate, uint _endDate) public {\n  }\n\n}\n",
  "sourcePath": "/Users/silkevandenbroeck/databrokerDAO/databrokerdao-dapi/contracts/SensorRegistry.sol",
  "compiler": {
    "name": "solc",
    "version": "0.4.18+commit.9cf6e910.Emscripten.clang"
  },
  "schemaVersion": "1.0.1",
  "updatedAt": "2018-02-13T09:31:38.384Z"
}