{
  "contractName": "SensorRegistryDispatcher",
  "abi": [
    {
      "constant": true,
      "inputs": [],
      "name": "UPGRADE_CONTRACT",
      "outputs": [
        {
          "name": "",
          "type": "bytes32"
        }
      ],
      "payable": false,
      "stateMutability": "view",
      "type": "function"
    },
    {
      "constant": true,
      "inputs": [],
      "name": "gateKeeper",
      "outputs": [
        {
          "name": "",
          "type": "address"
        }
      ],
      "payable": false,
      "stateMutability": "view",
      "type": "function"
    },
    {
      "constant": true,
      "inputs": [
        {
          "name": "",
          "type": "address"
        }
      ],
      "name": "listings",
      "outputs": [
        {
          "name": "",
          "type": "address"
        }
      ],
      "payable": false,
      "stateMutability": "view",
      "type": "function"
    },
    {
      "constant": true,
      "inputs": [],
      "name": "target",
      "outputs": [
        {
          "name": "",
          "type": "address"
        }
      ],
      "payable": false,
      "stateMutability": "view",
      "type": "function"
    },
    {
      "constant": true,
      "inputs": [],
      "name": "token",
      "outputs": [
        {
          "name": "",
          "type": "address"
        }
      ],
      "payable": false,
      "stateMutability": "view",
      "type": "function"
    },
    {
      "constant": true,
      "inputs": [],
      "name": "listingFactory",
      "outputs": [
        {
          "name": "",
          "type": "address"
        }
      ],
      "payable": false,
      "stateMutability": "view",
      "type": "function"
    },
    {
      "inputs": [
        {
          "name": "_gateKeeper",
          "type": "address"
        },
        {
          "name": "_token",
          "type": "address"
        },
        {
          "name": "_listingFactory",
          "type": "address"
        },
        {
          "name": "_challengeRegistry",
          "type": "address"
        },
        {
          "name": "_minEnlistAmount",
          "type": "uint256"
        },
        {
          "name": "_minChallengeAmount",
          "type": "uint256"
        },
        {
          "name": "_curatorPercentage",
          "type": "uint256"
        }
      ],
      "payable": false,
      "stateMutability": "nonpayable",
      "type": "constructor"
    },
    {
      "payable": false,
      "stateMutability": "nonpayable",
      "type": "fallback"
    },
    {
      "constant": false,
      "inputs": [
        {
          "name": "_target",
          "type": "address"
        }
      ],
      "name": "setTarget",
      "outputs": [],
      "payable": false,
      "stateMutability": "nonpayable",
      "type": "function"
    }
  ],
  "bytecode": "0x608060405234801561001057600080fd5b5060405160e0806104c483398101604090815281516020830151918301516060840151608085015160a086015160c09096015160008054600160a060020a0319908116600160a060020a0397881617825560028054309083161790556008805482169888169890981790975560098054881695871695909517909455600a805490961694909216939093179093556003919091556004929092556005556104079081906100bd90396000f3006080604052600436106100825763ffffffff7c010000000000000000000000000000000000000000000000000000000060003504166317f8213981146100bd57806345d61ded146100e457806365d96c8214610115578063776d1a0114610136578063d4b8399214610159578063fc0c546a1461016e578063fe8cde3414610183575b34801561008e57600080fd5b506001546000803591600160a060020a03169036908037600080366000846127105a03f43d806000803e806000f35b3480156100c957600080fd5b506100d2610198565b60408051918252519081900360200190f35b3480156100f057600080fd5b506100f96101bc565b60408051600160a060020a039092168252519081900360200190f35b34801561012157600080fd5b506100f9600160a060020a03600435166101cb565b34801561014257600080fd5b50610157600160a060020a03600435166101e6565b005b34801561016557600080fd5b506100f96101fa565b34801561017a57600080fd5b506100f9610209565b34801561018f57600080fd5b506100f9610218565b7f555047524144455f434f4e54524143540000000000000000000000000000000081565b600054600160a060020a031681565b600660205260009081526040902054600160a060020a031681565b6101ef81610227565b6101f7610230565b50565b600154600160a060020a031681565b600854600160a060020a031681565b600954600160a060020a031681565b6101f7816102b5565b600254604080517f3d188fab0000000000000000000000000000000000000000000000000000000081523060048201526000604482018190529151600160a060020a0390931692633d188fab9260648084019391929182900301818387803b15801561029b57600080fd5b505af11580156102af573d6000803e3d6000fd5b50505050565b7f555047524144455f434f4e5452414354000000000000000000000000000000006102e0338261031b565b15156102eb57600080fd5b506001805473ffffffffffffffffffffffffffffffffffffffff1916600160a060020a0392909216919091179055565b60008054600160a060020a031615806103d4575060008054604080517f6d6712d8000000000000000000000000000000000000000000000000000000008152600160a060020a0387811660048301523060248301526044820187905291519190921692636d6712d892606480820193602093909283900390910190829087803b1580156103a757600080fd5b505af11580156103bb573d6000803e3d6000fd5b505050506040513d60208110156103d157600080fd5b50515b93925050505600a165627a7a723058205e7db9a117ff043cbf6c44c6868e932e67cf41bdb5ed277ea8a89998e4f9cf8e0029",
  "source": "pragma solidity ^0.4.20;\n\nimport \"@settlemint/solidity-mint/contracts/utility/upgrading/Dispatcher.sol\";\nimport \"@settlemint/solidity-mint/contracts/marketplaces/tokensystem/interfaces/IToken.sol\";\nimport \"@settlemint/solidity-mint/contracts/marketplaces/tokencuratedregistry/interfaces/IListing.sol\";\nimport \"@settlemint/solidity-mint/contracts/marketplaces/tokencuratedregistry/interfaces/IListingFactory.sol\";\nimport \"@settlemint/solidity-mint/contracts/marketplaces/tokencuratedregistry/ChallengeRegistry.sol\";\nimport \"@settlemint/solidity-mint/contracts/utility/caching/CachedByAddress.sol\";\n\n\n/**\n * Dispatches calls to the sensor registry\n */\ncontract SensorRegistryDispatcher is Dispatcher, CachedByAddress {\n\n  // Same state as contract it will refer to\n  uint minEnlistAmount;\n  uint minChallengeAmount;\n  uint curatorPercentage;\n  mapping(address => IListing) public listings;\n  address[] listingsIndex;\n  IToken public token;\n  IListingFactory public listingFactory;\n  ChallengeRegistry challengeRegistry;\n\n  function SensorRegistryDispatcher(\n    address _gateKeeper,\n    address _token,\n    address _listingFactory,\n    address _challengeRegistry,\n    uint _minEnlistAmount,\n    uint _minChallengeAmount,\n    uint _curatorPercentage\n  )\n    Secured(_gateKeeper)\n    CachedByAddress(this)\n    public\n  {\n    // State also needs to initialized!\n    token = IToken(_token);\n    listingFactory = IListingFactory(_listingFactory);\n    challengeRegistry = ChallengeRegistry(_challengeRegistry);\n\n    minEnlistAmount = _minEnlistAmount;\n    minChallengeAmount = _minChallengeAmount;\n    curatorPercentage = _curatorPercentage;\n  }\n\n  function setTarget(address _target) public {\n    super.setTarget(_target);\n    super.invalidateCache();\n  }\n}\n",
  "sourcePath": "/Users/silkevandenbroeck/databrokerDAO/databrokerdao-dapi/contracts/sensor/SensorRegistryDispatcher.sol",
  "compiler": {
    "name": "solc",
    "version": "0.4.24+commit.e67f0147.Emscripten.clang"
  },
  "schemaVersion": "2.0.0",
  "updatedAt": "2018-05-23T09:01:55.831Z"
}