{
  "contractName": "SensorRegistry",
  "abi": [
    {
      "constant": true,
      "inputs": [
        {
          "name": "_listing",
          "type": "bytes32"
        }
      ],
      "name": "isWhitelisted",
      "outputs": [
        {
          "name": "whitelisted",
          "type": "bool"
        }
      ],
      "payable": false,
      "stateMutability": "view",
      "type": "function"
    },
    {
      "constant": false,
      "inputs": [
        {
          "name": "_listing",
          "type": "bytes32"
        }
      ],
      "name": "denyChallenge",
      "outputs": [],
      "payable": false,
      "stateMutability": "nonpayable",
      "type": "function"
    },
    {
      "constant": true,
      "inputs": [
        {
          "name": "_listing",
          "type": "bytes32"
        }
      ],
      "name": "challengeExists",
      "outputs": [
        {
          "name": "exists",
          "type": "bool"
        }
      ],
      "payable": false,
      "stateMutability": "view",
      "type": "function"
    },
    {
      "constant": true,
      "inputs": [],
      "name": "WITHDRAW_FUNDS_ROLE",
      "outputs": [
        {
          "name": "",
          "type": "bytes32"
        }
      ],
      "payable": false,
      "stateMutability": "view",
      "type": "function"
    },
    {
      "constant": false,
      "inputs": [
        {
          "name": "_adminPercentage",
          "type": "uint256"
        }
      ],
      "name": "setAdminPercentage",
      "outputs": [],
      "payable": false,
      "stateMutability": "nonpayable",
      "type": "function"
    },
    {
      "constant": true,
      "inputs": [
        {
          "name": "index",
          "type": "uint256"
        }
      ],
      "name": "getByIndex",
      "outputs": [
        {
          "name": "key",
          "type": "bytes32"
        },
        {
          "name": "contractAddress",
          "type": "address"
        }
      ],
      "payable": false,
      "stateMutability": "view",
      "type": "function"
    },
    {
      "constant": true,
      "inputs": [],
      "name": "CURATE_CHALLENGE_ROLE",
      "outputs": [
        {
          "name": "",
          "type": "bytes32"
        }
      ],
      "payable": false,
      "stateMutability": "view",
      "type": "function"
    },
    {
      "constant": true,
      "inputs": [],
      "name": "metadata",
      "outputs": [
        {
          "name": "",
          "type": "string"
        }
      ],
      "payable": false,
      "stateMutability": "view",
      "type": "function"
    },
    {
      "constant": false,
      "inputs": [],
      "name": "withdraw",
      "outputs": [],
      "payable": false,
      "stateMutability": "nonpayable",
      "type": "function"
    },
    {
      "constant": false,
      "inputs": [
        {
          "name": "",
          "type": "address"
        },
        {
          "name": "_cachedBytes32",
          "type": "bytes32"
        },
        {
          "name": "",
          "type": "uint256"
        }
      ],
      "name": "invalidateCache",
      "outputs": [],
      "payable": false,
      "stateMutability": "nonpayable",
      "type": "function"
    },
    {
      "constant": true,
      "inputs": [],
      "name": "gateKeeper",
      "outputs": [
        {
          "name": "",
          "type": "address"
        }
      ],
      "payable": false,
      "stateMutability": "view",
      "type": "function"
    },
    {
      "constant": true,
      "inputs": [
        {
          "name": "_key",
          "type": "bytes32"
        }
      ],
      "name": "getByKey",
      "outputs": [
        {
          "name": "key",
          "type": "bytes32"
        },
        {
          "name": "",
          "type": "address"
        }
      ],
      "payable": false,
      "stateMutability": "view",
      "type": "function"
    },
    {
      "constant": false,
      "inputs": [
        {
          "name": "_listing",
          "type": "bytes32"
        }
      ],
      "name": "approveChallenge",
      "outputs": [],
      "payable": false,
      "stateMutability": "nonpayable",
      "type": "function"
    },
    {
      "constant": false,
      "inputs": [
        {
          "name": "ipfsHash",
          "type": "string"
        }
      ],
      "name": "updateMetaData",
      "outputs": [],
      "payable": false,
      "stateMutability": "nonpayable",
      "type": "function"
    },
    {
      "constant": false,
      "inputs": [
        {
          "name": "_listing",
          "type": "bytes32"
        },
        {
          "name": "_stakeAmount",
          "type": "uint256"
        },
        {
          "name": "_price",
          "type": "uint256"
        }
      ],
      "name": "enlist",
      "outputs": [],
      "payable": false,
      "stateMutability": "nonpayable",
      "type": "function"
    },
    {
      "constant": false,
      "inputs": [
        {
          "name": "_salePercentage",
          "type": "uint256"
        }
      ],
      "name": "setSalePercentage",
      "outputs": [],
      "payable": false,
      "stateMutability": "nonpayable",
      "type": "function"
    },
    {
      "constant": false,
      "inputs": [
        {
          "name": "_minEnlistAmount",
          "type": "uint256"
        }
      ],
      "name": "setMinEnlistAmount",
      "outputs": [],
      "payable": false,
      "stateMutability": "nonpayable",
      "type": "function"
    },
    {
      "constant": false,
      "inputs": [
        {
          "name": "_listing",
          "type": "bytes32"
        },
        {
          "name": "_stakeAmount",
          "type": "uint256"
        }
      ],
      "name": "decrease",
      "outputs": [],
      "payable": false,
      "stateMutability": "nonpayable",
      "type": "function"
    },
    {
      "constant": true,
      "inputs": [
        {
          "name": "",
          "type": "uint256"
        }
      ],
      "name": "challenges",
      "outputs": [
        {
          "name": "challenger",
          "type": "address"
        },
        {
          "name": "resolved",
          "type": "bool"
        },
        {
          "name": "stake",
          "type": "uint256"
        },
        {
          "name": "listing",
          "type": "bytes32"
        }
      ],
      "payable": false,
      "stateMutability": "view",
      "type": "function"
    },
    {
      "constant": false,
      "inputs": [
        {
          "name": "_listing",
          "type": "bytes32"
        }
      ],
      "name": "unlist",
      "outputs": [],
      "payable": false,
      "stateMutability": "nonpayable",
      "type": "function"
    },
    {
      "constant": false,
      "inputs": [
        {
          "name": "_listing",
          "type": "bytes32"
        },
        {
          "name": "_price",
          "type": "uint256"
        }
      ],
      "name": "setListingPrice",
      "outputs": [],
      "payable": false,
      "stateMutability": "nonpayable",
      "type": "function"
    },
    {
      "constant": true,
      "inputs": [
        {
          "name": "",
          "type": "bytes32"
        }
      ],
      "name": "listings",
      "outputs": [
        {
          "name": "price",
          "type": "uint256"
        },
        {
          "name": "whitelisted",
          "type": "bool"
        },
        {
          "name": "owner",
          "type": "address"
        },
        {
          "name": "stake",
          "type": "uint256"
        },
        {
          "name": "challenges",
          "type": "uint256"
        },
        {
          "name": "totalStake",
          "type": "uint256"
        }
      ],
      "payable": false,
      "stateMutability": "view",
      "type": "function"
    },
    {
      "constant": false,
      "inputs": [
        {
          "name": "_minChallengeAmount",
          "type": "uint256"
        }
      ],
      "name": "setMinChallengeAmount",
      "outputs": [],
      "payable": false,
      "stateMutability": "nonpayable",
      "type": "function"
    },
    {
      "constant": true,
      "inputs": [],
      "name": "getIndexLength",
      "outputs": [
        {
          "name": "length",
          "type": "uint256"
        }
      ],
      "payable": false,
      "stateMutability": "view",
      "type": "function"
    },
    {
      "constant": false,
      "inputs": [
        {
          "name": "_listing",
          "type": "bytes32"
        },
        {
          "name": "_stakeAmount",
          "type": "uint256"
        }
      ],
      "name": "challenge",
      "outputs": [
        {
          "name": "challengeID",
          "type": "uint256"
        }
      ],
      "payable": false,
      "stateMutability": "nonpayable",
      "type": "function"
    },
    {
      "constant": false,
      "inputs": [
        {
          "name": "_listing",
          "type": "bytes32"
        },
        {
          "name": "_stakeAmount",
          "type": "uint256"
        }
      ],
      "name": "increase",
      "outputs": [],
      "payable": false,
      "stateMutability": "nonpayable",
      "type": "function"
    },
    {
      "constant": true,
      "inputs": [],
      "name": "token",
      "outputs": [
        {
          "name": "",
          "type": "address"
        }
      ],
      "payable": false,
      "stateMutability": "view",
      "type": "function"
    },
    {
      "constant": true,
      "inputs": [],
      "name": "UPDATE_METADATA_ROLE",
      "outputs": [
        {
          "name": "",
          "type": "bytes32"
        }
      ],
      "payable": false,
      "stateMutability": "view",
      "type": "function"
    },
    {
      "inputs": [
        {
          "name": "_gateKeeper",
          "type": "address"
        },
        {
          "name": "_token",
          "type": "address"
        }
      ],
      "payable": false,
      "stateMutability": "nonpayable",
      "type": "constructor"
    },
    {
      "anonymous": false,
      "inputs": [
        {
          "indexed": false,
          "name": "listing",
          "type": "bytes32"
        },
        {
          "indexed": false,
          "name": "deposit",
          "type": "uint256"
        },
        {
          "indexed": false,
          "name": "price",
          "type": "uint256"
        }
      ],
      "name": "Enlisted",
      "type": "event"
    },
    {
      "anonymous": false,
      "inputs": [
        {
          "indexed": false,
          "name": "listing",
          "type": "bytes32"
        },
        {
          "indexed": false,
          "name": "deposit",
          "type": "uint256"
        },
        {
          "indexed": false,
          "name": "challengeID",
          "type": "uint256"
        }
      ],
      "name": "Challenged",
      "type": "event"
    },
    {
      "anonymous": false,
      "inputs": [
        {
          "indexed": false,
          "name": "listing",
          "type": "bytes32"
        }
      ],
      "name": "Unlisted",
      "type": "event"
    },
    {
      "anonymous": false,
      "inputs": [
        {
          "indexed": false,
          "name": "listing",
          "type": "bytes32"
        }
      ],
      "name": "ChallengeApproved",
      "type": "event"
    },
    {
      "anonymous": false,
      "inputs": [
        {
          "indexed": false,
          "name": "listing",
          "type": "bytes32"
        }
      ],
      "name": "ChallengeDenied",
      "type": "event"
    },
    {
      "anonymous": false,
      "inputs": [
        {
          "indexed": false,
          "name": "listing",
          "type": "bytes32"
        },
        {
          "indexed": false,
          "name": "increasedBy",
          "type": "uint256"
        },
        {
          "indexed": false,
          "name": "newDeposit",
          "type": "uint256"
        }
      ],
      "name": "Increased",
      "type": "event"
    },
    {
      "anonymous": false,
      "inputs": [
        {
          "indexed": false,
          "name": "listing",
          "type": "bytes32"
        },
        {
          "indexed": false,
          "name": "decreasedBy",
          "type": "uint256"
        },
        {
          "indexed": false,
          "name": "newDeposit",
          "type": "uint256"
        }
      ],
      "name": "Decreased",
      "type": "event"
    },
    {
      "anonymous": false,
      "inputs": [
        {
          "indexed": false,
          "name": "by",
          "type": "address"
        },
        {
          "indexed": false,
          "name": "balance",
          "type": "uint256"
        }
      ],
      "name": "Withdrawn",
      "type": "event"
    },
    {
      "anonymous": false,
      "inputs": [
        {
          "indexed": true,
          "name": "key",
          "type": "address"
        }
      ],
      "name": "AddressCacheInvalidated",
      "type": "event"
    },
    {
      "anonymous": false,
      "inputs": [
        {
          "indexed": true,
          "name": "key",
          "type": "bytes32"
        }
      ],
      "name": "Bytes32CacheInvalidated",
      "type": "event"
    },
    {
      "anonymous": false,
      "inputs": [
        {
          "indexed": true,
          "name": "key",
          "type": "uint256"
        }
      ],
      "name": "Uint256CacheInvalidated",
      "type": "event"
    }
  ],
  "bytecode": "0x6060604052600060085560006009556000600a556000600b55600a600c556005600d55600a600e556005600f55341561003757600080fd5b6040516040806117af8339810160405280805191906020018051600c54600d54600e5460008054600160a060020a03988916600160a060020a03199182161790915560018054308a169083161790557f53656e736f7252656769737472790000000000000000000000000000000000006002556007805498909516971696909617909255600955600a555050600b556116da806100d56000396000f3006060604052600436106101505763ffffffff60e060020a60003504166301a5e3fe81146101555780630f4c8f451461017f5780631b7bbecb146101975780631cbcd974146101ad578063245694ad146101d25780632d883a73146101e857806332a651981461021f578063392f37e9146102325780633ccfd60b146102bc5780633d188fab146102cf57806345d61ded146102f45780634a91da90146103235780634b0e2191146103395780635cc075051461034f5780636f920969146103a057806372cc9850146103bc57806383b7113e146103d25780638cd6d2b4146103e85780638f1d377614610401578063bc40a2771461044d578063bd342e3614610463578063c18b8db41461047c578063de29ee68146104e1578063e1ba7d01146104f7578063e2083c181461050a578063f4478dad14610523578063fc0c546a1461053c578063fff139cf1461054f575b600080fd5b341561016057600080fd5b61016b600435610562565b604051901515815260200160405180910390f35b341561018a57600080fd5b61019560043561057a565b005b34156101a257600080fd5b61016b6004356106c6565b34156101b857600080fd5b6101c06106dc565b60405190815260200160405180910390f35b34156101dd57600080fd5b610195600435610700565b34156101f357600080fd5b6101fe600435610705565b604051918252600160a060020a031660208201526040908101905180910390f35b341561022a57600080fd5b6101c0610734565b341561023d57600080fd5b610245610758565b60405160208082528190810183818151815260200191508051906020019080838360005b83811015610281578082015183820152602001610269565b50505050905090810190601f1680156102ae5780820380516001836020036101000a031916815260200191505b509250505060405180910390f35b34156102c757600080fd5b6101956107f6565b34156102da57600080fd5b610195600160a060020a03600435166024356044356108c0565b34156102ff57600080fd5b6103076108fa565b604051600160a060020a03909116815260200160405180910390f35b341561032e57600080fd5b6101fe600435610909565b341561034457600080fd5b61019560043561090f565b341561035a57600080fd5b61019560046024813581810190830135806020601f82018190048102016040519081016040528181529291906020840183838082843750949650610b4295505050505050565b34156103ab57600080fd5b610195600435602435604435610b56565b34156103c757600080fd5b610195600435610d20565b34156103dd57600080fd5b610195600435610d25565b34156103f357600080fd5b610195600435602435610d2a565b341561040c57600080fd5b610417600435610e82565b604051600160a060020a039094168452911515602084015260408084019190915260608301919091526080909101905180910390f35b341561045857600080fd5b610195600435610eb8565b341561046e57600080fd5b610195600435602435611040565b341561048757600080fd5b610492600435611052565b604051808781526020018615151515815260200185600160a060020a0316600160a060020a03168152602001848152602001838152602001828152602001965050505050505060405180910390f35b34156104ec57600080fd5b610195600435611091565b341561050257600080fd5b6101c0611096565b341561051557600080fd5b6101c060043560243561109c565b341561052e57600080fd5b61019560043560243561129d565b341561054757600080fd5b6103076113c3565b341561055a57600080fd5b6101c06113d2565b60009081526004602052604090206001015460ff1690565b6000806000807f4355524154455f4348414c4c454e47455f524f4c4500000000000000000000006105ab33826113f6565b15156105b657600080fd5b60008681526004602052604090206005810154600b5491965094506064900484029250600160a060020a03331683156108fc0284604051600060405180830381858888f19350505050151561060a57600080fd5b600091505b600485015482101561068457600160066000876004018581548110151561063257fe5b600091825260208083209091015483528201929092526040019020805491151560a060020a0274ff0000000000000000000000000000000000000000199092169190911790556001919091019061060f565b600060038601557fb5fcf011cd44be27fdd6c415f3a94c64376a615e7a8df51037183c266351319e8660405190815260200160405180910390a1505050505050565b6000908152600460205260408120600301541190565b7f57495448445241575f46554e44535f524f4c450000000000000000000000000081565b600b55565b60008061072b60058481548110151561071a57fe5b906000526020600020900154610909565b91509150915091565b7f4355524154455f4348414c4c454e47455f524f4c45000000000000000000000081565b60038054600181600116156101000203166002900480601f0160208091040260200160405190810160405280929190818152602001828054600181600116156101000203166002900480156107ee5780601f106107c3576101008083540402835291602001916107ee565b820191906000526020600020905b8154815290600101906020018083116107d157829003601f168201915b505050505081565b60007f57495448445241575f46554e44535f524f4c450000000000000000000000000061082333826113f6565b151561082e57600080fd5b30600160a060020a031631915033600160a060020a03166108fc30600160a060020a0316319081150290604051600060405180830381858888f19350505050151561087857600080fd5b7f7084f5476618d8e60b11ef0d7d3f06914655adb8793e28ff7f018d4c76d505d53383604051600160a060020a03909216825260208201526040908101905180910390a15050565b817fd5c977477c90fd6c009dd3275798b51da8bd2df8e0a25be47773f87b53d2e39960405160405180910390a26108f561149d565b505050565b600054600160a060020a031681565b90600090565b600080600080600061091f61155e565b60007f4355524154455f4348414c4c454e47455f524f4c45000000000000000000000061094c33826113f6565b151561095757600080fd5b600089815260046020526040902060058101546002820154600b54929a50909850880396506064900487029450600160a060020a03331685156108fc0286604051600060405180830381858888f1935050505015156109b557600080fd5b600093505b6004880154841015610aea576006600089600401868154811015156109db57fe5b9060005260206000209001548152602001908152602001600020608060405190810160409081528254600160a060020a038116835260a060020a900460ff16151560208301526001830154908201526002909101546060820152925084870391508251600160a060020a03166108fc878560400151811515610a5957fe5b0484029081150290604051600060405180830381858888f193505050501515610a8157600080fd5b6001600660008a60040187815481101515610a9857fe5b600091825260208083209091015483528201929092526040019020805491151560a060020a0274ff000000000000000000000000000000000000000019909216919091179055600193909301926109ba565b600060028901819055600589015560018801805460ff191690557f45552e8036e6f0b8afe8aa1347567a847613a7095162e76bee4dfc8999c2fb528960405190815260200160405180910390a1505050505050505050565b610b4b81611515565b610b5361149d565b50565b610b5e611585565b600954831015610b6d57600080fd5b600754600160a060020a03166323b872dd33308660006040516020015260405160e060020a63ffffffff8616028152600160a060020a0393841660048201529190921660248201526044810191909152606401602060405180830381600087803b1515610bd957600080fd5b6102c65a03f11515610bea57600080fd5b505050604051805190501515610bff57600080fd5b60e060405190810160409081528382526001602080840191909152600160a060020a033316828401526060830186905260006080840181905260a0840185905260c0840187905287815260049091522081518155602082015160018201805460ff191691151591909117905560408201518160010160016101000a815481600160a060020a030219169083600160a060020a03160217905550606082015181600201556080820151816003015560a082015181600401908051610cc6929160200190611597565b5060c0820151600590910155507f42250bbd53b824581c623c2cf50a7bc00ad03a9c3337837448819978b467328a84848460405192835260208301919091526040808301919091526060909101905180910390a150505050565b600f55565b600955565b6000828152600460205260409020600181015433600160a060020a039081166101009092041614610d5a57600080fd5b6002810154821115610d6b57600080fd5b60095460028201548390031015610d8157600080fd5b60095460058201548390031015610d9757600080fd5b600754600160a060020a031663a9059cbb338460006040516020015260405160e060020a63ffffffff8516028152600160a060020a0390921660048301526024820152604401602060405180830381600087803b1515610df657600080fd5b6102c65a03f11515610e0757600080fd5b505050604051805190501515610e1c57600080fd5b6002810180548390039081905560058201805484900390557fe8a15c36ddecf6f4f9f08bbc59f5c547485a107b6cf17d731dec04e5c637438c908490849060405192835260208301919091526040808301919091526060909101905180910390a1505050565b600660205260009081526040902080546001820154600290920154600160a060020a0382169260a060020a90920460ff16919084565b6000818152600460205260409020600181015433600160a060020a039081166101009092041614610ee857600080fd5b610ef182610562565b1515610efc57600080fd5b600381015415610f0b57600080fd5b600081600201541115610fb05760075460018201546002830154600160a060020a039283169263a9059cbb926101009004169060006040516020015260405160e060020a63ffffffff8516028152600160a060020a0390921660048301526024820152604401602060405180830381600087803b1515610f8a57600080fd5b6102c65a03f11515610f9b57600080fd5b505050604051805190501515610fb057600080fd5b6000828152600460208190526040822082815560018101805474ffffffffffffffffffffffffffffffffffffffffff1916905560028101839055600381018390559190610fff908301826115e2565b600582016000905550507f2e6ec049d62c8a42e7cc223354aadb68d5046a2cba67ed55a089fdb852fb6cb68260405190815260200160405180910390a15050565b60009182526004602052604090912055565b60046020526000908152604090208054600182015460028301546003840154600590940154929360ff831693610100909304600160a060020a03169286565b600a55565b60055490565b6000806110a761155e565b600a548410156110b657600080fd5b600085815260046020526040808220600754909450600160a060020a0316916323b872dd9133913091899190516020015260405160e060020a63ffffffff8616028152600160a060020a0393841660048201529190921660248201526044810191909152606401602060405180830381600087803b151561113657600080fd5b6102c65a03f1151561114757600080fd5b50505060405180519050151561115c57600080fd5b6008805460010190819055925060806040519081016040908152600160a060020a03331682526000602080840182905282840188905260608401899052868252600690522090915081908151815473ffffffffffffffffffffffffffffffffffffffff1916600160a060020a03919091161781556020820151815490151560a060020a0274ff000000000000000000000000000000000000000019909116178155604082015181600101556060820151600290910155506003820180546001908101909155600483018054909181016112358382611600565b506000918252602090912001839055600582018054850190557f346179119607de02d189e442e1f22c5a25ced2e8f102ddd36762a34b3d66b05685858560405192835260208301919091526040808301919091526060909101905180910390a1505092915050565b6000828152600460205260409020600181015433600160a060020a0390811661010090920416146112cd57600080fd5b600754600160a060020a03166323b872dd33308560006040516020015260405160e060020a63ffffffff8616028152600160a060020a0393841660048201529190921660248201526044810191909152606401602060405180830381600087803b151561133957600080fd5b6102c65a03f1151561134a57600080fd5b50505060405180519050151561135f57600080fd5b600281018054830190819055600582018054840190557f7f27350fe80670682f5dc629cc881b7169e0ede96a681e843d0267bbfbb7a98b908490849060405192835260208301919091526040808301919091526060909101905180910390a1505050565b600754600160a060020a031681565b7f5550444154455f4d455441444154415f524f4c4500000000000000000000000081565b60008054600160a060020a03161580611496575060008054600160a060020a031690636d6712d8908590309086906040516020015260405160e060020a63ffffffff8616028152600160a060020a0393841660048201529190921660248201526044810191909152606401602060405180830381600087803b151561147a57600080fd5b6102c65a03f1151561148b57600080fd5b505050604051805190505b9392505050565b600154600254600160a060020a0390911690633d188fab906000908160405160e060020a63ffffffff8616028152600160a060020a03909316600484015260248301919091526044820152606401600060405180830381600087803b151561150457600080fd5b6102c65a03f115156108f557600080fd5b7f5550444154455f4d455441444154415f524f4c4500000000000000000000000061154033826113f6565b151561154b57600080fd5b60038280516108f5929160200190611624565b60806040519081016040908152600080835260208301819052908201819052606082015290565b60206040519081016040526000815290565b8280548282559060005260206000209081019282156115d2579160200282015b828111156115d25782518255916020019190600101906115b7565b506115de929150611691565b5090565b5080546000825590600052602060002090810190610b539190611691565b8154818355818115116108f5576000838152602090206108f5918101908301611691565b828054600181600116156101000203166002900490600052602060002090601f016020900481019282601f1061166557805160ff19168380011785556115d2565b828001600101855582156115d257918201828111156115d25782518255916020019190600101906115b7565b6116ab91905b808211156115de5760008155600101611697565b905600a165627a7a72305820061d161fac042342f8195e270f6aa7a1e04e1f024656cec7c4d06c058477d5050029",
  "source": "pragma solidity ^0.4.11;\n\nimport \"@settlemint/solidity-mint/contracts/marketplaces/tokencuratedregistry/TokenCuratedRegistry.sol\";\nimport \"@settlemint/solidity-mint/contracts/marketplaces/tokensystem/Token.sol\";\n\n\ncontract SensorRegistry is TokenCuratedRegistry {\n\n  // Initial values, these can be changed with setters\n  uint MIN_ENLIST_AMOUNT = 10;\n  uint MIN_CHALLENGE_AMOUNT = 5;\n  uint ADMIN_PERCENTAGE = 10;\n\n  uint salePercentage = 5;\n\n  /**\n  @dev Contructor\n  @notice                Sets the address for token\n  @param _gateKeeper     Address of the gatekeeper\n  @param _token          Address of the token\n  */\n  function SensorRegistry(\n    address _gateKeeper,\n    address _token\n  )\n    TokenCuratedRegistry(\n      \"SensorRegistry\",\n      _gateKeeper,\n      _token,\n      MIN_ENLIST_AMOUNT,\n      MIN_CHALLENGE_AMOUNT,\n      ADMIN_PERCENTAGE\n    )\n    public\n  {}\n\n  /**\n  @notice                Lets the sender buy access to the sensor\n  @param _listing        Id of the listing\n  @param _startDate      Timestamp of when the user can start receiving sensor readings\n  @param _endDate        Timestamp of when the will stop receiving sensor readings\n  */\n  // function buy(bytes32 _listing, uint _startDate, uint _endDate) public {\n  //   Listing storage listing = listings[_listing];\n\n  //   require(msg.sender.balance >= listing.price)\n  // }\n\n  /**\n  @notice                Sets the sale percentage\n  @param _salePercentage salePercentage\n  */\n  function setSalePercentage(uint _salePercentage) public {\n    salePercentage = _salePercentage;\n  }\n\n}\n",
  "sourcePath": "/Users/silkevandenbroeck/databrokerDAO/databrokerdao-dapi/contracts/SensorRegistry.sol",
  "compiler": {
    "name": "solc",
    "version": "0.4.18+commit.9cf6e910.Emscripten.clang"
  },
  "schemaVersion": "1.0.1",
  "updatedAt": "2018-02-14T07:40:54.878Z"
}