{
  "contractName": "StreamPurchasing",
  "abi": [
    {
      "constant": true,
      "inputs": [],
      "name": "gateKeeper",
      "outputs": [
        {
          "name": "",
          "type": "address"
        }
      ],
      "payable": false,
      "stateMutability": "view",
      "type": "function"
    },
    {
      "constant": true,
      "inputs": [
        {
          "name": "",
          "type": "bytes32"
        }
      ],
      "name": "purchases",
      "outputs": [
        {
          "name": "endTime",
          "type": "uint256"
        },
        {
          "name": "pubKey",
          "type": "string"
        }
      ],
      "payable": false,
      "stateMutability": "view",
      "type": "function"
    },
    {
      "inputs": [
        {
          "name": "_gateKeeper",
          "type": "address"
        },
        {
          "name": "_token",
          "type": "address"
        },
        {
          "name": "_streamRegistry",
          "type": "address"
        }
      ],
      "payable": false,
      "stateMutability": "nonpayable",
      "type": "constructor"
    },
    {
      "anonymous": false,
      "inputs": [
        {
          "indexed": false,
          "name": "listing",
          "type": "bytes32"
        },
        {
          "indexed": false,
          "name": "user",
          "type": "address"
        },
        {
          "indexed": false,
          "name": "startDate",
          "type": "uint256"
        },
        {
          "indexed": false,
          "name": "endDate",
          "type": "uint256"
        }
      ],
      "name": "AccessPurchased",
      "type": "event"
    },
    {
      "anonymous": false,
      "inputs": [
        {
          "indexed": true,
          "name": "key",
          "type": "address"
        }
      ],
      "name": "AddressCacheInvalidated",
      "type": "event"
    },
    {
      "anonymous": false,
      "inputs": [
        {
          "indexed": true,
          "name": "key",
          "type": "bytes32"
        }
      ],
      "name": "Bytes32CacheInvalidated",
      "type": "event"
    },
    {
      "anonymous": false,
      "inputs": [
        {
          "indexed": true,
          "name": "key",
          "type": "uint256"
        }
      ],
      "name": "Uint256CacheInvalidated",
      "type": "event"
    },
    {
      "constant": false,
      "inputs": [
        {
          "name": "_stream",
          "type": "bytes32"
        },
        {
          "name": "_endDate",
          "type": "uint256"
        }
      ],
      "name": "purchaseAccess",
      "outputs": [],
      "payable": false,
      "stateMutability": "nonpayable",
      "type": "function"
    },
    {
      "constant": false,
      "inputs": [
        {
          "name": "_salePercentage",
          "type": "uint256"
        }
      ],
      "name": "setSalePercentage",
      "outputs": [],
      "payable": false,
      "stateMutability": "nonpayable",
      "type": "function"
    },
    {
      "constant": true,
      "inputs": [],
      "name": "getIndexLength",
      "outputs": [
        {
          "name": "length",
          "type": "uint256"
        }
      ],
      "payable": false,
      "stateMutability": "view",
      "type": "function"
    },
    {
      "constant": true,
      "inputs": [
        {
          "name": "index",
          "type": "uint256"
        }
      ],
      "name": "getByIndex",
      "outputs": [
        {
          "name": "key",
          "type": "bytes32"
        },
        {
          "name": "contractAddress",
          "type": "address"
        }
      ],
      "payable": false,
      "stateMutability": "view",
      "type": "function"
    },
    {
      "constant": true,
      "inputs": [
        {
          "name": "_key",
          "type": "bytes32"
        }
      ],
      "name": "getByKey",
      "outputs": [
        {
          "name": "key",
          "type": "bytes32"
        },
        {
          "name": "",
          "type": "address"
        }
      ],
      "payable": false,
      "stateMutability": "view",
      "type": "function"
    },
    {
      "constant": false,
      "inputs": [
        {
          "name": "",
          "type": "address"
        },
        {
          "name": "_cachedBytes32",
          "type": "bytes32"
        },
        {
          "name": "",
          "type": "uint256"
        }
      ],
      "name": "invalidateCache",
      "outputs": [],
      "payable": false,
      "stateMutability": "nonpayable",
      "type": "function"
    }
  ],
  "bytecode": "0x60606040526001600755341561001457600080fd5b60405160608061050083398101604052808051919060200180519190602001805160008054600160a060020a0319908116600160a060020a039788161782556001805482163089161790557f53747265616d50757263686173696e6700000000000000000000000000000000600255600580548216968816969096179095556006805490951691909516179092555061044c918291506100b490396000f3006060604052600436106100745763ffffffff60e060020a6000350416632d883a7381146100795780633d188fab146100b057806345d61ded146100d75780634a91da901461010657806372cc98501461011c5780637ab8dbe91461013257806399233ded146101d7578063e1ba7d01146101f0575b600080fd5b341561008457600080fd5b61008f600435610215565b604051918252600160a060020a031660208201526040908101905180910390f35b34156100bb57600080fd5b6100d5600160a060020a0360043516602435604435610244565b005b34156100e257600080fd5b6100ea61027e565b604051600160a060020a03909116815260200160405180910390f35b341561011157600080fd5b61008f60043561028d565b341561012757600080fd5b6100d5600435610293565b341561013d57600080fd5b610148600435610298565b604051828152604060208201818152835460026000196101006001841615020190911604918301829052906060830190849080156101c75780601f1061019c576101008083540402835291602001916101c7565b820191906000526020600020905b8154815290600101906020018083116101aa57829003601f168201915b5050935050505060405180910390f35b34156101e257600080fd5b6100d56004356024356102af565b34156101fb57600080fd5b6102036103a2565b60405190815260200160405180910390f35b60008061023b60048481548110151561022a57fe5b90600052602060002090015461028d565b91509150915091565b817fd5c977477c90fd6c009dd3275798b51da8bd2df8e0a25be47773f87b53d2e39960405160405180910390a26102796103a8565b505050565b600054600160a060020a031681565b90600090565b600755565b600360205260009081526040902080549060010182565b60065460009081908190600160a060020a0316637bf8d40186836040516020015260405160e060020a63ffffffff84160281526004810191909152602401602060405180830381600087803b151561030657600080fd5b6102c65a03f1151561031757600080fd5b5050506040518051935042925050508083038202600160a060020a033316318190101561034357600080fd5b7f8fccfe372405954c8e1283918d67d52c901db69d2458fb3588c9491d6da7b09385338487604051938452600160a060020a03909216602084015260408084019190915260608301919091526080909101905180910390a15050505050565b60045490565b600154600254600160a060020a0390911690633d188fab906000908160405160e060020a63ffffffff8616028152600160a060020a03909316600484015260248301919091526044820152606401600060405180830381600087803b151561040f57600080fd5b6102c65a03f1151561027957600080fd00a165627a7a723058205d2bdfc8c4262cb4db7ecbe3fd745fb74791ca591767d5ae73b808f0c65254160029",
  "source": "pragma solidity ^0.4.17;\n\nimport \"./StreamRegistry.sol\";\nimport \"@settlemint/solidity-mint/contracts/marketplaces/tokensystem/interfaces/IToken.sol\";\nimport \"@settlemint/solidity-mint/contracts/authentication/Secured.sol\";\nimport \"@settlemint/solidity-mint/contracts/utility/syncing/Syncable.sol\";\nimport \"@settlemint/solidity-mint/contracts/utility/caching/Cacher.sol\";\nimport \"@settlemint/solidity-mint/contracts/utility/caching/CachedByBytes32.sol\";\n\n\ncontract StreamPurchasing is Secured, Syncable, Cacher, CachedByBytes32 {\n\n  event AccessPurchased(bytes32 listing, address user, uint startDate, uint endDate);\n\n  struct Stream {\n    uint pricePerSecond;\n    mapping (address => Purchase) purchases; // the list of purchases\n    address[] purchasers; // a list of all the keys in the mapping\n  }\n\n  struct Purchase {\n    uint endTime; // the time at which the purchaser will lose access to this Stream\n    string pubKey; // the public key to encrypt this Stream stream against\n  }\n\n  mapping (bytes32 => Purchase) public purchases;\n  bytes32[] purchasesIndex;\n\n  IToken token;\n  StreamRegistry streamRegistry;\n  uint salePercentage = 1;\n\n  /**\n  @dev Contructor\n  @notice                Sets the address for token\n  @param _gateKeeper     Address of the gatekeeper\n  @param _token          Address of the token\n  */\n  function StreamPurchasing(\n    address _gateKeeper,\n    address _token,\n    address _streamRegistry\n  )\n    Secured(_gateKeeper)\n    CachedByBytes32(\"StreamPurchasing\", this)\n    public\n  {\n    token = IToken(_token);\n    streamRegistry = StreamRegistry(_streamRegistry);\n  }\n\n  /**\n  @notice                Lets the sender buy access to the Stream\n  @param _stream        Id of the listing\n  @param _endDate        Timestamp of when the user will stop receiving Stream readings\n  */\n  function purchaseAccess(bytes32 _stream, uint _endDate) public {\n    uint _streamPricePerSecond = streamRegistry.getStreamPrice(_stream); // Price will be used as a price per second here.\n\n    // TODO: Check if user doesn't have access to this stream yet\n\n    // Calculate total price\n    uint _startDate = now;\n    uint _streamPrice = _streamPricePerSecond * (_endDate - _startDate);\n\n    // Check if user can pay for the access\n    require(msg.sender.balance >= _streamPrice);\n\n    // Payment\n    // require(token.transferFrom(msg.sender, streamRegistry.getStreamOwner(_stream), _streamPrice));\n\n    AccessPurchased(_stream, msg.sender, _startDate, _endDate);\n  }\n\n  /**\n  @notice                Sets the sale percentage\n  @param _salePercentage salePercentage\n  */\n  function setSalePercentage(uint _salePercentage) public {\n    salePercentage = _salePercentage;\n  }\n\n  /**\n  * implementation of syncable methods\n  */\n  function getIndexLength() public view returns (uint length) {\n    length = purchasesIndex.length;\n  }\n\n  function getByIndex(uint index) public view returns (bytes32 key, address contractAddress) {\n    return getByKey(purchasesIndex[index]);\n  }\n\n  function getByKey(bytes32 _key) public view returns (bytes32 key, address /*contractAddress*/) {\n    key = _key;\n  }\n\n  /**\n  * implementation of cacher methods\n  */\n  function invalidateCache(address /*_cachedAddress*/, bytes32 _cachedBytes32, uint256 /*_cachedUint256*/) public {\n    Bytes32CacheInvalidated(_cachedBytes32);\n    super.invalidateCache();\n  }\n}\n",
  "sourcePath": "/Users/silkevandenbroeck/databrokerDAO/databrokerdao-dapi/contracts/StreamPurchasing.sol",
  "compiler": {
    "name": "solc",
    "version": "0.4.20+commit.3155dd80.Emscripten.clang"
  },
  "schemaVersion": "1.0.1",
  "updatedAt": "2018-02-16T10:41:44.269Z"
}