{
  "contractName": "StreamRegistry",
  "abi": [
    {
      "constant": true,
      "inputs": [
        {
          "name": "_listing",
          "type": "bytes32"
        }
      ],
      "name": "isWhitelisted",
      "outputs": [
        {
          "name": "whitelisted",
          "type": "bool"
        }
      ],
      "payable": false,
      "stateMutability": "view",
      "type": "function"
    },
    {
      "constant": false,
      "inputs": [
        {
          "name": "_listing",
          "type": "bytes32"
        }
      ],
      "name": "denyChallenge",
      "outputs": [],
      "payable": false,
      "stateMutability": "nonpayable",
      "type": "function"
    },
    {
      "constant": true,
      "inputs": [
        {
          "name": "_listing",
          "type": "bytes32"
        }
      ],
      "name": "challengeExists",
      "outputs": [
        {
          "name": "exists",
          "type": "bool"
        }
      ],
      "payable": false,
      "stateMutability": "view",
      "type": "function"
    },
    {
      "constant": true,
      "inputs": [],
      "name": "WITHDRAW_FUNDS_ROLE",
      "outputs": [
        {
          "name": "",
          "type": "bytes32"
        }
      ],
      "payable": false,
      "stateMutability": "view",
      "type": "function"
    },
    {
      "constant": false,
      "inputs": [
        {
          "name": "_adminPercentage",
          "type": "uint256"
        }
      ],
      "name": "setAdminPercentage",
      "outputs": [],
      "payable": false,
      "stateMutability": "nonpayable",
      "type": "function"
    },
    {
      "constant": true,
      "inputs": [
        {
          "name": "index",
          "type": "uint256"
        }
      ],
      "name": "getByIndex",
      "outputs": [
        {
          "name": "key",
          "type": "bytes32"
        },
        {
          "name": "contractAddress",
          "type": "address"
        }
      ],
      "payable": false,
      "stateMutability": "view",
      "type": "function"
    },
    {
      "constant": true,
      "inputs": [],
      "name": "CURATE_CHALLENGE_ROLE",
      "outputs": [
        {
          "name": "",
          "type": "bytes32"
        }
      ],
      "payable": false,
      "stateMutability": "view",
      "type": "function"
    },
    {
      "constant": true,
      "inputs": [],
      "name": "metadata",
      "outputs": [
        {
          "name": "",
          "type": "string"
        }
      ],
      "payable": false,
      "stateMutability": "view",
      "type": "function"
    },
    {
      "constant": false,
      "inputs": [],
      "name": "withdraw",
      "outputs": [],
      "payable": false,
      "stateMutability": "nonpayable",
      "type": "function"
    },
    {
      "constant": false,
      "inputs": [
        {
          "name": "",
          "type": "address"
        },
        {
          "name": "_cachedBytes32",
          "type": "bytes32"
        },
        {
          "name": "",
          "type": "uint256"
        }
      ],
      "name": "invalidateCache",
      "outputs": [],
      "payable": false,
      "stateMutability": "nonpayable",
      "type": "function"
    },
    {
      "constant": true,
      "inputs": [],
      "name": "gateKeeper",
      "outputs": [
        {
          "name": "",
          "type": "address"
        }
      ],
      "payable": false,
      "stateMutability": "view",
      "type": "function"
    },
    {
      "constant": true,
      "inputs": [
        {
          "name": "_key",
          "type": "bytes32"
        }
      ],
      "name": "getByKey",
      "outputs": [
        {
          "name": "key",
          "type": "bytes32"
        },
        {
          "name": "",
          "type": "address"
        }
      ],
      "payable": false,
      "stateMutability": "view",
      "type": "function"
    },
    {
      "constant": false,
      "inputs": [
        {
          "name": "_listing",
          "type": "bytes32"
        }
      ],
      "name": "approveChallenge",
      "outputs": [],
      "payable": false,
      "stateMutability": "nonpayable",
      "type": "function"
    },
    {
      "constant": false,
      "inputs": [
        {
          "name": "ipfsHash",
          "type": "string"
        }
      ],
      "name": "updateMetaData",
      "outputs": [],
      "payable": false,
      "stateMutability": "nonpayable",
      "type": "function"
    },
    {
      "constant": false,
      "inputs": [
        {
          "name": "_listing",
          "type": "bytes32"
        },
        {
          "name": "_stakeAmount",
          "type": "uint256"
        },
        {
          "name": "_price",
          "type": "uint256"
        }
      ],
      "name": "enlist",
      "outputs": [],
      "payable": false,
      "stateMutability": "nonpayable",
      "type": "function"
    },
    {
      "constant": false,
      "inputs": [
        {
          "name": "_minEnlistAmount",
          "type": "uint256"
        }
      ],
      "name": "setMinEnlistAmount",
      "outputs": [],
      "payable": false,
      "stateMutability": "nonpayable",
      "type": "function"
    },
    {
      "constant": false,
      "inputs": [
        {
          "name": "_listing",
          "type": "bytes32"
        },
        {
          "name": "_stakeAmount",
          "type": "uint256"
        }
      ],
      "name": "decrease",
      "outputs": [],
      "payable": false,
      "stateMutability": "nonpayable",
      "type": "function"
    },
    {
      "constant": true,
      "inputs": [
        {
          "name": "",
          "type": "uint256"
        }
      ],
      "name": "challenges",
      "outputs": [
        {
          "name": "challenger",
          "type": "address"
        },
        {
          "name": "resolved",
          "type": "bool"
        },
        {
          "name": "stake",
          "type": "uint256"
        },
        {
          "name": "listing",
          "type": "bytes32"
        }
      ],
      "payable": false,
      "stateMutability": "view",
      "type": "function"
    },
    {
      "constant": false,
      "inputs": [
        {
          "name": "_listing",
          "type": "bytes32"
        }
      ],
      "name": "unlist",
      "outputs": [],
      "payable": false,
      "stateMutability": "nonpayable",
      "type": "function"
    },
    {
      "constant": false,
      "inputs": [
        {
          "name": "_listing",
          "type": "bytes32"
        },
        {
          "name": "_price",
          "type": "uint256"
        }
      ],
      "name": "setListingPrice",
      "outputs": [],
      "payable": false,
      "stateMutability": "nonpayable",
      "type": "function"
    },
    {
      "constant": true,
      "inputs": [
        {
          "name": "",
          "type": "bytes32"
        }
      ],
      "name": "listings",
      "outputs": [
        {
          "name": "price",
          "type": "uint256"
        },
        {
          "name": "whitelisted",
          "type": "bool"
        },
        {
          "name": "owner",
          "type": "address"
        },
        {
          "name": "stake",
          "type": "uint256"
        },
        {
          "name": "challenges",
          "type": "uint256"
        },
        {
          "name": "totalStake",
          "type": "uint256"
        }
      ],
      "payable": false,
      "stateMutability": "view",
      "type": "function"
    },
    {
      "constant": false,
      "inputs": [
        {
          "name": "_minChallengeAmount",
          "type": "uint256"
        }
      ],
      "name": "setMinChallengeAmount",
      "outputs": [],
      "payable": false,
      "stateMutability": "nonpayable",
      "type": "function"
    },
    {
      "constant": true,
      "inputs": [],
      "name": "getIndexLength",
      "outputs": [
        {
          "name": "length",
          "type": "uint256"
        }
      ],
      "payable": false,
      "stateMutability": "view",
      "type": "function"
    },
    {
      "constant": false,
      "inputs": [
        {
          "name": "_listing",
          "type": "bytes32"
        },
        {
          "name": "_stakeAmount",
          "type": "uint256"
        }
      ],
      "name": "challenge",
      "outputs": [
        {
          "name": "challengeID",
          "type": "uint256"
        }
      ],
      "payable": false,
      "stateMutability": "nonpayable",
      "type": "function"
    },
    {
      "constant": false,
      "inputs": [
        {
          "name": "_listing",
          "type": "bytes32"
        },
        {
          "name": "_stakeAmount",
          "type": "uint256"
        }
      ],
      "name": "increase",
      "outputs": [],
      "payable": false,
      "stateMutability": "nonpayable",
      "type": "function"
    },
    {
      "constant": true,
      "inputs": [],
      "name": "token",
      "outputs": [
        {
          "name": "",
          "type": "address"
        }
      ],
      "payable": false,
      "stateMutability": "view",
      "type": "function"
    },
    {
      "constant": true,
      "inputs": [],
      "name": "UPDATE_METADATA_ROLE",
      "outputs": [
        {
          "name": "",
          "type": "bytes32"
        }
      ],
      "payable": false,
      "stateMutability": "view",
      "type": "function"
    },
    {
      "inputs": [
        {
          "name": "_gateKeeper",
          "type": "address"
        },
        {
          "name": "_token",
          "type": "address"
        }
      ],
      "payable": false,
      "stateMutability": "nonpayable",
      "type": "constructor"
    },
    {
      "anonymous": false,
      "inputs": [
        {
          "indexed": false,
          "name": "listing",
          "type": "bytes32"
        },
        {
          "indexed": false,
          "name": "deposit",
          "type": "uint256"
        },
        {
          "indexed": false,
          "name": "price",
          "type": "uint256"
        }
      ],
      "name": "Enlisted",
      "type": "event"
    },
    {
      "anonymous": false,
      "inputs": [
        {
          "indexed": false,
          "name": "listing",
          "type": "bytes32"
        },
        {
          "indexed": false,
          "name": "deposit",
          "type": "uint256"
        },
        {
          "indexed": false,
          "name": "challengeID",
          "type": "uint256"
        }
      ],
      "name": "Challenged",
      "type": "event"
    },
    {
      "anonymous": false,
      "inputs": [
        {
          "indexed": false,
          "name": "listing",
          "type": "bytes32"
        }
      ],
      "name": "Unlisted",
      "type": "event"
    },
    {
      "anonymous": false,
      "inputs": [
        {
          "indexed": false,
          "name": "listing",
          "type": "bytes32"
        }
      ],
      "name": "ChallengeApproved",
      "type": "event"
    },
    {
      "anonymous": false,
      "inputs": [
        {
          "indexed": false,
          "name": "listing",
          "type": "bytes32"
        }
      ],
      "name": "ChallengeDenied",
      "type": "event"
    },
    {
      "anonymous": false,
      "inputs": [
        {
          "indexed": false,
          "name": "listing",
          "type": "bytes32"
        },
        {
          "indexed": false,
          "name": "increasedBy",
          "type": "uint256"
        },
        {
          "indexed": false,
          "name": "newDeposit",
          "type": "uint256"
        }
      ],
      "name": "Increased",
      "type": "event"
    },
    {
      "anonymous": false,
      "inputs": [
        {
          "indexed": false,
          "name": "listing",
          "type": "bytes32"
        },
        {
          "indexed": false,
          "name": "decreasedBy",
          "type": "uint256"
        },
        {
          "indexed": false,
          "name": "newDeposit",
          "type": "uint256"
        }
      ],
      "name": "Decreased",
      "type": "event"
    },
    {
      "anonymous": false,
      "inputs": [
        {
          "indexed": false,
          "name": "by",
          "type": "address"
        },
        {
          "indexed": false,
          "name": "balance",
          "type": "uint256"
        }
      ],
      "name": "Withdrawn",
      "type": "event"
    },
    {
      "anonymous": false,
      "inputs": [
        {
          "indexed": true,
          "name": "key",
          "type": "address"
        }
      ],
      "name": "AddressCacheInvalidated",
      "type": "event"
    },
    {
      "anonymous": false,
      "inputs": [
        {
          "indexed": true,
          "name": "key",
          "type": "bytes32"
        }
      ],
      "name": "Bytes32CacheInvalidated",
      "type": "event"
    },
    {
      "anonymous": false,
      "inputs": [
        {
          "indexed": true,
          "name": "key",
          "type": "uint256"
        }
      ],
      "name": "Uint256CacheInvalidated",
      "type": "event"
    },
    {
      "constant": true,
      "inputs": [
        {
          "name": "_listing",
          "type": "bytes32"
        }
      ],
      "name": "getStreamPrice",
      "outputs": [
        {
          "name": "price",
          "type": "uint256"
        }
      ],
      "payable": false,
      "stateMutability": "view",
      "type": "function"
    },
    {
      "constant": true,
      "inputs": [
        {
          "name": "_listing",
          "type": "bytes32"
        }
      ],
      "name": "getStreamOwner",
      "outputs": [
        {
          "name": "owner",
          "type": "address"
        }
      ],
      "payable": false,
      "stateMutability": "view",
      "type": "function"
    }
  ],
  "bytecode": "0x6060604052600060085560006009556000600a556000600b55600a600c556005600d55600a600e55341561003257600080fd5b6040516040806117fb8339810160405280805191906020018051600c54600d54600e5460008054600160a060020a03988916600160a060020a03199182161790915560018054308a169083161790557f53747265616d52656769737472790000000000000000000000000000000000006002556007805498909516971696909617909255600955600a555050600b5561172b806100d06000396000f30060606040526004361061015b5763ffffffff60e060020a60003504166301a5e3fe81146101605780630bb786de1461018a5780630f4c8f45146101bc5780631b7bbecb146101d45780631cbcd974146101ea578063245694ad1461020f5780632d883a731461022557806332a651981461025c578063392f37e91461026f5780633ccfd60b146102f95780633d188fab1461030c57806345d61ded146103315780634a91da90146103445780634b0e21911461035a5780635cc07505146103705780636f920969146103c15780637bf8d401146103dd57806383b7113e146103f35780638cd6d2b4146104095780638f1d377614610422578063bc40a2771461046e578063bd342e3614610484578063c18b8db41461049d578063de29ee6814610502578063e1ba7d0114610518578063e2083c181461052b578063f4478dad14610544578063fc0c546a1461055d578063fff139cf14610570575b600080fd5b341561016b57600080fd5b610176600435610583565b604051901515815260200160405180910390f35b341561019557600080fd5b6101a060043561059b565b604051600160a060020a03909116815260200160405180910390f35b34156101c757600080fd5b6101d26004356105be565b005b34156101df57600080fd5b61017660043561070a565b34156101f557600080fd5b6101fd610720565b60405190815260200160405180910390f35b341561021a57600080fd5b6101d2600435610744565b341561023057600080fd5b61023b600435610749565b604051918252600160a060020a031660208201526040908101905180910390f35b341561026757600080fd5b6101fd610778565b341561027a57600080fd5b61028261079c565b60405160208082528190810183818151815260200191508051906020019080838360005b838110156102be5780820151838201526020016102a6565b50505050905090810190601f1680156102eb5780820380516001836020036101000a031916815260200191505b509250505060405180910390f35b341561030457600080fd5b6101d261083a565b341561031757600080fd5b6101d2600160a060020a0360043516602435604435610904565b341561033c57600080fd5b6101a061093e565b341561034f57600080fd5b61023b60043561094d565b341561036557600080fd5b6101d2600435610953565b341561037b57600080fd5b6101d260046024813581810190830135806020601f82018190048102016040519081016040528181529291906020840183838082843750949650610b8695505050505050565b34156103cc57600080fd5b6101d2600435602435604435610b9a565b34156103e857600080fd5b6101fd600435610d64565b34156103fe57600080fd5b6101d2600435610d76565b341561041457600080fd5b6101d2600435602435610d7b565b341561042d57600080fd5b610438600435610ed3565b604051600160a060020a039094168452911515602084015260408084019190915260608301919091526080909101905180910390f35b341561047957600080fd5b6101d2600435610f09565b341561048f57600080fd5b6101d2600435602435611091565b34156104a857600080fd5b6104b36004356110a3565b604051808781526020018615151515815260200185600160a060020a0316600160a060020a03168152602001848152602001838152602001828152602001965050505050505060405180910390f35b341561050d57600080fd5b6101d26004356110e2565b341561052357600080fd5b6101fd6110e7565b341561053657600080fd5b6101fd6004356024356110ed565b341561054f57600080fd5b6101d26004356024356112ee565b341561056857600080fd5b6101a0611414565b341561057b57600080fd5b6101fd611423565b60009081526004602052604090206001015460ff1690565b6000908152600460205260409020600101546101009004600160a060020a031690565b6000806000807f4355524154455f4348414c4c454e47455f524f4c4500000000000000000000006105ef3382611447565b15156105fa57600080fd5b60008681526004602052604090206005810154600b5491965094506064900484029250600160a060020a03331683156108fc0284604051600060405180830381858888f19350505050151561064e57600080fd5b600091505b60048501548210156106c857600160066000876004018581548110151561067657fe5b600091825260208083209091015483528201929092526040019020805491151560a060020a0274ff00000000000000000000000000000000000000001990921691909117905560019190910190610653565b600060038601557fb5fcf011cd44be27fdd6c415f3a94c64376a615e7a8df51037183c266351319e8660405190815260200160405180910390a1505050505050565b6000908152600460205260408120600301541190565b7f57495448445241575f46554e44535f524f4c450000000000000000000000000081565b600b55565b60008061076f60058481548110151561075e57fe5b90600052602060002090015461094d565b91509150915091565b7f4355524154455f4348414c4c454e47455f524f4c45000000000000000000000081565b60038054600181600116156101000203166002900480601f0160208091040260200160405190810160405280929190818152602001828054600181600116156101000203166002900480156108325780601f1061080757610100808354040283529160200191610832565b820191906000526020600020905b81548152906001019060200180831161081557829003601f168201915b505050505081565b60007f57495448445241575f46554e44535f524f4c45000000000000000000000000006108673382611447565b151561087257600080fd5b30600160a060020a031631915033600160a060020a03166108fc30600160a060020a0316319081150290604051600060405180830381858888f1935050505015156108bc57600080fd5b7f7084f5476618d8e60b11ef0d7d3f06914655adb8793e28ff7f018d4c76d505d53383604051600160a060020a03909216825260208201526040908101905180910390a15050565b817fd5c977477c90fd6c009dd3275798b51da8bd2df8e0a25be47773f87b53d2e39960405160405180910390a26109396114ee565b505050565b600054600160a060020a031681565b90600090565b60008060008060006109636115af565b60007f4355524154455f4348414c4c454e47455f524f4c4500000000000000000000006109903382611447565b151561099b57600080fd5b600089815260046020526040902060058101546002820154600b54929a50909850880396506064900487029450600160a060020a03331685156108fc0286604051600060405180830381858888f1935050505015156109f957600080fd5b600093505b6004880154841015610b2e57600660008960040186815481101515610a1f57fe5b9060005260206000209001548152602001908152602001600020608060405190810160409081528254600160a060020a038116835260a060020a900460ff16151560208301526001830154908201526002909101546060820152925084870391508251600160a060020a03166108fc878560400151811515610a9d57fe5b0484029081150290604051600060405180830381858888f193505050501515610ac557600080fd5b6001600660008a60040187815481101515610adc57fe5b600091825260208083209091015483528201929092526040019020805491151560a060020a0274ff000000000000000000000000000000000000000019909216919091179055600193909301926109fe565b600060028901819055600589015560018801805460ff191690557f45552e8036e6f0b8afe8aa1347567a847613a7095162e76bee4dfc8999c2fb528960405190815260200160405180910390a1505050505050505050565b610b8f81611566565b610b976114ee565b50565b610ba26115d6565b600954831015610bb157600080fd5b600754600160a060020a03166323b872dd33308660006040516020015260405160e060020a63ffffffff8616028152600160a060020a0393841660048201529190921660248201526044810191909152606401602060405180830381600087803b1515610c1d57600080fd5b6102c65a03f11515610c2e57600080fd5b505050604051805190501515610c4357600080fd5b60e060405190810160409081528382526001602080840191909152600160a060020a033316828401526060830186905260006080840181905260a0840185905260c0840187905287815260049091522081518155602082015160018201805460ff191691151591909117905560408201518160010160016101000a815481600160a060020a030219169083600160a060020a03160217905550606082015181600201556080820151816003015560a082015181600401908051610d0a9291602001906115e8565b5060c0820151600590910155507f42250bbd53b824581c623c2cf50a7bc00ad03a9c3337837448819978b467328a84848460405192835260208301919091526040808301919091526060909101905180910390a150505050565b60009081526004602052604090205490565b600955565b6000828152600460205260409020600181015433600160a060020a039081166101009092041614610dab57600080fd5b6002810154821115610dbc57600080fd5b60095460028201548390031015610dd257600080fd5b60095460058201548390031015610de857600080fd5b600754600160a060020a031663a9059cbb338460006040516020015260405160e060020a63ffffffff8516028152600160a060020a0390921660048301526024820152604401602060405180830381600087803b1515610e4757600080fd5b6102c65a03f11515610e5857600080fd5b505050604051805190501515610e6d57600080fd5b6002810180548390039081905560058201805484900390557fe8a15c36ddecf6f4f9f08bbc59f5c547485a107b6cf17d731dec04e5c637438c908490849060405192835260208301919091526040808301919091526060909101905180910390a1505050565b600660205260009081526040902080546001820154600290920154600160a060020a0382169260a060020a90920460ff16919084565b6000818152600460205260409020600181015433600160a060020a039081166101009092041614610f3957600080fd5b610f4282610583565b1515610f4d57600080fd5b600381015415610f5c57600080fd5b6000816002015411156110015760075460018201546002830154600160a060020a039283169263a9059cbb926101009004169060006040516020015260405160e060020a63ffffffff8516028152600160a060020a0390921660048301526024820152604401602060405180830381600087803b1515610fdb57600080fd5b6102c65a03f11515610fec57600080fd5b50505060405180519050151561100157600080fd5b6000828152600460208190526040822082815560018101805474ffffffffffffffffffffffffffffffffffffffffff191690556002810183905560038101839055919061105090830182611633565b600582016000905550507f2e6ec049d62c8a42e7cc223354aadb68d5046a2cba67ed55a089fdb852fb6cb68260405190815260200160405180910390a15050565b60009182526004602052604090912055565b60046020526000908152604090208054600182015460028301546003840154600590940154929360ff831693610100909304600160a060020a03169286565b600a55565b60055490565b6000806110f86115af565b600a5484101561110757600080fd5b600085815260046020526040808220600754909450600160a060020a0316916323b872dd9133913091899190516020015260405160e060020a63ffffffff8616028152600160a060020a0393841660048201529190921660248201526044810191909152606401602060405180830381600087803b151561118757600080fd5b6102c65a03f1151561119857600080fd5b5050506040518051905015156111ad57600080fd5b6008805460010190819055925060806040519081016040908152600160a060020a03331682526000602080840182905282840188905260608401899052868252600690522090915081908151815473ffffffffffffffffffffffffffffffffffffffff1916600160a060020a03919091161781556020820151815490151560a060020a0274ff000000000000000000000000000000000000000019909116178155604082015181600101556060820151600290910155506003820180546001908101909155600483018054909181016112868382611651565b506000918252602090912001839055600582018054850190557f346179119607de02d189e442e1f22c5a25ced2e8f102ddd36762a34b3d66b05685858560405192835260208301919091526040808301919091526060909101905180910390a1505092915050565b6000828152600460205260409020600181015433600160a060020a03908116610100909204161461131e57600080fd5b600754600160a060020a03166323b872dd33308560006040516020015260405160e060020a63ffffffff8616028152600160a060020a0393841660048201529190921660248201526044810191909152606401602060405180830381600087803b151561138a57600080fd5b6102c65a03f1151561139b57600080fd5b5050506040518051905015156113b057600080fd5b600281018054830190819055600582018054840190557f7f27350fe80670682f5dc629cc881b7169e0ede96a681e843d0267bbfbb7a98b908490849060405192835260208301919091526040808301919091526060909101905180910390a1505050565b600754600160a060020a031681565b7f5550444154455f4d455441444154415f524f4c4500000000000000000000000081565b60008054600160a060020a031615806114e7575060008054600160a060020a031690636d6712d8908590309086906040516020015260405160e060020a63ffffffff8616028152600160a060020a0393841660048201529190921660248201526044810191909152606401602060405180830381600087803b15156114cb57600080fd5b6102c65a03f115156114dc57600080fd5b505050604051805190505b9392505050565b600154600254600160a060020a0390911690633d188fab906000908160405160e060020a63ffffffff8616028152600160a060020a03909316600484015260248301919091526044820152606401600060405180830381600087803b151561155557600080fd5b6102c65a03f1151561093957600080fd5b7f5550444154455f4d455441444154415f524f4c450000000000000000000000006115913382611447565b151561159c57600080fd5b6003828051610939929160200190611675565b60806040519081016040908152600080835260208301819052908201819052606082015290565b60206040519081016040526000815290565b828054828255906000526020600020908101928215611623579160200282015b82811115611623578251825591602001919060010190611608565b5061162f9291506116e2565b5090565b5080546000825590600052602060002090810190610b9791906116e2565b815481835581811511610939576000838152602090206109399181019083016116e2565b828054600181600116156101000203166002900490600052602060002090601f016020900481019282601f106116b657805160ff1916838001178555611623565b828001600101855582156116235791820182811115611623578251825591602001919060010190611608565b6116fc91905b8082111561162f57600081556001016116e8565b905600a165627a7a72305820b2e697e0ec8fa1185bf6ff64e2991afae9a1e2f85fdbc72b42c5c67d4c381c5d0029",
  "source": "pragma solidity ^0.4.17;\n\nimport \"@settlemint/solidity-mint/contracts/marketplaces/tokencuratedregistry/TokenCuratedRegistry.sol\";\nimport \"@settlemint/solidity-mint/contracts/marketplaces/tokensystem/Token.sol\";\n\n\ncontract StreamRegistry is TokenCuratedRegistry {\n\n  // Initial values, these can be changed with setters\n  uint MIN_ENLIST_AMOUNT = 10;\n  uint MIN_CHALLENGE_AMOUNT = 5;\n  uint ADMIN_PERCENTAGE = 10;\n\n  /**\n  @dev Contructor\n  @notice                Sets the address for token\n  @param _gateKeeper     Address of the gatekeeper\n  @param _token          Address of the token\n  */\n  function StreamRegistry(\n    address _gateKeeper,\n    address _token\n  )\n    TokenCuratedRegistry(\n      \"StreamRegistry\",\n      _gateKeeper,\n      _token,\n      MIN_ENLIST_AMOUNT,\n      MIN_CHALLENGE_AMOUNT,\n      ADMIN_PERCENTAGE\n    )\n    public\n  {}\n\n  /**\n  @notice                Gets the price of a stream\n  @param _listing        key of the listing\n  */\n  function getStreamPrice(bytes32 _listing) view public returns (uint price) {\n    return listings[_listing].price;\n  }\n\n  /**\n  @notice                Gets the owner of a stream\n  @param _listing        key of the listing\n  */\n  function getStreamOwner(bytes32 _listing) view public returns (address owner) {\n    return listings[_listing].owner;\n  }\n}\n",
  "sourcePath": "/Users/silkevandenbroeck/databrokerDAO/databrokerdao-dapi/contracts/StreamRegistry.sol",
  "compiler": {
    "name": "solc",
    "version": "0.4.20+commit.3155dd80.Emscripten.clang"
  },
  "schemaVersion": "1.0.1",
  "updatedAt": "2018-02-19T08:47:21.232Z"
}