{
  "contractName": "StreamRegistry",
  "abi": [
    {
      "constant": true,
      "inputs": [],
      "name": "WITHDRAW_FUNDS_ROLE",
      "outputs": [
        {
          "name": "",
          "type": "bytes32"
        }
      ],
      "payable": false,
      "stateMutability": "view",
      "type": "function"
    },
    {
      "constant": false,
      "inputs": [
        {
          "name": "_stakeAmount",
          "type": "uint256"
        },
        {
          "name": "_price",
          "type": "uint256"
        },
        {
          "name": "_metadata",
          "type": "string"
        }
      ],
      "name": "enlist",
      "outputs": [],
      "payable": false,
      "stateMutability": "nonpayable",
      "type": "function"
    },
    {
      "constant": false,
      "inputs": [
        {
          "name": "_adminPercentage",
          "type": "uint256"
        }
      ],
      "name": "setAdminPercentage",
      "outputs": [],
      "payable": false,
      "stateMutability": "nonpayable",
      "type": "function"
    },
    {
      "constant": true,
      "inputs": [
        {
          "name": "index",
          "type": "uint256"
        }
      ],
      "name": "getByIndex",
      "outputs": [
        {
          "name": "key",
          "type": "address"
        },
        {
          "name": "contractAddress",
          "type": "address"
        }
      ],
      "payable": false,
      "stateMutability": "view",
      "type": "function"
    },
    {
      "constant": true,
      "inputs": [],
      "name": "CURATE_CHALLENGE_ROLE",
      "outputs": [
        {
          "name": "",
          "type": "bytes32"
        }
      ],
      "payable": false,
      "stateMutability": "view",
      "type": "function"
    },
    {
      "constant": true,
      "inputs": [
        {
          "name": "_listing",
          "type": "address"
        }
      ],
      "name": "isWhitelisted",
      "outputs": [
        {
          "name": "whitelisted",
          "type": "bool"
        }
      ],
      "payable": false,
      "stateMutability": "view",
      "type": "function"
    },
    {
      "constant": false,
      "inputs": [],
      "name": "withdraw",
      "outputs": [],
      "payable": false,
      "stateMutability": "nonpayable",
      "type": "function"
    },
    {
      "constant": false,
      "inputs": [
        {
          "name": "_cachedAddress",
          "type": "address"
        },
        {
          "name": "",
          "type": "bytes32"
        },
        {
          "name": "",
          "type": "uint256"
        }
      ],
      "name": "invalidateCache",
      "outputs": [],
      "payable": false,
      "stateMutability": "nonpayable",
      "type": "function"
    },
    {
      "constant": true,
      "inputs": [],
      "name": "gateKeeper",
      "outputs": [
        {
          "name": "",
          "type": "address"
        }
      ],
      "payable": false,
      "stateMutability": "view",
      "type": "function"
    },
    {
      "constant": true,
      "inputs": [
        {
          "name": "_key",
          "type": "address"
        }
      ],
      "name": "getByKey",
      "outputs": [
        {
          "name": "key",
          "type": "address"
        },
        {
          "name": "contractAddress",
          "type": "address"
        }
      ],
      "payable": false,
      "stateMutability": "view",
      "type": "function"
    },
    {
      "constant": false,
      "inputs": [
        {
          "name": "_listing",
          "type": "address"
        },
        {
          "name": "_stakeAmount",
          "type": "uint256"
        }
      ],
      "name": "increase",
      "outputs": [],
      "payable": false,
      "stateMutability": "nonpayable",
      "type": "function"
    },
    {
      "constant": false,
      "inputs": [
        {
          "name": "_listing",
          "type": "address"
        }
      ],
      "name": "addListing",
      "outputs": [],
      "payable": false,
      "stateMutability": "nonpayable",
      "type": "function"
    },
    {
      "constant": true,
      "inputs": [
        {
          "name": "",
          "type": "address"
        }
      ],
      "name": "listings",
      "outputs": [
        {
          "name": "",
          "type": "address"
        }
      ],
      "payable": false,
      "stateMutability": "view",
      "type": "function"
    },
    {
      "constant": true,
      "inputs": [
        {
          "name": "_listing",
          "type": "address"
        }
      ],
      "name": "challengeExists",
      "outputs": [
        {
          "name": "exists",
          "type": "bool"
        }
      ],
      "payable": false,
      "stateMutability": "view",
      "type": "function"
    },
    {
      "constant": false,
      "inputs": [
        {
          "name": "_minEnlistAmount",
          "type": "uint256"
        }
      ],
      "name": "setMinEnlistAmount",
      "outputs": [],
      "payable": false,
      "stateMutability": "nonpayable",
      "type": "function"
    },
    {
      "constant": true,
      "inputs": [
        {
          "name": "",
          "type": "uint256"
        }
      ],
      "name": "challenges",
      "outputs": [
        {
          "name": "challenger",
          "type": "address"
        },
        {
          "name": "resolved",
          "type": "bool"
        },
        {
          "name": "stake",
          "type": "uint256"
        },
        {
          "name": "listing",
          "type": "address"
        }
      ],
      "payable": false,
      "stateMutability": "view",
      "type": "function"
    },
    {
      "constant": false,
      "inputs": [
        {
          "name": "_listing",
          "type": "address"
        }
      ],
      "name": "approveChallenge",
      "outputs": [],
      "payable": false,
      "stateMutability": "nonpayable",
      "type": "function"
    },
    {
      "constant": false,
      "inputs": [
        {
          "name": "_listing",
          "type": "address"
        }
      ],
      "name": "denyChallenge",
      "outputs": [],
      "payable": false,
      "stateMutability": "nonpayable",
      "type": "function"
    },
    {
      "constant": false,
      "inputs": [
        {
          "name": "_listing",
          "type": "address"
        },
        {
          "name": "_stakeAmount",
          "type": "uint256"
        }
      ],
      "name": "challenge",
      "outputs": [
        {
          "name": "challengeID",
          "type": "uint256"
        }
      ],
      "payable": false,
      "stateMutability": "nonpayable",
      "type": "function"
    },
    {
      "constant": false,
      "inputs": [
        {
          "name": "_listing",
          "type": "address"
        },
        {
          "name": "_price",
          "type": "uint256"
        }
      ],
      "name": "setListingPrice",
      "outputs": [],
      "payable": false,
      "stateMutability": "nonpayable",
      "type": "function"
    },
    {
      "constant": false,
      "inputs": [
        {
          "name": "_listing",
          "type": "address"
        }
      ],
      "name": "unlist",
      "outputs": [],
      "payable": false,
      "stateMutability": "nonpayable",
      "type": "function"
    },
    {
      "constant": false,
      "inputs": [
        {
          "name": "_minChallengeAmount",
          "type": "uint256"
        }
      ],
      "name": "setMinChallengeAmount",
      "outputs": [],
      "payable": false,
      "stateMutability": "nonpayable",
      "type": "function"
    },
    {
      "constant": true,
      "inputs": [],
      "name": "getIndexLength",
      "outputs": [
        {
          "name": "length",
          "type": "uint256"
        }
      ],
      "payable": false,
      "stateMutability": "view",
      "type": "function"
    },
    {
      "constant": false,
      "inputs": [
        {
          "name": "_listing",
          "type": "address"
        },
        {
          "name": "_stakeAmount",
          "type": "uint256"
        }
      ],
      "name": "decrease",
      "outputs": [],
      "payable": false,
      "stateMutability": "nonpayable",
      "type": "function"
    },
    {
      "constant": true,
      "inputs": [],
      "name": "token",
      "outputs": [
        {
          "name": "",
          "type": "address"
        }
      ],
      "payable": false,
      "stateMutability": "view",
      "type": "function"
    },
    {
      "constant": true,
      "inputs": [],
      "name": "listingFactory",
      "outputs": [
        {
          "name": "",
          "type": "address"
        }
      ],
      "payable": false,
      "stateMutability": "view",
      "type": "function"
    },
    {
      "inputs": [
        {
          "name": "_gateKeeper",
          "type": "address"
        },
        {
          "name": "_token",
          "type": "address"
        },
        {
          "name": "_listingFactory",
          "type": "address"
        }
      ],
      "payable": false,
      "stateMutability": "nonpayable",
      "type": "constructor"
    },
    {
      "anonymous": false,
      "inputs": [
        {
          "indexed": false,
          "name": "listing",
          "type": "address"
        },
        {
          "indexed": false,
          "name": "stake",
          "type": "uint256"
        },
        {
          "indexed": false,
          "name": "price",
          "type": "uint256"
        }
      ],
      "name": "Enlisted",
      "type": "event"
    },
    {
      "anonymous": false,
      "inputs": [
        {
          "indexed": false,
          "name": "listing",
          "type": "address"
        },
        {
          "indexed": false,
          "name": "stake",
          "type": "uint256"
        },
        {
          "indexed": false,
          "name": "challengeID",
          "type": "uint256"
        }
      ],
      "name": "Challenged",
      "type": "event"
    },
    {
      "anonymous": false,
      "inputs": [
        {
          "indexed": false,
          "name": "listing",
          "type": "address"
        }
      ],
      "name": "Unlisted",
      "type": "event"
    },
    {
      "anonymous": false,
      "inputs": [
        {
          "indexed": false,
          "name": "listing",
          "type": "address"
        }
      ],
      "name": "ChallengeApproved",
      "type": "event"
    },
    {
      "anonymous": false,
      "inputs": [
        {
          "indexed": false,
          "name": "listing",
          "type": "address"
        }
      ],
      "name": "ChallengeDenied",
      "type": "event"
    },
    {
      "anonymous": false,
      "inputs": [
        {
          "indexed": false,
          "name": "listing",
          "type": "address"
        },
        {
          "indexed": false,
          "name": "increasedBy",
          "type": "uint256"
        },
        {
          "indexed": false,
          "name": "newStake",
          "type": "uint256"
        }
      ],
      "name": "Increased",
      "type": "event"
    },
    {
      "anonymous": false,
      "inputs": [
        {
          "indexed": false,
          "name": "listing",
          "type": "address"
        },
        {
          "indexed": false,
          "name": "decreasedBy",
          "type": "uint256"
        },
        {
          "indexed": false,
          "name": "newStake",
          "type": "uint256"
        }
      ],
      "name": "Decreased",
      "type": "event"
    },
    {
      "anonymous": false,
      "inputs": [
        {
          "indexed": false,
          "name": "by",
          "type": "address"
        },
        {
          "indexed": false,
          "name": "balance",
          "type": "uint256"
        }
      ],
      "name": "Withdrawn",
      "type": "event"
    },
    {
      "anonymous": false,
      "inputs": [
        {
          "indexed": true,
          "name": "key",
          "type": "address"
        }
      ],
      "name": "AddressCacheInvalidated",
      "type": "event"
    },
    {
      "anonymous": false,
      "inputs": [
        {
          "indexed": true,
          "name": "key",
          "type": "bytes32"
        }
      ],
      "name": "Bytes32CacheInvalidated",
      "type": "event"
    },
    {
      "anonymous": false,
      "inputs": [
        {
          "indexed": true,
          "name": "key",
          "type": "uint256"
        }
      ],
      "name": "Uint256CacheInvalidated",
      "type": "event"
    },
    {
      "constant": true,
      "inputs": [
        {
          "name": "_listing",
          "type": "address"
        }
      ],
      "name": "getStreamPrice",
      "outputs": [
        {
          "name": "price",
          "type": "uint256"
        }
      ],
      "payable": false,
      "stateMutability": "view",
      "type": "function"
    },
    {
      "constant": true,
      "inputs": [
        {
          "name": "_listing",
          "type": "address"
        }
      ],
      "name": "getStreamOwner",
      "outputs": [
        {
          "name": "owner",
          "type": "address"
        }
      ],
      "payable": false,
      "stateMutability": "view",
      "type": "function"
    }
  ],
  "bytecode": "0x60606040526000600755600060085560006009556000600a55600a600b556005600c55600a600d55341561003257600080fd5b6040516060806122dc833981016040528080519190602001805191906020018051600b54600c54600d5460008054600160a060020a03998a16600160a060020a0319918216811790925560048054998b1699821699909917909855600580549990951698881698909817909355600891909155600955600a555050600680549091169091179055612214806100c86000396000f3006060604052600436106101505763ffffffff60e060020a6000350416631cbcd9748114610155578063236b237c1461017a578063245694ad146101a25780632d883a73146101b857806332a65198146101f25780633af32abf146102055780633c1b12b6146102385780633ccfd60b146102575780633d188fab1461026a57806345d61ded1461028f57806349877038146102be578063522afaec146102dd57806359d5da89146102ff57806365d96c821461031e5780636eefcab91461033d57806383b7113e1461035c5780638f1d37761461037257806392f60b96146103bc57806399b6c1c6146103db578063a72b0d2d146103fa578063acb9982814610419578063afc2a9681461043b578063bde3672d1461045d578063de29ee681461047c578063e1ba7d0114610492578063f27ac4d9146104a5578063fc0c546a146104c7578063fe8cde34146104da575b600080fd5b341561016057600080fd5b6101686104ed565b60405190815260200160405180910390f35b341561018557600080fd5b6101a060048035906024803591604435918201910135610511565b005b34156101ad57600080fd5b6101a060043561064e565b34156101c357600080fd5b6101ce600435610653565b604051600160a060020a039283168152911660208201526040908101905180910390f35b34156101fd57600080fd5b61016861068b565b341561021057600080fd5b610224600160a060020a03600435166106af565b604051901515815260200160405180910390f35b341561024357600080fd5b610168600160a060020a036004351661071f565b341561026257600080fd5b6101a0610773565b341561027557600080fd5b6101a0600160a060020a036004351660243560443561086c565b341561029a57600080fd5b6102a26108a7565b604051600160a060020a03909116815260200160405180910390f35b34156102c957600080fd5b6101ce600160a060020a03600435166108b6565b34156102e857600080fd5b6101a0600160a060020a03600435166024356108d6565b341561030a57600080fd5b6101a0600160a060020a0360043516610b3c565b341561032957600080fd5b6102a2600160a060020a0360043516610cc8565b341561034857600080fd5b610224600160a060020a0360043516610ce3565b341561036757600080fd5b6101a0600435610d55565b341561037d57600080fd5b610388600435610d5a565b604051600160a060020a03948516815292151560208401526040808401929092529092166060820152608001905180910390f35b34156103c757600080fd5b6101a0600160a060020a0360043516610d92565b34156103e657600080fd5b6101a0600160a060020a03600435166112ad565b341561040557600080fd5b6102a2600160a060020a03600435166116a3565b341561042457600080fd5b610168600160a060020a03600435166024356116f7565b341561044657600080fd5b6101a0600160a060020a0360043516602435611a96565b341561046857600080fd5b6101a0600160a060020a0360043516611b0e565b341561048757600080fd5b6101a0600435611e20565b341561049d57600080fd5b610168611e25565b34156104b057600080fd5b6101a0600160a060020a0360043516602435611e2b565b34156104d257600080fd5b6102a26120b6565b34156104e557600080fd5b6102a26120c5565b7f57495448445241575f46554e44535f524f4c450000000000000000000000000081565b60085484101561052057600080fd5b600454600160a060020a03166323b872dd33308760405160e060020a63ffffffff8616028152600160a060020a0393841660048201529190921660248201526044810191909152606401602060405180830381600087803b151561058357600080fd5b5af1151561059057600080fd5b5050506040518051905015156105a557600080fd5b600554600160a060020a03166335012d7e33858730878760405160e060020a63ffffffff8916028152600160a060020a03808816600483019081526024830188905260448301879052908516606483015260a06084830190815260a48301849052909160c4018484808284378201915050975050505050505050600060405180830381600087803b151561063857600080fd5b5af1151561064557600080fd5b50505050505050565b600a55565b60008061068260028481548110151561066857fe5b600091825260209091200154600160a060020a03166108b6565b91509150915091565b7f4355524154455f4348414c4c454e47455f524f4c45000000000000000000000081565b600160a060020a038082166000908152600160205260408082205491929190911690633d9287fa90518163ffffffff1660e060020a028152600401602060405180830381600087803b151561070357600080fd5b5af1151561071057600080fd5b50505060405180519392505050565b600160a060020a03808216600090815260016020526040808220549192919091169063a035b1fe90518163ffffffff1660e060020a028152600401602060405180830381600087803b151561070357600080fd5b60007f57495448445241575f46554e44535f524f4c45000000000000000000000000006107a033826120d4565b15156107ab57600080fd5b600454600160a060020a033081168031945091169063a9059cbb9033903160405160e060020a63ffffffff8516028152600160a060020a0390921660048301526024820152604401602060405180830381600087803b151561080c57600080fd5b5af1151561081957600080fd5b50505060405180519050507f7084f5476618d8e60b11ef0d7d3f06914655adb8793e28ff7f018d4c76d505d53383604051600160a060020a03909216825260208201526040908101905180910390a15050565b82600160a060020a03167f2130e02bc65616aa7f8f548960f51a08a1d0ea94efb33611412208c2d0306a2260405160405180910390a2505050565b600054600160a060020a031681565b600160a060020a0390811660009081526001602052604090205416908190565b600160a060020a0380831660009081526001602052604090819020548216913316908290638da5cb5b90518163ffffffff1660e060020a028152600401602060405180830381600087803b151561092c57600080fd5b5af1151561093957600080fd5b50505060405180519050600160a060020a031614151561095857600080fd5b600454600160a060020a03166323b872dd33308560405160e060020a63ffffffff8616028152600160a060020a0393841660048201529190921660248201526044810191909152606401602060405180830381600087803b15156109bb57600080fd5b5af115156109c857600080fd5b5050506040518051905015156109dd57600080fd5b600160a060020a0381166335d9db538382633a4b66f16040518163ffffffff1660e060020a028152600401602060405180830381600087803b1515610a2157600080fd5b5af11515610a2e57600080fd5b505050604051805190500160405160e060020a63ffffffff84160281526004810191909152602401600060405180830381600087803b1515610a6f57600080fd5b5af11515610a7c57600080fd5b5050507f8b05844824acf2db2f068e4006ef99b307ca4fe1a896d06e884700f1a9da3a6d838383600160a060020a0316633a4b66f16040518163ffffffff1660e060020a028152600401602060405180830381600087803b1515610adf57600080fd5b5af11515610aec57600080fd5b505050604051805190506040518084600160a060020a0316600160a060020a03168152602001838152602001828152602001935050505060405180910390a1610b378360008061086c565b505050565b600160a060020a0381166000818152600160208190526040909120805473ffffffffffffffffffffffffffffffffffffffff19169092179091556002805483928101610b88838261217c565b506000918252602090912001805473ffffffffffffffffffffffffffffffffffffffff1916600160a060020a03848116919091179091557f7583fed51a2ab4e582c68d93e281e0fcc2601ef4a7491d1d2d2dc511f6a912799083908316633a4b66f16040518163ffffffff1660e060020a028152600401602060405180830381600087803b1515610c1857600080fd5b5af11515610c2557600080fd5b5050506040518051905083600160a060020a031663a035b1fe6040518163ffffffff1660e060020a028152600401602060405180830381600087803b1515610c6c57600080fd5b5af11515610c7957600080fd5b505050604051805190506040518084600160a060020a0316600160a060020a03168152602001838152602001828152602001935050505060405180910390a1610cc48260008061086c565b5050565b600160205260009081526040902054600160a060020a031681565b600160a060020a03808216600090815260016020526040808220549192839216906309af4fe690518163ffffffff1660e060020a028152600401602060405180830381600087803b1515610d3657600080fd5b5af11515610d4357600080fd5b50505060405180519050119050919050565b600855565b600360205260009081526040902080546001820154600290920154600160a060020a038083169360a060020a90930460ff1692911684565b600080600080610da06121a0565b60007f4355524154455f4348414c4c454e47455f524f4c450000000000000000000000610dcd33826120d4565b1515610dd857600080fd5b600160a060020a0380891660009081526001602052604090819020549091169750879063605cba8290518163ffffffff1660e060020a028152600401602060405180830381600087803b1515610e2d57600080fd5b5af11515610e3a57600080fd5b5050506040518051600a546004549198506064900488029650600160a060020a0316905063a9059cbb338760405160e060020a63ffffffff8516028152600160a060020a0390921660048301526024820152604401602060405180830381600087803b1515610ea857600080fd5b5af11515610eb557600080fd5b50505060405180515060009450505b86600160a060020a03166333a2cc016040518163ffffffff1660e060020a028152600401602060405180830381600087803b1515610f0157600080fd5b5af11515610f0e57600080fd5b505050604051805190508410156110fe576003600088600160a060020a031663c32e11028760405160e060020a63ffffffff84160281526004810191909152602401602060405180830381600087803b1515610f6957600080fd5b5af11515610f7657600080fd5b505050604051805190508152602001908152602001600020608060405190810160409081528254600160a060020a03808216845260a060020a90910460ff16151560208401526001840154918301919091526002909201548216606082015260045490945086880393501663a9059cbb8451888660400151811515610ff757fe5b04850260405160e060020a63ffffffff8516028152600160a060020a0390921660048301526024820152604401602060405180830381600087803b151561103d57600080fd5b5af1151561104a57600080fd5b505050604051805190505060016003600089600160a060020a031663c32e11028860405160e060020a63ffffffff84160281526004810191909152602401602060405180830381600087803b15156110a157600080fd5b5af115156110ae57600080fd5b50505060405180518252506020810191909152604001600020805491151560a060020a0274ff00000000000000000000000000000000000000001990921691909117905560019390930192610ec4565b86600160a060020a03166335d9db53600060405160e060020a63ffffffff84160281526004810191909152602401600060405180830381600087803b151561114557600080fd5b5af1151561115257600080fd5b50505086600160a060020a0316636de149f5600060405160e060020a63ffffffff84160281526004810191909152602401600060405180830381600087803b151561119c57600080fd5b5af115156111a957600080fd5b50505086600160a060020a03166331ec7fce600060405160e060020a63ffffffff84160281526004810191909152602401600060405180830381600087803b15156111f357600080fd5b5af1151561120057600080fd5b50505086600160a060020a0316637b789204600060405160e060020a63ffffffff84160281529015156004820152602401600060405180830381600087803b151561124a57600080fd5b5af1151561125757600080fd5b5050507f9d9f99a36ef64966814c1f89a7a64fcb0132cbd085184a9666469302f32b92c488604051600160a060020a03909116815260200160405180910390a16112a38860008061086c565b5050505050505050565b6000806000807f4355524154455f4348414c4c454e47455f524f4c4500000000000000000000006112de33826120d4565b15156112e957600080fd5b600160a060020a0380871660009081526001602052604090819020549091169550859063605cba8290518163ffffffff1660e060020a028152600401602060405180830381600087803b151561133e57600080fd5b5af1151561134b57600080fd5b5050506040518051600a546004549196506064900486029450600160a060020a0316905063a9059cbb338560405160e060020a63ffffffff8516028152600160a060020a0390921660048301526024820152604401602060405180830381600087803b15156113b957600080fd5b5af115156113c657600080fd5b50505060405180515050600454600160a060020a039081169063a9059cbb908716638da5cb5b6040518163ffffffff1660e060020a028152600401602060405180830381600087803b151561141a57600080fd5b5af1151561142757600080fd5b50505060405180519050611441878763ffffffff61216a16565b60405160e060020a63ffffffff8516028152600160a060020a0390921660048301526024820152604401602060405180830381600087803b151561148457600080fd5b5af1151561149157600080fd5b50505060405180515060009250505b84600160a060020a03166333a2cc016040518163ffffffff1660e060020a028152600401602060405180830381600087803b15156114dd57600080fd5b5af115156114ea57600080fd5b505050604051805190508210156115a45760016003600087600160a060020a031663c32e11028660405160e060020a63ffffffff84160281526004810191909152602401602060405180830381600087803b151561154757600080fd5b5af1151561155457600080fd5b50505060405180518252506020810191909152604001600020805491151560a060020a0274ff000000000000000000000000000000000000000019909216919091179055600191909101906114a0565b84600160a060020a03166331ec7fce600060405160e060020a63ffffffff84160281526004810191909152602401600060405180830381600087803b15156115eb57600080fd5b5af115156115f857600080fd5b50505084600160a060020a0316636de149f5600060405160e060020a63ffffffff84160281526004810191909152602401600060405180830381600087803b151561164257600080fd5b5af1151561164f57600080fd5b5050507f125014e75e2aead4a1c8a35e9bb786a430fc1ba6354cbd9845802d3603abd0b086604051600160a060020a03909116815260200160405180910390a161169b8660008061086c565b505050505050565b600160a060020a038082166000908152600160205260408082205491929190911690638da5cb5b90518163ffffffff1660e060020a028152600401602060405180830381600087803b151561070357600080fd5b6000806117026121a0565b60095484101561171157600080fd5b600160a060020a0380861660009081526001602052604090819020546004549083169450909116906323b872dd903390309088905160e060020a63ffffffff8616028152600160a060020a0393841660048201529190921660248201526044810191909152606401602060405180830381600087803b151561179257600080fd5b5af1151561179f57600080fd5b5050506040518051905015156117b457600080fd5b6007805460010190819055925060806040519081016040908152600160a060020a03338116835260006020808501829052838501899052918916606085015286815260039091522090915081908151815473ffffffffffffffffffffffffffffffffffffffff1916600160a060020a03919091161781556020820151815490151560a060020a0274ff000000000000000000000000000000000000000019909116178155604082015181600101556060820151600291909101805473ffffffffffffffffffffffffffffffffffffffff1916600160a060020a03928316179055831690506331ec7fce816309af4fe66040518163ffffffff1660e060020a028152600401602060405180830381600087803b15156118d157600080fd5b5af115156118de57600080fd5b5050506040518051905060010160405160e060020a63ffffffff84160281526004810191909152602401600060405180830381600087803b151561192157600080fd5b5af1151561192e57600080fd5b50505081600160a060020a03166332fd14418460405160e060020a63ffffffff84160281526004810191909152602401600060405180830381600087803b151561197757600080fd5b5af1151561198457600080fd5b505050600160a060020a038216636de149f5858263605cba826040518163ffffffff1660e060020a028152600401602060405180830381600087803b15156119cb57600080fd5b5af115156119d857600080fd5b505050604051805190500160405160e060020a63ffffffff84160281526004810191909152602401600060405180830381600087803b1515611a1957600080fd5b5af11515611a2657600080fd5b5050507fe0c6c1f959ea19af04f1a1862f00c826f9aab9ca9ed5fe3798051f78560bee3a8585856040518084600160a060020a0316600160a060020a03168152602001838152602001828152602001935050505060405180910390a1611a8e8560008061086c565b505092915050565b600160a060020a038083166000908152600160205260409081902054909116906391b7f5ed9083905160e060020a63ffffffff84160281526004810191909152602401600060405180830381600087803b1515611af257600080fd5b5af11515611aff57600080fd5b505050610cc48260008061086c565b600160a060020a038082166000908152600160205260409081902054909116908190638da5cb5b90518163ffffffff1660e060020a028152600401602060405180830381600087803b1515611b6257600080fd5b5af11515611b6f57600080fd5b50505060405180519050600160a060020a031633600160a060020a0316141515611b9857600080fd5b611ba1826106af565b1515611bac57600080fd5b80600160a060020a03166309af4fe66040518163ffffffff1660e060020a028152600401602060405180830381600087803b1515611be957600080fd5b5af11515611bf657600080fd5b5050506040518051159050611c0a57600080fd5b600081600160a060020a0316633a4b66f16040518163ffffffff1660e060020a028152600401602060405180830381600087803b1515611c4957600080fd5b5af11515611c5657600080fd5b505050604051805190501115611d8057600454600160a060020a039081169063a9059cbb908316638da5cb5b6040518163ffffffff1660e060020a028152600401602060405180830381600087803b1515611cb057600080fd5b5af11515611cbd57600080fd5b5050506040518051905083600160a060020a0316633a4b66f16040518163ffffffff1660e060020a028152600401602060405180830381600087803b1515611d0457600080fd5b5af11515611d1157600080fd5b5050506040518051905060405160e060020a63ffffffff8516028152600160a060020a0390921660048301526024820152604401602060405180830381600087803b1515611d5e57600080fd5b5af11515611d6b57600080fd5b505050604051805190501515611d8057600080fd5b80600160a060020a0316637b789204600060405160e060020a63ffffffff84160281529015156004820152602401600060405180830381600087803b1515611dc757600080fd5b5af11515611dd457600080fd5b5050507fc48322c2e165c864176005884983dd81c87a9fc8258ca6a1967d17b26cd8d0e382604051600160a060020a03909116815260200160405180910390a1610cc48260008061086c565b600955565b60025490565b600160a060020a0380831660009081526001602052604080822054909216918290633a4b66f190518163ffffffff1660e060020a028152600401602060405180830381600087803b1515611e7e57600080fd5b5af11515611e8b57600080fd5b50505060405180519050905033600160a060020a031682600160a060020a0316638da5cb5b6040518163ffffffff1660e060020a028152600401602060405180830381600087803b1515611ede57600080fd5b5af11515611eeb57600080fd5b50505060405180519050600160a060020a0316141515611f0a57600080fd5b80831115611f1757600080fd5b6008548382031015611f2857600080fd5b600454600160a060020a031663a9059cbb338560405160e060020a63ffffffff8516028152600160a060020a0390921660048301526024820152604401602060405180830381600087803b1515611f7e57600080fd5b5af11515611f8b57600080fd5b505050604051805190501515611fa057600080fd5b81600160a060020a03166335d9db5384830360405160e060020a63ffffffff84160281526004810191909152602401600060405180830381600087803b1515611fe857600080fd5b5af11515611ff557600080fd5b5050507f5ee9537083cb767f9e599a17876a9c597197deba435082e0b88c4da925d4599e848484600160a060020a0316633a4b66f16040518163ffffffff1660e060020a028152600401602060405180830381600087803b151561205857600080fd5b5af1151561206557600080fd5b505050604051805190506040518084600160a060020a0316600160a060020a03168152602001838152602001828152602001935050505060405180910390a16120b08460008061086c565b50505050565b600454600160a060020a031681565b600554600160a060020a031681565b60008054600160a060020a031615806121635750600054600160a060020a0316636d6712d884308560405160e060020a63ffffffff8616028152600160a060020a0393841660048201529190921660248201526044810191909152606401602060405180830381600087803b151561214b57600080fd5b5af1151561215857600080fd5b505050604051805190505b9392505050565b60008282111561217657fe5b50900390565b815481835581811511610b3757600083815260209020610b379181019083016121c7565b60806040519081016040908152600080835260208301819052908201819052606082015290565b6121e591905b808211156121e157600081556001016121cd565b5090565b905600a165627a7a723058205f477d7c5bb661da08c29c8ded03de8d2c1c3ab92badd4c028b76cf51f453a8f0029",
  "source": "pragma solidity ^0.4.17;\n\nimport \"@settlemint/solidity-mint/contracts/marketplaces/tokencuratedregistry/TokenCuratedRegistry.sol\";\nimport \"@settlemint/solidity-mint/contracts/marketplaces/tokensystem/Token.sol\";\n\n\ncontract StreamRegistry is TokenCuratedRegistry {\n\n  // Initial values, these can be changed with setters\n  uint MIN_ENLIST_AMOUNT = 10;\n  uint MIN_CHALLENGE_AMOUNT = 5;\n  uint ADMIN_PERCENTAGE = 10;\n\n  /**\n  @dev Contructor\n  @notice                Sets the address for token\n  @param _gateKeeper     Address of the gatekeeper\n  @param _token          Address of the token\n  */\n  function StreamRegistry(\n    address _gateKeeper,\n    address _token,\n    address _listingFactory\n  )\n    TokenCuratedRegistry(\n      _gateKeeper,\n      _token,\n      _listingFactory,\n      MIN_ENLIST_AMOUNT,\n      MIN_CHALLENGE_AMOUNT,\n      ADMIN_PERCENTAGE\n    )\n    public\n  {}\n\n  /**\n  @notice                Gets the price of a stream\n  @param _listing        key of the listing\n  */\n  function getStreamPrice(address _listing) view public returns (uint price) {\n    return IListing(listings[_listing]).price();\n  }\n\n  /**\n  @notice                Gets the owner of a stream\n  @param _listing        key of the listing\n  */\n  function getStreamOwner(address _listing) view public returns (address owner) {\n    return IListing(listings[_listing]).owner();\n  }\n}\n",
  "sourcePath": "/Users/peterjanbrone/databrokerdao/databrokerdao-dapi/contracts/stream/StreamRegistry.sol",
  "compiler": {
    "name": "solc",
    "version": "0.4.21+commit.dfe3193c.Emscripten.clang"
  },
  "schemaVersion": "2.0.0",
  "updatedAt": "2018-03-15T14:01:25.771Z"
}