{
  "contractName": "StreamPurchasing",
  "abi": [
    {
      "constant": true,
      "inputs": [],
      "name": "gateKeeper",
      "outputs": [
        {
          "name": "",
          "type": "address"
        }
      ],
      "payable": false,
      "stateMutability": "view",
      "type": "function"
    },
    {
      "constant": true,
      "inputs": [
        {
          "name": "",
          "type": "bytes32"
        }
      ],
      "name": "streams",
      "outputs": [
        {
          "name": "pricePerSecond",
          "type": "uint256"
        }
      ],
      "payable": false,
      "stateMutability": "view",
      "type": "function"
    },
    {
      "constant": true,
      "inputs": [],
      "name": "token",
      "outputs": [
        {
          "name": "",
          "type": "address"
        }
      ],
      "payable": false,
      "stateMutability": "view",
      "type": "function"
    },
    {
      "inputs": [
        {
          "name": "_gateKeeper",
          "type": "address"
        },
        {
          "name": "_token",
          "type": "address"
        },
        {
          "name": "_streamRegistry",
          "type": "address"
        }
      ],
      "payable": false,
      "stateMutability": "nonpayable",
      "type": "constructor"
    },
    {
      "anonymous": false,
      "inputs": [
        {
          "indexed": false,
          "name": "listing",
          "type": "bytes32"
        },
        {
          "indexed": false,
          "name": "user",
          "type": "address"
        },
        {
          "indexed": false,
          "name": "startTime",
          "type": "uint256"
        },
        {
          "indexed": false,
          "name": "endTime",
          "type": "uint256"
        },
        {
          "indexed": false,
          "name": "price",
          "type": "uint256"
        }
      ],
      "name": "AccessPurchased",
      "type": "event"
    },
    {
      "anonymous": false,
      "inputs": [
        {
          "indexed": true,
          "name": "key",
          "type": "address"
        }
      ],
      "name": "AddressCacheInvalidated",
      "type": "event"
    },
    {
      "anonymous": false,
      "inputs": [
        {
          "indexed": true,
          "name": "key",
          "type": "bytes32"
        }
      ],
      "name": "Bytes32CacheInvalidated",
      "type": "event"
    },
    {
      "anonymous": false,
      "inputs": [
        {
          "indexed": true,
          "name": "key",
          "type": "uint256"
        }
      ],
      "name": "Uint256CacheInvalidated",
      "type": "event"
    },
    {
      "constant": false,
      "inputs": [
        {
          "name": "_stream",
          "type": "bytes32"
        },
        {
          "name": "_endTime",
          "type": "uint256"
        }
      ],
      "name": "purchaseAccess",
      "outputs": [],
      "payable": false,
      "stateMutability": "nonpayable",
      "type": "function"
    },
    {
      "constant": false,
      "inputs": [
        {
          "name": "_salePercentage",
          "type": "uint256"
        }
      ],
      "name": "setSalePercentage",
      "outputs": [],
      "payable": false,
      "stateMutability": "nonpayable",
      "type": "function"
    },
    {
      "constant": true,
      "inputs": [],
      "name": "getIndexLength",
      "outputs": [
        {
          "name": "length",
          "type": "uint256"
        }
      ],
      "payable": false,
      "stateMutability": "view",
      "type": "function"
    },
    {
      "constant": true,
      "inputs": [
        {
          "name": "index",
          "type": "uint256"
        }
      ],
      "name": "getByIndex",
      "outputs": [
        {
          "name": "key",
          "type": "bytes32"
        },
        {
          "name": "contractAddress",
          "type": "address"
        }
      ],
      "payable": false,
      "stateMutability": "view",
      "type": "function"
    },
    {
      "constant": true,
      "inputs": [
        {
          "name": "_key",
          "type": "bytes32"
        }
      ],
      "name": "getByKey",
      "outputs": [
        {
          "name": "key",
          "type": "bytes32"
        },
        {
          "name": "",
          "type": "address"
        }
      ],
      "payable": false,
      "stateMutability": "view",
      "type": "function"
    },
    {
      "constant": false,
      "inputs": [
        {
          "name": "",
          "type": "address"
        },
        {
          "name": "_cachedBytes32",
          "type": "bytes32"
        },
        {
          "name": "",
          "type": "uint256"
        }
      ],
      "name": "invalidateCache",
      "outputs": [],
      "payable": false,
      "stateMutability": "nonpayable",
      "type": "function"
    }
  ],
  "bytecode": "0x60606040526001600755341561001457600080fd5b60405160608061072383398101604052808051919060200180519190602001805160008054600160a060020a0319908116600160a060020a039788161782556001805482163089161790557f53747265616d50757263686173696e6700000000000000000000000000000000600255600580548216968816969096179095556006805490951691909516179092555061066f918291506100b490396000f30060606040526004361061007f5763ffffffff60e060020a6000350416632d883a7381146100845780633d188fab146100bb57806345d61ded146100e25780634a91da901461011157806372cc9850146101275780637f7bd2df1461013d57806399233ded14610165578063e1ba7d011461017e578063fc0c546a14610191575b600080fd5b341561008f57600080fd5b61009a6004356101a4565b604051918252600160a060020a031660208201526040908101905180910390f35b34156100c657600080fd5b6100e0600160a060020a03600435166024356044356101d3565b005b34156100ed57600080fd5b6100f561020d565b604051600160a060020a03909116815260200160405180910390f35b341561011c57600080fd5b61009a60043561021c565b341561013257600080fd5b6100e0600435610222565b341561014857600080fd5b610153600435610227565b60405190815260200160405180910390f35b341561017057600080fd5b6100e0600435602435610239565b341561018957600080fd5b610153610517565b341561019c57600080fd5b6100f561051d565b6000806101ca6004848154811015156101b957fe5b90600052602060002090015461021c565b91509150915091565b817fd5c977477c90fd6c009dd3275798b51da8bd2df8e0a25be47773f87b53d2e39960405160405180910390a261020861052c565b505050565b600054600160a060020a031681565b90600090565b600755565b60036020526000908152604090205481565b6000828152600360209081526040808320600160a060020a0333168452600181019092528220549091908190819081901561027357600080fd5b600654600160a060020a0316637bf8d4018860006040516020015260405160e060020a63ffffffff84160281526004810191909152602401602060405180830381600087803b15156102c457600080fd5b6102c65a03f115156102d557600080fd5b5050506040518051945042935061030490506102f7878563ffffffff6105a416565b859063ffffffff6105b616565b915061032c61031f60646007546105ec90919063ffffffff16565b839063ffffffff6105b616565b600554600654919250600160a060020a03908116916323b872dd91339116630bb786de8b60006040516020015260405160e060020a63ffffffff84160281526004810191909152602401602060405180830381600087803b151561038f57600080fd5b6102c65a03f115156103a057600080fd5b505050604051805190506103ba868663ffffffff6105a416565b60006040516020015260405160e060020a63ffffffff8616028152600160a060020a0393841660048201529190921660248201526044810191909152606401602060405180830381600087803b151561041257600080fd5b6102c65a03f1151561042357600080fd5b50505060405180519050151561043857600080fd5b60206040519081016040908152878252600160a060020a033316600090815260018801602052208151905550600285018054600181016104788382610603565b506000918252602090912001805473ffffffffffffffffffffffffffffffffffffffff191633600160a060020a038116919091179091557f3d3d9c8ca0368ab310bf974baa26a0adedd100d14d142932132dd52f27eb617c908890858986604051948552600160a060020a0390931660208501526040808501929092526060840152608083019190915260a0909101905180910390a150505050505050565b60045490565b600554600160a060020a031681565b600154600254600160a060020a0390911690633d188fab906000908160405160e060020a63ffffffff8616028152600160a060020a03909316600484015260248301919091526044820152606401600060405180830381600087803b151561059357600080fd5b6102c65a03f1151561020857600080fd5b6000828211156105b057fe5b50900390565b6000808315156105c957600091506105e5565b508282028284828115156105d957fe5b04146105e157fe5b8091505b5092915050565b60008082848115156105fa57fe5b04949350505050565b8154818355818115116102085760008381526020902061020891810190830161064091905b8082111561063c5760008155600101610628565b5090565b905600a165627a7a72305820d0eb7e6f9e5efcef746337e1071291d5ed212ba3ff3a870738c49912bc9dc2e20029",
  "source": "pragma solidity ^0.4.17;\n\nimport \"./StreamRegistry.sol\";\nimport \"./dtxtoken/DtxToken.sol\";\nimport \"@settlemint/solidity-mint/contracts/authentication/Secured.sol\";\nimport \"@settlemint/solidity-mint/contracts/utility/syncing/Syncable.sol\";\nimport \"@settlemint/solidity-mint/contracts/utility/caching/Cacher.sol\";\nimport \"@settlemint/solidity-mint/contracts/utility/caching/CachedByBytes32.sol\";\nimport \"zeppelin-solidity/contracts/math/SafeMath.sol\";\n\n\ncontract StreamPurchasing is Secured, Syncable, Cacher, CachedByBytes32 {\n  using SafeMath for uint256;\n\n  event AccessPurchased(bytes32 listing, address user, uint startTime, uint endTime, uint price);\n\n  struct Stream {\n    uint pricePerSecond;\n    mapping (address => Purchase) purchases; // the list of purchases\n    address[] purchasers; // a list of all the keys in the mapping\n  }\n\n  struct Purchase {\n    uint endTime; // the time at which the purchaser will lose access to this Stream\n  }\n\n  mapping (bytes32 => Stream) public streams;\n  bytes32[] streamsIndex;\n\n  DtxToken public token;\n  StreamRegistry streamRegistry;\n  uint salePercentage = 1;\n\n  /**\n  @dev Contructor\n  @notice                Sets the address for token\n  @param _gateKeeper     Address of the gatekeeper\n  @param _token          Address of the token\n  */\n  function StreamPurchasing(\n    address _gateKeeper,\n    address _token,\n    address _streamRegistry\n  )\n    Secured(_gateKeeper)\n    CachedByBytes32(\"StreamPurchasing\", this)\n    public\n  {\n    token = DtxToken(_token);\n    streamRegistry = StreamRegistry(_streamRegistry);\n  }\n\n  /**\n  @notice               Lets the sender buy access to the Stream\n  @param _stream        Id of the listing\n  @param _endTime       Timestamp of when the user will stop receiving Stream readings in seconds (not milliseconds!)\n  */\n  function purchaseAccess(bytes32 _stream, uint _endTime) public {\n    Stream storage stream = streams[_stream];\n\n    // Check if user doesn't have access to this stream yet\n    require(stream.purchases[msg.sender].endTime == 0);\n\n    // Calculate total cost for the user\n    uint _streamPricePerSecond = streamRegistry.getStreamPrice(_stream);\n    uint _startTime = now;\n    uint _streamPrice = _streamPricePerSecond.mul(_endTime.sub(_startTime));\n\n    // Pay out:\n    uint _salePercentage = _streamPrice.mul(salePercentage.div(100));\n    // Sensor owner\n    require(token.transferFrom(msg.sender, streamRegistry.getStreamOwner(_stream), _streamPrice.sub(_salePercentage)));\n    // DBDAO\n    // require(token.transferFrom(msg.sender, this, _salePercentage));\n\n    // Add purchase\n    stream.purchases[msg.sender] = Purchase({\n      endTime: _endTime\n    });\n\n    // Add sender to the purchasers array\n    stream.purchasers.push(msg.sender);\n\n    AccessPurchased(_stream, msg.sender, _startTime, _endTime, _streamPrice);\n  }\n\n  /**\n  @notice                Sets the sale percentage\n  @param _salePercentage salePercentage\n  */\n  function setSalePercentage(uint _salePercentage) public {\n    salePercentage = _salePercentage;\n  }\n\n  /**\n  * implementation of syncable methods\n  */\n  function getIndexLength() public view returns (uint length) {\n    length = streamsIndex.length;\n  }\n\n  function getByIndex(uint index) public view returns (bytes32 key, address contractAddress) {\n    return getByKey(streamsIndex[index]);\n  }\n\n  function getByKey(bytes32 _key) public view returns (bytes32 key, address /*contractAddress*/) {\n    key = _key;\n  }\n\n  /**\n  * implementation of cacher methods\n  */\n  function invalidateCache(address /*_cachedAddress*/, bytes32 _cachedBytes32, uint256 /*_cachedUint256*/) public {\n    Bytes32CacheInvalidated(_cachedBytes32);\n    super.invalidateCache();\n  }\n}\n",
  "sourcePath": "/Users/silkevandenbroeck/databrokerDAO/databrokerdao-dapi/contracts/StreamPurchasing.sol",
  "compiler": {
    "name": "solc",
    "version": "0.4.20+commit.3155dd80.Emscripten.clang"
  },
  "schemaVersion": "1.0.1",
  "updatedAt": "2018-02-19T08:47:21.235Z"
}