{
  "contractName": "Stream",
  "abi": [
    {
      "constant": true,
      "inputs": [],
      "name": "challenges",
      "outputs": [
        {
          "name": "",
          "type": "uint256"
        }
      ],
      "payable": false,
      "stateMutability": "view",
      "type": "function"
    },
    {
      "constant": false,
      "inputs": [
        {
          "name": "_challenges",
          "type": "uint256"
        }
      ],
      "name": "setChallenges",
      "outputs": [],
      "payable": false,
      "stateMutability": "nonpayable",
      "type": "function"
    },
    {
      "constant": false,
      "inputs": [
        {
          "name": "_challengeID",
          "type": "uint256"
        }
      ],
      "name": "addChallengeID",
      "outputs": [],
      "payable": false,
      "stateMutability": "nonpayable",
      "type": "function"
    },
    {
      "constant": false,
      "inputs": [],
      "name": "getChallengeIDsLength",
      "outputs": [
        {
          "name": "length",
          "type": "uint256"
        }
      ],
      "payable": false,
      "stateMutability": "nonpayable",
      "type": "function"
    },
    {
      "constant": false,
      "inputs": [
        {
          "name": "_stake",
          "type": "uint256"
        }
      ],
      "name": "setStake",
      "outputs": [],
      "payable": false,
      "stateMutability": "nonpayable",
      "type": "function"
    },
    {
      "constant": true,
      "inputs": [],
      "name": "metadata",
      "outputs": [
        {
          "name": "",
          "type": "string"
        }
      ],
      "payable": false,
      "stateMutability": "view",
      "type": "function"
    },
    {
      "constant": true,
      "inputs": [],
      "name": "stake",
      "outputs": [
        {
          "name": "",
          "type": "uint256"
        }
      ],
      "payable": false,
      "stateMutability": "view",
      "type": "function"
    },
    {
      "constant": true,
      "inputs": [],
      "name": "whitelisted",
      "outputs": [
        {
          "name": "",
          "type": "bool"
        }
      ],
      "payable": false,
      "stateMutability": "view",
      "type": "function"
    },
    {
      "constant": true,
      "inputs": [],
      "name": "gateKeeper",
      "outputs": [
        {
          "name": "",
          "type": "address"
        }
      ],
      "payable": false,
      "stateMutability": "view",
      "type": "function"
    },
    {
      "constant": false,
      "inputs": [
        {
          "name": "ipfsHash",
          "type": "string"
        }
      ],
      "name": "updateMetaData",
      "outputs": [],
      "payable": false,
      "stateMutability": "nonpayable",
      "type": "function"
    },
    {
      "constant": true,
      "inputs": [],
      "name": "challengesStake",
      "outputs": [
        {
          "name": "",
          "type": "uint256"
        }
      ],
      "payable": false,
      "stateMutability": "view",
      "type": "function"
    },
    {
      "constant": false,
      "inputs": [
        {
          "name": "_challengesStake",
          "type": "uint256"
        }
      ],
      "name": "setChallengesStake",
      "outputs": [],
      "payable": false,
      "stateMutability": "nonpayable",
      "type": "function"
    },
    {
      "constant": false,
      "inputs": [
        {
          "name": "_whitelisted",
          "type": "bool"
        }
      ],
      "name": "setWhitelisted",
      "outputs": [],
      "payable": false,
      "stateMutability": "nonpayable",
      "type": "function"
    },
    {
      "constant": true,
      "inputs": [
        {
          "name": "",
          "type": "address"
        }
      ],
      "name": "purchases",
      "outputs": [
        {
          "name": "",
          "type": "address"
        }
      ],
      "payable": false,
      "stateMutability": "view",
      "type": "function"
    },
    {
      "constant": true,
      "inputs": [],
      "name": "owner",
      "outputs": [
        {
          "name": "",
          "type": "address"
        }
      ],
      "payable": false,
      "stateMutability": "view",
      "type": "function"
    },
    {
      "constant": false,
      "inputs": [
        {
          "name": "_price",
          "type": "uint256"
        }
      ],
      "name": "setPrice",
      "outputs": [],
      "payable": false,
      "stateMutability": "nonpayable",
      "type": "function"
    },
    {
      "constant": true,
      "inputs": [],
      "name": "price",
      "outputs": [
        {
          "name": "",
          "type": "uint256"
        }
      ],
      "payable": false,
      "stateMutability": "view",
      "type": "function"
    },
    {
      "constant": true,
      "inputs": [
        {
          "name": "",
          "type": "uint256"
        }
      ],
      "name": "challengeIDs",
      "outputs": [
        {
          "name": "",
          "type": "uint256"
        }
      ],
      "payable": false,
      "stateMutability": "view",
      "type": "function"
    },
    {
      "constant": true,
      "inputs": [
        {
          "name": "",
          "type": "uint256"
        }
      ],
      "name": "purchasesIndex",
      "outputs": [
        {
          "name": "",
          "type": "address"
        }
      ],
      "payable": false,
      "stateMutability": "view",
      "type": "function"
    },
    {
      "constant": false,
      "inputs": [
        {
          "name": "_index",
          "type": "uint256"
        }
      ],
      "name": "getChallengeIDAtIndex",
      "outputs": [
        {
          "name": "challengeID",
          "type": "uint256"
        }
      ],
      "payable": false,
      "stateMutability": "nonpayable",
      "type": "function"
    },
    {
      "constant": true,
      "inputs": [],
      "name": "UPDATE_METADATA_ROLE",
      "outputs": [
        {
          "name": "",
          "type": "bytes32"
        }
      ],
      "payable": false,
      "stateMutability": "view",
      "type": "function"
    },
    {
      "inputs": [
        {
          "name": "_owner",
          "type": "address"
        },
        {
          "name": "_price",
          "type": "uint256"
        },
        {
          "name": "_stakeAmount",
          "type": "uint256"
        },
        {
          "name": "_gateKeeper",
          "type": "address"
        }
      ],
      "payable": false,
      "stateMutability": "nonpayable",
      "type": "constructor"
    },
    {
      "anonymous": false,
      "inputs": [
        {
          "indexed": true,
          "name": "key",
          "type": "address"
        }
      ],
      "name": "AddressCacheInvalidated",
      "type": "event"
    },
    {
      "anonymous": false,
      "inputs": [
        {
          "indexed": true,
          "name": "key",
          "type": "bytes32"
        }
      ],
      "name": "Bytes32CacheInvalidated",
      "type": "event"
    },
    {
      "anonymous": false,
      "inputs": [
        {
          "indexed": true,
          "name": "key",
          "type": "uint256"
        }
      ],
      "name": "Uint256CacheInvalidated",
      "type": "event"
    },
    {
      "constant": false,
      "inputs": [
        {
          "name": "_purchase",
          "type": "address"
        },
        {
          "name": "_purchaser",
          "type": "address"
        }
      ],
      "name": "addPurchase",
      "outputs": [],
      "payable": false,
      "stateMutability": "nonpayable",
      "type": "function"
    },
    {
      "constant": true,
      "inputs": [
        {
          "name": "_purchaser",
          "type": "address"
        }
      ],
      "name": "hasAccess",
      "outputs": [
        {
          "name": "access",
          "type": "bool"
        }
      ],
      "payable": false,
      "stateMutability": "view",
      "type": "function"
    },
    {
      "constant": false,
      "inputs": [
        {
          "name": "_cachedAddress",
          "type": "address"
        },
        {
          "name": "",
          "type": "bytes32"
        },
        {
          "name": "",
          "type": "uint256"
        }
      ],
      "name": "invalidateCache",
      "outputs": [],
      "payable": false,
      "stateMutability": "nonpayable",
      "type": "function"
    },
    {
      "constant": true,
      "inputs": [],
      "name": "getIndexLength",
      "outputs": [
        {
          "name": "length",
          "type": "uint256"
        }
      ],
      "payable": false,
      "stateMutability": "view",
      "type": "function"
    },
    {
      "constant": true,
      "inputs": [
        {
          "name": "index",
          "type": "uint256"
        }
      ],
      "name": "getByIndex",
      "outputs": [
        {
          "name": "key",
          "type": "address"
        },
        {
          "name": "contractAddress",
          "type": "address"
        }
      ],
      "payable": false,
      "stateMutability": "view",
      "type": "function"
    },
    {
      "constant": true,
      "inputs": [
        {
          "name": "_key",
          "type": "address"
        }
      ],
      "name": "getByKey",
      "outputs": [
        {
          "name": "key",
          "type": "address"
        },
        {
          "name": "contractAddress",
          "type": "address"
        }
      ],
      "payable": false,
      "stateMutability": "view",
      "type": "function"
    }
  ],
  "bytecode": "0x606060405260006003819055600481905560058190556007556008805460ff19166001179055341561003057600080fd5b604051608080610a868339810160405280805191906020018051919060200180519190602001805160008054600160a060020a03928316600160a060020a03199182161790915560018054308416921691909117905560088054919096166101000261010060a860020a03199091161790945550600391909155600455506109c9806100bd6000396000f3006060604052600436106101455763ffffffff60e060020a60003504166309af4fe6811461014a5780632d883a731461016f57806331ec7fce146101a957806332fd1441146101c157806333a2cc01146101d757806335d9db53146101ea578063392f37e9146102005780633a4b66f11461028a5780633d188fab1461029d5780633d9287fa146102c257806345d61ded146102e957806349877038146103185780635cc0750514610337578063605cba82146103885780636de149f51461039b5780637b789204146103b1578063842a77d3146103c95780638da5cb5b146103e857806390a4b8d5146103fb57806391b7f5ed1461042057806395a078e814610436578063a035b1fe14610455578063b4f8c54214610468578063b8e52d871461047e578063c32e110214610494578063e1ba7d01146104aa578063fff139cf146104bd575b600080fd5b341561015557600080fd5b61015d6104d0565b60405190815260200160405180910390f35b341561017a57600080fd5b6101856004356104d6565b604051600160a060020a039283168152911660208201526040908101905180910390f35b34156101b457600080fd5b6101bf60043561050e565b005b34156101cc57600080fd5b6101bf600435610513565b34156101e257600080fd5b61015d610534565b34156101f557600080fd5b6101bf60043561053b565b341561020b57600080fd5b610213610540565b60405160208082528190810183818151815260200191508051906020019080838360005b8381101561024f578082015183820152602001610237565b50505050905090810190601f16801561027c5780820380516001836020036101000a031916815260200191505b509250505060405180910390f35b341561029557600080fd5b61015d6105de565b34156102a857600080fd5b6101bf600160a060020a03600435166024356044356105e4565b34156102cd57600080fd5b6102d561061f565b604051901515815260200160405180910390f35b34156102f457600080fd5b6102fc610628565b604051600160a060020a03909116815260200160405180910390f35b341561032357600080fd5b610185600160a060020a0360043516610637565b341561034257600080fd5b6101bf60046024813581810190830135806020601f8201819004810201604051908101604052818152929190602084018383808284375094965061065795505050505050565b341561039357600080fd5b61015d61066b565b34156103a657600080fd5b6101bf600435610671565b34156103bc57600080fd5b6101bf6004351515610676565b34156103d457600080fd5b6102fc600160a060020a0360043516610689565b34156103f357600080fd5b6102fc6106a4565b341561040657600080fd5b6101bf600160a060020a03600435811690602435166106b8565b341561042b57600080fd5b6101bf60043561073f565b341561044157600080fd5b6102d5600160a060020a0360043516610744565b341561046057600080fd5b61015d6107c6565b341561047357600080fd5b61015d6004356107cc565b341561048957600080fd5b6102fc6004356107eb565b341561049f57600080fd5b61015d600435610813565b34156104b557600080fd5b61015d610837565b34156104c857600080fd5b61015d61083d565b60055481565b600080610505600a848154811015156104eb57fe5b600091825260209091200154600160a060020a0316610637565b91509150915091565b600555565b600680546001810161052583826108e1565b50600091825260209091200155565b6006545b90565b600455565b60028054600181600116156101000203166002900480601f0160208091040260200160405190810160405280929190818152602001828054600181600116156101000203166002900480156105d65780601f106105ab576101008083540402835291602001916105d6565b820191906000526020600020905b8154815290600101906020018083116105b957829003601f168201915b505050505081565b60045481565b82600160a060020a03167f2130e02bc65616aa7f8f548960f51a08a1d0ea94efb33611412208c2d0306a2260405160405180910390a2505050565b60085460ff1681565b600054600160a060020a031681565b600160a060020a0390811660009081526009602052604090205416908190565b61066081610861565b610668610878565b50565b60075481565b600755565b6008805460ff1916911515919091179055565b600960205260009081526040902054600160a060020a031681565b6008546101009004600160a060020a031681565b600160a060020a038181166000908152600960205260409020805473ffffffffffffffffffffffffffffffffffffffff1916918416919091179055600a80546001810161070583826108e1565b506000918252602090912001805473ffffffffffffffffffffffffffffffffffffffff1916600160a060020a039290921691909117905550565b600355565b600160a060020a038082166000908152600960205260408082205491929190911690633197cbb690518163ffffffff1660e060020a028152600401602060405180830381600087803b151561079857600080fd5b5af115156107a557600080fd5b5050506040518051151590506107bd575060006107c1565b5060015b919050565b60035481565b60068054829081106107da57fe5b600091825260209091200154905081565b600a8054829081106107f957fe5b600091825260209091200154600160a060020a0316905081565b600060068281548110151561082457fe5b9060005260206000209001549050919050565b600a5490565b7f5550444154455f4d455441444154415f524f4c4500000000000000000000000081565b6002818051610874929160200190610905565b5050565b600154600160a060020a0316633d188fab30600060405160e060020a63ffffffff8516028152600160a060020a0390921660048301526044820152606401600060405180830381600087803b15156108cf57600080fd5b5af115156108dc57600080fd5b505050565b8154818355818115116108dc576000838152602090206108dc918101908301610983565b828054600181600116156101000203166002900490600052602060002090601f016020900481019282601f1061094657805160ff1916838001178555610973565b82800160010185558215610973579182015b82811115610973578251825591602001919060010190610958565b5061097f929150610983565b5090565b61053891905b8082111561097f57600081556001016109895600a165627a7a723058208ec60b1ba977adf682e5e7e08dce21aff37153f32f2c7d35c981db36109eda300029",
  "source": "pragma solidity ^0.4.20;\n\nimport \"../purchase/Purchase.sol\";\nimport \"@settlemint/solidity-mint/contracts/marketplaces/tokencuratedregistry/Listing.sol\";\n\n\ncontract Stream is Listing, Syncable {\n\n  // We store a mapping of purchases per stream\n  mapping (address => Purchase) public purchases;\n  address[] public purchasesIndex;\n\n  /**\n  @dev Contructor\n  @notice                Sets the address for token\n  @param _owner          Address of the owner\n  @param _price          Price for the listing\n  @param _stakeAmount    Amount staked for the listing\n  @param _gateKeeper     Address of the gatekeeper\n  */\n  function Stream(\n    address _owner,\n    uint _price,\n    uint _stakeAmount,\n    address _gateKeeper\n  )\n    Listing(_owner, _price, _stakeAmount, _gateKeeper)\n    public\n  {}\n\n  /**\n  @notice               Adds a purchase to the purchases mapping, indexed by address of the purchaser\n  @param _purchase      Address of the purchase\n  @param _purchaser     Address of the person who purchased\n  */\n  function addPurchase(address _purchase, address _purchaser) external {\n    purchases[_purchaser] = Purchase(_purchase);\n    purchasesIndex.push(_purchaser);\n  }\n\n  /**\n  @notice               Checks whether or nor a person has access to this stream\n  @param _purchaser     Address of the person who purchased\n  */\n  function hasAccess(address _purchaser) public view returns (bool access) {\n    if (purchases[_purchaser].endTime() == 0) {\n      return false;\n    }\n\n    return true;\n  }\n\n  /**\n  * implementation of cacher methods\n  */\n  function invalidateCache(address _cachedAddress, bytes32 /*_cachedBytes32*/, uint256 /*_cachedUint256*/) public {\n    AddressCacheInvalidated(_cachedAddress);\n  }\n\n   /**\n  * implementation of syncable methods\n  */\n    function getIndexLength() public view returns (uint length) {\n    length = purchasesIndex.length;\n  }\n\n  function getByIndex(uint index) public view returns (address key, address contractAddress) {\n    return getByKey(purchasesIndex[index]);\n  }\n\n  function getByKey(address _key) public view returns (address key, address contractAddress) {\n    key = address(purchases[_key]);\n    contractAddress = address(purchases[_key]);\n  }\n}\n",
  "sourcePath": "/Users/silkevandenbroeck/databrokerDAO/databrokerdao-dapi/contracts/stream/Stream.sol",
  "compiler": {
    "name": "solc",
    "version": "0.4.21+commit.dfe3193c.Emscripten.clang"
  },
  "schemaVersion": "2.0.0",
  "updatedAt": "2018-03-15T13:30:51.325Z"
}