{
  "contractName": "StreamRegistry",
  "abi": [
    {
      "constant": true,
      "inputs": [],
      "name": "WITHDRAW_FUNDS_ROLE",
      "outputs": [
        {
          "name": "",
          "type": "bytes32"
        }
      ],
      "payable": false,
      "stateMutability": "view",
      "type": "function"
    },
    {
      "constant": false,
      "inputs": [
        {
          "name": "_adminPercentage",
          "type": "uint256"
        }
      ],
      "name": "setAdminPercentage",
      "outputs": [],
      "payable": false,
      "stateMutability": "nonpayable",
      "type": "function"
    },
    {
      "constant": true,
      "inputs": [
        {
          "name": "index",
          "type": "uint256"
        }
      ],
      "name": "getByIndex",
      "outputs": [
        {
          "name": "key",
          "type": "bytes32"
        },
        {
          "name": "contractAddress",
          "type": "address"
        }
      ],
      "payable": false,
      "stateMutability": "view",
      "type": "function"
    },
    {
      "constant": true,
      "inputs": [],
      "name": "CURATE_CHALLENGE_ROLE",
      "outputs": [
        {
          "name": "",
          "type": "bytes32"
        }
      ],
      "payable": false,
      "stateMutability": "view",
      "type": "function"
    },
    {
      "constant": true,
      "inputs": [
        {
          "name": "_listing",
          "type": "address"
        }
      ],
      "name": "isWhitelisted",
      "outputs": [
        {
          "name": "whitelisted",
          "type": "bool"
        }
      ],
      "payable": false,
      "stateMutability": "view",
      "type": "function"
    },
    {
      "constant": false,
      "inputs": [],
      "name": "withdraw",
      "outputs": [],
      "payable": false,
      "stateMutability": "nonpayable",
      "type": "function"
    },
    {
      "constant": false,
      "inputs": [
        {
          "name": "",
          "type": "address"
        },
        {
          "name": "_cachedBytes32",
          "type": "bytes32"
        },
        {
          "name": "",
          "type": "uint256"
        }
      ],
      "name": "invalidateCache",
      "outputs": [],
      "payable": false,
      "stateMutability": "nonpayable",
      "type": "function"
    },
    {
      "constant": true,
      "inputs": [],
      "name": "gateKeeper",
      "outputs": [
        {
          "name": "",
          "type": "address"
        }
      ],
      "payable": false,
      "stateMutability": "view",
      "type": "function"
    },
    {
      "constant": true,
      "inputs": [
        {
          "name": "_key",
          "type": "address"
        }
      ],
      "name": "getByKey",
      "outputs": [
        {
          "name": "",
          "type": "bytes32"
        },
        {
          "name": "contractAddress",
          "type": "address"
        }
      ],
      "payable": false,
      "stateMutability": "view",
      "type": "function"
    },
    {
      "constant": false,
      "inputs": [
        {
          "name": "_listing",
          "type": "address"
        },
        {
          "name": "_stakeAmount",
          "type": "uint256"
        }
      ],
      "name": "increase",
      "outputs": [],
      "payable": false,
      "stateMutability": "nonpayable",
      "type": "function"
    },
    {
      "constant": false,
      "inputs": [
        {
          "name": "_listing",
          "type": "address"
        }
      ],
      "name": "addListing",
      "outputs": [],
      "payable": false,
      "stateMutability": "nonpayable",
      "type": "function"
    },
    {
      "constant": true,
      "inputs": [
        {
          "name": "",
          "type": "address"
        }
      ],
      "name": "listings",
      "outputs": [
        {
          "name": "",
          "type": "address"
        }
      ],
      "payable": false,
      "stateMutability": "view",
      "type": "function"
    },
    {
      "constant": true,
      "inputs": [
        {
          "name": "_listing",
          "type": "address"
        }
      ],
      "name": "challengeExists",
      "outputs": [
        {
          "name": "exists",
          "type": "bool"
        }
      ],
      "payable": false,
      "stateMutability": "view",
      "type": "function"
    },
    {
      "constant": false,
      "inputs": [
        {
          "name": "_minEnlistAmount",
          "type": "uint256"
        }
      ],
      "name": "setMinEnlistAmount",
      "outputs": [],
      "payable": false,
      "stateMutability": "nonpayable",
      "type": "function"
    },
    {
      "constant": true,
      "inputs": [
        {
          "name": "",
          "type": "uint256"
        }
      ],
      "name": "challenges",
      "outputs": [
        {
          "name": "challenger",
          "type": "address"
        },
        {
          "name": "resolved",
          "type": "bool"
        },
        {
          "name": "stake",
          "type": "uint256"
        },
        {
          "name": "listing",
          "type": "address"
        }
      ],
      "payable": false,
      "stateMutability": "view",
      "type": "function"
    },
    {
      "constant": false,
      "inputs": [
        {
          "name": "_listing",
          "type": "address"
        }
      ],
      "name": "approveChallenge",
      "outputs": [],
      "payable": false,
      "stateMutability": "nonpayable",
      "type": "function"
    },
    {
      "constant": false,
      "inputs": [
        {
          "name": "_listing",
          "type": "address"
        }
      ],
      "name": "denyChallenge",
      "outputs": [],
      "payable": false,
      "stateMutability": "nonpayable",
      "type": "function"
    },
    {
      "constant": false,
      "inputs": [
        {
          "name": "_listing",
          "type": "address"
        },
        {
          "name": "_stakeAmount",
          "type": "uint256"
        }
      ],
      "name": "challenge",
      "outputs": [
        {
          "name": "challengeID",
          "type": "uint256"
        }
      ],
      "payable": false,
      "stateMutability": "nonpayable",
      "type": "function"
    },
    {
      "constant": false,
      "inputs": [
        {
          "name": "_listing",
          "type": "address"
        },
        {
          "name": "_price",
          "type": "uint256"
        }
      ],
      "name": "setListingPrice",
      "outputs": [],
      "payable": false,
      "stateMutability": "nonpayable",
      "type": "function"
    },
    {
      "constant": false,
      "inputs": [
        {
          "name": "_stakeAmount",
          "type": "uint256"
        },
        {
          "name": "_price",
          "type": "uint256"
        }
      ],
      "name": "enlist",
      "outputs": [],
      "payable": false,
      "stateMutability": "nonpayable",
      "type": "function"
    },
    {
      "constant": false,
      "inputs": [
        {
          "name": "_listing",
          "type": "address"
        }
      ],
      "name": "unlist",
      "outputs": [],
      "payable": false,
      "stateMutability": "nonpayable",
      "type": "function"
    },
    {
      "constant": false,
      "inputs": [
        {
          "name": "_minChallengeAmount",
          "type": "uint256"
        }
      ],
      "name": "setMinChallengeAmount",
      "outputs": [],
      "payable": false,
      "stateMutability": "nonpayable",
      "type": "function"
    },
    {
      "constant": true,
      "inputs": [],
      "name": "getIndexLength",
      "outputs": [
        {
          "name": "length",
          "type": "uint256"
        }
      ],
      "payable": false,
      "stateMutability": "view",
      "type": "function"
    },
    {
      "constant": false,
      "inputs": [
        {
          "name": "_listing",
          "type": "address"
        },
        {
          "name": "_stakeAmount",
          "type": "uint256"
        }
      ],
      "name": "decrease",
      "outputs": [],
      "payable": false,
      "stateMutability": "nonpayable",
      "type": "function"
    },
    {
      "constant": true,
      "inputs": [],
      "name": "token",
      "outputs": [
        {
          "name": "",
          "type": "address"
        }
      ],
      "payable": false,
      "stateMutability": "view",
      "type": "function"
    },
    {
      "constant": true,
      "inputs": [],
      "name": "listingFactory",
      "outputs": [
        {
          "name": "",
          "type": "address"
        }
      ],
      "payable": false,
      "stateMutability": "view",
      "type": "function"
    },
    {
      "inputs": [
        {
          "name": "_gateKeeper",
          "type": "address"
        },
        {
          "name": "_token",
          "type": "address"
        },
        {
          "name": "_listingFactory",
          "type": "address"
        }
      ],
      "payable": false,
      "stateMutability": "nonpayable",
      "type": "constructor"
    },
    {
      "anonymous": false,
      "inputs": [
        {
          "indexed": false,
          "name": "listing",
          "type": "address"
        },
        {
          "indexed": false,
          "name": "stake",
          "type": "uint256"
        },
        {
          "indexed": false,
          "name": "price",
          "type": "uint256"
        }
      ],
      "name": "Enlisted",
      "type": "event"
    },
    {
      "anonymous": false,
      "inputs": [
        {
          "indexed": false,
          "name": "listing",
          "type": "address"
        },
        {
          "indexed": false,
          "name": "stake",
          "type": "uint256"
        },
        {
          "indexed": false,
          "name": "challengeID",
          "type": "uint256"
        }
      ],
      "name": "Challenged",
      "type": "event"
    },
    {
      "anonymous": false,
      "inputs": [
        {
          "indexed": false,
          "name": "listing",
          "type": "address"
        }
      ],
      "name": "Unlisted",
      "type": "event"
    },
    {
      "anonymous": false,
      "inputs": [
        {
          "indexed": false,
          "name": "listing",
          "type": "address"
        }
      ],
      "name": "ChallengeApproved",
      "type": "event"
    },
    {
      "anonymous": false,
      "inputs": [
        {
          "indexed": false,
          "name": "listing",
          "type": "address"
        }
      ],
      "name": "ChallengeDenied",
      "type": "event"
    },
    {
      "anonymous": false,
      "inputs": [
        {
          "indexed": false,
          "name": "listing",
          "type": "address"
        },
        {
          "indexed": false,
          "name": "increasedBy",
          "type": "uint256"
        },
        {
          "indexed": false,
          "name": "newStake",
          "type": "uint256"
        }
      ],
      "name": "Increased",
      "type": "event"
    },
    {
      "anonymous": false,
      "inputs": [
        {
          "indexed": false,
          "name": "listing",
          "type": "address"
        },
        {
          "indexed": false,
          "name": "decreasedBy",
          "type": "uint256"
        },
        {
          "indexed": false,
          "name": "newStake",
          "type": "uint256"
        }
      ],
      "name": "Decreased",
      "type": "event"
    },
    {
      "anonymous": false,
      "inputs": [
        {
          "indexed": false,
          "name": "by",
          "type": "address"
        },
        {
          "indexed": false,
          "name": "balance",
          "type": "uint256"
        }
      ],
      "name": "Withdrawn",
      "type": "event"
    },
    {
      "anonymous": false,
      "inputs": [
        {
          "indexed": true,
          "name": "key",
          "type": "address"
        }
      ],
      "name": "AddressCacheInvalidated",
      "type": "event"
    },
    {
      "anonymous": false,
      "inputs": [
        {
          "indexed": true,
          "name": "key",
          "type": "bytes32"
        }
      ],
      "name": "Bytes32CacheInvalidated",
      "type": "event"
    },
    {
      "anonymous": false,
      "inputs": [
        {
          "indexed": true,
          "name": "key",
          "type": "uint256"
        }
      ],
      "name": "Uint256CacheInvalidated",
      "type": "event"
    },
    {
      "constant": true,
      "inputs": [
        {
          "name": "_listing",
          "type": "address"
        }
      ],
      "name": "getStreamPrice",
      "outputs": [
        {
          "name": "price",
          "type": "uint256"
        }
      ],
      "payable": false,
      "stateMutability": "view",
      "type": "function"
    },
    {
      "constant": true,
      "inputs": [
        {
          "name": "_listing",
          "type": "address"
        }
      ],
      "name": "getStreamOwner",
      "outputs": [
        {
          "name": "owner",
          "type": "address"
        }
      ],
      "payable": false,
      "stateMutability": "view",
      "type": "function"
    },
    {
      "constant": false,
      "inputs": [
        {
          "name": "_listing",
          "type": "address"
        },
        {
          "name": "_ipfsHash",
          "type": "string"
        }
      ],
      "name": "updateStreamMetadata",
      "outputs": [],
      "payable": false,
      "stateMutability": "nonpayable",
      "type": "function"
    }
  ],
  "bytecode": "0x606060405260006009556000600a556000600b556000600c55600a600d556005600e55600a600f55341561003257600080fd5b6040516060806125fe833981016040528080519190602001805191906020018051600d54600e54600f5460008054600160a060020a03998a16600160a060020a0319918216811790925560018054308c169083161790557f53747265616d526567697374727900000000000000000000000000000000000060025560068054998b1699821699909917909855600780549990951698881698909817909355600a91909155600b55600c555050600880549091169091179055612505806100f96000396000f30060606040526004361061015b5763ffffffff60e060020a6000350416631cbcd9748114610160578063245694ad146101855780632d883a731461019d57806332a65198146101d45780633af32abf146101e75780633c1b12b61461021a5780633ccfd60b146102395780633d188fab1461024c57806345d61ded1461027157806349877038146102a0578063522afaec146102bf57806359d5da89146102e157806365d96c82146103005780636adc551c1461031f5780636eefcab91461037e57806383b7113e1461039d5780638f1d3776146103b357806392f60b96146103fd57806399b6c1c61461041c578063a72b0d2d1461043b578063acb998281461045a578063afc2a9681461047c578063b655b7971461049e578063bde3672d146104b7578063de29ee68146104d6578063e1ba7d01146104ec578063f27ac4d9146104ff578063fc0c546a14610521578063fe8cde3414610534575b600080fd5b341561016b57600080fd5b610173610547565b60405190815260200160405180910390f35b341561019057600080fd5b61019b60043561056b565b005b34156101a857600080fd5b6101b3600435610570565b604051918252600160a060020a031660208201526040908101905180910390f35b34156101df57600080fd5b6101736105a8565b34156101f257600080fd5b610206600160a060020a03600435166105cc565b604051901515815260200160405180910390f35b341561022557600080fd5b610173600160a060020a0360043516610649565b341561024457600080fd5b61019b6106a6565b341561025757600080fd5b61019b600160a060020a03600435166024356044356107ac565b341561027c57600080fd5b6102846107e6565b604051600160a060020a03909116815260200160405180910390f35b34156102ab57600080fd5b6101b3600160a060020a03600435166107f5565b34156102ca57600080fd5b61019b600160a060020a0360043516602435610816565b34156102ec57600080fd5b61019b600160a060020a0360043516610aa6565b341561030b57600080fd5b610284600160a060020a0360043516610bf1565b341561032a57600080fd5b61019b60048035600160a060020a03169060446024803590810190830135806020601f82018190048102016040519081016040528181529291906020840183838082843750949650610c0c95505050505050565b341561038957600080fd5b610206600160a060020a0360043516610ce4565b34156103a857600080fd5b61019b600435610d63565b34156103be57600080fd5b6103c9600435610d68565b604051600160a060020a03948516815292151560208401526040808401929092529092166060820152608001905180910390f35b341561040857600080fd5b61019b600160a060020a0360043516610da0565b341561042757600080fd5b61019b600160a060020a036004351661130b565b341561044657600080fd5b610284600160a060020a0360043516611749565b341561046557600080fd5b610173600160a060020a03600435166024356117a6565b341561048757600080fd5b61019b600160a060020a0360043516602435611b69565b34156104a957600080fd5b61019b600435602435611bc5565b34156104c257600080fd5b61019b600160a060020a0360043516611ce3565b34156104e157600080fd5b61019b60043561203c565b34156104f757600080fd5b610173612041565b341561050a57600080fd5b61019b600160a060020a0360043516602435612047565b341561052c57600080fd5b610284612363565b341561053f57600080fd5b610284612372565b7f57495448445241575f46554e44535f524f4c450000000000000000000000000081565b600c55565b60008061059f60048481548110151561058557fe5b600091825260209091200154600160a060020a03166107f5565b91509150915091565b7f4355524154455f4348414c4c454e47455f524f4c45000000000000000000000081565b600160a060020a038082166000908152600360205260408082205491929190911690633d9287fa90839051602001526040518163ffffffff1660e060020a028152600401602060405180830381600087803b151561062957600080fd5b6102c65a03f1151561063a57600080fd5b50505060405180519392505050565b600160a060020a03808216600090815260036020526040808220549192919091169063a035b1fe90839051602001526040518163ffffffff1660e060020a028152600401602060405180830381600087803b151561062957600080fd5b60007f57495448445241575f46554e44535f524f4c45000000000000000000000000006106d33382612381565b15156106de57600080fd5b600654600160a060020a033081168031945091169063a9059cbb9033903160006040516020015260405160e060020a63ffffffff8516028152600160a060020a0390921660048301526024820152604401602060405180830381600087803b151561074857600080fd5b6102c65a03f1151561075957600080fd5b50505060405180519050507f7084f5476618d8e60b11ef0d7d3f06914655adb8793e28ff7f018d4c76d505d53383604051600160a060020a03909216825260208201526040908101905180910390a15050565b817fd5c977477c90fd6c009dd3275798b51da8bd2df8e0a25be47773f87b53d2e39960405160405180910390a26107e1612428565b505050565b600054600160a060020a031681565b600160a060020a039081166000908152600360205260408120549092911690565b600160a060020a03808316600090815260036020526040808220548316923316918391638da5cb5b919051602001526040518163ffffffff1660e060020a028152600401602060405180830381600087803b151561087357600080fd5b6102c65a03f1151561088457600080fd5b50505060405180519050600160a060020a03161415156108a357600080fd5b600654600160a060020a03166323b872dd33308560006040516020015260405160e060020a63ffffffff8616028152600160a060020a0393841660048201529190921660248201526044810191909152606401602060405180830381600087803b151561090f57600080fd5b6102c65a03f1151561092057600080fd5b50505060405180519050151561093557600080fd5b600160a060020a0381166335d9db538382633a4b66f16000604051602001526040518163ffffffff1660e060020a028152600401602060405180830381600087803b151561098257600080fd5b6102c65a03f1151561099357600080fd5b505050604051805190500160405160e060020a63ffffffff84160281526004810191909152602401600060405180830381600087803b15156109d457600080fd5b6102c65a03f115156109e557600080fd5b5050507f8b05844824acf2db2f068e4006ef99b307ca4fe1a896d06e884700f1a9da3a6d838383600160a060020a0316633a4b66f16000604051602001526040518163ffffffff1660e060020a028152600401602060405180830381600087803b1515610a5157600080fd5b6102c65a03f11515610a6257600080fd5b505050604051805190506040518084600160a060020a0316600160a060020a03168152602001838152602001828152602001935050505060405180910390a1505050565b600160a060020a038116600081815260036020526040808220805473ffffffffffffffffffffffffffffffffffffffff19168417905583927f7583fed51a2ab4e582c68d93e281e0fcc2601ef4a7491d1d2d2dc511f6a91279928492633a4b66f1919051602001526040518163ffffffff1660e060020a028152600401602060405180830381600087803b1515610b3c57600080fd5b6102c65a03f11515610b4d57600080fd5b5050506040518051905083600160a060020a031663a035b1fe6000604051602001526040518163ffffffff1660e060020a028152600401602060405180830381600087803b1515610b9d57600080fd5b6102c65a03f11515610bae57600080fd5b505050604051805190506040518084600160a060020a0316600160a060020a03168152602001838152602001828152602001935050505060405180910390a15050565b600360205260009081526040902054600160a060020a031681565b600160a060020a03808316600090815260036020526040908190205490911690635cc07505908390518263ffffffff1660e060020a0281526004018080602001828103825283818151815260200191508051906020019080838360005b83811015610c81578082015183820152602001610c69565b50505050905090810190601f168015610cae5780820380516001836020036101000a031916815260200191505b5092505050600060405180830381600087803b1515610ccc57600080fd5b6102c65a03f11515610cdd57600080fd5b5050505050565b600160a060020a03808216600090815260036020526040808220549192839216906309af4fe690839051602001526040518163ffffffff1660e060020a028152600401602060405180830381600087803b1515610d4057600080fd5b6102c65a03f11515610d5157600080fd5b50505060405180519050119050919050565b600a55565b600560205260009081526040902080546001820154600290920154600160a060020a038083169360a060020a90930460ff1692911684565b600080600080610dae6124b2565b60007f4355524154455f4348414c4c454e47455f524f4c450000000000000000000000610ddb3382612381565b1515610de657600080fd5b600160a060020a03808916600090815260036020526040808220549092169850889163605cba82919051602001526040518163ffffffff1660e060020a028152600401602060405180830381600087803b1515610e4257600080fd5b6102c65a03f11515610e5357600080fd5b5050506040518051600c546006549198506064900488029650600160a060020a0316905063a9059cbb338760006040516020015260405160e060020a63ffffffff8516028152600160a060020a0390921660048301526024820152604401602060405180830381600087803b1515610eca57600080fd5b6102c65a03f11515610edb57600080fd5b50505060405180515060009450505b86600160a060020a03166333a2cc016000604051602001526040518163ffffffff1660e060020a028152600401602060405180830381600087803b1515610f3057600080fd5b6102c65a03f11515610f4157600080fd5b50505060405180519050841015611158576005600088600160a060020a031663c32e11028760006040516020015260405160e060020a63ffffffff84160281526004810191909152602401602060405180830381600087803b1515610fa557600080fd5b6102c65a03f11515610fb657600080fd5b505050604051805190508152602001908152602001600020608060405190810160409081528254600160a060020a03808216845260a060020a90910460ff16151560208401526001840154918301919091526002909201548216606082015260065490945086880393501663a9059cbb845188866040015181151561103757fe5b04850260006040516020015260405160e060020a63ffffffff8516028152600160a060020a0390921660048301526024820152604401602060405180830381600087803b151561108657600080fd5b6102c65a03f1151561109757600080fd5b505050604051805190505060016005600089600160a060020a031663c32e11028860006040516020015260405160e060020a63ffffffff84160281526004810191909152602401602060405180830381600087803b15156110f757600080fd5b6102c65a03f1151561110857600080fd5b50505060405180518252506020810191909152604001600020805491151560a060020a0274ff00000000000000000000000000000000000000001990921691909117905560019390930192610eea565b86600160a060020a03166335d9db53600060405160e060020a63ffffffff84160281526004810191909152602401600060405180830381600087803b151561119f57600080fd5b6102c65a03f115156111b057600080fd5b50505086600160a060020a0316636de149f5600060405160e060020a63ffffffff84160281526004810191909152602401600060405180830381600087803b15156111fa57600080fd5b6102c65a03f1151561120b57600080fd5b50505086600160a060020a03166331ec7fce600060405160e060020a63ffffffff84160281526004810191909152602401600060405180830381600087803b151561125557600080fd5b6102c65a03f1151561126657600080fd5b50505086600160a060020a0316637b789204600060405160e060020a63ffffffff84160281529015156004820152602401600060405180830381600087803b15156112b057600080fd5b6102c65a03f115156112c157600080fd5b5050507f9d9f99a36ef64966814c1f89a7a64fcb0132cbd085184a9666469302f32b92c488604051600160a060020a03909116815260200160405180910390a15050505050505050565b6000806000807f4355524154455f4348414c4c454e47455f524f4c45000000000000000000000061133c3382612381565b151561134757600080fd5b600160a060020a03808716600090815260036020526040808220549092169650869163605cba82919051602001526040518163ffffffff1660e060020a028152600401602060405180830381600087803b15156113a357600080fd5b6102c65a03f115156113b457600080fd5b5050506040518051600c546006549196506064900486029450600160a060020a0316905063a9059cbb338560006040516020015260405160e060020a63ffffffff8516028152600160a060020a0390921660048301526024820152604401602060405180830381600087803b151561142b57600080fd5b6102c65a03f1151561143c57600080fd5b50505060405180515050600654600160a060020a039081169063a9059cbb908716638da5cb5b6000604051602001526040518163ffffffff1660e060020a028152600401602060405180830381600087803b151561149957600080fd5b6102c65a03f115156114aa57600080fd5b505050604051805190506114c4878763ffffffff6124a016565b60006040516020015260405160e060020a63ffffffff8516028152600160a060020a0390921660048301526024820152604401602060405180830381600087803b151561151057600080fd5b6102c65a03f1151561152157600080fd5b50505060405180515060009250505b84600160a060020a03166333a2cc016000604051602001526040518163ffffffff1660e060020a028152600401602060405180830381600087803b151561157657600080fd5b6102c65a03f1151561158757600080fd5b5050506040518051905082101561164e5760016005600087600160a060020a031663c32e11028660006040516020015260405160e060020a63ffffffff84160281526004810191909152602401602060405180830381600087803b15156115ed57600080fd5b6102c65a03f115156115fe57600080fd5b50505060405180518252506020810191909152604001600020805491151560a060020a0274ff00000000000000000000000000000000000000001990921691909117905560019190910190611530565b84600160a060020a03166331ec7fce600060405160e060020a63ffffffff84160281526004810191909152602401600060405180830381600087803b151561169557600080fd5b6102c65a03f115156116a657600080fd5b50505084600160a060020a0316636de149f5600060405160e060020a63ffffffff84160281526004810191909152602401600060405180830381600087803b15156116f057600080fd5b6102c65a03f1151561170157600080fd5b5050507f125014e75e2aead4a1c8a35e9bb786a430fc1ba6354cbd9845802d3603abd0b086604051600160a060020a03909116815260200160405180910390a1505050505050565b600160a060020a038082166000908152600360205260408082205491929190911690638da5cb5b90839051602001526040518163ffffffff1660e060020a028152600401602060405180830381600087803b151561062957600080fd5b6000806117b16124b2565b600b548410156117c057600080fd5b600160a060020a03808616600090815260036020526040808220546006549084169550909216916323b872dd91339130918991516020015260405160e060020a63ffffffff8616028152600160a060020a0393841660048201529190921660248201526044810191909152606401602060405180830381600087803b151561184757600080fd5b6102c65a03f1151561185857600080fd5b50505060405180519050151561186d57600080fd5b6009805460010190819055925060806040519081016040908152600160a060020a03338116835260006020808501829052838501899052918916606085015286815260059091522090915081908151815473ffffffffffffffffffffffffffffffffffffffff1916600160a060020a03919091161781556020820151815490151560a060020a0274ff000000000000000000000000000000000000000019909116178155604082015181600101556060820151600291909101805473ffffffffffffffffffffffffffffffffffffffff1916600160a060020a03928316179055831690506331ec7fce816309af4fe66000604051602001526040518163ffffffff1660e060020a028152600401602060405180830381600087803b151561199357600080fd5b6102c65a03f115156119a457600080fd5b5050506040518051905060010160405160e060020a63ffffffff84160281526004810191909152602401600060405180830381600087803b15156119e757600080fd5b6102c65a03f115156119f857600080fd5b50505081600160a060020a03166332fd14418460405160e060020a63ffffffff84160281526004810191909152602401600060405180830381600087803b1515611a4157600080fd5b6102c65a03f11515611a5257600080fd5b505050600160a060020a038216636de149f5858263605cba826000604051602001526040518163ffffffff1660e060020a028152600401602060405180830381600087803b1515611aa257600080fd5b6102c65a03f11515611ab357600080fd5b505050604051805190500160405160e060020a63ffffffff84160281526004810191909152602401600060405180830381600087803b1515611af457600080fd5b6102c65a03f11515611b0557600080fd5b5050507fe0c6c1f959ea19af04f1a1862f00c826f9aab9ca9ed5fe3798051f78560bee3a8585856040518084600160a060020a0316600160a060020a03168152602001838152602001828152602001935050505060405180910390a1505092915050565b600160a060020a038083166000908152600360205260409081902054909116906391b7f5ed9083905160e060020a63ffffffff84160281526004810191909152602401600060405180830381600087803b1515610ccc57600080fd5b600a54821015611bd457600080fd5b600654600160a060020a03166323b872dd33308560006040516020015260405160e060020a63ffffffff8616028152600160a060020a0393841660048201529190921660248201526044810191909152606401602060405180830381600087803b1515611c4057600080fd5b6102c65a03f11515611c5157600080fd5b505050604051805190501515611c6657600080fd5b600754600854600160a060020a039182169163509bd5ae91339185918791163060405160e060020a63ffffffff8816028152600160a060020a0395861660048201526024810194909452604484019290925283166064830152909116608482015260a401600060405180830381600087803b1515610ccc57600080fd5b600160a060020a0380821660009081526003602052604080822054909216918291638da5cb5b9151602001526040518163ffffffff1660e060020a028152600401602060405180830381600087803b1515611d3d57600080fd5b6102c65a03f11515611d4e57600080fd5b50505060405180519050600160a060020a031633600160a060020a0316141515611d7757600080fd5b611d80826105cc565b1515611d8b57600080fd5b80600160a060020a03166309af4fe66000604051602001526040518163ffffffff1660e060020a028152600401602060405180830381600087803b1515611dd157600080fd5b6102c65a03f11515611de257600080fd5b5050506040518051159050611df657600080fd5b600081600160a060020a0316633a4b66f16000604051602001526040518163ffffffff1660e060020a028152600401602060405180830381600087803b1515611e3e57600080fd5b6102c65a03f11515611e4f57600080fd5b505050604051805190501115611fa057600654600160a060020a039081169063a9059cbb908316638da5cb5b6000604051602001526040518163ffffffff1660e060020a028152600401602060405180830381600087803b1515611eb257600080fd5b6102c65a03f11515611ec357600080fd5b5050506040518051905083600160a060020a0316633a4b66f16000604051602001526040518163ffffffff1660e060020a028152600401602060405180830381600087803b1515611f1357600080fd5b6102c65a03f11515611f2457600080fd5b5050506040518051905060006040516020015260405160e060020a63ffffffff8516028152600160a060020a0390921660048301526024820152604401602060405180830381600087803b1515611f7a57600080fd5b6102c65a03f11515611f8b57600080fd5b505050604051805190501515611fa057600080fd5b80600160a060020a0316637b789204600060405160e060020a63ffffffff84160281529015156004820152602401600060405180830381600087803b1515611fe757600080fd5b6102c65a03f11515611ff857600080fd5b5050507fc48322c2e165c864176005884983dd81c87a9fc8258ca6a1967d17b26cd8d0e382604051600160a060020a03909116815260200160405180910390a15050565b600b55565b60045490565b600160a060020a03808316600090815260036020526040808220549092169181908390633a4b66f190839051602001526040518163ffffffff1660e060020a028152600401602060405180830381600087803b15156120a557600080fd5b6102c65a03f115156120b657600080fd5b5050506040518051925050600160a060020a03831663605cba826000604051602001526040518163ffffffff1660e060020a028152600401602060405180830381600087803b151561210757600080fd5b6102c65a03f1151561211857600080fd5b50505060405180519050905033600160a060020a031683600160a060020a0316638da5cb5b6000604051602001526040518163ffffffff1660e060020a028152600401602060405180830381600087803b151561217457600080fd5b6102c65a03f1151561218557600080fd5b50505060405180519050600160a060020a03161415156121a457600080fd5b818411156121b157600080fd5b600a5484830310156121c257600080fd5b600654600160a060020a031663a9059cbb338660006040516020015260405160e060020a63ffffffff8516028152600160a060020a0390921660048301526024820152604401602060405180830381600087803b151561222157600080fd5b6102c65a03f1151561223257600080fd5b50505060405180519050151561224757600080fd5b82600160a060020a03166335d9db5385840360405160e060020a63ffffffff84160281526004810191909152602401600060405180830381600087803b151561228f57600080fd5b6102c65a03f115156122a057600080fd5b5050507f5ee9537083cb767f9e599a17876a9c597197deba435082e0b88c4da925d4599e858585600160a060020a0316633a4b66f16000604051602001526040518163ffffffff1660e060020a028152600401602060405180830381600087803b151561230c57600080fd5b6102c65a03f1151561231d57600080fd5b505050604051805190506040518084600160a060020a0316600160a060020a03168152602001838152602001828152602001935050505060405180910390a15050505050565b600654600160a060020a031681565b600754600160a060020a031681565b60008054600160a060020a03161580612421575060008054600160a060020a031690636d6712d8908590309086906040516020015260405160e060020a63ffffffff8616028152600160a060020a0393841660048201529190921660248201526044810191909152606401602060405180830381600087803b151561240557600080fd5b6102c65a03f1151561241657600080fd5b505050604051805190505b9392505050565b600154600254600160a060020a0390911690633d188fab906000908160405160e060020a63ffffffff8616028152600160a060020a03909316600484015260248301919091526044820152606401600060405180830381600087803b151561248f57600080fd5b6102c65a03f115156107e157600080fd5b6000828211156124ac57fe5b50900390565b608060405190810160409081526000808352602083018190529082018190526060820152905600a165627a7a7230582068d551ac0a40e76859f7fa18aa5835872802a05d7e9c8e2d9d944a65ceaa22650029",
  "source": "pragma solidity ^0.4.17;\n\nimport \"@settlemint/solidity-mint/contracts/marketplaces/tokencuratedregistry/TokenCuratedRegistry.sol\";\nimport \"@settlemint/solidity-mint/contracts/marketplaces/tokensystem/Token.sol\";\n\n\ncontract StreamRegistry is TokenCuratedRegistry {\n\n  // Initial values, these can be changed with setters\n  uint MIN_ENLIST_AMOUNT = 10;\n  uint MIN_CHALLENGE_AMOUNT = 5;\n  uint ADMIN_PERCENTAGE = 10;\n\n  /**\n  @dev Contructor\n  @notice                Sets the address for token\n  @param _gateKeeper     Address of the gatekeeper\n  @param _token          Address of the token\n  */\n  function StreamRegistry(\n    address _gateKeeper,\n    address _token,\n    address _listingFactory\n  )\n    TokenCuratedRegistry(\n      \"StreamRegistry\",\n      _gateKeeper,\n      _token,\n      _listingFactory,\n      MIN_ENLIST_AMOUNT,\n      MIN_CHALLENGE_AMOUNT,\n      ADMIN_PERCENTAGE\n    )\n    public\n  {}\n\n  /**\n  @notice                Gets the price of a stream\n  @param _listing        key of the listing\n  */\n  function getStreamPrice(address _listing) view public returns (uint price) {\n    return listings[_listing].price();\n  }\n\n  /**\n  @notice                Gets the owner of a stream\n  @param _listing        key of the listing\n  */\n  function getStreamOwner(address _listing) view public returns (address owner) {\n    return listings[_listing].owner();\n  }\n\n  function updateStreamMetadata(address _listing, string _ipfsHash) {\n    listings[_listing].updateMetaData(_ipfsHash);\n  }\n}\n",
  "sourcePath": "/Users/roderik/Development/databrokerdao-dapi/contracts/stream/StreamRegistry.sol",
  "compiler": {
    "name": "solc",
    "version": "0.4.20+commit.3155dd80.Emscripten.clang"
  },
  "schemaVersion": "1.0.1",
  "updatedAt": "2018-02-26T14:55:13.897Z"
}