{
  "contractName": "StreamRegistry",
  "abi": [
    {
      "constant": true,
      "inputs": [],
      "name": "WITHDRAW_FUNDS_ROLE",
      "outputs": [
        {
          "name": "",
          "type": "bytes32"
        }
      ],
      "payable": false,
      "stateMutability": "view",
      "type": "function"
    },
    {
      "constant": false,
      "inputs": [
        {
          "name": "_adminPercentage",
          "type": "uint256"
        }
      ],
      "name": "setAdminPercentage",
      "outputs": [],
      "payable": false,
      "stateMutability": "nonpayable",
      "type": "function"
    },
    {
      "constant": true,
      "inputs": [
        {
          "name": "index",
          "type": "uint256"
        }
      ],
      "name": "getByIndex",
      "outputs": [
        {
          "name": "key",
          "type": "bytes32"
        },
        {
          "name": "contractAddress",
          "type": "address"
        }
      ],
      "payable": false,
      "stateMutability": "view",
      "type": "function"
    },
    {
      "constant": true,
      "inputs": [],
      "name": "CURATE_CHALLENGE_ROLE",
      "outputs": [
        {
          "name": "",
          "type": "bytes32"
        }
      ],
      "payable": false,
      "stateMutability": "view",
      "type": "function"
    },
    {
      "constant": true,
      "inputs": [
        {
          "name": "_listing",
          "type": "address"
        }
      ],
      "name": "isWhitelisted",
      "outputs": [
        {
          "name": "whitelisted",
          "type": "bool"
        }
      ],
      "payable": false,
      "stateMutability": "view",
      "type": "function"
    },
    {
      "constant": false,
      "inputs": [],
      "name": "withdraw",
      "outputs": [],
      "payable": false,
      "stateMutability": "nonpayable",
      "type": "function"
    },
    {
      "constant": false,
      "inputs": [
        {
          "name": "",
          "type": "address"
        },
        {
          "name": "_cachedBytes32",
          "type": "bytes32"
        },
        {
          "name": "",
          "type": "uint256"
        }
      ],
      "name": "invalidateCache",
      "outputs": [],
      "payable": false,
      "stateMutability": "nonpayable",
      "type": "function"
    },
    {
      "constant": true,
      "inputs": [],
      "name": "gateKeeper",
      "outputs": [
        {
          "name": "",
          "type": "address"
        }
      ],
      "payable": false,
      "stateMutability": "view",
      "type": "function"
    },
    {
      "constant": true,
      "inputs": [
        {
          "name": "_key",
          "type": "address"
        }
      ],
      "name": "getByKey",
      "outputs": [
        {
          "name": "",
          "type": "bytes32"
        },
        {
          "name": "contractAddress",
          "type": "address"
        }
      ],
      "payable": false,
      "stateMutability": "view",
      "type": "function"
    },
    {
      "constant": false,
      "inputs": [
        {
          "name": "_listing",
          "type": "address"
        },
        {
          "name": "_stakeAmount",
          "type": "uint256"
        }
      ],
      "name": "increase",
      "outputs": [],
      "payable": false,
      "stateMutability": "nonpayable",
      "type": "function"
    },
    {
      "constant": false,
      "inputs": [
        {
          "name": "_listing",
          "type": "address"
        }
      ],
      "name": "addListing",
      "outputs": [],
      "payable": false,
      "stateMutability": "nonpayable",
      "type": "function"
    },
    {
      "constant": true,
      "inputs": [
        {
          "name": "",
          "type": "address"
        }
      ],
      "name": "listings",
      "outputs": [
        {
          "name": "",
          "type": "address"
        }
      ],
      "payable": false,
      "stateMutability": "view",
      "type": "function"
    },
    {
      "constant": true,
      "inputs": [
        {
          "name": "_listing",
          "type": "address"
        }
      ],
      "name": "challengeExists",
      "outputs": [
        {
          "name": "exists",
          "type": "bool"
        }
      ],
      "payable": false,
      "stateMutability": "view",
      "type": "function"
    },
    {
      "constant": false,
      "inputs": [
        {
          "name": "_minEnlistAmount",
          "type": "uint256"
        }
      ],
      "name": "setMinEnlistAmount",
      "outputs": [],
      "payable": false,
      "stateMutability": "nonpayable",
      "type": "function"
    },
    {
      "constant": true,
      "inputs": [
        {
          "name": "",
          "type": "uint256"
        }
      ],
      "name": "challenges",
      "outputs": [
        {
          "name": "challenger",
          "type": "address"
        },
        {
          "name": "resolved",
          "type": "bool"
        },
        {
          "name": "stake",
          "type": "uint256"
        },
        {
          "name": "listing",
          "type": "address"
        }
      ],
      "payable": false,
      "stateMutability": "view",
      "type": "function"
    },
    {
      "constant": false,
      "inputs": [
        {
          "name": "_listing",
          "type": "address"
        }
      ],
      "name": "approveChallenge",
      "outputs": [],
      "payable": false,
      "stateMutability": "nonpayable",
      "type": "function"
    },
    {
      "constant": false,
      "inputs": [
        {
          "name": "_listing",
          "type": "address"
        }
      ],
      "name": "denyChallenge",
      "outputs": [],
      "payable": false,
      "stateMutability": "nonpayable",
      "type": "function"
    },
    {
      "constant": false,
      "inputs": [
        {
          "name": "_listing",
          "type": "address"
        },
        {
          "name": "_stakeAmount",
          "type": "uint256"
        }
      ],
      "name": "challenge",
      "outputs": [
        {
          "name": "challengeID",
          "type": "uint256"
        }
      ],
      "payable": false,
      "stateMutability": "nonpayable",
      "type": "function"
    },
    {
      "constant": false,
      "inputs": [
        {
          "name": "_listing",
          "type": "address"
        },
        {
          "name": "_price",
          "type": "uint256"
        }
      ],
      "name": "setListingPrice",
      "outputs": [],
      "payable": false,
      "stateMutability": "nonpayable",
      "type": "function"
    },
    {
      "constant": false,
      "inputs": [
        {
          "name": "_stakeAmount",
          "type": "uint256"
        },
        {
          "name": "_price",
          "type": "uint256"
        }
      ],
      "name": "enlist",
      "outputs": [],
      "payable": false,
      "stateMutability": "nonpayable",
      "type": "function"
    },
    {
      "constant": false,
      "inputs": [
        {
          "name": "_listing",
          "type": "address"
        }
      ],
      "name": "unlist",
      "outputs": [],
      "payable": false,
      "stateMutability": "nonpayable",
      "type": "function"
    },
    {
      "constant": false,
      "inputs": [
        {
          "name": "_minChallengeAmount",
          "type": "uint256"
        }
      ],
      "name": "setMinChallengeAmount",
      "outputs": [],
      "payable": false,
      "stateMutability": "nonpayable",
      "type": "function"
    },
    {
      "constant": true,
      "inputs": [],
      "name": "getIndexLength",
      "outputs": [
        {
          "name": "length",
          "type": "uint256"
        }
      ],
      "payable": false,
      "stateMutability": "view",
      "type": "function"
    },
    {
      "constant": false,
      "inputs": [
        {
          "name": "_listing",
          "type": "address"
        },
        {
          "name": "_stakeAmount",
          "type": "uint256"
        }
      ],
      "name": "decrease",
      "outputs": [],
      "payable": false,
      "stateMutability": "nonpayable",
      "type": "function"
    },
    {
      "constant": true,
      "inputs": [],
      "name": "token",
      "outputs": [
        {
          "name": "",
          "type": "address"
        }
      ],
      "payable": false,
      "stateMutability": "view",
      "type": "function"
    },
    {
      "constant": true,
      "inputs": [],
      "name": "listingFactory",
      "outputs": [
        {
          "name": "",
          "type": "address"
        }
      ],
      "payable": false,
      "stateMutability": "view",
      "type": "function"
    },
    {
      "inputs": [
        {
          "name": "_gateKeeper",
          "type": "address"
        },
        {
          "name": "_token",
          "type": "address"
        },
        {
          "name": "_listingFactory",
          "type": "address"
        }
      ],
      "payable": false,
      "stateMutability": "nonpayable",
      "type": "constructor"
    },
    {
      "anonymous": false,
      "inputs": [
        {
          "indexed": false,
          "name": "listing",
          "type": "address"
        },
        {
          "indexed": false,
          "name": "stake",
          "type": "uint256"
        },
        {
          "indexed": false,
          "name": "price",
          "type": "uint256"
        }
      ],
      "name": "Enlisted",
      "type": "event"
    },
    {
      "anonymous": false,
      "inputs": [
        {
          "indexed": false,
          "name": "listing",
          "type": "address"
        },
        {
          "indexed": false,
          "name": "stake",
          "type": "uint256"
        },
        {
          "indexed": false,
          "name": "challengeID",
          "type": "uint256"
        }
      ],
      "name": "Challenged",
      "type": "event"
    },
    {
      "anonymous": false,
      "inputs": [
        {
          "indexed": false,
          "name": "listing",
          "type": "address"
        }
      ],
      "name": "Unlisted",
      "type": "event"
    },
    {
      "anonymous": false,
      "inputs": [
        {
          "indexed": false,
          "name": "listing",
          "type": "address"
        }
      ],
      "name": "ChallengeApproved",
      "type": "event"
    },
    {
      "anonymous": false,
      "inputs": [
        {
          "indexed": false,
          "name": "listing",
          "type": "address"
        }
      ],
      "name": "ChallengeDenied",
      "type": "event"
    },
    {
      "anonymous": false,
      "inputs": [
        {
          "indexed": false,
          "name": "listing",
          "type": "address"
        },
        {
          "indexed": false,
          "name": "increasedBy",
          "type": "uint256"
        },
        {
          "indexed": false,
          "name": "newStake",
          "type": "uint256"
        }
      ],
      "name": "Increased",
      "type": "event"
    },
    {
      "anonymous": false,
      "inputs": [
        {
          "indexed": false,
          "name": "listing",
          "type": "address"
        },
        {
          "indexed": false,
          "name": "decreasedBy",
          "type": "uint256"
        },
        {
          "indexed": false,
          "name": "newStake",
          "type": "uint256"
        }
      ],
      "name": "Decreased",
      "type": "event"
    },
    {
      "anonymous": false,
      "inputs": [
        {
          "indexed": false,
          "name": "by",
          "type": "address"
        },
        {
          "indexed": false,
          "name": "balance",
          "type": "uint256"
        }
      ],
      "name": "Withdrawn",
      "type": "event"
    },
    {
      "anonymous": false,
      "inputs": [
        {
          "indexed": true,
          "name": "key",
          "type": "address"
        }
      ],
      "name": "AddressCacheInvalidated",
      "type": "event"
    },
    {
      "anonymous": false,
      "inputs": [
        {
          "indexed": true,
          "name": "key",
          "type": "bytes32"
        }
      ],
      "name": "Bytes32CacheInvalidated",
      "type": "event"
    },
    {
      "anonymous": false,
      "inputs": [
        {
          "indexed": true,
          "name": "key",
          "type": "uint256"
        }
      ],
      "name": "Uint256CacheInvalidated",
      "type": "event"
    },
    {
      "constant": true,
      "inputs": [
        {
          "name": "_listing",
          "type": "address"
        }
      ],
      "name": "getStreamPrice",
      "outputs": [
        {
          "name": "price",
          "type": "uint256"
        }
      ],
      "payable": false,
      "stateMutability": "view",
      "type": "function"
    },
    {
      "constant": true,
      "inputs": [
        {
          "name": "_listing",
          "type": "address"
        }
      ],
      "name": "getStreamOwner",
      "outputs": [
        {
          "name": "owner",
          "type": "address"
        }
      ],
      "payable": false,
      "stateMutability": "view",
      "type": "function"
    }
  ],
  "bytecode": "0x606060405260006009556000600a556000600b556000600c55600a600d556005600e55600a600f55341561003257600080fd5b6040516060806124d4833981016040528080519190602001805191906020018051600d54600e54600f5460008054600160a060020a03998a16600160a060020a0319918216811790925560018054308c169083161790557f53747265616d526567697374727900000000000000000000000000000000000060025560068054998b1699821699909917909855600780549990951698881698909817909355600a91909155600b55600c5550506008805490911690911790556123db806100f96000396000f3006060604052600436106101505763ffffffff60e060020a6000350416631cbcd9748114610155578063245694ad1461017a5780632d883a731461019257806332a65198146101c95780633af32abf146101dc5780633c1b12b61461020f5780633ccfd60b1461022e5780633d188fab1461024157806345d61ded146102665780634987703814610295578063522afaec146102b457806359d5da89146102d657806365d96c82146102f55780636eefcab91461031457806383b7113e146103335780638f1d37761461034957806392f60b961461039357806399b6c1c6146103b2578063a72b0d2d146103d1578063acb99828146103f0578063afc2a96814610412578063b655b79714610434578063bde3672d1461044d578063de29ee681461046c578063e1ba7d0114610482578063f27ac4d914610495578063fc0c546a146104b7578063fe8cde34146104ca575b600080fd5b341561016057600080fd5b6101686104dd565b60405190815260200160405180910390f35b341561018557600080fd5b610190600435610501565b005b341561019d57600080fd5b6101a8600435610506565b604051918252600160a060020a031660208201526040908101905180910390f35b34156101d457600080fd5b61016861053e565b34156101e757600080fd5b6101fb600160a060020a0360043516610562565b604051901515815260200160405180910390f35b341561021a57600080fd5b610168600160a060020a03600435166105df565b341561023957600080fd5b61019061063c565b341561024c57600080fd5b610190600160a060020a0360043516602435604435610742565b341561027157600080fd5b61027961077c565b604051600160a060020a03909116815260200160405180910390f35b34156102a057600080fd5b6101a8600160a060020a036004351661078b565b34156102bf57600080fd5b610190600160a060020a03600435166024356107ac565b34156102e157600080fd5b610190600160a060020a0360043516610a3c565b341561030057600080fd5b610279600160a060020a0360043516610b87565b341561031f57600080fd5b6101fb600160a060020a0360043516610ba2565b341561033e57600080fd5b610190600435610c21565b341561035457600080fd5b61035f600435610c26565b604051600160a060020a03948516815292151560208401526040808401929092529092166060820152608001905180910390f35b341561039e57600080fd5b610190600160a060020a0360043516610c5e565b34156103bd57600080fd5b610190600160a060020a03600435166111c9565b34156103dc57600080fd5b610279600160a060020a0360043516611607565b34156103fb57600080fd5b610168600160a060020a0360043516602435611664565b341561041d57600080fd5b610190600160a060020a0360043516602435611a27565b341561043f57600080fd5b610190600435602435611a9b565b341561045857600080fd5b610190600160a060020a0360043516611bb9565b341561047757600080fd5b610190600435611f12565b341561048d57600080fd5b610168611f17565b34156104a057600080fd5b610190600160a060020a0360043516602435611f1d565b34156104c257600080fd5b610279612239565b34156104d557600080fd5b610279612248565b7f57495448445241575f46554e44535f524f4c450000000000000000000000000081565b600c55565b60008061053560048481548110151561051b57fe5b600091825260209091200154600160a060020a031661078b565b91509150915091565b7f4355524154455f4348414c4c454e47455f524f4c45000000000000000000000081565b600160a060020a038082166000908152600360205260408082205491929190911690633d9287fa90839051602001526040518163ffffffff1660e060020a028152600401602060405180830381600087803b15156105bf57600080fd5b6102c65a03f115156105d057600080fd5b50505060405180519392505050565b600160a060020a03808216600090815260036020526040808220549192919091169063a035b1fe90839051602001526040518163ffffffff1660e060020a028152600401602060405180830381600087803b15156105bf57600080fd5b60007f57495448445241575f46554e44535f524f4c45000000000000000000000000006106693382612257565b151561067457600080fd5b600654600160a060020a033081168031945091169063a9059cbb9033903160006040516020015260405160e060020a63ffffffff8516028152600160a060020a0390921660048301526024820152604401602060405180830381600087803b15156106de57600080fd5b6102c65a03f115156106ef57600080fd5b50505060405180519050507f7084f5476618d8e60b11ef0d7d3f06914655adb8793e28ff7f018d4c76d505d53383604051600160a060020a03909216825260208201526040908101905180910390a15050565b817fd5c977477c90fd6c009dd3275798b51da8bd2df8e0a25be47773f87b53d2e39960405160405180910390a26107776122fe565b505050565b600054600160a060020a031681565b600160a060020a039081166000908152600360205260408120549092911690565b600160a060020a03808316600090815260036020526040808220548316923316918391638da5cb5b919051602001526040518163ffffffff1660e060020a028152600401602060405180830381600087803b151561080957600080fd5b6102c65a03f1151561081a57600080fd5b50505060405180519050600160a060020a031614151561083957600080fd5b600654600160a060020a03166323b872dd33308560006040516020015260405160e060020a63ffffffff8616028152600160a060020a0393841660048201529190921660248201526044810191909152606401602060405180830381600087803b15156108a557600080fd5b6102c65a03f115156108b657600080fd5b5050506040518051905015156108cb57600080fd5b600160a060020a0381166335d9db538382633a4b66f16000604051602001526040518163ffffffff1660e060020a028152600401602060405180830381600087803b151561091857600080fd5b6102c65a03f1151561092957600080fd5b505050604051805190500160405160e060020a63ffffffff84160281526004810191909152602401600060405180830381600087803b151561096a57600080fd5b6102c65a03f1151561097b57600080fd5b5050507f8b05844824acf2db2f068e4006ef99b307ca4fe1a896d06e884700f1a9da3a6d838383600160a060020a0316633a4b66f16000604051602001526040518163ffffffff1660e060020a028152600401602060405180830381600087803b15156109e757600080fd5b6102c65a03f115156109f857600080fd5b505050604051805190506040518084600160a060020a0316600160a060020a03168152602001838152602001828152602001935050505060405180910390a1505050565b600160a060020a038116600081815260036020526040808220805473ffffffffffffffffffffffffffffffffffffffff19168417905583927f7583fed51a2ab4e582c68d93e281e0fcc2601ef4a7491d1d2d2dc511f6a91279928492633a4b66f1919051602001526040518163ffffffff1660e060020a028152600401602060405180830381600087803b1515610ad257600080fd5b6102c65a03f11515610ae357600080fd5b5050506040518051905083600160a060020a031663a035b1fe6000604051602001526040518163ffffffff1660e060020a028152600401602060405180830381600087803b1515610b3357600080fd5b6102c65a03f11515610b4457600080fd5b505050604051805190506040518084600160a060020a0316600160a060020a03168152602001838152602001828152602001935050505060405180910390a15050565b600360205260009081526040902054600160a060020a031681565b600160a060020a03808216600090815260036020526040808220549192839216906309af4fe690839051602001526040518163ffffffff1660e060020a028152600401602060405180830381600087803b1515610bfe57600080fd5b6102c65a03f11515610c0f57600080fd5b50505060405180519050119050919050565b600a55565b600560205260009081526040902080546001820154600290920154600160a060020a038083169360a060020a90930460ff1692911684565b600080600080610c6c612388565b60007f4355524154455f4348414c4c454e47455f524f4c450000000000000000000000610c993382612257565b1515610ca457600080fd5b600160a060020a03808916600090815260036020526040808220549092169850889163605cba82919051602001526040518163ffffffff1660e060020a028152600401602060405180830381600087803b1515610d0057600080fd5b6102c65a03f11515610d1157600080fd5b5050506040518051600c546006549198506064900488029650600160a060020a0316905063a9059cbb338760006040516020015260405160e060020a63ffffffff8516028152600160a060020a0390921660048301526024820152604401602060405180830381600087803b1515610d8857600080fd5b6102c65a03f11515610d9957600080fd5b50505060405180515060009450505b86600160a060020a03166333a2cc016000604051602001526040518163ffffffff1660e060020a028152600401602060405180830381600087803b1515610dee57600080fd5b6102c65a03f11515610dff57600080fd5b50505060405180519050841015611016576005600088600160a060020a031663c32e11028760006040516020015260405160e060020a63ffffffff84160281526004810191909152602401602060405180830381600087803b1515610e6357600080fd5b6102c65a03f11515610e7457600080fd5b505050604051805190508152602001908152602001600020608060405190810160409081528254600160a060020a03808216845260a060020a90910460ff16151560208401526001840154918301919091526002909201548216606082015260065490945086880393501663a9059cbb8451888660400151811515610ef557fe5b04850260006040516020015260405160e060020a63ffffffff8516028152600160a060020a0390921660048301526024820152604401602060405180830381600087803b1515610f4457600080fd5b6102c65a03f11515610f5557600080fd5b505050604051805190505060016005600089600160a060020a031663c32e11028860006040516020015260405160e060020a63ffffffff84160281526004810191909152602401602060405180830381600087803b1515610fb557600080fd5b6102c65a03f11515610fc657600080fd5b50505060405180518252506020810191909152604001600020805491151560a060020a0274ff00000000000000000000000000000000000000001990921691909117905560019390930192610da8565b86600160a060020a03166335d9db53600060405160e060020a63ffffffff84160281526004810191909152602401600060405180830381600087803b151561105d57600080fd5b6102c65a03f1151561106e57600080fd5b50505086600160a060020a0316636de149f5600060405160e060020a63ffffffff84160281526004810191909152602401600060405180830381600087803b15156110b857600080fd5b6102c65a03f115156110c957600080fd5b50505086600160a060020a03166331ec7fce600060405160e060020a63ffffffff84160281526004810191909152602401600060405180830381600087803b151561111357600080fd5b6102c65a03f1151561112457600080fd5b50505086600160a060020a0316637b789204600060405160e060020a63ffffffff84160281529015156004820152602401600060405180830381600087803b151561116e57600080fd5b6102c65a03f1151561117f57600080fd5b5050507f9d9f99a36ef64966814c1f89a7a64fcb0132cbd085184a9666469302f32b92c488604051600160a060020a03909116815260200160405180910390a15050505050505050565b6000806000807f4355524154455f4348414c4c454e47455f524f4c4500000000000000000000006111fa3382612257565b151561120557600080fd5b600160a060020a03808716600090815260036020526040808220549092169650869163605cba82919051602001526040518163ffffffff1660e060020a028152600401602060405180830381600087803b151561126157600080fd5b6102c65a03f1151561127257600080fd5b5050506040518051600c546006549196506064900486029450600160a060020a0316905063a9059cbb338560006040516020015260405160e060020a63ffffffff8516028152600160a060020a0390921660048301526024820152604401602060405180830381600087803b15156112e957600080fd5b6102c65a03f115156112fa57600080fd5b50505060405180515050600654600160a060020a039081169063a9059cbb908716638da5cb5b6000604051602001526040518163ffffffff1660e060020a028152600401602060405180830381600087803b151561135757600080fd5b6102c65a03f1151561136857600080fd5b50505060405180519050611382878763ffffffff61237616565b60006040516020015260405160e060020a63ffffffff8516028152600160a060020a0390921660048301526024820152604401602060405180830381600087803b15156113ce57600080fd5b6102c65a03f115156113df57600080fd5b50505060405180515060009250505b84600160a060020a03166333a2cc016000604051602001526040518163ffffffff1660e060020a028152600401602060405180830381600087803b151561143457600080fd5b6102c65a03f1151561144557600080fd5b5050506040518051905082101561150c5760016005600087600160a060020a031663c32e11028660006040516020015260405160e060020a63ffffffff84160281526004810191909152602401602060405180830381600087803b15156114ab57600080fd5b6102c65a03f115156114bc57600080fd5b50505060405180518252506020810191909152604001600020805491151560a060020a0274ff000000000000000000000000000000000000000019909216919091179055600191909101906113ee565b84600160a060020a03166331ec7fce600060405160e060020a63ffffffff84160281526004810191909152602401600060405180830381600087803b151561155357600080fd5b6102c65a03f1151561156457600080fd5b50505084600160a060020a0316636de149f5600060405160e060020a63ffffffff84160281526004810191909152602401600060405180830381600087803b15156115ae57600080fd5b6102c65a03f115156115bf57600080fd5b5050507f125014e75e2aead4a1c8a35e9bb786a430fc1ba6354cbd9845802d3603abd0b086604051600160a060020a03909116815260200160405180910390a1505050505050565b600160a060020a038082166000908152600360205260408082205491929190911690638da5cb5b90839051602001526040518163ffffffff1660e060020a028152600401602060405180830381600087803b15156105bf57600080fd5b60008061166f612388565b600b5484101561167e57600080fd5b600160a060020a03808616600090815260036020526040808220546006549084169550909216916323b872dd91339130918991516020015260405160e060020a63ffffffff8616028152600160a060020a0393841660048201529190921660248201526044810191909152606401602060405180830381600087803b151561170557600080fd5b6102c65a03f1151561171657600080fd5b50505060405180519050151561172b57600080fd5b6009805460010190819055925060806040519081016040908152600160a060020a03338116835260006020808501829052838501899052918916606085015286815260059091522090915081908151815473ffffffffffffffffffffffffffffffffffffffff1916600160a060020a03919091161781556020820151815490151560a060020a0274ff000000000000000000000000000000000000000019909116178155604082015181600101556060820151600291909101805473ffffffffffffffffffffffffffffffffffffffff1916600160a060020a03928316179055831690506331ec7fce816309af4fe66000604051602001526040518163ffffffff1660e060020a028152600401602060405180830381600087803b151561185157600080fd5b6102c65a03f1151561186257600080fd5b5050506040518051905060010160405160e060020a63ffffffff84160281526004810191909152602401600060405180830381600087803b15156118a557600080fd5b6102c65a03f115156118b657600080fd5b50505081600160a060020a03166332fd14418460405160e060020a63ffffffff84160281526004810191909152602401600060405180830381600087803b15156118ff57600080fd5b6102c65a03f1151561191057600080fd5b505050600160a060020a038216636de149f5858263605cba826000604051602001526040518163ffffffff1660e060020a028152600401602060405180830381600087803b151561196057600080fd5b6102c65a03f1151561197157600080fd5b505050604051805190500160405160e060020a63ffffffff84160281526004810191909152602401600060405180830381600087803b15156119b257600080fd5b6102c65a03f115156119c357600080fd5b5050507fe0c6c1f959ea19af04f1a1862f00c826f9aab9ca9ed5fe3798051f78560bee3a8585856040518084600160a060020a0316600160a060020a03168152602001838152602001828152602001935050505060405180910390a1505092915050565b600160a060020a038083166000908152600360205260409081902054909116906391b7f5ed9083905160e060020a63ffffffff84160281526004810191909152602401600060405180830381600087803b1515611a8357600080fd5b6102c65a03f11515611a9457600080fd5b5050505050565b600a54821015611aaa57600080fd5b600654600160a060020a03166323b872dd33308560006040516020015260405160e060020a63ffffffff8616028152600160a060020a0393841660048201529190921660248201526044810191909152606401602060405180830381600087803b1515611b1657600080fd5b6102c65a03f11515611b2757600080fd5b505050604051805190501515611b3c57600080fd5b600754600854600160a060020a039182169163509bd5ae91339185918791163060405160e060020a63ffffffff8816028152600160a060020a0395861660048201526024810194909452604484019290925283166064830152909116608482015260a401600060405180830381600087803b1515611a8357600080fd5b600160a060020a0380821660009081526003602052604080822054909216918291638da5cb5b9151602001526040518163ffffffff1660e060020a028152600401602060405180830381600087803b1515611c1357600080fd5b6102c65a03f11515611c2457600080fd5b50505060405180519050600160a060020a031633600160a060020a0316141515611c4d57600080fd5b611c5682610562565b1515611c6157600080fd5b80600160a060020a03166309af4fe66000604051602001526040518163ffffffff1660e060020a028152600401602060405180830381600087803b1515611ca757600080fd5b6102c65a03f11515611cb857600080fd5b5050506040518051159050611ccc57600080fd5b600081600160a060020a0316633a4b66f16000604051602001526040518163ffffffff1660e060020a028152600401602060405180830381600087803b1515611d1457600080fd5b6102c65a03f11515611d2557600080fd5b505050604051805190501115611e7657600654600160a060020a039081169063a9059cbb908316638da5cb5b6000604051602001526040518163ffffffff1660e060020a028152600401602060405180830381600087803b1515611d8857600080fd5b6102c65a03f11515611d9957600080fd5b5050506040518051905083600160a060020a0316633a4b66f16000604051602001526040518163ffffffff1660e060020a028152600401602060405180830381600087803b1515611de957600080fd5b6102c65a03f11515611dfa57600080fd5b5050506040518051905060006040516020015260405160e060020a63ffffffff8516028152600160a060020a0390921660048301526024820152604401602060405180830381600087803b1515611e5057600080fd5b6102c65a03f11515611e6157600080fd5b505050604051805190501515611e7657600080fd5b80600160a060020a0316637b789204600060405160e060020a63ffffffff84160281529015156004820152602401600060405180830381600087803b1515611ebd57600080fd5b6102c65a03f11515611ece57600080fd5b5050507fc48322c2e165c864176005884983dd81c87a9fc8258ca6a1967d17b26cd8d0e382604051600160a060020a03909116815260200160405180910390a15050565b600b55565b60045490565b600160a060020a03808316600090815260036020526040808220549092169181908390633a4b66f190839051602001526040518163ffffffff1660e060020a028152600401602060405180830381600087803b1515611f7b57600080fd5b6102c65a03f11515611f8c57600080fd5b5050506040518051925050600160a060020a03831663605cba826000604051602001526040518163ffffffff1660e060020a028152600401602060405180830381600087803b1515611fdd57600080fd5b6102c65a03f11515611fee57600080fd5b50505060405180519050905033600160a060020a031683600160a060020a0316638da5cb5b6000604051602001526040518163ffffffff1660e060020a028152600401602060405180830381600087803b151561204a57600080fd5b6102c65a03f1151561205b57600080fd5b50505060405180519050600160a060020a031614151561207a57600080fd5b8184111561208757600080fd5b600a54848303101561209857600080fd5b600654600160a060020a031663a9059cbb338660006040516020015260405160e060020a63ffffffff8516028152600160a060020a0390921660048301526024820152604401602060405180830381600087803b15156120f757600080fd5b6102c65a03f1151561210857600080fd5b50505060405180519050151561211d57600080fd5b82600160a060020a03166335d9db5385840360405160e060020a63ffffffff84160281526004810191909152602401600060405180830381600087803b151561216557600080fd5b6102c65a03f1151561217657600080fd5b5050507f5ee9537083cb767f9e599a17876a9c597197deba435082e0b88c4da925d4599e858585600160a060020a0316633a4b66f16000604051602001526040518163ffffffff1660e060020a028152600401602060405180830381600087803b15156121e257600080fd5b6102c65a03f115156121f357600080fd5b505050604051805190506040518084600160a060020a0316600160a060020a03168152602001838152602001828152602001935050505060405180910390a15050505050565b600654600160a060020a031681565b600754600160a060020a031681565b60008054600160a060020a031615806122f7575060008054600160a060020a031690636d6712d8908590309086906040516020015260405160e060020a63ffffffff8616028152600160a060020a0393841660048201529190921660248201526044810191909152606401602060405180830381600087803b15156122db57600080fd5b6102c65a03f115156122ec57600080fd5b505050604051805190505b9392505050565b600154600254600160a060020a0390911690633d188fab906000908160405160e060020a63ffffffff8616028152600160a060020a03909316600484015260248301919091526044820152606401600060405180830381600087803b151561236557600080fd5b6102c65a03f1151561077757600080fd5b60008282111561238257fe5b50900390565b608060405190810160409081526000808352602083018190529082018190526060820152905600a165627a7a72305820d51facaaed80dfab7a3869d99848dfc4b229713d4600cd19d9fe73123f7fb1b60029",
  "source": "pragma solidity ^0.4.17;\n\nimport \"@settlemint/solidity-mint/contracts/marketplaces/tokencuratedregistry/TokenCuratedRegistry.sol\";\nimport \"@settlemint/solidity-mint/contracts/marketplaces/tokensystem/Token.sol\";\n\n\ncontract StreamRegistry is TokenCuratedRegistry {\n\n  // Initial values, these can be changed with setters\n  uint MIN_ENLIST_AMOUNT = 10;\n  uint MIN_CHALLENGE_AMOUNT = 5;\n  uint ADMIN_PERCENTAGE = 10;\n\n  /**\n  @dev Contructor\n  @notice                Sets the address for token\n  @param _gateKeeper     Address of the gatekeeper\n  @param _token          Address of the token\n  */\n  function StreamRegistry(\n    address _gateKeeper,\n    address _token,\n    address _listingFactory\n  )\n    TokenCuratedRegistry(\n      \"StreamRegistry\",\n      _gateKeeper,\n      _token,\n      _listingFactory,\n      MIN_ENLIST_AMOUNT,\n      MIN_CHALLENGE_AMOUNT,\n      ADMIN_PERCENTAGE\n    )\n    public\n  {}\n\n  /**\n  @notice                Gets the price of a stream\n  @param _listing        key of the listing\n  */\n  function getStreamPrice(address _listing) view public returns (uint price) {\n    return listings[_listing].price();\n  }\n\n  /**\n  @notice                Gets the owner of a stream\n  @param _listing        key of the listing\n  */\n  function getStreamOwner(address _listing) view public returns (address owner) {\n    return listings[_listing].owner();\n  }\n}\n",
  "sourcePath": "/Users/silkevandenbroeck/databrokerDAO/databrokerdao-dapi/contracts/stream/StreamRegistry.sol",
  "compiler": {
    "name": "solc",
    "version": "0.4.20+commit.3155dd80.Emscripten.clang"
  },
  "schemaVersion": "1.0.1",
  "updatedAt": "2018-02-23T12:09:32.871Z"
}