{
  "contractName": "StreamPurchasing",
  "abi": [
    {
      "constant": true,
      "inputs": [],
      "name": "gateKeeper",
      "outputs": [
        {
          "name": "",
          "type": "address"
        }
      ],
      "payable": false,
      "stateMutability": "view",
      "type": "function"
    },
    {
      "constant": true,
      "inputs": [
        {
          "name": "",
          "type": "bytes32"
        }
      ],
      "name": "streams",
      "outputs": [
        {
          "name": "pricePerSecond",
          "type": "uint256"
        }
      ],
      "payable": false,
      "stateMutability": "view",
      "type": "function"
    },
    {
      "constant": true,
      "inputs": [],
      "name": "token",
      "outputs": [
        {
          "name": "",
          "type": "address"
        }
      ],
      "payable": false,
      "stateMutability": "view",
      "type": "function"
    },
    {
      "inputs": [
        {
          "name": "_gateKeeper",
          "type": "address"
        },
        {
          "name": "_token",
          "type": "address"
        },
        {
          "name": "_streamRegistry",
          "type": "address"
        }
      ],
      "payable": false,
      "stateMutability": "nonpayable",
      "type": "constructor"
    },
    {
      "anonymous": false,
      "inputs": [
        {
          "indexed": false,
          "name": "listing",
          "type": "bytes32"
        },
        {
          "indexed": false,
          "name": "user",
          "type": "address"
        },
        {
          "indexed": false,
          "name": "startTime",
          "type": "uint256"
        },
        {
          "indexed": false,
          "name": "endTime",
          "type": "uint256"
        },
        {
          "indexed": false,
          "name": "price",
          "type": "uint256"
        }
      ],
      "name": "AccessPurchased",
      "type": "event"
    },
    {
      "anonymous": false,
      "inputs": [
        {
          "indexed": true,
          "name": "key",
          "type": "address"
        }
      ],
      "name": "AddressCacheInvalidated",
      "type": "event"
    },
    {
      "anonymous": false,
      "inputs": [
        {
          "indexed": true,
          "name": "key",
          "type": "bytes32"
        }
      ],
      "name": "Bytes32CacheInvalidated",
      "type": "event"
    },
    {
      "anonymous": false,
      "inputs": [
        {
          "indexed": true,
          "name": "key",
          "type": "uint256"
        }
      ],
      "name": "Uint256CacheInvalidated",
      "type": "event"
    },
    {
      "constant": false,
      "inputs": [
        {
          "name": "_stream",
          "type": "bytes32"
        },
        {
          "name": "_endTime",
          "type": "uint256"
        }
      ],
      "name": "purchaseAccess",
      "outputs": [],
      "payable": false,
      "stateMutability": "nonpayable",
      "type": "function"
    },
    {
      "constant": false,
      "inputs": [
        {
          "name": "_stream",
          "type": "bytes32"
        }
      ],
      "name": "hasAccess",
      "outputs": [
        {
          "name": "hasAccess",
          "type": "bool"
        }
      ],
      "payable": false,
      "stateMutability": "nonpayable",
      "type": "function"
    },
    {
      "constant": false,
      "inputs": [
        {
          "name": "_salePercentage",
          "type": "uint256"
        }
      ],
      "name": "setSalePercentage",
      "outputs": [],
      "payable": false,
      "stateMutability": "nonpayable",
      "type": "function"
    },
    {
      "constant": true,
      "inputs": [],
      "name": "getIndexLength",
      "outputs": [
        {
          "name": "length",
          "type": "uint256"
        }
      ],
      "payable": false,
      "stateMutability": "view",
      "type": "function"
    },
    {
      "constant": true,
      "inputs": [
        {
          "name": "index",
          "type": "uint256"
        }
      ],
      "name": "getByIndex",
      "outputs": [
        {
          "name": "key",
          "type": "bytes32"
        },
        {
          "name": "contractAddress",
          "type": "address"
        }
      ],
      "payable": false,
      "stateMutability": "view",
      "type": "function"
    },
    {
      "constant": true,
      "inputs": [
        {
          "name": "_key",
          "type": "bytes32"
        }
      ],
      "name": "getByKey",
      "outputs": [
        {
          "name": "key",
          "type": "bytes32"
        },
        {
          "name": "",
          "type": "address"
        }
      ],
      "payable": false,
      "stateMutability": "view",
      "type": "function"
    },
    {
      "constant": false,
      "inputs": [
        {
          "name": "",
          "type": "address"
        },
        {
          "name": "_cachedBytes32",
          "type": "bytes32"
        },
        {
          "name": "",
          "type": "uint256"
        }
      ],
      "name": "invalidateCache",
      "outputs": [],
      "payable": false,
      "stateMutability": "nonpayable",
      "type": "function"
    }
  ],
  "bytecode": "0x60606040526001600755341561001457600080fd5b60405160608061082783398101604052808051919060200180519190602001805160008054600160a060020a0319908116600160a060020a039788161782556001805482163089161790557f53747265616d50757263686173696e67000000000000000000000000000000006002556005805482169688169690961790955560068054909516919095161790925550610773918291506100b490396000f30060606040526004361061008a5763ffffffff60e060020a6000350416632d883a73811461008f5780633d188fab146100c657806345d61ded146100ed5780634a91da901461011c57806372cc9850146101325780637f7bd2df1461014857806399233ded14610170578063db83423d14610189578063e1ba7d01146101b3578063fc0c546a146101c6575b600080fd5b341561009a57600080fd5b6100a56004356101d9565b604051918252600160a060020a031660208201526040908101905180910390f35b34156100d157600080fd5b6100eb600160a060020a0360043516602435604435610208565b005b34156100f857600080fd5b610100610242565b604051600160a060020a03909116815260200160405180910390f35b341561012757600080fd5b6100a5600435610251565b341561013d57600080fd5b6100eb600435610257565b341561015357600080fd5b61015e60043561025c565b60405190815260200160405180910390f35b341561017b57600080fd5b6100eb60043560243561026e565b341561019457600080fd5b61019f6004356105de565b604051901515815260200160405180910390f35b34156101be57600080fd5b61015e61061b565b34156101d157600080fd5b610100610621565b6000806101ff6004848154811015156101ee57fe5b906000526020600020900154610251565b91509150915091565b817fd5c977477c90fd6c009dd3275798b51da8bd2df8e0a25be47773f87b53d2e39960405160405180910390a261023d610630565b505050565b600054600160a060020a031681565b90600090565b600755565b60036020526000908152604090205481565b6000828152600360209081526040808320600160a060020a033316845260018101909252822054909190819081908190156102a857600080fd5b600654600160a060020a0316637bf8d4018860006040516020015260405160e060020a63ffffffff84160281526004810191909152602401602060405180830381600087803b15156102f957600080fd5b6102c65a03f1151561030a57600080fd5b50505060405180519450429350610339905061032c878563ffffffff6106a816565b859063ffffffff6106ba16565b915061036161035460646007546106f090919063ffffffff16565b839063ffffffff6106ba16565b600554600654919250600160a060020a03908116916323b872dd91339116630bb786de8b60006040516020015260405160e060020a63ffffffff84160281526004810191909152602401602060405180830381600087803b15156103c457600080fd5b6102c65a03f115156103d557600080fd5b505050604051805190506103ef868663ffffffff6106a816565b60006040516020015260405160e060020a63ffffffff8616028152600160a060020a0393841660048201529190921660248201526044810191909152606401602060405180830381600087803b151561044757600080fd5b6102c65a03f1151561045857600080fd5b50505060405180519050151561046d57600080fd5b600554600160a060020a03166323b872dd33308460006040516020015260405160e060020a63ffffffff8616028152600160a060020a0393841660048201529190921660248201526044810191909152606401602060405180830381600087803b15156104d957600080fd5b6102c65a03f115156104ea57600080fd5b5050506040518051905015156104ff57600080fd5b60206040519081016040908152878252600160a060020a0333166000908152600188016020522081519055506002850180546001810161053f8382610707565b506000918252602090912001805473ffffffffffffffffffffffffffffffffffffffff191633600160a060020a038116919091179091557f3d3d9c8ca0368ab310bf974baa26a0adedd100d14d142932132dd52f27eb617c908890858986604051948552600160a060020a0390931660208501526040808501929092526060840152608083019190915260a0909101905180910390a150505050505050565b6000818152600360209081526040808320600160a060020a0333168452600101909152812054151561061257506000610616565b5060015b919050565b60045490565b600554600160a060020a031681565b600154600254600160a060020a0390911690633d188fab906000908160405160e060020a63ffffffff8616028152600160a060020a03909316600484015260248301919091526044820152606401600060405180830381600087803b151561069757600080fd5b6102c65a03f1151561023d57600080fd5b6000828211156106b457fe5b50900390565b6000808315156106cd57600091506106e9565b508282028284828115156106dd57fe5b04146106e557fe5b8091505b5092915050565b60008082848115156106fe57fe5b04949350505050565b81548183558181151161023d5760008381526020902061023d91810190830161074491905b80821115610740576000815560010161072c565b5090565b905600a165627a7a723058209067b23ec615f50484da8dd9b3d5449388c06b2c185798188f20e64a90d7f8620029",
  "source": "pragma solidity ^0.4.17;\n\nimport \"./StreamRegistry.sol\";\nimport \"./dtxtoken/DtxToken.sol\";\nimport \"@settlemint/solidity-mint/contracts/authentication/Secured.sol\";\nimport \"@settlemint/solidity-mint/contracts/utility/syncing/Syncable.sol\";\nimport \"@settlemint/solidity-mint/contracts/utility/caching/Cacher.sol\";\nimport \"@settlemint/solidity-mint/contracts/utility/caching/CachedByBytes32.sol\";\nimport \"zeppelin-solidity/contracts/math/SafeMath.sol\";\n\n\ncontract StreamPurchasing is Secured, Syncable, Cacher, CachedByBytes32 {\n  using SafeMath for uint256;\n\n  event AccessPurchased(bytes32 listing, address user, uint startTime, uint endTime, uint price);\n\n  struct Stream {\n    uint pricePerSecond;\n    mapping (address => Purchase) purchases; // the list of purchases\n    address[] purchasers; // a list of all the keys in the mapping\n  }\n\n  struct Purchase {\n    uint endTime; // the time at which the purchaser will lose access to this Stream\n  }\n\n  mapping (bytes32 => Stream) public streams;\n  bytes32[] streamsIndex;\n\n  DtxToken public token;\n  StreamRegistry streamRegistry;\n  uint salePercentage = 1;\n\n  /**\n  @dev Contructor\n  @notice                Sets the address for token\n  @param _gateKeeper     Address of the gatekeeper\n  @param _token          Address of the token\n  */\n  function StreamPurchasing(\n    address _gateKeeper,\n    address _token,\n    address _streamRegistry\n  )\n    Secured(_gateKeeper)\n    CachedByBytes32(\"StreamPurchasing\", this)\n    public\n  {\n    token = DtxToken(_token);\n    streamRegistry = StreamRegistry(_streamRegistry);\n  }\n\n  /**\n  @notice               Lets the sender buy access to the Stream\n  @param _stream        Id of the listing\n  @param _endTime       Timestamp of when the user will stop receiving Stream readings in seconds (not milliseconds!)\n  */\n  function purchaseAccess(bytes32 _stream, uint _endTime) public {\n    Stream storage stream = streams[_stream];\n\n    // Check if user doesn't have access to this stream yet\n    require(stream.purchases[msg.sender].endTime == 0);\n\n    // Calculate total cost for the user\n    uint _streamPricePerSecond = streamRegistry.getStreamPrice(_stream);\n    uint _startTime = now;\n    uint _streamPrice = _streamPricePerSecond.mul(_endTime.sub(_startTime));\n\n    // Pay out:\n    uint _salePercentage = _streamPrice.mul(salePercentage.div(100));\n    // Sensor owner\n    require(token.transferFrom(msg.sender, streamRegistry.getStreamOwner(_stream), _streamPrice.sub(_salePercentage)));\n    // DBDAO\n    require(token.transferFrom(msg.sender, this, _salePercentage));\n\n    // Add purchase\n    stream.purchases[msg.sender] = Purchase({\n      endTime: _endTime\n    });\n\n    // Add sender to the purchasers array\n    stream.purchasers.push(msg.sender);\n\n    AccessPurchased(_stream, msg.sender, _startTime, _endTime, _streamPrice);\n  }\n\n  function hasAccess(bytes32 _stream) public returns (bool hasAccess){\n    if (streams[_stream].purchases[msg.sender].endTime == 0) {\n      return false;\n    }\n    return true;\n  }\n\n  /**\n  @notice                Sets the sale percentage\n  @param _salePercentage salePercentage\n  */\n  function setSalePercentage(uint _salePercentage) public {\n    salePercentage = _salePercentage;\n  }\n\n  /**\n  * implementation of syncable methods\n  */\n  function getIndexLength() public view returns (uint length) {\n    length = streamsIndex.length;\n  }\n\n  function getByIndex(uint index) public view returns (bytes32 key, address contractAddress) {\n    return getByKey(streamsIndex[index]);\n  }\n\n  function getByKey(bytes32 _key) public view returns (bytes32 key, address /*contractAddress*/) {\n    key = _key;\n  }\n\n  /**\n  * implementation of cacher methods\n  */\n  function invalidateCache(address /*_cachedAddress*/, bytes32 _cachedBytes32, uint256 /*_cachedUint256*/) public {\n    Bytes32CacheInvalidated(_cachedBytes32);\n    super.invalidateCache();\n  }\n}\n",
  "sourcePath": "/Users/silkevandenbroeck/databrokerDAO/databrokerdao-dapi/contracts/StreamPurchasing.sol",
  "compiler": {
    "name": "solc",
    "version": "0.4.20+commit.3155dd80.Emscripten.clang"
  },
  "schemaVersion": "1.0.1",
  "updatedAt": "2018-02-19T09:44:53.527Z"
}