{
  "contractName": "StreamRegistry",
  "abi": [
    {
      "constant": true,
      "inputs": [],
      "name": "WITHDRAW_FUNDS_ROLE",
      "outputs": [
        {
          "name": "",
          "type": "bytes32"
        }
      ],
      "payable": false,
      "stateMutability": "view",
      "type": "function"
    },
    {
      "constant": false,
      "inputs": [
        {
          "name": "_stakeAmount",
          "type": "uint256"
        },
        {
          "name": "_price",
          "type": "uint256"
        },
        {
          "name": "_metadata",
          "type": "string"
        }
      ],
      "name": "enlist",
      "outputs": [],
      "payable": false,
      "stateMutability": "nonpayable",
      "type": "function"
    },
    {
      "constant": true,
      "inputs": [
        {
          "name": "index",
          "type": "uint256"
        }
      ],
      "name": "getByIndex",
      "outputs": [
        {
          "name": "key",
          "type": "address"
        },
        {
          "name": "contractAddress",
          "type": "address"
        }
      ],
      "payable": false,
      "stateMutability": "view",
      "type": "function"
    },
    {
      "constant": true,
      "inputs": [],
      "name": "CURATE_CHALLENGE_ROLE",
      "outputs": [
        {
          "name": "",
          "type": "bytes32"
        }
      ],
      "payable": false,
      "stateMutability": "view",
      "type": "function"
    },
    {
      "constant": true,
      "inputs": [],
      "name": "CHANGE_SETTINGS_ROLE",
      "outputs": [
        {
          "name": "",
          "type": "bytes32"
        }
      ],
      "payable": false,
      "stateMutability": "view",
      "type": "function"
    },
    {
      "constant": false,
      "inputs": [
        {
          "name": "_curatorPercentage",
          "type": "uint256"
        }
      ],
      "name": "setCuratorPercentage",
      "outputs": [],
      "payable": false,
      "stateMutability": "nonpayable",
      "type": "function"
    },
    {
      "constant": false,
      "inputs": [],
      "name": "withdraw",
      "outputs": [],
      "payable": false,
      "stateMutability": "nonpayable",
      "type": "function"
    },
    {
      "constant": false,
      "inputs": [
        {
          "name": "_cachedAddress",
          "type": "address"
        },
        {
          "name": "",
          "type": "bytes32"
        },
        {
          "name": "",
          "type": "uint256"
        }
      ],
      "name": "invalidateCache",
      "outputs": [],
      "payable": false,
      "stateMutability": "nonpayable",
      "type": "function"
    },
    {
      "constant": true,
      "inputs": [],
      "name": "gateKeeper",
      "outputs": [
        {
          "name": "",
          "type": "address"
        }
      ],
      "payable": false,
      "stateMutability": "view",
      "type": "function"
    },
    {
      "constant": true,
      "inputs": [
        {
          "name": "_key",
          "type": "address"
        }
      ],
      "name": "getByKey",
      "outputs": [
        {
          "name": "key",
          "type": "address"
        },
        {
          "name": "contractAddress",
          "type": "address"
        }
      ],
      "payable": false,
      "stateMutability": "view",
      "type": "function"
    },
    {
      "constant": false,
      "inputs": [
        {
          "name": "_listing",
          "type": "address"
        },
        {
          "name": "_stakeAmount",
          "type": "uint256"
        }
      ],
      "name": "increase",
      "outputs": [],
      "payable": false,
      "stateMutability": "nonpayable",
      "type": "function"
    },
    {
      "constant": false,
      "inputs": [
        {
          "name": "_listing",
          "type": "address"
        }
      ],
      "name": "addListing",
      "outputs": [],
      "payable": false,
      "stateMutability": "nonpayable",
      "type": "function"
    },
    {
      "constant": true,
      "inputs": [
        {
          "name": "",
          "type": "address"
        }
      ],
      "name": "listings",
      "outputs": [
        {
          "name": "",
          "type": "address"
        }
      ],
      "payable": false,
      "stateMutability": "view",
      "type": "function"
    },
    {
      "constant": false,
      "inputs": [
        {
          "name": "_minEnlistAmount",
          "type": "uint256"
        }
      ],
      "name": "setMinEnlistAmount",
      "outputs": [],
      "payable": false,
      "stateMutability": "nonpayable",
      "type": "function"
    },
    {
      "constant": true,
      "inputs": [
        {
          "name": "",
          "type": "uint256"
        }
      ],
      "name": "challenges",
      "outputs": [
        {
          "name": "challenger",
          "type": "address"
        },
        {
          "name": "resolved",
          "type": "bool"
        },
        {
          "name": "stake",
          "type": "uint256"
        },
        {
          "name": "listing",
          "type": "address"
        }
      ],
      "payable": false,
      "stateMutability": "view",
      "type": "function"
    },
    {
      "constant": false,
      "inputs": [
        {
          "name": "_listing",
          "type": "address"
        }
      ],
      "name": "approveChallenge",
      "outputs": [],
      "payable": false,
      "stateMutability": "nonpayable",
      "type": "function"
    },
    {
      "constant": false,
      "inputs": [
        {
          "name": "_listing",
          "type": "address"
        }
      ],
      "name": "denyChallenge",
      "outputs": [],
      "payable": false,
      "stateMutability": "nonpayable",
      "type": "function"
    },
    {
      "constant": false,
      "inputs": [
        {
          "name": "_listing",
          "type": "address"
        },
        {
          "name": "_stakeAmount",
          "type": "uint256"
        }
      ],
      "name": "challenge",
      "outputs": [],
      "payable": false,
      "stateMutability": "nonpayable",
      "type": "function"
    },
    {
      "constant": false,
      "inputs": [
        {
          "name": "_listing",
          "type": "address"
        }
      ],
      "name": "unlist",
      "outputs": [],
      "payable": false,
      "stateMutability": "nonpayable",
      "type": "function"
    },
    {
      "constant": false,
      "inputs": [
        {
          "name": "_minChallengeAmount",
          "type": "uint256"
        }
      ],
      "name": "setMinChallengeAmount",
      "outputs": [],
      "payable": false,
      "stateMutability": "nonpayable",
      "type": "function"
    },
    {
      "constant": true,
      "inputs": [],
      "name": "getIndexLength",
      "outputs": [
        {
          "name": "length",
          "type": "uint256"
        }
      ],
      "payable": false,
      "stateMutability": "view",
      "type": "function"
    },
    {
      "constant": false,
      "inputs": [
        {
          "name": "_listing",
          "type": "address"
        },
        {
          "name": "_stakeAmount",
          "type": "uint256"
        }
      ],
      "name": "decrease",
      "outputs": [],
      "payable": false,
      "stateMutability": "nonpayable",
      "type": "function"
    },
    {
      "constant": true,
      "inputs": [],
      "name": "token",
      "outputs": [
        {
          "name": "",
          "type": "address"
        }
      ],
      "payable": false,
      "stateMutability": "view",
      "type": "function"
    },
    {
      "constant": true,
      "inputs": [],
      "name": "listingFactory",
      "outputs": [
        {
          "name": "",
          "type": "address"
        }
      ],
      "payable": false,
      "stateMutability": "view",
      "type": "function"
    },
    {
      "inputs": [
        {
          "name": "_gateKeeper",
          "type": "address"
        },
        {
          "name": "_token",
          "type": "address"
        },
        {
          "name": "_listingFactory",
          "type": "address"
        }
      ],
      "payable": false,
      "stateMutability": "nonpayable",
      "type": "constructor"
    },
    {
      "anonymous": false,
      "inputs": [
        {
          "indexed": false,
          "name": "listing",
          "type": "address"
        },
        {
          "indexed": false,
          "name": "stake",
          "type": "uint256"
        },
        {
          "indexed": false,
          "name": "price",
          "type": "uint256"
        }
      ],
      "name": "Enlisted",
      "type": "event"
    },
    {
      "anonymous": false,
      "inputs": [
        {
          "indexed": false,
          "name": "listing",
          "type": "address"
        },
        {
          "indexed": false,
          "name": "stake",
          "type": "uint256"
        },
        {
          "indexed": false,
          "name": "challengeID",
          "type": "uint256"
        }
      ],
      "name": "Challenged",
      "type": "event"
    },
    {
      "anonymous": false,
      "inputs": [
        {
          "indexed": false,
          "name": "listing",
          "type": "address"
        }
      ],
      "name": "Unlisted",
      "type": "event"
    },
    {
      "anonymous": false,
      "inputs": [
        {
          "indexed": false,
          "name": "listing",
          "type": "address"
        }
      ],
      "name": "ChallengeApproved",
      "type": "event"
    },
    {
      "anonymous": false,
      "inputs": [
        {
          "indexed": false,
          "name": "listing",
          "type": "address"
        }
      ],
      "name": "ChallengeDenied",
      "type": "event"
    },
    {
      "anonymous": false,
      "inputs": [
        {
          "indexed": false,
          "name": "listing",
          "type": "address"
        },
        {
          "indexed": false,
          "name": "increasedBy",
          "type": "uint256"
        },
        {
          "indexed": false,
          "name": "newStake",
          "type": "uint256"
        }
      ],
      "name": "Increased",
      "type": "event"
    },
    {
      "anonymous": false,
      "inputs": [
        {
          "indexed": false,
          "name": "listing",
          "type": "address"
        },
        {
          "indexed": false,
          "name": "decreasedBy",
          "type": "uint256"
        },
        {
          "indexed": false,
          "name": "newStake",
          "type": "uint256"
        }
      ],
      "name": "Decreased",
      "type": "event"
    },
    {
      "anonymous": false,
      "inputs": [
        {
          "indexed": false,
          "name": "by",
          "type": "address"
        },
        {
          "indexed": false,
          "name": "balance",
          "type": "uint256"
        }
      ],
      "name": "Withdrawn",
      "type": "event"
    },
    {
      "anonymous": false,
      "inputs": [
        {
          "indexed": false,
          "name": "value",
          "type": "uint256"
        }
      ],
      "name": "MinEnlistAmountChanged",
      "type": "event"
    },
    {
      "anonymous": false,
      "inputs": [
        {
          "indexed": false,
          "name": "value",
          "type": "uint256"
        }
      ],
      "name": "MinChallengeAmountChanged",
      "type": "event"
    },
    {
      "anonymous": false,
      "inputs": [
        {
          "indexed": false,
          "name": "value",
          "type": "uint256"
        }
      ],
      "name": "CuratorPercentageChanged",
      "type": "event"
    },
    {
      "anonymous": false,
      "inputs": [
        {
          "indexed": true,
          "name": "key",
          "type": "address"
        }
      ],
      "name": "AddressCacheInvalidated",
      "type": "event"
    },
    {
      "anonymous": false,
      "inputs": [
        {
          "indexed": true,
          "name": "key",
          "type": "bytes32"
        }
      ],
      "name": "Bytes32CacheInvalidated",
      "type": "event"
    },
    {
      "anonymous": false,
      "inputs": [
        {
          "indexed": true,
          "name": "key",
          "type": "uint256"
        }
      ],
      "name": "Uint256CacheInvalidated",
      "type": "event"
    }
  ],
  "bytecode": "0x60606040526001600755600060085560006009556000600a55600a600b556005600c55600a600d55341561003257600080fd5b604051606080611e53833981016040528080519190602001805191906020018051600b54600c54600d5460008054600160a060020a03998a16600160a060020a0319918216811790925560048054998b1699821699909917909855600580549990951698881698909817909355600891909155600955600a555050600680549091169091179055611d8b806100c86000396000f3006060604052600436106101245763ffffffff60e060020a6000350416631cbcd9748114610129578063236b237c1461014e5780632d883a731461017657806332a65198146101b05780633426ddd5146101c3578063346fa921146101d65780633ccfd60b146101ec5780633d188fab146101ff57806345d61ded146102245780634987703814610253578063522afaec1461027257806359d5da891461029457806365d96c82146102b357806383b7113e146102d25780638f1d3776146102e857806392f60b961461033257806399b6c1c614610351578063acb9982814610370578063bde3672d14610392578063de29ee68146103b1578063e1ba7d01146103c7578063f27ac4d9146103da578063fc0c546a146103fc578063fe8cde341461040f575b600080fd5b341561013457600080fd5b61013c610422565b60405190815260200160405180910390f35b341561015957600080fd5b61017460048035906024803591604435918201910135610446565b005b341561018157600080fd5b61018c600435610583565b604051600160a060020a039283168152911660208201526040908101905180910390f35b34156101bb57600080fd5b61013c6105bb565b34156101ce57600080fd5b61013c6105df565b34156101e157600080fd5b6101746004356105f1565b34156101f757600080fd5b610174610651565b341561020a57600080fd5b610174600160a060020a036004351660243560443561074a565b341561022f57600080fd5b610237610785565b604051600160a060020a03909116815260200160405180910390f35b341561025e57600080fd5b61018c600160a060020a0360043516610794565b341561027d57600080fd5b610174600160a060020a03600435166024356107b4565b341561029f57600080fd5b610174600160a060020a0360043516610a28565b34156102be57600080fd5b610237600160a060020a0360043516610bb4565b34156102dd57600080fd5b610174600435610bcf565b34156102f357600080fd5b6102fe600435610c2f565b604051600160a060020a03948516815292151560208401526040808401929092529092166060820152608001905180910390f35b341561033d57600080fd5b610174600160a060020a0360043516610c78565b341561035c57600080fd5b610174600160a060020a03600435166111f4565b341561037b57600080fd5b610174600160a060020a036004351660243561122a565b341561039d57600080fd5b610174600160a060020a03600435166115bb565b34156103bc57600080fd5b6101746004356118b9565b34156103d257600080fd5b61013c611919565b34156103e557600080fd5b610174600160a060020a036004351660243561191f565b341561040757600080fd5b610237611bb1565b341561041a57600080fd5b610237611bc0565b7f57495448445241575f46554e44535f524f4c450000000000000000000000000081565b60085484101561045557600080fd5b600454600160a060020a03166323b872dd33308760405160e060020a63ffffffff8616028152600160a060020a0393841660048201529190921660248201526044810191909152606401602060405180830381600087803b15156104b857600080fd5b5af115156104c557600080fd5b5050506040518051905015156104da57600080fd5b600554600160a060020a03166335012d7e33858730878760405160e060020a63ffffffff8916028152600160a060020a03808816600483019081526024830188905260448301879052908516606483015260a06084830190815260a48301849052909160c4018484808284378201915050975050505050505050600060405180830381600087803b151561056d57600080fd5b5af1151561057a57600080fd5b50505050505050565b6000806105b260028481548110151561059857fe5b600091825260209091200154600160a060020a0316610794565b91509150915091565b7f4355524154455f4348414c4c454e47455f524f4c45000000000000000000000081565b600080516020611d4083398151915281565b600080516020611d4083398151915261060a3382611bcf565b151561061557600080fd5b600a8290557fea6c6084ca0283f30c459faead18d4a32783096c26aa5847e96e1eeec97edce88260405190815260200160405180910390a15050565b60007f57495448445241575f46554e44535f524f4c450000000000000000000000000061067e3382611bcf565b151561068957600080fd5b600454600160a060020a033081168031945091169063a9059cbb9033903160405160e060020a63ffffffff8516028152600160a060020a0390921660048301526024820152604401602060405180830381600087803b15156106ea57600080fd5b5af115156106f757600080fd5b50505060405180519050507f7084f5476618d8e60b11ef0d7d3f06914655adb8793e28ff7f018d4c76d505d53383604051600160a060020a03909216825260208201526040908101905180910390a15050565b82600160a060020a03167f2130e02bc65616aa7f8f548960f51a08a1d0ea94efb33611412208c2d0306a2260405160405180910390a2505050565b600054600160a060020a031681565b600160a060020a0390811660009081526001602052604090205416908190565b600160a060020a0380831660009081526001602052604090819020548216913316908290638da5cb5b90518163ffffffff1660e060020a028152600401602060405180830381600087803b151561080a57600080fd5b5af1151561081757600080fd5b50505060405180519050600160a060020a031614151561083657600080fd5b600454600160a060020a03166323b872dd33308560405160e060020a63ffffffff8616028152600160a060020a0393841660048201529190921660248201526044810191909152606401602060405180830381600087803b151561089957600080fd5b5af115156108a657600080fd5b5050506040518051905015156108bb57600080fd5b600160a060020a0381166335d9db536109258483633a4b66f16040518163ffffffff1660e060020a028152600401602060405180830381600087803b151561090257600080fd5b5af1151561090f57600080fd5b505050604051805191905063ffffffff611c6516565b60405160e060020a63ffffffff84160281526004810191909152602401600060405180830381600087803b151561095b57600080fd5b5af1151561096857600080fd5b5050507f8b05844824acf2db2f068e4006ef99b307ca4fe1a896d06e884700f1a9da3a6d838383600160a060020a0316633a4b66f16040518163ffffffff1660e060020a028152600401602060405180830381600087803b15156109cb57600080fd5b5af115156109d857600080fd5b505050604051805190506040518084600160a060020a0316600160a060020a03168152602001838152602001828152602001935050505060405180910390a1610a238360008061074a565b505050565b600160a060020a0381166000818152600160208190526040909120805473ffffffffffffffffffffffffffffffffffffffff19169092179091556002805483928101610a748382611cd3565b506000918252602090912001805473ffffffffffffffffffffffffffffffffffffffff1916600160a060020a03848116919091179091557f7583fed51a2ab4e582c68d93e281e0fcc2601ef4a7491d1d2d2dc511f6a912799083908316633a4b66f16040518163ffffffff1660e060020a028152600401602060405180830381600087803b1515610b0457600080fd5b5af11515610b1157600080fd5b5050506040518051905083600160a060020a031663a035b1fe6040518163ffffffff1660e060020a028152600401602060405180830381600087803b1515610b5857600080fd5b5af11515610b6557600080fd5b505050604051805190506040518084600160a060020a0316600160a060020a03168152602001838152602001828152602001935050505060405180910390a1610bb08260008061074a565b5050565b600160205260009081526040902054600160a060020a031681565b600080516020611d40833981519152610be83382611bcf565b1515610bf357600080fd5b60088290557f1e2fffeb4ad73c19aa71037a187b8cb1a45220f05d6cce7c2801c106de268a8a8260405190815260200160405180910390a15050565b600360205260009081526040902080546001820154600290920154600160a060020a03808316937401000000000000000000000000000000000000000090930460ff1692911684565b600080600080610c86611cf7565b60007f4355524154455f4348414c4c454e47455f524f4c450000000000000000000000610cb33382611bcf565b1515610cbe57600080fd5b600160a060020a0380891660009081526001602052604090819020549091169750879063605cba8290518163ffffffff1660e060020a028152600401602060405180830381600087803b1515610d1357600080fd5b5af11515610d2057600080fd5b5050506040518051600a54909750610d519150610d4490606463ffffffff611c7f16565b879063ffffffff611c9616565b600454909550600160a060020a031663a9059cbb338760405160e060020a63ffffffff8516028152600160a060020a0390921660048301526024820152604401602060405180830381600087803b1515610daa57600080fd5b5af11515610db757600080fd5b50505060405180515060009450505b86600160a060020a03166333a2cc016040518163ffffffff1660e060020a028152600401602060405180830381600087803b1515610e0357600080fd5b5af11515610e1057600080fd5b50505060405180519050841015611045576003600088600160a060020a031663c32e11028760405160e060020a63ffffffff84160281526004810191909152602401602060405180830381600087803b1515610e6b57600080fd5b5af11515610e7857600080fd5b505050604051805190508152602001908152602001600020608060405190810160409081528254600160a060020a0380821684527401000000000000000000000000000000000000000090910460ff161515602084015260018401549183019190915260029092015490911660608201529250610ef58686611cc1565b600454909250600160a060020a031663a9059cbb8451610f30610f238a88604001519063ffffffff611c7f16565b869063ffffffff611c9616565b60405160e060020a63ffffffff8516028152600160a060020a0390921660048301526024820152604401602060405180830381600087803b1515610f7357600080fd5b5af11515610f8057600080fd5b505050604051805190505060016003600089600160a060020a031663c32e11028860405160e060020a63ffffffff84160281526004810191909152602401602060405180830381600087803b1515610fd757600080fd5b5af11515610fe457600080fd5b505050604051805182525060208101919091526040016000208054911515740100000000000000000000000000000000000000000274ff00000000000000000000000000000000000000001990921691909117905560019390930192610dc6565b86600160a060020a03166335d9db53600060405160e060020a63ffffffff84160281526004810191909152602401600060405180830381600087803b151561108c57600080fd5b5af1151561109957600080fd5b50505086600160a060020a0316636de149f5600060405160e060020a63ffffffff84160281526004810191909152602401600060405180830381600087803b15156110e357600080fd5b5af115156110f057600080fd5b50505086600160a060020a03166331ec7fce600060405160e060020a63ffffffff84160281526004810191909152602401600060405180830381600087803b151561113a57600080fd5b5af1151561114757600080fd5b50505086600160a060020a0316637b789204600060405160e060020a63ffffffff84160281529015156004820152602401600060405180830381600087803b151561119157600080fd5b5af1151561119e57600080fd5b5050507f9d9f99a36ef64966814c1f89a7a64fcb0132cbd085184a9666469302f32b92c488604051600160a060020a03909116815260200160405180910390a16111ea8860008061074a565b5050505050505050565b7f4355524154455f4348414c4c454e47455f524f4c45000000000000000000000061121f3382611bcf565b1515610bb057600080fd5b6000611234611cf7565b60095483101561124357600080fd5b600160a060020a0380851660009081526001602052604090819020546004549083169450909116906323b872dd903390309087905160e060020a63ffffffff8616028152600160a060020a0393841660048201529190921660248201526044810191909152606401602060405180830381600087803b15156112c457600080fd5b5af115156112d157600080fd5b5050506040518051905015156112e657600080fd5b60806040519081016040908152600160a060020a033381168352600060208085018290528385018890529188166060850152600754815260039091522090915081908151815473ffffffffffffffffffffffffffffffffffffffff1916600160a060020a039190911617815560208201518154901515740100000000000000000000000000000000000000000274ff000000000000000000000000000000000000000019909116178155604082015181600101556060820151600291909101805473ffffffffffffffffffffffffffffffffffffffff1916600160a060020a03928316179055831690506331ec7fce816309af4fe66040518163ffffffff1660e060020a028152600401602060405180830381600087803b151561140957600080fd5b5af1151561141657600080fd5b5050506040518051905060010160405160e060020a63ffffffff84160281526004810191909152602401600060405180830381600087803b151561145957600080fd5b5af1151561146657600080fd5b50505081600160a060020a03166332fd144160075460405160e060020a63ffffffff84160281526004810191909152602401600060405180830381600087803b15156114b157600080fd5b5af115156114be57600080fd5b505050600160a060020a038216636de149f5611508858363605cba826040518163ffffffff1660e060020a028152600401602060405180830381600087803b151561090257600080fd5b60405160e060020a63ffffffff84160281526004810191909152602401600060405180830381600087803b151561153e57600080fd5b5af1151561154b57600080fd5b5050507fe0c6c1f959ea19af04f1a1862f00c826f9aab9ca9ed5fe3798051f78560bee3a84846007546040518084600160a060020a0316600160a060020a03168152602001838152602001828152602001935050505060405180910390a16115b58460008061074a565b50505050565b600160a060020a038082166000908152600160205260409081902054909116908190638da5cb5b90518163ffffffff1660e060020a028152600401602060405180830381600087803b151561160f57600080fd5b5af1151561161c57600080fd5b50505060405180519050600160a060020a031633600160a060020a031614151561164557600080fd5b80600160a060020a03166309af4fe66040518163ffffffff1660e060020a028152600401602060405180830381600087803b151561168257600080fd5b5af1151561168f57600080fd5b50505060405180511590506116a357600080fd5b600081600160a060020a0316633a4b66f16040518163ffffffff1660e060020a028152600401602060405180830381600087803b15156116e257600080fd5b5af115156116ef57600080fd5b50505060405180519050111561181957600454600160a060020a039081169063a9059cbb908316638da5cb5b6040518163ffffffff1660e060020a028152600401602060405180830381600087803b151561174957600080fd5b5af1151561175657600080fd5b5050506040518051905083600160a060020a0316633a4b66f16040518163ffffffff1660e060020a028152600401602060405180830381600087803b151561179d57600080fd5b5af115156117aa57600080fd5b5050506040518051905060405160e060020a63ffffffff8516028152600160a060020a0390921660048301526024820152604401602060405180830381600087803b15156117f757600080fd5b5af1151561180457600080fd5b50505060405180519050151561181957600080fd5b80600160a060020a0316637b789204600060405160e060020a63ffffffff84160281529015156004820152602401600060405180830381600087803b151561186057600080fd5b5af1151561186d57600080fd5b5050507fc48322c2e165c864176005884983dd81c87a9fc8258ca6a1967d17b26cd8d0e382604051600160a060020a03909116815260200160405180910390a1610bb08260008061074a565b600080516020611d408339815191526118d23382611bcf565b15156118dd57600080fd5b60098290557fec0975e9a985b0702fafca3ee144a642dfe5c48de1b5e1c934e0e4131ce5fcbe8260405190815260200160405180910390a15050565b60025490565b600160a060020a0380831660009081526001602052604080822054909216918290633a4b66f190518163ffffffff1660e060020a028152600401602060405180830381600087803b151561197257600080fd5b5af1151561197f57600080fd5b50505060405180519050905033600160a060020a031682600160a060020a0316638da5cb5b6040518163ffffffff1660e060020a028152600401602060405180830381600087803b15156119d257600080fd5b5af115156119df57600080fd5b50505060405180519050600160a060020a03161415156119fe57600080fd5b80831115611a0b57600080fd5b6008548382031015611a1c57600080fd5b600454600160a060020a031663a9059cbb338560405160e060020a63ffffffff8516028152600160a060020a0390921660048301526024820152604401602060405180830381600087803b1515611a7257600080fd5b5af11515611a7f57600080fd5b505050604051805190501515611a9457600080fd5b600160a060020a0382166335d9db53611ab3838663ffffffff611cc116565b60405160e060020a63ffffffff84160281526004810191909152602401600060405180830381600087803b1515611ae957600080fd5b5af11515611af657600080fd5b5050507f5ee9537083cb767f9e599a17876a9c597197deba435082e0b88c4da925d4599e848484600160a060020a0316633a4b66f16040518163ffffffff1660e060020a028152600401602060405180830381600087803b1515611b5957600080fd5b5af11515611b6657600080fd5b505050604051805190506040518084600160a060020a0316600160a060020a03168152602001838152602001828152602001935050505060405180910390a16115b58460008061074a565b600454600160a060020a031681565b600554600160a060020a031681565b60008054600160a060020a03161580611c5e5750600054600160a060020a0316636d6712d884308560405160e060020a63ffffffff8616028152600160a060020a0393841660048201529190921660248201526044810191909152606401602060405180830381600087803b1515611c4657600080fd5b5af11515611c5357600080fd5b505050604051805190505b9392505050565b600082820183811015611c7457fe5b8091505b5092915050565b6000808284811515611c8d57fe5b04949350505050565b600080831515611ca95760009150611c78565b50828202828482811515611cb957fe5b0414611c7457fe5b600082821115611ccd57fe5b50900390565b815481835581811511610a2357600083815260209020610a23918101908301611d1e565b60806040519081016040908152600080835260208301819052908201819052606082015290565b611d3c91905b80821115611d385760008155600101611d24565b5090565b9056004348414e47455f53455454494e47535f524f4c45000000000000000000000000a165627a7a723058200643343d34d6090a1c2c12700607d922567e5e3ac46223302619b8a250a383ea0029",
  "source": "pragma solidity ^0.4.20;\n\nimport \"@settlemint/solidity-mint/contracts/marketplaces/tokencuratedregistry/TokenCuratedRegistry.sol\";\nimport \"@settlemint/solidity-mint/contracts/marketplaces/tokensystem/Token.sol\";\n\n\ncontract StreamRegistry is TokenCuratedRegistry {\n\n  // Initial values, these can be changed with setters\n  uint MIN_ENLIST_AMOUNT = 10;\n  uint MIN_CHALLENGE_AMOUNT = 5;\n  uint CURATOR_PERCENTAGE = 10;\n\n  /**\n  @dev Contructor\n  @notice                Sets the address for token\n  @param _gateKeeper     Address of the gatekeeper\n  @param _token          Address of the token\n  */\n  function StreamRegistry(\n    address _gateKeeper,\n    address _token,\n    address _listingFactory\n  )\n    TokenCuratedRegistry(\n      _gateKeeper,\n      _token,\n      _listingFactory,\n      MIN_ENLIST_AMOUNT,\n      MIN_CHALLENGE_AMOUNT,\n      CURATOR_PERCENTAGE\n    )\n    public\n  {}\n}\n",
  "sourcePath": "/Users/silkevandenbroeck/databrokerDAO/databrokerdao-dapi/contracts/stream/StreamRegistry.sol",
  "compiler": {
    "name": "solc",
    "version": "0.4.21+commit.dfe3193c.Emscripten.clang"
  },
  "schemaVersion": "2.0.0",
  "updatedAt": "2018-03-23T09:14:46.354Z"
}