{
  "contractName": "StreamFactory",
  "abi": [
    {
      "constant": true,
      "inputs": [],
      "name": "gateKeeper",
      "outputs": [
        {
          "name": "",
          "type": "address"
        }
      ],
      "payable": false,
      "stateMutability": "view",
      "type": "function"
    },
    {
      "inputs": [
        {
          "name": "_gateKeeper",
          "type": "address"
        }
      ],
      "payable": false,
      "stateMutability": "nonpayable",
      "type": "constructor"
    },
    {
      "anonymous": false,
      "inputs": [
        {
          "indexed": false,
          "name": "_address",
          "type": "address"
        }
      ],
      "name": "ListingCreated",
      "type": "event"
    },
    {
      "constant": false,
      "inputs": [
        {
          "name": "_owner",
          "type": "address"
        },
        {
          "name": "_price",
          "type": "uint256"
        },
        {
          "name": "_stakeAmount",
          "type": "uint256"
        },
        {
          "name": "_tcr",
          "type": "address"
        },
        {
          "name": "_metadata",
          "type": "string"
        }
      ],
      "name": "createListing",
      "outputs": [],
      "payable": false,
      "stateMutability": "nonpayable",
      "type": "function"
    }
  ],
  "bytecode": "0x6060604052341561000f57600080fd5b604051602080610f558339810160405280805160008054600160a060020a03909216600160a060020a03199092169190911790555050610f01806100546000396000f3006060604052600436106100325763ffffffff60e060020a60003504166335012d7e811461003757806345d61ded146100a7575b600080fd5b341561004257600080fd5b6100a5600160a060020a0360048035821691602480359260443592606435169160a49060843590810190830135806020601f820181900481020160405190810160405281815292919060208401838380828437509496506100d695505050505050565b005b34156100b257600080fd5b6100ba61032f565b604051600160a060020a03909116815260200160405180910390f35b600080548190879087908790600160a060020a03166100f361033e565b600160a060020a039485168152602081019390935260408084019290925290921660608201526080019051809103906000f080151561013157600080fd5b600054909250600160a060020a031663be03847833847f5550444154455f4d455441444154415f524f4c450000000000000000000000008260405160e060020a63ffffffff8716028152600160a060020a039485166004820152928416602484015260448301919091529091166064820152608401600060405180830381600087803b15156101bf57600080fd5b5af115156101cc57600080fd5b50505081600160a060020a0316635cc07505846040518263ffffffff1660e060020a0281526004018080602001828103825283818151815260200191508051906020019080838360005b8381101561022e578082015183820152602001610216565b50505050905090810190601f16801561025b5780820380516001836020036101000a031916815260200191505b5092505050600060405180830381600087803b151561027957600080fd5b5af1151561028657600080fd5b5050507f28d9f8d9a5ede83b62d4e29f4c074bc4a0865d277cf65ffa9ec27243bbeed20082604051600160a060020a03909116815260200160405180910390a15082600160a060020a0381166359d5da898360405160e060020a63ffffffff8416028152600160a060020a039091166004820152602401600060405180830381600087803b151561031657600080fd5b5af1151561032357600080fd5b50505050505050505050565b600054600160a060020a031681565b604051610b878061034f833901905600606060405260006003819055600481905560058190556007556008805460ff19166001179055341561003057600080fd5b604051608080610b878339810160405280805191906020018051919060200180519190602001805160008054600160a060020a03928316600160a060020a03199182161790915560018054308416921691909117905560088054919096166101000261010060a860020a0319909116179094555060039190915560045550610aca806100bd6000396000f30060606040526004361061010e5763ffffffff60e060020a60003504166309af4fe6811461011357806319afe4631461013857806331ec7fce1461014b57806332fd14411461016357806333a2cc011461017957806335d9db531461018c578063392f37e9146101a25780633a4b66f11461022c5780633d188fab1461023f5780633d9287fa1461026457806345d61ded1461028b5780635cc07505146102ba578063605cba821461030b5780636de149f51461031e5780637b789204146103345780638da5cb5b1461034c57806391b7f5ed1461035f578063a035b1fe14610375578063a4b5fa5614610388578063b4f8c5421461039b578063c32e1102146103b1578063fff139cf146103c7575b600080fd5b341561011e57600080fd5b6101266103da565b60405190815260200160405180910390f35b341561014357600080fd5b6101266103e0565b341561015657600080fd5b610161600435610404565b005b341561016e57600080fd5b610161600435610470565b341561018457600080fd5b6101266104f8565b341561019757600080fd5b6101616004356104ff565b34156101ad57600080fd5b6101b561056b565b60405160208082528190810183818151815260200191508051906020019080838360005b838110156101f15780820151838201526020016101d9565b50505050905090810190601f16801561021e5780820380516001836020036101000a031916815260200191505b509250505060405180910390f35b341561023757600080fd5b610126610609565b341561024a57600080fd5b610161600160a060020a036004351660243560443561060f565b341561026f57600080fd5b61027761064a565b604051901515815260200160405180910390f35b341561029657600080fd5b61029e610653565b604051600160a060020a03909116815260200160405180910390f35b34156102c557600080fd5b61016160046024813581810190830135806020601f8201819004810201604051908101604052818152929190602084018383808284375094965061066295505050505050565b341561031657600080fd5b610126610676565b341561032957600080fd5b61016160043561067c565b341561033f57600080fd5b61016160043515156106e8565b341561035757600080fd5b61029e61075f565b341561036a57600080fd5b610161600435610773565b341561038057600080fd5b6101266107df565b341561039357600080fd5b6101616107e5565b34156103a657600080fd5b610126600435610865565b34156103bc57600080fd5b610126600435610884565b34156103d257600080fd5b6101266108a8565b60055481565b7f424c41434b4c4953545f524f4c4500000000000000000000000000000000000081565b60085433600160a060020a03908116610100909204161461042457600080fd5b60058190557fd3ca04e05500cdc497d0e2910cf7037d00ac4c05f5d8e7bd462cd17b69f167c53082604051600160a060020a03909216825260208201526040908101905180910390a150565b60085433600160a060020a03908116610100909204161461049057600080fd5b60068054600181016104a283826109e2565b5060009182526020909120018190557f98738b391af784d3648f0887817c72a547aec23edf67437c110be4f15e1aa89e3082604051600160a060020a03909216825260208201526040908101905180910390a150565b6006545b90565b60085433600160a060020a03908116610100909204161461051f57600080fd5b60048190557f91ea5c7d3e6075f2586305ea460cca898d81cf65d0222fe1164ada2afbc4d4d13082604051600160a060020a03909216825260208201526040908101905180910390a150565b60028054600181600116156101000203166002900480601f0160208091040260200160405190810160405280929190818152602001828054600181600116156101000203166002900480156106015780601f106105d657610100808354040283529160200191610601565b820191906000526020600020905b8154815290600101906020018083116105e457829003601f168201915b505050505081565b60045481565b82600160a060020a03167f2130e02bc65616aa7f8f548960f51a08a1d0ea94efb33611412208c2d0306a2260405160405180910390a2505050565b60085460ff1681565b600054600160a060020a031681565b61066b816108cc565b6106736108e3565b50565b60075481565b60085433600160a060020a03908116610100909204161461069c57600080fd5b60078190557f20676180e1da70fdf5891a3c30f993ab862a69f30e0b86c6f978bbbdefe4f2bb3082604051600160a060020a03909216825260208201526040908101905180910390a150565b60085433600160a060020a03908116610100909204161461070857600080fd5b6008805460ff19168215151790557f707f3c5101172c4122bef76a7247663a6c9347fd005fc5eff73c858572d9f5893082604051600160a060020a039092168252151560208201526040908101905180910390a150565b6008546101009004600160a060020a031681565b60085433600160a060020a03908116610100909204161461079357600080fd5b60038190557ff9a09e2869a1f88523f00504328d7965866201bafe501573db2e114e3375a0863082604051600160a060020a03909216825260208201526040908101905180910390a150565b60035481565b7f424c41434b4c4953545f524f4c45000000000000000000000000000000000000610810338261094c565b151561081b57600080fd5b6008805460ff191690557fffa4e6181777692565cf28528fc88fd1516ea86b56da075235fa575af6a4b85530604051600160a060020a03909116815260200160405180910390a150565b600680548290811061087357fe5b600091825260209091200154905081565b600060068281548110151561089557fe5b9060005260206000209001549050919050565b7f5550444154455f4d455441444154415f524f4c4500000000000000000000000081565b60028180516108df929160200190610a06565b5050565b600154600160a060020a0316633d188fab30600060405160e060020a63ffffffff8516028152600160a060020a0390921660048301526044820152606401600060405180830381600087803b151561093a57600080fd5b5af1151561094757600080fd5b505050565b60008054600160a060020a031615806109db5750600054600160a060020a0316636d6712d884308560405160e060020a63ffffffff8616028152600160a060020a0393841660048201529190921660248201526044810191909152606401602060405180830381600087803b15156109c357600080fd5b5af115156109d057600080fd5b505050604051805190505b9392505050565b81548183558181151161094757600083815260209020610947918101908301610a84565b828054600181600116156101000203166002900490600052602060002090601f016020900481019282601f10610a4757805160ff1916838001178555610a74565b82800160010185558215610a74579182015b82811115610a74578251825591602001919060010190610a59565b50610a80929150610a84565b5090565b6104fc91905b80821115610a805760008155600101610a8a5600a165627a7a723058204589caa89e7e70c82115b546109ce1e06015bf2d42f0b6561f1e549bbebbd5fe0029a165627a7a7230582005e72e04792a3d71558f9f231ab3f8b73f9e1ccbd289e6ab22b131882129ccda0029",
  "source": "pragma solidity ^0.4.20;\n\nimport \"./Stream.sol\";\nimport \"./StreamRegistry.sol\";\nimport \"@settlemint/solidity-mint/contracts/marketplaces/tokencuratedregistry/ListingFactory.sol\";\n\n\ncontract StreamFactory is ListingFactory {\n\n  function StreamFactory(address _gateKeeper) ListingFactory(_gateKeeper) public {}\n\n  function createListing(address _owner, uint _price, uint _stakeAmount, address _tcr, string _metadata) public {\n    // Create listing\n    Stream _newStream = new Stream(_owner, _price, _stakeAmount, gateKeeper);\n\n    // Metadata role\n    gateKeeper.createPermission(\n      msg.sender,\n      address(_newStream),\n      bytes32(\"UPDATE_METADATA_ROLE\"),\n      msg.sender\n    );\n\n    // Add metadata\n    _newStream.updateMetaData(_metadata);\n\n    // Event\n    emit ListingCreated(address(_newStream));\n\n    // Add listing to token curated registry\n    StreamRegistry streamRegistry = StreamRegistry(_tcr);\n    streamRegistry.addListing(address(_newStream));\n  }\n}\n",
  "sourcePath": "/Users/silkevandenbroeck/databrokerDAO/databrokerdao-dapi/contracts/stream/StreamFactory.sol",
  "compiler": {
    "name": "solc",
    "version": "0.4.21+commit.dfe3193c.Emscripten.clang"
  },
  "schemaVersion": "2.0.0",
  "updatedAt": "2018-03-20T14:44:56.612Z"
}