{
  "contractName": "StreamRegistry",
  "abi": [
    {
      "constant": true,
      "inputs": [],
      "name": "WITHDRAW_FUNDS_ROLE",
      "outputs": [
        {
          "name": "",
          "type": "bytes32"
        }
      ],
      "payable": false,
      "stateMutability": "view",
      "type": "function"
    },
    {
      "constant": false,
      "inputs": [
        {
          "name": "_stakeAmount",
          "type": "uint256"
        },
        {
          "name": "_price",
          "type": "uint256"
        },
        {
          "name": "_metadata",
          "type": "string"
        }
      ],
      "name": "enlist",
      "outputs": [],
      "payable": false,
      "stateMutability": "nonpayable",
      "type": "function"
    },
    {
      "constant": false,
      "inputs": [
        {
          "name": "_adminPercentage",
          "type": "uint256"
        }
      ],
      "name": "setAdminPercentage",
      "outputs": [],
      "payable": false,
      "stateMutability": "nonpayable",
      "type": "function"
    },
    {
      "constant": true,
      "inputs": [
        {
          "name": "index",
          "type": "uint256"
        }
      ],
      "name": "getByIndex",
      "outputs": [
        {
          "name": "key",
          "type": "address"
        },
        {
          "name": "contractAddress",
          "type": "address"
        }
      ],
      "payable": false,
      "stateMutability": "view",
      "type": "function"
    },
    {
      "constant": true,
      "inputs": [],
      "name": "CURATE_CHALLENGE_ROLE",
      "outputs": [
        {
          "name": "",
          "type": "bytes32"
        }
      ],
      "payable": false,
      "stateMutability": "view",
      "type": "function"
    },
    {
      "constant": true,
      "inputs": [
        {
          "name": "_listing",
          "type": "address"
        }
      ],
      "name": "isWhitelisted",
      "outputs": [
        {
          "name": "whitelisted",
          "type": "bool"
        }
      ],
      "payable": false,
      "stateMutability": "view",
      "type": "function"
    },
    {
      "constant": false,
      "inputs": [],
      "name": "withdraw",
      "outputs": [],
      "payable": false,
      "stateMutability": "nonpayable",
      "type": "function"
    },
    {
      "constant": false,
      "inputs": [
        {
          "name": "_cachedAddress",
          "type": "address"
        },
        {
          "name": "",
          "type": "bytes32"
        },
        {
          "name": "",
          "type": "uint256"
        }
      ],
      "name": "invalidateCache",
      "outputs": [],
      "payable": false,
      "stateMutability": "nonpayable",
      "type": "function"
    },
    {
      "constant": true,
      "inputs": [],
      "name": "gateKeeper",
      "outputs": [
        {
          "name": "",
          "type": "address"
        }
      ],
      "payable": false,
      "stateMutability": "view",
      "type": "function"
    },
    {
      "constant": true,
      "inputs": [
        {
          "name": "_key",
          "type": "address"
        }
      ],
      "name": "getByKey",
      "outputs": [
        {
          "name": "key",
          "type": "address"
        },
        {
          "name": "contractAddress",
          "type": "address"
        }
      ],
      "payable": false,
      "stateMutability": "view",
      "type": "function"
    },
    {
      "constant": false,
      "inputs": [
        {
          "name": "_listing",
          "type": "address"
        },
        {
          "name": "_stakeAmount",
          "type": "uint256"
        }
      ],
      "name": "increase",
      "outputs": [],
      "payable": false,
      "stateMutability": "nonpayable",
      "type": "function"
    },
    {
      "constant": false,
      "inputs": [
        {
          "name": "_listing",
          "type": "address"
        }
      ],
      "name": "addListing",
      "outputs": [],
      "payable": false,
      "stateMutability": "nonpayable",
      "type": "function"
    },
    {
      "constant": true,
      "inputs": [
        {
          "name": "",
          "type": "address"
        }
      ],
      "name": "listings",
      "outputs": [
        {
          "name": "",
          "type": "address"
        }
      ],
      "payable": false,
      "stateMutability": "view",
      "type": "function"
    },
    {
      "constant": true,
      "inputs": [
        {
          "name": "_listing",
          "type": "address"
        }
      ],
      "name": "challengeExists",
      "outputs": [
        {
          "name": "exists",
          "type": "bool"
        }
      ],
      "payable": false,
      "stateMutability": "view",
      "type": "function"
    },
    {
      "constant": false,
      "inputs": [
        {
          "name": "_minEnlistAmount",
          "type": "uint256"
        }
      ],
      "name": "setMinEnlistAmount",
      "outputs": [],
      "payable": false,
      "stateMutability": "nonpayable",
      "type": "function"
    },
    {
      "constant": true,
      "inputs": [
        {
          "name": "",
          "type": "uint256"
        }
      ],
      "name": "challenges",
      "outputs": [
        {
          "name": "challenger",
          "type": "address"
        },
        {
          "name": "resolved",
          "type": "bool"
        },
        {
          "name": "stake",
          "type": "uint256"
        },
        {
          "name": "listing",
          "type": "address"
        }
      ],
      "payable": false,
      "stateMutability": "view",
      "type": "function"
    },
    {
      "constant": false,
      "inputs": [
        {
          "name": "_listing",
          "type": "address"
        }
      ],
      "name": "approveChallenge",
      "outputs": [],
      "payable": false,
      "stateMutability": "nonpayable",
      "type": "function"
    },
    {
      "constant": false,
      "inputs": [
        {
          "name": "_listing",
          "type": "address"
        }
      ],
      "name": "denyChallenge",
      "outputs": [],
      "payable": false,
      "stateMutability": "nonpayable",
      "type": "function"
    },
    {
      "constant": false,
      "inputs": [
        {
          "name": "_listing",
          "type": "address"
        },
        {
          "name": "_stakeAmount",
          "type": "uint256"
        }
      ],
      "name": "challenge",
      "outputs": [
        {
          "name": "challengeID",
          "type": "uint256"
        }
      ],
      "payable": false,
      "stateMutability": "nonpayable",
      "type": "function"
    },
    {
      "constant": false,
      "inputs": [
        {
          "name": "_listing",
          "type": "address"
        },
        {
          "name": "_price",
          "type": "uint256"
        }
      ],
      "name": "setListingPrice",
      "outputs": [],
      "payable": false,
      "stateMutability": "nonpayable",
      "type": "function"
    },
    {
      "constant": false,
      "inputs": [
        {
          "name": "_listing",
          "type": "address"
        }
      ],
      "name": "unlist",
      "outputs": [],
      "payable": false,
      "stateMutability": "nonpayable",
      "type": "function"
    },
    {
      "constant": false,
      "inputs": [
        {
          "name": "_minChallengeAmount",
          "type": "uint256"
        }
      ],
      "name": "setMinChallengeAmount",
      "outputs": [],
      "payable": false,
      "stateMutability": "nonpayable",
      "type": "function"
    },
    {
      "constant": true,
      "inputs": [],
      "name": "getIndexLength",
      "outputs": [
        {
          "name": "length",
          "type": "uint256"
        }
      ],
      "payable": false,
      "stateMutability": "view",
      "type": "function"
    },
    {
      "constant": false,
      "inputs": [
        {
          "name": "_listing",
          "type": "address"
        },
        {
          "name": "_stakeAmount",
          "type": "uint256"
        }
      ],
      "name": "decrease",
      "outputs": [],
      "payable": false,
      "stateMutability": "nonpayable",
      "type": "function"
    },
    {
      "constant": true,
      "inputs": [],
      "name": "token",
      "outputs": [
        {
          "name": "",
          "type": "address"
        }
      ],
      "payable": false,
      "stateMutability": "view",
      "type": "function"
    },
    {
      "constant": true,
      "inputs": [],
      "name": "listingFactory",
      "outputs": [
        {
          "name": "",
          "type": "address"
        }
      ],
      "payable": false,
      "stateMutability": "view",
      "type": "function"
    },
    {
      "inputs": [
        {
          "name": "_gateKeeper",
          "type": "address"
        },
        {
          "name": "_token",
          "type": "address"
        },
        {
          "name": "_listingFactory",
          "type": "address"
        }
      ],
      "payable": false,
      "stateMutability": "nonpayable",
      "type": "constructor"
    },
    {
      "anonymous": false,
      "inputs": [
        {
          "indexed": false,
          "name": "listing",
          "type": "address"
        },
        {
          "indexed": false,
          "name": "stake",
          "type": "uint256"
        },
        {
          "indexed": false,
          "name": "price",
          "type": "uint256"
        }
      ],
      "name": "Enlisted",
      "type": "event"
    },
    {
      "anonymous": false,
      "inputs": [
        {
          "indexed": false,
          "name": "listing",
          "type": "address"
        },
        {
          "indexed": false,
          "name": "stake",
          "type": "uint256"
        },
        {
          "indexed": false,
          "name": "challengeID",
          "type": "uint256"
        }
      ],
      "name": "Challenged",
      "type": "event"
    },
    {
      "anonymous": false,
      "inputs": [
        {
          "indexed": false,
          "name": "listing",
          "type": "address"
        }
      ],
      "name": "Unlisted",
      "type": "event"
    },
    {
      "anonymous": false,
      "inputs": [
        {
          "indexed": false,
          "name": "listing",
          "type": "address"
        }
      ],
      "name": "ChallengeApproved",
      "type": "event"
    },
    {
      "anonymous": false,
      "inputs": [
        {
          "indexed": false,
          "name": "listing",
          "type": "address"
        }
      ],
      "name": "ChallengeDenied",
      "type": "event"
    },
    {
      "anonymous": false,
      "inputs": [
        {
          "indexed": false,
          "name": "listing",
          "type": "address"
        },
        {
          "indexed": false,
          "name": "increasedBy",
          "type": "uint256"
        },
        {
          "indexed": false,
          "name": "newStake",
          "type": "uint256"
        }
      ],
      "name": "Increased",
      "type": "event"
    },
    {
      "anonymous": false,
      "inputs": [
        {
          "indexed": false,
          "name": "listing",
          "type": "address"
        },
        {
          "indexed": false,
          "name": "decreasedBy",
          "type": "uint256"
        },
        {
          "indexed": false,
          "name": "newStake",
          "type": "uint256"
        }
      ],
      "name": "Decreased",
      "type": "event"
    },
    {
      "anonymous": false,
      "inputs": [
        {
          "indexed": false,
          "name": "by",
          "type": "address"
        },
        {
          "indexed": false,
          "name": "balance",
          "type": "uint256"
        }
      ],
      "name": "Withdrawn",
      "type": "event"
    },
    {
      "anonymous": false,
      "inputs": [
        {
          "indexed": true,
          "name": "key",
          "type": "address"
        }
      ],
      "name": "AddressCacheInvalidated",
      "type": "event"
    },
    {
      "anonymous": false,
      "inputs": [
        {
          "indexed": true,
          "name": "key",
          "type": "bytes32"
        }
      ],
      "name": "Bytes32CacheInvalidated",
      "type": "event"
    },
    {
      "anonymous": false,
      "inputs": [
        {
          "indexed": true,
          "name": "key",
          "type": "uint256"
        }
      ],
      "name": "Uint256CacheInvalidated",
      "type": "event"
    }
  ],
  "bytecode": "0x60606040526000600755600060085560006009556000600a55600a600b556005600c55600a600d55341561003257600080fd5b6040516060806121e0833981016040528080519190602001805191906020018051600b54600c54600d5460008054600160a060020a03998a16600160a060020a0319918216811790925560048054998b1699821699909917909855600580549990951698881698909817909355600891909155600955600a555050600680549091169091179055612118806100c86000396000f30060606040526004361061013a5763ffffffff60e060020a6000350416631cbcd974811461013f578063236b237c14610164578063245694ad1461018c5780632d883a73146101a257806332a65198146101dc5780633af32abf146101ef5780633ccfd60b146102225780633d188fab1461023557806345d61ded1461025a5780634987703814610289578063522afaec146102a857806359d5da89146102ca57806365d96c82146102e95780636eefcab91461030857806383b7113e146103275780638f1d37761461033d57806392f60b961461038757806399b6c1c6146103a6578063acb99828146103c5578063afc2a968146103e7578063bde3672d14610409578063de29ee6814610428578063e1ba7d011461043e578063f27ac4d914610451578063fc0c546a14610473578063fe8cde3414610486575b600080fd5b341561014a57600080fd5b610152610499565b60405190815260200160405180910390f35b341561016f57600080fd5b61018a600480359060248035916044359182019101356104bd565b005b341561019757600080fd5b61018a6004356105fa565b34156101ad57600080fd5b6101b86004356105ff565b604051600160a060020a039283168152911660208201526040908101905180910390f35b34156101e757600080fd5b610152610637565b34156101fa57600080fd5b61020e600160a060020a036004351661065b565b604051901515815260200160405180910390f35b341561022d57600080fd5b61018a6106cb565b341561024057600080fd5b61018a600160a060020a03600435166024356044356107c4565b341561026557600080fd5b61026d6107ff565b604051600160a060020a03909116815260200160405180910390f35b341561029457600080fd5b6101b8600160a060020a036004351661080e565b34156102b357600080fd5b61018a600160a060020a036004351660243561082e565b34156102d557600080fd5b61018a600160a060020a0360043516610a94565b34156102f457600080fd5b61026d600160a060020a0360043516610c20565b341561031357600080fd5b61020e600160a060020a0360043516610c3b565b341561033257600080fd5b61018a600435610cad565b341561034857600080fd5b610353600435610cb2565b604051600160a060020a03948516815292151560208401526040808401929092529092166060820152608001905180910390f35b341561039257600080fd5b61018a600160a060020a0360043516610cea565b34156103b157600080fd5b61018a600160a060020a0360043516611205565b34156103d057600080fd5b610152600160a060020a03600435166024356115fb565b34156103f257600080fd5b61018a600160a060020a036004351660243561199a565b341561041457600080fd5b61018a600160a060020a0360043516611a12565b341561043357600080fd5b61018a600435611d24565b341561044957600080fd5b610152611d29565b341561045c57600080fd5b61018a600160a060020a0360043516602435611d2f565b341561047e57600080fd5b61026d611fba565b341561049157600080fd5b61026d611fc9565b7f57495448445241575f46554e44535f524f4c450000000000000000000000000081565b6008548410156104cc57600080fd5b600454600160a060020a03166323b872dd33308760405160e060020a63ffffffff8616028152600160a060020a0393841660048201529190921660248201526044810191909152606401602060405180830381600087803b151561052f57600080fd5b5af1151561053c57600080fd5b50505060405180519050151561055157600080fd5b600554600160a060020a03166335012d7e33858730878760405160e060020a63ffffffff8916028152600160a060020a03808816600483019081526024830188905260448301879052908516606483015260a06084830190815260a48301849052909160c4018484808284378201915050975050505050505050600060405180830381600087803b15156105e457600080fd5b5af115156105f157600080fd5b50505050505050565b600a55565b60008061062e60028481548110151561061457fe5b600091825260209091200154600160a060020a031661080e565b91509150915091565b7f4355524154455f4348414c4c454e47455f524f4c45000000000000000000000081565b600160a060020a038082166000908152600160205260408082205491929190911690633d9287fa90518163ffffffff1660e060020a028152600401602060405180830381600087803b15156106af57600080fd5b5af115156106bc57600080fd5b50505060405180519392505050565b60007f57495448445241575f46554e44535f524f4c45000000000000000000000000006106f83382611fd8565b151561070357600080fd5b600454600160a060020a033081168031945091169063a9059cbb9033903160405160e060020a63ffffffff8516028152600160a060020a0390921660048301526024820152604401602060405180830381600087803b151561076457600080fd5b5af1151561077157600080fd5b50505060405180519050507f7084f5476618d8e60b11ef0d7d3f06914655adb8793e28ff7f018d4c76d505d53383604051600160a060020a03909216825260208201526040908101905180910390a15050565b82600160a060020a03167f2130e02bc65616aa7f8f548960f51a08a1d0ea94efb33611412208c2d0306a2260405160405180910390a2505050565b600054600160a060020a031681565b600160a060020a0390811660009081526001602052604090205416908190565b600160a060020a0380831660009081526001602052604090819020548216913316908290638da5cb5b90518163ffffffff1660e060020a028152600401602060405180830381600087803b151561088457600080fd5b5af1151561089157600080fd5b50505060405180519050600160a060020a03161415156108b057600080fd5b600454600160a060020a03166323b872dd33308560405160e060020a63ffffffff8616028152600160a060020a0393841660048201529190921660248201526044810191909152606401602060405180830381600087803b151561091357600080fd5b5af1151561092057600080fd5b50505060405180519050151561093557600080fd5b600160a060020a0381166335d9db538382633a4b66f16040518163ffffffff1660e060020a028152600401602060405180830381600087803b151561097957600080fd5b5af1151561098657600080fd5b505050604051805190500160405160e060020a63ffffffff84160281526004810191909152602401600060405180830381600087803b15156109c757600080fd5b5af115156109d457600080fd5b5050507f8b05844824acf2db2f068e4006ef99b307ca4fe1a896d06e884700f1a9da3a6d838383600160a060020a0316633a4b66f16040518163ffffffff1660e060020a028152600401602060405180830381600087803b1515610a3757600080fd5b5af11515610a4457600080fd5b505050604051805190506040518084600160a060020a0316600160a060020a03168152602001838152602001828152602001935050505060405180910390a1610a8f836000806107c4565b505050565b600160a060020a0381166000818152600160208190526040909120805473ffffffffffffffffffffffffffffffffffffffff19169092179091556002805483928101610ae08382612080565b506000918252602090912001805473ffffffffffffffffffffffffffffffffffffffff1916600160a060020a03848116919091179091557f7583fed51a2ab4e582c68d93e281e0fcc2601ef4a7491d1d2d2dc511f6a912799083908316633a4b66f16040518163ffffffff1660e060020a028152600401602060405180830381600087803b1515610b7057600080fd5b5af11515610b7d57600080fd5b5050506040518051905083600160a060020a031663a035b1fe6040518163ffffffff1660e060020a028152600401602060405180830381600087803b1515610bc457600080fd5b5af11515610bd157600080fd5b505050604051805190506040518084600160a060020a0316600160a060020a03168152602001838152602001828152602001935050505060405180910390a1610c1c826000806107c4565b5050565b600160205260009081526040902054600160a060020a031681565b600160a060020a03808216600090815260016020526040808220549192839216906309af4fe690518163ffffffff1660e060020a028152600401602060405180830381600087803b1515610c8e57600080fd5b5af11515610c9b57600080fd5b50505060405180519050119050919050565b600855565b600360205260009081526040902080546001820154600290920154600160a060020a038083169360a060020a90930460ff1692911684565b600080600080610cf86120a4565b60007f4355524154455f4348414c4c454e47455f524f4c450000000000000000000000610d253382611fd8565b1515610d3057600080fd5b600160a060020a0380891660009081526001602052604090819020549091169750879063605cba8290518163ffffffff1660e060020a028152600401602060405180830381600087803b1515610d8557600080fd5b5af11515610d9257600080fd5b5050506040518051600a546004549198506064900488029650600160a060020a0316905063a9059cbb338760405160e060020a63ffffffff8516028152600160a060020a0390921660048301526024820152604401602060405180830381600087803b1515610e0057600080fd5b5af11515610e0d57600080fd5b50505060405180515060009450505b86600160a060020a03166333a2cc016040518163ffffffff1660e060020a028152600401602060405180830381600087803b1515610e5957600080fd5b5af11515610e6657600080fd5b50505060405180519050841015611056576003600088600160a060020a031663c32e11028760405160e060020a63ffffffff84160281526004810191909152602401602060405180830381600087803b1515610ec157600080fd5b5af11515610ece57600080fd5b505050604051805190508152602001908152602001600020608060405190810160409081528254600160a060020a03808216845260a060020a90910460ff16151560208401526001840154918301919091526002909201548216606082015260045490945086880393501663a9059cbb8451888660400151811515610f4f57fe5b04850260405160e060020a63ffffffff8516028152600160a060020a0390921660048301526024820152604401602060405180830381600087803b1515610f9557600080fd5b5af11515610fa257600080fd5b505050604051805190505060016003600089600160a060020a031663c32e11028860405160e060020a63ffffffff84160281526004810191909152602401602060405180830381600087803b1515610ff957600080fd5b5af1151561100657600080fd5b50505060405180518252506020810191909152604001600020805491151560a060020a0274ff00000000000000000000000000000000000000001990921691909117905560019390930192610e1c565b86600160a060020a03166335d9db53600060405160e060020a63ffffffff84160281526004810191909152602401600060405180830381600087803b151561109d57600080fd5b5af115156110aa57600080fd5b50505086600160a060020a0316636de149f5600060405160e060020a63ffffffff84160281526004810191909152602401600060405180830381600087803b15156110f457600080fd5b5af1151561110157600080fd5b50505086600160a060020a03166331ec7fce600060405160e060020a63ffffffff84160281526004810191909152602401600060405180830381600087803b151561114b57600080fd5b5af1151561115857600080fd5b50505086600160a060020a0316637b789204600060405160e060020a63ffffffff84160281529015156004820152602401600060405180830381600087803b15156111a257600080fd5b5af115156111af57600080fd5b5050507f9d9f99a36ef64966814c1f89a7a64fcb0132cbd085184a9666469302f32b92c488604051600160a060020a03909116815260200160405180910390a16111fb886000806107c4565b5050505050505050565b6000806000807f4355524154455f4348414c4c454e47455f524f4c4500000000000000000000006112363382611fd8565b151561124157600080fd5b600160a060020a0380871660009081526001602052604090819020549091169550859063605cba8290518163ffffffff1660e060020a028152600401602060405180830381600087803b151561129657600080fd5b5af115156112a357600080fd5b5050506040518051600a546004549196506064900486029450600160a060020a0316905063a9059cbb338560405160e060020a63ffffffff8516028152600160a060020a0390921660048301526024820152604401602060405180830381600087803b151561131157600080fd5b5af1151561131e57600080fd5b50505060405180515050600454600160a060020a039081169063a9059cbb908716638da5cb5b6040518163ffffffff1660e060020a028152600401602060405180830381600087803b151561137257600080fd5b5af1151561137f57600080fd5b50505060405180519050611399878763ffffffff61206e16565b60405160e060020a63ffffffff8516028152600160a060020a0390921660048301526024820152604401602060405180830381600087803b15156113dc57600080fd5b5af115156113e957600080fd5b50505060405180515060009250505b84600160a060020a03166333a2cc016040518163ffffffff1660e060020a028152600401602060405180830381600087803b151561143557600080fd5b5af1151561144257600080fd5b505050604051805190508210156114fc5760016003600087600160a060020a031663c32e11028660405160e060020a63ffffffff84160281526004810191909152602401602060405180830381600087803b151561149f57600080fd5b5af115156114ac57600080fd5b50505060405180518252506020810191909152604001600020805491151560a060020a0274ff000000000000000000000000000000000000000019909216919091179055600191909101906113f8565b84600160a060020a03166331ec7fce600060405160e060020a63ffffffff84160281526004810191909152602401600060405180830381600087803b151561154357600080fd5b5af1151561155057600080fd5b50505084600160a060020a0316636de149f5600060405160e060020a63ffffffff84160281526004810191909152602401600060405180830381600087803b151561159a57600080fd5b5af115156115a757600080fd5b5050507f125014e75e2aead4a1c8a35e9bb786a430fc1ba6354cbd9845802d3603abd0b086604051600160a060020a03909116815260200160405180910390a16115f3866000806107c4565b505050505050565b6000806116066120a4565b60095484101561161557600080fd5b600160a060020a0380861660009081526001602052604090819020546004549083169450909116906323b872dd903390309088905160e060020a63ffffffff8616028152600160a060020a0393841660048201529190921660248201526044810191909152606401602060405180830381600087803b151561169657600080fd5b5af115156116a357600080fd5b5050506040518051905015156116b857600080fd5b6007805460010190819055925060806040519081016040908152600160a060020a03338116835260006020808501829052838501899052918916606085015286815260039091522090915081908151815473ffffffffffffffffffffffffffffffffffffffff1916600160a060020a03919091161781556020820151815490151560a060020a0274ff000000000000000000000000000000000000000019909116178155604082015181600101556060820151600291909101805473ffffffffffffffffffffffffffffffffffffffff1916600160a060020a03928316179055831690506331ec7fce816309af4fe66040518163ffffffff1660e060020a028152600401602060405180830381600087803b15156117d557600080fd5b5af115156117e257600080fd5b5050506040518051905060010160405160e060020a63ffffffff84160281526004810191909152602401600060405180830381600087803b151561182557600080fd5b5af1151561183257600080fd5b50505081600160a060020a03166332fd14418460405160e060020a63ffffffff84160281526004810191909152602401600060405180830381600087803b151561187b57600080fd5b5af1151561188857600080fd5b505050600160a060020a038216636de149f5858263605cba826040518163ffffffff1660e060020a028152600401602060405180830381600087803b15156118cf57600080fd5b5af115156118dc57600080fd5b505050604051805190500160405160e060020a63ffffffff84160281526004810191909152602401600060405180830381600087803b151561191d57600080fd5b5af1151561192a57600080fd5b5050507fe0c6c1f959ea19af04f1a1862f00c826f9aab9ca9ed5fe3798051f78560bee3a8585856040518084600160a060020a0316600160a060020a03168152602001838152602001828152602001935050505060405180910390a1611992856000806107c4565b505092915050565b600160a060020a038083166000908152600160205260409081902054909116906391b7f5ed9083905160e060020a63ffffffff84160281526004810191909152602401600060405180830381600087803b15156119f657600080fd5b5af11515611a0357600080fd5b505050610c1c826000806107c4565b600160a060020a038082166000908152600160205260409081902054909116908190638da5cb5b90518163ffffffff1660e060020a028152600401602060405180830381600087803b1515611a6657600080fd5b5af11515611a7357600080fd5b50505060405180519050600160a060020a031633600160a060020a0316141515611a9c57600080fd5b611aa58261065b565b1515611ab057600080fd5b80600160a060020a03166309af4fe66040518163ffffffff1660e060020a028152600401602060405180830381600087803b1515611aed57600080fd5b5af11515611afa57600080fd5b5050506040518051159050611b0e57600080fd5b600081600160a060020a0316633a4b66f16040518163ffffffff1660e060020a028152600401602060405180830381600087803b1515611b4d57600080fd5b5af11515611b5a57600080fd5b505050604051805190501115611c8457600454600160a060020a039081169063a9059cbb908316638da5cb5b6040518163ffffffff1660e060020a028152600401602060405180830381600087803b1515611bb457600080fd5b5af11515611bc157600080fd5b5050506040518051905083600160a060020a0316633a4b66f16040518163ffffffff1660e060020a028152600401602060405180830381600087803b1515611c0857600080fd5b5af11515611c1557600080fd5b5050506040518051905060405160e060020a63ffffffff8516028152600160a060020a0390921660048301526024820152604401602060405180830381600087803b1515611c6257600080fd5b5af11515611c6f57600080fd5b505050604051805190501515611c8457600080fd5b80600160a060020a0316637b789204600060405160e060020a63ffffffff84160281529015156004820152602401600060405180830381600087803b1515611ccb57600080fd5b5af11515611cd857600080fd5b5050507fc48322c2e165c864176005884983dd81c87a9fc8258ca6a1967d17b26cd8d0e382604051600160a060020a03909116815260200160405180910390a1610c1c826000806107c4565b600955565b60025490565b600160a060020a0380831660009081526001602052604080822054909216918290633a4b66f190518163ffffffff1660e060020a028152600401602060405180830381600087803b1515611d8257600080fd5b5af11515611d8f57600080fd5b50505060405180519050905033600160a060020a031682600160a060020a0316638da5cb5b6040518163ffffffff1660e060020a028152600401602060405180830381600087803b1515611de257600080fd5b5af11515611def57600080fd5b50505060405180519050600160a060020a0316141515611e0e57600080fd5b80831115611e1b57600080fd5b6008548382031015611e2c57600080fd5b600454600160a060020a031663a9059cbb338560405160e060020a63ffffffff8516028152600160a060020a0390921660048301526024820152604401602060405180830381600087803b1515611e8257600080fd5b5af11515611e8f57600080fd5b505050604051805190501515611ea457600080fd5b81600160a060020a03166335d9db5384830360405160e060020a63ffffffff84160281526004810191909152602401600060405180830381600087803b1515611eec57600080fd5b5af11515611ef957600080fd5b5050507f5ee9537083cb767f9e599a17876a9c597197deba435082e0b88c4da925d4599e848484600160a060020a0316633a4b66f16040518163ffffffff1660e060020a028152600401602060405180830381600087803b1515611f5c57600080fd5b5af11515611f6957600080fd5b505050604051805190506040518084600160a060020a0316600160a060020a03168152602001838152602001828152602001935050505060405180910390a1611fb4846000806107c4565b50505050565b600454600160a060020a031681565b600554600160a060020a031681565b60008054600160a060020a031615806120675750600054600160a060020a0316636d6712d884308560405160e060020a63ffffffff8616028152600160a060020a0393841660048201529190921660248201526044810191909152606401602060405180830381600087803b151561204f57600080fd5b5af1151561205c57600080fd5b505050604051805190505b9392505050565b60008282111561207a57fe5b50900390565b815481835581811511610a8f57600083815260209020610a8f9181019083016120cb565b60806040519081016040908152600080835260208301819052908201819052606082015290565b6120e991905b808211156120e557600081556001016120d1565b5090565b905600a165627a7a723058202afb570340545087648a3577ae25cc53d3d151730961676bb0296acc1a0011280029",
  "source": "pragma solidity ^0.4.20;\n\nimport \"@settlemint/solidity-mint/contracts/marketplaces/tokencuratedregistry/TokenCuratedRegistry.sol\";\nimport \"@settlemint/solidity-mint/contracts/marketplaces/tokensystem/Token.sol\";\n\n\ncontract StreamRegistry is TokenCuratedRegistry {\n\n  // Initial values, these can be changed with setters\n  uint MIN_ENLIST_AMOUNT = 10;\n  uint MIN_CHALLENGE_AMOUNT = 5;\n  uint ADMIN_PERCENTAGE = 10;\n\n  /**\n  @dev Contructor\n  @notice                Sets the address for token\n  @param _gateKeeper     Address of the gatekeeper\n  @param _token          Address of the token\n  */\n  function StreamRegistry(\n    address _gateKeeper,\n    address _token,\n    address _listingFactory\n  )\n    TokenCuratedRegistry(\n      _gateKeeper,\n      _token,\n      _listingFactory,\n      MIN_ENLIST_AMOUNT,\n      MIN_CHALLENGE_AMOUNT,\n      ADMIN_PERCENTAGE\n    )\n    public\n  {}\n}\n",
  "sourcePath": "/Users/silkevandenbroeck/databrokerDAO/databrokerdao-dapi/contracts/stream/StreamRegistry.sol",
  "compiler": {
    "name": "solc",
    "version": "0.4.21+commit.dfe3193c.Emscripten.clang"
  },
  "schemaVersion": "2.0.0",
  "updatedAt": "2018-04-06T07:49:26.454Z"
}