{
  "contractName": "Stream",
  "abi": [
    {
      "constant": true,
      "inputs": [],
      "name": "challenges",
      "outputs": [
        {
          "name": "",
          "type": "uint256"
        }
      ],
      "payable": false,
      "stateMutability": "view",
      "type": "function"
    },
    {
      "constant": false,
      "inputs": [
        {
          "name": "_challenges",
          "type": "uint256"
        }
      ],
      "name": "setChallenges",
      "outputs": [],
      "payable": false,
      "stateMutability": "nonpayable",
      "type": "function"
    },
    {
      "constant": false,
      "inputs": [
        {
          "name": "_challengeID",
          "type": "uint256"
        }
      ],
      "name": "addChallengeID",
      "outputs": [],
      "payable": false,
      "stateMutability": "nonpayable",
      "type": "function"
    },
    {
      "constant": false,
      "inputs": [],
      "name": "getChallengeIDsLength",
      "outputs": [
        {
          "name": "length",
          "type": "uint256"
        }
      ],
      "payable": false,
      "stateMutability": "nonpayable",
      "type": "function"
    },
    {
      "constant": false,
      "inputs": [
        {
          "name": "_stake",
          "type": "uint256"
        }
      ],
      "name": "setStake",
      "outputs": [],
      "payable": false,
      "stateMutability": "nonpayable",
      "type": "function"
    },
    {
      "constant": true,
      "inputs": [],
      "name": "metadata",
      "outputs": [
        {
          "name": "",
          "type": "string"
        }
      ],
      "payable": false,
      "stateMutability": "view",
      "type": "function"
    },
    {
      "constant": true,
      "inputs": [],
      "name": "stake",
      "outputs": [
        {
          "name": "",
          "type": "uint256"
        }
      ],
      "payable": false,
      "stateMutability": "view",
      "type": "function"
    },
    {
      "constant": true,
      "inputs": [],
      "name": "whitelisted",
      "outputs": [
        {
          "name": "",
          "type": "bool"
        }
      ],
      "payable": false,
      "stateMutability": "view",
      "type": "function"
    },
    {
      "constant": true,
      "inputs": [],
      "name": "gateKeeper",
      "outputs": [
        {
          "name": "",
          "type": "address"
        }
      ],
      "payable": false,
      "stateMutability": "view",
      "type": "function"
    },
    {
      "constant": false,
      "inputs": [
        {
          "name": "ipfsHash",
          "type": "string"
        }
      ],
      "name": "updateMetaData",
      "outputs": [],
      "payable": false,
      "stateMutability": "nonpayable",
      "type": "function"
    },
    {
      "constant": true,
      "inputs": [],
      "name": "challengesStake",
      "outputs": [
        {
          "name": "",
          "type": "uint256"
        }
      ],
      "payable": false,
      "stateMutability": "view",
      "type": "function"
    },
    {
      "constant": false,
      "inputs": [
        {
          "name": "_challengesStake",
          "type": "uint256"
        }
      ],
      "name": "setChallengesStake",
      "outputs": [],
      "payable": false,
      "stateMutability": "nonpayable",
      "type": "function"
    },
    {
      "constant": false,
      "inputs": [
        {
          "name": "_whitelisted",
          "type": "bool"
        }
      ],
      "name": "setWhitelisted",
      "outputs": [],
      "payable": false,
      "stateMutability": "nonpayable",
      "type": "function"
    },
    {
      "constant": true,
      "inputs": [
        {
          "name": "",
          "type": "address"
        }
      ],
      "name": "purchases",
      "outputs": [
        {
          "name": "",
          "type": "address"
        }
      ],
      "payable": false,
      "stateMutability": "view",
      "type": "function"
    },
    {
      "constant": true,
      "inputs": [],
      "name": "owner",
      "outputs": [
        {
          "name": "",
          "type": "address"
        }
      ],
      "payable": false,
      "stateMutability": "view",
      "type": "function"
    },
    {
      "constant": false,
      "inputs": [
        {
          "name": "_price",
          "type": "uint256"
        }
      ],
      "name": "setPrice",
      "outputs": [],
      "payable": false,
      "stateMutability": "nonpayable",
      "type": "function"
    },
    {
      "constant": true,
      "inputs": [],
      "name": "price",
      "outputs": [
        {
          "name": "",
          "type": "uint256"
        }
      ],
      "payable": false,
      "stateMutability": "view",
      "type": "function"
    },
    {
      "constant": true,
      "inputs": [
        {
          "name": "",
          "type": "uint256"
        }
      ],
      "name": "challengeIDs",
      "outputs": [
        {
          "name": "",
          "type": "uint256"
        }
      ],
      "payable": false,
      "stateMutability": "view",
      "type": "function"
    },
    {
      "constant": false,
      "inputs": [
        {
          "name": "_index",
          "type": "uint256"
        }
      ],
      "name": "getChallengeIDAtIndex",
      "outputs": [
        {
          "name": "challengeID",
          "type": "uint256"
        }
      ],
      "payable": false,
      "stateMutability": "nonpayable",
      "type": "function"
    },
    {
      "constant": true,
      "inputs": [],
      "name": "UPDATE_METADATA_ROLE",
      "outputs": [
        {
          "name": "",
          "type": "bytes32"
        }
      ],
      "payable": false,
      "stateMutability": "view",
      "type": "function"
    },
    {
      "inputs": [
        {
          "name": "_owner",
          "type": "address"
        },
        {
          "name": "_price",
          "type": "uint256"
        },
        {
          "name": "_stakeAmount",
          "type": "uint256"
        },
        {
          "name": "_gateKeeper",
          "type": "address"
        }
      ],
      "payable": false,
      "stateMutability": "nonpayable",
      "type": "constructor"
    },
    {
      "anonymous": false,
      "inputs": [
        {
          "indexed": true,
          "name": "key",
          "type": "address"
        }
      ],
      "name": "AddressCacheInvalidated",
      "type": "event"
    },
    {
      "anonymous": false,
      "inputs": [
        {
          "indexed": true,
          "name": "key",
          "type": "bytes32"
        }
      ],
      "name": "Bytes32CacheInvalidated",
      "type": "event"
    },
    {
      "anonymous": false,
      "inputs": [
        {
          "indexed": true,
          "name": "key",
          "type": "uint256"
        }
      ],
      "name": "Uint256CacheInvalidated",
      "type": "event"
    },
    {
      "constant": false,
      "inputs": [
        {
          "name": "_purchase",
          "type": "address"
        },
        {
          "name": "_purchaser",
          "type": "address"
        }
      ],
      "name": "addPurchase",
      "outputs": [],
      "payable": false,
      "stateMutability": "nonpayable",
      "type": "function"
    },
    {
      "constant": true,
      "inputs": [
        {
          "name": "_purchaser",
          "type": "address"
        }
      ],
      "name": "hasAccess",
      "outputs": [
        {
          "name": "access",
          "type": "bool"
        }
      ],
      "payable": false,
      "stateMutability": "view",
      "type": "function"
    },
    {
      "constant": false,
      "inputs": [
        {
          "name": "_cachedAddress",
          "type": "address"
        },
        {
          "name": "",
          "type": "bytes32"
        },
        {
          "name": "",
          "type": "uint256"
        }
      ],
      "name": "invalidateCache",
      "outputs": [],
      "payable": false,
      "stateMutability": "nonpayable",
      "type": "function"
    },
    {
      "constant": true,
      "inputs": [],
      "name": "getIndexLength",
      "outputs": [
        {
          "name": "length",
          "type": "uint256"
        }
      ],
      "payable": false,
      "stateMutability": "view",
      "type": "function"
    },
    {
      "constant": true,
      "inputs": [
        {
          "name": "index",
          "type": "uint256"
        }
      ],
      "name": "getByIndex",
      "outputs": [
        {
          "name": "",
          "type": "bytes32"
        },
        {
          "name": "contractAddress",
          "type": "address"
        }
      ],
      "payable": false,
      "stateMutability": "view",
      "type": "function"
    },
    {
      "constant": true,
      "inputs": [
        {
          "name": "_key",
          "type": "address"
        }
      ],
      "name": "getByKey",
      "outputs": [
        {
          "name": "",
          "type": "bytes32"
        },
        {
          "name": "contractAddress",
          "type": "address"
        }
      ],
      "payable": false,
      "stateMutability": "view",
      "type": "function"
    }
  ],
  "bytecode": "0x606060405260006003819055600481905560058190556007556008805460ff19166001179055341561003057600080fd5b604051608080610a4c8339810160405280805191906020018051919060200180519190602001805160008054600160a060020a03928316600160a060020a03199182161790915560018054308416921691909117905560088054919096166101000261010060a860020a031990911617909455506003919091556004555061098f806100bd6000396000f30060606040526004361061013a5763ffffffff60e060020a60003504166309af4fe6811461013f5780632d883a731461016457806331ec7fce1461019b57806332fd1441146101b357806333a2cc01146101c957806335d9db53146101dc578063392f37e9146101f25780633a4b66f11461027c5780633d188fab1461028f5780633d9287fa146102b457806345d61ded146102db578063498770381461030a5780635cc0750514610329578063605cba821461037a5780636de149f51461038d5780637b789204146103a3578063842a77d3146103bb5780638da5cb5b146103da57806390a4b8d5146103ed57806391b7f5ed1461041257806395a078e814610428578063a035b1fe14610447578063b4f8c5421461045a578063c32e110214610470578063e1ba7d0114610486578063fff139cf14610499575b600080fd5b341561014a57600080fd5b6101526104ac565b60405190815260200160405180910390f35b341561016f57600080fd5b61017a6004356104b2565b604051918252600160a060020a031660208201526040908101905180910390f35b34156101a657600080fd5b6101b16004356104ea565b005b34156101be57600080fd5b6101b16004356104ef565b34156101d457600080fd5b610152610510565b34156101e757600080fd5b6101b1600435610517565b34156101fd57600080fd5b61020561051c565b60405160208082528190810183818151815260200191508051906020019080838360005b83811015610241578082015183820152602001610229565b50505050905090810190601f16801561026e5780820380516001836020036101000a031916815260200191505b509250505060405180910390f35b341561028757600080fd5b6101526105ba565b341561029a57600080fd5b6101b1600160a060020a03600435166024356044356105c0565b34156102bf57600080fd5b6102c76105fb565b604051901515815260200160405180910390f35b34156102e657600080fd5b6102ee610604565b604051600160a060020a03909116815260200160405180910390f35b341561031557600080fd5b61017a600160a060020a0360043516610613565b341561033457600080fd5b6101b160046024813581810190830135806020601f8201819004810201604051908101604052818152929190602084018383808284375094965061063495505050505050565b341561038557600080fd5b610152610648565b341561039857600080fd5b6101b160043561064e565b34156103ae57600080fd5b6101b16004351515610653565b34156103c657600080fd5b6102ee600160a060020a0360043516610666565b34156103e557600080fd5b6102ee610681565b34156103f857600080fd5b6101b1600160a060020a0360043581169060243516610695565b341561041d57600080fd5b6101b160043561071c565b341561043357600080fd5b6102c7600160a060020a0360043516610721565b341561045257600080fd5b6101526107b0565b341561046557600080fd5b6101526004356107b6565b341561047b57600080fd5b6101526004356107d5565b341561049157600080fd5b6101526107f9565b34156104a457600080fd5b6101526107ff565b60055481565b6000806104e1600a848154811015156104c757fe5b600091825260209091200154600160a060020a0316610613565b91509150915091565b600555565b600680546001810161050183826108a7565b50600091825260209091200155565b6006545b90565b600455565b60028054600181600116156101000203166002900480601f0160208091040260200160405190810160405280929190818152602001828054600181600116156101000203166002900480156105b25780601f10610587576101008083540402835291602001916105b2565b820191906000526020600020905b81548152906001019060200180831161059557829003601f168201915b505050505081565b60045481565b82600160a060020a03167f2130e02bc65616aa7f8f548960f51a08a1d0ea94efb33611412208c2d0306a2260405160405180910390a2505050565b60085460ff1681565b600054600160a060020a031681565b600160a060020a039081166000908152600960205260408120549092911690565b61063d81610823565b61064561083a565b50565b60075481565b600755565b6008805460ff1916911515919091179055565b600960205260009081526040902054600160a060020a031681565b6008546101009004600160a060020a031681565b600160a060020a038181166000908152600960205260409020805473ffffffffffffffffffffffffffffffffffffffff1916918416919091179055600a8054600181016106e283826108a7565b506000918252602090912001805473ffffffffffffffffffffffffffffffffffffffff1916600160a060020a039290921691909117905550565b600355565b600160a060020a038082166000908152600960205260408082205491929190911690633197cbb690839051602001526040518163ffffffff1660e060020a028152600401602060405180830381600087803b151561077e57600080fd5b6102c65a03f1151561078f57600080fd5b5050506040518051151590506107a7575060006107ab565b5060015b919050565b60035481565b60068054829081106107c457fe5b600091825260209091200154905081565b60006006828154811015156107e657fe5b9060005260206000209001549050919050565b600a5490565b7f5550444154455f4d455441444154415f524f4c4500000000000000000000000081565b60028180516108369291602001906108cb565b5050565b600154600160a060020a0316633d188fab30600060405160e060020a63ffffffff8516028152600160a060020a0390921660048301526044820152606401600060405180830381600087803b151561089157600080fd5b6102c65a03f115156108a257600080fd5b505050565b8154818355818115116108a2576000838152602090206108a2918101908301610949565b828054600181600116156101000203166002900490600052602060002090601f016020900481019282601f1061090c57805160ff1916838001178555610939565b82800160010185558215610939579182015b8281111561093957825182559160200191906001019061091e565b50610945929150610949565b5090565b61051491905b80821115610945576000815560010161094f5600a165627a7a72305820e004ffd6d0ca204de2af96a9de7a16cd7b7b0bc22f2280c39a41adbcf5def1000029",
  "source": "pragma solidity ^0.4.20;\n\nimport \"../purchase/Purchase.sol\";\nimport \"@settlemint/solidity-mint/contracts/marketplaces/tokencuratedregistry/Listing.sol\";\n\n\ncontract Stream is Listing, Syncable {\n\n  // We store a mapping of purchases per stream\n  mapping (address => Purchase) public purchases;\n  address[] purchasesIndex;\n\n  /**\n  @dev Contructor\n  @notice                Sets the address for token\n  @param _owner          Address of the owner\n  @param _price          Price for the listing\n  @param _stakeAmount    Amount staked for the listing\n  @param _gateKeeper     Address of the gatekeeper\n  */\n  function Stream(\n    address _owner,\n    uint _price,\n    uint _stakeAmount,\n    address _gateKeeper\n  )\n    Listing(_owner, _price, _stakeAmount, _gateKeeper)\n    public\n  {}\n\n  /**\n  @notice                Adds a purchase to the purchases mapping, indexed by address of the purchaser\n  @param _purchase          Address of the purchase\n  @param _purchaser     Address of the person who purchased\n  */\n  function addPurchase(address _purchase, address _purchaser) external {\n    purchases[_purchaser] = Purchase(_purchase);\n    purchasesIndex.push(_purchaser);\n  }\n\n  /**\n  @notice               Checks wether or nor a person has access to this stream\n  @param _purchaser     Address of the person who purchased\n  */\n  function hasAccess(address _purchaser) public view returns (bool access) {\n    if (purchases[_purchaser].endTime() == 0) {\n      return false;\n    }\n\n    return true;\n  }\n\n  /**\n  * implementation of cacher methods\n  */\n  function invalidateCache(address _cachedAddress, bytes32 /*_cachedBytes32*/, uint256 /*_cachedUint256*/) public {\n    AddressCacheInvalidated(_cachedAddress);\n  }\n\n   /**\n  * implementation of syncable methods\n  */\n  function getIndexLength() public view returns (uint length) {\n    length = purchasesIndex.length;\n  }\n\n  function getByIndex(uint index) public view returns (bytes32 /*key*/, address contractAddress) {\n    return getByKey(purchasesIndex[index]);\n  }\n\n  function getByKey(address _key) public view returns (bytes32 /*key*/, address contractAddress) {\n    contractAddress = address(purchases[_key]);\n  }\n}\n",
  "sourcePath": "/Users/roderik/Development/databrokerdao-dapi/contracts/stream/Stream.sol",
  "compiler": {
    "name": "solc",
    "version": "0.4.20+commit.3155dd80.Emscripten.clang"
  },
  "schemaVersion": "2.0.0",
  "updatedAt": "2018-03-07T22:38:53.418Z"
}