{
  "contractName": "Stream",
  "abi": [
    {
      "constant": true,
      "inputs": [],
      "name": "challenges",
      "outputs": [
        {
          "name": "",
          "type": "uint256"
        }
      ],
      "payable": false,
      "stateMutability": "view",
      "type": "function"
    },
    {
      "constant": false,
      "inputs": [
        {
          "name": "_challenges",
          "type": "uint256"
        }
      ],
      "name": "setChallenges",
      "outputs": [],
      "payable": false,
      "stateMutability": "nonpayable",
      "type": "function"
    },
    {
      "constant": false,
      "inputs": [
        {
          "name": "_challengeID",
          "type": "uint256"
        }
      ],
      "name": "addChallengeID",
      "outputs": [],
      "payable": false,
      "stateMutability": "nonpayable",
      "type": "function"
    },
    {
      "constant": false,
      "inputs": [],
      "name": "getChallengeIDsLength",
      "outputs": [
        {
          "name": "length",
          "type": "uint256"
        }
      ],
      "payable": false,
      "stateMutability": "nonpayable",
      "type": "function"
    },
    {
      "constant": false,
      "inputs": [
        {
          "name": "_stake",
          "type": "uint256"
        }
      ],
      "name": "setStake",
      "outputs": [],
      "payable": false,
      "stateMutability": "nonpayable",
      "type": "function"
    },
    {
      "constant": true,
      "inputs": [],
      "name": "metadata",
      "outputs": [
        {
          "name": "",
          "type": "string"
        }
      ],
      "payable": false,
      "stateMutability": "view",
      "type": "function"
    },
    {
      "constant": true,
      "inputs": [],
      "name": "stake",
      "outputs": [
        {
          "name": "",
          "type": "uint256"
        }
      ],
      "payable": false,
      "stateMutability": "view",
      "type": "function"
    },
    {
      "constant": true,
      "inputs": [],
      "name": "whitelisted",
      "outputs": [
        {
          "name": "",
          "type": "bool"
        }
      ],
      "payable": false,
      "stateMutability": "view",
      "type": "function"
    },
    {
      "constant": true,
      "inputs": [],
      "name": "gateKeeper",
      "outputs": [
        {
          "name": "",
          "type": "address"
        }
      ],
      "payable": false,
      "stateMutability": "view",
      "type": "function"
    },
    {
      "constant": true,
      "inputs": [],
      "name": "challengesStake",
      "outputs": [
        {
          "name": "",
          "type": "uint256"
        }
      ],
      "payable": false,
      "stateMutability": "view",
      "type": "function"
    },
    {
      "constant": false,
      "inputs": [
        {
          "name": "_challengesStake",
          "type": "uint256"
        }
      ],
      "name": "setChallengesStake",
      "outputs": [],
      "payable": false,
      "stateMutability": "nonpayable",
      "type": "function"
    },
    {
      "constant": false,
      "inputs": [
        {
          "name": "_whitelisted",
          "type": "bool"
        }
      ],
      "name": "setWhitelisted",
      "outputs": [],
      "payable": false,
      "stateMutability": "nonpayable",
      "type": "function"
    },
    {
      "constant": true,
      "inputs": [
        {
          "name": "",
          "type": "address"
        }
      ],
      "name": "purchases",
      "outputs": [
        {
          "name": "",
          "type": "address"
        }
      ],
      "payable": false,
      "stateMutability": "view",
      "type": "function"
    },
    {
      "constant": true,
      "inputs": [],
      "name": "owner",
      "outputs": [
        {
          "name": "",
          "type": "address"
        }
      ],
      "payable": false,
      "stateMutability": "view",
      "type": "function"
    },
    {
      "constant": false,
      "inputs": [
        {
          "name": "_price",
          "type": "uint256"
        }
      ],
      "name": "setPrice",
      "outputs": [],
      "payable": false,
      "stateMutability": "nonpayable",
      "type": "function"
    },
    {
      "constant": true,
      "inputs": [],
      "name": "price",
      "outputs": [
        {
          "name": "",
          "type": "uint256"
        }
      ],
      "payable": false,
      "stateMutability": "view",
      "type": "function"
    },
    {
      "constant": true,
      "inputs": [
        {
          "name": "",
          "type": "uint256"
        }
      ],
      "name": "challengeIDs",
      "outputs": [
        {
          "name": "",
          "type": "uint256"
        }
      ],
      "payable": false,
      "stateMutability": "view",
      "type": "function"
    },
    {
      "constant": false,
      "inputs": [
        {
          "name": "_index",
          "type": "uint256"
        }
      ],
      "name": "getChallengeIDAtIndex",
      "outputs": [
        {
          "name": "challengeID",
          "type": "uint256"
        }
      ],
      "payable": false,
      "stateMutability": "nonpayable",
      "type": "function"
    },
    {
      "constant": true,
      "inputs": [],
      "name": "UPDATE_METADATA_ROLE",
      "outputs": [
        {
          "name": "",
          "type": "bytes32"
        }
      ],
      "payable": false,
      "stateMutability": "view",
      "type": "function"
    },
    {
      "inputs": [
        {
          "name": "_owner",
          "type": "address"
        },
        {
          "name": "_price",
          "type": "uint256"
        },
        {
          "name": "_stakeAmount",
          "type": "uint256"
        },
        {
          "name": "_gateKeeper",
          "type": "address"
        }
      ],
      "payable": false,
      "stateMutability": "nonpayable",
      "type": "constructor"
    },
    {
      "anonymous": false,
      "inputs": [
        {
          "indexed": true,
          "name": "key",
          "type": "address"
        }
      ],
      "name": "AddressCacheInvalidated",
      "type": "event"
    },
    {
      "anonymous": false,
      "inputs": [
        {
          "indexed": true,
          "name": "key",
          "type": "bytes32"
        }
      ],
      "name": "Bytes32CacheInvalidated",
      "type": "event"
    },
    {
      "anonymous": false,
      "inputs": [
        {
          "indexed": true,
          "name": "key",
          "type": "uint256"
        }
      ],
      "name": "Uint256CacheInvalidated",
      "type": "event"
    },
    {
      "constant": false,
      "inputs": [
        {
          "name": "_purchase",
          "type": "address"
        },
        {
          "name": "_purchaser",
          "type": "address"
        }
      ],
      "name": "addPurchase",
      "outputs": [],
      "payable": false,
      "stateMutability": "nonpayable",
      "type": "function"
    },
    {
      "constant": false,
      "inputs": [
        {
          "name": "_cachedAddress",
          "type": "address"
        },
        {
          "name": "",
          "type": "bytes32"
        },
        {
          "name": "",
          "type": "uint256"
        }
      ],
      "name": "invalidateCache",
      "outputs": [],
      "payable": false,
      "stateMutability": "nonpayable",
      "type": "function"
    },
    {
      "constant": true,
      "inputs": [],
      "name": "getIndexLength",
      "outputs": [
        {
          "name": "length",
          "type": "uint256"
        }
      ],
      "payable": false,
      "stateMutability": "view",
      "type": "function"
    },
    {
      "constant": true,
      "inputs": [
        {
          "name": "index",
          "type": "uint256"
        }
      ],
      "name": "getByIndex",
      "outputs": [
        {
          "name": "",
          "type": "bytes32"
        },
        {
          "name": "contractAddress",
          "type": "address"
        }
      ],
      "payable": false,
      "stateMutability": "view",
      "type": "function"
    },
    {
      "constant": true,
      "inputs": [
        {
          "name": "_key",
          "type": "address"
        }
      ],
      "name": "getByKey",
      "outputs": [
        {
          "name": "",
          "type": "bytes32"
        },
        {
          "name": "contractAddress",
          "type": "address"
        }
      ],
      "payable": false,
      "stateMutability": "view",
      "type": "function"
    },
    {
      "constant": false,
      "inputs": [
        {
          "name": "ipfsHash",
          "type": "string"
        }
      ],
      "name": "updateMetaData",
      "outputs": [],
      "payable": false,
      "stateMutability": "nonpayable",
      "type": "function"
    }
  ],
  "bytecode": "0x606060405260006003819055600481905560058190556007556008805460ff19166001179055341561003057600080fd5b604051608080610a6f8339810160405280805191906020018051919060200180519190602001805160008054600160a060020a03928316600160a060020a03199182161790915560018054308416921691909117905560088054919096166101000261010060a860020a03199091161790945550600391909155600455506109b2806100bd6000396000f30060606040526004361061012f5763ffffffff60e060020a60003504166309af4fe681146101345780632d883a731461015957806331ec7fce1461019057806332fd1441146101a857806333a2cc01146101be57806335d9db53146101d1578063392f37e9146101e75780633a4b66f1146102715780633d188fab146102845780633d9287fa146102a957806345d61ded146102d057806349877038146102ff5780635cc075051461031e578063605cba821461036f5780636de149f5146103825780637b78920414610398578063842a77d3146103b05780638da5cb5b146103cf57806390a4b8d5146103e257806391b7f5ed14610407578063a035b1fe1461041d578063b4f8c54214610430578063c32e110214610446578063e1ba7d011461045c578063fff139cf1461046f575b600080fd5b341561013f57600080fd5b610147610482565b60405190815260200160405180910390f35b341561016457600080fd5b61016f600435610488565b604051918252600160a060020a031660208201526040908101905180910390f35b341561019b57600080fd5b6101a66004356104c0565b005b34156101b357600080fd5b6101a66004356104c5565b34156101c957600080fd5b6101476104e6565b34156101dc57600080fd5b6101a66004356104ed565b34156101f257600080fd5b6101fa6104f2565b60405160208082528190810183818151815260200191508051906020019080838360005b8381101561023657808201518382015260200161021e565b50505050905090810190601f1680156102635780820380516001836020036101000a031916815260200191505b509250505060405180910390f35b341561027c57600080fd5b610147610590565b341561028f57600080fd5b6101a6600160a060020a0360043516602435604435610596565b34156102b457600080fd5b6102bc6105d9565b604051901515815260200160405180910390f35b34156102db57600080fd5b6102e36105e2565b604051600160a060020a03909116815260200160405180910390f35b341561030a57600080fd5b61016f600160a060020a03600435166105f1565b341561032957600080fd5b6101a660046024813581810190830135806020601f8201819004810201604051908101604052818152929190602084018383808284375094965061061295505050505050565b341561037a57600080fd5b610147610626565b341561038d57600080fd5b6101a660043561062c565b34156103a357600080fd5b6101a66004351515610631565b34156103bb57600080fd5b6102e3600160a060020a0360043516610644565b34156103da57600080fd5b6102e361065f565b34156103ed57600080fd5b6101a6600160a060020a0360043581169060243516610673565b341561041257600080fd5b6101a66004356106fa565b341561042857600080fd5b6101476106ff565b341561043b57600080fd5b610147600435610705565b341561045157600080fd5b610147600435610724565b341561046757600080fd5b610147610748565b341561047a57600080fd5b61014761074e565b60055481565b6000806104b7600a8481548110151561049d57fe5b600091825260209091200154600160a060020a03166105f1565b91509150915091565b600555565b60068054600181016104d783826108ca565b50600091825260209091200155565b6006545b90565b600455565b60028054600181600116156101000203166002900480601f0160208091040260200160405190810160405280929190818152602001828054600181600116156101000203166002900480156105885780601f1061055d57610100808354040283529160200191610588565b820191906000526020600020905b81548152906001019060200180831161056b57829003601f168201915b505050505081565b60045481565b82600160a060020a03167f2130e02bc65616aa7f8f548960f51a08a1d0ea94efb33611412208c2d0306a2260405160405180910390a26105d4610772565b505050565b60085460ff1681565b600054600160a060020a031681565b600160a060020a039081166000908152600960205260408120549092911690565b61061b816107da565b610623610772565b50565b60075481565b600755565b6008805460ff1916911515919091179055565b600960205260009081526040902054600160a060020a031681565b6008546101009004600160a060020a031681565b600160a060020a038181166000908152600960205260409020805473ffffffffffffffffffffffffffffffffffffffff1916918416919091179055600a8054600181016106c083826108ca565b506000918252602090912001805473ffffffffffffffffffffffffffffffffffffffff1916600160a060020a039290921691909117905550565b600355565b60035481565b600680548290811061071357fe5b600091825260209091200154905081565b600060068281548110151561073557fe5b9060005260206000209001549050919050565b600a5490565b7f5550444154455f4d455441444154415f524f4c4500000000000000000000000081565b600154600160a060020a0316633d188fab30600060405160e060020a63ffffffff8516028152600160a060020a0390921660048301526044820152606401600060405180830381600087803b15156107c957600080fd5b6102c65a03f115156105d457600080fd5b7f5550444154455f4d455441444154415f524f4c450000000000000000000000006108053382610823565b151561081057600080fd5b60028280516105d49291602001906108ee565b60008054600160a060020a031615806108c3575060008054600160a060020a031690636d6712d8908590309086906040516020015260405160e060020a63ffffffff8616028152600160a060020a0393841660048201529190921660248201526044810191909152606401602060405180830381600087803b15156108a757600080fd5b6102c65a03f115156108b857600080fd5b505050604051805190505b9392505050565b8154818355818115116105d4576000838152602090206105d491810190830161096c565b828054600181600116156101000203166002900490600052602060002090601f016020900481019282601f1061092f57805160ff191683800117855561095c565b8280016001018555821561095c579182015b8281111561095c578251825591602001919060010190610941565b5061096892915061096c565b5090565b6104ea91905b8082111561096857600081556001016109725600a165627a7a7230582089fe05b679f3d71a49c87f2eea578a19911b6704ebebb2108d1a6ee6fc31b8f60029",
  "source": "pragma solidity ^0.4.20;\n\nimport \"../purchase/Purchase.sol\";\nimport \"@settlemint/solidity-mint/contracts/marketplaces/tokencuratedregistry/Listing.sol\";\n\n\ncontract Stream is Listing, Syncable {\n\n  // We store a mapping of purchases per stream\n  mapping (address => Purchase) public purchases;\n  address[] purchasesIndex;\n\n  /**\n  @dev Contructor\n  @notice                Sets the address for token\n  @param _owner          Address of the owner\n  @param _price          Price for the listing\n  @param _stakeAmount    Amount staked for the listing\n  @param _gateKeeper     Address of the gatekeeper\n  */\n  function Stream(\n    address _owner,\n    uint _price,\n    uint _stakeAmount,\n    address _gateKeeper\n  )\n    Listing(_owner, _price, _stakeAmount, _gateKeeper)\n    public\n  {}\n\n  /**\n  @notice                Adds a purchase to the purchases mapping, indexed by address of the purchaser\n  @param _purchase          Address of the purchase\n  @param _purchaser     Address of the person who purchased\n  */\n  function addPurchase(address _purchase, address _purchaser) external {\n    purchases[_purchaser] = Purchase(_purchase);\n    purchasesIndex.push(_purchaser);\n  }\n\n  /**\n  * implementation of cacher methods\n  */\n  function invalidateCache(address _cachedAddress, bytes32 /*_cachedBytes32*/, uint256 /*_cachedUint256*/) public {\n    AddressCacheInvalidated(_cachedAddress);\n    super.invalidateCache();\n  }\n\n   /**\n  * implementation of syncable methods\n  */\n  function getIndexLength() public view returns (uint length) {\n    length = purchasesIndex.length;\n  }\n\n  function getByIndex(uint index) public view returns (bytes32 /*key*/, address contractAddress) {\n    return getByKey(purchasesIndex[index]);\n  }\n\n  function getByKey(address _key) public view returns (bytes32 /*key*/, address contractAddress) {\n    contractAddress = address(purchases[_key]);\n  }\n\n\n  /**\n  * implementation of metadata methods\n  */\n  function updateMetaData(string ipfsHash) public {\n    super.updateMetaData(ipfsHash);\n    super.invalidateCache();\n  }\n}\n",
  "sourcePath": "/Users/silkevandenbroeck/databrokerDAO/databrokerdao-dapi/contracts/stream/Stream.sol",
  "compiler": {
    "name": "solc",
    "version": "0.4.20+commit.3155dd80.Emscripten.clang"
  },
  "schemaVersion": "1.0.1",
  "updatedAt": "2018-02-22T16:22:08.048Z"
}