{
  "contractName": "TokenRegistry",
  "abi": [
    {
      "constant": true,
      "inputs": [],
      "name": "metadata",
      "outputs": [
        {
          "name": "",
          "type": "string"
        }
      ],
      "payable": false,
      "stateMutability": "view",
      "type": "function"
    },
    {
      "constant": true,
      "inputs": [],
      "name": "gateKeeper",
      "outputs": [
        {
          "name": "",
          "type": "address"
        }
      ],
      "payable": false,
      "stateMutability": "view",
      "type": "function"
    },
    {
      "constant": false,
      "inputs": [
        {
          "name": "ipfsHash",
          "type": "string"
        }
      ],
      "name": "updateMetaData",
      "outputs": [],
      "payable": false,
      "stateMutability": "nonpayable",
      "type": "function"
    },
    {
      "constant": true,
      "inputs": [],
      "name": "LIST_TOKEN_ROLE",
      "outputs": [
        {
          "name": "",
          "type": "bytes32"
        }
      ],
      "payable": false,
      "stateMutability": "view",
      "type": "function"
    },
    {
      "constant": true,
      "inputs": [],
      "name": "UPDATE_METADATA_ROLE",
      "outputs": [
        {
          "name": "",
          "type": "bytes32"
        }
      ],
      "payable": false,
      "stateMutability": "view",
      "type": "function"
    },
    {
      "inputs": [
        {
          "name": "_gateKeeper",
          "type": "address"
        }
      ],
      "payable": false,
      "stateMutability": "nonpayable",
      "type": "constructor"
    },
    {
      "anonymous": false,
      "inputs": [
        {
          "indexed": true,
          "name": "key",
          "type": "address"
        }
      ],
      "name": "AddressCacheInvalidated",
      "type": "event"
    },
    {
      "anonymous": false,
      "inputs": [
        {
          "indexed": true,
          "name": "key",
          "type": "bytes32"
        }
      ],
      "name": "Bytes32CacheInvalidated",
      "type": "event"
    },
    {
      "anonymous": false,
      "inputs": [
        {
          "indexed": true,
          "name": "key",
          "type": "uint256"
        }
      ],
      "name": "Uint256CacheInvalidated",
      "type": "event"
    },
    {
      "constant": false,
      "inputs": [
        {
          "name": "_name",
          "type": "bytes32"
        },
        {
          "name": "_token",
          "type": "address"
        }
      ],
      "name": "addToken",
      "outputs": [],
      "payable": false,
      "stateMutability": "nonpayable",
      "type": "function"
    },
    {
      "constant": true,
      "inputs": [],
      "name": "getIndexLength",
      "outputs": [
        {
          "name": "length",
          "type": "uint256"
        }
      ],
      "payable": false,
      "stateMutability": "view",
      "type": "function"
    },
    {
      "constant": true,
      "inputs": [
        {
          "name": "index",
          "type": "uint256"
        }
      ],
      "name": "getByIndex",
      "outputs": [
        {
          "name": "key",
          "type": "bytes32"
        },
        {
          "name": "contractAddress",
          "type": "address"
        }
      ],
      "payable": false,
      "stateMutability": "view",
      "type": "function"
    },
    {
      "constant": true,
      "inputs": [
        {
          "name": "_key",
          "type": "bytes32"
        }
      ],
      "name": "getByKey",
      "outputs": [
        {
          "name": "key",
          "type": "bytes32"
        },
        {
          "name": "contractAddress",
          "type": "address"
        }
      ],
      "payable": false,
      "stateMutability": "view",
      "type": "function"
    },
    {
      "constant": false,
      "inputs": [
        {
          "name": "",
          "type": "address"
        },
        {
          "name": "_cachedBytes32",
          "type": "bytes32"
        },
        {
          "name": "",
          "type": "uint256"
        }
      ],
      "name": "invalidateCache",
      "outputs": [],
      "payable": false,
      "stateMutability": "nonpayable",
      "type": "function"
    }
  ],
  "bytecode": "0x6060604052341561000f57600080fd5b6040516020806107368339810160405280805160008054600160a060020a03909216600160a060020a031990921691909117905550506106e2806100546000396000f3006060604052600436106100a35763ffffffff7c01000000000000000000000000000000000000000000000000000000006000350416632d883a7381146100a8578063392f37e9146100df5780633d188fab1461016957806345d61ded146101905780634a91da90146101bf5780635cc07505146101d55780638273871e146102265780639776aacf1461024b578063e1ba7d011461026d578063fff139cf14610280575b600080fd5b34156100b357600080fd5b6100be600435610293565b604051918252600160a060020a031660208201526040908101905180910390f35b34156100ea57600080fd5b6100f26102c2565b60405160208082528190810183818151815260200191508051906020019080838360005b8381101561012e578082015183820152602001610116565b50505050905090810190601f16801561015b5780820380516001836020036101000a031916815260200191505b509250505060405180910390f35b341561017457600080fd5b61018e600160a060020a0360043516602435604435610360565b005b341561019b57600080fd5b6101a3610392565b604051600160a060020a03909116815260200160405180910390f35b34156101ca57600080fd5b6100be6004356103a1565b34156101e057600080fd5b61018e60046024813581810190830135806020601f820181900481020160405190810160405281815292919060208401838380828437509496506103c095505050505050565b341561023157600080fd5b61023961040e565b60405190815260200160405180910390f35b341561025657600080fd5b61018e600435600160a060020a0360243516610432565b341561027857600080fd5b610239610511565b341561028b57600080fd5b610239610517565b6000806102b96003848154811015156102a857fe5b9060005260206000209001546103a1565b91509150915091565b60018054600181600116156101000203166002900480601f0160208091040260200160405190810160405280929190818152602001828054600181600116156101000203166002900480156103585780601f1061032d57610100808354040283529160200191610358565b820191906000526020600020905b81548152906001019060200180831161033b57829003601f168201915b505050505081565b817fd5c977477c90fd6c009dd3275798b51da8bd2df8e0a25be47773f87b53d2e39960405160405180910390a2505050565b600054600160a060020a031681565b6000818152600260205260409020549091600160a060020a0390911690565b7f5550444154455f4d455441444154415f524f4c450000000000000000000000006103eb338261053b565b15156103f657600080fd5b60018280516104099291602001906105fb565b505050565b7f4c4953545f544f4b454e5f524f4c45000000000000000000000000000000000081565b7f4c4953545f544f4b454e5f524f4c45000000000000000000000000000000000061045d338261053b565b151561046857600080fd5b600083815260026020526040902054600160a060020a03161561048a57600080fd5b6000838152600260205260409020805473ffffffffffffffffffffffffffffffffffffffff1916600160a060020a03841617905560038054600181016104d08382610679565b506000918252602090912001839055827fd5c977477c90fd6c009dd3275798b51da8bd2df8e0a25be47773f87b53d2e39960405160405180910390a2505050565b60035490565b7f5550444154455f4d455441444154415f524f4c4500000000000000000000000081565b60008054600160a060020a031615806105f4575060008054600160a060020a031690636d6712d890859030908690604051602001526040517c010000000000000000000000000000000000000000000000000000000063ffffffff8616028152600160a060020a0393841660048201529190921660248201526044810191909152606401602060405180830381600087803b15156105d857600080fd5b6102c65a03f115156105e957600080fd5b505050604051805190505b9392505050565b828054600181600116156101000203166002900490600052602060002090601f016020900481019282601f1061063c57805160ff1916838001178555610669565b82800160010185558215610669579182015b8281111561066957825182559160200191906001019061064e565b50610675929150610699565b5090565b815481835581811511610409576000838152602090206104099181019083015b6106b391905b80821115610675576000815560010161069f565b905600a165627a7a723058202a118dcce39c89afe92ce4734be91acf4686bf9f4f2172661f86d42aa6525fbd0029",
  "source": "pragma solidity ^0.4.17;\n\nimport \"./interfaces/ITokenRegistry.sol\";\n\n\ncontract TokenRegistry is ITokenRegistry {\n\n  function TokenRegistry(address _gateKeeper) ITokenRegistry(_gateKeeper) public {}\n\n  function addToken(bytes32 _name, address _token) auth(LIST_TOKEN_ROLE) public {\n    require(tokens[_name] == address(0x0)); // only accept unique names\n    tokens[_name] = IToken(_token);\n    tokenIndex.push(_name);\n    Bytes32CacheInvalidated(_name);\n  }\n\n  function getIndexLength() public view returns (uint length) {\n    length = tokenIndex.length;\n  }\n\n  function getByIndex(uint index) public view returns (bytes32 key, address contractAddress) {\n    return getByKey(tokenIndex[index]);\n  }\n\n  function getByKey(bytes32 _key) public view returns (bytes32 key, address contractAddress) {\n    contractAddress = tokens[_key];\n    key = _key;\n  }\n\n  function invalidateCache(address /*_cachedAddress*/, bytes32 _cachedBytes32, uint256 /*_cachedUint256*/) public {\n    Bytes32CacheInvalidated(_cachedBytes32);\n  }\n}\n",
  "sourcePath": "@settlemint/solidity-mint/contracts/marketplaces/tokensystem/TokenRegistry.sol",
  "compiler": {
    "name": "solc",
    "version": "0.4.20+commit.3155dd80.Emscripten.clang"
  },
  "schemaVersion": "1.0.1",
  "updatedAt": "2018-02-23T10:38:34.452Z"
}