{
  "contractName": "Token",
  "abi": [
    {
      "constant": true,
      "inputs": [],
      "name": "name",
      "outputs": [
        {
          "name": "",
          "type": "bytes32"
        }
      ],
      "payable": false,
      "stateMutability": "view",
      "type": "function"
    },
    {
      "constant": false,
      "inputs": [
        {
          "name": "_spender",
          "type": "address"
        },
        {
          "name": "_value",
          "type": "uint256"
        }
      ],
      "name": "approve",
      "outputs": [
        {
          "name": "",
          "type": "bool"
        }
      ],
      "payable": false,
      "stateMutability": "nonpayable",
      "type": "function"
    },
    {
      "constant": false,
      "inputs": [
        {
          "name": "_roleRegistryAddress",
          "type": "address"
        },
        {
          "name": "_amount",
          "type": "uint256"
        }
      ],
      "name": "burnFromRoleRegistry",
      "outputs": [
        {
          "name": "success",
          "type": "bool"
        }
      ],
      "payable": false,
      "stateMutability": "nonpayable",
      "type": "function"
    },
    {
      "constant": false,
      "inputs": [
        {
          "name": "_from",
          "type": "address"
        },
        {
          "name": "_to",
          "type": "address"
        },
        {
          "name": "_value",
          "type": "uint256"
        }
      ],
      "name": "transferFrom",
      "outputs": [
        {
          "name": "success",
          "type": "bool"
        }
      ],
      "payable": false,
      "stateMutability": "nonpayable",
      "type": "function"
    },
    {
      "constant": false,
      "inputs": [
        {
          "name": "_to",
          "type": "address"
        },
        {
          "name": "_value",
          "type": "uint256"
        },
        {
          "name": "_data",
          "type": "bytes"
        }
      ],
      "name": "transferWithData",
      "outputs": [
        {
          "name": "success",
          "type": "bool"
        }
      ],
      "payable": false,
      "stateMutability": "nonpayable",
      "type": "function"
    },
    {
      "constant": true,
      "inputs": [
        {
          "name": "index",
          "type": "uint256"
        }
      ],
      "name": "getByIndex",
      "outputs": [
        {
          "name": "key",
          "type": "address"
        },
        {
          "name": "balance",
          "type": "uint256"
        }
      ],
      "payable": false,
      "stateMutability": "view",
      "type": "function"
    },
    {
      "constant": true,
      "inputs": [],
      "name": "decimals",
      "outputs": [
        {
          "name": "",
          "type": "uint8"
        }
      ],
      "payable": false,
      "stateMutability": "view",
      "type": "function"
    },
    {
      "constant": true,
      "inputs": [],
      "name": "metadata",
      "outputs": [
        {
          "name": "",
          "type": "string"
        }
      ],
      "payable": false,
      "stateMutability": "view",
      "type": "function"
    },
    {
      "constant": false,
      "inputs": [
        {
          "name": "_cachedAddress",
          "type": "address"
        },
        {
          "name": "_cachedBytes32",
          "type": "bytes32"
        },
        {
          "name": "_cachedUint256",
          "type": "uint256"
        }
      ],
      "name": "invalidateCache",
      "outputs": [],
      "payable": false,
      "stateMutability": "nonpayable",
      "type": "function"
    },
    {
      "constant": false,
      "inputs": [
        {
          "name": "_to",
          "type": "address"
        },
        {
          "name": "_amount",
          "type": "uint256"
        }
      ],
      "name": "mint",
      "outputs": [
        {
          "name": "success",
          "type": "bool"
        }
      ],
      "payable": false,
      "stateMutability": "nonpayable",
      "type": "function"
    },
    {
      "constant": true,
      "inputs": [],
      "name": "gateKeeper",
      "outputs": [
        {
          "name": "",
          "type": "address"
        }
      ],
      "payable": false,
      "stateMutability": "view",
      "type": "function"
    },
    {
      "constant": true,
      "inputs": [
        {
          "name": "_key",
          "type": "address"
        }
      ],
      "name": "getByKey",
      "outputs": [
        {
          "name": "key",
          "type": "address"
        },
        {
          "name": "balance",
          "type": "uint256"
        }
      ],
      "payable": false,
      "stateMutability": "view",
      "type": "function"
    },
    {
      "constant": false,
      "inputs": [
        {
          "name": "ipfsHash",
          "type": "string"
        }
      ],
      "name": "updateMetaData",
      "outputs": [],
      "payable": false,
      "stateMutability": "nonpayable",
      "type": "function"
    },
    {
      "constant": false,
      "inputs": [
        {
          "name": "_spender",
          "type": "address"
        },
        {
          "name": "_subtractedValue",
          "type": "uint256"
        }
      ],
      "name": "decreaseApproval",
      "outputs": [
        {
          "name": "success",
          "type": "bool"
        }
      ],
      "payable": false,
      "stateMutability": "nonpayable",
      "type": "function"
    },
    {
      "constant": true,
      "inputs": [
        {
          "name": "_owner",
          "type": "address"
        }
      ],
      "name": "balanceOf",
      "outputs": [
        {
          "name": "balance",
          "type": "uint256"
        }
      ],
      "payable": false,
      "stateMutability": "view",
      "type": "function"
    },
    {
      "constant": false,
      "inputs": [
        {
          "name": "_from",
          "type": "address"
        },
        {
          "name": "_amount",
          "type": "uint256"
        }
      ],
      "name": "burn",
      "outputs": [
        {
          "name": "success",
          "type": "bool"
        }
      ],
      "payable": false,
      "stateMutability": "nonpayable",
      "type": "function"
    },
    {
      "constant": false,
      "inputs": [
        {
          "name": "_to",
          "type": "address"
        },
        {
          "name": "_value",
          "type": "uint256"
        }
      ],
      "name": "transfer",
      "outputs": [
        {
          "name": "success",
          "type": "bool"
        }
      ],
      "payable": false,
      "stateMutability": "nonpayable",
      "type": "function"
    },
    {
      "constant": true,
      "inputs": [],
      "name": "BURN_ROLE",
      "outputs": [
        {
          "name": "",
          "type": "bytes32"
        }
      ],
      "payable": false,
      "stateMutability": "view",
      "type": "function"
    },
    {
      "constant": false,
      "inputs": [
        {
          "name": "_spender",
          "type": "address"
        },
        {
          "name": "_addedValue",
          "type": "uint256"
        }
      ],
      "name": "increaseApproval",
      "outputs": [
        {
          "name": "success",
          "type": "bool"
        }
      ],
      "payable": false,
      "stateMutability": "nonpayable",
      "type": "function"
    },
    {
      "constant": false,
      "inputs": [
        {
          "name": "_roleRegistryAddress",
          "type": "address"
        },
        {
          "name": "_amount",
          "type": "uint256"
        }
      ],
      "name": "mintToRoleRegistry",
      "outputs": [
        {
          "name": "success",
          "type": "bool"
        }
      ],
      "payable": false,
      "stateMutability": "nonpayable",
      "type": "function"
    },
    {
      "constant": true,
      "inputs": [
        {
          "name": "_owner",
          "type": "address"
        },
        {
          "name": "_spender",
          "type": "address"
        }
      ],
      "name": "allowance",
      "outputs": [
        {
          "name": "remaining",
          "type": "uint256"
        }
      ],
      "payable": false,
      "stateMutability": "view",
      "type": "function"
    },
    {
      "constant": true,
      "inputs": [],
      "name": "getIndexLength",
      "outputs": [
        {
          "name": "length",
          "type": "uint256"
        }
      ],
      "payable": false,
      "stateMutability": "view",
      "type": "function"
    },
    {
      "constant": true,
      "inputs": [],
      "name": "MINT_ROLE",
      "outputs": [
        {
          "name": "",
          "type": "bytes32"
        }
      ],
      "payable": false,
      "stateMutability": "view",
      "type": "function"
    },
    {
      "constant": false,
      "inputs": [
        {
          "name": "_from",
          "type": "address"
        },
        {
          "name": "_to",
          "type": "address"
        },
        {
          "name": "_value",
          "type": "uint256"
        },
        {
          "name": "_data",
          "type": "bytes"
        }
      ],
      "name": "transferFromWithData",
      "outputs": [
        {
          "name": "success",
          "type": "bool"
        }
      ],
      "payable": false,
      "stateMutability": "nonpayable",
      "type": "function"
    },
    {
      "constant": true,
      "inputs": [],
      "name": "UPDATE_METADATA_ROLE",
      "outputs": [
        {
          "name": "",
          "type": "bytes32"
        }
      ],
      "payable": false,
      "stateMutability": "view",
      "type": "function"
    },
    {
      "inputs": [
        {
          "name": "_name",
          "type": "bytes32"
        },
        {
          "name": "_decimals",
          "type": "uint8"
        },
        {
          "name": "_registry",
          "type": "address"
        },
        {
          "name": "_gateKeeper",
          "type": "address"
        }
      ],
      "payable": false,
      "stateMutability": "nonpayable",
      "type": "constructor"
    },
    {
      "anonymous": false,
      "inputs": [
        {
          "indexed": true,
          "name": "from",
          "type": "address"
        },
        {
          "indexed": true,
          "name": "to",
          "type": "address"
        },
        {
          "indexed": false,
          "name": "value",
          "type": "uint256"
        }
      ],
      "name": "Transfer",
      "type": "event"
    },
    {
      "anonymous": false,
      "inputs": [
        {
          "indexed": true,
          "name": "from",
          "type": "address"
        },
        {
          "indexed": true,
          "name": "to",
          "type": "address"
        },
        {
          "indexed": false,
          "name": "data",
          "type": "bytes"
        }
      ],
      "name": "TransferData",
      "type": "event"
    },
    {
      "anonymous": false,
      "inputs": [
        {
          "indexed": true,
          "name": "to",
          "type": "address"
        },
        {
          "indexed": false,
          "name": "amount",
          "type": "uint256"
        }
      ],
      "name": "Mint",
      "type": "event"
    },
    {
      "anonymous": false,
      "inputs": [
        {
          "indexed": true,
          "name": "from",
          "type": "address"
        },
        {
          "indexed": false,
          "name": "amount",
          "type": "uint256"
        }
      ],
      "name": "Burn",
      "type": "event"
    },
    {
      "anonymous": false,
      "inputs": [
        {
          "indexed": true,
          "name": "owner",
          "type": "address"
        },
        {
          "indexed": true,
          "name": "spender",
          "type": "address"
        },
        {
          "indexed": false,
          "name": "value",
          "type": "uint256"
        }
      ],
      "name": "Approval",
      "type": "event"
    },
    {
      "anonymous": false,
      "inputs": [
        {
          "indexed": true,
          "name": "key",
          "type": "address"
        }
      ],
      "name": "AddressCacheInvalidated",
      "type": "event"
    },
    {
      "anonymous": false,
      "inputs": [
        {
          "indexed": true,
          "name": "key",
          "type": "bytes32"
        }
      ],
      "name": "Bytes32CacheInvalidated",
      "type": "event"
    },
    {
      "anonymous": false,
      "inputs": [
        {
          "indexed": true,
          "name": "key",
          "type": "uint256"
        }
      ],
      "name": "Uint256CacheInvalidated",
      "type": "event"
    }
  ],
  "bytecode": "0x6060604052341561000f57600080fd5b6040516080806117f68339810160405280805191906020018051919060200180519190602001805160008054600160a060020a03928316600160a060020a0319918216179091556001805492909516911617909255505060028290556004919091556005805460ff90921660ff19909216919091179055611761806100956000396000f30060606040526004361061012f5763ffffffff60e060020a60003504166306fdde038114610134578063095ea7b3146101595780631bd42f3e1461018f57806323b872dd146101b15780632535f762146101d95780632d883a731461023e578063313ce56714610276578063392f37e91461029f5780633d188fab1461032957806340c10f191461035057806345d61ded1461037257806349877038146103a15780635cc07505146103c0578063661884631461041157806370a08231146104335780639dc29fac14610452578063a9059cbb14610474578063b930908f14610496578063d73dd623146104a9578063dcb82f81146104cb578063dd62ed3e146104ed578063e1ba7d0114610512578063e9a9c85014610525578063ee532f3114610538578063fff139cf146105a4575b600080fd5b341561013f57600080fd5b6101476105b7565b60405190815260200160405180910390f35b341561016457600080fd5b61017b600160a060020a03600435166024356105bd565b604051901515815260200160405180910390f35b341561019a57600080fd5b61017b600160a060020a0360043516602435610629565b34156101bc57600080fd5b61017b600160a060020a036004358116906024351660443561077a565b34156101e457600080fd5b61017b60048035600160a060020a03169060248035919060649060443590810190830135806020601f8201819004810201604051908101604052818152929190602084018383808284375094965061098895505050505050565b341561024957600080fd5b610254600435610a55565b604051600160a060020a03909216825260208201526040908101905180910390f35b341561028157600080fd5b610289610abe565b60405160ff909116815260200160405180910390f35b34156102aa57600080fd5b6102b2610ac7565b60405160208082528190810183818151815260200191508051906020019080838360005b838110156102ee5780820151838201526020016102d6565b50505050905090810190601f16801561031b5780820380516001836020036101000a031916815260200191505b509250505060405180910390f35b341561033457600080fd5b61034e600160a060020a0360043516602435604435610b65565b005b341561035b57600080fd5b61017b600160a060020a0360043516602435610ba8565b341561037d57600080fd5b610385610d30565b604051600160a060020a03909116815260200160405180910390f35b34156103ac57600080fd5b610254600160a060020a0360043516610d3f565b34156103cb57600080fd5b61034e60046024813581810190830135806020601f82018190048102016040519081016040528181529291906020840183838082843750949650610d5c95505050505050565b341561041c57600080fd5b61017b600160a060020a0360043516602435610da7565b341561043e57600080fd5b610147600160a060020a0360043516610ea1565b341561045d57600080fd5b61017b600160a060020a0360043516602435610ebc565b341561047f57600080fd5b61017b600160a060020a0360043516602435610ff4565b34156104a157600080fd5b61014761117b565b34156104b457600080fd5b61017b600160a060020a036004351660243561119f565b34156104d657600080fd5b61017b600160a060020a0360043516602435611243565b34156104f857600080fd5b610147600160a060020a0360043581169060243516611385565b341561051d57600080fd5b6101476113b0565b341561053057600080fd5b6101476113b6565b341561054357600080fd5b61017b600160a060020a036004803582169160248035909116916044359160849060643590810190830135806020601f820181900481020160405190810160405281815292919060208401838380828437509496506113da95505050505050565b34156105af57600080fd5b6101476114a9565b60045481565b600160a060020a03338116600081815260086020908152604080832094871680845294909152808220859055909291907f8c5be1e5ebec7d5bd14f71427d1e84f3dd0314c0f7b2291e5b200ac8c7c3b9259085905190815260200160405180910390a350600192915050565b6000806000806000807f4255524e5f524f4c45000000000000000000000000000000000000000000000061065d33826114cd565b151561066857600080fd5b88955085600160a060020a031663e1ba7d016000604051602001526040518163ffffffff1660e060020a028152600401602060405180830381600087803b15156106b157600080fd5b6102c65a03f115156106c257600080fd5b5050506040518051955060009450505b8484101561076b5785600160a060020a0316632d883a738560006040516040015260405160e060020a63ffffffff841602815260048101919091526024016040805180830381600087803b151561072857600080fd5b6102c65a03f1151561073957600080fd5b50505060405180519060200180519194509092505081156107605761075e8389610ebc565b505b6001909301926106d2565b50600198975050505050505050565b6000600160a060020a038316151561079157600080fd5b600160a060020a0384166000908152600660205260409020548211156107b657600080fd5b600160a060020a03808516600090815260086020908152604080832033909416835292905220548211156107e957600080fd5b600160a060020a038316600090815260066020526040902060010154151561086f57600160a060020a038316600090815260066020526040902042600191820155600780549091810161083c8382611656565b506000918252602090912001805473ffffffffffffffffffffffffffffffffffffffff1916600160a060020a0385161790555b600160a060020a038416600090815260066020526040902054610898908363ffffffff61157416565b600160a060020a0380861660009081526006602052604080822093909355908516815220546108cd908363ffffffff61158616565b600160a060020a03808516600090815260066020908152604080832094909455878316825260088152838220339093168252919091522054610915908363ffffffff61157416565b600160a060020a03808616600081815260086020908152604080832033861684529091529081902093909355908516916000805160206117168339815191529085905190815260200160405180910390a361097284600080610b65565b61097e83600080610b65565b5060019392505050565b60006109948484610ff4565b151561099f57600080fd5b83600160a060020a031633600160a060020a03167f69cf42fddae119b7568ebaa1f70aac657fd6abd62d00c2ab4fcf81ff87935ab38460405160208082528190810183818151815260200191508051906020019080838360005b83811015610a115780820151838201526020016109f9565b50505050905090810190601f168015610a3e5780820380516001836020036101000a031916815260200191505b509250505060405180910390a35060019392505050565b600080600783815481101515610a6757fe5b600091825260208220015460078054600160a060020a0390921694506006929186908110610a9157fe5b6000918252602080832090910154600160a060020a03168352820192909252604001902054919391925050565b60055460ff1681565b60038054600181600116156101000203166002900480601f016020809104026020016040519081016040528092919081815260200182805460018160011615610100020316600290048015610b5d5780601f10610b3257610100808354040283529160200191610b5d565b820191906000526020600020905b815481529060010190602001808311610b4057829003601f168201915b505050505081565b82600160a060020a03167f2130e02bc65616aa7f8f548960f51a08a1d0ea94efb33611412208c2d0306a2260405160405180910390a2610ba3611595565b505050565b60007f4d494e545f524f4c450000000000000000000000000000000000000000000000610bd533826114cd565b1515610be057600080fd5b600160a060020a0384166000908152600660205260409020600101541515610c6657600160a060020a0384166000908152600660205260409020426001918201556007805490918101610c338382611656565b506000918252602090912001805473ffffffffffffffffffffffffffffffffffffffff1916600160a060020a0386161790555b600954610c79908463ffffffff61158616565b600955600160a060020a038416600090815260066020526040902054610ca5908463ffffffff61158616565b600160a060020a0385166000818152600660205260409081902092909255907f0f6798a560793a54c3bcfe86a93cde1e73087d944c0ea20544137d41213968859085905190815260200160405180910390a283600160a060020a031660006000805160206117168339815191528560405190815260200160405180910390a361097e84600080610b65565b600054600160a060020a031681565b600160a060020a0381166000908152600660205260409020549091565b7f5550444154455f4d455441444154415f524f4c45000000000000000000000000610d8733826114cd565b1515610d9257600080fd5b610d9b8261160d565b610da3611595565b5050565b600160a060020a03338116600090815260086020908152604080832093861683529290529081205480831115610e0457600160a060020a033381166000908152600860209081526040808320938816835292905290812055610e3b565b610e14818463ffffffff61157416565b600160a060020a033381166000908152600860209081526040808320938916835292905220555b600160a060020a0333811660008181526008602090815260408083209489168084529490915290819020547f8c5be1e5ebec7d5bd14f71427d1e84f3dd0314c0f7b2291e5b200ac8c7c3b925915190815260200160405180910390a35060019392505050565b600160a060020a031660009081526006602052604090205490565b60007f4255524e5f524f4c450000000000000000000000000000000000000000000000610ee933826114cd565b1515610ef457600080fd5b60008311610f0157600080fd5b600160a060020a038416600090815260066020526040902054831115610f2657600080fd5b600160a060020a038416600090815260066020526040902054610f4f908463ffffffff61157416565b600160a060020a038516600090815260066020526040902055600954610f7b908463ffffffff61157416565b600955600160a060020a0384167fcc16f5dbb4873280815c1ee09dbd06736cffcc184412cf7a71a0fdb75d397ca58460405190815260200160405180910390a2600084600160a060020a03166000805160206117168339815191528560405190815260200160405180910390a361097e84600080610b65565b6000600160a060020a038316151561100b57600080fd5b600160a060020a03331660009081526006602052604090205482111561103057600080fd5b600160a060020a03831660009081526006602052604090206001015415156110b657600160a060020a03831660009081526006602052604090204260019182015560078054909181016110838382611656565b506000918252602090912001805473ffffffffffffffffffffffffffffffffffffffff1916600160a060020a0385161790555b600160a060020a0333166000908152600660205260409020546110df908363ffffffff61157416565b600160a060020a033381166000908152600660205260408082209390935590851681522054611114908363ffffffff61158616565b600160a060020a0380851660008181526006602052604090819020939093559133909116906000805160206117168339815191529085905190815260200160405180910390a361116633600080610b65565b61117283600080610b65565b50600192915050565b7f4255524e5f524f4c45000000000000000000000000000000000000000000000081565b600160a060020a0333811660009081526008602090815260408083209386168352929052908120546111d7908363ffffffff61158616565b600160a060020a0333811660008181526008602090815260408083209489168084529490915290819020849055919290917f8c5be1e5ebec7d5bd14f71427d1e84f3dd0314c0f7b2291e5b200ac8c7c3b92591905190815260200160405180910390a350600192915050565b6000806000806000807f4d494e545f524f4c45000000000000000000000000000000000000000000000061127733826114cd565b151561128257600080fd5b88955085600160a060020a031663e1ba7d016000604051602001526040518163ffffffff1660e060020a028152600401602060405180830381600087803b15156112cb57600080fd5b6102c65a03f115156112dc57600080fd5b5050506040518051955060009450505b8484101561076b5785600160a060020a0316632d883a738560006040516040015260405160e060020a63ffffffff841602815260048101919091526024016040805180830381600087803b151561134257600080fd5b6102c65a03f1151561135357600080fd5b505050604051805190602001805191945090925050811561137a576113788389610ba8565b505b6001909301926112ec565b600160a060020a03918216600090815260086020908152604080832093909416825291909152205490565b60075490565b7f4d494e545f524f4c45000000000000000000000000000000000000000000000081565b60006113e785858561077a565b15156113f257600080fd5b83600160a060020a031685600160a060020a03167f69cf42fddae119b7568ebaa1f70aac657fd6abd62d00c2ab4fcf81ff87935ab38460405160208082528190810183818151815260200191508051906020019080838360005b8381101561146457808201518382015260200161144c565b50505050905090810190601f1680156114915780820380516001836020036101000a031916815260200191505b509250505060405180910390a3506001949350505050565b7f5550444154455f4d455441444154415f524f4c4500000000000000000000000081565b60008054600160a060020a0316158061156d575060008054600160a060020a031690636d6712d8908590309086906040516020015260405160e060020a63ffffffff8616028152600160a060020a0393841660048201529190921660248201526044810191909152606401602060405180830381600087803b151561155157600080fd5b6102c65a03f1151561156257600080fd5b505050604051805190505b9392505050565b60008282111561158057fe5b50900390565b60008282018381101561156d57fe5b600154600254600160a060020a0390911690633d188fab906000908160405160e060020a63ffffffff8616028152600160a060020a03909316600484015260248301919091526044820152606401600060405180830381600087803b15156115fc57600080fd5b6102c65a03f11515610ba357600080fd5b7f5550444154455f4d455441444154415f524f4c4500000000000000000000000061163833826114cd565b151561164357600080fd5b6003828051610ba392916020019061167a565b815481835581811511610ba357600083815260209020610ba39181019083016116f8565b828054600181600116156101000203166002900490600052602060002090601f016020900481019282601f106116bb57805160ff19168380011785556116e8565b828001600101855582156116e8579182015b828111156116e85782518255916020019190600101906116cd565b506116f49291506116f8565b5090565b61171291905b808211156116f457600081556001016116fe565b905600ddf252ad1be2c89b69c2b068fc378daa952ba7f163c4a11628f55a4df523b3efa165627a7a72305820240c3d0355669d4c0305962d59d3dec80df128549c382a781dd172e83c6ff5880029",
  "source": "pragma solidity ^0.4.17;\n\nimport \"zeppelin-solidity/contracts/math/SafeMath.sol\";\nimport \"./interfaces/IToken.sol\";\nimport \"../../authentication/RoleRegistry.sol\";\n\n\ncontract Token is IToken {\n  using SafeMath for uint256;\n\n  struct TokenAccount {\n    uint256 balance;\n    uint256 firstTransaction;\n  }\n\n  mapping(address => TokenAccount) balances;\n  address[] tokenHolders;\n  mapping (address => mapping (address => uint256)) internal allowed;\n  uint256 totalSupply;\n\n  function Token(\n    bytes32 _name,\n    uint8 _decimals,\n    address _registry,\n    address _gateKeeper\n  )\n    IToken(_name, _decimals,_registry,_gateKeeper)\n    public\n  {}\n\n  function getIndexLength() public view returns (uint length) {\n    length = tokenHolders.length;\n  }\n\n  function getByIndex(uint index) view public returns (address key, uint256 balance) {\n    key = tokenHolders[index];\n    balance = balances[tokenHolders[index]].balance;\n  }\n\n  function getByKey(address _key) view public returns (address key, uint256 balance) {\n    key = _key;\n    balance = balances[_key].balance;\n  }\n\n  function mint(address _to, uint256 _amount) auth(MINT_ROLE) public returns (bool success) {\n    if (balances[_to].firstTransaction == 0) {\n      balances[_to].firstTransaction = now;\n      tokenHolders.push(_to);\n    }\n    totalSupply = totalSupply.add(_amount);    \n    balances[_to].balance = balances[_to].balance.add(_amount);\n    Mint(_to, _amount);\n    Transfer(0x0, _to, _amount);\n    invalidateCache(_to, \"\", 0);\n    return true;\n  }\n\n  function mintToRoleRegistry(address _roleRegistryAddress, uint256 _amount) auth(MINT_ROLE) public  returns (bool success) {\n    RoleRegistry roleRegistry = RoleRegistry(_roleRegistryAddress);\n    uint256 numberOfUsers = roleRegistry.getIndexLength();\n    for (uint256 counter = 0; counter < numberOfUsers; counter++) {\n      address _holder;\n      bool _hasRole;\n      ( _holder,_hasRole ) = roleRegistry.getByIndex(counter);\n      if (_hasRole) {\n        mint(_holder, _amount);\n      }\n    }\n    return true;\n  }\n\n  function burn(address _from, uint256 _amount) auth(BURN_ROLE) public returns (bool success) {\n    require(_amount > 0);\n    require(_amount <= balances[_from].balance);\n    balances[_from].balance = balances[_from].balance.sub(_amount);\n    totalSupply = totalSupply.sub(_amount);\n    Burn(_from, _amount);\n    Transfer(_from, 0x0, _amount);\n    invalidateCache(_from, \"\", 0);\n    return true;\n  }\n\n  function burnFromRoleRegistry(address _roleRegistryAddress, uint256 _amount) auth(BURN_ROLE) public  returns (bool success) {\n    RoleRegistry roleRegistry = RoleRegistry(_roleRegistryAddress);\n    uint256 numberOfUsers = roleRegistry.getIndexLength();\n    for (uint256 counter = 0; counter < numberOfUsers; counter++) {\n      address _holder;\n      bool _hasRole;\n      ( _holder,_hasRole ) = roleRegistry.getByIndex(counter);\n      if (_hasRole) {\n        burn(_holder, _amount);\n      }\n    }\n    return true;\n  }\n\n  function transfer(address _to, uint256 _value) public returns (bool success) {\n    require(_to != address(0));\n    require(_value <= balances[msg.sender].balance);\n\n    if (balances[_to].firstTransaction == 0) {\n      balances[_to].firstTransaction = now;\n      tokenHolders.push(_to);\n    }\n\n    balances[msg.sender].balance = balances[msg.sender].balance.sub(_value);\n    balances[_to].balance = balances[_to].balance.add(_value);\n    Transfer(msg.sender, _to, _value);\n    invalidateCache(msg.sender, \"\", 0);\n    invalidateCache(_to, \"\", 0);\n    return true;\n  }\n\n  function transferWithData(address _to, uint256 _value, bytes _data) public returns (bool success) {\n    require(transfer(_to, _value));\n    TransferData(msg.sender, _to, _data);\n    return true;\n  }\n\n  function transferFrom (address _from, address _to, uint256 _value ) public returns (bool success) {\n    require(_to != address(0));\n    require(_value <= balances[_from].balance);\n    require(_value <= allowed[_from][msg.sender]);\n\n    if (balances[_to].firstTransaction == 0) {\n      balances[_to].firstTransaction = now;\n      tokenHolders.push(_to);\n    }\n\n    balances[_from].balance = balances[_from].balance.sub(_value);\n    balances[_to].balance = balances[_to].balance.add(_value);\n    allowed[_from][msg.sender] = allowed[_from][msg.sender].sub(_value);\n    Transfer(_from, _to, _value);\n    invalidateCache(_from, \"\", 0);\n    invalidateCache(_to, \"\", 0);\n    return true;\n  }\n\n  function transferFromWithData(\n    address _from,\n    address _to,\n    uint256 _value,\n    bytes _data\n  ) public returns (bool success)\n  {\n    require(transferFrom(_from, _to, _value));\n    TransferData(_from, _to, _data);\n    return true;\n  }\n\n  /**\n   * @dev Approve the passed address to spend the specified amount of tokens on behalf of msg.sender.\n   *\n   * Beware that changing an allowance with this method brings the risk that someone may use both the old\n   * and the new allowance by unfortunate transaction ordering. One possible solution to mitigate this\n   * race condition is to first reduce the spender's allowance to 0 and set the desired value afterwards:\n   * https://github.com/ethereum/EIPs/issues/20#issuecomment-263524729\n   * @param _spender The address which will spend the funds.\n   * @param _value The amount of tokens to be spent.\n   */\n  function approve(address _spender, uint256 _value) public returns (bool) {\n    allowed[msg.sender][_spender] = _value;\n    Approval(msg.sender, _spender, _value);\n    return true;\n  }\n\n  /**\n   * @dev Function to check the amount of tokens that an owner allowed to a spender.\n   * @param _owner address The address which owns the funds.\n   * @param _spender address The address which will spend the funds.\n   * @return A uint256 specifying the amount of tokens still available for the spender.\n   */\n  function allowance(address _owner, address _spender) public view returns (uint256 remaining) {\n    return allowed[_owner][_spender];\n  }\n\n  /**\n   * @dev approve should be called when allowed[_spender] == 0. To increment\n   * allowed value is better to use this function to avoid 2 calls (and wait until\n   * the first transaction is mined)\n   * From MonolithDAO Token.sol\n   */\n  function increaseApproval (address _spender, uint _addedValue) public returns (bool success) {\n    allowed[msg.sender][_spender] = allowed[msg.sender][_spender].add(_addedValue);\n    Approval(msg.sender, _spender, allowed[msg.sender][_spender]);\n    return true;\n  }\n\n  function decreaseApproval (address _spender, uint _subtractedValue) public returns (bool success) {\n    uint oldValue = allowed[msg.sender][_spender];\n    if (_subtractedValue > oldValue) {\n      allowed[msg.sender][_spender] = 0;\n    } else {\n      allowed[msg.sender][_spender] = oldValue.sub(_subtractedValue);\n    }\n    Approval(msg.sender, _spender, allowed[msg.sender][_spender]);\n    return true;\n  }\n\n  /**\n  * @dev Gets the balance of the specified address.\n  * @param _owner The address to query the the balance of.\n  * @return An uint256 representing the amount owned by the passed address.\n  */\n  function balanceOf(address _owner) public view returns (uint256 balance) {\n    return balances[_owner].balance;\n  }\n\n  function invalidateCache(address _cachedAddress, bytes32 _cachedBytes32, uint256 _cachedUint256) public {\n    AddressCacheInvalidated(_cachedAddress);\n    super.invalidateCache();\n  }\n\n  function updateMetaData(string ipfsHash) public auth(UPDATE_METADATA_ROLE) {\n    super.updateMetaData(ipfsHash);\n    super.invalidateCache();\n  }\n}\n",
  "sourcePath": "@settlemint/solidity-mint/contracts/marketplaces/tokensystem/Token.sol",
  "compiler": {
    "name": "solc",
    "version": "0.4.18+commit.9cf6e910.Emscripten.clang"
  },
  "schemaVersion": "1.0.1",
  "updatedAt": "2018-02-07T10:54:28.077Z"
}