{
  "contractName": "TokenCuratedRegistry",
  "abi": [
    {
      "constant": true,
      "inputs": [],
      "name": "WITHDRAW_FUNDS_ROLE",
      "outputs": [
        {
          "name": "",
          "type": "bytes32"
        }
      ],
      "payable": false,
      "stateMutability": "view",
      "type": "function"
    },
    {
      "constant": true,
      "inputs": [],
      "name": "CURATE_CHALLENGE_ROLE",
      "outputs": [
        {
          "name": "",
          "type": "bytes32"
        }
      ],
      "payable": false,
      "stateMutability": "view",
      "type": "function"
    },
    {
      "constant": true,
      "inputs": [],
      "name": "CHANGE_SETTINGS_ROLE",
      "outputs": [
        {
          "name": "",
          "type": "bytes32"
        }
      ],
      "payable": false,
      "stateMutability": "view",
      "type": "function"
    },
    {
      "constant": true,
      "inputs": [],
      "name": "gateKeeper",
      "outputs": [
        {
          "name": "",
          "type": "address"
        }
      ],
      "payable": false,
      "stateMutability": "view",
      "type": "function"
    },
    {
      "constant": true,
      "inputs": [
        {
          "name": "",
          "type": "address"
        }
      ],
      "name": "listings",
      "outputs": [
        {
          "name": "",
          "type": "address"
        }
      ],
      "payable": false,
      "stateMutability": "view",
      "type": "function"
    },
    {
      "constant": true,
      "inputs": [
        {
          "name": "",
          "type": "uint256"
        }
      ],
      "name": "challenges",
      "outputs": [
        {
          "name": "challenger",
          "type": "address"
        },
        {
          "name": "resolved",
          "type": "bool"
        },
        {
          "name": "stake",
          "type": "uint256"
        },
        {
          "name": "listing",
          "type": "address"
        }
      ],
      "payable": false,
      "stateMutability": "view",
      "type": "function"
    },
    {
      "constant": true,
      "inputs": [],
      "name": "token",
      "outputs": [
        {
          "name": "",
          "type": "address"
        }
      ],
      "payable": false,
      "stateMutability": "view",
      "type": "function"
    },
    {
      "constant": true,
      "inputs": [],
      "name": "listingFactory",
      "outputs": [
        {
          "name": "",
          "type": "address"
        }
      ],
      "payable": false,
      "stateMutability": "view",
      "type": "function"
    },
    {
      "inputs": [
        {
          "name": "_gateKeeper",
          "type": "address"
        },
        {
          "name": "_token",
          "type": "address"
        },
        {
          "name": "_listingFactory",
          "type": "address"
        },
        {
          "name": "_minEnlistAmount",
          "type": "uint256"
        },
        {
          "name": "_minChallengeAmount",
          "type": "uint256"
        },
        {
          "name": "_curatorPercentage",
          "type": "uint256"
        }
      ],
      "payable": false,
      "stateMutability": "nonpayable",
      "type": "constructor"
    },
    {
      "anonymous": false,
      "inputs": [
        {
          "indexed": false,
          "name": "listing",
          "type": "address"
        },
        {
          "indexed": false,
          "name": "stake",
          "type": "uint256"
        },
        {
          "indexed": false,
          "name": "price",
          "type": "uint256"
        }
      ],
      "name": "Enlisted",
      "type": "event"
    },
    {
      "anonymous": false,
      "inputs": [
        {
          "indexed": false,
          "name": "listing",
          "type": "address"
        },
        {
          "indexed": false,
          "name": "stake",
          "type": "uint256"
        },
        {
          "indexed": false,
          "name": "challengeID",
          "type": "uint256"
        }
      ],
      "name": "Challenged",
      "type": "event"
    },
    {
      "anonymous": false,
      "inputs": [
        {
          "indexed": false,
          "name": "listing",
          "type": "address"
        }
      ],
      "name": "Unlisted",
      "type": "event"
    },
    {
      "anonymous": false,
      "inputs": [
        {
          "indexed": false,
          "name": "listing",
          "type": "address"
        }
      ],
      "name": "ChallengeApproved",
      "type": "event"
    },
    {
      "anonymous": false,
      "inputs": [
        {
          "indexed": false,
          "name": "listing",
          "type": "address"
        }
      ],
      "name": "ChallengeDenied",
      "type": "event"
    },
    {
      "anonymous": false,
      "inputs": [
        {
          "indexed": false,
          "name": "listing",
          "type": "address"
        },
        {
          "indexed": false,
          "name": "increasedBy",
          "type": "uint256"
        },
        {
          "indexed": false,
          "name": "newStake",
          "type": "uint256"
        }
      ],
      "name": "Increased",
      "type": "event"
    },
    {
      "anonymous": false,
      "inputs": [
        {
          "indexed": false,
          "name": "listing",
          "type": "address"
        },
        {
          "indexed": false,
          "name": "decreasedBy",
          "type": "uint256"
        },
        {
          "indexed": false,
          "name": "newStake",
          "type": "uint256"
        }
      ],
      "name": "Decreased",
      "type": "event"
    },
    {
      "anonymous": false,
      "inputs": [
        {
          "indexed": false,
          "name": "by",
          "type": "address"
        },
        {
          "indexed": false,
          "name": "balance",
          "type": "uint256"
        }
      ],
      "name": "Withdrawn",
      "type": "event"
    },
    {
      "anonymous": false,
      "inputs": [
        {
          "indexed": false,
          "name": "value",
          "type": "uint256"
        }
      ],
      "name": "MinEnlistAmountChanged",
      "type": "event"
    },
    {
      "anonymous": false,
      "inputs": [
        {
          "indexed": false,
          "name": "value",
          "type": "uint256"
        }
      ],
      "name": "MinChallengeAmountChanged",
      "type": "event"
    },
    {
      "anonymous": false,
      "inputs": [
        {
          "indexed": false,
          "name": "value",
          "type": "uint256"
        }
      ],
      "name": "CuratorPercentageChanged",
      "type": "event"
    },
    {
      "anonymous": false,
      "inputs": [
        {
          "indexed": true,
          "name": "key",
          "type": "address"
        }
      ],
      "name": "AddressCacheInvalidated",
      "type": "event"
    },
    {
      "anonymous": false,
      "inputs": [
        {
          "indexed": true,
          "name": "key",
          "type": "bytes32"
        }
      ],
      "name": "Bytes32CacheInvalidated",
      "type": "event"
    },
    {
      "anonymous": false,
      "inputs": [
        {
          "indexed": true,
          "name": "key",
          "type": "uint256"
        }
      ],
      "name": "Uint256CacheInvalidated",
      "type": "event"
    },
    {
      "constant": false,
      "inputs": [
        {
          "name": "_stakeAmount",
          "type": "uint256"
        },
        {
          "name": "_price",
          "type": "uint256"
        },
        {
          "name": "_metadata",
          "type": "string"
        }
      ],
      "name": "enlist",
      "outputs": [],
      "payable": false,
      "stateMutability": "nonpayable",
      "type": "function"
    },
    {
      "constant": false,
      "inputs": [
        {
          "name": "_listing",
          "type": "address"
        }
      ],
      "name": "addListing",
      "outputs": [],
      "payable": false,
      "stateMutability": "nonpayable",
      "type": "function"
    },
    {
      "constant": false,
      "inputs": [
        {
          "name": "_listing",
          "type": "address"
        }
      ],
      "name": "unlist",
      "outputs": [],
      "payable": false,
      "stateMutability": "nonpayable",
      "type": "function"
    },
    {
      "constant": false,
      "inputs": [
        {
          "name": "_listing",
          "type": "address"
        },
        {
          "name": "_stakeAmount",
          "type": "uint256"
        }
      ],
      "name": "increase",
      "outputs": [],
      "payable": false,
      "stateMutability": "nonpayable",
      "type": "function"
    },
    {
      "constant": false,
      "inputs": [
        {
          "name": "_listing",
          "type": "address"
        },
        {
          "name": "_stakeAmount",
          "type": "uint256"
        }
      ],
      "name": "decrease",
      "outputs": [],
      "payable": false,
      "stateMutability": "nonpayable",
      "type": "function"
    },
    {
      "constant": false,
      "inputs": [
        {
          "name": "_listing",
          "type": "address"
        },
        {
          "name": "_stakeAmount",
          "type": "uint256"
        }
      ],
      "name": "challenge",
      "outputs": [],
      "payable": false,
      "stateMutability": "nonpayable",
      "type": "function"
    },
    {
      "constant": false,
      "inputs": [
        {
          "name": "_listing",
          "type": "address"
        }
      ],
      "name": "approveChallenge",
      "outputs": [],
      "payable": false,
      "stateMutability": "nonpayable",
      "type": "function"
    },
    {
      "constant": false,
      "inputs": [
        {
          "name": "_listing",
          "type": "address"
        }
      ],
      "name": "denyChallenge",
      "outputs": [],
      "payable": false,
      "stateMutability": "nonpayable",
      "type": "function"
    },
    {
      "constant": false,
      "inputs": [],
      "name": "withdraw",
      "outputs": [],
      "payable": false,
      "stateMutability": "nonpayable",
      "type": "function"
    },
    {
      "constant": false,
      "inputs": [
        {
          "name": "_minEnlistAmount",
          "type": "uint256"
        }
      ],
      "name": "setMinEnlistAmount",
      "outputs": [],
      "payable": false,
      "stateMutability": "nonpayable",
      "type": "function"
    },
    {
      "constant": false,
      "inputs": [
        {
          "name": "_minChallengeAmount",
          "type": "uint256"
        }
      ],
      "name": "setMinChallengeAmount",
      "outputs": [],
      "payable": false,
      "stateMutability": "nonpayable",
      "type": "function"
    },
    {
      "constant": false,
      "inputs": [
        {
          "name": "_curatorPercentage",
          "type": "uint256"
        }
      ],
      "name": "setCuratorPercentage",
      "outputs": [],
      "payable": false,
      "stateMutability": "nonpayable",
      "type": "function"
    },
    {
      "constant": false,
      "inputs": [
        {
          "name": "_cachedAddress",
          "type": "address"
        },
        {
          "name": "",
          "type": "bytes32"
        },
        {
          "name": "",
          "type": "uint256"
        }
      ],
      "name": "invalidateCache",
      "outputs": [],
      "payable": false,
      "stateMutability": "nonpayable",
      "type": "function"
    },
    {
      "constant": true,
      "inputs": [],
      "name": "getIndexLength",
      "outputs": [
        {
          "name": "length",
          "type": "uint256"
        }
      ],
      "payable": false,
      "stateMutability": "view",
      "type": "function"
    },
    {
      "constant": true,
      "inputs": [
        {
          "name": "index",
          "type": "uint256"
        }
      ],
      "name": "getByIndex",
      "outputs": [
        {
          "name": "key",
          "type": "address"
        },
        {
          "name": "contractAddress",
          "type": "address"
        }
      ],
      "payable": false,
      "stateMutability": "view",
      "type": "function"
    },
    {
      "constant": true,
      "inputs": [
        {
          "name": "_key",
          "type": "address"
        }
      ],
      "name": "getByKey",
      "outputs": [
        {
          "name": "key",
          "type": "address"
        },
        {
          "name": "contractAddress",
          "type": "address"
        }
      ],
      "payable": false,
      "stateMutability": "view",
      "type": "function"
    }
  ],
  "bytecode": "0x60606040526001600755600060085560006009556000600a55341561002357600080fd5b60405160c080611e4f83398101604052808051919060200180519190602001805191906020018051919060200180519190602001805160008054600160a060020a0319908116600160a060020a039a8b1690811783556004805483169a8c169a909a1790995560058054821698909a16979097179098556008949094555050600955600a55600680549091169091179055611d8b9081906100c490396000f3006060604052600436106101245763ffffffff60e060020a6000350416631cbcd9748114610129578063236b237c1461014e5780632d883a731461017657806332a65198146101b05780633426ddd5146101c3578063346fa921146101d65780633ccfd60b146101ec5780633d188fab146101ff57806345d61ded146102245780634987703814610253578063522afaec1461027257806359d5da891461029457806365d96c82146102b357806383b7113e146102d25780638f1d3776146102e857806392f60b961461033257806399b6c1c614610351578063acb9982814610370578063bde3672d14610392578063de29ee68146103b1578063e1ba7d01146103c7578063f27ac4d9146103da578063fc0c546a146103fc578063fe8cde341461040f575b600080fd5b341561013457600080fd5b61013c610422565b60405190815260200160405180910390f35b341561015957600080fd5b61017460048035906024803591604435918201910135610446565b005b341561018157600080fd5b61018c600435610583565b604051600160a060020a039283168152911660208201526040908101905180910390f35b34156101bb57600080fd5b61013c6105bb565b34156101ce57600080fd5b61013c6105df565b34156101e157600080fd5b6101746004356105f1565b34156101f757600080fd5b610174610651565b341561020a57600080fd5b610174600160a060020a036004351660243560443561074a565b341561022f57600080fd5b610237610785565b604051600160a060020a03909116815260200160405180910390f35b341561025e57600080fd5b61018c600160a060020a0360043516610794565b341561027d57600080fd5b610174600160a060020a03600435166024356107b4565b341561029f57600080fd5b610174600160a060020a0360043516610a28565b34156102be57600080fd5b610237600160a060020a0360043516610bb4565b34156102dd57600080fd5b610174600435610bcf565b34156102f357600080fd5b6102fe600435610c2f565b604051600160a060020a03948516815292151560208401526040808401929092529092166060820152608001905180910390f35b341561033d57600080fd5b610174600160a060020a0360043516610c78565b341561035c57600080fd5b610174600160a060020a03600435166111f4565b341561037b57600080fd5b610174600160a060020a036004351660243561122a565b341561039d57600080fd5b610174600160a060020a03600435166115bb565b34156103bc57600080fd5b6101746004356118b9565b34156103d257600080fd5b61013c611919565b34156103e557600080fd5b610174600160a060020a036004351660243561191f565b341561040757600080fd5b610237611bb1565b341561041a57600080fd5b610237611bc0565b7f57495448445241575f46554e44535f524f4c450000000000000000000000000081565b60085484101561045557600080fd5b600454600160a060020a03166323b872dd33308760405160e060020a63ffffffff8616028152600160a060020a0393841660048201529190921660248201526044810191909152606401602060405180830381600087803b15156104b857600080fd5b5af115156104c557600080fd5b5050506040518051905015156104da57600080fd5b600554600160a060020a03166335012d7e33858730878760405160e060020a63ffffffff8916028152600160a060020a03808816600483019081526024830188905260448301879052908516606483015260a06084830190815260a48301849052909160c4018484808284378201915050975050505050505050600060405180830381600087803b151561056d57600080fd5b5af1151561057a57600080fd5b50505050505050565b6000806105b260028481548110151561059857fe5b600091825260209091200154600160a060020a0316610794565b91509150915091565b7f4355524154455f4348414c4c454e47455f524f4c45000000000000000000000081565b600080516020611d4083398151915281565b600080516020611d4083398151915261060a3382611bcf565b151561061557600080fd5b600a8290557fea6c6084ca0283f30c459faead18d4a32783096c26aa5847e96e1eeec97edce88260405190815260200160405180910390a15050565b60007f57495448445241575f46554e44535f524f4c450000000000000000000000000061067e3382611bcf565b151561068957600080fd5b600454600160a060020a033081168031945091169063a9059cbb9033903160405160e060020a63ffffffff8516028152600160a060020a0390921660048301526024820152604401602060405180830381600087803b15156106ea57600080fd5b5af115156106f757600080fd5b50505060405180519050507f7084f5476618d8e60b11ef0d7d3f06914655adb8793e28ff7f018d4c76d505d53383604051600160a060020a03909216825260208201526040908101905180910390a15050565b82600160a060020a03167f2130e02bc65616aa7f8f548960f51a08a1d0ea94efb33611412208c2d0306a2260405160405180910390a2505050565b600054600160a060020a031681565b600160a060020a0390811660009081526001602052604090205416908190565b600160a060020a0380831660009081526001602052604090819020548216913316908290638da5cb5b90518163ffffffff1660e060020a028152600401602060405180830381600087803b151561080a57600080fd5b5af1151561081757600080fd5b50505060405180519050600160a060020a031614151561083657600080fd5b600454600160a060020a03166323b872dd33308560405160e060020a63ffffffff8616028152600160a060020a0393841660048201529190921660248201526044810191909152606401602060405180830381600087803b151561089957600080fd5b5af115156108a657600080fd5b5050506040518051905015156108bb57600080fd5b600160a060020a0381166335d9db536109258483633a4b66f16040518163ffffffff1660e060020a028152600401602060405180830381600087803b151561090257600080fd5b5af1151561090f57600080fd5b505050604051805191905063ffffffff611c6516565b60405160e060020a63ffffffff84160281526004810191909152602401600060405180830381600087803b151561095b57600080fd5b5af1151561096857600080fd5b5050507f8b05844824acf2db2f068e4006ef99b307ca4fe1a896d06e884700f1a9da3a6d838383600160a060020a0316633a4b66f16040518163ffffffff1660e060020a028152600401602060405180830381600087803b15156109cb57600080fd5b5af115156109d857600080fd5b505050604051805190506040518084600160a060020a0316600160a060020a03168152602001838152602001828152602001935050505060405180910390a1610a238360008061074a565b505050565b600160a060020a0381166000818152600160208190526040909120805473ffffffffffffffffffffffffffffffffffffffff19169092179091556002805483928101610a748382611cd3565b506000918252602090912001805473ffffffffffffffffffffffffffffffffffffffff1916600160a060020a03848116919091179091557f7583fed51a2ab4e582c68d93e281e0fcc2601ef4a7491d1d2d2dc511f6a912799083908316633a4b66f16040518163ffffffff1660e060020a028152600401602060405180830381600087803b1515610b0457600080fd5b5af11515610b1157600080fd5b5050506040518051905083600160a060020a031663a035b1fe6040518163ffffffff1660e060020a028152600401602060405180830381600087803b1515610b5857600080fd5b5af11515610b6557600080fd5b505050604051805190506040518084600160a060020a0316600160a060020a03168152602001838152602001828152602001935050505060405180910390a1610bb08260008061074a565b5050565b600160205260009081526040902054600160a060020a031681565b600080516020611d40833981519152610be83382611bcf565b1515610bf357600080fd5b60088290557f1e2fffeb4ad73c19aa71037a187b8cb1a45220f05d6cce7c2801c106de268a8a8260405190815260200160405180910390a15050565b600360205260009081526040902080546001820154600290920154600160a060020a03808316937401000000000000000000000000000000000000000090930460ff1692911684565b600080600080610c86611cf7565b60007f4355524154455f4348414c4c454e47455f524f4c450000000000000000000000610cb33382611bcf565b1515610cbe57600080fd5b600160a060020a0380891660009081526001602052604090819020549091169750879063605cba8290518163ffffffff1660e060020a028152600401602060405180830381600087803b1515610d1357600080fd5b5af11515610d2057600080fd5b5050506040518051600a54909750610d519150610d4490606463ffffffff611c7f16565b879063ffffffff611c9616565b600454909550600160a060020a031663a9059cbb338760405160e060020a63ffffffff8516028152600160a060020a0390921660048301526024820152604401602060405180830381600087803b1515610daa57600080fd5b5af11515610db757600080fd5b50505060405180515060009450505b86600160a060020a03166333a2cc016040518163ffffffff1660e060020a028152600401602060405180830381600087803b1515610e0357600080fd5b5af11515610e1057600080fd5b50505060405180519050841015611045576003600088600160a060020a031663c32e11028760405160e060020a63ffffffff84160281526004810191909152602401602060405180830381600087803b1515610e6b57600080fd5b5af11515610e7857600080fd5b505050604051805190508152602001908152602001600020608060405190810160409081528254600160a060020a0380821684527401000000000000000000000000000000000000000090910460ff161515602084015260018401549183019190915260029092015490911660608201529250610ef58686611cc1565b600454909250600160a060020a031663a9059cbb8451610f30610f238a88604001519063ffffffff611c7f16565b869063ffffffff611c9616565b60405160e060020a63ffffffff8516028152600160a060020a0390921660048301526024820152604401602060405180830381600087803b1515610f7357600080fd5b5af11515610f8057600080fd5b505050604051805190505060016003600089600160a060020a031663c32e11028860405160e060020a63ffffffff84160281526004810191909152602401602060405180830381600087803b1515610fd757600080fd5b5af11515610fe457600080fd5b505050604051805182525060208101919091526040016000208054911515740100000000000000000000000000000000000000000274ff00000000000000000000000000000000000000001990921691909117905560019390930192610dc6565b86600160a060020a03166335d9db53600060405160e060020a63ffffffff84160281526004810191909152602401600060405180830381600087803b151561108c57600080fd5b5af1151561109957600080fd5b50505086600160a060020a0316636de149f5600060405160e060020a63ffffffff84160281526004810191909152602401600060405180830381600087803b15156110e357600080fd5b5af115156110f057600080fd5b50505086600160a060020a03166331ec7fce600060405160e060020a63ffffffff84160281526004810191909152602401600060405180830381600087803b151561113a57600080fd5b5af1151561114757600080fd5b50505086600160a060020a0316637b789204600060405160e060020a63ffffffff84160281529015156004820152602401600060405180830381600087803b151561119157600080fd5b5af1151561119e57600080fd5b5050507f9d9f99a36ef64966814c1f89a7a64fcb0132cbd085184a9666469302f32b92c488604051600160a060020a03909116815260200160405180910390a16111ea8860008061074a565b5050505050505050565b7f4355524154455f4348414c4c454e47455f524f4c45000000000000000000000061121f3382611bcf565b1515610bb057600080fd5b6000611234611cf7565b60095483101561124357600080fd5b600160a060020a0380851660009081526001602052604090819020546004549083169450909116906323b872dd903390309087905160e060020a63ffffffff8616028152600160a060020a0393841660048201529190921660248201526044810191909152606401602060405180830381600087803b15156112c457600080fd5b5af115156112d157600080fd5b5050506040518051905015156112e657600080fd5b60806040519081016040908152600160a060020a033381168352600060208085018290528385018890529188166060850152600754815260039091522090915081908151815473ffffffffffffffffffffffffffffffffffffffff1916600160a060020a039190911617815560208201518154901515740100000000000000000000000000000000000000000274ff000000000000000000000000000000000000000019909116178155604082015181600101556060820151600291909101805473ffffffffffffffffffffffffffffffffffffffff1916600160a060020a03928316179055831690506331ec7fce816309af4fe66040518163ffffffff1660e060020a028152600401602060405180830381600087803b151561140957600080fd5b5af1151561141657600080fd5b5050506040518051905060010160405160e060020a63ffffffff84160281526004810191909152602401600060405180830381600087803b151561145957600080fd5b5af1151561146657600080fd5b50505081600160a060020a03166332fd144160075460405160e060020a63ffffffff84160281526004810191909152602401600060405180830381600087803b15156114b157600080fd5b5af115156114be57600080fd5b505050600160a060020a038216636de149f5611508858363605cba826040518163ffffffff1660e060020a028152600401602060405180830381600087803b151561090257600080fd5b60405160e060020a63ffffffff84160281526004810191909152602401600060405180830381600087803b151561153e57600080fd5b5af1151561154b57600080fd5b5050507fe0c6c1f959ea19af04f1a1862f00c826f9aab9ca9ed5fe3798051f78560bee3a84846007546040518084600160a060020a0316600160a060020a03168152602001838152602001828152602001935050505060405180910390a16115b58460008061074a565b50505050565b600160a060020a038082166000908152600160205260409081902054909116908190638da5cb5b90518163ffffffff1660e060020a028152600401602060405180830381600087803b151561160f57600080fd5b5af1151561161c57600080fd5b50505060405180519050600160a060020a031633600160a060020a031614151561164557600080fd5b80600160a060020a03166309af4fe66040518163ffffffff1660e060020a028152600401602060405180830381600087803b151561168257600080fd5b5af1151561168f57600080fd5b50505060405180511590506116a357600080fd5b600081600160a060020a0316633a4b66f16040518163ffffffff1660e060020a028152600401602060405180830381600087803b15156116e257600080fd5b5af115156116ef57600080fd5b50505060405180519050111561181957600454600160a060020a039081169063a9059cbb908316638da5cb5b6040518163ffffffff1660e060020a028152600401602060405180830381600087803b151561174957600080fd5b5af1151561175657600080fd5b5050506040518051905083600160a060020a0316633a4b66f16040518163ffffffff1660e060020a028152600401602060405180830381600087803b151561179d57600080fd5b5af115156117aa57600080fd5b5050506040518051905060405160e060020a63ffffffff8516028152600160a060020a0390921660048301526024820152604401602060405180830381600087803b15156117f757600080fd5b5af1151561180457600080fd5b50505060405180519050151561181957600080fd5b80600160a060020a0316637b789204600060405160e060020a63ffffffff84160281529015156004820152602401600060405180830381600087803b151561186057600080fd5b5af1151561186d57600080fd5b5050507fc48322c2e165c864176005884983dd81c87a9fc8258ca6a1967d17b26cd8d0e382604051600160a060020a03909116815260200160405180910390a1610bb08260008061074a565b600080516020611d408339815191526118d23382611bcf565b15156118dd57600080fd5b60098290557fec0975e9a985b0702fafca3ee144a642dfe5c48de1b5e1c934e0e4131ce5fcbe8260405190815260200160405180910390a15050565b60025490565b600160a060020a0380831660009081526001602052604080822054909216918290633a4b66f190518163ffffffff1660e060020a028152600401602060405180830381600087803b151561197257600080fd5b5af1151561197f57600080fd5b50505060405180519050905033600160a060020a031682600160a060020a0316638da5cb5b6040518163ffffffff1660e060020a028152600401602060405180830381600087803b15156119d257600080fd5b5af115156119df57600080fd5b50505060405180519050600160a060020a03161415156119fe57600080fd5b80831115611a0b57600080fd5b6008548382031015611a1c57600080fd5b600454600160a060020a031663a9059cbb338560405160e060020a63ffffffff8516028152600160a060020a0390921660048301526024820152604401602060405180830381600087803b1515611a7257600080fd5b5af11515611a7f57600080fd5b505050604051805190501515611a9457600080fd5b600160a060020a0382166335d9db53611ab3838663ffffffff611cc116565b60405160e060020a63ffffffff84160281526004810191909152602401600060405180830381600087803b1515611ae957600080fd5b5af11515611af657600080fd5b5050507f5ee9537083cb767f9e599a17876a9c597197deba435082e0b88c4da925d4599e848484600160a060020a0316633a4b66f16040518163ffffffff1660e060020a028152600401602060405180830381600087803b1515611b5957600080fd5b5af11515611b6657600080fd5b505050604051805190506040518084600160a060020a0316600160a060020a03168152602001838152602001828152602001935050505060405180910390a16115b58460008061074a565b600454600160a060020a031681565b600554600160a060020a031681565b60008054600160a060020a03161580611c5e5750600054600160a060020a0316636d6712d884308560405160e060020a63ffffffff8616028152600160a060020a0393841660048201529190921660248201526044810191909152606401602060405180830381600087803b1515611c4657600080fd5b5af11515611c5357600080fd5b505050604051805190505b9392505050565b600082820183811015611c7457fe5b8091505b5092915050565b6000808284811515611c8d57fe5b04949350505050565b600080831515611ca95760009150611c78565b50828202828482811515611cb957fe5b0414611c7457fe5b600082821115611ccd57fe5b50900390565b815481835581811511610a2357600083815260209020610a23918101908301611d1e565b60806040519081016040908152600080835260208301819052908201819052606082015290565b611d3c91905b80821115611d385760008155600101611d24565b5090565b9056004348414e47455f53455454494e47535f524f4c45000000000000000000000000a165627a7a72305820e313fec09a9d85bdde9c01b60b9210da2dba8e7e7ea64d6b7f676f409aab55b80029",
  "source": "pragma solidity ^0.4.20;\n\nimport \"./interfaces/IListing.sol\";\nimport \"./interfaces/IListingFactory.sol\";\nimport \"../tokensystem/interfaces/IToken.sol\";\nimport \"../../authentication/Secured.sol\";\nimport \"../../utility/syncing/Syncable.sol\";\nimport \"../../utility/caching/Cacher.sol\";\nimport \"../../utility/metadata/MetaDataContainer.sol\";\nimport \"zeppelin-solidity/contracts/math/SafeMath.sol\";\n\n\ncontract TokenCuratedRegistry is Secured, Syncable, Cacher {\n  using SafeMath for uint256;\n\n  bytes32 constant public WITHDRAW_FUNDS_ROLE = \"WITHDRAW_FUNDS_ROLE\";\n  bytes32 constant public CURATE_CHALLENGE_ROLE = \"CURATE_CHALLENGE_ROLE\";\n  bytes32 constant public CHANGE_SETTINGS_ROLE = \"CHANGE_SETTINGS_ROLE\";\n\n  // ------\n  // EVENTS\n  // ------\n\n  event Enlisted(address listing, uint stake, uint price);\n  event Challenged(address listing, uint stake, uint challengeID);\n  event Unlisted(address listing);\n  event ChallengeApproved(address listing);\n  event ChallengeDenied(address listing);\n  event Increased(address listing, uint increasedBy, uint newStake);\n  event Decreased(address listing, uint decreasedBy, uint newStake);\n  event Withdrawn(address by, uint balance);\n  event MinEnlistAmountChanged(uint value);\n  event MinChallengeAmountChanged(uint value);\n  event CuratorPercentageChanged(uint value);\n\n  struct Challenge {\n    address challenger;     // Owner of Challenge\n    bool resolved;          // Indication of if challenge is resolved\n    uint stake;             // Number of tokens at risk for either party during challenge\n    address listing;        // Listing this challenge was added to\n  }\n\n  // Maps listingHashes to associated listing data\n  mapping(address => IListing) public listings;\n  address[] listingsIndex;\n\n  // Maps challenges to associated challenge data\n  mapping(uint => Challenge) public challenges;\n\n  // Global Variables\n  IToken public token;\n  IListingFactory public listingFactory;\n  address gateKeeper;\n  uint challengeID = 1; // Keep track of challenges\n  // Settings\n  uint minEnlistAmount = 0;\n  uint minChallengeAmount = 0;\n  uint curatorPercentage = 0;\n\n  /**\n  @dev Contructor\n  @notice                Sets the address for token\n  @param _gateKeeper     Address of the gatekeeper\n  @param _token          Address of the token\n  */\n  function TokenCuratedRegistry(\n    address _gateKeeper,\n    address _token,\n    address _listingFactory,\n    uint _minEnlistAmount,\n    uint _minChallengeAmount,\n    uint _curatorPercentage\n  )\n    Secured(_gateKeeper)\n    public\n  {\n    token = IToken(_token);\n    listingFactory = IListingFactory(_listingFactory);\n\n    minEnlistAmount = _minEnlistAmount;\n    minChallengeAmount = _minChallengeAmount;\n    curatorPercentage = _curatorPercentage;\n    gateKeeper = _gateKeeper;\n  }\n\n  /**\n  @notice                 Allows a seller to list data to be available for selling.\n  @notice                 Takes tokens from user.\n  @param _stakeAmount     The number of ERC20 tokens a user is willing to potentially stake\n  @param _price           Price of the listing\n  @param _metadata        Metadata\n  */\n  function enlist(uint _stakeAmount, uint _price, string _metadata) external {\n    // Stake must be above a certain amount\n    require(_stakeAmount >= minEnlistAmount);\n\n    // Transfers tokens from user to Registry contract\n    require(token.transferFrom(msg.sender, this, _stakeAmount));\n\n    // Add listing to listings\n    listingFactory.createListing(\n      msg.sender,\n      _price,\n      _stakeAmount,\n      this,\n      _metadata\n    );\n  }\n\n  /**\n  @notice                 Listing is added through the factory\n  @param _listing         Address of the added listing\n  */\n  function addListing(address _listing) public {\n    IListing listing = IListing(_listing);\n\n    // Add to mapping\n    listings[_listing] = listing;\n    listingsIndex.push(_listing);\n\n    // Event\n    emit Enlisted(_listing, listing.stake(), listing.price());\n    invalidateCache(_listing, \"\", 0);\n  }\n\n  /**\n  @notice             Allows the owner of a listing to remove the listing from the whitelist\n  @notice             Returns all tokens to the owner of the listing\n  @param _listing     The listing of a user's listing\n  */\n  function unlist(address _listing) public {\n    IListing listing = listings[_listing];\n    require(msg.sender == listing.owner());\n\n    // Cannot exit during ongoing challenge\n    require(listing.challenges() == 0);\n\n    // Transfers any remaining balance back to the owner\n    if (listing.stake() > 0)\n      require(token.transfer(listing.owner(), listing.stake()));\n\n    // Blacklist\n    listing.setWhitelisted(false);\n\n    // Event\n    emit Unlisted(_listing);\n    invalidateCache(_listing, \"\", 0);\n  }\n\n  /**\n  @notice             Allows the owner of a listing to increase their unstaked deposit.\n  @param _listing     The listing of a user's application/listing\n  @param _stakeAmount The number of ERC20 tokens to increase a user's unstaked deposit\n  */\n  function increase(address _listing, uint _stakeAmount) public {\n    IListing listing = listings[_listing];\n\n    require(listing.owner() == msg.sender);\n    require(token.transferFrom(msg.sender, this, _stakeAmount));\n\n    listing.setStake(listing.stake().add(_stakeAmount));\n\n    // Event\n    emit Increased(_listing, _stakeAmount, listing.stake());\n    invalidateCache(_listing, \"\", 0);\n  }\n\n  /**\n  @notice             Allows the owner of a listing to decrease their unstaked deposit.\n  @notice             The listing keeps its previous status.\n  @param _listing     The listing of a user's application/listing\n  @param _stakeAmount The number of ERC20 tokens to decrease a user's unstaked deposit\n  */\n  function decrease(address _listing, uint _stakeAmount) public {\n    IListing listing = listings[_listing];\n\n    uint stake = listing.stake();\n\n    require(listing.owner() == msg.sender);\n    require(_stakeAmount <= stake);\n    require(stake - _stakeAmount >= minEnlistAmount);\n\n    require(token.transfer(msg.sender, _stakeAmount));\n\n    listing.setStake(stake.sub(_stakeAmount));\n\n    // Event\n    emit Decreased(_listing, _stakeAmount, listing.stake());\n    invalidateCache(_listing, \"\", 0);\n  }\n\n  /**\n  @notice             Starts a challenge for a listing.\n  @dev                Tokens are taken from the challenger and the data seller's deposit is locked.\n  @param _listing     The listing of data.\n  @param _stakeAmount The amount the challenger wants to stake.\n  */\n  function challenge(address _listing, uint _stakeAmount) public {\n    require(_stakeAmount >= minChallengeAmount);\n\n    IListing listing = listings[_listing];\n\n    // Takes tokens from challenger\n    require(token.transferFrom(msg.sender, this, _stakeAmount));\n\n    // Add challenge to the challenges mapping\n    Challenge memory _challenge = Challenge({\n      challenger: msg.sender,\n      stake: _stakeAmount,\n      resolved: false,\n      listing: _listing\n    });\n    challenges[challengeID] = _challenge;\n\n    // Increase the number of challenges on the right listing\n    listing.setChallenges(listing.challenges() + 1);\n    // Add challengeID to listing\n    listing.addChallengeID(challengeID);\n    // Add to the challengesStake on a listing\n    listing.setChallengesStake(listing.challengesStake().add(_stakeAmount));\n\n    // Event\n    emit Challenged(_listing, _stakeAmount, challengeID);\n    invalidateCache(_listing, \"\", 0);\n  }\n\n   /**\n  @notice             Marks a challenge as resolved.\n  @notice             Rewards the winner tokens and either whitelists or de-whitelists the listing.\n  @param _listing     A listing with a challenge that is to be resolved\n  */\n  function approveChallenge(address _listing) auth(CURATE_CHALLENGE_ROLE) public {\n    IListing listing = listings[_listing];\n\n    uint challengesStake = listing.challengesStake();\n\n    // Curator (msg.sender) should get 10% of the total sum of all challenge stakes + lising stake\n    uint curatorShare = challengesStake.mul((curatorPercentage.div(100)));\n    token.transfer(msg.sender, curatorShare);\n\n    // Challengers should get a percentage of the total sum of all challenge stakes + lising stake\n    // equal to their share of the total challenge stake\n    // Get all challenges that are unresolved and are linked to this listing,\n    for (uint i = 0; i < listing.getChallengeIDsLength(); i ++) {\n      Challenge memory _challenge = challenges[listing.getChallengeIDAtIndex(i)];\n\n      // Calculate what's left to divide between the challengers\n      uint challengerShare = challengesStake.sub(curatorShare);\n      // Transfer percentage of challenge\n      token.transfer(_challenge.challenger, challengerShare.mul(_challenge.stake.div(challengesStake)));\n      // Set challenge as resolved\n      challenges[listing.getChallengeIDAtIndex(i)].resolved = true;\n    }\n\n    // Take stake from listing\n    listing.setStake(0);\n    listing.setChallengesStake(0);\n    listing.setChallenges(0);\n\n    // Blacklist listing\n    listing.setWhitelisted(false);\n\n    // Event\n    emit ChallengeApproved(_listing);\n    invalidateCache(_listing, \"\", 0);\n  }\n\n   /**\n  @notice             Marks a challenge as denied.\n  @notice             Rewards the listing seller tokens and de-whitelists the listing.\n  @param _listing     A listing with a challenge that is to be resolved\n  */\n  function denyChallenge(address _listing) auth(CURATE_CHALLENGE_ROLE) public {\n    // IListing listing = listings[_listing];\n\n    // uint challengesStake = listing.challengesStake();\n\n    // // Admin (msg.sender) should get 10% of the total sum of all challenge stakes + lising stake\n    // uint curatorShare = challengesStake.mul(curatorPercentage.div(100));\n    // token.transfer(msg.sender, curatorShare);\n\n    // // Transfer the rest of the stake to the data owner\n    // token.transfer(listing.owner(), challengesStake.sub(curatorShare));\n\n    // // Get all challenges that are unresolved and are linked to this listing,\n    // for (uint i = 0; i < listing.getChallengeIDsLength(); i ++) {\n    //   // Set challenge as resolved\n    //   challenges[listing.getChallengeIDAtIndex(i)].resolved = true;\n    // }\n\n    // // Remove challenges on the listing\n    // listing.setChallenges(0);\n    // listing.setChallengesStake(0);\n\n    // // Event\n    // emit ChallengeDenied(_listing);\n    // invalidateCache(_listing, \"\", 0);\n  }\n\n  /**\n  @notice      Withdraw all the funds from this contract: safety measure\n  */\n  function withdraw() auth(WITHDRAW_FUNDS_ROLE) public {\n    uint balance = address(this).balance;\n    token.transfer(msg.sender, address(this).balance);\n    emit Withdrawn(msg.sender, balance);\n  }\n\n  /**\n  @notice                   Sets the minEnlistAmount\n  @param _minEnlistAmount   minEnlistAmount\n  */\n  function setMinEnlistAmount(uint _minEnlistAmount) auth(CHANGE_SETTINGS_ROLE) public {\n    minEnlistAmount = _minEnlistAmount;\n    emit MinEnlistAmountChanged(_minEnlistAmount);\n  }\n\n  /**\n  @notice                     Sets the minChallengeAmount\n  @param _minChallengeAmount  minChallengeAmount\n  */\n  function setMinChallengeAmount(uint _minChallengeAmount) auth(CHANGE_SETTINGS_ROLE) public {\n    minChallengeAmount = _minChallengeAmount;\n    emit MinChallengeAmountChanged(_minChallengeAmount);\n  }\n\n  /**\n  @notice                   Sets the curatorPercentage\n  @param _curatorPercentage curatorPercentage\n  */\n  function setCuratorPercentage(uint _curatorPercentage) auth(CHANGE_SETTINGS_ROLE) public {\n    curatorPercentage = _curatorPercentage;\n    emit CuratorPercentageChanged(_curatorPercentage);\n  }\n\n  /**\n  * implementation of cacher methods\n  */\n  function invalidateCache(address _cachedAddress, bytes32 /*_cachedBytes32*/, uint256 /*_cachedUint256*/) public {\n    emit AddressCacheInvalidated(_cachedAddress);\n  }\n\n  /**\n  * implementation of syncable methods\n  */\n  function getIndexLength() public view returns (uint length) {\n    length = listingsIndex.length;\n  }\n\n  function getByIndex(uint index) public view returns (address key, address contractAddress) {\n    return getByKey(listingsIndex[index]);\n  }\n\n  function getByKey(address _key) public view returns (address key, address contractAddress) {\n    key = address(listings[_key]);\n    contractAddress = address(listings[_key]);\n  }\n}\n",
  "sourcePath": "@settlemint/solidity-mint/contracts/marketplaces/tokencuratedregistry/TokenCuratedRegistry.sol",
  "compiler": {
    "name": "solc",
    "version": "0.4.21+commit.dfe3193c.Emscripten.clang"
  },
  "schemaVersion": "2.0.0",
  "updatedAt": "2018-03-23T09:13:49.744Z"
}