{
  "contractName": "TokenCuratedRegistry",
  "abi": [
    {
      "constant": false,
      "inputs": [
        {
          "name": "_listing",
          "type": "bytes32"
        },
        {
          "name": "_stakeAmount",
          "type": "uint256"
        },
        {
          "name": "_target",
          "type": "string"
        }
      ],
      "name": "enlist",
      "outputs": [],
      "payable": false,
      "stateMutability": "nonpayable",
      "type": "function"
    },
    {
      "constant": true,
      "inputs": [
        {
          "name": "_listing",
          "type": "bytes32"
        }
      ],
      "name": "isWhitelisted",
      "outputs": [
        {
          "name": "whitelisted",
          "type": "bool"
        }
      ],
      "payable": false,
      "stateMutability": "view",
      "type": "function"
    },
    {
      "constant": false,
      "inputs": [
        {
          "name": "_listing",
          "type": "bytes32"
        }
      ],
      "name": "denyChallenge",
      "outputs": [],
      "payable": false,
      "stateMutability": "nonpayable",
      "type": "function"
    },
    {
      "constant": true,
      "inputs": [
        {
          "name": "_listing",
          "type": "bytes32"
        }
      ],
      "name": "challengeExists",
      "outputs": [
        {
          "name": "exists",
          "type": "bool"
        }
      ],
      "payable": false,
      "stateMutability": "view",
      "type": "function"
    },
    {
      "constant": true,
      "inputs": [],
      "name": "WITHDRAW_FUNDS_ROLE",
      "outputs": [
        {
          "name": "",
          "type": "bytes32"
        }
      ],
      "payable": false,
      "stateMutability": "view",
      "type": "function"
    },
    {
      "constant": true,
      "inputs": [],
      "name": "CURATE_CHALLENGE_ROLE",
      "outputs": [
        {
          "name": "",
          "type": "bytes32"
        }
      ],
      "payable": false,
      "stateMutability": "view",
      "type": "function"
    },
    {
      "constant": false,
      "inputs": [],
      "name": "withdraw",
      "outputs": [],
      "payable": false,
      "stateMutability": "nonpayable",
      "type": "function"
    },
    {
      "constant": true,
      "inputs": [],
      "name": "gateKeeper",
      "outputs": [
        {
          "name": "",
          "type": "address"
        }
      ],
      "payable": false,
      "stateMutability": "view",
      "type": "function"
    },
    {
      "constant": false,
      "inputs": [
        {
          "name": "_listing",
          "type": "bytes32"
        }
      ],
      "name": "approveChallenge",
      "outputs": [],
      "payable": false,
      "stateMutability": "nonpayable",
      "type": "function"
    },
    {
      "constant": false,
      "inputs": [
        {
          "name": "_listing",
          "type": "bytes32"
        },
        {
          "name": "_stakeAmount",
          "type": "uint256"
        }
      ],
      "name": "decrease",
      "outputs": [],
      "payable": false,
      "stateMutability": "nonpayable",
      "type": "function"
    },
    {
      "constant": true,
      "inputs": [
        {
          "name": "",
          "type": "uint256"
        }
      ],
      "name": "challenges",
      "outputs": [
        {
          "name": "challenger",
          "type": "address"
        },
        {
          "name": "resolved",
          "type": "bool"
        },
        {
          "name": "stake",
          "type": "uint256"
        },
        {
          "name": "listing",
          "type": "bytes32"
        }
      ],
      "payable": false,
      "stateMutability": "view",
      "type": "function"
    },
    {
      "constant": true,
      "inputs": [],
      "name": "CHALLENGE_ROLE",
      "outputs": [
        {
          "name": "",
          "type": "bytes32"
        }
      ],
      "payable": false,
      "stateMutability": "view",
      "type": "function"
    },
    {
      "constant": false,
      "inputs": [
        {
          "name": "_listing",
          "type": "bytes32"
        }
      ],
      "name": "unlist",
      "outputs": [],
      "payable": false,
      "stateMutability": "nonpayable",
      "type": "function"
    },
    {
      "constant": true,
      "inputs": [
        {
          "name": "",
          "type": "bytes32"
        }
      ],
      "name": "listings",
      "outputs": [
        {
          "name": "whitelisted",
          "type": "bool"
        },
        {
          "name": "owner",
          "type": "address"
        },
        {
          "name": "stake",
          "type": "uint256"
        },
        {
          "name": "target",
          "type": "string"
        },
        {
          "name": "challenges",
          "type": "uint256"
        },
        {
          "name": "totalStake",
          "type": "uint256"
        }
      ],
      "payable": false,
      "stateMutability": "view",
      "type": "function"
    },
    {
      "constant": false,
      "inputs": [
        {
          "name": "_listing",
          "type": "bytes32"
        },
        {
          "name": "_stakeAmount",
          "type": "uint256"
        }
      ],
      "name": "challenge",
      "outputs": [
        {
          "name": "challengeID",
          "type": "uint256"
        }
      ],
      "payable": false,
      "stateMutability": "nonpayable",
      "type": "function"
    },
    {
      "constant": true,
      "inputs": [],
      "name": "ENLIST_ROLE",
      "outputs": [
        {
          "name": "",
          "type": "bytes32"
        }
      ],
      "payable": false,
      "stateMutability": "view",
      "type": "function"
    },
    {
      "constant": false,
      "inputs": [
        {
          "name": "_listing",
          "type": "bytes32"
        },
        {
          "name": "_stakeAmount",
          "type": "uint256"
        }
      ],
      "name": "increase",
      "outputs": [],
      "payable": false,
      "stateMutability": "nonpayable",
      "type": "function"
    },
    {
      "constant": true,
      "inputs": [],
      "name": "token",
      "outputs": [
        {
          "name": "",
          "type": "address"
        }
      ],
      "payable": false,
      "stateMutability": "view",
      "type": "function"
    },
    {
      "inputs": [
        {
          "name": "_gateKeeper",
          "type": "address"
        },
        {
          "name": "_token",
          "type": "address"
        },
        {
          "name": "_minEnlistAmount",
          "type": "uint256"
        },
        {
          "name": "_minChallengeAmount",
          "type": "uint256"
        },
        {
          "name": "_adminPercentage",
          "type": "uint256"
        }
      ],
      "payable": false,
      "stateMutability": "nonpayable",
      "type": "constructor"
    },
    {
      "anonymous": false,
      "inputs": [
        {
          "indexed": false,
          "name": "listing",
          "type": "bytes32"
        },
        {
          "indexed": false,
          "name": "deposit",
          "type": "uint256"
        },
        {
          "indexed": false,
          "name": "target",
          "type": "string"
        }
      ],
      "name": "Enlisted",
      "type": "event"
    },
    {
      "anonymous": false,
      "inputs": [
        {
          "indexed": false,
          "name": "listing",
          "type": "bytes32"
        },
        {
          "indexed": false,
          "name": "deposit",
          "type": "uint256"
        },
        {
          "indexed": false,
          "name": "challengeID",
          "type": "uint256"
        }
      ],
      "name": "Challenged",
      "type": "event"
    },
    {
      "anonymous": false,
      "inputs": [
        {
          "indexed": false,
          "name": "listing",
          "type": "bytes32"
        }
      ],
      "name": "Unlisted",
      "type": "event"
    },
    {
      "anonymous": false,
      "inputs": [
        {
          "indexed": false,
          "name": "listing",
          "type": "bytes32"
        }
      ],
      "name": "ChallengeApproved",
      "type": "event"
    },
    {
      "anonymous": false,
      "inputs": [
        {
          "indexed": false,
          "name": "listing",
          "type": "bytes32"
        }
      ],
      "name": "ChallengeDenied",
      "type": "event"
    },
    {
      "anonymous": false,
      "inputs": [
        {
          "indexed": false,
          "name": "listing",
          "type": "bytes32"
        },
        {
          "indexed": false,
          "name": "increasedBy",
          "type": "uint256"
        },
        {
          "indexed": false,
          "name": "newDeposit",
          "type": "uint256"
        }
      ],
      "name": "Increased",
      "type": "event"
    },
    {
      "anonymous": false,
      "inputs": [
        {
          "indexed": false,
          "name": "listing",
          "type": "bytes32"
        },
        {
          "indexed": false,
          "name": "decreasedBy",
          "type": "uint256"
        },
        {
          "indexed": false,
          "name": "newDeposit",
          "type": "uint256"
        }
      ],
      "name": "Decreased",
      "type": "event"
    },
    {
      "anonymous": false,
      "inputs": [
        {
          "indexed": false,
          "name": "by",
          "type": "address"
        },
        {
          "indexed": false,
          "name": "balance",
          "type": "uint256"
        }
      ],
      "name": "Withdrawn",
      "type": "event"
    }
  ],
  "bytecode": "0x60606040526000600455600060055560006006556000600755341561002357600080fd5b60405160a08061155f833981016040528080519190602001805191906020018051919060200180519190602001805160008054600160a060020a03988916600160a060020a031991821617909155600380549790981696169590951790955550600655600555600755506114c38061009c6000396000f3006060604052600436106100e15763ffffffff60e060020a600035041662c53f8c81146100e657806301a5e3fe1461010e5780630f4c8f45146101385780631b7bbecb1461014e5780631cbcd9741461016457806332a65198146101895780633ccfd60b1461019c57806345d61ded146101af5780634b0e2191146101de5780638cd6d2b4146101f45780638f1d37761461020d5780638f911dca14610259578063bc40a2771461026c578063c18b8db414610282578063e2083c1814610351578063ec425e6a1461036a578063f4478dad1461037d578063fc0c546a14610396575b600080fd5b34156100f157600080fd5b61010c600480359060248035916044359182019101356103a9565b005b341561011957600080fd5b6101246004356105f7565b604051901515815260200160405180910390f35b341561014357600080fd5b61010c60043561060c565b341561015957600080fd5b610124600435610758565b341561016f57600080fd5b61017761076e565b60405190815260200160405180910390f35b341561019457600080fd5b610177610792565b34156101a757600080fd5b61010c6107b6565b34156101ba57600080fd5b6101c2610880565b604051600160a060020a03909116815260200160405180910390f35b34156101e957600080fd5b61010c60043561088f565b34156101ff57600080fd5b61010c600435602435610ac1565b341561021857600080fd5b610223600435610c41565b604051600160a060020a039094168452911515602084015260408084019190915260608301919091526080909101905180910390f35b341561026457600080fd5b610177610c78565b341561027757600080fd5b61010c600435610c9c565b341561028d57600080fd5b610298600435610e51565b6040518615158152600160a060020a0386166020820152604081018590526080810183905260a0810182905260c0606082018181528554600260001961010060018416150201909116049183018290529060e08301908690801561033d5780601f106103125761010080835404028352916020019161033d565b820191906000526020600020905b81548152906001019060200180831161032057829003601f168201915b505097505050505050505060405180910390f35b341561035c57600080fd5b610177600435602435610e8e565b341561037557600080fd5b6101776110c6565b341561038857600080fd5b61010c6004356024356110d8565b34156103a157600080fd5b6101c2611225565b6103b16112db565b6000805160206114788339815191526103ca3382611234565b15156103d557600080fd5b6005548510156103e457600080fd5b600354600160a060020a03166323b872dd33308860006040516020015260405160e060020a63ffffffff8616028152600160a060020a0393841660048201529190921660248201526044810191909152606401602060405180830381600087803b151561045057600080fd5b6102c65a03f1151561046157600080fd5b50505060405180519050151561047657600080fd5b60e06040519081016040528060011515815260200133600160a060020a0316815260200186815260200185858080601f0160208091040260200160405190810160405281815292919060208401838380828437505050928452505060006020808401829052604080850188905260609094018a90528a8252600190529190912090508151815460ff191690151517815560208201518154600160a060020a03919091166101000274ffffffffffffffffffffffffffffffffffffffff00199091161781556040820151816001015560608201518160020190805161055e9291602001906112ed565b506080820151816003015560a08201518160040190805161058392916020019061136b565b5060c0820151600590910155507f232015555b9039d0149d68b762bec8bdf615e9485dfdde85f4d69e3a83835fd386868686604051848152602081018490526060604082018181529082018390526080820184848082843782019150509550505050505060405180910390a1505050505050565b60009081526001602052604090205460ff1690565b6000806000807f4355524154455f4348414c4c454e47455f524f4c45000000000000000000000061063d3382611234565b151561064857600080fd5b6000868152600160205260409020600581015460075491965094506064900484029250600160a060020a03331683156108fc0284604051600060405180830381858888f19350505050151561069c57600080fd5b600091505b60048501548210156107165760016002600087600401858154811015156106c457fe5b600091825260208083209091015483528201929092526040019020805491151560a060020a0274ff000000000000000000000000000000000000000019909216919091179055600191909101906106a1565b600060038601557fb5fcf011cd44be27fdd6c415f3a94c64376a615e7a8df51037183c266351319e8660405190815260200160405180910390a1505050505050565b6000908152600160205260408120600301541190565b7f57495448445241575f46554e44535f524f4c450000000000000000000000000081565b7f4355524154455f4348414c4c454e47455f524f4c45000000000000000000000081565b60007f57495448445241575f46554e44535f524f4c45000000000000000000000000006107e33382611234565b15156107ee57600080fd5b30600160a060020a031631915033600160a060020a03166108fc30600160a060020a0316319081150290604051600060405180830381858888f19350505050151561083857600080fd5b7f7084f5476618d8e60b11ef0d7d3f06914655adb8793e28ff7f018d4c76d505d53383604051600160a060020a03909216825260208201526040908101905180910390a15050565b600054600160a060020a031681565b600080600080600061089f6113a5565b60007f4355524154455f4348414c4c454e47455f524f4c4500000000000000000000006108cc3382611234565b15156108d757600080fd5b6000898152600160208190526040909120600581015491810154600754919a5091985090880396506064900487029450600160a060020a03331685156108fc0286604051600060405180830381858888f19350505050151561093857600080fd5b600093505b6004880154841015610a6d5760026000896004018681548110151561095e57fe5b9060005260206000209001548152602001908152602001600020608060405190810160409081528254600160a060020a038116835260a060020a900460ff16151560208301526001830154908201526002909101546060820152925084870391508251600160a060020a03166108fc8785604001518115156109dc57fe5b0484029081150290604051600060405180830381858888f193505050501515610a0457600080fd5b6001600260008a60040187815481101515610a1b57fe5b600091825260208083209091015483528201929092526040019020805491151560a060020a0274ff0000000000000000000000000000000000000000199092169190911790556001939093019261093d565b6000600189018190556005890155875460ff191688557f45552e8036e6f0b8afe8aa1347567a847613a7095162e76bee4dfc8999c2fb528960405190815260200160405180910390a1505050505050505050565b6000600080516020611478833981519152610adc3382611234565b1515610ae757600080fd5b6000848152600160205260409020805490925033600160a060020a039081166101009092041614610b1757600080fd5b6001820154831115610b2857600080fd5b60055460018301548490031015610b3e57600080fd5b6005548383600501540310151515610b5557600080fd5b600354600160a060020a031663a9059cbb338560006040516020015260405160e060020a63ffffffff8516028152600160a060020a0390921660048301526024820152604401602060405180830381600087803b1515610bb457600080fd5b6102c65a03f11515610bc557600080fd5b505050604051805190501515610bda57600080fd5b6001820180548490039081905560058301805485900390557fe8a15c36ddecf6f4f9f08bbc59f5c547485a107b6cf17d731dec04e5c637438c908590859060405192835260208301919091526040808301919091526060909101905180910390a150505050565b6002602081905260009182526040909120805460018201549190920154600160a060020a0383169260a060020a900460ff16919084565b7f4348414c4c454e47455f524f4c4500000000000000000000000000000000000081565b6000600080516020611478833981519152610cb73382611234565b1515610cc257600080fd5b6000838152600160205260409020805490925033600160a060020a039081166101009092041614610cf257600080fd5b610cfb836105f7565b1515610d0657600080fd5b600382015415610d1557600080fd5b600082600101541115610db75760035482546001840154600160a060020a039283169263a9059cbb926101009004169060006040516020015260405160e060020a63ffffffff8516028152600160a060020a0390921660048301526024820152604401602060405180830381600087803b1515610d9157600080fd5b6102c65a03f11515610da257600080fd5b505050604051805190501515610db757600080fd5b60008381526001602081905260408220805474ffffffffffffffffffffffffffffffffffffffffff1916815590810182905590610df760028301826113cc565b6003820160009055600482016000610e0f9190611413565b600582016000905550507f2e6ec049d62c8a42e7cc223354aadb68d5046a2cba67ed55a089fdb852fb6cb68360405190815260200160405180910390a1505050565b60016020819052600091825260409091208054918101546003820154600583015460ff8516946101009004600160a060020a031693600201919086565b600080610e996113a5565b7f4348414c4c454e47455f524f4c45000000000000000000000000000000000000610ec43382611234565b1515610ecf57600080fd5b600654851015610ede57600080fd5b600086815260016020526040808220600354909550600160a060020a0316916323b872dd91339130918a9190516020015260405160e060020a63ffffffff8616028152600160a060020a0393841660048201529190921660248201526044810191909152606401602060405180830381600087803b1515610f5e57600080fd5b6102c65a03f11515610f6f57600080fd5b505050604051805190501515610f8457600080fd5b6004805460010190819055935060806040519081016040908152600160a060020a033316825260006020808401829052828401899052606084018a9052878252600290522090925082908151815473ffffffffffffffffffffffffffffffffffffffff1916600160a060020a03919091161781556020820151815490151560a060020a0274ff0000000000000000000000000000000000000000199091161781556040820151816001015560608201516002909101555060038301805460019081019091556004840180549091810161105d8382611431565b506000918252602090912001849055600583018054860190557f346179119607de02d189e442e1f22c5a25ced2e8f102ddd36762a34b3d66b05686868660405192835260208301919091526040808301919091526060909101905180910390a150505092915050565b60008051602061147883398151915281565b60006000805160206114788339815191526110f33382611234565b15156110fe57600080fd5b6000848152600160205260409020805490925033600160a060020a03908116610100909204161461112e57600080fd5b600354600160a060020a03166323b872dd33308660006040516020015260405160e060020a63ffffffff8616028152600160a060020a0393841660048201529190921660248201526044810191909152606401602060405180830381600087803b151561119a57600080fd5b6102c65a03f115156111ab57600080fd5b5050506040518051905015156111c057600080fd5b600182018054840190819055600583018054850190557f7f27350fe80670682f5dc629cc881b7169e0ede96a681e843d0267bbfbb7a98b908590859060405192835260208301919091526040808301919091526060909101905180910390a150505050565b600354600160a060020a031681565b60008054600160a060020a031615806112d4575060008054600160a060020a031690636d6712d8908590309086906040516020015260405160e060020a63ffffffff8616028152600160a060020a0393841660048201529190921660248201526044810191909152606401602060405180830381600087803b15156112b857600080fd5b6102c65a03f115156112c957600080fd5b505050604051805190505b9392505050565b60206040519081016040526000815290565b828054600181600116156101000203166002900490600052602060002090601f016020900481019282601f1061132e57805160ff191683800117855561135b565b8280016001018555821561135b579182015b8281111561135b578251825591602001919060010190611340565b5061136792915061145a565b5090565b82805482825590600052602060002090810192821561135b579160200282018281111561135b578251825591602001919060010190611340565b60806040519081016040908152600080835260208301819052908201819052606082015290565b50805460018160011615610100020316600290046000825580601f106113f25750611410565b601f016020900490600052602060002090810190611410919061145a565b50565b5080546000825590600052602060002090810190611410919061145a565b8154818355818115116114555760008381526020902061145591810190830161145a565b505050565b61147491905b808211156113675760008155600101611460565b905600454e4c4953545f524f4c45000000000000000000000000000000000000000000a165627a7a7230582055dc9cc6b79487005a5f772cef6db8df4d0dc2ea03a9249d4302c09f6872d9970029",
  "source": "pragma solidity ^0.4.11;\n\nimport \"../../authentication/Secured.sol\";\nimport \"../tokensystem/Token.sol\";\n\n\ncontract TokenCuratedRegistry is Secured {\n\n  bytes32 constant public WITHDRAW_FUNDS_ROLE = \"WITHDRAW_FUNDS_ROLE\";\n  bytes32 constant public CHALLENGE_ROLE = \"CHALLENGE_ROLE\";\n  bytes32 constant public ENLIST_ROLE = \"ENLIST_ROLE\";\n  bytes32 constant public CURATE_CHALLENGE_ROLE = \"CURATE_CHALLENGE_ROLE\";\n\n  // ------\n  // EVENTS\n  // ------\n\n  event Enlisted(bytes32 listing, uint deposit, string target);\n  event Challenged(bytes32 listing, uint deposit, uint challengeID);\n  event Unlisted(bytes32 listing);\n  event ChallengeApproved(bytes32 listing);\n  event ChallengeDenied(bytes32 listing);\n  event Increased(bytes32 listing, uint increasedBy, uint newDeposit);\n  event Decreased(bytes32 listing, uint decreasedBy, uint newDeposit);\n  event Withdrawn(address by, uint balance);\n\n  struct Listing {\n    bool whitelisted;       // Should the data appear on the listing or not\n    address owner;          // Owner of Listing\n    uint stake;             // Number of unlocked tokens with potential risk if challenged\n    string target;          // Identifier of the data\n    uint challenges;        // Number of unresolved challenges on the listing\n    uint[] challengeIDs;    // Array of the different challenge IDs\n    uint totalStake;        // Stake with challenged stake added\n  }\n\n  struct Challenge {\n    address challenger;     // Owner of Challenge\n    bool resolved;          // Indication of if challenge is resolved\n    uint stake;             // Number of tokens at risk for either party during challenge\n    bytes32 listing;        // Listing this challenge was added to\n  }\n\n  // Maps listingHashes to associated listing data\n  mapping(bytes32 => Listing) public listings;\n\n  // Maps challenges to associated challenge data\n  mapping(uint => Challenge) public challenges;\n\n  // Global Variables\n  Token public token;\n  uint currentChallengeID = 0;\n  uint minEnlistAmount = 0;\n  uint minChallengeAmount = 0;\n  uint adminPercentage = 0;\n\n  /**\n  @dev Contructor\n  @notice                Sets the address for token\n  @param _gateKeeper     Address of the gatekeeper\n  @param _token          Address of the token\n  */\n  function TokenCuratedRegistry(\n    address _gateKeeper,\n    address _token,\n    uint _minEnlistAmount,\n    uint _minChallengeAmount,\n    uint _adminPercentage\n  ) \n    Secured(_gateKeeper)\n    public \n  {\n    token = Token(_token);\n    minChallengeAmount = _minChallengeAmount;\n    minEnlistAmount = _minEnlistAmount;\n    adminPercentage = _adminPercentage;\n  }\n\n  /**\n  @notice                 Allows a seller to list data to be available for selling.\n  @notice                 Takes tokens from user.\n  @param _listing         The listing of data\n  @param _stakeAmount     The number of ERC20 tokens a user is willing to potentially stake\n  @param _target          String with ipfs hash of data\n  */\n  function enlist(bytes32 _listing, uint _stakeAmount, string _target) auth(ENLIST_ROLE) external {\n    // Stake must be above a certain amount\n    require(_stakeAmount >= minEnlistAmount);\n\n    // Transfers tokens from user to Registry contract\n    require(token.transferFrom(msg.sender, this, _stakeAmount));\n\n    // Add listing to listings\n    uint[] memory empty;\n    listings[_listing] = Listing({\n      whitelisted: true,\n      owner: msg.sender,\n      stake: _stakeAmount,\n      target: _target,\n      challenges: 0,\n      challengeIDs: empty,\n      totalStake: _stakeAmount\n    });\n\n    // Event\n    Enlisted(_listing, _stakeAmount, _target);\n  }\n\n  /**\n  @notice             Allows the owner of a listing to remove the listing from the whitelist\n  @notice             Returns all tokens to the owner of the listing\n  @param _listing     The listing of a user's listing\n  */\n  function unlist(bytes32 _listing) auth(ENLIST_ROLE) external {\n    Listing storage listing = listings[_listing];\n\n    require(msg.sender == listing.owner);\n    require(isWhitelisted(_listing));\n\n    // Cannot exit during ongoing challenge\n    require(listing.challenges == 0);\n\n    // Transfers any remaining balance back to the owner\n    if (listing.stake > 0)\n      require(token.transfer(listing.owner, listing.stake));\n\n    delete listings[_listing]; // delete changes the whitelisted prop from true to false\n    Unlisted(_listing);\n  }\n\n  /**\n  @notice             Allows the owner of a listing to increase their unstaked deposit.\n  @param _listing     The listing of a user's application/listing\n  @param _stakeAmount The number of ERC20 tokens to increase a user's unstaked deposit\n  */\n  function increase(bytes32 _listing, uint _stakeAmount) auth(ENLIST_ROLE) external {\n    Listing storage listing = listings[_listing];\n\n    require(listing.owner == msg.sender);\n    require(token.transferFrom(msg.sender, this, _stakeAmount));\n\n    listing.stake += _stakeAmount;\n    listing.totalStake += _stakeAmount;\n\n    Increased(_listing, _stakeAmount, listing.stake);\n  }\n\n  /**\n  @notice             Allows the owner of a listing to decrease their unstaked deposit.\n  @notice             The listing keeps its previous status.\n  @param _listing     The listing of a user's application/listing\n  @param _stakeAmount The number of ERC20 tokens to decrease a user's unstaked deposit\n  */\n  function decrease(bytes32 _listing, uint _stakeAmount) auth(ENLIST_ROLE) external {\n    Listing storage listing = listings[_listing];\n\n    require(listing.owner == msg.sender);\n    require(_stakeAmount <= listing.stake);\n    require(listing.stake - _stakeAmount >= minEnlistAmount);\n    require(listing.totalStake - _stakeAmount >= minEnlistAmount);\n\n    require(token.transfer(msg.sender, _stakeAmount));\n\n    listing.stake -= _stakeAmount;\n    listing.totalStake -= _stakeAmount;\n\n    Decreased(_listing, _stakeAmount, listing.stake);\n  }\n\n  /**\n  @notice             Starts a challenge for a listing.\n  @dev                Tokens are taken from the challenger and the data seller's deposit is locked.\n  @param _listing     The listing of data.\n  @param _stakeAmount The amount the challenger wants to stake.\n  */\n  function challenge(bytes32 _listing, uint _stakeAmount) auth(CHALLENGE_ROLE) external returns (uint challengeID) {\n    require(_stakeAmount >= minChallengeAmount);\n\n    Listing storage listing = listings[_listing];\n\n    // Takes tokens from challenger\n    require(token.transferFrom(msg.sender, this, _stakeAmount));\n\n    // Keep track of challenge id\n    challengeID = currentChallengeID + 1;\n    currentChallengeID = challengeID; \n\n    // Add challenge to the challenges mapping\n    Challenge memory challenge = Challenge({\n      challenger: msg.sender,\n      stake: _stakeAmount,\n      resolved: false,\n      listing: _listing\n    });\n    challenges[challengeID] = challenge;\n\n    // Increase the number of challenges on the right listing\n    listing.challenges = listing.challenges + 1;\n    // Add challengeID to listing\n    listing.challengeIDs.push(challengeID);\n    // Add to the totalStake on a listing\n    listing.totalStake = listing.totalStake + _stakeAmount;\n    \n    Challenged(_listing, _stakeAmount, challengeID);\n    return challengeID;\n  }\n\n   /**\n  @notice             Marks a challenge as resolved.\n  @notice             Rewards the winner tokens and either whitelists or de-whitelists the listing.\n  @param _listing   A listing with a challenge that is to be resolved\n  */\n  function approveChallenge(bytes32 _listing) auth(CURATE_CHALLENGE_ROLE) external {\n    Listing storage listing = listings[_listing];\n\n    uint totalStake = listing.totalStake;\n    uint totalChallengesStake = totalStake - listing.stake;\n\n    // Admin (msg.sender) should get 10% of the total sum of all challenge stakes + lising stake\n    uint adminShare = totalStake * (adminPercentage / 100);\n    msg.sender.transfer(adminShare);\n\n    // Challengers should get a percentage of the total sum of all challenge stakes + lising stake\n    // equal to their share of the total challenge stake\n    // Get all challenges that are unresolved and are linked to this listing, \n    for (uint i = 0; i < listing.challengeIDs.length; i ++) {\n      Challenge memory challenge = challenges[listing.challengeIDs[i]];\n\n      // Calculate what's left to divide between the challengers\n      uint challengerShare = totalStake - adminShare;\n      // Transfer percentage of challenge\n      challenge.challenger.transfer(challengerShare * (challenge.stake / totalChallengesStake));\n      // Set challenge as resolved\n      challenges[listing.challengeIDs[i]].resolved = true;\n    }\n\n    // Take stake from listing\n    listing.stake = 0;\n    listing.totalStake = 0;\n    // Blacklist listing\n    listing.whitelisted = false;\n\n    // Event\n    ChallengeApproved(_listing);\n  }\n\n   /**\n  @notice             Marks a challenge as denied.\n  @notice             Rewards the listing seller tokens and de-whitelists the listing.\n  @param _listing     A listing with a challenge that is to be resolved\n  */\n  function denyChallenge(bytes32 _listing) auth(CURATE_CHALLENGE_ROLE) external {\n    Listing storage listing = listings[_listing];\n\n    uint totalStake = listing.totalStake;\n\n    // Admin (msg.sender) should get 10% of the total sum of all challenge stakes + lising stake\n    uint adminShare = totalStake * (adminPercentage / 100);\n    msg.sender.transfer(adminShare);\n\n    // Transfer the rest of the stake to the data owner\n    // listing.owner.transfer(totalStake - adminShare);\n\n    // Get all challenges that are unresolved and are linked to this listing, \n    for (uint i = 0; i < listing.challengeIDs.length; i ++) {\n      // Set challenge as resolved\n      challenges[listing.challengeIDs[i]].resolved = true;\n    }\n\n    // Remove challenges on the listing\n    listing.challenges = 0;    \n\n    // Event\n    ChallengeDenied(_listing);\n  }\n\n  /**\n  @dev      Withdraw all the funds from this contract\n  */\n  function withdraw() auth(WITHDRAW_FUNDS_ROLE) external {\n    uint balance = this.balance;\n    msg.sender.transfer(this.balance);\n    Withdrawn(msg.sender, balance);\n  }\n\n/**\n  @notice             Returns true if listing is whitelisted\n  @param _listing     The listing of a user's listing\n  */ \n  function isWhitelisted(bytes32 _listing) view public returns (bool whitelisted) {\n    return listings[_listing].whitelisted;\n  }\n\n/**\n  @notice            Returns true if the application/listing has an unresolved challenge\n  @param _listing     The listing of a user's listing\n  */ \n  function challengeExists(bytes32 _listing) view public returns (bool exists) {\n    return (listings[_listing].challenges > 0);\n  }\n\n  /**\n  @dev                Called by updateStatus() if the applicationExpiry date passed without a challenge being made.\n  @dev                Called by resolveChallenge() if an application/listing beat a challenge.\n  @param _listing      The listing of an application/listing to be whitelisted\n  */\n  function whitelistApplication(bytes32 _listing) internal {\n    listings[_listing].whitelisted = true;\n  }\n}\n",
  "sourcePath": "@settlemint/solidity-mint/contracts/marketplaces/tokencuratedregistry/TokenCuratedRegistry.sol",
  "compiler": {
    "name": "solc",
    "version": "0.4.18+commit.9cf6e910.Emscripten.clang"
  },
  "schemaVersion": "1.0.1",
  "updatedAt": "2018-02-08T16:14:12.869Z"
}