{
  "contractName": "TokenCuratedRegistry",
  "abi": [
    {
      "constant": true,
      "inputs": [],
      "name": "WITHDRAW_FUNDS_ROLE",
      "outputs": [
        {
          "name": "",
          "type": "bytes32"
        }
      ],
      "payable": false,
      "stateMutability": "view",
      "type": "function"
    },
    {
      "constant": true,
      "inputs": [],
      "name": "CURATE_CHALLENGE_ROLE",
      "outputs": [
        {
          "name": "",
          "type": "bytes32"
        }
      ],
      "payable": false,
      "stateMutability": "view",
      "type": "function"
    },
    {
      "constant": true,
      "inputs": [],
      "name": "metadata",
      "outputs": [
        {
          "name": "",
          "type": "string"
        }
      ],
      "payable": false,
      "stateMutability": "view",
      "type": "function"
    },
    {
      "constant": true,
      "inputs": [],
      "name": "gateKeeper",
      "outputs": [
        {
          "name": "",
          "type": "address"
        }
      ],
      "payable": false,
      "stateMutability": "view",
      "type": "function"
    },
    {
      "constant": true,
      "inputs": [
        {
          "name": "",
          "type": "uint256"
        }
      ],
      "name": "challenges",
      "outputs": [
        {
          "name": "challenger",
          "type": "address"
        },
        {
          "name": "resolved",
          "type": "bool"
        },
        {
          "name": "stake",
          "type": "uint256"
        },
        {
          "name": "listing",
          "type": "bytes32"
        }
      ],
      "payable": false,
      "stateMutability": "view",
      "type": "function"
    },
    {
      "constant": true,
      "inputs": [
        {
          "name": "",
          "type": "bytes32"
        }
      ],
      "name": "listings",
      "outputs": [
        {
          "name": "price",
          "type": "uint256"
        },
        {
          "name": "whitelisted",
          "type": "bool"
        },
        {
          "name": "owner",
          "type": "address"
        },
        {
          "name": "stake",
          "type": "uint256"
        },
        {
          "name": "challenges",
          "type": "uint256"
        },
        {
          "name": "totalStake",
          "type": "uint256"
        }
      ],
      "payable": false,
      "stateMutability": "view",
      "type": "function"
    },
    {
      "constant": true,
      "inputs": [],
      "name": "token",
      "outputs": [
        {
          "name": "",
          "type": "address"
        }
      ],
      "payable": false,
      "stateMutability": "view",
      "type": "function"
    },
    {
      "constant": true,
      "inputs": [],
      "name": "UPDATE_METADATA_ROLE",
      "outputs": [
        {
          "name": "",
          "type": "bytes32"
        }
      ],
      "payable": false,
      "stateMutability": "view",
      "type": "function"
    },
    {
      "inputs": [
        {
          "name": "_name",
          "type": "bytes32"
        },
        {
          "name": "_gateKeeper",
          "type": "address"
        },
        {
          "name": "_token",
          "type": "address"
        },
        {
          "name": "_minEnlistAmount",
          "type": "uint256"
        },
        {
          "name": "_minChallengeAmount",
          "type": "uint256"
        },
        {
          "name": "_adminPercentage",
          "type": "uint256"
        }
      ],
      "payable": false,
      "stateMutability": "nonpayable",
      "type": "constructor"
    },
    {
      "anonymous": false,
      "inputs": [
        {
          "indexed": false,
          "name": "listing",
          "type": "bytes32"
        },
        {
          "indexed": false,
          "name": "deposit",
          "type": "uint256"
        },
        {
          "indexed": false,
          "name": "price",
          "type": "uint256"
        }
      ],
      "name": "Enlisted",
      "type": "event"
    },
    {
      "anonymous": false,
      "inputs": [
        {
          "indexed": false,
          "name": "listing",
          "type": "bytes32"
        },
        {
          "indexed": false,
          "name": "deposit",
          "type": "uint256"
        },
        {
          "indexed": false,
          "name": "challengeID",
          "type": "uint256"
        }
      ],
      "name": "Challenged",
      "type": "event"
    },
    {
      "anonymous": false,
      "inputs": [
        {
          "indexed": false,
          "name": "listing",
          "type": "bytes32"
        }
      ],
      "name": "Unlisted",
      "type": "event"
    },
    {
      "anonymous": false,
      "inputs": [
        {
          "indexed": false,
          "name": "listing",
          "type": "bytes32"
        }
      ],
      "name": "ChallengeApproved",
      "type": "event"
    },
    {
      "anonymous": false,
      "inputs": [
        {
          "indexed": false,
          "name": "listing",
          "type": "bytes32"
        }
      ],
      "name": "ChallengeDenied",
      "type": "event"
    },
    {
      "anonymous": false,
      "inputs": [
        {
          "indexed": false,
          "name": "listing",
          "type": "bytes32"
        },
        {
          "indexed": false,
          "name": "increasedBy",
          "type": "uint256"
        },
        {
          "indexed": false,
          "name": "newDeposit",
          "type": "uint256"
        }
      ],
      "name": "Increased",
      "type": "event"
    },
    {
      "anonymous": false,
      "inputs": [
        {
          "indexed": false,
          "name": "listing",
          "type": "bytes32"
        },
        {
          "indexed": false,
          "name": "decreasedBy",
          "type": "uint256"
        },
        {
          "indexed": false,
          "name": "newDeposit",
          "type": "uint256"
        }
      ],
      "name": "Decreased",
      "type": "event"
    },
    {
      "anonymous": false,
      "inputs": [
        {
          "indexed": false,
          "name": "by",
          "type": "address"
        },
        {
          "indexed": false,
          "name": "balance",
          "type": "uint256"
        }
      ],
      "name": "Withdrawn",
      "type": "event"
    },
    {
      "anonymous": false,
      "inputs": [
        {
          "indexed": true,
          "name": "key",
          "type": "address"
        }
      ],
      "name": "AddressCacheInvalidated",
      "type": "event"
    },
    {
      "anonymous": false,
      "inputs": [
        {
          "indexed": true,
          "name": "key",
          "type": "bytes32"
        }
      ],
      "name": "Bytes32CacheInvalidated",
      "type": "event"
    },
    {
      "anonymous": false,
      "inputs": [
        {
          "indexed": true,
          "name": "key",
          "type": "uint256"
        }
      ],
      "name": "Uint256CacheInvalidated",
      "type": "event"
    },
    {
      "constant": false,
      "inputs": [
        {
          "name": "_listing",
          "type": "bytes32"
        },
        {
          "name": "_stakeAmount",
          "type": "uint256"
        },
        {
          "name": "_price",
          "type": "uint256"
        }
      ],
      "name": "enlist",
      "outputs": [],
      "payable": false,
      "stateMutability": "nonpayable",
      "type": "function"
    },
    {
      "constant": false,
      "inputs": [
        {
          "name": "_listing",
          "type": "bytes32"
        }
      ],
      "name": "unlist",
      "outputs": [],
      "payable": false,
      "stateMutability": "nonpayable",
      "type": "function"
    },
    {
      "constant": false,
      "inputs": [
        {
          "name": "_listing",
          "type": "bytes32"
        },
        {
          "name": "_stakeAmount",
          "type": "uint256"
        }
      ],
      "name": "increase",
      "outputs": [],
      "payable": false,
      "stateMutability": "nonpayable",
      "type": "function"
    },
    {
      "constant": false,
      "inputs": [
        {
          "name": "_listing",
          "type": "bytes32"
        },
        {
          "name": "_stakeAmount",
          "type": "uint256"
        }
      ],
      "name": "decrease",
      "outputs": [],
      "payable": false,
      "stateMutability": "nonpayable",
      "type": "function"
    },
    {
      "constant": false,
      "inputs": [
        {
          "name": "_listing",
          "type": "bytes32"
        },
        {
          "name": "_stakeAmount",
          "type": "uint256"
        }
      ],
      "name": "challenge",
      "outputs": [
        {
          "name": "challengeID",
          "type": "uint256"
        }
      ],
      "payable": false,
      "stateMutability": "nonpayable",
      "type": "function"
    },
    {
      "constant": false,
      "inputs": [
        {
          "name": "_listing",
          "type": "bytes32"
        }
      ],
      "name": "approveChallenge",
      "outputs": [],
      "payable": false,
      "stateMutability": "nonpayable",
      "type": "function"
    },
    {
      "constant": false,
      "inputs": [
        {
          "name": "_listing",
          "type": "bytes32"
        }
      ],
      "name": "denyChallenge",
      "outputs": [],
      "payable": false,
      "stateMutability": "nonpayable",
      "type": "function"
    },
    {
      "constant": false,
      "inputs": [],
      "name": "withdraw",
      "outputs": [],
      "payable": false,
      "stateMutability": "nonpayable",
      "type": "function"
    },
    {
      "constant": false,
      "inputs": [
        {
          "name": "_listing",
          "type": "bytes32"
        },
        {
          "name": "_price",
          "type": "uint256"
        }
      ],
      "name": "setListingPrice",
      "outputs": [],
      "payable": false,
      "stateMutability": "nonpayable",
      "type": "function"
    },
    {
      "constant": false,
      "inputs": [
        {
          "name": "_minEnlistAmount",
          "type": "uint256"
        }
      ],
      "name": "setMinEnlistAmount",
      "outputs": [],
      "payable": false,
      "stateMutability": "nonpayable",
      "type": "function"
    },
    {
      "constant": false,
      "inputs": [
        {
          "name": "_minChallengeAmount",
          "type": "uint256"
        }
      ],
      "name": "setMinChallengeAmount",
      "outputs": [],
      "payable": false,
      "stateMutability": "nonpayable",
      "type": "function"
    },
    {
      "constant": false,
      "inputs": [
        {
          "name": "_adminPercentage",
          "type": "uint256"
        }
      ],
      "name": "setAdminPercentage",
      "outputs": [],
      "payable": false,
      "stateMutability": "nonpayable",
      "type": "function"
    },
    {
      "constant": true,
      "inputs": [
        {
          "name": "_listing",
          "type": "bytes32"
        }
      ],
      "name": "isWhitelisted",
      "outputs": [
        {
          "name": "whitelisted",
          "type": "bool"
        }
      ],
      "payable": false,
      "stateMutability": "view",
      "type": "function"
    },
    {
      "constant": true,
      "inputs": [
        {
          "name": "_listing",
          "type": "bytes32"
        }
      ],
      "name": "challengeExists",
      "outputs": [
        {
          "name": "exists",
          "type": "bool"
        }
      ],
      "payable": false,
      "stateMutability": "view",
      "type": "function"
    },
    {
      "constant": true,
      "inputs": [],
      "name": "getIndexLength",
      "outputs": [
        {
          "name": "length",
          "type": "uint256"
        }
      ],
      "payable": false,
      "stateMutability": "view",
      "type": "function"
    },
    {
      "constant": true,
      "inputs": [
        {
          "name": "index",
          "type": "uint256"
        }
      ],
      "name": "getByIndex",
      "outputs": [
        {
          "name": "key",
          "type": "bytes32"
        },
        {
          "name": "contractAddress",
          "type": "address"
        }
      ],
      "payable": false,
      "stateMutability": "view",
      "type": "function"
    },
    {
      "constant": true,
      "inputs": [
        {
          "name": "_key",
          "type": "bytes32"
        }
      ],
      "name": "getByKey",
      "outputs": [
        {
          "name": "key",
          "type": "bytes32"
        },
        {
          "name": "",
          "type": "address"
        }
      ],
      "payable": false,
      "stateMutability": "view",
      "type": "function"
    },
    {
      "constant": false,
      "inputs": [
        {
          "name": "",
          "type": "address"
        },
        {
          "name": "_cachedBytes32",
          "type": "bytes32"
        },
        {
          "name": "",
          "type": "uint256"
        }
      ],
      "name": "invalidateCache",
      "outputs": [],
      "payable": false,
      "stateMutability": "nonpayable",
      "type": "function"
    },
    {
      "constant": false,
      "inputs": [
        {
          "name": "ipfsHash",
          "type": "string"
        }
      ],
      "name": "updateMetaData",
      "outputs": [],
      "payable": false,
      "stateMutability": "nonpayable",
      "type": "function"
    }
  ],
  "bytecode": "0x6060604052600060085560006009556000600a556000600b55341561002357600080fd5b60405160c08061176d83398101604052808051919060200180519190602001805191906020018051919060200180519190602001805160008054600160a060020a0319908116600160a060020a03998a16178255600180548216308b1617905560029990995560078054909916969097169590951790965550600991909155600a55600b556116b4915081906100b990396000f3006060604052600436106101455763ffffffff60e060020a60003504166301a5e3fe811461014a5780630f4c8f45146101745780631b7bbecb1461018c5780631cbcd974146101a2578063245694ad146101c75780632d883a73146101dd57806332a6519814610214578063392f37e9146102275780633ccfd60b146102b15780633d188fab146102c457806345d61ded146102e95780634a91da90146103185780634b0e21911461032e5780635cc07505146103445780636f9209691461039557806383b7113e146103b15780638cd6d2b4146103c75780638f1d3776146103e0578063bc40a2771461042c578063bd342e3614610442578063c18b8db41461045b578063de29ee68146104c0578063e1ba7d01146104d6578063e2083c18146104e9578063f4478dad14610502578063fc0c546a1461051b578063fff139cf1461052e575b600080fd5b341561015557600080fd5b610160600435610541565b604051901515815260200160405180910390f35b341561017f57600080fd5b61018a600435610559565b005b341561019757600080fd5b6101606004356106a5565b34156101ad57600080fd5b6101b56106bb565b60405190815260200160405180910390f35b34156101d257600080fd5b61018a6004356106df565b34156101e857600080fd5b6101f36004356106e4565b604051918252600160a060020a031660208201526040908101905180910390f35b341561021f57600080fd5b6101b5610713565b341561023257600080fd5b61023a610737565b60405160208082528190810183818151815260200191508051906020019080838360005b8381101561027657808201518382015260200161025e565b50505050905090810190601f1680156102a35780820380516001836020036101000a031916815260200191505b509250505060405180910390f35b34156102bc57600080fd5b61018a6107d5565b34156102cf57600080fd5b61018a600160a060020a036004351660243560443561089f565b34156102f457600080fd5b6102fc6108d9565b604051600160a060020a03909116815260200160405180910390f35b341561032357600080fd5b6101f36004356108e8565b341561033957600080fd5b61018a6004356108ee565b341561034f57600080fd5b61018a60046024813581810190830135806020601f82018190048102016040519081016040528181529291906020840183838082843750949650610b2195505050505050565b34156103a057600080fd5b61018a600435602435604435610b35565b34156103bc57600080fd5b61018a600435610cff565b34156103d257600080fd5b61018a600435602435610d04565b34156103eb57600080fd5b6103f6600435610e5c565b604051600160a060020a039094168452911515602084015260408084019190915260608301919091526080909101905180910390f35b341561043757600080fd5b61018a600435610e92565b341561044d57600080fd5b61018a60043560243561101a565b341561046657600080fd5b61047160043561102c565b604051808781526020018615151515815260200185600160a060020a0316600160a060020a03168152602001848152602001838152602001828152602001965050505050505060405180910390f35b34156104cb57600080fd5b61018a60043561106b565b34156104e157600080fd5b6101b5611070565b34156104f457600080fd5b6101b5600435602435611076565b341561050d57600080fd5b61018a600435602435611277565b341561052657600080fd5b6102fc61139d565b341561053957600080fd5b6101b56113ac565b60009081526004602052604090206001015460ff1690565b6000806000807f4355524154455f4348414c4c454e47455f524f4c45000000000000000000000061058a33826113d0565b151561059557600080fd5b60008681526004602052604090206005810154600b5491965094506064900484029250600160a060020a03331683156108fc0284604051600060405180830381858888f1935050505015156105e957600080fd5b600091505b600485015482101561066357600160066000876004018581548110151561061157fe5b600091825260208083209091015483528201929092526040019020805491151560a060020a0274ff000000000000000000000000000000000000000019909216919091179055600191909101906105ee565b600060038601557fb5fcf011cd44be27fdd6c415f3a94c64376a615e7a8df51037183c266351319e8660405190815260200160405180910390a1505050505050565b6000908152600460205260408120600301541190565b7f57495448445241575f46554e44535f524f4c450000000000000000000000000081565b600b55565b60008061070a6005848154811015156106f957fe5b9060005260206000209001546108e8565b91509150915091565b7f4355524154455f4348414c4c454e47455f524f4c45000000000000000000000081565b60038054600181600116156101000203166002900480601f0160208091040260200160405190810160405280929190818152602001828054600181600116156101000203166002900480156107cd5780601f106107a2576101008083540402835291602001916107cd565b820191906000526020600020905b8154815290600101906020018083116107b057829003601f168201915b505050505081565b60007f57495448445241575f46554e44535f524f4c450000000000000000000000000061080233826113d0565b151561080d57600080fd5b30600160a060020a031631915033600160a060020a03166108fc30600160a060020a0316319081150290604051600060405180830381858888f19350505050151561085757600080fd5b7f7084f5476618d8e60b11ef0d7d3f06914655adb8793e28ff7f018d4c76d505d53383604051600160a060020a03909216825260208201526040908101905180910390a15050565b817fd5c977477c90fd6c009dd3275798b51da8bd2df8e0a25be47773f87b53d2e39960405160405180910390a26108d4611477565b505050565b600054600160a060020a031681565b90600090565b60008060008060006108fe611538565b60007f4355524154455f4348414c4c454e47455f524f4c45000000000000000000000061092b33826113d0565b151561093657600080fd5b600089815260046020526040902060058101546002820154600b54929a50909850880396506064900487029450600160a060020a03331685156108fc0286604051600060405180830381858888f19350505050151561099457600080fd5b600093505b6004880154841015610ac9576006600089600401868154811015156109ba57fe5b9060005260206000209001548152602001908152602001600020608060405190810160409081528254600160a060020a038116835260a060020a900460ff16151560208301526001830154908201526002909101546060820152925084870391508251600160a060020a03166108fc878560400151811515610a3857fe5b0484029081150290604051600060405180830381858888f193505050501515610a6057600080fd5b6001600660008a60040187815481101515610a7757fe5b600091825260208083209091015483528201929092526040019020805491151560a060020a0274ff00000000000000000000000000000000000000001990921691909117905560019390930192610999565b600060028901819055600589015560018801805460ff191690557f45552e8036e6f0b8afe8aa1347567a847613a7095162e76bee4dfc8999c2fb528960405190815260200160405180910390a1505050505050505050565b610b2a816114ef565b610b32611477565b50565b610b3d61155f565b600954831015610b4c57600080fd5b600754600160a060020a03166323b872dd33308660006040516020015260405160e060020a63ffffffff8616028152600160a060020a0393841660048201529190921660248201526044810191909152606401602060405180830381600087803b1515610bb857600080fd5b6102c65a03f11515610bc957600080fd5b505050604051805190501515610bde57600080fd5b60e060405190810160409081528382526001602080840191909152600160a060020a033316828401526060830186905260006080840181905260a0840185905260c0840187905287815260049091522081518155602082015160018201805460ff191691151591909117905560408201518160010160016101000a815481600160a060020a030219169083600160a060020a03160217905550606082015181600201556080820151816003015560a082015181600401908051610ca5929160200190611571565b5060c0820151600590910155507f42250bbd53b824581c623c2cf50a7bc00ad03a9c3337837448819978b467328a84848460405192835260208301919091526040808301919091526060909101905180910390a150505050565b600955565b6000828152600460205260409020600181015433600160a060020a039081166101009092041614610d3457600080fd5b6002810154821115610d4557600080fd5b60095460028201548390031015610d5b57600080fd5b60095460058201548390031015610d7157600080fd5b600754600160a060020a031663a9059cbb338460006040516020015260405160e060020a63ffffffff8516028152600160a060020a0390921660048301526024820152604401602060405180830381600087803b1515610dd057600080fd5b6102c65a03f11515610de157600080fd5b505050604051805190501515610df657600080fd5b6002810180548390039081905560058201805484900390557fe8a15c36ddecf6f4f9f08bbc59f5c547485a107b6cf17d731dec04e5c637438c908490849060405192835260208301919091526040808301919091526060909101905180910390a1505050565b600660205260009081526040902080546001820154600290920154600160a060020a0382169260a060020a90920460ff16919084565b6000818152600460205260409020600181015433600160a060020a039081166101009092041614610ec257600080fd5b610ecb82610541565b1515610ed657600080fd5b600381015415610ee557600080fd5b600081600201541115610f8a5760075460018201546002830154600160a060020a039283169263a9059cbb926101009004169060006040516020015260405160e060020a63ffffffff8516028152600160a060020a0390921660048301526024820152604401602060405180830381600087803b1515610f6457600080fd5b6102c65a03f11515610f7557600080fd5b505050604051805190501515610f8a57600080fd5b6000828152600460208190526040822082815560018101805474ffffffffffffffffffffffffffffffffffffffffff1916905560028101839055600381018390559190610fd9908301826115bc565b600582016000905550507f2e6ec049d62c8a42e7cc223354aadb68d5046a2cba67ed55a089fdb852fb6cb68260405190815260200160405180910390a15050565b60009182526004602052604090912055565b60046020526000908152604090208054600182015460028301546003840154600590940154929360ff831693610100909304600160a060020a03169286565b600a55565b60055490565b600080611081611538565b600a5484101561109057600080fd5b600085815260046020526040808220600754909450600160a060020a0316916323b872dd9133913091899190516020015260405160e060020a63ffffffff8616028152600160a060020a0393841660048201529190921660248201526044810191909152606401602060405180830381600087803b151561111057600080fd5b6102c65a03f1151561112157600080fd5b50505060405180519050151561113657600080fd5b6008805460010190819055925060806040519081016040908152600160a060020a03331682526000602080840182905282840188905260608401899052868252600690522090915081908151815473ffffffffffffffffffffffffffffffffffffffff1916600160a060020a03919091161781556020820151815490151560a060020a0274ff0000000000000000000000000000000000000000199091161781556040820151816001015560608201516002909101555060038201805460019081019091556004830180549091810161120f83826115da565b506000918252602090912001839055600582018054850190557f346179119607de02d189e442e1f22c5a25ced2e8f102ddd36762a34b3d66b05685858560405192835260208301919091526040808301919091526060909101905180910390a1505092915050565b6000828152600460205260409020600181015433600160a060020a0390811661010090920416146112a757600080fd5b600754600160a060020a03166323b872dd33308560006040516020015260405160e060020a63ffffffff8616028152600160a060020a0393841660048201529190921660248201526044810191909152606401602060405180830381600087803b151561131357600080fd5b6102c65a03f1151561132457600080fd5b50505060405180519050151561133957600080fd5b600281018054830190819055600582018054840190557f7f27350fe80670682f5dc629cc881b7169e0ede96a681e843d0267bbfbb7a98b908490849060405192835260208301919091526040808301919091526060909101905180910390a1505050565b600754600160a060020a031681565b7f5550444154455f4d455441444154415f524f4c4500000000000000000000000081565b60008054600160a060020a03161580611470575060008054600160a060020a031690636d6712d8908590309086906040516020015260405160e060020a63ffffffff8616028152600160a060020a0393841660048201529190921660248201526044810191909152606401602060405180830381600087803b151561145457600080fd5b6102c65a03f1151561146557600080fd5b505050604051805190505b9392505050565b600154600254600160a060020a0390911690633d188fab906000908160405160e060020a63ffffffff8616028152600160a060020a03909316600484015260248301919091526044820152606401600060405180830381600087803b15156114de57600080fd5b6102c65a03f115156108d457600080fd5b7f5550444154455f4d455441444154415f524f4c4500000000000000000000000061151a33826113d0565b151561152557600080fd5b60038280516108d49291602001906115fe565b60806040519081016040908152600080835260208301819052908201819052606082015290565b60206040519081016040526000815290565b8280548282559060005260206000209081019282156115ac579160200282015b828111156115ac578251825591602001919060010190611591565b506115b892915061166b565b5090565b5080546000825590600052602060002090810190610b32919061166b565b8154818355818115116108d4576000838152602090206108d491810190830161166b565b828054600181600116156101000203166002900490600052602060002090601f016020900481019282601f1061163f57805160ff19168380011785556115ac565b828001600101855582156115ac57918201828111156115ac578251825591602001919060010190611591565b61168591905b808211156115b85760008155600101611671565b905600a165627a7a723058209d52f302423f2b7d7fc09381a368d93423685d22de68aa47ae0a4a9c68dd411d0029",
  "source": "pragma solidity ^0.4.11;\n\nimport \"../tokensystem/interfaces/IToken.sol\";\nimport \"../../authentication/Secured.sol\";\nimport \"../../utility/syncing/Syncable.sol\";\nimport \"../../utility/caching/Cacher.sol\";\nimport \"../../utility/caching/CachedByBytes32.sol\";\nimport \"../../utility/metadata/MetaDataContainer.sol\";\n\n\ncontract TokenCuratedRegistry is Secured, Syncable, Cacher, CachedByBytes32, MetaDataContainer {\n\n  bytes32 constant public WITHDRAW_FUNDS_ROLE = \"WITHDRAW_FUNDS_ROLE\";\n  bytes32 constant public CURATE_CHALLENGE_ROLE = \"CURATE_CHALLENGE_ROLE\";\n\n  // ------\n  // EVENTS\n  // ------\n\n  event Enlisted(bytes32 listing, uint deposit, uint price);\n  event Challenged(bytes32 listing, uint deposit, uint challengeID);\n  event Unlisted(bytes32 listing);\n  event ChallengeApproved(bytes32 listing);\n  event ChallengeDenied(bytes32 listing);\n  event Increased(bytes32 listing, uint increasedBy, uint newDeposit);\n  event Decreased(bytes32 listing, uint decreasedBy, uint newDeposit);\n  event Withdrawn(address by, uint balance);\n\n  struct Listing {\n    uint price;             // Price\n    bool whitelisted;       // Should the data appear on the listing or not\n    address owner;          // Owner of Listing\n    uint stake;             // Number of unlocked tokens with potential risk if challenged\n    uint challenges;        // Number of unresolved challenges on the listing\n    uint[] challengeIDs;    // Array of the different challenge IDs\n    uint totalStake;        // Stake with challenged stake added\n  }\n\n  struct Challenge {\n    address challenger;     // Owner of Challenge\n    bool resolved;          // Indication of if challenge is resolved\n    uint stake;             // Number of tokens at risk for either party during challenge\n    bytes32 listing;        // Listing this challenge was added to\n  }\n\n  // Maps listingHashes to associated listing data\n  mapping(bytes32 => Listing) public listings;\n  bytes32[] listingsIndex;\n\n  // Maps challenges to associated challenge data\n  mapping(uint => Challenge) public challenges;\n\n  // Global Variables\n  IToken public token;\n  uint currentChallengeID = 0;\n  uint minEnlistAmount = 0;\n  uint minChallengeAmount = 0;\n  uint adminPercentage = 0;\n\n  /**\n  @dev Contructor\n  @notice                Sets the address for token\n  @param _gateKeeper     Address of the gatekeeper\n  @param _token          Address of the token\n  */\n  function TokenCuratedRegistry(\n    bytes32 _name,\n    address _gateKeeper,\n    address _token,\n    uint _minEnlistAmount,\n    uint _minChallengeAmount,\n    uint _adminPercentage\n  )\n    Secured(_gateKeeper)\n    CachedByBytes32(_name, this)\n    public\n  {\n    token = IToken(_token);\n\n    minEnlistAmount = _minEnlistAmount;\n    minChallengeAmount = _minChallengeAmount;\n    adminPercentage = _adminPercentage;\n  }\n\n  /**\n  @notice                 Allows a seller to list data to be available for selling.\n  @notice                 Takes tokens from user.\n  @param _listing         The listing of data\n  @param _stakeAmount     The number of ERC20 tokens a user is willing to potentially stake\n  @param _price           Price of the listing\n  */\n  function enlist(bytes32 _listing, uint _stakeAmount, uint _price) external {\n    // Stake must be above a certain amount\n    require(_stakeAmount >= minEnlistAmount);\n\n    // Transfers tokens from user to Registry contract\n    require(token.transferFrom(msg.sender, this, _stakeAmount));\n\n    // Add listing to listings\n    uint[] memory empty;\n    listings[_listing] = Listing({\n      price: _price,\n      whitelisted: true,\n      owner: msg.sender,\n      stake: _stakeAmount,\n      challenges: 0,\n      challengeIDs: empty,\n      totalStake: _stakeAmount\n    });\n\n    // Event\n    Enlisted(_listing, _stakeAmount, _price);\n  }\n\n  /**\n  @notice             Allows the owner of a listing to remove the listing from the whitelist\n  @notice             Returns all tokens to the owner of the listing\n  @param _listing     The listing of a user's listing\n  */\n  function unlist(bytes32 _listing) external {\n    Listing storage listing = listings[_listing];\n\n    require(msg.sender == listing.owner);\n    require(isWhitelisted(_listing));\n\n    // Cannot exit during ongoing challenge\n    require(listing.challenges == 0);\n\n    // Transfers any remaining balance back to the owner\n    if (listing.stake > 0)\n      require(token.transfer(listing.owner, listing.stake));\n\n    delete listings[_listing]; // delete changes the whitelisted prop from true to false\n    Unlisted(_listing);\n  }\n\n  /**\n  @notice             Allows the owner of a listing to increase their unstaked deposit.\n  @param _listing     The listing of a user's application/listing\n  @param _stakeAmount The number of ERC20 tokens to increase a user's unstaked deposit\n  */\n  function increase(bytes32 _listing, uint _stakeAmount) external {\n    Listing storage listing = listings[_listing];\n\n    require(listing.owner == msg.sender);\n    require(token.transferFrom(msg.sender, this, _stakeAmount));\n\n    listing.stake += _stakeAmount;\n    listing.totalStake += _stakeAmount;\n\n    Increased(_listing, _stakeAmount, listing.stake);\n  }\n\n  /**\n  @notice             Allows the owner of a listing to decrease their unstaked deposit.\n  @notice             The listing keeps its previous status.\n  @param _listing     The listing of a user's application/listing\n  @param _stakeAmount The number of ERC20 tokens to decrease a user's unstaked deposit\n  */\n  function decrease(bytes32 _listing, uint _stakeAmount) external {\n    Listing storage listing = listings[_listing];\n\n    require(listing.owner == msg.sender);\n    require(_stakeAmount <= listing.stake);\n    require(listing.stake - _stakeAmount >= minEnlistAmount);\n    require(listing.totalStake - _stakeAmount >= minEnlistAmount);\n\n    require(token.transfer(msg.sender, _stakeAmount));\n\n    listing.stake -= _stakeAmount;\n    listing.totalStake -= _stakeAmount;\n\n    Decreased(_listing, _stakeAmount, listing.stake);\n  }\n\n  /**\n  @notice             Starts a challenge for a listing.\n  @dev                Tokens are taken from the challenger and the data seller's deposit is locked.\n  @param _listing     The listing of data.\n  @param _stakeAmount The amount the challenger wants to stake.\n  */\n  function challenge(bytes32 _listing, uint _stakeAmount) external returns (uint challengeID) {\n    require(_stakeAmount >= minChallengeAmount);\n\n    Listing storage listing = listings[_listing];\n\n    // Takes tokens from challenger\n    require(token.transferFrom(msg.sender, this, _stakeAmount));\n\n    // Keep track of challenge id\n    challengeID = currentChallengeID + 1;\n    currentChallengeID = challengeID;\n\n    // Add challenge to the challenges mapping\n    Challenge memory challenge = Challenge({\n      challenger: msg.sender,\n      stake: _stakeAmount,\n      resolved: false,\n      listing: _listing\n    });\n    challenges[challengeID] = challenge;\n\n    // Increase the number of challenges on the right listing\n    listing.challenges = listing.challenges + 1;\n    // Add challengeID to listing\n    listing.challengeIDs.push(challengeID);\n    // Add to the totalStake on a listing\n    listing.totalStake = listing.totalStake + _stakeAmount;\n\n    Challenged(_listing, _stakeAmount, challengeID);\n    return challengeID;\n  }\n\n   /**\n  @notice             Marks a challenge as resolved.\n  @notice             Rewards the winner tokens and either whitelists or de-whitelists the listing.\n  @param _listing     A listing with a challenge that is to be resolved\n  */\n  function approveChallenge(bytes32 _listing) auth(CURATE_CHALLENGE_ROLE) external {\n    Listing storage listing = listings[_listing];\n\n    uint totalStake = listing.totalStake;\n    uint totalChallengesStake = totalStake - listing.stake;\n\n    // Admin (msg.sender) should get 10% of the total sum of all challenge stakes + lising stake\n    uint adminShare = totalStake * (adminPercentage / 100);\n    msg.sender.transfer(adminShare);\n\n    // Challengers should get a percentage of the total sum of all challenge stakes + lising stake\n    // equal to their share of the total challenge stake\n    // Get all challenges that are unresolved and are linked to this listing,\n    for (uint i = 0; i < listing.challengeIDs.length; i ++) {\n      Challenge memory challenge = challenges[listing.challengeIDs[i]];\n\n      // Calculate what's left to divide between the challengers\n      uint challengerShare = totalStake - adminShare;\n      // Transfer percentage of challenge\n      challenge.challenger.transfer(challengerShare * (challenge.stake / totalChallengesStake));\n      // Set challenge as resolved\n      challenges[listing.challengeIDs[i]].resolved = true;\n    }\n\n    // Take stake from listing\n    listing.stake = 0;\n    listing.totalStake = 0;\n    // Blacklist listing\n    listing.whitelisted = false;\n\n    // Event\n    ChallengeApproved(_listing);\n  }\n\n   /**\n  @notice             Marks a challenge as denied.\n  @notice             Rewards the listing seller tokens and de-whitelists the listing.\n  @param _listing     A listing with a challenge that is to be resolved\n  */\n  function denyChallenge(bytes32 _listing) auth(CURATE_CHALLENGE_ROLE) external {\n    Listing storage listing = listings[_listing];\n\n    uint totalStake = listing.totalStake;\n\n    // Admin (msg.sender) should get 10% of the total sum of all challenge stakes + lising stake\n    uint adminShare = totalStake * (adminPercentage / 100);\n    msg.sender.transfer(adminShare);\n\n    // Transfer the rest of the stake to the data owner\n    // listing.owner.transfer(totalStake - adminShare);\n\n    // Get all challenges that are unresolved and are linked to this listing,\n    for (uint i = 0; i < listing.challengeIDs.length; i ++) {\n      // Set challenge as resolved\n      challenges[listing.challengeIDs[i]].resolved = true;\n    }\n\n    // Remove challenges on the listing\n    listing.challenges = 0;\n\n    // Event\n    ChallengeDenied(_listing);\n  }\n\n  /**\n  @dev      Withdraw all the funds from this contract\n  */\n  function withdraw() auth(WITHDRAW_FUNDS_ROLE) external {\n    uint balance = this.balance;\n    msg.sender.transfer(this.balance);\n    Withdrawn(msg.sender, balance);\n  }\n\n  /**\n  @notice                   Sets price of a listing\n  @param _listing           listing id\n  @param _price             price\n  */\n  function setListingPrice(bytes32 _listing, uint _price) external {\n    listings[_listing].price = _price;\n  }\n\n  /**\n  @notice                   Sets the minEnlistAmount\n  @param _minEnlistAmount   minEnlistAmount\n  */\n  function setMinEnlistAmount(uint _minEnlistAmount) external {\n    minEnlistAmount = _minEnlistAmount;\n  }\n\n  /**\n  @notice                     Sets the minChallengeAmount\n  @param _minChallengeAmount  minChallengeAmount\n  */\n  function setMinChallengeAmount(uint _minChallengeAmount) external {\n    minChallengeAmount = _minChallengeAmount;\n  }\n\n  /**\n  @notice                 Sets the adminPercentage\n  @param _adminPercentage adminPercentage\n  */\n  function setAdminPercentage(uint _adminPercentage) external {\n    adminPercentage = _adminPercentage;\n  }\n\n/**\n  @notice             Returns true if listing is whitelisted\n  @param _listing     The listing of a user's listing\n  */\n  function isWhitelisted(bytes32 _listing) view public returns (bool whitelisted) {\n    return listings[_listing].whitelisted;\n  }\n\n/**\n  @notice            Returns true if the application/listing has an unresolved challenge\n  @param _listing    The listing of a user's listing\n  */\n  function challengeExists(bytes32 _listing) view public returns (bool exists) {\n    return (listings[_listing].challenges > 0);\n  }\n\n  /**\n  * implementation of syncable methods\n  */\n  function getIndexLength() public view returns (uint length) {\n    length = listingsIndex.length;\n  }\n\n  function getByIndex(uint index) public view returns (bytes32 key, address contractAddress) {\n    return getByKey(listingsIndex[index]);\n  }\n\n  function getByKey(bytes32 _key) public view returns (bytes32 key, address /*contractAddress*/) {\n    key = _key;\n  }\n\n  /**\n  * implementation of cacher methods\n  */\n  function invalidateCache(address /*_cachedAddress*/, bytes32 _cachedBytes32, uint256 /*_cachedUint256*/) public {\n    Bytes32CacheInvalidated(_cachedBytes32);\n    super.invalidateCache();\n  }\n\n  /**\n  * implementation of metadata methods\n  */\n  function updateMetaData(string ipfsHash) public {\n    super.updateMetaData(ipfsHash);\n    super.invalidateCache();\n  }\n\n  /**\n  @dev                Called by updateStatus() if the applicationExpiry date passed without a challenge being made.\n  @dev                Called by resolveChallenge() if an application/listing beat a challenge.\n  @param _listing     The listing of an application/listing to be whitelisted\n  */\n  function whitelistApplication(bytes32 _listing) internal {\n    listings[_listing].whitelisted = true;\n  }\n}\n",
  "sourcePath": "@settlemint/solidity-mint/contracts/marketplaces/tokencuratedregistry/TokenCuratedRegistry.sol",
  "compiler": {
    "name": "solc",
    "version": "0.4.20+commit.3155dd80.Emscripten.clang"
  },
  "schemaVersion": "1.0.1",
  "updatedAt": "2018-02-16T15:09:00.730Z"
}