{
  "contractName": "TokenCuratedRegistry",
  "abi": [
    {
      "constant": true,
      "inputs": [],
      "name": "WITHDRAW_FUNDS_ROLE",
      "outputs": [
        {
          "name": "",
          "type": "bytes32"
        }
      ],
      "payable": false,
      "stateMutability": "view",
      "type": "function"
    },
    {
      "constant": true,
      "inputs": [],
      "name": "CURATE_CHALLENGE_ROLE",
      "outputs": [
        {
          "name": "",
          "type": "bytes32"
        }
      ],
      "payable": false,
      "stateMutability": "view",
      "type": "function"
    },
    {
      "constant": true,
      "inputs": [],
      "name": "gateKeeper",
      "outputs": [
        {
          "name": "",
          "type": "address"
        }
      ],
      "payable": false,
      "stateMutability": "view",
      "type": "function"
    },
    {
      "constant": true,
      "inputs": [
        {
          "name": "",
          "type": "address"
        }
      ],
      "name": "listings",
      "outputs": [
        {
          "name": "",
          "type": "address"
        }
      ],
      "payable": false,
      "stateMutability": "view",
      "type": "function"
    },
    {
      "constant": true,
      "inputs": [
        {
          "name": "",
          "type": "uint256"
        }
      ],
      "name": "challenges",
      "outputs": [
        {
          "name": "challenger",
          "type": "address"
        },
        {
          "name": "resolved",
          "type": "bool"
        },
        {
          "name": "stake",
          "type": "uint256"
        },
        {
          "name": "listing",
          "type": "address"
        }
      ],
      "payable": false,
      "stateMutability": "view",
      "type": "function"
    },
    {
      "constant": true,
      "inputs": [],
      "name": "token",
      "outputs": [
        {
          "name": "",
          "type": "address"
        }
      ],
      "payable": false,
      "stateMutability": "view",
      "type": "function"
    },
    {
      "constant": true,
      "inputs": [],
      "name": "listingFactory",
      "outputs": [
        {
          "name": "",
          "type": "address"
        }
      ],
      "payable": false,
      "stateMutability": "view",
      "type": "function"
    },
    {
      "inputs": [
        {
          "name": "_name",
          "type": "bytes32"
        },
        {
          "name": "_gateKeeper",
          "type": "address"
        },
        {
          "name": "_token",
          "type": "address"
        },
        {
          "name": "_listingFactory",
          "type": "address"
        },
        {
          "name": "_minEnlistAmount",
          "type": "uint256"
        },
        {
          "name": "_minChallengeAmount",
          "type": "uint256"
        },
        {
          "name": "_adminPercentage",
          "type": "uint256"
        }
      ],
      "payable": false,
      "stateMutability": "nonpayable",
      "type": "constructor"
    },
    {
      "anonymous": false,
      "inputs": [
        {
          "indexed": false,
          "name": "listing",
          "type": "address"
        },
        {
          "indexed": false,
          "name": "stake",
          "type": "uint256"
        },
        {
          "indexed": false,
          "name": "price",
          "type": "uint256"
        }
      ],
      "name": "Enlisted",
      "type": "event"
    },
    {
      "anonymous": false,
      "inputs": [
        {
          "indexed": false,
          "name": "listing",
          "type": "address"
        },
        {
          "indexed": false,
          "name": "stake",
          "type": "uint256"
        },
        {
          "indexed": false,
          "name": "challengeID",
          "type": "uint256"
        }
      ],
      "name": "Challenged",
      "type": "event"
    },
    {
      "anonymous": false,
      "inputs": [
        {
          "indexed": false,
          "name": "listing",
          "type": "address"
        }
      ],
      "name": "Unlisted",
      "type": "event"
    },
    {
      "anonymous": false,
      "inputs": [
        {
          "indexed": false,
          "name": "listing",
          "type": "address"
        }
      ],
      "name": "ChallengeApproved",
      "type": "event"
    },
    {
      "anonymous": false,
      "inputs": [
        {
          "indexed": false,
          "name": "listing",
          "type": "address"
        }
      ],
      "name": "ChallengeDenied",
      "type": "event"
    },
    {
      "anonymous": false,
      "inputs": [
        {
          "indexed": false,
          "name": "listing",
          "type": "address"
        },
        {
          "indexed": false,
          "name": "increasedBy",
          "type": "uint256"
        },
        {
          "indexed": false,
          "name": "newStake",
          "type": "uint256"
        }
      ],
      "name": "Increased",
      "type": "event"
    },
    {
      "anonymous": false,
      "inputs": [
        {
          "indexed": false,
          "name": "listing",
          "type": "address"
        },
        {
          "indexed": false,
          "name": "decreasedBy",
          "type": "uint256"
        },
        {
          "indexed": false,
          "name": "newStake",
          "type": "uint256"
        }
      ],
      "name": "Decreased",
      "type": "event"
    },
    {
      "anonymous": false,
      "inputs": [
        {
          "indexed": false,
          "name": "by",
          "type": "address"
        },
        {
          "indexed": false,
          "name": "balance",
          "type": "uint256"
        }
      ],
      "name": "Withdrawn",
      "type": "event"
    },
    {
      "anonymous": false,
      "inputs": [
        {
          "indexed": true,
          "name": "key",
          "type": "address"
        }
      ],
      "name": "AddressCacheInvalidated",
      "type": "event"
    },
    {
      "anonymous": false,
      "inputs": [
        {
          "indexed": true,
          "name": "key",
          "type": "bytes32"
        }
      ],
      "name": "Bytes32CacheInvalidated",
      "type": "event"
    },
    {
      "anonymous": false,
      "inputs": [
        {
          "indexed": true,
          "name": "key",
          "type": "uint256"
        }
      ],
      "name": "Uint256CacheInvalidated",
      "type": "event"
    },
    {
      "constant": false,
      "inputs": [
        {
          "name": "_stakeAmount",
          "type": "uint256"
        },
        {
          "name": "_price",
          "type": "uint256"
        },
        {
          "name": "_metadata",
          "type": "string"
        }
      ],
      "name": "enlist",
      "outputs": [],
      "payable": false,
      "stateMutability": "nonpayable",
      "type": "function"
    },
    {
      "constant": false,
      "inputs": [
        {
          "name": "_listing",
          "type": "address"
        }
      ],
      "name": "addListing",
      "outputs": [],
      "payable": false,
      "stateMutability": "nonpayable",
      "type": "function"
    },
    {
      "constant": false,
      "inputs": [
        {
          "name": "_listing",
          "type": "address"
        }
      ],
      "name": "unlist",
      "outputs": [],
      "payable": false,
      "stateMutability": "nonpayable",
      "type": "function"
    },
    {
      "constant": false,
      "inputs": [
        {
          "name": "_listing",
          "type": "address"
        },
        {
          "name": "_stakeAmount",
          "type": "uint256"
        }
      ],
      "name": "increase",
      "outputs": [],
      "payable": false,
      "stateMutability": "nonpayable",
      "type": "function"
    },
    {
      "constant": false,
      "inputs": [
        {
          "name": "_listing",
          "type": "address"
        },
        {
          "name": "_stakeAmount",
          "type": "uint256"
        }
      ],
      "name": "decrease",
      "outputs": [],
      "payable": false,
      "stateMutability": "nonpayable",
      "type": "function"
    },
    {
      "constant": false,
      "inputs": [
        {
          "name": "_listing",
          "type": "address"
        },
        {
          "name": "_stakeAmount",
          "type": "uint256"
        }
      ],
      "name": "challenge",
      "outputs": [
        {
          "name": "challengeID",
          "type": "uint256"
        }
      ],
      "payable": false,
      "stateMutability": "nonpayable",
      "type": "function"
    },
    {
      "constant": false,
      "inputs": [
        {
          "name": "_listing",
          "type": "address"
        }
      ],
      "name": "approveChallenge",
      "outputs": [],
      "payable": false,
      "stateMutability": "nonpayable",
      "type": "function"
    },
    {
      "constant": false,
      "inputs": [
        {
          "name": "_listing",
          "type": "address"
        }
      ],
      "name": "denyChallenge",
      "outputs": [],
      "payable": false,
      "stateMutability": "nonpayable",
      "type": "function"
    },
    {
      "constant": false,
      "inputs": [],
      "name": "withdraw",
      "outputs": [],
      "payable": false,
      "stateMutability": "nonpayable",
      "type": "function"
    },
    {
      "constant": false,
      "inputs": [
        {
          "name": "_listing",
          "type": "address"
        },
        {
          "name": "_price",
          "type": "uint256"
        }
      ],
      "name": "setListingPrice",
      "outputs": [],
      "payable": false,
      "stateMutability": "nonpayable",
      "type": "function"
    },
    {
      "constant": false,
      "inputs": [
        {
          "name": "_minEnlistAmount",
          "type": "uint256"
        }
      ],
      "name": "setMinEnlistAmount",
      "outputs": [],
      "payable": false,
      "stateMutability": "nonpayable",
      "type": "function"
    },
    {
      "constant": false,
      "inputs": [
        {
          "name": "_minChallengeAmount",
          "type": "uint256"
        }
      ],
      "name": "setMinChallengeAmount",
      "outputs": [],
      "payable": false,
      "stateMutability": "nonpayable",
      "type": "function"
    },
    {
      "constant": false,
      "inputs": [
        {
          "name": "_adminPercentage",
          "type": "uint256"
        }
      ],
      "name": "setAdminPercentage",
      "outputs": [],
      "payable": false,
      "stateMutability": "nonpayable",
      "type": "function"
    },
    {
      "constant": true,
      "inputs": [
        {
          "name": "_listing",
          "type": "address"
        }
      ],
      "name": "isWhitelisted",
      "outputs": [
        {
          "name": "whitelisted",
          "type": "bool"
        }
      ],
      "payable": false,
      "stateMutability": "view",
      "type": "function"
    },
    {
      "constant": true,
      "inputs": [
        {
          "name": "_listing",
          "type": "address"
        }
      ],
      "name": "challengeExists",
      "outputs": [
        {
          "name": "exists",
          "type": "bool"
        }
      ],
      "payable": false,
      "stateMutability": "view",
      "type": "function"
    },
    {
      "constant": true,
      "inputs": [],
      "name": "getIndexLength",
      "outputs": [
        {
          "name": "length",
          "type": "uint256"
        }
      ],
      "payable": false,
      "stateMutability": "view",
      "type": "function"
    },
    {
      "constant": true,
      "inputs": [
        {
          "name": "index",
          "type": "uint256"
        }
      ],
      "name": "getByIndex",
      "outputs": [
        {
          "name": "contractAddress",
          "type": "address"
        }
      ],
      "payable": false,
      "stateMutability": "view",
      "type": "function"
    },
    {
      "constant": true,
      "inputs": [
        {
          "name": "_key",
          "type": "address"
        }
      ],
      "name": "getByKey",
      "outputs": [
        {
          "name": "contractAddress",
          "type": "address"
        }
      ],
      "payable": false,
      "stateMutability": "view",
      "type": "function"
    },
    {
      "constant": false,
      "inputs": [
        {
          "name": "",
          "type": "address"
        },
        {
          "name": "_cachedBytes32",
          "type": "bytes32"
        },
        {
          "name": "",
          "type": "uint256"
        }
      ],
      "name": "invalidateCache",
      "outputs": [],
      "payable": false,
      "stateMutability": "nonpayable",
      "type": "function"
    }
  ],
  "bytecode": "0x606060405260006009556000600a556000600b556000600c55341561002357600080fd5b60405160e0806125098339810160405280805191906020018051919060200180519190602001805191906020018051919060200180519190602001805160008054600160a060020a03998a16600160a060020a0319918216811790925560018054308c1690831617905560029a909a5560068054988a16988b169890981790975560078054969098169589169590951790965550600a91909155600b55600c5560088054909316179091555061242b806100de6000396000f30060606040526004361061013a5763ffffffff60e060020a6000350416631cbcd974811461013f578063236b237c14610164578063245694ad1461018c5780632d883a73146101a257806332a65198146101d45780633af32abf146101e75780633ccfd60b1461021a5780633d188fab1461022d57806345d61ded146102525780634987703814610265578063522afaec1461028457806359d5da89146102a657806365d96c82146102c55780636eefcab9146102e457806383b7113e146103035780638f1d37761461031957806392f60b961461036357806399b6c1c614610382578063acb99828146103a1578063afc2a968146103c3578063bde3672d146103e5578063de29ee6814610404578063e1ba7d011461041a578063f27ac4d91461042d578063fc0c546a1461044f578063fe8cde3414610462575b600080fd5b341561014a57600080fd5b610152610475565b60405190815260200160405180910390f35b341561016f57600080fd5b61018a60048035906024803591604435918201910135610499565b005b341561019757600080fd5b61018a6004356105e7565b34156101ad57600080fd5b6101b86004356105ec565b604051600160a060020a03909116815260200160405180910390f35b34156101df57600080fd5b610152610620565b34156101f257600080fd5b610206600160a060020a0360043516610644565b604051901515815260200160405180910390f35b341561022557600080fd5b61018a6106c1565b341561023857600080fd5b61018a600160a060020a03600435166024356044356107c7565b341561025d57600080fd5b6101b8610801565b341561027057600080fd5b6101b8600160a060020a0360043516610810565b341561028f57600080fd5b61018a600160a060020a036004351660243561082e565b34156102b157600080fd5b61018a600160a060020a0360043516610ae2565b34156102d057600080fd5b6101b8600160a060020a0360043516610c7a565b34156102ef57600080fd5b610206600160a060020a0360043516610c95565b341561030e57600080fd5b61018a600435610d14565b341561032457600080fd5b61032f600435610d19565b604051600160a060020a03948516815292151560208401526040808401929092529092166060820152608001905180910390f35b341561036e57600080fd5b61018a600160a060020a0360043516610d51565b341561038d57600080fd5b61018a600160a060020a03600435166112e0565b34156103ac57600080fd5b610152600160a060020a0360043516602435611742565b34156103ce57600080fd5b61018a600160a060020a0360043516602435611b29565b34156103f057600080fd5b61018a600160a060020a0360043516611bc1565b341561040f57600080fd5b61018a600435611f3e565b341561042557600080fd5b610152611f43565b341561043857600080fd5b61018a600160a060020a0360043516602435611f49565b341561045a57600080fd5b6101b8612224565b341561046d57600080fd5b6101b8612233565b7f57495448445241575f46554e44535f524f4c450000000000000000000000000081565b600a548410156104a857600080fd5b600654600160a060020a03166323b872dd33308760006040516020015260405160e060020a63ffffffff8616028152600160a060020a0393841660048201529190921660248201526044810191909152606401602060405180830381600087803b151561051457600080fd5b6102c65a03f1151561052557600080fd5b50505060405180519050151561053a57600080fd5b600754600160a060020a03166335012d7e33858730878760405160e060020a63ffffffff8916028152600160a060020a03808816600483019081526024830188905260448301879052908516606483015260a06084830190815260a48301849052909160c4018484808284378201915050975050505050505050600060405180830381600087803b15156105cd57600080fd5b6102c65a03f115156105de57600080fd5b50505050505050565b600c55565b600061061a60048381548110151561060057fe5b600091825260209091200154600160a060020a0316610810565b92915050565b7f4355524154455f4348414c4c454e47455f524f4c45000000000000000000000081565b600160a060020a038082166000908152600360205260408082205491929190911690633d9287fa90839051602001526040518163ffffffff1660e060020a028152600401602060405180830381600087803b15156106a157600080fd5b6102c65a03f115156106b257600080fd5b50505060405180519392505050565b60007f57495448445241575f46554e44535f524f4c45000000000000000000000000006106ee3382612242565b15156106f957600080fd5b600654600160a060020a033081168031945091169063a9059cbb9033903160006040516020015260405160e060020a63ffffffff8516028152600160a060020a0390921660048301526024820152604401602060405180830381600087803b151561076357600080fd5b6102c65a03f1151561077457600080fd5b50505060405180519050507f7084f5476618d8e60b11ef0d7d3f06914655adb8793e28ff7f018d4c76d505d53383604051600160a060020a03909216825260208201526040908101905180910390a15050565b817fd5c977477c90fd6c009dd3275798b51da8bd2df8e0a25be47773f87b53d2e39960405160405180910390a26107fc6122e9565b505050565b600054600160a060020a031681565b600160a060020a039081166000908152600360205260409020541690565b600160a060020a03808316600090815260036020526040808220548316923316918391638da5cb5b919051602001526040518163ffffffff1660e060020a028152600401602060405180830381600087803b151561088b57600080fd5b6102c65a03f1151561089c57600080fd5b50505060405180519050600160a060020a03161415156108bb57600080fd5b600654600160a060020a03166323b872dd33308560006040516020015260405160e060020a63ffffffff8616028152600160a060020a0393841660048201529190921660248201526044810191909152606401602060405180830381600087803b151561092757600080fd5b6102c65a03f1151561093857600080fd5b50505060405180519050151561094d57600080fd5b600160a060020a0381166335d9db538382633a4b66f16000604051602001526040518163ffffffff1660e060020a028152600401602060405180830381600087803b151561099a57600080fd5b6102c65a03f115156109ab57600080fd5b505050604051805190500160405160e060020a63ffffffff84160281526004810191909152602401600060405180830381600087803b15156109ec57600080fd5b6102c65a03f115156109fd57600080fd5b5050507f8b05844824acf2db2f068e4006ef99b307ca4fe1a896d06e884700f1a9da3a6d838383600160a060020a0316633a4b66f16000604051602001526040518163ffffffff1660e060020a028152600401602060405180830381600087803b1515610a6957600080fd5b6102c65a03f11515610a7a57600080fd5b505050604051805190506040518084600160a060020a0316600160a060020a03168152602001838152602001828152602001935050505060405180910390a182600160a060020a03166000805160206123e083398151915260405160405180910390a2505050565b600160a060020a0381166000818152600360205260409020805473ffffffffffffffffffffffffffffffffffffffff191690911790556004805482919060018101610b2d8382612373565b5060009182526020822001805473ffffffffffffffffffffffffffffffffffffffff1916600160a060020a03858116919091179091557f7583fed51a2ab4e582c68d93e281e0fcc2601ef4a7491d1d2d2dc511f6a91279918491841690633a4b66f190604051602001526040518163ffffffff1660e060020a028152600401602060405180830381600087803b1515610bc557600080fd5b6102c65a03f11515610bd657600080fd5b5050506040518051905083600160a060020a031663a035b1fe6000604051602001526040518163ffffffff1660e060020a028152600401602060405180830381600087803b1515610c2657600080fd5b6102c65a03f11515610c3757600080fd5b505050604051805190506040518084600160a060020a0316600160a060020a03168152602001838152602001828152602001935050505060405180910390a15050565b600360205260009081526040902054600160a060020a031681565b600160a060020a03808216600090815260036020526040808220549192839216906309af4fe690839051602001526040518163ffffffff1660e060020a028152600401602060405180830381600087803b1515610cf157600080fd5b6102c65a03f11515610d0257600080fd5b50505060405180519050119050919050565b600a55565b600560205260009081526040902080546001820154600290920154600160a060020a038083169360a060020a90930460ff1692911684565b600080600080610d5f612397565b60007f4355524154455f4348414c4c454e47455f524f4c450000000000000000000000610d8c3382612242565b1515610d9757600080fd5b600160a060020a03808916600090815260036020526040808220549092169850889163605cba82919051602001526040518163ffffffff1660e060020a028152600401602060405180830381600087803b1515610df357600080fd5b6102c65a03f11515610e0457600080fd5b5050506040518051600c546006549198506064900488029650600160a060020a0316905063a9059cbb338760006040516020015260405160e060020a63ffffffff8516028152600160a060020a0390921660048301526024820152604401602060405180830381600087803b1515610e7b57600080fd5b6102c65a03f11515610e8c57600080fd5b50505060405180515060009450505b86600160a060020a03166333a2cc016000604051602001526040518163ffffffff1660e060020a028152600401602060405180830381600087803b1515610ee157600080fd5b6102c65a03f11515610ef257600080fd5b50505060405180519050841015611109576005600088600160a060020a031663c32e11028760006040516020015260405160e060020a63ffffffff84160281526004810191909152602401602060405180830381600087803b1515610f5657600080fd5b6102c65a03f11515610f6757600080fd5b505050604051805190508152602001908152602001600020608060405190810160409081528254600160a060020a03808216845260a060020a90910460ff16151560208401526001840154918301919091526002909201548216606082015260065490945086880393501663a9059cbb8451888660400151811515610fe857fe5b04850260006040516020015260405160e060020a63ffffffff8516028152600160a060020a0390921660048301526024820152604401602060405180830381600087803b151561103757600080fd5b6102c65a03f1151561104857600080fd5b505050604051805190505060016005600089600160a060020a031663c32e11028860006040516020015260405160e060020a63ffffffff84160281526004810191909152602401602060405180830381600087803b15156110a857600080fd5b6102c65a03f115156110b957600080fd5b50505060405180518252506020810191909152604001600020805491151560a060020a0274ff00000000000000000000000000000000000000001990921691909117905560019390930192610e9b565b86600160a060020a03166335d9db53600060405160e060020a63ffffffff84160281526004810191909152602401600060405180830381600087803b151561115057600080fd5b6102c65a03f1151561116157600080fd5b50505086600160a060020a0316636de149f5600060405160e060020a63ffffffff84160281526004810191909152602401600060405180830381600087803b15156111ab57600080fd5b6102c65a03f115156111bc57600080fd5b50505086600160a060020a03166331ec7fce600060405160e060020a63ffffffff84160281526004810191909152602401600060405180830381600087803b151561120657600080fd5b6102c65a03f1151561121757600080fd5b50505086600160a060020a0316637b789204600060405160e060020a63ffffffff84160281529015156004820152602401600060405180830381600087803b151561126157600080fd5b6102c65a03f1151561127257600080fd5b5050507f9d9f99a36ef64966814c1f89a7a64fcb0132cbd085184a9666469302f32b92c488604051600160a060020a03909116815260200160405180910390a187600160a060020a03166000805160206123e083398151915260405160405180910390a25050505050505050565b6000806000807f4355524154455f4348414c4c454e47455f524f4c4500000000000000000000006113113382612242565b151561131c57600080fd5b600160a060020a03808716600090815260036020526040808220549092169650869163605cba82919051602001526040518163ffffffff1660e060020a028152600401602060405180830381600087803b151561137857600080fd5b6102c65a03f1151561138957600080fd5b5050506040518051600c546006549196506064900486029450600160a060020a0316905063a9059cbb338560006040516020015260405160e060020a63ffffffff8516028152600160a060020a0390921660048301526024820152604401602060405180830381600087803b151561140057600080fd5b6102c65a03f1151561141157600080fd5b50505060405180515050600654600160a060020a039081169063a9059cbb908716638da5cb5b6000604051602001526040518163ffffffff1660e060020a028152600401602060405180830381600087803b151561146e57600080fd5b6102c65a03f1151561147f57600080fd5b50505060405180519050611499878763ffffffff61236116565b60006040516020015260405160e060020a63ffffffff8516028152600160a060020a0390921660048301526024820152604401602060405180830381600087803b15156114e557600080fd5b6102c65a03f115156114f657600080fd5b50505060405180515060009250505b84600160a060020a03166333a2cc016000604051602001526040518163ffffffff1660e060020a028152600401602060405180830381600087803b151561154b57600080fd5b6102c65a03f1151561155c57600080fd5b505050604051805190508210156116235760016005600087600160a060020a031663c32e11028660006040516020015260405160e060020a63ffffffff84160281526004810191909152602401602060405180830381600087803b15156115c257600080fd5b6102c65a03f115156115d357600080fd5b50505060405180518252506020810191909152604001600020805491151560a060020a0274ff00000000000000000000000000000000000000001990921691909117905560019190910190611505565b84600160a060020a03166331ec7fce600060405160e060020a63ffffffff84160281526004810191909152602401600060405180830381600087803b151561166a57600080fd5b6102c65a03f1151561167b57600080fd5b50505084600160a060020a0316636de149f5600060405160e060020a63ffffffff84160281526004810191909152602401600060405180830381600087803b15156116c557600080fd5b6102c65a03f115156116d657600080fd5b5050507f125014e75e2aead4a1c8a35e9bb786a430fc1ba6354cbd9845802d3603abd0b086604051600160a060020a03909116815260200160405180910390a185600160a060020a03166000805160206123e083398151915260405160405180910390a2505050505050565b60008061174d612397565b600b5484101561175c57600080fd5b600160a060020a03808616600090815260036020526040808220546006549084169550909216916323b872dd91339130918991516020015260405160e060020a63ffffffff8616028152600160a060020a0393841660048201529190921660248201526044810191909152606401602060405180830381600087803b15156117e357600080fd5b6102c65a03f115156117f457600080fd5b50505060405180519050151561180957600080fd5b6009805460010190819055925060806040519081016040908152600160a060020a03338116835260006020808501829052838501899052918916606085015286815260059091522090915081908151815473ffffffffffffffffffffffffffffffffffffffff1916600160a060020a03919091161781556020820151815490151560a060020a0274ff000000000000000000000000000000000000000019909116178155604082015181600101556060820151600291909101805473ffffffffffffffffffffffffffffffffffffffff1916600160a060020a03928316179055831690506331ec7fce816309af4fe66000604051602001526040518163ffffffff1660e060020a028152600401602060405180830381600087803b151561192f57600080fd5b6102c65a03f1151561194057600080fd5b5050506040518051905060010160405160e060020a63ffffffff84160281526004810191909152602401600060405180830381600087803b151561198357600080fd5b6102c65a03f1151561199457600080fd5b50505081600160a060020a03166332fd14418460405160e060020a63ffffffff84160281526004810191909152602401600060405180830381600087803b15156119dd57600080fd5b6102c65a03f115156119ee57600080fd5b505050600160a060020a038216636de149f5858263605cba826000604051602001526040518163ffffffff1660e060020a028152600401602060405180830381600087803b1515611a3e57600080fd5b6102c65a03f11515611a4f57600080fd5b505050604051805190500160405160e060020a63ffffffff84160281526004810191909152602401600060405180830381600087803b1515611a9057600080fd5b6102c65a03f11515611aa157600080fd5b5050507fe0c6c1f959ea19af04f1a1862f00c826f9aab9ca9ed5fe3798051f78560bee3a8585856040518084600160a060020a0316600160a060020a03168152602001838152602001828152602001935050505060405180910390a184600160a060020a03166000805160206123e083398151915260405160405180910390a2505092915050565b600160a060020a038083166000908152600360205260409081902054909116906391b7f5ed9083905160e060020a63ffffffff84160281526004810191909152602401600060405180830381600087803b1515611b8557600080fd5b6102c65a03f11515611b9657600080fd5b50505081600160a060020a03166000805160206123e083398151915260405160405180910390a25050565b600160a060020a0380821660009081526003602052604080822054909216918291638da5cb5b9151602001526040518163ffffffff1660e060020a028152600401602060405180830381600087803b1515611c1b57600080fd5b6102c65a03f11515611c2c57600080fd5b50505060405180519050600160a060020a031633600160a060020a0316141515611c5557600080fd5b611c5e82610644565b1515611c6957600080fd5b80600160a060020a03166309af4fe66000604051602001526040518163ffffffff1660e060020a028152600401602060405180830381600087803b1515611caf57600080fd5b6102c65a03f11515611cc057600080fd5b5050506040518051159050611cd457600080fd5b600081600160a060020a0316633a4b66f16000604051602001526040518163ffffffff1660e060020a028152600401602060405180830381600087803b1515611d1c57600080fd5b6102c65a03f11515611d2d57600080fd5b505050604051805190501115611e7e57600654600160a060020a039081169063a9059cbb908316638da5cb5b6000604051602001526040518163ffffffff1660e060020a028152600401602060405180830381600087803b1515611d9057600080fd5b6102c65a03f11515611da157600080fd5b5050506040518051905083600160a060020a0316633a4b66f16000604051602001526040518163ffffffff1660e060020a028152600401602060405180830381600087803b1515611df157600080fd5b6102c65a03f11515611e0257600080fd5b5050506040518051905060006040516020015260405160e060020a63ffffffff8516028152600160a060020a0390921660048301526024820152604401602060405180830381600087803b1515611e5857600080fd5b6102c65a03f11515611e6957600080fd5b505050604051805190501515611e7e57600080fd5b80600160a060020a0316637b789204600060405160e060020a63ffffffff84160281529015156004820152602401600060405180830381600087803b1515611ec557600080fd5b6102c65a03f11515611ed657600080fd5b5050507fc48322c2e165c864176005884983dd81c87a9fc8258ca6a1967d17b26cd8d0e382604051600160a060020a03909116815260200160405180910390a181600160a060020a03166000805160206123e083398151915260405160405180910390a25050565b600b55565b60045490565b600160a060020a0380831660009081526003602052604080822054909216918290633a4b66f190839051602001526040518163ffffffff1660e060020a028152600401602060405180830381600087803b1515611fa557600080fd5b6102c65a03f11515611fb657600080fd5b50505060405180519050905033600160a060020a031682600160a060020a0316638da5cb5b6000604051602001526040518163ffffffff1660e060020a028152600401602060405180830381600087803b151561201257600080fd5b6102c65a03f1151561202357600080fd5b50505060405180519050600160a060020a031614151561204257600080fd5b8083111561204f57600080fd5b600a54838203101561206057600080fd5b600654600160a060020a031663a9059cbb338560006040516020015260405160e060020a63ffffffff8516028152600160a060020a0390921660048301526024820152604401602060405180830381600087803b15156120bf57600080fd5b6102c65a03f115156120d057600080fd5b5050506040518051905015156120e557600080fd5b81600160a060020a03166335d9db5384830360405160e060020a63ffffffff84160281526004810191909152602401600060405180830381600087803b151561212d57600080fd5b6102c65a03f1151561213e57600080fd5b5050507f5ee9537083cb767f9e599a17876a9c597197deba435082e0b88c4da925d4599e848484600160a060020a0316633a4b66f16000604051602001526040518163ffffffff1660e060020a028152600401602060405180830381600087803b15156121aa57600080fd5b6102c65a03f115156121bb57600080fd5b505050604051805190506040518084600160a060020a0316600160a060020a03168152602001838152602001828152602001935050505060405180910390a183600160a060020a03166000805160206123e083398151915260405160405180910390a250505050565b600654600160a060020a031681565b600754600160a060020a031681565b60008054600160a060020a031615806122e2575060008054600160a060020a031690636d6712d8908590309086906040516020015260405160e060020a63ffffffff8616028152600160a060020a0393841660048201529190921660248201526044810191909152606401602060405180830381600087803b15156122c657600080fd5b6102c65a03f115156122d757600080fd5b505050604051805190505b9392505050565b600154600254600160a060020a0390911690633d188fab906000908160405160e060020a63ffffffff8616028152600160a060020a03909316600484015260248301919091526044820152606401600060405180830381600087803b151561235057600080fd5b6102c65a03f115156107fc57600080fd5b60008282111561236d57fe5b50900390565b8154818355818115116107fc576000838152602090206107fc9181019083016123be565b60806040519081016040908152600080835260208301819052908201819052606082015290565b6123dc91905b808211156123d857600081556001016123c4565b5090565b9056002130e02bc65616aa7f8f548960f51a08a1d0ea94efb33611412208c2d0306a22a165627a7a7230582069bcdb83136ac36b17d90964c9b132585a004cea3f85ae05d4fb9efba7b6a8420029",
  "source": "pragma solidity ^0.4.20;\n\nimport \"./interfaces/IListing.sol\";\nimport \"./interfaces/IListingFactory.sol\";\nimport \"../tokensystem/interfaces/IToken.sol\";\nimport \"../../authentication/Secured.sol\";\nimport \"../../utility/syncing/Syncable.sol\";\nimport \"../../utility/caching/Cacher.sol\";\nimport \"../../utility/caching/CachedByBytes32.sol\";\nimport \"../../utility/metadata/MetaDataContainer.sol\";\nimport \"zeppelin-solidity/contracts/math/SafeMath.sol\";\n\n\ncontract TokenCuratedRegistry is Secured, Syncable, Cacher, CachedByBytes32 {\n  using SafeMath for uint256;\n\n  bytes32 constant public WITHDRAW_FUNDS_ROLE = \"WITHDRAW_FUNDS_ROLE\";\n  bytes32 constant public CURATE_CHALLENGE_ROLE = \"CURATE_CHALLENGE_ROLE\";\n\n  // ------\n  // EVENTS\n  // ------\n\n  event Enlisted(address listing, uint stake, uint price);\n  event Challenged(address listing, uint stake, uint challengeID);\n  event Unlisted(address listing);\n  event ChallengeApproved(address listing);\n  event ChallengeDenied(address listing);\n  event Increased(address listing, uint increasedBy, uint newStake);\n  event Decreased(address listing, uint decreasedBy, uint newStake);\n  event Withdrawn(address by, uint balance);\n\n  struct Challenge {\n    address challenger;     // Owner of Challenge\n    bool resolved;          // Indication of if challenge is resolved\n    uint stake;             // Number of tokens at risk for either party during challenge\n    address listing;        // Listing this challenge was added to\n  }\n\n  // Maps listingHashes to associated listing data\n  mapping(address => IListing) public listings;\n  address[] listingsIndex;\n\n  // Maps challenges to associated challenge data\n  mapping(uint => Challenge) public challenges;\n\n  // Global Variables\n  IToken public token;\n  IListingFactory public listingFactory;\n  address gateKeeper;\n  uint currentChallengeID = 0;\n  uint minEnlistAmount = 0;\n  uint minChallengeAmount = 0;\n  uint adminPercentage = 0;\n\n  /**\n  @dev Contructor\n  @notice                Sets the address for token\n  @param _gateKeeper     Address of the gatekeeper\n  @param _token          Address of the token\n  */\n  function TokenCuratedRegistry(\n    bytes32 _name,\n    address _gateKeeper,\n    address _token,\n    address _listingFactory,\n    uint _minEnlistAmount,\n    uint _minChallengeAmount,\n    uint _adminPercentage\n  )\n    Secured(_gateKeeper)\n    CachedByBytes32(_name, this)\n    public\n  {\n    token = IToken(_token);\n    listingFactory = IListingFactory(_listingFactory);\n\n    minEnlistAmount = _minEnlistAmount;\n    minChallengeAmount = _minChallengeAmount;\n    adminPercentage = _adminPercentage;\n    gateKeeper = _gateKeeper;\n  }\n\n  /**\n  @notice                 Allows a seller to list data to be available for selling.\n  @notice                 Takes tokens from user.\n  @param _stakeAmount     The number of ERC20 tokens a user is willing to potentially stake\n  @param _price           Price of the listing\n  @param _metadata        Metadata\n  */\n  function enlist(uint _stakeAmount, uint _price, string _metadata) external {\n    // Stake must be above a certain amount\n    require(_stakeAmount >= minEnlistAmount);\n\n    // Transfers tokens from user to Registry contract\n    require(token.transferFrom(msg.sender, this, _stakeAmount));\n\n    // Add listing to listings\n    listingFactory.createListing(\n      msg.sender,\n      _price,\n      _stakeAmount,\n      this,\n      _metadata\n    );\n  }\n\n  /**\n  @notice                 Listing is added through the factory\n  @param _listing         Address of the added listing\n  */\n  function addListing(address _listing) external {\n    IListing listing = IListing(_listing);\n    listings[_listing] = listing;\n    listingsIndex.push(_listing);\n\n    // Event\n    Enlisted(_listing, listing.stake(), listing.price());\n  }\n\n  /**\n  @notice             Allows the owner of a listing to remove the listing from the whitelist\n  @notice             Returns all tokens to the owner of the listing\n  @param _listing     The listing of a user's listing\n  */\n  function unlist(address _listing) external {\n    IListing listing = listings[_listing];\n\n    require(msg.sender == listing.owner());\n    require(isWhitelisted(_listing));\n\n    // Cannot exit during ongoing challenge\n    require(listing.challenges() == 0);\n\n    // Transfers any remaining balance back to the owner\n    if (listing.stake() > 0)\n      require(token.transfer(listing.owner(), listing.stake()));\n\n    // Blacklist\n    listing.setWhitelisted(false);\n    Unlisted(_listing);\n    AddressCacheInvalidated(_listing);\n  }\n\n  /**\n  @notice             Allows the owner of a listing to increase their unstaked deposit.\n  @param _listing     The listing of a user's application/listing\n  @param _stakeAmount The number of ERC20 tokens to increase a user's unstaked deposit\n  */\n  function increase(address _listing, uint _stakeAmount) external {\n    IListing listing = listings[_listing];\n\n    require(listing.owner() == msg.sender);\n    require(token.transferFrom(msg.sender, this, _stakeAmount));\n\n    listing.setStake(listing.stake() + _stakeAmount);\n\n    Increased(_listing, _stakeAmount, listing.stake());\n    AddressCacheInvalidated(_listing);\n  }\n\n  /**\n  @notice             Allows the owner of a listing to decrease their unstaked deposit.\n  @notice             The listing keeps its previous status.\n  @param _listing     The listing of a user's application/listing\n  @param _stakeAmount The number of ERC20 tokens to decrease a user's unstaked deposit\n  */\n  function decrease(address _listing, uint _stakeAmount) external {\n    IListing listing = listings[_listing];\n\n    uint stake = listing.stake();\n\n    require(listing.owner() == msg.sender);\n    require(_stakeAmount <= stake);\n    require(stake - _stakeAmount >= minEnlistAmount);\n\n    require(token.transfer(msg.sender, _stakeAmount));\n\n    listing.setStake(stake - _stakeAmount);\n\n    Decreased(_listing, _stakeAmount, listing.stake());\n    AddressCacheInvalidated(_listing);\n  }\n\n  /**\n  @notice             Starts a challenge for a listing.\n  @dev                Tokens are taken from the challenger and the data seller's deposit is locked.\n  @param _listing     The listing of data.\n  @param _stakeAmount The amount the challenger wants to stake.\n  */\n  function challenge(address _listing, uint _stakeAmount) external returns (uint challengeID) {\n    require(_stakeAmount >= minChallengeAmount);\n\n    IListing listing = listings[_listing];\n\n    // Takes tokens from challenger\n    require(token.transferFrom(msg.sender, this, _stakeAmount));\n\n    // Keep track of challenge id\n    challengeID = currentChallengeID + 1;\n    currentChallengeID = challengeID;\n\n    // Add challenge to the challenges mapping\n    Challenge memory challenge = Challenge({\n      challenger: msg.sender,\n      stake: _stakeAmount,\n      resolved: false,\n      listing: _listing\n    });\n    challenges[challengeID] = challenge;\n\n    // Increase the number of challenges on the right listing\n    listing.setChallenges(listing.challenges() + 1);\n    // Add challengeID to listing\n    listing.addChallengeID(challengeID);\n    // Add to the challengesStake on a listing\n    listing.setChallengesStake(listing.challengesStake() + _stakeAmount);\n\n    Challenged(_listing, _stakeAmount, challengeID);\n    AddressCacheInvalidated(_listing);\n\n    return challengeID;\n  }\n\n   /**\n  @notice             Marks a challenge as resolved.\n  @notice             Rewards the winner tokens and either whitelists or de-whitelists the listing.\n  @param _listing     A listing with a challenge that is to be resolved\n  */\n  function approveChallenge(address _listing) auth(CURATE_CHALLENGE_ROLE) external {\n    IListing listing = listings[_listing];\n\n    uint challengesStake = listing.challengesStake();\n\n    // Admin (msg.sender) should get 10% of the total sum of all challenge stakes + lising stake\n    uint adminShare = challengesStake * (adminPercentage / 100);\n    token.transfer(msg.sender, adminShare);\n\n    // Challengers should get a percentage of the total sum of all challenge stakes + lising stake\n    // equal to their share of the total challenge stake\n    // Get all challenges that are unresolved and are linked to this listing,\n    for (uint i = 0; i < listing.getChallengeIDsLength(); i ++) {\n      Challenge memory challenge = challenges[listing.getChallengeIDAtIndex(i)];\n\n      // Calculate what's left to divide between the challengers\n      uint challengerShare = challengesStake - adminShare;\n      // Transfer percentage of challenge\n      token.transfer(challenge.challenger, challengerShare * (challenge.stake / challengesStake));\n      // Set challenge as resolved\n      challenges[listing.getChallengeIDAtIndex(i)].resolved = true;\n    }\n\n    // Take stake from listing\n    listing.setStake(0);\n    listing.setChallengesStake(0);\n    listing.setChallenges(0);\n    // Blacklist listing\n    listing.setWhitelisted(false);\n\n    // Event\n    ChallengeApproved(_listing);\n    AddressCacheInvalidated(_listing);\n  }\n\n   /**\n  @notice             Marks a challenge as denied.\n  @notice             Rewards the listing seller tokens and de-whitelists the listing.\n  @param _listing     A listing with a challenge that is to be resolved\n  */\n  function denyChallenge(address _listing) auth(CURATE_CHALLENGE_ROLE) external {\n    IListing listing = listings[_listing];\n\n    uint challengesStake = listing.challengesStake();\n\n    // Admin (msg.sender) should get 10% of the total sum of all challenge stakes + lising stake\n    uint adminShare = challengesStake * (adminPercentage / 100);\n    token.transfer(msg.sender, adminShare);\n\n    // Transfer the rest of the stake to the data owner\n    token.transfer(listing.owner(), challengesStake.sub(adminShare));\n\n    // Get all challenges that are unresolved and are linked to this listing,\n    for (uint i = 0; i < listing.getChallengeIDsLength(); i ++) {\n      // Set challenge as resolved\n      challenges[listing.getChallengeIDAtIndex(i)].resolved = true;\n    }\n\n    // Remove challenges on the listing\n    listing.setChallenges(0);\n    listing.setChallengesStake(0);\n\n    // Event\n    ChallengeDenied(_listing);\n    AddressCacheInvalidated(_listing);\n  }\n\n  /**\n  @dev      Withdraw all the funds from this contract\n  */\n  function withdraw() auth(WITHDRAW_FUNDS_ROLE) external {\n    uint balance = this.balance;\n    token.transfer(msg.sender, this.balance);\n    Withdrawn(msg.sender, balance);\n  }\n\n  /**\n  @notice                   Sets price of a listing\n  @param _listing           listing id\n  @param _price             price\n  */\n  function setListingPrice(address _listing, uint _price) external {\n    listings[_listing].setPrice(_price);\n    AddressCacheInvalidated(_listing);\n  }\n\n  /**\n  @notice                   Sets the minEnlistAmount\n  @param _minEnlistAmount   minEnlistAmount\n  */\n  function setMinEnlistAmount(uint _minEnlistAmount) external {\n    minEnlistAmount = _minEnlistAmount;\n  }\n\n  /**\n  @notice                     Sets the minChallengeAmount\n  @param _minChallengeAmount  minChallengeAmount\n  */\n  function setMinChallengeAmount(uint _minChallengeAmount) external {\n    minChallengeAmount = _minChallengeAmount;\n  }\n\n  /**\n  @notice                 Sets the adminPercentage\n  @param _adminPercentage adminPercentage\n  */\n  function setAdminPercentage(uint _adminPercentage) external {\n    adminPercentage = _adminPercentage;\n  }\n\n/**\n  @notice             Returns true if listing is whitelisted\n  @param _listing     The listing of a user's listing\n  */\n  function isWhitelisted(address _listing) view public returns (bool whitelisted) {\n    return listings[_listing].whitelisted();\n  }\n\n/**\n  @notice            Returns true if the application/listing has an unresolved challenge\n  @param _listing    The listing of a user's listing\n  */\n  function challengeExists(address _listing) view public returns (bool exists) {\n    return (listings[_listing].challenges() > 0);\n  }\n\n  /**\n  * implementation of syncable methods\n  */\n  function getIndexLength() public view returns (uint length) {\n    length = listingsIndex.length;\n  }\n\n  function getByIndex(uint index) public view returns (address contractAddress) {\n\n    return getByKey(listingsIndex[index]);\n  }\n\n  function getByKey(address _key) public view returns (address contractAddress) {\n    contractAddress = address(listings[_key]);\n  }\n\n  /**\n  * implementation of cacher methods\n  */\n  function invalidateCache(address /*_cachedAddress*/, bytes32 _cachedBytes32, uint256 /*_cachedUint256*/) public {\n    Bytes32CacheInvalidated(_cachedBytes32);\n    super.invalidateCache();\n  }\n\n  /**\n  @dev                Called by updateStatus() if the applicationExpiry date passed without a challenge being made.\n  @dev                Called by resolveChallenge() if an application/listing beat a challenge.\n  @param _listing     The listing of an application/listing to be whitelisted\n  */\n  function whitelistApplication(address _listing) internal {\n    listings[_listing].setWhitelisted(true);\n  }\n\n  /**\n  @dev                Called by updateStatus() if the applicationExpiry date passed without a challenge being made.\n  @dev                Called by resolveChallenge() if an application/listing beat a challenge.\n  @param _listing     The listing of an application/listing to be whitelisted\n  */\n  function blacklistApplication(address _listing) internal {\n    listings[_listing].setWhitelisted(false);\n  }\n}\n",
  "sourcePath": "@settlemint/solidity-mint/contracts/marketplaces/tokencuratedregistry/TokenCuratedRegistry.sol",
  "compiler": {
    "name": "solc",
    "version": "0.4.20+commit.3155dd80.Emscripten.clang"
  },
  "schemaVersion": "2.0.0",
  "updatedAt": "2018-03-05T11:37:36.336Z"
}