{
  "contractName": "TokenCuratedRegistry",
  "abi": [
    {
      "constant": true,
      "inputs": [],
      "name": "WITHDRAW_FUNDS_ROLE",
      "outputs": [
        {
          "name": "",
          "type": "bytes32"
        }
      ],
      "payable": false,
      "stateMutability": "view",
      "type": "function"
    },
    {
      "constant": true,
      "inputs": [],
      "name": "CURATE_CHALLENGE_ROLE",
      "outputs": [
        {
          "name": "",
          "type": "bytes32"
        }
      ],
      "payable": false,
      "stateMutability": "view",
      "type": "function"
    },
    {
      "constant": true,
      "inputs": [],
      "name": "CHANGE_SETTINGS_ROLE",
      "outputs": [
        {
          "name": "",
          "type": "bytes32"
        }
      ],
      "payable": false,
      "stateMutability": "view",
      "type": "function"
    },
    {
      "constant": true,
      "inputs": [],
      "name": "gateKeeper",
      "outputs": [
        {
          "name": "",
          "type": "address"
        }
      ],
      "payable": false,
      "stateMutability": "view",
      "type": "function"
    },
    {
      "constant": true,
      "inputs": [
        {
          "name": "",
          "type": "address"
        }
      ],
      "name": "listings",
      "outputs": [
        {
          "name": "",
          "type": "address"
        }
      ],
      "payable": false,
      "stateMutability": "view",
      "type": "function"
    },
    {
      "constant": true,
      "inputs": [],
      "name": "token",
      "outputs": [
        {
          "name": "",
          "type": "address"
        }
      ],
      "payable": false,
      "stateMutability": "view",
      "type": "function"
    },
    {
      "constant": true,
      "inputs": [],
      "name": "listingFactory",
      "outputs": [
        {
          "name": "",
          "type": "address"
        }
      ],
      "payable": false,
      "stateMutability": "view",
      "type": "function"
    },
    {
      "inputs": [
        {
          "name": "_gateKeeper",
          "type": "address"
        },
        {
          "name": "_token",
          "type": "address"
        },
        {
          "name": "_listingFactory",
          "type": "address"
        },
        {
          "name": "_minEnlistAmount",
          "type": "uint256"
        },
        {
          "name": "_minChallengeAmount",
          "type": "uint256"
        },
        {
          "name": "_curatorPercentage",
          "type": "uint256"
        }
      ],
      "payable": false,
      "stateMutability": "nonpayable",
      "type": "constructor"
    },
    {
      "anonymous": false,
      "inputs": [
        {
          "indexed": false,
          "name": "listing",
          "type": "address"
        },
        {
          "indexed": false,
          "name": "stake",
          "type": "uint256"
        },
        {
          "indexed": false,
          "name": "price",
          "type": "uint256"
        }
      ],
      "name": "Enlisted",
      "type": "event"
    },
    {
      "anonymous": false,
      "inputs": [
        {
          "indexed": false,
          "name": "listing",
          "type": "address"
        },
        {
          "indexed": false,
          "name": "stake",
          "type": "uint256"
        },
        {
          "indexed": false,
          "name": "challenge",
          "type": "address"
        }
      ],
      "name": "Challenged",
      "type": "event"
    },
    {
      "anonymous": false,
      "inputs": [
        {
          "indexed": false,
          "name": "listing",
          "type": "address"
        }
      ],
      "name": "Unlisted",
      "type": "event"
    },
    {
      "anonymous": false,
      "inputs": [
        {
          "indexed": false,
          "name": "listing",
          "type": "address"
        }
      ],
      "name": "ChallengeApproved",
      "type": "event"
    },
    {
      "anonymous": false,
      "inputs": [
        {
          "indexed": false,
          "name": "listing",
          "type": "address"
        }
      ],
      "name": "ChallengeDenied",
      "type": "event"
    },
    {
      "anonymous": false,
      "inputs": [
        {
          "indexed": false,
          "name": "listing",
          "type": "address"
        },
        {
          "indexed": false,
          "name": "increasedBy",
          "type": "uint256"
        },
        {
          "indexed": false,
          "name": "newStake",
          "type": "uint256"
        }
      ],
      "name": "Increased",
      "type": "event"
    },
    {
      "anonymous": false,
      "inputs": [
        {
          "indexed": false,
          "name": "listing",
          "type": "address"
        },
        {
          "indexed": false,
          "name": "decreasedBy",
          "type": "uint256"
        },
        {
          "indexed": false,
          "name": "newStake",
          "type": "uint256"
        }
      ],
      "name": "Decreased",
      "type": "event"
    },
    {
      "anonymous": false,
      "inputs": [
        {
          "indexed": false,
          "name": "by",
          "type": "address"
        },
        {
          "indexed": false,
          "name": "balance",
          "type": "uint256"
        }
      ],
      "name": "Withdrawn",
      "type": "event"
    },
    {
      "anonymous": false,
      "inputs": [
        {
          "indexed": false,
          "name": "value",
          "type": "uint256"
        }
      ],
      "name": "MinEnlistAmountChanged",
      "type": "event"
    },
    {
      "anonymous": false,
      "inputs": [
        {
          "indexed": false,
          "name": "value",
          "type": "uint256"
        }
      ],
      "name": "MinChallengeAmountChanged",
      "type": "event"
    },
    {
      "anonymous": false,
      "inputs": [
        {
          "indexed": false,
          "name": "value",
          "type": "uint256"
        }
      ],
      "name": "CuratorPercentageChanged",
      "type": "event"
    },
    {
      "anonymous": false,
      "inputs": [
        {
          "indexed": true,
          "name": "key",
          "type": "address"
        }
      ],
      "name": "AddressCacheInvalidated",
      "type": "event"
    },
    {
      "anonymous": false,
      "inputs": [
        {
          "indexed": true,
          "name": "key",
          "type": "bytes32"
        }
      ],
      "name": "Bytes32CacheInvalidated",
      "type": "event"
    },
    {
      "anonymous": false,
      "inputs": [
        {
          "indexed": true,
          "name": "key",
          "type": "uint256"
        }
      ],
      "name": "Uint256CacheInvalidated",
      "type": "event"
    },
    {
      "constant": false,
      "inputs": [
        {
          "name": "_stakeAmount",
          "type": "uint256"
        },
        {
          "name": "_price",
          "type": "uint256"
        },
        {
          "name": "_metadata",
          "type": "string"
        }
      ],
      "name": "enlist",
      "outputs": [],
      "payable": false,
      "stateMutability": "nonpayable",
      "type": "function"
    },
    {
      "constant": false,
      "inputs": [
        {
          "name": "_listing",
          "type": "address"
        }
      ],
      "name": "addListing",
      "outputs": [],
      "payable": false,
      "stateMutability": "nonpayable",
      "type": "function"
    },
    {
      "constant": false,
      "inputs": [
        {
          "name": "_listing",
          "type": "address"
        }
      ],
      "name": "unlist",
      "outputs": [],
      "payable": false,
      "stateMutability": "nonpayable",
      "type": "function"
    },
    {
      "constant": false,
      "inputs": [
        {
          "name": "_listing",
          "type": "address"
        },
        {
          "name": "_stakeAmount",
          "type": "uint256"
        }
      ],
      "name": "increase",
      "outputs": [],
      "payable": false,
      "stateMutability": "nonpayable",
      "type": "function"
    },
    {
      "constant": false,
      "inputs": [
        {
          "name": "_listing",
          "type": "address"
        },
        {
          "name": "_stakeAmount",
          "type": "uint256"
        }
      ],
      "name": "decrease",
      "outputs": [],
      "payable": false,
      "stateMutability": "nonpayable",
      "type": "function"
    },
    {
      "constant": false,
      "inputs": [
        {
          "name": "_listing",
          "type": "address"
        },
        {
          "name": "_stakeAmount",
          "type": "uint256"
        },
        {
          "name": "_metadata",
          "type": "string"
        }
      ],
      "name": "challenge",
      "outputs": [],
      "payable": false,
      "stateMutability": "nonpayable",
      "type": "function"
    },
    {
      "constant": false,
      "inputs": [
        {
          "name": "_listing",
          "type": "address"
        }
      ],
      "name": "approveChallenge",
      "outputs": [],
      "payable": false,
      "stateMutability": "nonpayable",
      "type": "function"
    },
    {
      "constant": false,
      "inputs": [
        {
          "name": "_listing",
          "type": "address"
        }
      ],
      "name": "denyChallenge",
      "outputs": [],
      "payable": false,
      "stateMutability": "nonpayable",
      "type": "function"
    },
    {
      "constant": false,
      "inputs": [],
      "name": "withdraw",
      "outputs": [],
      "payable": false,
      "stateMutability": "nonpayable",
      "type": "function"
    },
    {
      "constant": false,
      "inputs": [
        {
          "name": "_minEnlistAmount",
          "type": "uint256"
        }
      ],
      "name": "setMinEnlistAmount",
      "outputs": [],
      "payable": false,
      "stateMutability": "nonpayable",
      "type": "function"
    },
    {
      "constant": false,
      "inputs": [
        {
          "name": "_minChallengeAmount",
          "type": "uint256"
        }
      ],
      "name": "setMinChallengeAmount",
      "outputs": [],
      "payable": false,
      "stateMutability": "nonpayable",
      "type": "function"
    },
    {
      "constant": false,
      "inputs": [
        {
          "name": "_curatorPercentage",
          "type": "uint256"
        }
      ],
      "name": "setCuratorPercentage",
      "outputs": [],
      "payable": false,
      "stateMutability": "nonpayable",
      "type": "function"
    },
    {
      "constant": false,
      "inputs": [
        {
          "name": "_cachedAddress",
          "type": "address"
        },
        {
          "name": "",
          "type": "bytes32"
        },
        {
          "name": "",
          "type": "uint256"
        }
      ],
      "name": "invalidateCache",
      "outputs": [],
      "payable": false,
      "stateMutability": "nonpayable",
      "type": "function"
    },
    {
      "constant": true,
      "inputs": [],
      "name": "getIndexLength",
      "outputs": [
        {
          "name": "length",
          "type": "uint256"
        }
      ],
      "payable": false,
      "stateMutability": "view",
      "type": "function"
    },
    {
      "constant": true,
      "inputs": [
        {
          "name": "index",
          "type": "uint256"
        }
      ],
      "name": "getByIndex",
      "outputs": [
        {
          "name": "key",
          "type": "address"
        },
        {
          "name": "contractAddress",
          "type": "address"
        }
      ],
      "payable": false,
      "stateMutability": "view",
      "type": "function"
    },
    {
      "constant": true,
      "inputs": [
        {
          "name": "_key",
          "type": "address"
        }
      ],
      "name": "getByKey",
      "outputs": [
        {
          "name": "key",
          "type": "address"
        },
        {
          "name": "contractAddress",
          "type": "address"
        }
      ],
      "payable": false,
      "stateMutability": "view",
      "type": "function"
    }
  ],
  "bytecode": "0x608060405260006005556000600655600060075534801561001f57600080fd5b5060405160c080612d9c83398101604090815281516020830151918301516060840151608085015160a09095015160008054600160a060020a03958616600160a060020a0319918216179091556003805496861696821696909617909555600480549490931693909416929092179055600555600691909155600755612cf2806100aa6000396000f3006080604052600436106101195763ffffffff60e060020a6000350416631cbcd974811461011e578063236b237c146101455780632d883a731461016f57806332a65198146101ad5780633426ddd5146101c2578063346fa921146101d75780633ccfd60b146101ef5780633d188fab1461020457806345d61ded1461022b578063498770381461025c578063522afaec1461027d57806359d5da89146102a157806365d96c82146102c25780636c3344eb146102e357806383b7113e1461034c57806392f60b961461036457806399b6c1c614610385578063bde3672d146103a6578063de29ee68146103c7578063e1ba7d01146103df578063f27ac4d9146103f4578063fc0c546a14610418578063fe8cde341461042d575b600080fd5b34801561012a57600080fd5b50610133610442565b60408051918252519081900360200190f35b34801561015157600080fd5b5061016d60048035906024803591604435918201910135610466565b005b34801561017b57600080fd5b506101876004356105ec565b60408051600160a060020a03938416815291909216602082015281519081900390910190f35b3480156101b957600080fd5b50610133610624565b3480156101ce57600080fd5b50610133610648565b3480156101e357600080fd5b5061016d60043561065a565b3480156101fb57600080fd5b5061016d6106ba565b34801561021057600080fd5b5061016d600160a060020a03600435166024356044356107c5565b34801561023757600080fd5b506102406107fe565b60408051600160a060020a039092168252519081900360200190f35b34801561026857600080fd5b50610187600160a060020a036004351661080d565b34801561028957600080fd5b5061016d600160a060020a036004351660243561082d565b3480156102ad57600080fd5b5061016d600160a060020a0360043516610b15565b3480156102ce57600080fd5b50610240600160a060020a0360043516610cd2565b3480156102ef57600080fd5b50604080516020600460443581810135601f810184900484028501840190955284845261016d948235600160a060020a0316946024803595369594606494920191908190840183828082843750949750610ced9650505050505050565b34801561035857600080fd5b5061016d6004356111c7565b34801561037057600080fd5b5061016d600160a060020a0360043516611227565b34801561039157600080fd5b5061016d600160a060020a03600435166118e1565b3480156103b257600080fd5b5061016d600160a060020a0360043516611e0a565b3480156103d357600080fd5b5061016d60043561215c565b3480156103eb57600080fd5b506101336121bc565b34801561040057600080fd5b5061016d600160a060020a03600435166024356121c2565b34801561042457600080fd5b506102406124b3565b34801561043957600080fd5b506102406124c2565b7f57495448445241575f46554e44535f524f4c450000000000000000000000000081565b60055484101561047557600080fd5b600354604080517f23b872dd000000000000000000000000000000000000000000000000000000008152600160a060020a033381166004830152308116602483015260448201889052915191909216916323b872dd9160648083019260209291908290030181600087803b1580156104ec57600080fd5b505af1158015610500573d6000803e3d6000fd5b505050506040513d602081101561051657600080fd5b5051151561052357600080fd5b600480546040517f35012d7e000000000000000000000000000000000000000000000000000000008152600160a060020a0333818116948301948552602483018890526044830189905230808316606485015260a06084850190815260a4850188905292909416946335012d7e94919389938b93928a928a929060c4018484808284378201915050975050505050505050600060405180830381600087803b1580156105ce57600080fd5b505af11580156105e2573d6000803e3d6000fd5b5050505050505050565b60008061061b60028481548110151561060157fe5b600091825260209091200154600160a060020a031661080d565b91509150915091565b7f4355524154455f4348414c4c454e47455f524f4c45000000000000000000000081565b600080516020612ca783398151915281565b600080516020612ca783398151915261067333826124d1565b151561067e57600080fd5b60078290556040805183815290517fea6c6084ca0283f30c459faead18d4a32783096c26aa5847e96e1eeec97edce89181900360200190a15050565b60007f57495448445241575f46554e44535f524f4c45000000000000000000000000006106e733826124d1565b15156106f257600080fd5b6003546040805160e060020a63a9059cbb028152600160a060020a033381166004830152308116803160248401529251923195509092169163a9059cbb9160448083019260209291908290030181600087803b15801561075157600080fd5b505af1158015610765573d6000803e3d6000fd5b505050506040513d602081101561077b57600080fd5b505060408051600160a060020a03331681526020810184905281517f7084f5476618d8e60b11ef0d7d3f06914655adb8793e28ff7f018d4c76d505d5929181900390910190a15050565b604051600160a060020a038416907f2130e02bc65616aa7f8f548960f51a08a1d0ea94efb33611412208c2d0306a2290600090a2505050565b600054600160a060020a031681565b600160a060020a0390811660009081526001602052604090205416908190565b600160a060020a03808316600090815260016020908152604080832054815160e060020a638da5cb5b0281529151908516943316938593638da5cb5b936004808201949293918390030190829087803b15801561088957600080fd5b505af115801561089d573d6000803e3d6000fd5b505050506040513d60208110156108b357600080fd5b5051600160a060020a0316146108c857600080fd5b600354604080517f23b872dd000000000000000000000000000000000000000000000000000000008152600160a060020a033381166004830152308116602483015260448201869052915191909216916323b872dd9160648083019260209291908290030181600087803b15801561093f57600080fd5b505af1158015610953573d6000803e3d6000fd5b505050506040513d602081101561096957600080fd5b5051151561097657600080fd5b80600160a060020a03166335d9db536109ff8484600160a060020a0316633a4b66f16040518163ffffffff1660e060020a028152600401602060405180830381600087803b1580156109c757600080fd5b505af11580156109db573d6000803e3d6000fd5b505050506040513d60208110156109f157600080fd5b50519063ffffffff61259316565b6040518263ffffffff1660e060020a02815260040180828152602001915050600060405180830381600087803b158015610a3857600080fd5b505af1158015610a4c573d6000803e3d6000fd5b505050507f8b05844824acf2db2f068e4006ef99b307ca4fe1a896d06e884700f1a9da3a6d838383600160a060020a0316633a4b66f16040518163ffffffff1660e060020a028152600401602060405180830381600087803b158015610ab157600080fd5b505af1158015610ac5573d6000803e3d6000fd5b505050506040513d6020811015610adb57600080fd5b505160408051600160a060020a039094168452602084019290925282820152519081900360600190a1610b10836000806107c5565b505050565b600160a060020a0381166000818152600160208181526040808420805473ffffffffffffffffffffffffffffffffffffffff19908116871790915560028054948501815585527f405787fa12a823e0f2b7631cc41b3ba8828b3321ca811111fa75cd3aa3bb5ace90930180549093168517909255815160e060020a633a4b66f1028152915185947f7583fed51a2ab4e582c68d93e281e0fcc2601ef4a7491d1d2d2dc511f6a912799486949193633a4b66f193600480850194929391928390030190829087803b158015610be857600080fd5b505af1158015610bfc573d6000803e3d6000fd5b505050506040513d6020811015610c1257600080fd5b5051604080517fa035b1fe0000000000000000000000000000000000000000000000000000000081529051600160a060020a0386169163a035b1fe9160048083019260209291908290030181600087803b158015610c6f57600080fd5b505af1158015610c83573d6000803e3d6000fd5b505050506040513d6020811015610c9957600080fd5b505160408051600160a060020a039094168452602084019290925282820152519081900360600190a1610cce826000806107c5565b5050565b600160205260009081526040902054600160a060020a031681565b6000806006548410151515610d0157600080fd5b600160a060020a0380861660009081526001602090815260408083205460035482517f23b872dd00000000000000000000000000000000000000000000000000000000815233871660048201523087166024820152604481018b905292519186169750909416936323b872dd93606480840194938390030190829087803b158015610d8b57600080fd5b505af1158015610d9f573d6000803e3d6000fd5b505050506040513d6020811015610db557600080fd5b50511515610dc257600080fd5b600054339085908790600160a060020a0316610ddc612601565b600160a060020a039485168152602081019390935290831660408084019190915292166060820152905190819003608001906000f080158015610e23573d6000803e3d6000fd5b5060008054604080517fbe038478000000000000000000000000000000000000000000000000000000008152600160a060020a033381166004830181905286821660248401527f5550444154455f4d455441444154415f524f4c4500000000000000000000000060448401526064830152915194955091169263be0384789260848084019391929182900301818387803b158015610ec057600080fd5b505af1158015610ed4573d6000803e3d6000fd5b50506040517f5cc07505000000000000000000000000000000000000000000000000000000008152602060048201818152875160248401528751600160a060020a0387169550635cc075059450889391928392604401919085019080838360005b83811015610f4d578181015183820152602001610f35565b50505050905090810190601f168015610f7a5780820380516001836020036101000a031916815260200191505b5092505050600060405180830381600087803b158015610f9957600080fd5b505af1158015610fad573d6000803e3d6000fd5b5050505081600160a060020a0316637daa30df826040518263ffffffff1660e060020a0281526004018082600160a060020a0316600160a060020a03168152602001915050600060405180830381600087803b15801561100c57600080fd5b505af1158015611020573d6000803e3d6000fd5b5050505081600160a060020a0316636de149f56110758685600160a060020a031663605cba826040518163ffffffff1660e060020a028152600401602060405180830381600087803b1580156109c757600080fd5b6040518263ffffffff1660e060020a02815260040180828152602001915050600060405180830381600087803b1580156110ae57600080fd5b505af11580156110c2573d6000803e3d6000fd5b5050505081600160a060020a031663a2de8368611118600185600160a060020a031663ae1108756040518163ffffffff1660e060020a028152600401602060405180830381600087803b1580156109c757600080fd5b6040518263ffffffff1660e060020a02815260040180828152602001915050600060405180830381600087803b15801561115157600080fd5b505af1158015611165573d6000803e3d6000fd5b505060408051600160a060020a03808a1682526020820189905285168183015290517fccd897ff376a9748c9a2e6af2a359a82cb0513a96ff431f17763ad057b1619089350908190036060019150a16111c0856000806107c5565b5050505050565b600080516020612ca78339815191526111e033826124d1565b15156111eb57600080fd5b60058290556040805183815290517f1e2fffeb4ad73c19aa71037a187b8cb1a45220f05d6cce7c2801c106de268a8a9181900360200190a15050565b60008060008060008060007f4355524154455f4348414c4c454e47455f524f4c45000000000000000000000061125d33826124d1565b151561126857600080fd5b600160a060020a03808a1660009081526001602090815260408083205481517f605cba82000000000000000000000000000000000000000000000000000000008152915194169b508b9363605cba8293600480840194938390030190829087803b1580156112d557600080fd5b505af11580156112e9573d6000803e3d6000fd5b505050506040513d60208110156112ff57600080fd5b50516007549097506113299061131c90606463ffffffff6125ad16565b889063ffffffff6125c416565b6003546040805160e060020a63a9059cbb028152600160a060020a03338116600483015260248201859052915193995091169163a9059cbb916044808201926020929091908290030181600087803b15801561138457600080fd5b505af1158015611398573d6000803e3d6000fd5b505050506040513d60208110156113ae57600080fd5b5060009550505b87600160a060020a031663e1ba7d016040518163ffffffff1660e060020a028152600401602060405180830381600087803b1580156113f357600080fd5b505af1158015611407573d6000803e3d6000fd5b505050506040513d602081101561141d57600080fd5b50518510156116f057604080517f2d883a73000000000000000000000000000000000000000000000000000000008152600481018790528151600160a060020a038b1692632d883a7392602480820193918290030181600087803b15801561148457600080fd5b505af1158015611498573d6000803e3d6000fd5b505050506040513d60408110156114ae57600080fd5b506020015193508392506114c8878763ffffffff6125ef16565b9150600360009054906101000a9004600160a060020a0316600160a060020a031663a9059cbb84600160a060020a031663534db0e26040518163ffffffff1660e060020a028152600401602060405180830381600087803b15801561152c57600080fd5b505af1158015611540573d6000803e3d6000fd5b505050506040513d602081101561155657600080fd5b50516040805160e060020a633a4b66f102815290516115ed916115e0918d91600160a060020a038b1691633a4b66f1916004808201926020929091908290030181600087803b1580156115a857600080fd5b505af11580156115bc573d6000803e3d6000fd5b505050506040513d60208110156115d257600080fd5b50519063ffffffff6125ad16565b869063ffffffff6125c416565b6040518363ffffffff1660e060020a0281526004018083600160a060020a0316600160a060020a0316815260200182815260200192505050602060405180830381600087803b15801561163f57600080fd5b505af1158015611653573d6000803e3d6000fd5b505050506040513d602081101561166957600080fd5b5050604080517f164d90e0000000000000000000000000000000000000000000000000000000008152600160048201529051600160a060020a0385169163164d90e091602480830192600092919082900301818387803b1580156116cc57600080fd5b505af11580156116e0573d6000803e3d6000fd5b5050600190960195506113b59050565b87600160a060020a03166335d9db5360006040518263ffffffff1660e060020a02815260040180828152602001915050600060405180830381600087803b15801561173a57600080fd5b505af115801561174e573d6000803e3d6000fd5b5050505087600160a060020a0316636de149f560006040518263ffffffff1660e060020a02815260040180828152602001915050600060405180830381600087803b15801561179c57600080fd5b505af11580156117b0573d6000803e3d6000fd5b5050505087600160a060020a031663a2de836860006040518263ffffffff1660e060020a02815260040180828152602001915050600060405180830381600087803b1580156117fe57600080fd5b505af1158015611812573d6000803e3d6000fd5b5050604080517f7b7892040000000000000000000000000000000000000000000000000000000081526000600482018190529151600160a060020a038d169450637b78920493506024808301939282900301818387803b15801561187557600080fd5b505af1158015611889573d6000803e3d6000fd5b505060408051600160a060020a038d16815290517f9d9f99a36ef64966814c1f89a7a64fcb0132cbd085184a9666469302f32b92c49350908190036020019150a16118d6896000806107c5565b505050505050505050565b60008060008060007f4355524154455f4348414c4c454e47455f524f4c45000000000000000000000061191433826124d1565b151561191f57600080fd5b600160a060020a0380881660009081526001602090815260408083205481517f605cba82000000000000000000000000000000000000000000000000000000008152915194169950899363605cba8293600480840194938390030190829087803b15801561198c57600080fd5b505af11580156119a0573d6000803e3d6000fd5b505050506040513d60208110156119b657600080fd5b50516007549095506119d3906115e090606463ffffffff6125ad16565b6003546040805160e060020a63a9059cbb028152600160a060020a03338116600483015260248201859052915193975091169163a9059cbb916044808201926020929091908290030181600087803b158015611a2e57600080fd5b505af1158015611a42573d6000803e3d6000fd5b505050506040513d6020811015611a5857600080fd5b50506003546040805160e060020a638da5cb5b0281529051600160a060020a039283169263a9059cbb92908a1691638da5cb5b916004808201926020929091908290030181600087803b158015611aae57600080fd5b505af1158015611ac2573d6000803e3d6000fd5b505050506040513d6020811015611ad857600080fd5b5051611aea888863ffffffff6125ef16565b6040518363ffffffff1660e060020a0281526004018083600160a060020a0316600160a060020a0316815260200182815260200192505050602060405180830381600087803b158015611b3c57600080fd5b505af1158015611b50573d6000803e3d6000fd5b505050506040513d6020811015611b6657600080fd5b5060009350505b85600160a060020a031663e1ba7d016040518163ffffffff1660e060020a028152600401602060405180830381600087803b158015611bab57600080fd5b505af1158015611bbf573d6000803e3d6000fd5b505050506040513d6020811015611bd557600080fd5b5051831015611cf457604080517f2d883a73000000000000000000000000000000000000000000000000000000008152600481018590528151600160a060020a03891692632d883a7392602480820193918290030181600087803b158015611c3c57600080fd5b505af1158015611c50573d6000803e3d6000fd5b505050506040513d6040811015611c6657600080fd5b5060200151604080517f164d90e0000000000000000000000000000000000000000000000000000000008152600160048201529051919350600160a060020a0384169163164d90e09160248082019260009290919082900301818387803b158015611cd057600080fd5b505af1158015611ce4573d6000803e3d6000fd5b505060019094019350611b6d9050565b85600160a060020a0316636de149f560006040518263ffffffff1660e060020a02815260040180828152602001915050600060405180830381600087803b158015611d3e57600080fd5b505af1158015611d52573d6000803e3d6000fd5b5050505085600160a060020a031663a2de836860006040518263ffffffff1660e060020a02815260040180828152602001915050600060405180830381600087803b158015611da057600080fd5b505af1158015611db4573d6000803e3d6000fd5b505060408051600160a060020a038b16815290517f125014e75e2aead4a1c8a35e9bb786a430fc1ba6354cbd9845802d3603abd0b09350908190036020019150a1611e01876000806107c5565b50505050505050565b600160a060020a03808216600090815260016020908152604080832054815160e060020a638da5cb5b02815291519416938493638da5cb5b93600480850194919392918390030190829087803b158015611e6357600080fd5b505af1158015611e77573d6000803e3d6000fd5b505050506040513d6020811015611e8d57600080fd5b505133600160a060020a03908116911614611ea757600080fd5b600081600160a060020a0316633a4b66f16040518163ffffffff1660e060020a028152600401602060405180830381600087803b158015611ee757600080fd5b505af1158015611efb573d6000803e3d6000fd5b505050506040513d6020811015611f1157600080fd5b5051111561209c57600360009054906101000a9004600160a060020a0316600160a060020a031663a9059cbb82600160a060020a0316638da5cb5b6040518163ffffffff1660e060020a028152600401602060405180830381600087803b158015611f7b57600080fd5b505af1158015611f8f573d6000803e3d6000fd5b505050506040513d6020811015611fa557600080fd5b50516040805160e060020a633a4b66f10281529051600160a060020a03861691633a4b66f19160048083019260209291908290030181600087803b158015611fec57600080fd5b505af1158015612000573d6000803e3d6000fd5b505050506040513d602081101561201657600080fd5b50516040805160e060020a63ffffffff8616028152600160a060020a03909316600484015260248301919091525160448083019260209291908290030181600087803b15801561206557600080fd5b505af1158015612079573d6000803e3d6000fd5b505050506040513d602081101561208f57600080fd5b5051151561209c57600080fd5b604080517f7b7892040000000000000000000000000000000000000000000000000000000081526000600482018190529151600160a060020a03841692637b789204926024808201939182900301818387803b1580156120fb57600080fd5b505af115801561210f573d6000803e3d6000fd5b505060408051600160a060020a038616815290517fc48322c2e165c864176005884983dd81c87a9fc8258ca6a1967d17b26cd8d0e39350908190036020019150a1610cce826000806107c5565b600080516020612ca783398151915261217533826124d1565b151561218057600080fd5b60068290556040805183815290517fec0975e9a985b0702fafca3ee144a642dfe5c48de1b5e1c934e0e4131ce5fcbe9181900360200190a15050565b60025490565b600160a060020a03808316600090815260016020908152604080832054815160e060020a633a4b66f102815291519416938492633a4b66f1926004808201939182900301818787803b15801561221757600080fd5b505af115801561222b573d6000803e3d6000fd5b505050506040513d602081101561224157600080fd5b50516040805160e060020a638da5cb5b0281529051919250600160a060020a033381169290851691638da5cb5b9160048083019260209291908290030181600087803b15801561229057600080fd5b505af11580156122a4573d6000803e3d6000fd5b505050506040513d60208110156122ba57600080fd5b5051600160a060020a0316146122cf57600080fd5b808311156122dc57600080fd5b60055483820310156122ed57600080fd5b6003546040805160e060020a63a9059cbb028152600160a060020a033381166004830152602482018790529151919092169163a9059cbb9160448083019260209291908290030181600087803b15801561234657600080fd5b505af115801561235a573d6000803e3d6000fd5b505050506040513d602081101561237057600080fd5b5051151561237d57600080fd5b600160a060020a0382166335d9db5361239c838663ffffffff6125ef16565b6040518263ffffffff1660e060020a02815260040180828152602001915050600060405180830381600087803b1580156123d557600080fd5b505af11580156123e9573d6000803e3d6000fd5b505050507f5ee9537083cb767f9e599a17876a9c597197deba435082e0b88c4da925d4599e848484600160a060020a0316633a4b66f16040518163ffffffff1660e060020a028152600401602060405180830381600087803b15801561244e57600080fd5b505af1158015612462573d6000803e3d6000fd5b505050506040513d602081101561247857600080fd5b505160408051600160a060020a039094168452602084019290925282820152519081900360600190a16124ad846000806107c5565b50505050565b600354600160a060020a031681565b600454600160a060020a031681565b60008054600160a060020a0316158061258c575060008054604080517f6d6712d8000000000000000000000000000000000000000000000000000000008152600160a060020a03878116600483015230811660248301526044820187905291519190921692636d6712d892606480820193602093909283900390910190829087803b15801561255f57600080fd5b505af1158015612573573d6000803e3d6000fd5b505050506040513d602081101561258957600080fd5b50515b9392505050565b6000828201838110156125a257fe5b8091505b5092915050565b60008082848115156125bb57fe5b04949350505050565b6000808315156125d757600091506125a6565b508282028284828115156125e757fe5b04146125a257fe5b6000828211156125fb57fe5b50900390565b6040516106958061261283390190560060806040526003805460a060020a60ff021916905534801561002057600080fd5b50604051608080610695833981016040908152815160208301519183015160609093015160008054600160a060020a03928316600160a060020a03199182161790915560018054308416908316179055600380549383169382169390931790925560049290925560058054929093169116179055426006556105ee806100a76000396000f3006080604052600436106100ae5763ffffffff7c0100000000000000000000000000000000000000000000000000000000600035041663164d90e081146100b3578063392f37e9146100cf5780633a4b66f1146101595780633d188fab146101805780633f6fa655146101a757806345d61ded146101d0578063534db0e2146102015780635cc0750514610216578063b80777ea1461026f578063bc7c55ed14610284578063fff139cf14610299575b600080fd5b3480156100bf57600080fd5b506100cd60043515156102ae565b005b3480156100db57600080fd5b506100e4610334565b6040805160208082528351818301528351919283929083019185019080838360005b8381101561011e578181015183820152602001610106565b50505050905090810190601f16801561014b5780820380516001836020036101000a031916815260200191505b509250505060405180910390f35b34801561016557600080fd5b5061016e6103bf565b60408051918252519081900360200190f35b34801561018c57600080fd5b506100cd600160a060020a03600435166024356044356103c5565b3480156101b357600080fd5b506101bc6103fe565b604080519115158252519081900360200190f35b3480156101dc57600080fd5b506101e561041f565b60408051600160a060020a039092168252519081900360200190f35b34801561020d57600080fd5b506101e561042e565b34801561022257600080fd5b506040805160206004803580820135601f81018490048402850184019095528484526100cd94369492936024939284019190819084018382808284375094975061043d9650505050505050565b34801561027b57600080fd5b5061016e610451565b34801561029057600080fd5b506101e5610457565b3480156102a557600080fd5b5061016e610466565b6003805474ff0000000000000000000000000000000000000000191674010000000000000000000000000000000000000000831515908102919091179091556040805130600160a060020a03168152602081019290925280517f1e26517183efe4efd75405d381f0fd1aa3fc89740db3c17a9c244127ca64c79c9281900390910190a150565b6002805460408051602060018416156101000260001901909316849004601f810184900484028201840190925281815292918301828280156103b75780601f1061038c576101008083540402835291602001916103b7565b820191906000526020600020905b81548152906001019060200180831161039a57829003601f168201915b505050505081565b60045481565b604051600160a060020a038416907f2130e02bc65616aa7f8f548960f51a08a1d0ea94efb33611412208c2d0306a2290600090a2505050565b60035474010000000000000000000000000000000000000000900460ff1681565b600054600160a060020a031681565b600354600160a060020a031681565b6104468161048a565b61044e6104a1565b50565b60065481565b600554600160a060020a031681565b7f5550444154455f4d455441444154415f524f4c4500000000000000000000000081565b805161049d906002906020840190610527565b5050565b600154604080517f3d188fab000000000000000000000000000000000000000000000000000000008152600160a060020a0330811660048301526000604483018190529251931692633d188fab9260648084019391929182900301818387803b15801561050d57600080fd5b505af1158015610521573d6000803e3d6000fd5b50505050565b828054600181600116156101000203166002900490600052602060002090601f016020900481019282601f1061056857805160ff1916838001178555610595565b82800160010185558215610595579182015b8281111561059557825182559160200191906001019061057a565b506105a19291506105a5565b5090565b6105bf91905b808211156105a157600081556001016105ab565b905600a165627a7a72305820317d1018dc8839102d09dd5f98c8c3fef0fbe2c7730fdc1ac83364745244881300294348414e47455f53455454494e47535f524f4c45000000000000000000000000a165627a7a723058205ea0d262587b9e4c4889551b3d5841b298413595d1c44a8cab8ef80761e5ad990029",
  "source": "pragma solidity ^0.4.21;\n\nimport \"./interfaces/IListing.sol\";\nimport \"./interfaces/IListingFactory.sol\";\nimport \"../tokensystem/interfaces/IToken.sol\";\nimport \"../../authentication/Secured.sol\";\nimport \"../../utility/syncing/Syncable.sol\";\nimport \"../../utility/caching/Cacher.sol\";\nimport \"../../utility/metadata/MetaDataContainer.sol\";\nimport \"zeppelin-solidity/contracts/math/SafeMath.sol\";\nimport \"./Challenge.sol\";\n\n\ncontract TokenCuratedRegistry is Secured, Syncable, Cacher {\n  using SafeMath for uint256;\n\n  bytes32 constant public WITHDRAW_FUNDS_ROLE = \"WITHDRAW_FUNDS_ROLE\";\n  bytes32 constant public CURATE_CHALLENGE_ROLE = \"CURATE_CHALLENGE_ROLE\";\n  bytes32 constant public CHANGE_SETTINGS_ROLE = \"CHANGE_SETTINGS_ROLE\";\n\n  // ------\n  // EVENTS\n  // ------\n\n  event Enlisted(address listing, uint stake, uint price);\n  event Challenged(address listing, uint stake, address challenge);\n  event Unlisted(address listing);\n  event ChallengeApproved(address listing);\n  event ChallengeDenied(address listing);\n  event Increased(address listing, uint increasedBy, uint newStake);\n  event Decreased(address listing, uint decreasedBy, uint newStake);\n  event Withdrawn(address by, uint balance);\n  event MinEnlistAmountChanged(uint value);\n  event MinChallengeAmountChanged(uint value);\n  event CuratorPercentageChanged(uint value);\n\n  // Maps listingHashes to associated listing data\n  mapping(address => IListing) public listings;\n  address[] listingsIndex;\n\n  // Global Variables\n  IToken public token;\n  IListingFactory public listingFactory;\n\n  // Settings\n  uint minEnlistAmount = 0;\n  uint minChallengeAmount = 0;\n  uint curatorPercentage = 0;\n\n  /**\n  @dev Contructor\n  @notice                Sets the address for token\n  @param _gateKeeper     Address of the gatekeeper\n  @param _token          Address of the token\n  */\n  function TokenCuratedRegistry(\n    address _gateKeeper,\n    address _token,\n    address _listingFactory,\n    uint _minEnlistAmount,\n    uint _minChallengeAmount,\n    uint _curatorPercentage\n  )\n    Secured(_gateKeeper)\n    public\n  {\n    token = IToken(_token);\n    listingFactory = IListingFactory(_listingFactory);\n\n    minEnlistAmount = _minEnlistAmount;\n    minChallengeAmount = _minChallengeAmount;\n    curatorPercentage = _curatorPercentage;\n  }\n\n  /**\n  @notice                 Allows a seller to list data to be available for selling.\n  @notice                 Takes tokens from user.\n  @param _stakeAmount     The number of ERC20 tokens a user is willing to potentially stake\n  @param _price           Price of the listing\n  @param _metadata        Metadata\n  */\n  function enlist(uint _stakeAmount, uint _price, string _metadata) external {\n    // Stake must be above a certain amount\n    require(_stakeAmount >= minEnlistAmount);\n\n    // Transfers tokens from user to Registry contract\n    require(token.transferFrom(msg.sender, this, _stakeAmount));\n\n    // Add listing to listings\n    listingFactory.createListing(\n      msg.sender,\n      _price,\n      _stakeAmount,\n      this,\n      _metadata\n    );\n  }\n\n  /**\n  @notice                 Listing is added through the factory\n  @param _listing         Address of the added listing\n  */\n  function addListing(address _listing) public {\n    IListing listing = IListing(_listing);\n\n    // Add to mapping\n    listings[_listing] = listing;\n    listingsIndex.push(_listing);\n\n    // Event\n    Enlisted(_listing, listing.stake(), listing.price());\n    invalidateCache(_listing, \"\", 0);\n  }\n\n  /**\n  @notice             Allows the owner of a listing to remove the listing from the whitelist\n  @notice             Returns all tokens to the owner of the listing\n  @param _listing     The listing of a user's listing\n  */\n  function unlist(address _listing) public {\n    IListing listing = listings[_listing];\n    require(msg.sender == listing.owner());\n\n    // Transfers any remaining balance back to the owner\n    if (listing.stake() > 0)\n      require(token.transfer(listing.owner(), listing.stake()));\n\n    // Blacklist\n    listing.setWhitelisted(false);\n\n    // Event\n    Unlisted(_listing);\n    invalidateCache(_listing, \"\", 0);\n  }\n\n  /**\n  @notice             Allows the owner of a listing to increase their unstaked deposit.\n  @param _listing     The listing of a user's application/listing\n  @param _stakeAmount The number of ERC20 tokens to increase a user's unstaked deposit\n  */\n  function increase(address _listing, uint _stakeAmount) public {\n    IListing listing = listings[_listing];\n\n    require(listing.owner() == msg.sender);\n    require(token.transferFrom(msg.sender, this, _stakeAmount));\n\n    listing.setStake(listing.stake().add(_stakeAmount));\n\n    // Event\n    Increased(_listing, _stakeAmount, listing.stake());\n    invalidateCache(_listing, \"\", 0);\n  }\n\n  /**\n  @notice             Allows the owner of a listing to decrease their unstaked deposit.\n  @notice             The listing keeps its previous status.\n  @param _listing     The listing of a user's application/listing\n  @param _stakeAmount The number of ERC20 tokens to decrease a user's unstaked deposit\n  */\n  function decrease(address _listing, uint _stakeAmount) public {\n    IListing listing = listings[_listing];\n\n    uint stake = listing.stake();\n\n    require(listing.owner() == msg.sender);\n    require(_stakeAmount <= stake);\n    require(stake - _stakeAmount >= minEnlistAmount);\n\n    require(token.transfer(msg.sender, _stakeAmount));\n\n    listing.setStake(stake.sub(_stakeAmount));\n\n    // Event\n    Decreased(_listing, _stakeAmount, listing.stake());\n    invalidateCache(_listing, \"\", 0);\n  }\n\n  /**\n  @notice             Starts a challenge for a listing.\n  @dev                Tokens are taken from the challenger and the data seller's deposit is locked.\n  @param _listing     The listing of data.\n  @param _stakeAmount The amount the challenger wants to stake.\n  */\n  function challenge(address _listing, uint _stakeAmount, string _metadata) public {\n    require(_stakeAmount >= minChallengeAmount);\n\n    IListing listing = listings[_listing];\n\n    // Takes tokens from challenger\n    require(token.transferFrom(msg.sender, this, _stakeAmount));\n\n    // Add challenge to the challenges mapping\n    Challenge _challenge = new Challenge(\n      msg.sender,\n      _stakeAmount,\n      _listing,\n      gateKeeper\n    );\n\n    // Metadata role\n    gateKeeper.createPermission(\n      msg.sender,\n      address(_challenge),\n      bytes32(\"UPDATE_METADATA_ROLE\"),\n      msg.sender\n    );\n\n    // Add metadata\n    _challenge.updateMetaData(_metadata);\n\n    // Add challenge to listing\n    listing.setChallenge(address(_challenge));\n    // Add to the challengesStake on a listing\n    listing.setChallengesStake(listing.challengesStake().add(_stakeAmount));\n    listing.setNumberOfChallenges(listing.numberOfChallenges().add(1));\n\n    // Event\n    Challenged(_listing, _stakeAmount, address(_challenge));\n    invalidateCache(_listing, \"\", 0);\n  }\n\n   /**\n  @notice             Marks a challenge as resolved.\n  @notice             Rewards the winner tokens and either whitelists or de-whitelists the listing.\n  @param _listing     A listing with a challenge that is to be resolved\n  */\n  function approveChallenge(address _listing) auth(CURATE_CHALLENGE_ROLE) public {\n    IListing listing = listings[_listing];\n\n    uint challengesStake = listing.challengesStake();\n\n    // Curator (msg.sender) should get 10% of the total sum of all challenge stakes + lising stake\n    uint curatorShare = challengesStake.mul((curatorPercentage.div(100)));\n    token.transfer(msg.sender, curatorShare);\n\n    // Challengers should get a percentage of the total sum of all challenge stakes + lising stake\n    // equal to their share of the total challenge stake\n    // Get all challenges that are unresolved and are linked to this listing,\n    for (uint i = 0; i < listing.getIndexLength(); i ++) {\n      var (, _challengeAddress) = listing.getByIndex(i); // Listing has a list of synced challenges. The Syncable methods return a challenge.\n      Challenge _challenge = Challenge(_challengeAddress);\n\n      // Calculate what's left to divide between the challengers\n      uint challengerShare = challengesStake.sub(curatorShare);\n      // Transfer percentage of challenge\n      token.transfer(_challenge.challenger(), challengerShare.mul(_challenge.stake().div(challengesStake)));\n      // Set challenge as resolved\n      _challenge.setResolved(true);\n    }\n\n    // Take stake from listing\n    listing.setStake(0);\n    // Reset number of challenges and total challenges stake\n    listing.setChallengesStake(0);\n    listing.setNumberOfChallenges(0);\n\n    // Blacklist listing\n    listing.setWhitelisted(false);\n\n    // Event\n    ChallengeApproved(_listing);\n    invalidateCache(_listing, \"\", 0);\n  }\n\n   /**\n  @notice             Marks a challenge as denied.\n  @notice             Rewards the listing seller tokens and de-whitelists the listing.\n  @param _listing     A listing with a challenge that is to be resolved\n  */\n  function denyChallenge(address _listing) auth(CURATE_CHALLENGE_ROLE) public {\n    IListing listing = listings[_listing];\n\n    uint challengesStake = listing.challengesStake();\n\n    // Admin (msg.sender) should get 10% of the total sum of all challenge stakes + lising stake\n    uint curatorShare = challengesStake.mul(curatorPercentage.div(100));\n    token.transfer(msg.sender, curatorShare);\n\n    // Transfer the rest of the stake to the data owner\n    token.transfer(listing.owner(), challengesStake.sub(curatorShare));\n\n    // Get all challenges that are unresolved and are linked to this listing,\n    for (uint i = 0; i < listing.getIndexLength(); i ++) {\n      // Set challenge as resolved\n      var (, _challengeAddress) = listing.getByIndex(i); // Listing has a list of synced challenges. The Syncable methods return a challenge.\n      Challenge(_challengeAddress).setResolved(true);\n    }\n\n    // Reset number of challenges and total challenges stake\n    listing.setChallengesStake(0);\n    listing.setNumberOfChallenges(0);\n\n    // Event\n    ChallengeDenied(_listing);\n    invalidateCache(_listing, \"\", 0);\n  }\n\n  /**\n  @notice      Withdraw all the funds from this contract: safety measure\n  */\n  function withdraw() auth(WITHDRAW_FUNDS_ROLE) public {\n    uint balance = address(this).balance;\n    token.transfer(msg.sender, address(this).balance);\n    Withdrawn(msg.sender, balance);\n  }\n\n  /**\n  @notice                   Sets the minEnlistAmount\n  @param _minEnlistAmount   minEnlistAmount\n  */\n  function setMinEnlistAmount(uint _minEnlistAmount) auth(CHANGE_SETTINGS_ROLE) public {\n    minEnlistAmount = _minEnlistAmount;\n    MinEnlistAmountChanged(_minEnlistAmount);\n  }\n\n  /**\n  @notice                     Sets the minChallengeAmount\n  @param _minChallengeAmount  minChallengeAmount\n  */\n  function setMinChallengeAmount(uint _minChallengeAmount) auth(CHANGE_SETTINGS_ROLE) public {\n    minChallengeAmount = _minChallengeAmount;\n    MinChallengeAmountChanged(_minChallengeAmount);\n  }\n\n  /**\n  @notice                   Sets the curatorPercentage\n  @param _curatorPercentage curatorPercentage\n  */\n  function setCuratorPercentage(uint _curatorPercentage) auth(CHANGE_SETTINGS_ROLE) public {\n    curatorPercentage = _curatorPercentage;\n    CuratorPercentageChanged(_curatorPercentage);\n  }\n\n  /**\n  * implementation of cacher methods\n  */\n  function invalidateCache(address _cachedAddress, bytes32 /*_cachedBytes32*/, uint256 /*_cachedUint256*/) public {\n    AddressCacheInvalidated(_cachedAddress);\n  }\n\n  /**\n  * implementation of syncable methods\n  */\n  function getIndexLength() public view returns (uint length) {\n    length = listingsIndex.length;\n  }\n\n  function getByIndex(uint index) public view returns (address key, address contractAddress) {\n    return getByKey(listingsIndex[index]);\n  }\n\n  function getByKey(address _key) public view returns (address key, address contractAddress) {\n    key = address(listings[_key]);\n    contractAddress = address(listings[_key]);\n  }\n}\n",
  "sourcePath": "@settlemint/solidity-mint/contracts/marketplaces/tokencuratedregistry/TokenCuratedRegistry.sol",
  "compiler": {
    "name": "solc",
    "version": "0.4.22+commit.4cb486ee.Emscripten.clang"
  },
  "schemaVersion": "2.0.0",
  "updatedAt": "2018-04-20T13:19:52.940Z"
}